{
	"Assignments/Lecture 7/ERC721/ERC721.sol": {
		"MockBaseNFTContract": {
			"abi": [
				{
					"inputs": [
						{
							"internalType": "string",
							"name": "_name",
							"type": "string"
						},
						{
							"internalType": "string",
							"name": "_symbol",
							"type": "string"
						}
					],
					"stateMutability": "nonpayable",
					"type": "constructor"
				},
				{
					"anonymous": false,
					"inputs": [
						{
							"indexed": true,
							"internalType": "address",
							"name": "from",
							"type": "address"
						},
						{
							"indexed": true,
							"internalType": "address",
							"name": "to",
							"type": "address"
						},
						{
							"indexed": true,
							"internalType": "uint256",
							"name": "tokenId",
							"type": "uint256"
						}
					],
					"name": "Transfer",
					"type": "event"
				},
				{
					"inputs": [
						{
							"internalType": "address",
							"name": "target",
							"type": "address"
						}
					],
					"name": "balanceOf",
					"outputs": [
						{
							"internalType": "uint256",
							"name": "",
							"type": "uint256"
						}
					],
					"stateMutability": "view",
					"type": "function"
				},
				{
					"inputs": [
						{
							"internalType": "uint256",
							"name": "tokenId",
							"type": "uint256"
						}
					],
					"name": "burn",
					"outputs": [],
					"stateMutability": "nonpayable",
					"type": "function"
				},
				{
					"inputs": [
						{
							"internalType": "address",
							"name": "",
							"type": "address"
						}
					],
					"name": "holderBalances",
					"outputs": [
						{
							"internalType": "uint256",
							"name": "",
							"type": "uint256"
						}
					],
					"stateMutability": "view",
					"type": "function"
				},
				{
					"inputs": [
						{
							"internalType": "uint256",
							"name": "",
							"type": "uint256"
						}
					],
					"name": "holders",
					"outputs": [
						{
							"internalType": "address",
							"name": "",
							"type": "address"
						}
					],
					"stateMutability": "view",
					"type": "function"
				},
				{
					"inputs": [
						{
							"internalType": "address",
							"name": "target",
							"type": "address"
						}
					],
					"name": "mint",
					"outputs": [],
					"stateMutability": "nonpayable",
					"type": "function"
				},
				{
					"inputs": [],
					"name": "name",
					"outputs": [
						{
							"internalType": "string",
							"name": "",
							"type": "string"
						}
					],
					"stateMutability": "view",
					"type": "function"
				},
				{
					"inputs": [],
					"name": "symbol",
					"outputs": [
						{
							"internalType": "string",
							"name": "",
							"type": "string"
						}
					],
					"stateMutability": "view",
					"type": "function"
				},
				{
					"inputs": [
						{
							"internalType": "address",
							"name": "target",
							"type": "address"
						},
						{
							"internalType": "uint256",
							"name": "tokenId",
							"type": "uint256"
						}
					],
					"name": "transfer",
					"outputs": [],
					"stateMutability": "nonpayable",
					"type": "function"
				}
			],
			"devdoc": {
				"kind": "dev",
				"methods": {},
				"version": 1
			},
			"evm": {
				"assembly": "    /* \"Assignments/Lecture 7/ERC721/ERC721.sol\":64:1658  contract MockBaseNFTContract {... */\n  mstore(0x40, 0x80)\n    /* \"Assignments/Lecture 7/ERC721/ERC721.sol\":389:503  constructor(string memory _name, string memory _symbol) {... */\n  callvalue\n  dup1\n  iszero\n  tag_1\n  jumpi\n  revert(0x00, 0x00)\ntag_1:\n  pop\n  mload(0x40)\n  sub(codesize, bytecodeSize)\n  dup1\n  bytecodeSize\n  dup4\n  codecopy\n  dup2\n  dup2\n  add\n  0x40\n  mstore\n  dup2\n  add\n  swap1\n  tag_2\n  swap2\n  swap1\n  tag_3\n  jump\t// in\ntag_2:\n    /* \"Assignments/Lecture 7/ERC721/ERC721.sol\":463:468  _name */\n  dup2\n    /* \"Assignments/Lecture 7/ERC721/ERC721.sol\":456:460  name */\n  0x01\n    /* \"Assignments/Lecture 7/ERC721/ERC721.sol\":456:468  name = _name */\n  swap1\n  dup2\n  tag_6\n  swap2\n  swap1\n  tag_7\n  jump\t// in\ntag_6:\n  pop\n    /* \"Assignments/Lecture 7/ERC721/ERC721.sol\":488:495  _symbol */\n  dup1\n    /* \"Assignments/Lecture 7/ERC721/ERC721.sol\":479:485  symbol */\n  0x02\n    /* \"Assignments/Lecture 7/ERC721/ERC721.sol\":479:495  symbol = _symbol */\n  swap1\n  dup2\n  tag_8\n  swap2\n  swap1\n  tag_7\n  jump\t// in\ntag_8:\n  pop\n    /* \"Assignments/Lecture 7/ERC721/ERC721.sol\":389:503  constructor(string memory _name, string memory _symbol) {... */\n  pop\n  pop\n    /* \"Assignments/Lecture 7/ERC721/ERC721.sol\":64:1658  contract MockBaseNFTContract {... */\n  jump(tag_9)\n    /* \"#utility.yul\":7:82   */\ntag_10:\n    /* \"#utility.yul\":40:46   */\n  0x00\n    /* \"#utility.yul\":73:75   */\n  0x40\n    /* \"#utility.yul\":67:76   */\n  mload\n    /* \"#utility.yul\":57:76   */\n  swap1\n  pop\n    /* \"#utility.yul\":7:82   */\n  swap1\n  jump\t// out\n    /* \"#utility.yul\":88:205   */\ntag_11:\n    /* \"#utility.yul\":197:198   */\n  0x00\n    /* \"#utility.yul\":194:195   */\n  0x00\n    /* \"#utility.yul\":187:199   */\n  revert\n    /* \"#utility.yul\":211:328   */\ntag_12:\n    /* \"#utility.yul\":320:321   */\n  0x00\n    /* \"#utility.yul\":317:318   */\n  0x00\n    /* \"#utility.yul\":310:322   */\n  revert\n    /* \"#utility.yul\":334:451   */\ntag_13:\n    /* \"#utility.yul\":443:444   */\n  0x00\n    /* \"#utility.yul\":440:441   */\n  0x00\n    /* \"#utility.yul\":433:445   */\n  revert\n    /* \"#utility.yul\":457:574   */\ntag_14:\n    /* \"#utility.yul\":566:567   */\n  0x00\n    /* \"#utility.yul\":563:564   */\n  0x00\n    /* \"#utility.yul\":556:568   */\n  revert\n    /* \"#utility.yul\":580:682   */\ntag_15:\n    /* \"#utility.yul\":621:627   */\n  0x00\n    /* \"#utility.yul\":672:674   */\n  0x1f\n    /* \"#utility.yul\":668:675   */\n  not\n    /* \"#utility.yul\":663:665   */\n  0x1f\n    /* \"#utility.yul\":656:661   */\n  dup4\n    /* \"#utility.yul\":652:666   */\n  add\n    /* \"#utility.yul\":648:676   */\n  and\n    /* \"#utility.yul\":638:676   */\n  swap1\n  pop\n    /* \"#utility.yul\":580:682   */\n  swap2\n  swap1\n  pop\n  jump\t// out\n    /* \"#utility.yul\":688:868   */\ntag_16:\n    /* \"#utility.yul\":736:813   */\n  0x4e487b7100000000000000000000000000000000000000000000000000000000\n    /* \"#utility.yul\":733:734   */\n  0x00\n    /* \"#utility.yul\":726:814   */\n  mstore\n    /* \"#utility.yul\":833:837   */\n  0x41\n    /* \"#utility.yul\":830:831   */\n  0x04\n    /* \"#utility.yul\":823:838   */\n  mstore\n    /* \"#utility.yul\":857:861   */\n  0x24\n    /* \"#utility.yul\":854:855   */\n  0x00\n    /* \"#utility.yul\":847:862   */\n  revert\n    /* \"#utility.yul\":874:1155   */\ntag_17:\n    /* \"#utility.yul\":957:984   */\n  tag_51\n    /* \"#utility.yul\":979:983   */\n  dup3\n    /* \"#utility.yul\":957:984   */\n  tag_15\n  jump\t// in\ntag_51:\n    /* \"#utility.yul\":949:955   */\n  dup2\n    /* \"#utility.yul\":945:985   */\n  add\n    /* \"#utility.yul\":1087:1093   */\n  dup2\n    /* \"#utility.yul\":1075:1085   */\n  dup2\n    /* \"#utility.yul\":1072:1094   */\n  lt\n    /* \"#utility.yul\":1051:1069   */\n  0xffffffffffffffff\n    /* \"#utility.yul\":1039:1049   */\n  dup3\n    /* \"#utility.yul\":1036:1070   */\n  gt\n    /* \"#utility.yul\":1033:1095   */\n  or\n    /* \"#utility.yul\":1030:1118   */\n  iszero\n  tag_52\n  jumpi\n    /* \"#utility.yul\":1098:1116   */\n  tag_53\n  tag_16\n  jump\t// in\ntag_53:\n    /* \"#utility.yul\":1030:1118   */\ntag_52:\n    /* \"#utility.yul\":1138:1148   */\n  dup1\n    /* \"#utility.yul\":1134:1136   */\n  0x40\n    /* \"#utility.yul\":1127:1149   */\n  mstore\n    /* \"#utility.yul\":917:1155   */\n  pop\n    /* \"#utility.yul\":874:1155   */\n  pop\n  pop\n  jump\t// out\n    /* \"#utility.yul\":1161:1290   */\ntag_18:\n    /* \"#utility.yul\":1195:1201   */\n  0x00\n    /* \"#utility.yul\":1222:1242   */\n  tag_55\n  tag_10\n  jump\t// in\ntag_55:\n    /* \"#utility.yul\":1212:1242   */\n  swap1\n  pop\n    /* \"#utility.yul\":1251:1284   */\n  tag_56\n    /* \"#utility.yul\":1279:1283   */\n  dup3\n    /* \"#utility.yul\":1271:1277   */\n  dup3\n    /* \"#utility.yul\":1251:1284   */\n  tag_17\n  jump\t// in\ntag_56:\n    /* \"#utility.yul\":1161:1290   */\n  swap2\n  swap1\n  pop\n  jump\t// out\n    /* \"#utility.yul\":1296:1604   */\ntag_19:\n    /* \"#utility.yul\":1358:1362   */\n  0x00\n    /* \"#utility.yul\":1448:1466   */\n  0xffffffffffffffff\n    /* \"#utility.yul\":1440:1446   */\n  dup3\n    /* \"#utility.yul\":1437:1467   */\n  gt\n    /* \"#utility.yul\":1434:1490   */\n  iszero\n  tag_58\n  jumpi\n    /* \"#utility.yul\":1470:1488   */\n  tag_59\n  tag_16\n  jump\t// in\ntag_59:\n    /* \"#utility.yul\":1434:1490   */\ntag_58:\n    /* \"#utility.yul\":1508:1537   */\n  tag_60\n    /* \"#utility.yul\":1530:1536   */\n  dup3\n    /* \"#utility.yul\":1508:1537   */\n  tag_15\n  jump\t// in\ntag_60:\n    /* \"#utility.yul\":1500:1537   */\n  swap1\n  pop\n    /* \"#utility.yul\":1592:1596   */\n  0x20\n    /* \"#utility.yul\":1586:1590   */\n  dup2\n    /* \"#utility.yul\":1582:1597   */\n  add\n    /* \"#utility.yul\":1574:1597   */\n  swap1\n  pop\n    /* \"#utility.yul\":1296:1604   */\n  swap2\n  swap1\n  pop\n  jump\t// out\n    /* \"#utility.yul\":1610:1749   */\ntag_20:\n    /* \"#utility.yul\":1699:1705   */\n  dup3\n    /* \"#utility.yul\":1694:1697   */\n  dup2\n    /* \"#utility.yul\":1689:1692   */\n  dup4\n    /* \"#utility.yul\":1683:1706   */\n  mcopy\n    /* \"#utility.yul\":1740:1741   */\n  0x00\n    /* \"#utility.yul\":1731:1737   */\n  dup4\n    /* \"#utility.yul\":1726:1729   */\n  dup4\n    /* \"#utility.yul\":1722:1738   */\n  add\n    /* \"#utility.yul\":1715:1742   */\n  mstore\n    /* \"#utility.yul\":1610:1749   */\n  pop\n  pop\n  pop\n  jump\t// out\n    /* \"#utility.yul\":1755:2189   */\ntag_21:\n    /* \"#utility.yul\":1844:1849   */\n  0x00\n    /* \"#utility.yul\":1869:1935   */\n  tag_63\n    /* \"#utility.yul\":1885:1934   */\n  tag_64\n    /* \"#utility.yul\":1927:1933   */\n  dup5\n    /* \"#utility.yul\":1885:1934   */\n  tag_19\n  jump\t// in\ntag_64:\n    /* \"#utility.yul\":1869:1935   */\n  tag_18\n  jump\t// in\ntag_63:\n    /* \"#utility.yul\":1860:1935   */\n  swap1\n  pop\n    /* \"#utility.yul\":1958:1964   */\n  dup3\n    /* \"#utility.yul\":1951:1956   */\n  dup2\n    /* \"#utility.yul\":1944:1965   */\n  mstore\n    /* \"#utility.yul\":1996:2000   */\n  0x20\n    /* \"#utility.yul\":1989:1994   */\n  dup2\n    /* \"#utility.yul\":1985:2001   */\n  add\n    /* \"#utility.yul\":2034:2037   */\n  dup5\n    /* \"#utility.yul\":2025:2031   */\n  dup5\n    /* \"#utility.yul\":2020:2023   */\n  dup5\n    /* \"#utility.yul\":2016:2032   */\n  add\n    /* \"#utility.yul\":2013:2038   */\n  gt\n    /* \"#utility.yul\":2010:2122   */\n  iszero\n  tag_65\n  jumpi\n    /* \"#utility.yul\":2041:2120   */\n  tag_66\n  tag_14\n  jump\t// in\ntag_66:\n    /* \"#utility.yul\":2010:2122   */\ntag_65:\n    /* \"#utility.yul\":2131:2183   */\n  tag_67\n    /* \"#utility.yul\":2176:2182   */\n  dup5\n    /* \"#utility.yul\":2171:2174   */\n  dup3\n    /* \"#utility.yul\":2166:2169   */\n  dup6\n    /* \"#utility.yul\":2131:2183   */\n  tag_20\n  jump\t// in\ntag_67:\n    /* \"#utility.yul\":1850:2189   */\n  pop\n    /* \"#utility.yul\":1755:2189   */\n  swap4\n  swap3\n  pop\n  pop\n  pop\n  jump\t// out\n    /* \"#utility.yul\":2209:2564   */\ntag_22:\n    /* \"#utility.yul\":2276:2281   */\n  0x00\n    /* \"#utility.yul\":2325:2328   */\n  dup3\n    /* \"#utility.yul\":2318:2322   */\n  0x1f\n    /* \"#utility.yul\":2310:2316   */\n  dup4\n    /* \"#utility.yul\":2306:2323   */\n  add\n    /* \"#utility.yul\":2302:2329   */\n  slt\n    /* \"#utility.yul\":2292:2414   */\n  tag_69\n  jumpi\n    /* \"#utility.yul\":2333:2412   */\n  tag_70\n  tag_13\n  jump\t// in\ntag_70:\n    /* \"#utility.yul\":2292:2414   */\ntag_69:\n    /* \"#utility.yul\":2443:2449   */\n  dup2\n    /* \"#utility.yul\":2437:2450   */\n  mload\n    /* \"#utility.yul\":2468:2558   */\n  tag_71\n    /* \"#utility.yul\":2554:2557   */\n  dup5\n    /* \"#utility.yul\":2546:2552   */\n  dup3\n    /* \"#utility.yul\":2539:2543   */\n  0x20\n    /* \"#utility.yul\":2531:2537   */\n  dup7\n    /* \"#utility.yul\":2527:2544   */\n  add\n    /* \"#utility.yul\":2468:2558   */\n  tag_21\n  jump\t// in\ntag_71:\n    /* \"#utility.yul\":2459:2558   */\n  swap2\n  pop\n    /* \"#utility.yul\":2282:2564   */\n  pop\n    /* \"#utility.yul\":2209:2564   */\n  swap3\n  swap2\n  pop\n  pop\n  jump\t// out\n    /* \"#utility.yul\":2570:3423   */\ntag_3:\n    /* \"#utility.yul\":2669:2675   */\n  0x00\n    /* \"#utility.yul\":2677:2683   */\n  0x00\n    /* \"#utility.yul\":2726:2728   */\n  0x40\n    /* \"#utility.yul\":2714:2723   */\n  dup4\n    /* \"#utility.yul\":2705:2712   */\n  dup6\n    /* \"#utility.yul\":2701:2724   */\n  sub\n    /* \"#utility.yul\":2697:2729   */\n  slt\n    /* \"#utility.yul\":2694:2813   */\n  iszero\n  tag_73\n  jumpi\n    /* \"#utility.yul\":2732:2811   */\n  tag_74\n  tag_11\n  jump\t// in\ntag_74:\n    /* \"#utility.yul\":2694:2813   */\ntag_73:\n    /* \"#utility.yul\":2873:2874   */\n  0x00\n    /* \"#utility.yul\":2862:2871   */\n  dup4\n    /* \"#utility.yul\":2858:2875   */\n  add\n    /* \"#utility.yul\":2852:2876   */\n  mload\n    /* \"#utility.yul\":2903:2921   */\n  0xffffffffffffffff\n    /* \"#utility.yul\":2895:2901   */\n  dup2\n    /* \"#utility.yul\":2892:2922   */\n  gt\n    /* \"#utility.yul\":2889:3006   */\n  iszero\n  tag_75\n  jumpi\n    /* \"#utility.yul\":2925:3004   */\n  tag_76\n  tag_12\n  jump\t// in\ntag_76:\n    /* \"#utility.yul\":2889:3006   */\ntag_75:\n    /* \"#utility.yul\":3030:3104   */\n  tag_77\n    /* \"#utility.yul\":3096:3103   */\n  dup6\n    /* \"#utility.yul\":3087:3093   */\n  dup3\n    /* \"#utility.yul\":3076:3085   */\n  dup7\n    /* \"#utility.yul\":3072:3094   */\n  add\n    /* \"#utility.yul\":3030:3104   */\n  tag_22\n  jump\t// in\ntag_77:\n    /* \"#utility.yul\":3020:3104   */\n  swap3\n  pop\n    /* \"#utility.yul\":2823:3114   */\n  pop\n    /* \"#utility.yul\":3174:3176   */\n  0x20\n    /* \"#utility.yul\":3163:3172   */\n  dup4\n    /* \"#utility.yul\":3159:3177   */\n  add\n    /* \"#utility.yul\":3153:3178   */\n  mload\n    /* \"#utility.yul\":3205:3223   */\n  0xffffffffffffffff\n    /* \"#utility.yul\":3197:3203   */\n  dup2\n    /* \"#utility.yul\":3194:3224   */\n  gt\n    /* \"#utility.yul\":3191:3308   */\n  iszero\n  tag_78\n  jumpi\n    /* \"#utility.yul\":3227:3306   */\n  tag_79\n  tag_12\n  jump\t// in\ntag_79:\n    /* \"#utility.yul\":3191:3308   */\ntag_78:\n    /* \"#utility.yul\":3332:3406   */\n  tag_80\n    /* \"#utility.yul\":3398:3405   */\n  dup6\n    /* \"#utility.yul\":3389:3395   */\n  dup3\n    /* \"#utility.yul\":3378:3387   */\n  dup7\n    /* \"#utility.yul\":3374:3396   */\n  add\n    /* \"#utility.yul\":3332:3406   */\n  tag_22\n  jump\t// in\ntag_80:\n    /* \"#utility.yul\":3322:3406   */\n  swap2\n  pop\n    /* \"#utility.yul\":3124:3416   */\n  pop\n    /* \"#utility.yul\":2570:3423   */\n  swap3\n  pop\n  swap3\n  swap1\n  pop\n  jump\t// out\n    /* \"#utility.yul\":3429:3528   */\ntag_23:\n    /* \"#utility.yul\":3481:3487   */\n  0x00\n    /* \"#utility.yul\":3515:3520   */\n  dup2\n    /* \"#utility.yul\":3509:3521   */\n  mload\n    /* \"#utility.yul\":3499:3521   */\n  swap1\n  pop\n    /* \"#utility.yul\":3429:3528   */\n  swap2\n  swap1\n  pop\n  jump\t// out\n    /* \"#utility.yul\":3534:3714   */\ntag_24:\n    /* \"#utility.yul\":3582:3659   */\n  0x4e487b7100000000000000000000000000000000000000000000000000000000\n    /* \"#utility.yul\":3579:3580   */\n  0x00\n    /* \"#utility.yul\":3572:3660   */\n  mstore\n    /* \"#utility.yul\":3679:3683   */\n  0x22\n    /* \"#utility.yul\":3676:3677   */\n  0x04\n    /* \"#utility.yul\":3669:3684   */\n  mstore\n    /* \"#utility.yul\":3703:3707   */\n  0x24\n    /* \"#utility.yul\":3700:3701   */\n  0x00\n    /* \"#utility.yul\":3693:3708   */\n  revert\n    /* \"#utility.yul\":3720:4040   */\ntag_25:\n    /* \"#utility.yul\":3764:3770   */\n  0x00\n    /* \"#utility.yul\":3801:3802   */\n  0x02\n    /* \"#utility.yul\":3795:3799   */\n  dup3\n    /* \"#utility.yul\":3791:3803   */\n  div\n    /* \"#utility.yul\":3781:3803   */\n  swap1\n  pop\n    /* \"#utility.yul\":3848:3849   */\n  0x01\n    /* \"#utility.yul\":3842:3846   */\n  dup3\n    /* \"#utility.yul\":3838:3850   */\n  and\n    /* \"#utility.yul\":3869:3887   */\n  dup1\n    /* \"#utility.yul\":3859:3940   */\n  tag_84\n  jumpi\n    /* \"#utility.yul\":3925:3929   */\n  0x7f\n    /* \"#utility.yul\":3917:3923   */\n  dup3\n    /* \"#utility.yul\":3913:3930   */\n  and\n    /* \"#utility.yul\":3903:3930   */\n  swap2\n  pop\n    /* \"#utility.yul\":3859:3940   */\ntag_84:\n    /* \"#utility.yul\":3987:3989   */\n  0x20\n    /* \"#utility.yul\":3979:3985   */\n  dup3\n    /* \"#utility.yul\":3976:3990   */\n  lt\n    /* \"#utility.yul\":3956:3974   */\n  dup2\n    /* \"#utility.yul\":3953:3991   */\n  sub\n    /* \"#utility.yul\":3950:4034   */\n  tag_85\n  jumpi\n    /* \"#utility.yul\":4006:4024   */\n  tag_86\n  tag_24\n  jump\t// in\ntag_86:\n    /* \"#utility.yul\":3950:4034   */\ntag_85:\n    /* \"#utility.yul\":3771:4040   */\n  pop\n    /* \"#utility.yul\":3720:4040   */\n  swap2\n  swap1\n  pop\n  jump\t// out\n    /* \"#utility.yul\":4046:4187   */\ntag_26:\n    /* \"#utility.yul\":4095:4099   */\n  0x00\n    /* \"#utility.yul\":4118:4121   */\n  dup2\n    /* \"#utility.yul\":4110:4121   */\n  swap1\n  pop\n    /* \"#utility.yul\":4141:4144   */\n  dup2\n    /* \"#utility.yul\":4138:4139   */\n  0x00\n    /* \"#utility.yul\":4131:4145   */\n  mstore\n    /* \"#utility.yul\":4175:4179   */\n  0x20\n    /* \"#utility.yul\":4172:4173   */\n  0x00\n    /* \"#utility.yul\":4162:4180   */\n  keccak256\n    /* \"#utility.yul\":4154:4180   */\n  swap1\n  pop\n    /* \"#utility.yul\":4046:4187   */\n  swap2\n  swap1\n  pop\n  jump\t// out\n    /* \"#utility.yul\":4193:4286   */\ntag_27:\n    /* \"#utility.yul\":4230:4236   */\n  0x00\n    /* \"#utility.yul\":4277:4279   */\n  0x20\n    /* \"#utility.yul\":4272:4274   */\n  0x1f\n    /* \"#utility.yul\":4265:4270   */\n  dup4\n    /* \"#utility.yul\":4261:4275   */\n  add\n    /* \"#utility.yul\":4257:4280   */\n  div\n    /* \"#utility.yul\":4247:4280   */\n  swap1\n  pop\n    /* \"#utility.yul\":4193:4286   */\n  swap2\n  swap1\n  pop\n  jump\t// out\n    /* \"#utility.yul\":4292:4399   */\ntag_28:\n    /* \"#utility.yul\":4336:4344   */\n  0x00\n    /* \"#utility.yul\":4386:4391   */\n  dup3\n    /* \"#utility.yul\":4380:4384   */\n  dup3\n    /* \"#utility.yul\":4376:4392   */\n  shl\n    /* \"#utility.yul\":4355:4392   */\n  swap1\n  pop\n    /* \"#utility.yul\":4292:4399   */\n  swap3\n  swap2\n  pop\n  pop\n  jump\t// out\n    /* \"#utility.yul\":4405:4798   */\ntag_29:\n    /* \"#utility.yul\":4474:4480   */\n  0x00\n    /* \"#utility.yul\":4524:4525   */\n  0x08\n    /* \"#utility.yul\":4512:4522   */\n  dup4\n    /* \"#utility.yul\":4508:4526   */\n  mul\n    /* \"#utility.yul\":4547:4644   */\n  tag_91\n    /* \"#utility.yul\":4577:4643   */\n  0xffffffffffffffffffffffffffffffffffffffffffffffffffffffffffffffff\n    /* \"#utility.yul\":4566:4575   */\n  dup3\n    /* \"#utility.yul\":4547:4644   */\n  tag_28\n  jump\t// in\ntag_91:\n    /* \"#utility.yul\":4665:4704   */\n  tag_92\n    /* \"#utility.yul\":4695:4703   */\n  dup7\n    /* \"#utility.yul\":4684:4693   */\n  dup4\n    /* \"#utility.yul\":4665:4704   */\n  tag_28\n  jump\t// in\ntag_92:\n    /* \"#utility.yul\":4653:4704   */\n  swap6\n  pop\n    /* \"#utility.yul\":4737:4741   */\n  dup1\n    /* \"#utility.yul\":4733:4742   */\n  not\n    /* \"#utility.yul\":4726:4731   */\n  dup5\n    /* \"#utility.yul\":4722:4743   */\n  and\n    /* \"#utility.yul\":4713:4743   */\n  swap4\n  pop\n    /* \"#utility.yul\":4786:4790   */\n  dup1\n    /* \"#utility.yul\":4776:4784   */\n  dup7\n    /* \"#utility.yul\":4772:4791   */\n  and\n    /* \"#utility.yul\":4765:4770   */\n  dup5\n    /* \"#utility.yul\":4762:4792   */\n  or\n    /* \"#utility.yul\":4752:4792   */\n  swap3\n  pop\n    /* \"#utility.yul\":4481:4798   */\n  pop\n  pop\n    /* \"#utility.yul\":4405:4798   */\n  swap4\n  swap3\n  pop\n  pop\n  pop\n  jump\t// out\n    /* \"#utility.yul\":4804:4881   */\ntag_30:\n    /* \"#utility.yul\":4841:4848   */\n  0x00\n    /* \"#utility.yul\":4870:4875   */\n  dup2\n    /* \"#utility.yul\":4859:4875   */\n  swap1\n  pop\n    /* \"#utility.yul\":4804:4881   */\n  swap2\n  swap1\n  pop\n  jump\t// out\n    /* \"#utility.yul\":4887:4947   */\ntag_31:\n    /* \"#utility.yul\":4915:4918   */\n  0x00\n    /* \"#utility.yul\":4936:4941   */\n  dup2\n    /* \"#utility.yul\":4929:4941   */\n  swap1\n  pop\n    /* \"#utility.yul\":4887:4947   */\n  swap2\n  swap1\n  pop\n  jump\t// out\n    /* \"#utility.yul\":4953:5095   */\ntag_32:\n    /* \"#utility.yul\":5003:5012   */\n  0x00\n    /* \"#utility.yul\":5036:5089   */\n  tag_96\n    /* \"#utility.yul\":5054:5088   */\n  tag_97\n    /* \"#utility.yul\":5063:5087   */\n  tag_98\n    /* \"#utility.yul\":5081:5086   */\n  dup5\n    /* \"#utility.yul\":5063:5087   */\n  tag_30\n  jump\t// in\ntag_98:\n    /* \"#utility.yul\":5054:5088   */\n  tag_31\n  jump\t// in\ntag_97:\n    /* \"#utility.yul\":5036:5089   */\n  tag_30\n  jump\t// in\ntag_96:\n    /* \"#utility.yul\":5023:5089   */\n  swap1\n  pop\n    /* \"#utility.yul\":4953:5095   */\n  swap2\n  swap1\n  pop\n  jump\t// out\n    /* \"#utility.yul\":5101:5176   */\ntag_33:\n    /* \"#utility.yul\":5144:5147   */\n  0x00\n    /* \"#utility.yul\":5165:5170   */\n  dup2\n    /* \"#utility.yul\":5158:5170   */\n  swap1\n  pop\n    /* \"#utility.yul\":5101:5176   */\n  swap2\n  swap1\n  pop\n  jump\t// out\n    /* \"#utility.yul\":5182:5451   */\ntag_34:\n    /* \"#utility.yul\":5292:5331   */\n  tag_101\n    /* \"#utility.yul\":5323:5330   */\n  dup4\n    /* \"#utility.yul\":5292:5331   */\n  tag_32\n  jump\t// in\ntag_101:\n    /* \"#utility.yul\":5353:5444   */\n  tag_102\n    /* \"#utility.yul\":5402:5443   */\n  tag_103\n    /* \"#utility.yul\":5426:5442   */\n  dup3\n    /* \"#utility.yul\":5402:5443   */\n  tag_33\n  jump\t// in\ntag_103:\n    /* \"#utility.yul\":5394:5400   */\n  dup5\n    /* \"#utility.yul\":5387:5391   */\n  dup5\n    /* \"#utility.yul\":5381:5392   */\n  sload\n    /* \"#utility.yul\":5353:5444   */\n  tag_29\n  jump\t// in\ntag_102:\n    /* \"#utility.yul\":5347:5351   */\n  dup3\n    /* \"#utility.yul\":5340:5445   */\n  sstore\n    /* \"#utility.yul\":5258:5451   */\n  pop\n    /* \"#utility.yul\":5182:5451   */\n  pop\n  pop\n  pop\n  jump\t// out\n    /* \"#utility.yul\":5457:5530   */\ntag_35:\n    /* \"#utility.yul\":5502:5505   */\n  0x00\n    /* \"#utility.yul\":5523:5524   */\n  0x00\n    /* \"#utility.yul\":5516:5524   */\n  swap1\n  pop\n    /* \"#utility.yul\":5457:5530   */\n  swap1\n  jump\t// out\n    /* \"#utility.yul\":5536:5725   */\ntag_36:\n    /* \"#utility.yul\":5613:5645   */\n  tag_106\n  tag_35\n  jump\t// in\ntag_106:\n    /* \"#utility.yul\":5654:5719   */\n  tag_107\n    /* \"#utility.yul\":5712:5718   */\n  dup2\n    /* \"#utility.yul\":5704:5710   */\n  dup5\n    /* \"#utility.yul\":5698:5702   */\n  dup5\n    /* \"#utility.yul\":5654:5719   */\n  tag_34\n  jump\t// in\ntag_107:\n    /* \"#utility.yul\":5589:5725   */\n  pop\n    /* \"#utility.yul\":5536:5725   */\n  pop\n  pop\n  jump\t// out\n    /* \"#utility.yul\":5731:5917   */\ntag_37:\n    /* \"#utility.yul\":5791:5911   */\ntag_109:\n    /* \"#utility.yul\":5808:5811   */\n  dup2\n    /* \"#utility.yul\":5801:5806   */\n  dup2\n    /* \"#utility.yul\":5798:5812   */\n  lt\n    /* \"#utility.yul\":5791:5911   */\n  iszero\n  tag_111\n  jumpi\n    /* \"#utility.yul\":5862:5901   */\n  tag_112\n    /* \"#utility.yul\":5899:5900   */\n  0x00\n    /* \"#utility.yul\":5892:5897   */\n  dup3\n    /* \"#utility.yul\":5862:5901   */\n  tag_36\n  jump\t// in\ntag_112:\n    /* \"#utility.yul\":5835:5836   */\n  0x01\n    /* \"#utility.yul\":5828:5833   */\n  dup2\n    /* \"#utility.yul\":5824:5837   */\n  add\n    /* \"#utility.yul\":5815:5837   */\n  swap1\n  pop\n    /* \"#utility.yul\":5791:5911   */\n  jump(tag_109)\ntag_111:\n    /* \"#utility.yul\":5731:5917   */\n  pop\n  pop\n  jump\t// out\n    /* \"#utility.yul\":5923:6466   */\ntag_38:\n    /* \"#utility.yul\":6024:6026   */\n  0x1f\n    /* \"#utility.yul\":6019:6022   */\n  dup3\n    /* \"#utility.yul\":6016:6027   */\n  gt\n    /* \"#utility.yul\":6013:6459   */\n  iszero\n  tag_114\n  jumpi\n    /* \"#utility.yul\":6058:6096   */\n  tag_115\n    /* \"#utility.yul\":6090:6095   */\n  dup2\n    /* \"#utility.yul\":6058:6096   */\n  tag_26\n  jump\t// in\ntag_115:\n    /* \"#utility.yul\":6142:6171   */\n  tag_116\n    /* \"#utility.yul\":6160:6170   */\n  dup5\n    /* \"#utility.yul\":6142:6171   */\n  tag_27\n  jump\t// in\ntag_116:\n    /* \"#utility.yul\":6132:6140   */\n  dup2\n    /* \"#utility.yul\":6128:6172   */\n  add\n    /* \"#utility.yul\":6325:6327   */\n  0x20\n    /* \"#utility.yul\":6313:6323   */\n  dup6\n    /* \"#utility.yul\":6310:6328   */\n  lt\n    /* \"#utility.yul\":6307:6356   */\n  iszero\n  tag_117\n  jumpi\n    /* \"#utility.yul\":6346:6354   */\n  dup2\n    /* \"#utility.yul\":6331:6354   */\n  swap1\n  pop\n    /* \"#utility.yul\":6307:6356   */\ntag_117:\n    /* \"#utility.yul\":6369:6449   */\n  tag_118\n    /* \"#utility.yul\":6425:6447   */\n  tag_119\n    /* \"#utility.yul\":6443:6446   */\n  dup6\n    /* \"#utility.yul\":6425:6447   */\n  tag_27\n  jump\t// in\ntag_119:\n    /* \"#utility.yul\":6415:6423   */\n  dup4\n    /* \"#utility.yul\":6411:6448   */\n  add\n    /* \"#utility.yul\":6398:6409   */\n  dup3\n    /* \"#utility.yul\":6369:6449   */\n  tag_37\n  jump\t// in\ntag_118:\n    /* \"#utility.yul\":6028:6459   */\n  pop\n  pop\n    /* \"#utility.yul\":6013:6459   */\ntag_114:\n    /* \"#utility.yul\":5923:6466   */\n  pop\n  pop\n  pop\n  jump\t// out\n    /* \"#utility.yul\":6472:6589   */\ntag_39:\n    /* \"#utility.yul\":6526:6534   */\n  0x00\n    /* \"#utility.yul\":6576:6581   */\n  dup3\n    /* \"#utility.yul\":6570:6574   */\n  dup3\n    /* \"#utility.yul\":6566:6582   */\n  shr\n    /* \"#utility.yul\":6545:6582   */\n  swap1\n  pop\n    /* \"#utility.yul\":6472:6589   */\n  swap3\n  swap2\n  pop\n  pop\n  jump\t// out\n    /* \"#utility.yul\":6595:6764   */\ntag_40:\n    /* \"#utility.yul\":6639:6645   */\n  0x00\n    /* \"#utility.yul\":6672:6723   */\n  tag_122\n    /* \"#utility.yul\":6720:6721   */\n  0x00\n    /* \"#utility.yul\":6716:6722   */\n  not\n    /* \"#utility.yul\":6708:6713   */\n  dup5\n    /* \"#utility.yul\":6705:6706   */\n  0x08\n    /* \"#utility.yul\":6701:6714   */\n  mul\n    /* \"#utility.yul\":6672:6723   */\n  tag_39\n  jump\t// in\ntag_122:\n    /* \"#utility.yul\":6668:6724   */\n  not\n    /* \"#utility.yul\":6753:6757   */\n  dup1\n    /* \"#utility.yul\":6747:6751   */\n  dup4\n    /* \"#utility.yul\":6743:6758   */\n  and\n    /* \"#utility.yul\":6733:6758   */\n  swap2\n  pop\n    /* \"#utility.yul\":6646:6764   */\n  pop\n    /* \"#utility.yul\":6595:6764   */\n  swap3\n  swap2\n  pop\n  pop\n  jump\t// out\n    /* \"#utility.yul\":6769:7064   */\ntag_41:\n    /* \"#utility.yul\":6845:6849   */\n  0x00\n    /* \"#utility.yul\":6991:7020   */\n  tag_124\n    /* \"#utility.yul\":7016:7019   */\n  dup4\n    /* \"#utility.yul\":7010:7014   */\n  dup4\n    /* \"#utility.yul\":6991:7020   */\n  tag_40\n  jump\t// in\ntag_124:\n    /* \"#utility.yul\":6983:7020   */\n  swap2\n  pop\n    /* \"#utility.yul\":7053:7056   */\n  dup3\n    /* \"#utility.yul\":7050:7051   */\n  0x02\n    /* \"#utility.yul\":7046:7057   */\n  mul\n    /* \"#utility.yul\":7040:7044   */\n  dup3\n    /* \"#utility.yul\":7037:7058   */\n  or\n    /* \"#utility.yul\":7029:7058   */\n  swap1\n  pop\n    /* \"#utility.yul\":6769:7064   */\n  swap3\n  swap2\n  pop\n  pop\n  jump\t// out\n    /* \"#utility.yul\":7069:8464   */\ntag_7:\n    /* \"#utility.yul\":7186:7223   */\n  tag_126\n    /* \"#utility.yul\":7219:7222   */\n  dup3\n    /* \"#utility.yul\":7186:7223   */\n  tag_23\n  jump\t// in\ntag_126:\n    /* \"#utility.yul\":7288:7306   */\n  0xffffffffffffffff\n    /* \"#utility.yul\":7280:7286   */\n  dup2\n    /* \"#utility.yul\":7277:7307   */\n  gt\n    /* \"#utility.yul\":7274:7330   */\n  iszero\n  tag_127\n  jumpi\n    /* \"#utility.yul\":7310:7328   */\n  tag_128\n  tag_16\n  jump\t// in\ntag_128:\n    /* \"#utility.yul\":7274:7330   */\ntag_127:\n    /* \"#utility.yul\":7354:7392   */\n  tag_129\n    /* \"#utility.yul\":7386:7390   */\n  dup3\n    /* \"#utility.yul\":7380:7391   */\n  sload\n    /* \"#utility.yul\":7354:7392   */\n  tag_25\n  jump\t// in\ntag_129:\n    /* \"#utility.yul\":7439:7506   */\n  tag_130\n    /* \"#utility.yul\":7499:7505   */\n  dup3\n    /* \"#utility.yul\":7491:7497   */\n  dup3\n    /* \"#utility.yul\":7485:7489   */\n  dup6\n    /* \"#utility.yul\":7439:7506   */\n  tag_38\n  jump\t// in\ntag_130:\n    /* \"#utility.yul\":7533:7534   */\n  0x00\n    /* \"#utility.yul\":7557:7561   */\n  0x20\n    /* \"#utility.yul\":7544:7561   */\n  swap1\n  pop\n    /* \"#utility.yul\":7589:7591   */\n  0x1f\n    /* \"#utility.yul\":7581:7587   */\n  dup4\n    /* \"#utility.yul\":7578:7592   */\n  gt\n    /* \"#utility.yul\":7606:7607   */\n  0x01\n    /* \"#utility.yul\":7601:8219   */\n  dup2\n  eq\n  tag_132\n  jumpi\n    /* \"#utility.yul\":8263:8264   */\n  0x00\n    /* \"#utility.yul\":8280:8286   */\n  dup5\n    /* \"#utility.yul\":8277:8354   */\n  iszero\n  tag_133\n  jumpi\n    /* \"#utility.yul\":8329:8338   */\n  dup3\n    /* \"#utility.yul\":8324:8327   */\n  dup8\n    /* \"#utility.yul\":8320:8339   */\n  add\n    /* \"#utility.yul\":8314:8340   */\n  mload\n    /* \"#utility.yul\":8305:8340   */\n  swap1\n  pop\n    /* \"#utility.yul\":8277:8354   */\ntag_133:\n    /* \"#utility.yul\":8380:8447   */\n  tag_134\n    /* \"#utility.yul\":8440:8446   */\n  dup6\n    /* \"#utility.yul\":8433:8438   */\n  dup3\n    /* \"#utility.yul\":8380:8447   */\n  tag_41\n  jump\t// in\ntag_134:\n    /* \"#utility.yul\":8374:8378   */\n  dup7\n    /* \"#utility.yul\":8367:8448   */\n  sstore\n    /* \"#utility.yul\":8236:8458   */\n  pop\n    /* \"#utility.yul\":7571:8458   */\n  jump(tag_131)\n    /* \"#utility.yul\":7601:8219   */\ntag_132:\n    /* \"#utility.yul\":7653:7657   */\n  0x1f\n    /* \"#utility.yul\":7649:7658   */\n  not\n    /* \"#utility.yul\":7641:7647   */\n  dup5\n    /* \"#utility.yul\":7637:7659   */\n  and\n    /* \"#utility.yul\":7687:7724   */\n  tag_135\n    /* \"#utility.yul\":7719:7723   */\n  dup7\n    /* \"#utility.yul\":7687:7724   */\n  tag_26\n  jump\t// in\ntag_135:\n    /* \"#utility.yul\":7746:7747   */\n  0x00\n    /* \"#utility.yul\":7760:7968   */\ntag_136:\n    /* \"#utility.yul\":7774:7781   */\n  dup3\n    /* \"#utility.yul\":7771:7772   */\n  dup2\n    /* \"#utility.yul\":7768:7782   */\n  lt\n    /* \"#utility.yul\":7760:7968   */\n  iszero\n  tag_138\n  jumpi\n    /* \"#utility.yul\":7853:7862   */\n  dup5\n    /* \"#utility.yul\":7848:7851   */\n  dup10\n    /* \"#utility.yul\":7844:7863   */\n  add\n    /* \"#utility.yul\":7838:7864   */\n  mload\n    /* \"#utility.yul\":7830:7836   */\n  dup3\n    /* \"#utility.yul\":7823:7865   */\n  sstore\n    /* \"#utility.yul\":7904:7905   */\n  0x01\n    /* \"#utility.yul\":7896:7902   */\n  dup3\n    /* \"#utility.yul\":7892:7906   */\n  add\n    /* \"#utility.yul\":7882:7906   */\n  swap2\n  pop\n    /* \"#utility.yul\":7951:7953   */\n  0x20\n    /* \"#utility.yul\":7940:7949   */\n  dup6\n    /* \"#utility.yul\":7936:7954   */\n  add\n    /* \"#utility.yul\":7923:7954   */\n  swap5\n  pop\n    /* \"#utility.yul\":7797:7801   */\n  0x20\n    /* \"#utility.yul\":7794:7795   */\n  dup2\n    /* \"#utility.yul\":7790:7802   */\n  add\n    /* \"#utility.yul\":7785:7802   */\n  swap1\n  pop\n    /* \"#utility.yul\":7760:7968   */\n  jump(tag_136)\ntag_138:\n    /* \"#utility.yul\":7996:8002   */\n  dup7\n    /* \"#utility.yul\":7987:7994   */\n  dup4\n    /* \"#utility.yul\":7984:8003   */\n  lt\n    /* \"#utility.yul\":7981:8160   */\n  iszero\n  tag_139\n  jumpi\n    /* \"#utility.yul\":8054:8063   */\n  dup5\n    /* \"#utility.yul\":8049:8052   */\n  dup10\n    /* \"#utility.yul\":8045:8064   */\n  add\n    /* \"#utility.yul\":8039:8065   */\n  mload\n    /* \"#utility.yul\":8097:8145   */\n  tag_140\n    /* \"#utility.yul\":8139:8143   */\n  0x1f\n    /* \"#utility.yul\":8131:8137   */\n  dup10\n    /* \"#utility.yul\":8127:8144   */\n  and\n    /* \"#utility.yul\":8116:8125   */\n  dup3\n    /* \"#utility.yul\":8097:8145   */\n  tag_40\n  jump\t// in\ntag_140:\n    /* \"#utility.yul\":8089:8095   */\n  dup4\n    /* \"#utility.yul\":8082:8146   */\n  sstore\n    /* \"#utility.yul\":8004:8160   */\n  pop\n    /* \"#utility.yul\":7981:8160   */\ntag_139:\n    /* \"#utility.yul\":8206:8207   */\n  0x01\n    /* \"#utility.yul\":8202:8203   */\n  0x02\n    /* \"#utility.yul\":8194:8200   */\n  dup9\n    /* \"#utility.yul\":8190:8204   */\n  mul\n    /* \"#utility.yul\":8186:8208   */\n  add\n    /* \"#utility.yul\":8180:8184   */\n  dup9\n    /* \"#utility.yul\":8173:8209   */\n  sstore\n    /* \"#utility.yul\":7608:8219   */\n  pop\n  pop\n  pop\n    /* \"#utility.yul\":7571:8458   */\ntag_131:\n  pop\n    /* \"#utility.yul\":7161:8464   */\n  pop\n  pop\n  pop\n    /* \"#utility.yul\":7069:8464   */\n  pop\n  pop\n  jump\t// out\n    /* \"Assignments/Lecture 7/ERC721/ERC721.sol\":64:1658  contract MockBaseNFTContract {... */\ntag_9:\n  dataSize(sub_0)\n  dup1\n  dataOffset(sub_0)\n  0x00\n  codecopy\n  0x00\n  return\nstop\n\nsub_0: assembly {\n        /* \"Assignments/Lecture 7/ERC721/ERC721.sol\":64:1658  contract MockBaseNFTContract {... */\n      mstore(0x40, 0x80)\n      callvalue\n      dup1\n      iszero\n      tag_1\n      jumpi\n      revert(0x00, 0x00)\n    tag_1:\n      pop\n      jumpi(tag_2, lt(calldatasize, 0x04))\n      shr(0xe0, calldataload(0x00))\n      dup1\n      0x70a08231\n      gt\n      tag_11\n      jumpi\n      dup1\n      0x70a08231\n      eq\n      tag_7\n      jumpi\n      dup1\n      0x95d89b41\n      eq\n      tag_8\n      jumpi\n      dup1\n      0x9ee946a5\n      eq\n      tag_9\n      jumpi\n      dup1\n      0xa9059cbb\n      eq\n      tag_10\n      jumpi\n      jump(tag_2)\n    tag_11:\n      dup1\n      0x06fdde03\n      eq\n      tag_3\n      jumpi\n      dup1\n      0x2a11ced0\n      eq\n      tag_4\n      jumpi\n      dup1\n      0x42966c68\n      eq\n      tag_5\n      jumpi\n      dup1\n      0x6a627842\n      eq\n      tag_6\n      jumpi\n    tag_2:\n      revert(0x00, 0x00)\n        /* \"Assignments/Lecture 7/ERC721/ERC721.sol\":228:246  string public name */\n    tag_3:\n      tag_12\n      tag_13\n      jump\t// in\n    tag_12:\n      mload(0x40)\n      tag_14\n      swap2\n      swap1\n      tag_15\n      jump\t// in\n    tag_14:\n      mload(0x40)\n      dup1\n      swap2\n      sub\n      swap1\n      return\n        /* \"Assignments/Lecture 7/ERC721/ERC721.sol\":282:324  mapping(uint256 => address) public holders */\n    tag_4:\n      tag_16\n      0x04\n      dup1\n      calldatasize\n      sub\n      dup2\n      add\n      swap1\n      tag_17\n      swap2\n      swap1\n      tag_18\n      jump\t// in\n    tag_17:\n      tag_19\n      jump\t// in\n    tag_16:\n      mload(0x40)\n      tag_20\n      swap2\n      swap1\n      tag_21\n      jump\t// in\n    tag_20:\n      mload(0x40)\n      dup1\n      swap2\n      sub\n      swap1\n      return\n        /* \"Assignments/Lecture 7/ERC721/ERC721.sol\":946:1242  function burn(uint256 tokenId) public {... */\n    tag_5:\n      tag_22\n      0x04\n      dup1\n      calldatasize\n      sub\n      dup2\n      add\n      swap1\n      tag_23\n      swap2\n      swap1\n      tag_18\n      jump\t// in\n    tag_23:\n      tag_24\n      jump\t// in\n    tag_22:\n      stop\n        /* \"Assignments/Lecture 7/ERC721/ERC721.sol\":631:938  function mint(address target) public {... */\n    tag_6:\n      tag_25\n      0x04\n      dup1\n      calldatasize\n      sub\n      dup2\n      add\n      swap1\n      tag_26\n      swap2\n      swap1\n      tag_27\n      jump\t// in\n    tag_26:\n      tag_28\n      jump\t// in\n    tag_25:\n      stop\n        /* \"Assignments/Lecture 7/ERC721/ERC721.sol\":511:623  function balanceOf(address target) public view returns(uint256) {... */\n    tag_7:\n      tag_29\n      0x04\n      dup1\n      calldatasize\n      sub\n      dup2\n      add\n      swap1\n      tag_30\n      swap2\n      swap1\n      tag_27\n      jump\t// in\n    tag_30:\n      tag_31\n      jump\t// in\n    tag_29:\n      mload(0x40)\n      tag_32\n      swap2\n      swap1\n      tag_33\n      jump\t// in\n    tag_32:\n      mload(0x40)\n      dup1\n      swap2\n      sub\n      swap1\n      return\n        /* \"Assignments/Lecture 7/ERC721/ERC721.sol\":253:273  string public symbol */\n    tag_8:\n      tag_34\n      tag_35\n      jump\t// in\n    tag_34:\n      mload(0x40)\n      tag_36\n      swap2\n      swap1\n      tag_15\n      jump\t// in\n    tag_36:\n      mload(0x40)\n      dup1\n      swap2\n      sub\n      swap1\n      return\n        /* \"Assignments/Lecture 7/ERC721/ERC721.sol\":331:380  mapping(address => uint256) public holderBalances */\n    tag_9:\n      tag_37\n      0x04\n      dup1\n      calldatasize\n      sub\n      dup2\n      add\n      swap1\n      tag_38\n      swap2\n      swap1\n      tag_27\n      jump\t// in\n    tag_38:\n      tag_39\n      jump\t// in\n    tag_37:\n      mload(0x40)\n      tag_40\n      swap2\n      swap1\n      tag_33\n      jump\t// in\n    tag_40:\n      mload(0x40)\n      dup1\n      swap2\n      sub\n      swap1\n      return\n        /* \"Assignments/Lecture 7/ERC721/ERC721.sol\":1250:1655  function transfer(address target, uint256 tokenId) public {... */\n    tag_10:\n      tag_41\n      0x04\n      dup1\n      calldatasize\n      sub\n      dup2\n      add\n      swap1\n      tag_42\n      swap2\n      swap1\n      tag_43\n      jump\t// in\n    tag_42:\n      tag_44\n      jump\t// in\n    tag_41:\n      stop\n        /* \"Assignments/Lecture 7/ERC721/ERC721.sol\":228:246  string public name */\n    tag_13:\n      0x01\n      dup1\n      sload\n      tag_45\n      swap1\n      tag_46\n      jump\t// in\n    tag_45:\n      dup1\n      0x1f\n      add\n      0x20\n      dup1\n      swap2\n      div\n      mul\n      0x20\n      add\n      mload(0x40)\n      swap1\n      dup2\n      add\n      0x40\n      mstore\n      dup1\n      swap3\n      swap2\n      swap1\n      dup2\n      dup2\n      mstore\n      0x20\n      add\n      dup3\n      dup1\n      sload\n      tag_47\n      swap1\n      tag_46\n      jump\t// in\n    tag_47:\n      dup1\n      iszero\n      tag_48\n      jumpi\n      dup1\n      0x1f\n      lt\n      tag_49\n      jumpi\n      0x0100\n      dup1\n      dup4\n      sload\n      div\n      mul\n      dup4\n      mstore\n      swap2\n      0x20\n      add\n      swap2\n      jump(tag_48)\n    tag_49:\n      dup3\n      add\n      swap2\n      swap1\n      0x00\n      mstore\n      keccak256(0x00, 0x20)\n      swap1\n    tag_50:\n      dup2\n      sload\n      dup2\n      mstore\n      swap1\n      0x01\n      add\n      swap1\n      0x20\n      add\n      dup1\n      dup4\n      gt\n      tag_50\n      jumpi\n      dup3\n      swap1\n      sub\n      0x1f\n      and\n      dup3\n      add\n      swap2\n    tag_48:\n      pop\n      pop\n      pop\n      pop\n      pop\n      dup2\n      jump\t// out\n        /* \"Assignments/Lecture 7/ERC721/ERC721.sol\":282:324  mapping(uint256 => address) public holders */\n    tag_19:\n      mstore(0x20, 0x03)\n      dup1\n      0x00\n      mstore\n      keccak256(0x00, 0x40)\n      0x00\n      swap2\n      pop\n      sload\n      swap1\n      0x0100\n      exp\n      swap1\n      div\n      0xffffffffffffffffffffffffffffffffffffffff\n      and\n      dup2\n      jump\t// out\n        /* \"Assignments/Lecture 7/ERC721/ERC721.sol\":946:1242  function burn(uint256 tokenId) public {... */\n    tag_24:\n        /* \"Assignments/Lecture 7/ERC721/ERC721.sol\":995:1009  address holder */\n      0x00\n        /* \"Assignments/Lecture 7/ERC721/ERC721.sol\":1012:1019  holders */\n      0x03\n        /* \"Assignments/Lecture 7/ERC721/ERC721.sol\":1012:1028  holders[tokenId] */\n      0x00\n        /* \"Assignments/Lecture 7/ERC721/ERC721.sol\":1020:1027  tokenId */\n      dup4\n        /* \"Assignments/Lecture 7/ERC721/ERC721.sol\":1012:1028  holders[tokenId] */\n      dup2\n      mstore\n      0x20\n      add\n      swap1\n      dup2\n      mstore\n      0x20\n      add\n      0x00\n      keccak256\n      0x00\n      swap1\n      sload\n      swap1\n      0x0100\n      exp\n      swap1\n      div\n      0xffffffffffffffffffffffffffffffffffffffff\n      and\n        /* \"Assignments/Lecture 7/ERC721/ERC721.sol\":995:1028  address holder = holders[tokenId] */\n      swap1\n      pop\n        /* \"Assignments/Lecture 7/ERC721/ERC721.sol\":1059:1069  msg.sender */\n      caller\n        /* \"Assignments/Lecture 7/ERC721/ERC721.sol\":1049:1069  holder == msg.sender */\n      0xffffffffffffffffffffffffffffffffffffffff\n      and\n        /* \"Assignments/Lecture 7/ERC721/ERC721.sol\":1049:1055  holder */\n      dup2\n        /* \"Assignments/Lecture 7/ERC721/ERC721.sol\":1049:1069  holder == msg.sender */\n      0xffffffffffffffffffffffffffffffffffffffff\n      and\n      eq\n        /* \"Assignments/Lecture 7/ERC721/ERC721.sol\":1041:1108  require(holder == msg.sender,  \"Only the owner can burn the token\") */\n      tag_52\n      jumpi\n      mload(0x40)\n      0x08c379a000000000000000000000000000000000000000000000000000000000\n      dup2\n      mstore\n      0x04\n      add\n      tag_53\n      swap1\n      tag_54\n      jump\t// in\n    tag_53:\n      mload(0x40)\n      dup1\n      swap2\n      sub\n      swap1\n      revert\n    tag_52:\n        /* \"Assignments/Lecture 7/ERC721/ERC721.sol\":1121:1135  holderBalances */\n      0x04\n        /* \"Assignments/Lecture 7/ERC721/ERC721.sol\":1121:1143  holderBalances[holder] */\n      0x00\n        /* \"Assignments/Lecture 7/ERC721/ERC721.sol\":1136:1142  holder */\n      dup3\n        /* \"Assignments/Lecture 7/ERC721/ERC721.sol\":1121:1143  holderBalances[holder] */\n      0xffffffffffffffffffffffffffffffffffffffff\n      and\n      0xffffffffffffffffffffffffffffffffffffffff\n      and\n      dup2\n      mstore\n      0x20\n      add\n      swap1\n      dup2\n      mstore\n      0x20\n      add\n      0x00\n      keccak256\n      0x00\n        /* \"Assignments/Lecture 7/ERC721/ERC721.sol\":1121:1145  holderBalances[holder]-- */\n      dup2\n      sload\n      dup1\n      swap3\n      swap2\n      swap1\n      tag_55\n      swap1\n      tag_56\n      jump\t// in\n    tag_55:\n      swap2\n      swap1\n      pop\n      sstore\n      pop\n        /* \"Assignments/Lecture 7/ERC721/ERC721.sol\":1163:1170  holders */\n      0x03\n        /* \"Assignments/Lecture 7/ERC721/ERC721.sol\":1163:1179  holders[tokenId] */\n      0x00\n        /* \"Assignments/Lecture 7/ERC721/ERC721.sol\":1171:1178  tokenId */\n      dup4\n        /* \"Assignments/Lecture 7/ERC721/ERC721.sol\":1163:1179  holders[tokenId] */\n      dup2\n      mstore\n      0x20\n      add\n      swap1\n      dup2\n      mstore\n      0x20\n      add\n      0x00\n      keccak256\n      0x00\n        /* \"Assignments/Lecture 7/ERC721/ERC721.sol\":1156:1179  delete holders[tokenId] */\n      0x0100\n      exp\n      dup2\n      sload\n      swap1\n      0xffffffffffffffffffffffffffffffffffffffff\n      mul\n      not\n      and\n      swap1\n      sstore\n        /* \"Assignments/Lecture 7/ERC721/ERC721.sol\":1226:1233  tokenId */\n      dup2\n        /* \"Assignments/Lecture 7/ERC721/ERC721.sol\":1222:1223  0 */\n      0x00\n        /* \"Assignments/Lecture 7/ERC721/ERC721.sol\":1197:1234  Transfer(holder, address(0), tokenId) */\n      0xffffffffffffffffffffffffffffffffffffffff\n      and\n        /* \"Assignments/Lecture 7/ERC721/ERC721.sol\":1206:1212  holder */\n      dup3\n        /* \"Assignments/Lecture 7/ERC721/ERC721.sol\":1197:1234  Transfer(holder, address(0), tokenId) */\n      0xffffffffffffffffffffffffffffffffffffffff\n      and\n      0xddf252ad1be2c89b69c2b068fc378daa952ba7f163c4a11628f55a4df523b3ef\n      mload(0x40)\n      mload(0x40)\n      dup1\n      swap2\n      sub\n      swap1\n      log4\n        /* \"Assignments/Lecture 7/ERC721/ERC721.sol\":984:1242  {... */\n      pop\n        /* \"Assignments/Lecture 7/ERC721/ERC721.sol\":946:1242  function burn(uint256 tokenId) public {... */\n      pop\n      jump\t// out\n        /* \"Assignments/Lecture 7/ERC721/ERC721.sol\":631:938  function mint(address target) public {... */\n    tag_28:\n        /* \"Assignments/Lecture 7/ERC721/ERC721.sol\":705:706  0 */\n      0x00\n        /* \"Assignments/Lecture 7/ERC721/ERC721.sol\":687:707  target != address(0) */\n      0xffffffffffffffffffffffffffffffffffffffff\n      and\n        /* \"Assignments/Lecture 7/ERC721/ERC721.sol\":687:693  target */\n      dup2\n        /* \"Assignments/Lecture 7/ERC721/ERC721.sol\":687:707  target != address(0) */\n      0xffffffffffffffffffffffffffffffffffffffff\n      and\n      sub\n        /* \"Assignments/Lecture 7/ERC721/ERC721.sol\":679:727  require(target != address(0), \"Invalid address\") */\n      tag_58\n      jumpi\n      mload(0x40)\n      0x08c379a000000000000000000000000000000000000000000000000000000000\n      dup2\n      mstore\n      0x04\n      add\n      tag_59\n      swap1\n      tag_60\n      jump\t// in\n    tag_59:\n      mload(0x40)\n      dup1\n      swap2\n      sub\n      swap1\n      revert\n    tag_58:\n        /* \"Assignments/Lecture 7/ERC721/ERC721.sol\":741:756  uint256 tokenId */\n      0x00\n        /* \"Assignments/Lecture 7/ERC721/ERC721.sol\":759:774  _currentTokenID */\n      sload(0x00)\n        /* \"Assignments/Lecture 7/ERC721/ERC721.sol\":741:774  uint256 tokenId = _currentTokenID */\n      swap1\n      pop\n        /* \"Assignments/Lecture 7/ERC721/ERC721.sol\":785:800  _currentTokenID */\n      0x00\n      0x00\n        /* \"Assignments/Lecture 7/ERC721/ERC721.sol\":785:802  _currentTokenID++ */\n      dup2\n      sload\n      dup1\n      swap3\n      swap2\n      swap1\n      tag_61\n      swap1\n      tag_62\n      jump\t// in\n    tag_61:\n      swap2\n      swap1\n      pop\n      sstore\n      pop\n        /* \"Assignments/Lecture 7/ERC721/ERC721.sol\":834:840  target */\n      dup2\n        /* \"Assignments/Lecture 7/ERC721/ERC721.sol\":815:822  holders */\n      0x03\n        /* \"Assignments/Lecture 7/ERC721/ERC721.sol\":815:831  holders[tokenId] */\n      0x00\n        /* \"Assignments/Lecture 7/ERC721/ERC721.sol\":823:830  tokenId */\n      dup4\n        /* \"Assignments/Lecture 7/ERC721/ERC721.sol\":815:831  holders[tokenId] */\n      dup2\n      mstore\n      0x20\n      add\n      swap1\n      dup2\n      mstore\n      0x20\n      add\n      0x00\n      keccak256\n      0x00\n        /* \"Assignments/Lecture 7/ERC721/ERC721.sol\":815:840  holders[tokenId] = target */\n      0x0100\n      exp\n      dup2\n      sload\n      dup2\n      0xffffffffffffffffffffffffffffffffffffffff\n      mul\n      not\n      and\n      swap1\n      dup4\n      0xffffffffffffffffffffffffffffffffffffffff\n      and\n      mul\n      or\n      swap1\n      sstore\n      pop\n        /* \"Assignments/Lecture 7/ERC721/ERC721.sol\":851:865  holderBalances */\n      0x04\n        /* \"Assignments/Lecture 7/ERC721/ERC721.sol\":851:873  holderBalances[target] */\n      0x00\n        /* \"Assignments/Lecture 7/ERC721/ERC721.sol\":866:872  target */\n      dup4\n        /* \"Assignments/Lecture 7/ERC721/ERC721.sol\":851:873  holderBalances[target] */\n      0xffffffffffffffffffffffffffffffffffffffff\n      and\n      0xffffffffffffffffffffffffffffffffffffffff\n      and\n      dup2\n      mstore\n      0x20\n      add\n      swap1\n      dup2\n      mstore\n      0x20\n      add\n      0x00\n      keccak256\n      0x00\n        /* \"Assignments/Lecture 7/ERC721/ERC721.sol\":851:875  holderBalances[target]++ */\n      dup2\n      sload\n      dup1\n      swap3\n      swap2\n      swap1\n      tag_63\n      swap1\n      tag_62\n      jump\t// in\n    tag_63:\n      swap2\n      swap1\n      pop\n      sstore\n      pop\n        /* \"Assignments/Lecture 7/ERC721/ERC721.sol\":922:929  tokenId */\n      dup1\n        /* \"Assignments/Lecture 7/ERC721/ERC721.sol\":914:920  target */\n      dup3\n        /* \"Assignments/Lecture 7/ERC721/ERC721.sol\":893:930  Transfer(address(0), target, tokenId) */\n      0xffffffffffffffffffffffffffffffffffffffff\n      and\n        /* \"Assignments/Lecture 7/ERC721/ERC721.sol\":910:911  0 */\n      0x00\n        /* \"Assignments/Lecture 7/ERC721/ERC721.sol\":893:930  Transfer(address(0), target, tokenId) */\n      0xffffffffffffffffffffffffffffffffffffffff\n      and\n      0xddf252ad1be2c89b69c2b068fc378daa952ba7f163c4a11628f55a4df523b3ef\n      mload(0x40)\n      mload(0x40)\n      dup1\n      swap2\n      sub\n      swap1\n      log4\n        /* \"Assignments/Lecture 7/ERC721/ERC721.sol\":668:938  {... */\n      pop\n        /* \"Assignments/Lecture 7/ERC721/ERC721.sol\":631:938  function mint(address target) public {... */\n      pop\n      jump\t// out\n        /* \"Assignments/Lecture 7/ERC721/ERC721.sol\":511:623  function balanceOf(address target) public view returns(uint256) {... */\n    tag_31:\n        /* \"Assignments/Lecture 7/ERC721/ERC721.sol\":566:573  uint256 */\n      0x00\n        /* \"Assignments/Lecture 7/ERC721/ERC721.sol\":593:607  holderBalances */\n      0x04\n        /* \"Assignments/Lecture 7/ERC721/ERC721.sol\":593:615  holderBalances[target] */\n      0x00\n        /* \"Assignments/Lecture 7/ERC721/ERC721.sol\":608:614  target */\n      dup4\n        /* \"Assignments/Lecture 7/ERC721/ERC721.sol\":593:615  holderBalances[target] */\n      0xffffffffffffffffffffffffffffffffffffffff\n      and\n      0xffffffffffffffffffffffffffffffffffffffff\n      and\n      dup2\n      mstore\n      0x20\n      add\n      swap1\n      dup2\n      mstore\n      0x20\n      add\n      0x00\n      keccak256\n      sload\n        /* \"Assignments/Lecture 7/ERC721/ERC721.sol\":586:615  return holderBalances[target] */\n      swap1\n      pop\n        /* \"Assignments/Lecture 7/ERC721/ERC721.sol\":511:623  function balanceOf(address target) public view returns(uint256) {... */\n      swap2\n      swap1\n      pop\n      jump\t// out\n        /* \"Assignments/Lecture 7/ERC721/ERC721.sol\":253:273  string public symbol */\n    tag_35:\n      0x02\n      dup1\n      sload\n      tag_65\n      swap1\n      tag_46\n      jump\t// in\n    tag_65:\n      dup1\n      0x1f\n      add\n      0x20\n      dup1\n      swap2\n      div\n      mul\n      0x20\n      add\n      mload(0x40)\n      swap1\n      dup2\n      add\n      0x40\n      mstore\n      dup1\n      swap3\n      swap2\n      swap1\n      dup2\n      dup2\n      mstore\n      0x20\n      add\n      dup3\n      dup1\n      sload\n      tag_66\n      swap1\n      tag_46\n      jump\t// in\n    tag_66:\n      dup1\n      iszero\n      tag_67\n      jumpi\n      dup1\n      0x1f\n      lt\n      tag_68\n      jumpi\n      0x0100\n      dup1\n      dup4\n      sload\n      div\n      mul\n      dup4\n      mstore\n      swap2\n      0x20\n      add\n      swap2\n      jump(tag_67)\n    tag_68:\n      dup3\n      add\n      swap2\n      swap1\n      0x00\n      mstore\n      keccak256(0x00, 0x20)\n      swap1\n    tag_69:\n      dup2\n      sload\n      dup2\n      mstore\n      swap1\n      0x01\n      add\n      swap1\n      0x20\n      add\n      dup1\n      dup4\n      gt\n      tag_69\n      jumpi\n      dup3\n      swap1\n      sub\n      0x1f\n      and\n      dup3\n      add\n      swap2\n    tag_67:\n      pop\n      pop\n      pop\n      pop\n      pop\n      dup2\n      jump\t// out\n        /* \"Assignments/Lecture 7/ERC721/ERC721.sol\":331:380  mapping(address => uint256) public holderBalances */\n    tag_39:\n      mstore(0x20, 0x04)\n      dup1\n      0x00\n      mstore\n      keccak256(0x00, 0x40)\n      0x00\n      swap2\n      pop\n      swap1\n      pop\n      sload\n      dup2\n      jump\t// out\n        /* \"Assignments/Lecture 7/ERC721/ERC721.sol\":1250:1655  function transfer(address target, uint256 tokenId) public {... */\n    tag_44:\n        /* \"Assignments/Lecture 7/ERC721/ERC721.sol\":1319:1332  address owner */\n      0x00\n        /* \"Assignments/Lecture 7/ERC721/ERC721.sol\":1335:1342  holders */\n      0x03\n        /* \"Assignments/Lecture 7/ERC721/ERC721.sol\":1335:1351  holders[tokenId] */\n      0x00\n        /* \"Assignments/Lecture 7/ERC721/ERC721.sol\":1343:1350  tokenId */\n      dup4\n        /* \"Assignments/Lecture 7/ERC721/ERC721.sol\":1335:1351  holders[tokenId] */\n      dup2\n      mstore\n      0x20\n      add\n      swap1\n      dup2\n      mstore\n      0x20\n      add\n      0x00\n      keccak256\n      0x00\n      swap1\n      sload\n      swap1\n      0x0100\n      exp\n      swap1\n      div\n      0xffffffffffffffffffffffffffffffffffffffff\n      and\n        /* \"Assignments/Lecture 7/ERC721/ERC721.sol\":1319:1351  address owner = holders[tokenId] */\n      swap1\n      pop\n        /* \"Assignments/Lecture 7/ERC721/ERC721.sol\":1379:1389  msg.sender */\n      caller\n        /* \"Assignments/Lecture 7/ERC721/ERC721.sol\":1370:1389  owner == msg.sender */\n      0xffffffffffffffffffffffffffffffffffffffff\n      and\n        /* \"Assignments/Lecture 7/ERC721/ERC721.sol\":1370:1375  owner */\n      dup2\n        /* \"Assignments/Lecture 7/ERC721/ERC721.sol\":1370:1389  owner == msg.sender */\n      0xffffffffffffffffffffffffffffffffffffffff\n      and\n      eq\n        /* \"Assignments/Lecture 7/ERC721/ERC721.sol\":1362:1428  require(owner == msg.sender, \" Only owner can transfer the token\") */\n      tag_71\n      jumpi\n      mload(0x40)\n      0x08c379a000000000000000000000000000000000000000000000000000000000\n      dup2\n      mstore\n      0x04\n      add\n      tag_72\n      swap1\n      tag_73\n      jump\t// in\n    tag_72:\n      mload(0x40)\n      dup1\n      swap2\n      sub\n      swap1\n      revert\n    tag_71:\n        /* \"Assignments/Lecture 7/ERC721/ERC721.sol\":1465:1466  0 */\n      0x00\n        /* \"Assignments/Lecture 7/ERC721/ERC721.sol\":1447:1467  target != address(0) */\n      0xffffffffffffffffffffffffffffffffffffffff\n      and\n        /* \"Assignments/Lecture 7/ERC721/ERC721.sol\":1447:1453  target */\n      dup4\n        /* \"Assignments/Lecture 7/ERC721/ERC721.sol\":1447:1467  target != address(0) */\n      0xffffffffffffffffffffffffffffffffffffffff\n      and\n      sub\n        /* \"Assignments/Lecture 7/ERC721/ERC721.sol\":1439:1487  require(target != address(0), \"Invalid address\") */\n      tag_74\n      jumpi\n      mload(0x40)\n      0x08c379a000000000000000000000000000000000000000000000000000000000\n      dup2\n      mstore\n      0x04\n      add\n      tag_75\n      swap1\n      tag_60\n      jump\t// in\n    tag_75:\n      mload(0x40)\n      dup1\n      swap2\n      sub\n      swap1\n      revert\n    tag_74:\n        /* \"Assignments/Lecture 7/ERC721/ERC721.sol\":1520:1526  target */\n      dup3\n        /* \"Assignments/Lecture 7/ERC721/ERC721.sol\":1501:1508  holders */\n      0x03\n        /* \"Assignments/Lecture 7/ERC721/ERC721.sol\":1501:1517  holders[tokenId] */\n      0x00\n        /* \"Assignments/Lecture 7/ERC721/ERC721.sol\":1509:1516  tokenId */\n      dup5\n        /* \"Assignments/Lecture 7/ERC721/ERC721.sol\":1501:1517  holders[tokenId] */\n      dup2\n      mstore\n      0x20\n      add\n      swap1\n      dup2\n      mstore\n      0x20\n      add\n      0x00\n      keccak256\n      0x00\n        /* \"Assignments/Lecture 7/ERC721/ERC721.sol\":1501:1526  holders[tokenId] = target */\n      0x0100\n      exp\n      dup2\n      sload\n      dup2\n      0xffffffffffffffffffffffffffffffffffffffff\n      mul\n      not\n      and\n      swap1\n      dup4\n      0xffffffffffffffffffffffffffffffffffffffff\n      and\n      mul\n      or\n      swap1\n      sstore\n      pop\n        /* \"Assignments/Lecture 7/ERC721/ERC721.sol\":1537:1551  holderBalances */\n      0x04\n        /* \"Assignments/Lecture 7/ERC721/ERC721.sol\":1537:1558  holderBalances[owner] */\n      0x00\n        /* \"Assignments/Lecture 7/ERC721/ERC721.sol\":1552:1557  owner */\n      dup3\n        /* \"Assignments/Lecture 7/ERC721/ERC721.sol\":1537:1558  holderBalances[owner] */\n      0xffffffffffffffffffffffffffffffffffffffff\n      and\n      0xffffffffffffffffffffffffffffffffffffffff\n      and\n      dup2\n      mstore\n      0x20\n      add\n      swap1\n      dup2\n      mstore\n      0x20\n      add\n      0x00\n      keccak256\n      0x00\n        /* \"Assignments/Lecture 7/ERC721/ERC721.sol\":1537:1560  holderBalances[owner]-- */\n      dup2\n      sload\n      dup1\n      swap3\n      swap2\n      swap1\n      tag_76\n      swap1\n      tag_56\n      jump\t// in\n    tag_76:\n      swap2\n      swap1\n      pop\n      sstore\n      pop\n        /* \"Assignments/Lecture 7/ERC721/ERC721.sol\":1571:1585  holderBalances */\n      0x04\n        /* \"Assignments/Lecture 7/ERC721/ERC721.sol\":1571:1593  holderBalances[target] */\n      0x00\n        /* \"Assignments/Lecture 7/ERC721/ERC721.sol\":1586:1592  target */\n      dup5\n        /* \"Assignments/Lecture 7/ERC721/ERC721.sol\":1571:1593  holderBalances[target] */\n      0xffffffffffffffffffffffffffffffffffffffff\n      and\n      0xffffffffffffffffffffffffffffffffffffffff\n      and\n      dup2\n      mstore\n      0x20\n      add\n      swap1\n      dup2\n      mstore\n      0x20\n      add\n      0x00\n      keccak256\n      0x00\n        /* \"Assignments/Lecture 7/ERC721/ERC721.sol\":1571:1595  holderBalances[target]++ */\n      dup2\n      sload\n      dup1\n      swap3\n      swap2\n      swap1\n      tag_77\n      swap1\n      tag_62\n      jump\t// in\n    tag_77:\n      swap2\n      swap1\n      pop\n      sstore\n      pop\n        /* \"Assignments/Lecture 7/ERC721/ERC721.sol\":1639:1646  tokenId */\n      dup2\n        /* \"Assignments/Lecture 7/ERC721/ERC721.sol\":1631:1637  target */\n      dup4\n        /* \"Assignments/Lecture 7/ERC721/ERC721.sol\":1615:1647  Transfer(owner, target, tokenId) */\n      0xffffffffffffffffffffffffffffffffffffffff\n      and\n        /* \"Assignments/Lecture 7/ERC721/ERC721.sol\":1624:1629  owner */\n      dup3\n        /* \"Assignments/Lecture 7/ERC721/ERC721.sol\":1615:1647  Transfer(owner, target, tokenId) */\n      0xffffffffffffffffffffffffffffffffffffffff\n      and\n      0xddf252ad1be2c89b69c2b068fc378daa952ba7f163c4a11628f55a4df523b3ef\n      mload(0x40)\n      mload(0x40)\n      dup1\n      swap2\n      sub\n      swap1\n      log4\n        /* \"Assignments/Lecture 7/ERC721/ERC721.sol\":1308:1655  {... */\n      pop\n        /* \"Assignments/Lecture 7/ERC721/ERC721.sol\":1250:1655  function transfer(address target, uint256 tokenId) public {... */\n      pop\n      pop\n      jump\t// out\n        /* \"#utility.yul\":7:106   */\n    tag_78:\n        /* \"#utility.yul\":59:65   */\n      0x00\n        /* \"#utility.yul\":93:98   */\n      dup2\n        /* \"#utility.yul\":87:99   */\n      mload\n        /* \"#utility.yul\":77:99   */\n      swap1\n      pop\n        /* \"#utility.yul\":7:106   */\n      swap2\n      swap1\n      pop\n      jump\t// out\n        /* \"#utility.yul\":112:281   */\n    tag_79:\n        /* \"#utility.yul\":196:207   */\n      0x00\n        /* \"#utility.yul\":230:236   */\n      dup3\n        /* \"#utility.yul\":225:228   */\n      dup3\n        /* \"#utility.yul\":218:237   */\n      mstore\n        /* \"#utility.yul\":270:274   */\n      0x20\n        /* \"#utility.yul\":265:268   */\n      dup3\n        /* \"#utility.yul\":261:275   */\n      add\n        /* \"#utility.yul\":246:275   */\n      swap1\n      pop\n        /* \"#utility.yul\":112:281   */\n      swap3\n      swap2\n      pop\n      pop\n      jump\t// out\n        /* \"#utility.yul\":287:426   */\n    tag_80:\n        /* \"#utility.yul\":376:382   */\n      dup3\n        /* \"#utility.yul\":371:374   */\n      dup2\n        /* \"#utility.yul\":366:369   */\n      dup4\n        /* \"#utility.yul\":360:383   */\n      mcopy\n        /* \"#utility.yul\":417:418   */\n      0x00\n        /* \"#utility.yul\":408:414   */\n      dup4\n        /* \"#utility.yul\":403:406   */\n      dup4\n        /* \"#utility.yul\":399:415   */\n      add\n        /* \"#utility.yul\":392:419   */\n      mstore\n        /* \"#utility.yul\":287:426   */\n      pop\n      pop\n      pop\n      jump\t// out\n        /* \"#utility.yul\":432:534   */\n    tag_81:\n        /* \"#utility.yul\":473:479   */\n      0x00\n        /* \"#utility.yul\":524:526   */\n      0x1f\n        /* \"#utility.yul\":520:527   */\n      not\n        /* \"#utility.yul\":515:517   */\n      0x1f\n        /* \"#utility.yul\":508:513   */\n      dup4\n        /* \"#utility.yul\":504:518   */\n      add\n        /* \"#utility.yul\":500:528   */\n      and\n        /* \"#utility.yul\":490:528   */\n      swap1\n      pop\n        /* \"#utility.yul\":432:534   */\n      swap2\n      swap1\n      pop\n      jump\t// out\n        /* \"#utility.yul\":540:917   */\n    tag_82:\n        /* \"#utility.yul\":628:631   */\n      0x00\n        /* \"#utility.yul\":656:695   */\n      tag_109\n        /* \"#utility.yul\":689:694   */\n      dup3\n        /* \"#utility.yul\":656:695   */\n      tag_78\n      jump\t// in\n    tag_109:\n        /* \"#utility.yul\":711:782   */\n      tag_110\n        /* \"#utility.yul\":775:781   */\n      dup2\n        /* \"#utility.yul\":770:773   */\n      dup6\n        /* \"#utility.yul\":711:782   */\n      tag_79\n      jump\t// in\n    tag_110:\n        /* \"#utility.yul\":704:782   */\n      swap4\n      pop\n        /* \"#utility.yul\":791:856   */\n      tag_111\n        /* \"#utility.yul\":849:855   */\n      dup2\n        /* \"#utility.yul\":844:847   */\n      dup6\n        /* \"#utility.yul\":837:841   */\n      0x20\n        /* \"#utility.yul\":830:835   */\n      dup7\n        /* \"#utility.yul\":826:842   */\n      add\n        /* \"#utility.yul\":791:856   */\n      tag_80\n      jump\t// in\n    tag_111:\n        /* \"#utility.yul\":881:910   */\n      tag_112\n        /* \"#utility.yul\":903:909   */\n      dup2\n        /* \"#utility.yul\":881:910   */\n      tag_81\n      jump\t// in\n    tag_112:\n        /* \"#utility.yul\":876:879   */\n      dup5\n        /* \"#utility.yul\":872:911   */\n      add\n        /* \"#utility.yul\":865:911   */\n      swap2\n      pop\n        /* \"#utility.yul\":632:917   */\n      pop\n        /* \"#utility.yul\":540:917   */\n      swap3\n      swap2\n      pop\n      pop\n      jump\t// out\n        /* \"#utility.yul\":923:1236   */\n    tag_15:\n        /* \"#utility.yul\":1036:1040   */\n      0x00\n        /* \"#utility.yul\":1074:1076   */\n      0x20\n        /* \"#utility.yul\":1063:1072   */\n      dup3\n        /* \"#utility.yul\":1059:1077   */\n      add\n        /* \"#utility.yul\":1051:1077   */\n      swap1\n      pop\n        /* \"#utility.yul\":1123:1132   */\n      dup2\n        /* \"#utility.yul\":1117:1121   */\n      dup2\n        /* \"#utility.yul\":1113:1133   */\n      sub\n        /* \"#utility.yul\":1109:1110   */\n      0x00\n        /* \"#utility.yul\":1098:1107   */\n      dup4\n        /* \"#utility.yul\":1094:1111   */\n      add\n        /* \"#utility.yul\":1087:1134   */\n      mstore\n        /* \"#utility.yul\":1151:1229   */\n      tag_114\n        /* \"#utility.yul\":1224:1228   */\n      dup2\n        /* \"#utility.yul\":1215:1221   */\n      dup5\n        /* \"#utility.yul\":1151:1229   */\n      tag_82\n      jump\t// in\n    tag_114:\n        /* \"#utility.yul\":1143:1229   */\n      swap1\n      pop\n        /* \"#utility.yul\":923:1236   */\n      swap3\n      swap2\n      pop\n      pop\n      jump\t// out\n        /* \"#utility.yul\":1323:1440   */\n    tag_84:\n        /* \"#utility.yul\":1432:1433   */\n      0x00\n        /* \"#utility.yul\":1429:1430   */\n      0x00\n        /* \"#utility.yul\":1422:1434   */\n      revert\n        /* \"#utility.yul\":1569:1646   */\n    tag_86:\n        /* \"#utility.yul\":1606:1613   */\n      0x00\n        /* \"#utility.yul\":1635:1640   */\n      dup2\n        /* \"#utility.yul\":1624:1640   */\n      swap1\n      pop\n        /* \"#utility.yul\":1569:1646   */\n      swap2\n      swap1\n      pop\n      jump\t// out\n        /* \"#utility.yul\":1652:1774   */\n    tag_87:\n        /* \"#utility.yul\":1725:1749   */\n      tag_120\n        /* \"#utility.yul\":1743:1748   */\n      dup2\n        /* \"#utility.yul\":1725:1749   */\n      tag_86\n      jump\t// in\n    tag_120:\n        /* \"#utility.yul\":1718:1723   */\n      dup2\n        /* \"#utility.yul\":1715:1750   */\n      eq\n        /* \"#utility.yul\":1705:1768   */\n      tag_121\n      jumpi\n        /* \"#utility.yul\":1764:1765   */\n      0x00\n        /* \"#utility.yul\":1761:1762   */\n      0x00\n        /* \"#utility.yul\":1754:1766   */\n      revert\n        /* \"#utility.yul\":1705:1768   */\n    tag_121:\n        /* \"#utility.yul\":1652:1774   */\n      pop\n      jump\t// out\n        /* \"#utility.yul\":1780:1919   */\n    tag_88:\n        /* \"#utility.yul\":1826:1831   */\n      0x00\n        /* \"#utility.yul\":1864:1870   */\n      dup2\n        /* \"#utility.yul\":1851:1871   */\n      calldataload\n        /* \"#utility.yul\":1842:1871   */\n      swap1\n      pop\n        /* \"#utility.yul\":1880:1913   */\n      tag_123\n        /* \"#utility.yul\":1907:1912   */\n      dup2\n        /* \"#utility.yul\":1880:1913   */\n      tag_87\n      jump\t// in\n    tag_123:\n        /* \"#utility.yul\":1780:1919   */\n      swap3\n      swap2\n      pop\n      pop\n      jump\t// out\n        /* \"#utility.yul\":1925:2254   */\n    tag_18:\n        /* \"#utility.yul\":1984:1990   */\n      0x00\n        /* \"#utility.yul\":2033:2035   */\n      0x20\n        /* \"#utility.yul\":2021:2030   */\n      dup3\n        /* \"#utility.yul\":2012:2019   */\n      dup5\n        /* \"#utility.yul\":2008:2031   */\n      sub\n        /* \"#utility.yul\":2004:2036   */\n      slt\n        /* \"#utility.yul\":2001:2120   */\n      iszero\n      tag_125\n      jumpi\n        /* \"#utility.yul\":2039:2118   */\n      tag_126\n      tag_84\n      jump\t// in\n    tag_126:\n        /* \"#utility.yul\":2001:2120   */\n    tag_125:\n        /* \"#utility.yul\":2159:2160   */\n      0x00\n        /* \"#utility.yul\":2184:2237   */\n      tag_127\n        /* \"#utility.yul\":2229:2236   */\n      dup5\n        /* \"#utility.yul\":2220:2226   */\n      dup3\n        /* \"#utility.yul\":2209:2218   */\n      dup6\n        /* \"#utility.yul\":2205:2227   */\n      add\n        /* \"#utility.yul\":2184:2237   */\n      tag_88\n      jump\t// in\n    tag_127:\n        /* \"#utility.yul\":2174:2237   */\n      swap2\n      pop\n        /* \"#utility.yul\":2130:2247   */\n      pop\n        /* \"#utility.yul\":1925:2254   */\n      swap3\n      swap2\n      pop\n      pop\n      jump\t// out\n        /* \"#utility.yul\":2260:2386   */\n    tag_89:\n        /* \"#utility.yul\":2297:2304   */\n      0x00\n        /* \"#utility.yul\":2337:2379   */\n      0xffffffffffffffffffffffffffffffffffffffff\n        /* \"#utility.yul\":2330:2335   */\n      dup3\n        /* \"#utility.yul\":2326:2380   */\n      and\n        /* \"#utility.yul\":2315:2380   */\n      swap1\n      pop\n        /* \"#utility.yul\":2260:2386   */\n      swap2\n      swap1\n      pop\n      jump\t// out\n        /* \"#utility.yul\":2392:2488   */\n    tag_90:\n        /* \"#utility.yul\":2429:2436   */\n      0x00\n        /* \"#utility.yul\":2458:2482   */\n      tag_130\n        /* \"#utility.yul\":2476:2481   */\n      dup3\n        /* \"#utility.yul\":2458:2482   */\n      tag_89\n      jump\t// in\n    tag_130:\n        /* \"#utility.yul\":2447:2482   */\n      swap1\n      pop\n        /* \"#utility.yul\":2392:2488   */\n      swap2\n      swap1\n      pop\n      jump\t// out\n        /* \"#utility.yul\":2494:2612   */\n    tag_91:\n        /* \"#utility.yul\":2581:2605   */\n      tag_132\n        /* \"#utility.yul\":2599:2604   */\n      dup2\n        /* \"#utility.yul\":2581:2605   */\n      tag_90\n      jump\t// in\n    tag_132:\n        /* \"#utility.yul\":2576:2579   */\n      dup3\n        /* \"#utility.yul\":2569:2606   */\n      mstore\n        /* \"#utility.yul\":2494:2612   */\n      pop\n      pop\n      jump\t// out\n        /* \"#utility.yul\":2618:2840   */\n    tag_21:\n        /* \"#utility.yul\":2711:2715   */\n      0x00\n        /* \"#utility.yul\":2749:2751   */\n      0x20\n        /* \"#utility.yul\":2738:2747   */\n      dup3\n        /* \"#utility.yul\":2734:2752   */\n      add\n        /* \"#utility.yul\":2726:2752   */\n      swap1\n      pop\n        /* \"#utility.yul\":2762:2833   */\n      tag_134\n        /* \"#utility.yul\":2830:2831   */\n      0x00\n        /* \"#utility.yul\":2819:2828   */\n      dup4\n        /* \"#utility.yul\":2815:2832   */\n      add\n        /* \"#utility.yul\":2806:2812   */\n      dup5\n        /* \"#utility.yul\":2762:2833   */\n      tag_91\n      jump\t// in\n    tag_134:\n        /* \"#utility.yul\":2618:2840   */\n      swap3\n      swap2\n      pop\n      pop\n      jump\t// out\n        /* \"#utility.yul\":2846:2968   */\n    tag_92:\n        /* \"#utility.yul\":2919:2943   */\n      tag_136\n        /* \"#utility.yul\":2937:2942   */\n      dup2\n        /* \"#utility.yul\":2919:2943   */\n      tag_90\n      jump\t// in\n    tag_136:\n        /* \"#utility.yul\":2912:2917   */\n      dup2\n        /* \"#utility.yul\":2909:2944   */\n      eq\n        /* \"#utility.yul\":2899:2962   */\n      tag_137\n      jumpi\n        /* \"#utility.yul\":2958:2959   */\n      0x00\n        /* \"#utility.yul\":2955:2956   */\n      0x00\n        /* \"#utility.yul\":2948:2960   */\n      revert\n        /* \"#utility.yul\":2899:2962   */\n    tag_137:\n        /* \"#utility.yul\":2846:2968   */\n      pop\n      jump\t// out\n        /* \"#utility.yul\":2974:3113   */\n    tag_93:\n        /* \"#utility.yul\":3020:3025   */\n      0x00\n        /* \"#utility.yul\":3058:3064   */\n      dup2\n        /* \"#utility.yul\":3045:3065   */\n      calldataload\n        /* \"#utility.yul\":3036:3065   */\n      swap1\n      pop\n        /* \"#utility.yul\":3074:3107   */\n      tag_139\n        /* \"#utility.yul\":3101:3106   */\n      dup2\n        /* \"#utility.yul\":3074:3107   */\n      tag_92\n      jump\t// in\n    tag_139:\n        /* \"#utility.yul\":2974:3113   */\n      swap3\n      swap2\n      pop\n      pop\n      jump\t// out\n        /* \"#utility.yul\":3119:3448   */\n    tag_27:\n        /* \"#utility.yul\":3178:3184   */\n      0x00\n        /* \"#utility.yul\":3227:3229   */\n      0x20\n        /* \"#utility.yul\":3215:3224   */\n      dup3\n        /* \"#utility.yul\":3206:3213   */\n      dup5\n        /* \"#utility.yul\":3202:3225   */\n      sub\n        /* \"#utility.yul\":3198:3230   */\n      slt\n        /* \"#utility.yul\":3195:3314   */\n      iszero\n      tag_141\n      jumpi\n        /* \"#utility.yul\":3233:3312   */\n      tag_142\n      tag_84\n      jump\t// in\n    tag_142:\n        /* \"#utility.yul\":3195:3314   */\n    tag_141:\n        /* \"#utility.yul\":3353:3354   */\n      0x00\n        /* \"#utility.yul\":3378:3431   */\n      tag_143\n        /* \"#utility.yul\":3423:3430   */\n      dup5\n        /* \"#utility.yul\":3414:3420   */\n      dup3\n        /* \"#utility.yul\":3403:3412   */\n      dup6\n        /* \"#utility.yul\":3399:3421   */\n      add\n        /* \"#utility.yul\":3378:3431   */\n      tag_93\n      jump\t// in\n    tag_143:\n        /* \"#utility.yul\":3368:3431   */\n      swap2\n      pop\n        /* \"#utility.yul\":3324:3441   */\n      pop\n        /* \"#utility.yul\":3119:3448   */\n      swap3\n      swap2\n      pop\n      pop\n      jump\t// out\n        /* \"#utility.yul\":3454:3572   */\n    tag_94:\n        /* \"#utility.yul\":3541:3565   */\n      tag_145\n        /* \"#utility.yul\":3559:3564   */\n      dup2\n        /* \"#utility.yul\":3541:3565   */\n      tag_86\n      jump\t// in\n    tag_145:\n        /* \"#utility.yul\":3536:3539   */\n      dup3\n        /* \"#utility.yul\":3529:3566   */\n      mstore\n        /* \"#utility.yul\":3454:3572   */\n      pop\n      pop\n      jump\t// out\n        /* \"#utility.yul\":3578:3800   */\n    tag_33:\n        /* \"#utility.yul\":3671:3675   */\n      0x00\n        /* \"#utility.yul\":3709:3711   */\n      0x20\n        /* \"#utility.yul\":3698:3707   */\n      dup3\n        /* \"#utility.yul\":3694:3712   */\n      add\n        /* \"#utility.yul\":3686:3712   */\n      swap1\n      pop\n        /* \"#utility.yul\":3722:3793   */\n      tag_147\n        /* \"#utility.yul\":3790:3791   */\n      0x00\n        /* \"#utility.yul\":3779:3788   */\n      dup4\n        /* \"#utility.yul\":3775:3792   */\n      add\n        /* \"#utility.yul\":3766:3772   */\n      dup5\n        /* \"#utility.yul\":3722:3793   */\n      tag_94\n      jump\t// in\n    tag_147:\n        /* \"#utility.yul\":3578:3800   */\n      swap3\n      swap2\n      pop\n      pop\n      jump\t// out\n        /* \"#utility.yul\":3806:4280   */\n    tag_43:\n        /* \"#utility.yul\":3874:3880   */\n      0x00\n        /* \"#utility.yul\":3882:3888   */\n      0x00\n        /* \"#utility.yul\":3931:3933   */\n      0x40\n        /* \"#utility.yul\":3919:3928   */\n      dup4\n        /* \"#utility.yul\":3910:3917   */\n      dup6\n        /* \"#utility.yul\":3906:3929   */\n      sub\n        /* \"#utility.yul\":3902:3934   */\n      slt\n        /* \"#utility.yul\":3899:4018   */\n      iszero\n      tag_149\n      jumpi\n        /* \"#utility.yul\":3937:4016   */\n      tag_150\n      tag_84\n      jump\t// in\n    tag_150:\n        /* \"#utility.yul\":3899:4018   */\n    tag_149:\n        /* \"#utility.yul\":4057:4058   */\n      0x00\n        /* \"#utility.yul\":4082:4135   */\n      tag_151\n        /* \"#utility.yul\":4127:4134   */\n      dup6\n        /* \"#utility.yul\":4118:4124   */\n      dup3\n        /* \"#utility.yul\":4107:4116   */\n      dup7\n        /* \"#utility.yul\":4103:4125   */\n      add\n        /* \"#utility.yul\":4082:4135   */\n      tag_93\n      jump\t// in\n    tag_151:\n        /* \"#utility.yul\":4072:4135   */\n      swap3\n      pop\n        /* \"#utility.yul\":4028:4145   */\n      pop\n        /* \"#utility.yul\":4184:4186   */\n      0x20\n        /* \"#utility.yul\":4210:4263   */\n      tag_152\n        /* \"#utility.yul\":4255:4262   */\n      dup6\n        /* \"#utility.yul\":4246:4252   */\n      dup3\n        /* \"#utility.yul\":4235:4244   */\n      dup7\n        /* \"#utility.yul\":4231:4253   */\n      add\n        /* \"#utility.yul\":4210:4263   */\n      tag_88\n      jump\t// in\n    tag_152:\n        /* \"#utility.yul\":4200:4263   */\n      swap2\n      pop\n        /* \"#utility.yul\":4155:4273   */\n      pop\n        /* \"#utility.yul\":3806:4280   */\n      swap3\n      pop\n      swap3\n      swap1\n      pop\n      jump\t// out\n        /* \"#utility.yul\":4286:4466   */\n    tag_95:\n        /* \"#utility.yul\":4334:4411   */\n      0x4e487b7100000000000000000000000000000000000000000000000000000000\n        /* \"#utility.yul\":4331:4332   */\n      0x00\n        /* \"#utility.yul\":4324:4412   */\n      mstore\n        /* \"#utility.yul\":4431:4435   */\n      0x22\n        /* \"#utility.yul\":4428:4429   */\n      0x04\n        /* \"#utility.yul\":4421:4436   */\n      mstore\n        /* \"#utility.yul\":4455:4459   */\n      0x24\n        /* \"#utility.yul\":4452:4453   */\n      0x00\n        /* \"#utility.yul\":4445:4460   */\n      revert\n        /* \"#utility.yul\":4472:4792   */\n    tag_46:\n        /* \"#utility.yul\":4516:4522   */\n      0x00\n        /* \"#utility.yul\":4553:4554   */\n      0x02\n        /* \"#utility.yul\":4547:4551   */\n      dup3\n        /* \"#utility.yul\":4543:4555   */\n      div\n        /* \"#utility.yul\":4533:4555   */\n      swap1\n      pop\n        /* \"#utility.yul\":4600:4601   */\n      0x01\n        /* \"#utility.yul\":4594:4598   */\n      dup3\n        /* \"#utility.yul\":4590:4602   */\n      and\n        /* \"#utility.yul\":4621:4639   */\n      dup1\n        /* \"#utility.yul\":4611:4692   */\n      tag_155\n      jumpi\n        /* \"#utility.yul\":4677:4681   */\n      0x7f\n        /* \"#utility.yul\":4669:4675   */\n      dup3\n        /* \"#utility.yul\":4665:4682   */\n      and\n        /* \"#utility.yul\":4655:4682   */\n      swap2\n      pop\n        /* \"#utility.yul\":4611:4692   */\n    tag_155:\n        /* \"#utility.yul\":4739:4741   */\n      0x20\n        /* \"#utility.yul\":4731:4737   */\n      dup3\n        /* \"#utility.yul\":4728:4742   */\n      lt\n        /* \"#utility.yul\":4708:4726   */\n      dup2\n        /* \"#utility.yul\":4705:4743   */\n      sub\n        /* \"#utility.yul\":4702:4786   */\n      tag_156\n      jumpi\n        /* \"#utility.yul\":4758:4776   */\n      tag_157\n      tag_95\n      jump\t// in\n    tag_157:\n        /* \"#utility.yul\":4702:4786   */\n    tag_156:\n        /* \"#utility.yul\":4523:4792   */\n      pop\n        /* \"#utility.yul\":4472:4792   */\n      swap2\n      swap1\n      pop\n      jump\t// out\n        /* \"#utility.yul\":4798:5018   */\n    tag_96:\n        /* \"#utility.yul\":4938:4972   */\n      0x4f6e6c7920746865206f776e65722063616e206275726e2074686520746f6b65\n        /* \"#utility.yul\":4934:4935   */\n      0x00\n        /* \"#utility.yul\":4926:4932   */\n      dup3\n        /* \"#utility.yul\":4922:4936   */\n      add\n        /* \"#utility.yul\":4915:4973   */\n      mstore\n        /* \"#utility.yul\":5007:5010   */\n      0x6e00000000000000000000000000000000000000000000000000000000000000\n        /* \"#utility.yul\":5002:5004   */\n      0x20\n        /* \"#utility.yul\":4994:5000   */\n      dup3\n        /* \"#utility.yul\":4990:5005   */\n      add\n        /* \"#utility.yul\":4983:5011   */\n      mstore\n        /* \"#utility.yul\":4798:5018   */\n      pop\n      jump\t// out\n        /* \"#utility.yul\":5024:5390   */\n    tag_97:\n        /* \"#utility.yul\":5166:5169   */\n      0x00\n        /* \"#utility.yul\":5187:5254   */\n      tag_160\n        /* \"#utility.yul\":5251:5253   */\n      0x21\n        /* \"#utility.yul\":5246:5249   */\n      dup4\n        /* \"#utility.yul\":5187:5254   */\n      tag_79\n      jump\t// in\n    tag_160:\n        /* \"#utility.yul\":5180:5254   */\n      swap2\n      pop\n        /* \"#utility.yul\":5263:5356   */\n      tag_161\n        /* \"#utility.yul\":5352:5355   */\n      dup3\n        /* \"#utility.yul\":5263:5356   */\n      tag_96\n      jump\t// in\n    tag_161:\n        /* \"#utility.yul\":5381:5383   */\n      0x40\n        /* \"#utility.yul\":5376:5379   */\n      dup3\n        /* \"#utility.yul\":5372:5384   */\n      add\n        /* \"#utility.yul\":5365:5384   */\n      swap1\n      pop\n        /* \"#utility.yul\":5024:5390   */\n      swap2\n      swap1\n      pop\n      jump\t// out\n        /* \"#utility.yul\":5396:5815   */\n    tag_54:\n        /* \"#utility.yul\":5562:5566   */\n      0x00\n        /* \"#utility.yul\":5600:5602   */\n      0x20\n        /* \"#utility.yul\":5589:5598   */\n      dup3\n        /* \"#utility.yul\":5585:5603   */\n      add\n        /* \"#utility.yul\":5577:5603   */\n      swap1\n      pop\n        /* \"#utility.yul\":5649:5658   */\n      dup2\n        /* \"#utility.yul\":5643:5647   */\n      dup2\n        /* \"#utility.yul\":5639:5659   */\n      sub\n        /* \"#utility.yul\":5635:5636   */\n      0x00\n        /* \"#utility.yul\":5624:5633   */\n      dup4\n        /* \"#utility.yul\":5620:5637   */\n      add\n        /* \"#utility.yul\":5613:5660   */\n      mstore\n        /* \"#utility.yul\":5677:5808   */\n      tag_163\n        /* \"#utility.yul\":5803:5807   */\n      dup2\n        /* \"#utility.yul\":5677:5808   */\n      tag_97\n      jump\t// in\n    tag_163:\n        /* \"#utility.yul\":5669:5808   */\n      swap1\n      pop\n        /* \"#utility.yul\":5396:5815   */\n      swap2\n      swap1\n      pop\n      jump\t// out\n        /* \"#utility.yul\":5821:6001   */\n    tag_98:\n        /* \"#utility.yul\":5869:5946   */\n      0x4e487b7100000000000000000000000000000000000000000000000000000000\n        /* \"#utility.yul\":5866:5867   */\n      0x00\n        /* \"#utility.yul\":5859:5947   */\n      mstore\n        /* \"#utility.yul\":5966:5970   */\n      0x11\n        /* \"#utility.yul\":5963:5964   */\n      0x04\n        /* \"#utility.yul\":5956:5971   */\n      mstore\n        /* \"#utility.yul\":5990:5994   */\n      0x24\n        /* \"#utility.yul\":5987:5988   */\n      0x00\n        /* \"#utility.yul\":5980:5995   */\n      revert\n        /* \"#utility.yul\":6007:6178   */\n    tag_56:\n        /* \"#utility.yul\":6046:6049   */\n      0x00\n        /* \"#utility.yul\":6069:6093   */\n      tag_166\n        /* \"#utility.yul\":6087:6092   */\n      dup3\n        /* \"#utility.yul\":6069:6093   */\n      tag_86\n      jump\t// in\n    tag_166:\n        /* \"#utility.yul\":6060:6093   */\n      swap2\n      pop\n        /* \"#utility.yul\":6115:6119   */\n      0x00\n        /* \"#utility.yul\":6108:6113   */\n      dup3\n        /* \"#utility.yul\":6105:6120   */\n      sub\n        /* \"#utility.yul\":6102:6143   */\n      tag_167\n      jumpi\n        /* \"#utility.yul\":6123:6141   */\n      tag_168\n      tag_98\n      jump\t// in\n    tag_168:\n        /* \"#utility.yul\":6102:6143   */\n    tag_167:\n        /* \"#utility.yul\":6170:6171   */\n      0x01\n        /* \"#utility.yul\":6163:6168   */\n      dup3\n        /* \"#utility.yul\":6159:6172   */\n      sub\n        /* \"#utility.yul\":6152:6172   */\n      swap1\n      pop\n        /* \"#utility.yul\":6007:6178   */\n      swap2\n      swap1\n      pop\n      jump\t// out\n        /* \"#utility.yul\":6184:6349   */\n    tag_99:\n        /* \"#utility.yul\":6324:6341   */\n      0x496e76616c696420616464726573730000000000000000000000000000000000\n        /* \"#utility.yul\":6320:6321   */\n      0x00\n        /* \"#utility.yul\":6312:6318   */\n      dup3\n        /* \"#utility.yul\":6308:6322   */\n      add\n        /* \"#utility.yul\":6301:6342   */\n      mstore\n        /* \"#utility.yul\":6184:6349   */\n      pop\n      jump\t// out\n        /* \"#utility.yul\":6355:6721   */\n    tag_100:\n        /* \"#utility.yul\":6497:6500   */\n      0x00\n        /* \"#utility.yul\":6518:6585   */\n      tag_171\n        /* \"#utility.yul\":6582:6584   */\n      0x0f\n        /* \"#utility.yul\":6577:6580   */\n      dup4\n        /* \"#utility.yul\":6518:6585   */\n      tag_79\n      jump\t// in\n    tag_171:\n        /* \"#utility.yul\":6511:6585   */\n      swap2\n      pop\n        /* \"#utility.yul\":6594:6687   */\n      tag_172\n        /* \"#utility.yul\":6683:6686   */\n      dup3\n        /* \"#utility.yul\":6594:6687   */\n      tag_99\n      jump\t// in\n    tag_172:\n        /* \"#utility.yul\":6712:6714   */\n      0x20\n        /* \"#utility.yul\":6707:6710   */\n      dup3\n        /* \"#utility.yul\":6703:6715   */\n      add\n        /* \"#utility.yul\":6696:6715   */\n      swap1\n      pop\n        /* \"#utility.yul\":6355:6721   */\n      swap2\n      swap1\n      pop\n      jump\t// out\n        /* \"#utility.yul\":6727:7146   */\n    tag_60:\n        /* \"#utility.yul\":6893:6897   */\n      0x00\n        /* \"#utility.yul\":6931:6933   */\n      0x20\n        /* \"#utility.yul\":6920:6929   */\n      dup3\n        /* \"#utility.yul\":6916:6934   */\n      add\n        /* \"#utility.yul\":6908:6934   */\n      swap1\n      pop\n        /* \"#utility.yul\":6980:6989   */\n      dup2\n        /* \"#utility.yul\":6974:6978   */\n      dup2\n        /* \"#utility.yul\":6970:6990   */\n      sub\n        /* \"#utility.yul\":6966:6967   */\n      0x00\n        /* \"#utility.yul\":6955:6964   */\n      dup4\n        /* \"#utility.yul\":6951:6968   */\n      add\n        /* \"#utility.yul\":6944:6991   */\n      mstore\n        /* \"#utility.yul\":7008:7139   */\n      tag_174\n        /* \"#utility.yul\":7134:7138   */\n      dup2\n        /* \"#utility.yul\":7008:7139   */\n      tag_100\n      jump\t// in\n    tag_174:\n        /* \"#utility.yul\":7000:7139   */\n      swap1\n      pop\n        /* \"#utility.yul\":6727:7146   */\n      swap2\n      swap1\n      pop\n      jump\t// out\n        /* \"#utility.yul\":7152:7385   */\n    tag_62:\n        /* \"#utility.yul\":7191:7194   */\n      0x00\n        /* \"#utility.yul\":7214:7238   */\n      tag_176\n        /* \"#utility.yul\":7232:7237   */\n      dup3\n        /* \"#utility.yul\":7214:7238   */\n      tag_86\n      jump\t// in\n    tag_176:\n        /* \"#utility.yul\":7205:7238   */\n      swap2\n      pop\n        /* \"#utility.yul\":7260:7326   */\n      0xffffffffffffffffffffffffffffffffffffffffffffffffffffffffffffffff\n        /* \"#utility.yul\":7253:7258   */\n      dup3\n        /* \"#utility.yul\":7250:7327   */\n      sub\n        /* \"#utility.yul\":7247:7350   */\n      tag_177\n      jumpi\n        /* \"#utility.yul\":7330:7348   */\n      tag_178\n      tag_98\n      jump\t// in\n    tag_178:\n        /* \"#utility.yul\":7247:7350   */\n    tag_177:\n        /* \"#utility.yul\":7377:7378   */\n      0x01\n        /* \"#utility.yul\":7370:7375   */\n      dup3\n        /* \"#utility.yul\":7366:7379   */\n      add\n        /* \"#utility.yul\":7359:7379   */\n      swap1\n      pop\n        /* \"#utility.yul\":7152:7385   */\n      swap2\n      swap1\n      pop\n      jump\t// out\n        /* \"#utility.yul\":7391:7612   */\n    tag_101:\n        /* \"#utility.yul\":7531:7565   */\n      0x204f6e6c79206f776e65722063616e207472616e736665722074686520746f6b\n        /* \"#utility.yul\":7527:7528   */\n      0x00\n        /* \"#utility.yul\":7519:7525   */\n      dup3\n        /* \"#utility.yul\":7515:7529   */\n      add\n        /* \"#utility.yul\":7508:7566   */\n      mstore\n        /* \"#utility.yul\":7600:7604   */\n      0x656e000000000000000000000000000000000000000000000000000000000000\n        /* \"#utility.yul\":7595:7597   */\n      0x20\n        /* \"#utility.yul\":7587:7593   */\n      dup3\n        /* \"#utility.yul\":7583:7598   */\n      add\n        /* \"#utility.yul\":7576:7605   */\n      mstore\n        /* \"#utility.yul\":7391:7612   */\n      pop\n      jump\t// out\n        /* \"#utility.yul\":7618:7984   */\n    tag_102:\n        /* \"#utility.yul\":7760:7763   */\n      0x00\n        /* \"#utility.yul\":7781:7848   */\n      tag_181\n        /* \"#utility.yul\":7845:7847   */\n      0x22\n        /* \"#utility.yul\":7840:7843   */\n      dup4\n        /* \"#utility.yul\":7781:7848   */\n      tag_79\n      jump\t// in\n    tag_181:\n        /* \"#utility.yul\":7774:7848   */\n      swap2\n      pop\n        /* \"#utility.yul\":7857:7950   */\n      tag_182\n        /* \"#utility.yul\":7946:7949   */\n      dup3\n        /* \"#utility.yul\":7857:7950   */\n      tag_101\n      jump\t// in\n    tag_182:\n        /* \"#utility.yul\":7975:7977   */\n      0x40\n        /* \"#utility.yul\":7970:7973   */\n      dup3\n        /* \"#utility.yul\":7966:7978   */\n      add\n        /* \"#utility.yul\":7959:7978   */\n      swap1\n      pop\n        /* \"#utility.yul\":7618:7984   */\n      swap2\n      swap1\n      pop\n      jump\t// out\n        /* \"#utility.yul\":7990:8409   */\n    tag_73:\n        /* \"#utility.yul\":8156:8160   */\n      0x00\n        /* \"#utility.yul\":8194:8196   */\n      0x20\n        /* \"#utility.yul\":8183:8192   */\n      dup3\n        /* \"#utility.yul\":8179:8197   */\n      add\n        /* \"#utility.yul\":8171:8197   */\n      swap1\n      pop\n        /* \"#utility.yul\":8243:8252   */\n      dup2\n        /* \"#utility.yul\":8237:8241   */\n      dup2\n        /* \"#utility.yul\":8233:8253   */\n      sub\n        /* \"#utility.yul\":8229:8230   */\n      0x00\n        /* \"#utility.yul\":8218:8227   */\n      dup4\n        /* \"#utility.yul\":8214:8231   */\n      add\n        /* \"#utility.yul\":8207:8254   */\n      mstore\n        /* \"#utility.yul\":8271:8402   */\n      tag_184\n        /* \"#utility.yul\":8397:8401   */\n      dup2\n        /* \"#utility.yul\":8271:8402   */\n      tag_102\n      jump\t// in\n    tag_184:\n        /* \"#utility.yul\":8263:8402   */\n      swap1\n      pop\n        /* \"#utility.yul\":7990:8409   */\n      swap2\n      swap1\n      pop\n      jump\t// out\n\n    auxdata: 0xa264697066735822122048c61bdda3f57ff6bae77b927f16718d93b13a107fe51257614618933fd6f89964736f6c634300081c0033\n}\n",
				"bytecode": {
					"linkReferences": {},
					"object": "608060405234801561000f575f5ffd5b5060405161127d38038061127d833981810160405281019061003191906101a5565b8160019081610040919061042b565b508060029081610050919061042b565b5050506104fa565b5f604051905090565b5f5ffd5b5f5ffd5b5f5ffd5b5f5ffd5b5f601f19601f8301169050919050565b7f4e487b71000000000000000000000000000000000000000000000000000000005f52604160045260245ffd5b6100b782610071565b810181811067ffffffffffffffff821117156100d6576100d5610081565b5b80604052505050565b5f6100e8610058565b90506100f482826100ae565b919050565b5f67ffffffffffffffff82111561011357610112610081565b5b61011c82610071565b9050602081019050919050565b8281835e5f83830152505050565b5f610149610144846100f9565b6100df565b9050828152602081018484840111156101655761016461006d565b5b610170848285610129565b509392505050565b5f82601f83011261018c5761018b610069565b5b815161019c848260208601610137565b91505092915050565b5f5f604083850312156101bb576101ba610061565b5b5f83015167ffffffffffffffff8111156101d8576101d7610065565b5b6101e485828601610178565b925050602083015167ffffffffffffffff81111561020557610204610065565b5b61021185828601610178565b9150509250929050565b5f81519050919050565b7f4e487b71000000000000000000000000000000000000000000000000000000005f52602260045260245ffd5b5f600282049050600182168061026957607f821691505b60208210810361027c5761027b610225565b5b50919050565b5f819050815f5260205f209050919050565b5f6020601f8301049050919050565b5f82821b905092915050565b5f600883026102de7fffffffffffffffffffffffffffffffffffffffffffffffffffffffffffffffff826102a3565b6102e886836102a3565b95508019841693508086168417925050509392505050565b5f819050919050565b5f819050919050565b5f61032c61032761032284610300565b610309565b610300565b9050919050565b5f819050919050565b61034583610312565b61035961035182610333565b8484546102af565b825550505050565b5f5f905090565b610370610361565b61037b81848461033c565b505050565b5b8181101561039e576103935f82610368565b600181019050610381565b5050565b601f8211156103e3576103b481610282565b6103bd84610294565b810160208510156103cc578190505b6103e06103d885610294565b830182610380565b50505b505050565b5f82821c905092915050565b5f6104035f19846008026103e8565b1980831691505092915050565b5f61041b83836103f4565b9150826002028217905092915050565b6104348261021b565b67ffffffffffffffff81111561044d5761044c610081565b5b6104578254610252565b6104628282856103a2565b5f60209050601f831160018114610493575f8415610481578287015190505b61048b8582610410565b8655506104f2565b601f1984166104a186610282565b5f5b828110156104c8578489015182556001820191506020850194506020810190506104a3565b868310156104e557848901516104e1601f8916826103f4565b8355505b6001600288020188555050505b505050505050565b610d76806105075f395ff3fe608060405234801561000f575f5ffd5b5060043610610086575f3560e01c806370a082311161005957806370a082311461011057806395d89b41146101405780639ee946a51461015e578063a9059cbb1461018e57610086565b806306fdde031461008a5780632a11ced0146100a857806342966c68146100d85780636a627842146100f4575b5f5ffd5b6100926101aa565b60405161009f919061092f565b60405180910390f35b6100c260048036038101906100bd9190610986565b610236565b6040516100cf91906109f0565b60405180910390f35b6100f260048036038101906100ed9190610986565b610266565b005b61010e60048036038101906101099190610a33565b6103ec565b005b61012a60048036038101906101259190610a33565b610575565b6040516101379190610a6d565b60405180910390f35b6101486105bb565b604051610155919061092f565b60405180910390f35b61017860048036038101906101739190610a33565b610647565b6040516101859190610a6d565b60405180910390f35b6101a860048036038101906101a39190610a86565b61065c565b005b600180546101b790610af1565b80601f01602080910402602001604051908101604052809291908181526020018280546101e390610af1565b801561022e5780601f106102055761010080835404028352916020019161022e565b820191905f5260205f20905b81548152906001019060200180831161021157829003601f168201915b505050505081565b6003602052805f5260405f205f915054906101000a900473ffffffffffffffffffffffffffffffffffffffff1681565b5f60035f8381526020019081526020015f205f9054906101000a900473ffffffffffffffffffffffffffffffffffffffff1690503373ffffffffffffffffffffffffffffffffffffffff168173ffffffffffffffffffffffffffffffffffffffff1614610308576040517f08c379a00000000000000000000000000000000000000000000000000000000081526004016102ff90610b91565b60405180910390fd5b60045f8273ffffffffffffffffffffffffffffffffffffffff1673ffffffffffffffffffffffffffffffffffffffff1681526020019081526020015f205f81548092919061035590610bdc565b919050555060035f8381526020019081526020015f205f6101000a81549073ffffffffffffffffffffffffffffffffffffffff0219169055815f73ffffffffffffffffffffffffffffffffffffffff168273ffffffffffffffffffffffffffffffffffffffff167fddf252ad1be2c89b69c2b068fc378daa952ba7f163c4a11628f55a4df523b3ef60405160405180910390a45050565b5f73ffffffffffffffffffffffffffffffffffffffff168173ffffffffffffffffffffffffffffffffffffffff160361045a576040517f08c379a000000000000000000000000000000000000000000000000000000000815260040161045190610c4d565b60405180910390fd5b5f5f5490505f5f81548092919061047090610c6b565b91905055508160035f8381526020019081526020015f205f6101000a81548173ffffffffffffffffffffffffffffffffffffffff021916908373ffffffffffffffffffffffffffffffffffffffff16021790555060045f8373ffffffffffffffffffffffffffffffffffffffff1673ffffffffffffffffffffffffffffffffffffffff1681526020019081526020015f205f81548092919061051190610c6b565b9190505550808273ffffffffffffffffffffffffffffffffffffffff165f73ffffffffffffffffffffffffffffffffffffffff167fddf252ad1be2c89b69c2b068fc378daa952ba7f163c4a11628f55a4df523b3ef60405160405180910390a45050565b5f60045f8373ffffffffffffffffffffffffffffffffffffffff1673ffffffffffffffffffffffffffffffffffffffff1681526020019081526020015f20549050919050565b600280546105c890610af1565b80601f01602080910402602001604051908101604052809291908181526020018280546105f490610af1565b801561063f5780601f106106165761010080835404028352916020019161063f565b820191905f5260205f20905b81548152906001019060200180831161062257829003601f168201915b505050505081565b6004602052805f5260405f205f915090505481565b5f60035f8381526020019081526020015f205f9054906101000a900473ffffffffffffffffffffffffffffffffffffffff1690503373ffffffffffffffffffffffffffffffffffffffff168173ffffffffffffffffffffffffffffffffffffffff16146106fe576040517f08c379a00000000000000000000000000000000000000000000000000000000081526004016106f590610d22565b60405180910390fd5b5f73ffffffffffffffffffffffffffffffffffffffff168373ffffffffffffffffffffffffffffffffffffffff160361076c576040517f08c379a000000000000000000000000000000000000000000000000000000000815260040161076390610c4d565b60405180910390fd5b8260035f8481526020019081526020015f205f6101000a81548173ffffffffffffffffffffffffffffffffffffffff021916908373ffffffffffffffffffffffffffffffffffffffff16021790555060045f8273ffffffffffffffffffffffffffffffffffffffff1673ffffffffffffffffffffffffffffffffffffffff1681526020019081526020015f205f81548092919061080890610bdc565b919050555060045f8473ffffffffffffffffffffffffffffffffffffffff1673ffffffffffffffffffffffffffffffffffffffff1681526020019081526020015f205f81548092919061085a90610c6b565b9190505550818373ffffffffffffffffffffffffffffffffffffffff168273ffffffffffffffffffffffffffffffffffffffff167fddf252ad1be2c89b69c2b068fc378daa952ba7f163c4a11628f55a4df523b3ef60405160405180910390a4505050565b5f81519050919050565b5f82825260208201905092915050565b8281835e5f83830152505050565b5f601f19601f8301169050919050565b5f610901826108bf565b61090b81856108c9565b935061091b8185602086016108d9565b610924816108e7565b840191505092915050565b5f6020820190508181035f83015261094781846108f7565b905092915050565b5f5ffd5b5f819050919050565b61096581610953565b811461096f575f5ffd5b50565b5f813590506109808161095c565b92915050565b5f6020828403121561099b5761099a61094f565b5b5f6109a884828501610972565b91505092915050565b5f73ffffffffffffffffffffffffffffffffffffffff82169050919050565b5f6109da826109b1565b9050919050565b6109ea816109d0565b82525050565b5f602082019050610a035f8301846109e1565b92915050565b610a12816109d0565b8114610a1c575f5ffd5b50565b5f81359050610a2d81610a09565b92915050565b5f60208284031215610a4857610a4761094f565b5b5f610a5584828501610a1f565b91505092915050565b610a6781610953565b82525050565b5f602082019050610a805f830184610a5e565b92915050565b5f5f60408385031215610a9c57610a9b61094f565b5b5f610aa985828601610a1f565b9250506020610aba85828601610972565b9150509250929050565b7f4e487b71000000000000000000000000000000000000000000000000000000005f52602260045260245ffd5b5f6002820490506001821680610b0857607f821691505b602082108103610b1b57610b1a610ac4565b5b50919050565b7f4f6e6c7920746865206f776e65722063616e206275726e2074686520746f6b655f8201527f6e00000000000000000000000000000000000000000000000000000000000000602082015250565b5f610b7b6021836108c9565b9150610b8682610b21565b604082019050919050565b5f6020820190508181035f830152610ba881610b6f565b9050919050565b7f4e487b71000000000000000000000000000000000000000000000000000000005f52601160045260245ffd5b5f610be682610953565b91505f8203610bf857610bf7610baf565b5b600182039050919050565b7f496e76616c6964206164647265737300000000000000000000000000000000005f82015250565b5f610c37600f836108c9565b9150610c4282610c03565b602082019050919050565b5f6020820190508181035f830152610c6481610c2b565b9050919050565b5f610c7582610953565b91507fffffffffffffffffffffffffffffffffffffffffffffffffffffffffffffffff8203610ca757610ca6610baf565b5b600182019050919050565b7f204f6e6c79206f776e65722063616e207472616e736665722074686520746f6b5f8201527f656e000000000000000000000000000000000000000000000000000000000000602082015250565b5f610d0c6022836108c9565b9150610d1782610cb2565b604082019050919050565b5f6020820190508181035f830152610d3981610d00565b905091905056fea264697066735822122048c61bdda3f57ff6bae77b927f16718d93b13a107fe51257614618933fd6f89964736f6c634300081c0033",
					"opcodes": "PUSH1 0x80 PUSH1 0x40 MSTORE CALLVALUE DUP1 ISZERO PUSH2 0xF JUMPI PUSH0 PUSH0 REVERT JUMPDEST POP PUSH1 0x40 MLOAD PUSH2 0x127D CODESIZE SUB DUP1 PUSH2 0x127D DUP4 CODECOPY DUP2 DUP2 ADD PUSH1 0x40 MSTORE DUP2 ADD SWAP1 PUSH2 0x31 SWAP2 SWAP1 PUSH2 0x1A5 JUMP JUMPDEST DUP2 PUSH1 0x1 SWAP1 DUP2 PUSH2 0x40 SWAP2 SWAP1 PUSH2 0x42B JUMP JUMPDEST POP DUP1 PUSH1 0x2 SWAP1 DUP2 PUSH2 0x50 SWAP2 SWAP1 PUSH2 0x42B JUMP JUMPDEST POP POP POP PUSH2 0x4FA JUMP JUMPDEST PUSH0 PUSH1 0x40 MLOAD SWAP1 POP SWAP1 JUMP JUMPDEST PUSH0 PUSH0 REVERT JUMPDEST PUSH0 PUSH0 REVERT JUMPDEST PUSH0 PUSH0 REVERT JUMPDEST PUSH0 PUSH0 REVERT JUMPDEST PUSH0 PUSH1 0x1F NOT PUSH1 0x1F DUP4 ADD AND SWAP1 POP SWAP2 SWAP1 POP JUMP JUMPDEST PUSH32 0x4E487B7100000000000000000000000000000000000000000000000000000000 PUSH0 MSTORE PUSH1 0x41 PUSH1 0x4 MSTORE PUSH1 0x24 PUSH0 REVERT JUMPDEST PUSH2 0xB7 DUP3 PUSH2 0x71 JUMP JUMPDEST DUP2 ADD DUP2 DUP2 LT PUSH8 0xFFFFFFFFFFFFFFFF DUP3 GT OR ISZERO PUSH2 0xD6 JUMPI PUSH2 0xD5 PUSH2 0x81 JUMP JUMPDEST JUMPDEST DUP1 PUSH1 0x40 MSTORE POP POP POP JUMP JUMPDEST PUSH0 PUSH2 0xE8 PUSH2 0x58 JUMP JUMPDEST SWAP1 POP PUSH2 0xF4 DUP3 DUP3 PUSH2 0xAE JUMP JUMPDEST SWAP2 SWAP1 POP JUMP JUMPDEST PUSH0 PUSH8 0xFFFFFFFFFFFFFFFF DUP3 GT ISZERO PUSH2 0x113 JUMPI PUSH2 0x112 PUSH2 0x81 JUMP JUMPDEST JUMPDEST PUSH2 0x11C DUP3 PUSH2 0x71 JUMP JUMPDEST SWAP1 POP PUSH1 0x20 DUP2 ADD SWAP1 POP SWAP2 SWAP1 POP JUMP JUMPDEST DUP3 DUP2 DUP4 MCOPY PUSH0 DUP4 DUP4 ADD MSTORE POP POP POP JUMP JUMPDEST PUSH0 PUSH2 0x149 PUSH2 0x144 DUP5 PUSH2 0xF9 JUMP JUMPDEST PUSH2 0xDF JUMP JUMPDEST SWAP1 POP DUP3 DUP2 MSTORE PUSH1 0x20 DUP2 ADD DUP5 DUP5 DUP5 ADD GT ISZERO PUSH2 0x165 JUMPI PUSH2 0x164 PUSH2 0x6D JUMP JUMPDEST JUMPDEST PUSH2 0x170 DUP5 DUP3 DUP6 PUSH2 0x129 JUMP JUMPDEST POP SWAP4 SWAP3 POP POP POP JUMP JUMPDEST PUSH0 DUP3 PUSH1 0x1F DUP4 ADD SLT PUSH2 0x18C JUMPI PUSH2 0x18B PUSH2 0x69 JUMP JUMPDEST JUMPDEST DUP2 MLOAD PUSH2 0x19C DUP5 DUP3 PUSH1 0x20 DUP7 ADD PUSH2 0x137 JUMP JUMPDEST SWAP2 POP POP SWAP3 SWAP2 POP POP JUMP JUMPDEST PUSH0 PUSH0 PUSH1 0x40 DUP4 DUP6 SUB SLT ISZERO PUSH2 0x1BB JUMPI PUSH2 0x1BA PUSH2 0x61 JUMP JUMPDEST JUMPDEST PUSH0 DUP4 ADD MLOAD PUSH8 0xFFFFFFFFFFFFFFFF DUP2 GT ISZERO PUSH2 0x1D8 JUMPI PUSH2 0x1D7 PUSH2 0x65 JUMP JUMPDEST JUMPDEST PUSH2 0x1E4 DUP6 DUP3 DUP7 ADD PUSH2 0x178 JUMP JUMPDEST SWAP3 POP POP PUSH1 0x20 DUP4 ADD MLOAD PUSH8 0xFFFFFFFFFFFFFFFF DUP2 GT ISZERO PUSH2 0x205 JUMPI PUSH2 0x204 PUSH2 0x65 JUMP JUMPDEST JUMPDEST PUSH2 0x211 DUP6 DUP3 DUP7 ADD PUSH2 0x178 JUMP JUMPDEST SWAP2 POP POP SWAP3 POP SWAP3 SWAP1 POP JUMP JUMPDEST PUSH0 DUP2 MLOAD SWAP1 POP SWAP2 SWAP1 POP JUMP JUMPDEST PUSH32 0x4E487B7100000000000000000000000000000000000000000000000000000000 PUSH0 MSTORE PUSH1 0x22 PUSH1 0x4 MSTORE PUSH1 0x24 PUSH0 REVERT JUMPDEST PUSH0 PUSH1 0x2 DUP3 DIV SWAP1 POP PUSH1 0x1 DUP3 AND DUP1 PUSH2 0x269 JUMPI PUSH1 0x7F DUP3 AND SWAP2 POP JUMPDEST PUSH1 0x20 DUP3 LT DUP2 SUB PUSH2 0x27C JUMPI PUSH2 0x27B PUSH2 0x225 JUMP JUMPDEST JUMPDEST POP SWAP2 SWAP1 POP JUMP JUMPDEST PUSH0 DUP2 SWAP1 POP DUP2 PUSH0 MSTORE PUSH1 0x20 PUSH0 KECCAK256 SWAP1 POP SWAP2 SWAP1 POP JUMP JUMPDEST PUSH0 PUSH1 0x20 PUSH1 0x1F DUP4 ADD DIV SWAP1 POP SWAP2 SWAP1 POP JUMP JUMPDEST PUSH0 DUP3 DUP3 SHL SWAP1 POP SWAP3 SWAP2 POP POP JUMP JUMPDEST PUSH0 PUSH1 0x8 DUP4 MUL PUSH2 0x2DE PUSH32 0xFFFFFFFFFFFFFFFFFFFFFFFFFFFFFFFFFFFFFFFFFFFFFFFFFFFFFFFFFFFFFFFF DUP3 PUSH2 0x2A3 JUMP JUMPDEST PUSH2 0x2E8 DUP7 DUP4 PUSH2 0x2A3 JUMP JUMPDEST SWAP6 POP DUP1 NOT DUP5 AND SWAP4 POP DUP1 DUP7 AND DUP5 OR SWAP3 POP POP POP SWAP4 SWAP3 POP POP POP JUMP JUMPDEST PUSH0 DUP2 SWAP1 POP SWAP2 SWAP1 POP JUMP JUMPDEST PUSH0 DUP2 SWAP1 POP SWAP2 SWAP1 POP JUMP JUMPDEST PUSH0 PUSH2 0x32C PUSH2 0x327 PUSH2 0x322 DUP5 PUSH2 0x300 JUMP JUMPDEST PUSH2 0x309 JUMP JUMPDEST PUSH2 0x300 JUMP JUMPDEST SWAP1 POP SWAP2 SWAP1 POP JUMP JUMPDEST PUSH0 DUP2 SWAP1 POP SWAP2 SWAP1 POP JUMP JUMPDEST PUSH2 0x345 DUP4 PUSH2 0x312 JUMP JUMPDEST PUSH2 0x359 PUSH2 0x351 DUP3 PUSH2 0x333 JUMP JUMPDEST DUP5 DUP5 SLOAD PUSH2 0x2AF JUMP JUMPDEST DUP3 SSTORE POP POP POP POP JUMP JUMPDEST PUSH0 PUSH0 SWAP1 POP SWAP1 JUMP JUMPDEST PUSH2 0x370 PUSH2 0x361 JUMP JUMPDEST PUSH2 0x37B DUP2 DUP5 DUP5 PUSH2 0x33C JUMP JUMPDEST POP POP POP JUMP JUMPDEST JUMPDEST DUP2 DUP2 LT ISZERO PUSH2 0x39E JUMPI PUSH2 0x393 PUSH0 DUP3 PUSH2 0x368 JUMP JUMPDEST PUSH1 0x1 DUP2 ADD SWAP1 POP PUSH2 0x381 JUMP JUMPDEST POP POP JUMP JUMPDEST PUSH1 0x1F DUP3 GT ISZERO PUSH2 0x3E3 JUMPI PUSH2 0x3B4 DUP2 PUSH2 0x282 JUMP JUMPDEST PUSH2 0x3BD DUP5 PUSH2 0x294 JUMP JUMPDEST DUP2 ADD PUSH1 0x20 DUP6 LT ISZERO PUSH2 0x3CC JUMPI DUP2 SWAP1 POP JUMPDEST PUSH2 0x3E0 PUSH2 0x3D8 DUP6 PUSH2 0x294 JUMP JUMPDEST DUP4 ADD DUP3 PUSH2 0x380 JUMP JUMPDEST POP POP JUMPDEST POP POP POP JUMP JUMPDEST PUSH0 DUP3 DUP3 SHR SWAP1 POP SWAP3 SWAP2 POP POP JUMP JUMPDEST PUSH0 PUSH2 0x403 PUSH0 NOT DUP5 PUSH1 0x8 MUL PUSH2 0x3E8 JUMP JUMPDEST NOT DUP1 DUP4 AND SWAP2 POP POP SWAP3 SWAP2 POP POP JUMP JUMPDEST PUSH0 PUSH2 0x41B DUP4 DUP4 PUSH2 0x3F4 JUMP JUMPDEST SWAP2 POP DUP3 PUSH1 0x2 MUL DUP3 OR SWAP1 POP SWAP3 SWAP2 POP POP JUMP JUMPDEST PUSH2 0x434 DUP3 PUSH2 0x21B JUMP JUMPDEST PUSH8 0xFFFFFFFFFFFFFFFF DUP2 GT ISZERO PUSH2 0x44D JUMPI PUSH2 0x44C PUSH2 0x81 JUMP JUMPDEST JUMPDEST PUSH2 0x457 DUP3 SLOAD PUSH2 0x252 JUMP JUMPDEST PUSH2 0x462 DUP3 DUP3 DUP6 PUSH2 0x3A2 JUMP JUMPDEST PUSH0 PUSH1 0x20 SWAP1 POP PUSH1 0x1F DUP4 GT PUSH1 0x1 DUP2 EQ PUSH2 0x493 JUMPI PUSH0 DUP5 ISZERO PUSH2 0x481 JUMPI DUP3 DUP8 ADD MLOAD SWAP1 POP JUMPDEST PUSH2 0x48B DUP6 DUP3 PUSH2 0x410 JUMP JUMPDEST DUP7 SSTORE POP PUSH2 0x4F2 JUMP JUMPDEST PUSH1 0x1F NOT DUP5 AND PUSH2 0x4A1 DUP7 PUSH2 0x282 JUMP JUMPDEST PUSH0 JUMPDEST DUP3 DUP2 LT ISZERO PUSH2 0x4C8 JUMPI DUP5 DUP10 ADD MLOAD DUP3 SSTORE PUSH1 0x1 DUP3 ADD SWAP2 POP PUSH1 0x20 DUP6 ADD SWAP5 POP PUSH1 0x20 DUP2 ADD SWAP1 POP PUSH2 0x4A3 JUMP JUMPDEST DUP7 DUP4 LT ISZERO PUSH2 0x4E5 JUMPI DUP5 DUP10 ADD MLOAD PUSH2 0x4E1 PUSH1 0x1F DUP10 AND DUP3 PUSH2 0x3F4 JUMP JUMPDEST DUP4 SSTORE POP JUMPDEST PUSH1 0x1 PUSH1 0x2 DUP9 MUL ADD DUP9 SSTORE POP POP POP JUMPDEST POP POP POP POP POP POP JUMP JUMPDEST PUSH2 0xD76 DUP1 PUSH2 0x507 PUSH0 CODECOPY PUSH0 RETURN INVALID PUSH1 0x80 PUSH1 0x40 MSTORE CALLVALUE DUP1 ISZERO PUSH2 0xF JUMPI PUSH0 PUSH0 REVERT JUMPDEST POP PUSH1 0x4 CALLDATASIZE LT PUSH2 0x86 JUMPI PUSH0 CALLDATALOAD PUSH1 0xE0 SHR DUP1 PUSH4 0x70A08231 GT PUSH2 0x59 JUMPI DUP1 PUSH4 0x70A08231 EQ PUSH2 0x110 JUMPI DUP1 PUSH4 0x95D89B41 EQ PUSH2 0x140 JUMPI DUP1 PUSH4 0x9EE946A5 EQ PUSH2 0x15E JUMPI DUP1 PUSH4 0xA9059CBB EQ PUSH2 0x18E JUMPI PUSH2 0x86 JUMP JUMPDEST DUP1 PUSH4 0x6FDDE03 EQ PUSH2 0x8A JUMPI DUP1 PUSH4 0x2A11CED0 EQ PUSH2 0xA8 JUMPI DUP1 PUSH4 0x42966C68 EQ PUSH2 0xD8 JUMPI DUP1 PUSH4 0x6A627842 EQ PUSH2 0xF4 JUMPI JUMPDEST PUSH0 PUSH0 REVERT JUMPDEST PUSH2 0x92 PUSH2 0x1AA JUMP JUMPDEST PUSH1 0x40 MLOAD PUSH2 0x9F SWAP2 SWAP1 PUSH2 0x92F JUMP JUMPDEST PUSH1 0x40 MLOAD DUP1 SWAP2 SUB SWAP1 RETURN JUMPDEST PUSH2 0xC2 PUSH1 0x4 DUP1 CALLDATASIZE SUB DUP2 ADD SWAP1 PUSH2 0xBD SWAP2 SWAP1 PUSH2 0x986 JUMP JUMPDEST PUSH2 0x236 JUMP JUMPDEST PUSH1 0x40 MLOAD PUSH2 0xCF SWAP2 SWAP1 PUSH2 0x9F0 JUMP JUMPDEST PUSH1 0x40 MLOAD DUP1 SWAP2 SUB SWAP1 RETURN JUMPDEST PUSH2 0xF2 PUSH1 0x4 DUP1 CALLDATASIZE SUB DUP2 ADD SWAP1 PUSH2 0xED SWAP2 SWAP1 PUSH2 0x986 JUMP JUMPDEST PUSH2 0x266 JUMP JUMPDEST STOP JUMPDEST PUSH2 0x10E PUSH1 0x4 DUP1 CALLDATASIZE SUB DUP2 ADD SWAP1 PUSH2 0x109 SWAP2 SWAP1 PUSH2 0xA33 JUMP JUMPDEST PUSH2 0x3EC JUMP JUMPDEST STOP JUMPDEST PUSH2 0x12A PUSH1 0x4 DUP1 CALLDATASIZE SUB DUP2 ADD SWAP1 PUSH2 0x125 SWAP2 SWAP1 PUSH2 0xA33 JUMP JUMPDEST PUSH2 0x575 JUMP JUMPDEST PUSH1 0x40 MLOAD PUSH2 0x137 SWAP2 SWAP1 PUSH2 0xA6D JUMP JUMPDEST PUSH1 0x40 MLOAD DUP1 SWAP2 SUB SWAP1 RETURN JUMPDEST PUSH2 0x148 PUSH2 0x5BB JUMP JUMPDEST PUSH1 0x40 MLOAD PUSH2 0x155 SWAP2 SWAP1 PUSH2 0x92F JUMP JUMPDEST PUSH1 0x40 MLOAD DUP1 SWAP2 SUB SWAP1 RETURN JUMPDEST PUSH2 0x178 PUSH1 0x4 DUP1 CALLDATASIZE SUB DUP2 ADD SWAP1 PUSH2 0x173 SWAP2 SWAP1 PUSH2 0xA33 JUMP JUMPDEST PUSH2 0x647 JUMP JUMPDEST PUSH1 0x40 MLOAD PUSH2 0x185 SWAP2 SWAP1 PUSH2 0xA6D JUMP JUMPDEST PUSH1 0x40 MLOAD DUP1 SWAP2 SUB SWAP1 RETURN JUMPDEST PUSH2 0x1A8 PUSH1 0x4 DUP1 CALLDATASIZE SUB DUP2 ADD SWAP1 PUSH2 0x1A3 SWAP2 SWAP1 PUSH2 0xA86 JUMP JUMPDEST PUSH2 0x65C JUMP JUMPDEST STOP JUMPDEST PUSH1 0x1 DUP1 SLOAD PUSH2 0x1B7 SWAP1 PUSH2 0xAF1 JUMP JUMPDEST DUP1 PUSH1 0x1F ADD PUSH1 0x20 DUP1 SWAP2 DIV MUL PUSH1 0x20 ADD PUSH1 0x40 MLOAD SWAP1 DUP2 ADD PUSH1 0x40 MSTORE DUP1 SWAP3 SWAP2 SWAP1 DUP2 DUP2 MSTORE PUSH1 0x20 ADD DUP3 DUP1 SLOAD PUSH2 0x1E3 SWAP1 PUSH2 0xAF1 JUMP JUMPDEST DUP1 ISZERO PUSH2 0x22E JUMPI DUP1 PUSH1 0x1F LT PUSH2 0x205 JUMPI PUSH2 0x100 DUP1 DUP4 SLOAD DIV MUL DUP4 MSTORE SWAP2 PUSH1 0x20 ADD SWAP2 PUSH2 0x22E JUMP JUMPDEST DUP3 ADD SWAP2 SWAP1 PUSH0 MSTORE PUSH1 0x20 PUSH0 KECCAK256 SWAP1 JUMPDEST DUP2 SLOAD DUP2 MSTORE SWAP1 PUSH1 0x1 ADD SWAP1 PUSH1 0x20 ADD DUP1 DUP4 GT PUSH2 0x211 JUMPI DUP3 SWAP1 SUB PUSH1 0x1F AND DUP3 ADD SWAP2 JUMPDEST POP POP POP POP POP DUP2 JUMP JUMPDEST PUSH1 0x3 PUSH1 0x20 MSTORE DUP1 PUSH0 MSTORE PUSH1 0x40 PUSH0 KECCAK256 PUSH0 SWAP2 POP SLOAD SWAP1 PUSH2 0x100 EXP SWAP1 DIV PUSH20 0xFFFFFFFFFFFFFFFFFFFFFFFFFFFFFFFFFFFFFFFF AND DUP2 JUMP JUMPDEST PUSH0 PUSH1 0x3 PUSH0 DUP4 DUP2 MSTORE PUSH1 0x20 ADD SWAP1 DUP2 MSTORE PUSH1 0x20 ADD PUSH0 KECCAK256 PUSH0 SWAP1 SLOAD SWAP1 PUSH2 0x100 EXP SWAP1 DIV PUSH20 0xFFFFFFFFFFFFFFFFFFFFFFFFFFFFFFFFFFFFFFFF AND SWAP1 POP CALLER PUSH20 0xFFFFFFFFFFFFFFFFFFFFFFFFFFFFFFFFFFFFFFFF AND DUP2 PUSH20 0xFFFFFFFFFFFFFFFFFFFFFFFFFFFFFFFFFFFFFFFF AND EQ PUSH2 0x308 JUMPI PUSH1 0x40 MLOAD PUSH32 0x8C379A000000000000000000000000000000000000000000000000000000000 DUP2 MSTORE PUSH1 0x4 ADD PUSH2 0x2FF SWAP1 PUSH2 0xB91 JUMP JUMPDEST PUSH1 0x40 MLOAD DUP1 SWAP2 SUB SWAP1 REVERT JUMPDEST PUSH1 0x4 PUSH0 DUP3 PUSH20 0xFFFFFFFFFFFFFFFFFFFFFFFFFFFFFFFFFFFFFFFF AND PUSH20 0xFFFFFFFFFFFFFFFFFFFFFFFFFFFFFFFFFFFFFFFF AND DUP2 MSTORE PUSH1 0x20 ADD SWAP1 DUP2 MSTORE PUSH1 0x20 ADD PUSH0 KECCAK256 PUSH0 DUP2 SLOAD DUP1 SWAP3 SWAP2 SWAP1 PUSH2 0x355 SWAP1 PUSH2 0xBDC JUMP JUMPDEST SWAP2 SWAP1 POP SSTORE POP PUSH1 0x3 PUSH0 DUP4 DUP2 MSTORE PUSH1 0x20 ADD SWAP1 DUP2 MSTORE PUSH1 0x20 ADD PUSH0 KECCAK256 PUSH0 PUSH2 0x100 EXP DUP2 SLOAD SWAP1 PUSH20 0xFFFFFFFFFFFFFFFFFFFFFFFFFFFFFFFFFFFFFFFF MUL NOT AND SWAP1 SSTORE DUP2 PUSH0 PUSH20 0xFFFFFFFFFFFFFFFFFFFFFFFFFFFFFFFFFFFFFFFF AND DUP3 PUSH20 0xFFFFFFFFFFFFFFFFFFFFFFFFFFFFFFFFFFFFFFFF AND PUSH32 0xDDF252AD1BE2C89B69C2B068FC378DAA952BA7F163C4A11628F55A4DF523B3EF PUSH1 0x40 MLOAD PUSH1 0x40 MLOAD DUP1 SWAP2 SUB SWAP1 LOG4 POP POP JUMP JUMPDEST PUSH0 PUSH20 0xFFFFFFFFFFFFFFFFFFFFFFFFFFFFFFFFFFFFFFFF AND DUP2 PUSH20 0xFFFFFFFFFFFFFFFFFFFFFFFFFFFFFFFFFFFFFFFF AND SUB PUSH2 0x45A JUMPI PUSH1 0x40 MLOAD PUSH32 0x8C379A000000000000000000000000000000000000000000000000000000000 DUP2 MSTORE PUSH1 0x4 ADD PUSH2 0x451 SWAP1 PUSH2 0xC4D JUMP JUMPDEST PUSH1 0x40 MLOAD DUP1 SWAP2 SUB SWAP1 REVERT JUMPDEST PUSH0 PUSH0 SLOAD SWAP1 POP PUSH0 PUSH0 DUP2 SLOAD DUP1 SWAP3 SWAP2 SWAP1 PUSH2 0x470 SWAP1 PUSH2 0xC6B JUMP JUMPDEST SWAP2 SWAP1 POP SSTORE POP DUP2 PUSH1 0x3 PUSH0 DUP4 DUP2 MSTORE PUSH1 0x20 ADD SWAP1 DUP2 MSTORE PUSH1 0x20 ADD PUSH0 KECCAK256 PUSH0 PUSH2 0x100 EXP DUP2 SLOAD DUP2 PUSH20 0xFFFFFFFFFFFFFFFFFFFFFFFFFFFFFFFFFFFFFFFF MUL NOT AND SWAP1 DUP4 PUSH20 0xFFFFFFFFFFFFFFFFFFFFFFFFFFFFFFFFFFFFFFFF AND MUL OR SWAP1 SSTORE POP PUSH1 0x4 PUSH0 DUP4 PUSH20 0xFFFFFFFFFFFFFFFFFFFFFFFFFFFFFFFFFFFFFFFF AND PUSH20 0xFFFFFFFFFFFFFFFFFFFFFFFFFFFFFFFFFFFFFFFF AND DUP2 MSTORE PUSH1 0x20 ADD SWAP1 DUP2 MSTORE PUSH1 0x20 ADD PUSH0 KECCAK256 PUSH0 DUP2 SLOAD DUP1 SWAP3 SWAP2 SWAP1 PUSH2 0x511 SWAP1 PUSH2 0xC6B JUMP JUMPDEST SWAP2 SWAP1 POP SSTORE POP DUP1 DUP3 PUSH20 0xFFFFFFFFFFFFFFFFFFFFFFFFFFFFFFFFFFFFFFFF AND PUSH0 PUSH20 0xFFFFFFFFFFFFFFFFFFFFFFFFFFFFFFFFFFFFFFFF AND PUSH32 0xDDF252AD1BE2C89B69C2B068FC378DAA952BA7F163C4A11628F55A4DF523B3EF PUSH1 0x40 MLOAD PUSH1 0x40 MLOAD DUP1 SWAP2 SUB SWAP1 LOG4 POP POP JUMP JUMPDEST PUSH0 PUSH1 0x4 PUSH0 DUP4 PUSH20 0xFFFFFFFFFFFFFFFFFFFFFFFFFFFFFFFFFFFFFFFF AND PUSH20 0xFFFFFFFFFFFFFFFFFFFFFFFFFFFFFFFFFFFFFFFF AND DUP2 MSTORE PUSH1 0x20 ADD SWAP1 DUP2 MSTORE PUSH1 0x20 ADD PUSH0 KECCAK256 SLOAD SWAP1 POP SWAP2 SWAP1 POP JUMP JUMPDEST PUSH1 0x2 DUP1 SLOAD PUSH2 0x5C8 SWAP1 PUSH2 0xAF1 JUMP JUMPDEST DUP1 PUSH1 0x1F ADD PUSH1 0x20 DUP1 SWAP2 DIV MUL PUSH1 0x20 ADD PUSH1 0x40 MLOAD SWAP1 DUP2 ADD PUSH1 0x40 MSTORE DUP1 SWAP3 SWAP2 SWAP1 DUP2 DUP2 MSTORE PUSH1 0x20 ADD DUP3 DUP1 SLOAD PUSH2 0x5F4 SWAP1 PUSH2 0xAF1 JUMP JUMPDEST DUP1 ISZERO PUSH2 0x63F JUMPI DUP1 PUSH1 0x1F LT PUSH2 0x616 JUMPI PUSH2 0x100 DUP1 DUP4 SLOAD DIV MUL DUP4 MSTORE SWAP2 PUSH1 0x20 ADD SWAP2 PUSH2 0x63F JUMP JUMPDEST DUP3 ADD SWAP2 SWAP1 PUSH0 MSTORE PUSH1 0x20 PUSH0 KECCAK256 SWAP1 JUMPDEST DUP2 SLOAD DUP2 MSTORE SWAP1 PUSH1 0x1 ADD SWAP1 PUSH1 0x20 ADD DUP1 DUP4 GT PUSH2 0x622 JUMPI DUP3 SWAP1 SUB PUSH1 0x1F AND DUP3 ADD SWAP2 JUMPDEST POP POP POP POP POP DUP2 JUMP JUMPDEST PUSH1 0x4 PUSH1 0x20 MSTORE DUP1 PUSH0 MSTORE PUSH1 0x40 PUSH0 KECCAK256 PUSH0 SWAP2 POP SWAP1 POP SLOAD DUP2 JUMP JUMPDEST PUSH0 PUSH1 0x3 PUSH0 DUP4 DUP2 MSTORE PUSH1 0x20 ADD SWAP1 DUP2 MSTORE PUSH1 0x20 ADD PUSH0 KECCAK256 PUSH0 SWAP1 SLOAD SWAP1 PUSH2 0x100 EXP SWAP1 DIV PUSH20 0xFFFFFFFFFFFFFFFFFFFFFFFFFFFFFFFFFFFFFFFF AND SWAP1 POP CALLER PUSH20 0xFFFFFFFFFFFFFFFFFFFFFFFFFFFFFFFFFFFFFFFF AND DUP2 PUSH20 0xFFFFFFFFFFFFFFFFFFFFFFFFFFFFFFFFFFFFFFFF AND EQ PUSH2 0x6FE JUMPI PUSH1 0x40 MLOAD PUSH32 0x8C379A000000000000000000000000000000000000000000000000000000000 DUP2 MSTORE PUSH1 0x4 ADD PUSH2 0x6F5 SWAP1 PUSH2 0xD22 JUMP JUMPDEST PUSH1 0x40 MLOAD DUP1 SWAP2 SUB SWAP1 REVERT JUMPDEST PUSH0 PUSH20 0xFFFFFFFFFFFFFFFFFFFFFFFFFFFFFFFFFFFFFFFF AND DUP4 PUSH20 0xFFFFFFFFFFFFFFFFFFFFFFFFFFFFFFFFFFFFFFFF AND SUB PUSH2 0x76C JUMPI PUSH1 0x40 MLOAD PUSH32 0x8C379A000000000000000000000000000000000000000000000000000000000 DUP2 MSTORE PUSH1 0x4 ADD PUSH2 0x763 SWAP1 PUSH2 0xC4D JUMP JUMPDEST PUSH1 0x40 MLOAD DUP1 SWAP2 SUB SWAP1 REVERT JUMPDEST DUP3 PUSH1 0x3 PUSH0 DUP5 DUP2 MSTORE PUSH1 0x20 ADD SWAP1 DUP2 MSTORE PUSH1 0x20 ADD PUSH0 KECCAK256 PUSH0 PUSH2 0x100 EXP DUP2 SLOAD DUP2 PUSH20 0xFFFFFFFFFFFFFFFFFFFFFFFFFFFFFFFFFFFFFFFF MUL NOT AND SWAP1 DUP4 PUSH20 0xFFFFFFFFFFFFFFFFFFFFFFFFFFFFFFFFFFFFFFFF AND MUL OR SWAP1 SSTORE POP PUSH1 0x4 PUSH0 DUP3 PUSH20 0xFFFFFFFFFFFFFFFFFFFFFFFFFFFFFFFFFFFFFFFF AND PUSH20 0xFFFFFFFFFFFFFFFFFFFFFFFFFFFFFFFFFFFFFFFF AND DUP2 MSTORE PUSH1 0x20 ADD SWAP1 DUP2 MSTORE PUSH1 0x20 ADD PUSH0 KECCAK256 PUSH0 DUP2 SLOAD DUP1 SWAP3 SWAP2 SWAP1 PUSH2 0x808 SWAP1 PUSH2 0xBDC JUMP JUMPDEST SWAP2 SWAP1 POP SSTORE POP PUSH1 0x4 PUSH0 DUP5 PUSH20 0xFFFFFFFFFFFFFFFFFFFFFFFFFFFFFFFFFFFFFFFF AND PUSH20 0xFFFFFFFFFFFFFFFFFFFFFFFFFFFFFFFFFFFFFFFF AND DUP2 MSTORE PUSH1 0x20 ADD SWAP1 DUP2 MSTORE PUSH1 0x20 ADD PUSH0 KECCAK256 PUSH0 DUP2 SLOAD DUP1 SWAP3 SWAP2 SWAP1 PUSH2 0x85A SWAP1 PUSH2 0xC6B JUMP JUMPDEST SWAP2 SWAP1 POP SSTORE POP DUP2 DUP4 PUSH20 0xFFFFFFFFFFFFFFFFFFFFFFFFFFFFFFFFFFFFFFFF AND DUP3 PUSH20 0xFFFFFFFFFFFFFFFFFFFFFFFFFFFFFFFFFFFFFFFF AND PUSH32 0xDDF252AD1BE2C89B69C2B068FC378DAA952BA7F163C4A11628F55A4DF523B3EF PUSH1 0x40 MLOAD PUSH1 0x40 MLOAD DUP1 SWAP2 SUB SWAP1 LOG4 POP POP POP JUMP JUMPDEST PUSH0 DUP2 MLOAD SWAP1 POP SWAP2 SWAP1 POP JUMP JUMPDEST PUSH0 DUP3 DUP3 MSTORE PUSH1 0x20 DUP3 ADD SWAP1 POP SWAP3 SWAP2 POP POP JUMP JUMPDEST DUP3 DUP2 DUP4 MCOPY PUSH0 DUP4 DUP4 ADD MSTORE POP POP POP JUMP JUMPDEST PUSH0 PUSH1 0x1F NOT PUSH1 0x1F DUP4 ADD AND SWAP1 POP SWAP2 SWAP1 POP JUMP JUMPDEST PUSH0 PUSH2 0x901 DUP3 PUSH2 0x8BF JUMP JUMPDEST PUSH2 0x90B DUP2 DUP6 PUSH2 0x8C9 JUMP JUMPDEST SWAP4 POP PUSH2 0x91B DUP2 DUP6 PUSH1 0x20 DUP7 ADD PUSH2 0x8D9 JUMP JUMPDEST PUSH2 0x924 DUP2 PUSH2 0x8E7 JUMP JUMPDEST DUP5 ADD SWAP2 POP POP SWAP3 SWAP2 POP POP JUMP JUMPDEST PUSH0 PUSH1 0x20 DUP3 ADD SWAP1 POP DUP2 DUP2 SUB PUSH0 DUP4 ADD MSTORE PUSH2 0x947 DUP2 DUP5 PUSH2 0x8F7 JUMP JUMPDEST SWAP1 POP SWAP3 SWAP2 POP POP JUMP JUMPDEST PUSH0 PUSH0 REVERT JUMPDEST PUSH0 DUP2 SWAP1 POP SWAP2 SWAP1 POP JUMP JUMPDEST PUSH2 0x965 DUP2 PUSH2 0x953 JUMP JUMPDEST DUP2 EQ PUSH2 0x96F JUMPI PUSH0 PUSH0 REVERT JUMPDEST POP JUMP JUMPDEST PUSH0 DUP2 CALLDATALOAD SWAP1 POP PUSH2 0x980 DUP2 PUSH2 0x95C JUMP JUMPDEST SWAP3 SWAP2 POP POP JUMP JUMPDEST PUSH0 PUSH1 0x20 DUP3 DUP5 SUB SLT ISZERO PUSH2 0x99B JUMPI PUSH2 0x99A PUSH2 0x94F JUMP JUMPDEST JUMPDEST PUSH0 PUSH2 0x9A8 DUP5 DUP3 DUP6 ADD PUSH2 0x972 JUMP JUMPDEST SWAP2 POP POP SWAP3 SWAP2 POP POP JUMP JUMPDEST PUSH0 PUSH20 0xFFFFFFFFFFFFFFFFFFFFFFFFFFFFFFFFFFFFFFFF DUP3 AND SWAP1 POP SWAP2 SWAP1 POP JUMP JUMPDEST PUSH0 PUSH2 0x9DA DUP3 PUSH2 0x9B1 JUMP JUMPDEST SWAP1 POP SWAP2 SWAP1 POP JUMP JUMPDEST PUSH2 0x9EA DUP2 PUSH2 0x9D0 JUMP JUMPDEST DUP3 MSTORE POP POP JUMP JUMPDEST PUSH0 PUSH1 0x20 DUP3 ADD SWAP1 POP PUSH2 0xA03 PUSH0 DUP4 ADD DUP5 PUSH2 0x9E1 JUMP JUMPDEST SWAP3 SWAP2 POP POP JUMP JUMPDEST PUSH2 0xA12 DUP2 PUSH2 0x9D0 JUMP JUMPDEST DUP2 EQ PUSH2 0xA1C JUMPI PUSH0 PUSH0 REVERT JUMPDEST POP JUMP JUMPDEST PUSH0 DUP2 CALLDATALOAD SWAP1 POP PUSH2 0xA2D DUP2 PUSH2 0xA09 JUMP JUMPDEST SWAP3 SWAP2 POP POP JUMP JUMPDEST PUSH0 PUSH1 0x20 DUP3 DUP5 SUB SLT ISZERO PUSH2 0xA48 JUMPI PUSH2 0xA47 PUSH2 0x94F JUMP JUMPDEST JUMPDEST PUSH0 PUSH2 0xA55 DUP5 DUP3 DUP6 ADD PUSH2 0xA1F JUMP JUMPDEST SWAP2 POP POP SWAP3 SWAP2 POP POP JUMP JUMPDEST PUSH2 0xA67 DUP2 PUSH2 0x953 JUMP JUMPDEST DUP3 MSTORE POP POP JUMP JUMPDEST PUSH0 PUSH1 0x20 DUP3 ADD SWAP1 POP PUSH2 0xA80 PUSH0 DUP4 ADD DUP5 PUSH2 0xA5E JUMP JUMPDEST SWAP3 SWAP2 POP POP JUMP JUMPDEST PUSH0 PUSH0 PUSH1 0x40 DUP4 DUP6 SUB SLT ISZERO PUSH2 0xA9C JUMPI PUSH2 0xA9B PUSH2 0x94F JUMP JUMPDEST JUMPDEST PUSH0 PUSH2 0xAA9 DUP6 DUP3 DUP7 ADD PUSH2 0xA1F JUMP JUMPDEST SWAP3 POP POP PUSH1 0x20 PUSH2 0xABA DUP6 DUP3 DUP7 ADD PUSH2 0x972 JUMP JUMPDEST SWAP2 POP POP SWAP3 POP SWAP3 SWAP1 POP JUMP JUMPDEST PUSH32 0x4E487B7100000000000000000000000000000000000000000000000000000000 PUSH0 MSTORE PUSH1 0x22 PUSH1 0x4 MSTORE PUSH1 0x24 PUSH0 REVERT JUMPDEST PUSH0 PUSH1 0x2 DUP3 DIV SWAP1 POP PUSH1 0x1 DUP3 AND DUP1 PUSH2 0xB08 JUMPI PUSH1 0x7F DUP3 AND SWAP2 POP JUMPDEST PUSH1 0x20 DUP3 LT DUP2 SUB PUSH2 0xB1B JUMPI PUSH2 0xB1A PUSH2 0xAC4 JUMP JUMPDEST JUMPDEST POP SWAP2 SWAP1 POP JUMP JUMPDEST PUSH32 0x4F6E6C7920746865206F776E65722063616E206275726E2074686520746F6B65 PUSH0 DUP3 ADD MSTORE PUSH32 0x6E00000000000000000000000000000000000000000000000000000000000000 PUSH1 0x20 DUP3 ADD MSTORE POP JUMP JUMPDEST PUSH0 PUSH2 0xB7B PUSH1 0x21 DUP4 PUSH2 0x8C9 JUMP JUMPDEST SWAP2 POP PUSH2 0xB86 DUP3 PUSH2 0xB21 JUMP JUMPDEST PUSH1 0x40 DUP3 ADD SWAP1 POP SWAP2 SWAP1 POP JUMP JUMPDEST PUSH0 PUSH1 0x20 DUP3 ADD SWAP1 POP DUP2 DUP2 SUB PUSH0 DUP4 ADD MSTORE PUSH2 0xBA8 DUP2 PUSH2 0xB6F JUMP JUMPDEST SWAP1 POP SWAP2 SWAP1 POP JUMP JUMPDEST PUSH32 0x4E487B7100000000000000000000000000000000000000000000000000000000 PUSH0 MSTORE PUSH1 0x11 PUSH1 0x4 MSTORE PUSH1 0x24 PUSH0 REVERT JUMPDEST PUSH0 PUSH2 0xBE6 DUP3 PUSH2 0x953 JUMP JUMPDEST SWAP2 POP PUSH0 DUP3 SUB PUSH2 0xBF8 JUMPI PUSH2 0xBF7 PUSH2 0xBAF JUMP JUMPDEST JUMPDEST PUSH1 0x1 DUP3 SUB SWAP1 POP SWAP2 SWAP1 POP JUMP JUMPDEST PUSH32 0x496E76616C696420616464726573730000000000000000000000000000000000 PUSH0 DUP3 ADD MSTORE POP JUMP JUMPDEST PUSH0 PUSH2 0xC37 PUSH1 0xF DUP4 PUSH2 0x8C9 JUMP JUMPDEST SWAP2 POP PUSH2 0xC42 DUP3 PUSH2 0xC03 JUMP JUMPDEST PUSH1 0x20 DUP3 ADD SWAP1 POP SWAP2 SWAP1 POP JUMP JUMPDEST PUSH0 PUSH1 0x20 DUP3 ADD SWAP1 POP DUP2 DUP2 SUB PUSH0 DUP4 ADD MSTORE PUSH2 0xC64 DUP2 PUSH2 0xC2B JUMP JUMPDEST SWAP1 POP SWAP2 SWAP1 POP JUMP JUMPDEST PUSH0 PUSH2 0xC75 DUP3 PUSH2 0x953 JUMP JUMPDEST SWAP2 POP PUSH32 0xFFFFFFFFFFFFFFFFFFFFFFFFFFFFFFFFFFFFFFFFFFFFFFFFFFFFFFFFFFFFFFFF DUP3 SUB PUSH2 0xCA7 JUMPI PUSH2 0xCA6 PUSH2 0xBAF JUMP JUMPDEST JUMPDEST PUSH1 0x1 DUP3 ADD SWAP1 POP SWAP2 SWAP1 POP JUMP JUMPDEST PUSH32 0x204F6E6C79206F776E65722063616E207472616E736665722074686520746F6B PUSH0 DUP3 ADD MSTORE PUSH32 0x656E000000000000000000000000000000000000000000000000000000000000 PUSH1 0x20 DUP3 ADD MSTORE POP JUMP JUMPDEST PUSH0 PUSH2 0xD0C PUSH1 0x22 DUP4 PUSH2 0x8C9 JUMP JUMPDEST SWAP2 POP PUSH2 0xD17 DUP3 PUSH2 0xCB2 JUMP JUMPDEST PUSH1 0x40 DUP3 ADD SWAP1 POP SWAP2 SWAP1 POP JUMP JUMPDEST PUSH0 PUSH1 0x20 DUP3 ADD SWAP1 POP DUP2 DUP2 SUB PUSH0 DUP4 ADD MSTORE PUSH2 0xD39 DUP2 PUSH2 0xD00 JUMP JUMPDEST SWAP1 POP SWAP2 SWAP1 POP JUMP INVALID LOG2 PUSH5 0x6970667358 0x22 SLT KECCAK256 BASEFEE 0xC6 SHL 0xDD LOG3 CREATE2 PUSH32 0xF6BAE77B927F16718D93B13A107FE51257614618933FD6F89964736F6C634300 ADDMOD SHR STOP CALLER "
				},
				"gasEstimates": {
					"creation": {
						"codeDepositCost": "689200",
						"executionCost": "infinite",
						"totalCost": "infinite"
					},
					"external": {
						"balanceOf(address)": "2829",
						"burn(uint256)": "infinite",
						"holderBalances(address)": "2846",
						"holders(uint256)": "2850",
						"mint(address)": "infinite",
						"name()": "infinite",
						"symbol()": "infinite",
						"transfer(address,uint256)": "infinite"
					}
				},
				"methodIdentifiers": {
					"balanceOf(address)": "70a08231",
					"burn(uint256)": "42966c68",
					"holderBalances(address)": "9ee946a5",
					"holders(uint256)": "2a11ced0",
					"mint(address)": "6a627842",
					"name()": "06fdde03",
					"symbol()": "95d89b41",
					"transfer(address,uint256)": "a9059cbb"
				}
			},
			"storageLayout": {
				"storage": [
					{
						"astId": 11,
						"contract": "Assignments/Lecture 7/ERC721/ERC721.sol:MockBaseNFTContract",
						"label": "_currentTokenID",
						"offset": 0,
						"slot": "0",
						"type": "t_uint256"
					},
					{
						"astId": 13,
						"contract": "Assignments/Lecture 7/ERC721/ERC721.sol:MockBaseNFTContract",
						"label": "name",
						"offset": 0,
						"slot": "1",
						"type": "t_string_storage"
					},
					{
						"astId": 15,
						"contract": "Assignments/Lecture 7/ERC721/ERC721.sol:MockBaseNFTContract",
						"label": "symbol",
						"offset": 0,
						"slot": "2",
						"type": "t_string_storage"
					},
					{
						"astId": 19,
						"contract": "Assignments/Lecture 7/ERC721/ERC721.sol:MockBaseNFTContract",
						"label": "holders",
						"offset": 0,
						"slot": "3",
						"type": "t_mapping(t_uint256,t_address)"
					},
					{
						"astId": 23,
						"contract": "Assignments/Lecture 7/ERC721/ERC721.sol:MockBaseNFTContract",
						"label": "holderBalances",
						"offset": 0,
						"slot": "4",
						"type": "t_mapping(t_address,t_uint256)"
					}
				],
				"types": {
					"t_address": {
						"encoding": "inplace",
						"label": "address",
						"numberOfBytes": "20"
					},
					"t_mapping(t_address,t_uint256)": {
						"encoding": "mapping",
						"key": "t_address",
						"label": "mapping(address => uint256)",
						"numberOfBytes": "32",
						"value": "t_uint256"
					},
					"t_mapping(t_uint256,t_address)": {
						"encoding": "mapping",
						"key": "t_uint256",
						"label": "mapping(uint256 => address)",
						"numberOfBytes": "32",
						"value": "t_address"
					},
					"t_string_storage": {
						"encoding": "bytes",
						"label": "string",
						"numberOfBytes": "32"
					},
					"t_uint256": {
						"encoding": "inplace",
						"label": "uint256",
						"numberOfBytes": "32"
					}
				}
			},
			"userdoc": {
				"kind": "user",
				"methods": {},
				"version": 1
			}
		}
	}
}