{
	"data": {
		"bytecode": {
			"linkReferences": {
				"Assignments/Lecture 8/PaymentLibrary.sol": {
					"PaymentLibrary": [
						{
							"length": 20,
							"start": 3036
						},
						{
							"length": 20,
							"start": 3251
						}
					]
				}
			},
			"object": "608060405234801561000f575f5ffd5b50604051611787380380611787833981810160405281019061003191906102d8565b8060648160ff161061006f576040517f2477bd5400000000000000000000000000000000000000000000000000000000815260040160405180910390fd5b8260015f6101000a81548173ffffffffffffffffffffffffffffffffffffffff021916908373ffffffffffffffffffffffffffffffffffffffff16021790555081600160146101000a81548160ff021916908360ff1602179055506100dc5f5f1b336100e560201b60201c565b50505050610316565b5f6100f683836101da60201b60201c565b6101d05760015f5f8581526020019081526020015f205f015f8473ffffffffffffffffffffffffffffffffffffffff1673ffffffffffffffffffffffffffffffffffffffff1681526020019081526020015f205f6101000a81548160ff02191690831515021790555061016d61023d60201b60201c565b73ffffffffffffffffffffffffffffffffffffffff168273ffffffffffffffffffffffffffffffffffffffff16847f2f8788117e7eff1d82e926ec794901d17c78024a50270940304540a733656f0d60405160405180910390a4600190506101d4565b5f90505b92915050565b5f5f5f8481526020019081526020015f205f015f8373ffffffffffffffffffffffffffffffffffffffff1673ffffffffffffffffffffffffffffffffffffffff1681526020019081526020015f205f9054906101000a900460ff16905092915050565b5f33905090565b5f5ffd5b5f73ffffffffffffffffffffffffffffffffffffffff82169050919050565b5f61027182610248565b9050919050565b61028181610267565b811461028b575f5ffd5b50565b5f8151905061029c81610278565b92915050565b5f60ff82169050919050565b6102b7816102a2565b81146102c1575f5ffd5b50565b5f815190506102d2816102ae565b92915050565b5f5f604083850312156102ee576102ed610244565b5b5f6102fb8582860161028e565b925050602061030c858286016102c4565b9150509250929050565b611464806103235f395ff3fe6080604052600436106100c1575f3560e01c806361d027b31161007e5780639290ed85116100585780639290ed851461026d578063a217fddf14610295578063bf643fc1146102bf578063d547741f146102db576100c1565b806361d027b3146101df5780637f51bb1f1461020957806391d1485414610231576100c1565b806301ffc9a7146100c5578063248a9ca3146101015780632f2ff15d1461013d57806336568abe146101655780634ba1b8411461018d5780635c73cb70146101b5575b5f5ffd5b3480156100d0575f5ffd5b506100eb60048036038101906100e69190610d55565b610303565b6040516100f89190610d9a565b60405180910390f35b34801561010c575f5ffd5b5061012760048036038101906101229190610de6565b61037c565b6040516101349190610e20565b60405180910390f35b348015610148575f5ffd5b50610163600480360381019061015e9190610e93565b610398565b005b348015610170575f5ffd5b5061018b60048036038101906101869190610e93565b6103ba565b005b348015610198575f5ffd5b506101b360048036038101906101ae9190610ed1565b610435565b005b3480156101c0575f5ffd5b506101c9610509565b6040516101d69190610f17565b60405180910390f35b3480156101ea575f5ffd5b506101f361051c565b6040516102009190610f50565b60405180910390f35b348015610214575f5ffd5b5061022f600480360381019061022a9190610f93565b610541565b005b34801561023c575f5ffd5b5061025760048036038101906102529190610e93565b610657565b6040516102649190610d9a565b60405180910390f35b348015610278575f5ffd5b50610293600480360381019061028e9190610fe8565b6106ba565b005b3480156102a0575f5ffd5b506102a961077a565b6040516102b69190610e20565b60405180910390f35b6102d960048036038101906102d49190610f93565b610780565b005b3480156102e6575f5ffd5b5061030160048036038101906102fc9190610e93565b610a33565b005b5f7f7965db0b000000000000000000000000000000000000000000000000000000007bffffffffffffffffffffffffffffffffffffffffffffffffffffffff1916827bffffffffffffffffffffffffffffffffffffffffffffffffffffffff19161480610375575061037482610a55565b5b9050919050565b5f5f5f8381526020019081526020015f20600101549050919050565b6103a18261037c565b6103aa81610abe565b6103b48383610ad2565b50505050565b6103c2610bbb565b73ffffffffffffffffffffffffffffffffffffffff168173ffffffffffffffffffffffffffffffffffffffff1614610426576040517f6697b23200000000000000000000000000000000000000000000000000000000815260040160405180910390fd5b6104308282610bc2565b505050565b805f73ffffffffffffffffffffffffffffffffffffffff168173ffffffffffffffffffffffffffffffffffffffff16036104a4576040517f08c379a000000000000000000000000000000000000000000000000000000000815260040161049b9061106d565b60405180910390fd5b6104ce7fe1dcbdb91df27212a29bc27177c840cf2f819ecf2187432e1fac86c2dd5dfca983610398565b7ffd3a9199660db8d99a17dd47150e567612d875fd80124e801ea961a1febc7f4f826040516104fd919061109a565b60405180910390a15050565b600160149054906101000a900460ff1681565b60015f9054906101000a900473ffffffffffffffffffffffffffffffffffffffff1681565b805f73ffffffffffffffffffffffffffffffffffffffff168173ffffffffffffffffffffffffffffffffffffffff16036105b0576040517f08c379a00000000000000000000000000000000000000000000000000000000081526004016105a79061106d565b60405180910390fd5b6105da7fe1dcbdb91df27212a29bc27177c840cf2f819ecf2187432e1fac86c2dd5dfca933610cab565b8160015f6101000a81548173ffffffffffffffffffffffffffffffffffffffff021916908373ffffffffffffffffffffffffffffffffffffffff1602179055507f430359a6d97ced2b6f93c77a91e7ce9dfd43252eb91e916adba170485cd8a6a4823360405161064b92919061110e565b60405180910390a15050565b5f5f5f8481526020019081526020015f205f015f8373ffffffffffffffffffffffffffffffffffffffff1673ffffffffffffffffffffffffffffffffffffffff1681526020019081526020015f205f9054906101000a900460ff16905092915050565b8060648160ff16106106f8576040517f2477bd5400000000000000000000000000000000000000000000000000000000815260040160405180910390fd5b6107227fe1dcbdb91df27212a29bc27177c840cf2f819ecf2187432e1fac86c2dd5dfca933610cab565b81600160146101000a81548160ff021916908360ff1602179055507fe743e71608078e814b00039d18ee2b5cb2c9e4e0c2b691e6e126e9590d8b38de823360405161076e929190611135565b60405180910390a15050565b5f5f1b81565b343373ffffffffffffffffffffffffffffffffffffffff163110156107d1576040517f7c1b595700000000000000000000000000000000000000000000000000000000815260040160405180910390fd5b5f3403610813576040517f08c379a000000000000000000000000000000000000000000000000000000000815260040161080a906111a6565b60405180910390fd5b5f3490505f6064600160149054906101000a900460ff1660ff168361083891906111fa565b6108429190611268565b90505f81836108519190611298565b905082818361086091906112cb565b146108a0576040517f08c379a00000000000000000000000000000000000000000000000000000000081526004016108979061136e565b60405180910390fd5b8373ffffffffffffffffffffffffffffffffffffffff1673__$a532b01dbac388f82d9ee0be7d26f22906$__637b1a49099091836040518363ffffffff1660e01b81526004016108f19291906113aa565b5f6040518083038186803b158015610907575f5ffd5b505af4158015610919573d5f5f3e3d5ffd5b505050507f1b60136602f3dfa1ab8fe66d36438f30aa19cff8a3be4a07020fd1f56a6a880f848260405161094e9291906113e0565b60405180910390a160015f9054906101000a900473ffffffffffffffffffffffffffffffffffffffff1673ffffffffffffffffffffffffffffffffffffffff1673__$a532b01dbac388f82d9ee0be7d26f22906$__637b1a49099091846040518363ffffffff1660e01b81526004016109c89291906113aa565b5f6040518083038186803b1580156109de575f5ffd5b505af41580156109f0573d5f5f3e3d5ffd5b505050507fb31fd285a960185c64dbabafddabb818cf217408117e4d2e69155930ee6544068483604051610a259291906113e0565b60405180910390a150505050565b610a3c8261037c565b610a4581610abe565b610a4f8383610bc2565b50505050565b5f7f01ffc9a7000000000000000000000000000000000000000000000000000000007bffffffffffffffffffffffffffffffffffffffffffffffffffffffff1916827bffffffffffffffffffffffffffffffffffffffffffffffffffffffff1916149050919050565b610acf81610aca610bbb565b610cab565b50565b5f610add8383610657565b610bb15760015f5f8581526020019081526020015f205f015f8473ffffffffffffffffffffffffffffffffffffffff1673ffffffffffffffffffffffffffffffffffffffff1681526020019081526020015f205f6101000a81548160ff021916908315150217905550610b4e610bbb565b73ffffffffffffffffffffffffffffffffffffffff168273ffffffffffffffffffffffffffffffffffffffff16847f2f8788117e7eff1d82e926ec794901d17c78024a50270940304540a733656f0d60405160405180910390a460019050610bb5565b5f90505b92915050565b5f33905090565b5f610bcd8383610657565b15610ca1575f5f5f8581526020019081526020015f205f015f8473ffffffffffffffffffffffffffffffffffffffff1673ffffffffffffffffffffffffffffffffffffffff1681526020019081526020015f205f6101000a81548160ff021916908315150217905550610c3e610bbb565b73ffffffffffffffffffffffffffffffffffffffff168273ffffffffffffffffffffffffffffffffffffffff16847ff6391f5c32d9c69d2a47ea670b442974b53935d1edc7fd64eb21e047a839171b60405160405180910390a460019050610ca5565b5f90505b92915050565b610cb58282610657565b610cf85780826040517fe2517d3f000000000000000000000000000000000000000000000000000000008152600401610cef929190611407565b60405180910390fd5b5050565b5f5ffd5b5f7fffffffff0000000000000000000000000000000000000000000000000000000082169050919050565b610d3481610d00565b8114610d3e575f5ffd5b50565b5f81359050610d4f81610d2b565b92915050565b5f60208284031215610d6a57610d69610cfc565b5b5f610d7784828501610d41565b91505092915050565b5f8115159050919050565b610d9481610d80565b82525050565b5f602082019050610dad5f830184610d8b565b92915050565b5f819050919050565b610dc581610db3565b8114610dcf575f5ffd5b50565b5f81359050610de081610dbc565b92915050565b5f60208284031215610dfb57610dfa610cfc565b5b5f610e0884828501610dd2565b91505092915050565b610e1a81610db3565b82525050565b5f602082019050610e335f830184610e11565b92915050565b5f73ffffffffffffffffffffffffffffffffffffffff82169050919050565b5f610e6282610e39565b9050919050565b610e7281610e58565b8114610e7c575f5ffd5b50565b5f81359050610e8d81610e69565b92915050565b5f5f60408385031215610ea957610ea8610cfc565b5b5f610eb685828601610dd2565b9250506020610ec785828601610e7f565b9150509250929050565b5f60208284031215610ee657610ee5610cfc565b5b5f610ef384828501610e7f565b91505092915050565b5f60ff82169050919050565b610f1181610efc565b82525050565b5f602082019050610f2a5f830184610f08565b92915050565b5f610f3a82610e39565b9050919050565b610f4a81610f30565b82525050565b5f602082019050610f635f830184610f41565b92915050565b610f7281610f30565b8114610f7c575f5ffd5b50565b5f81359050610f8d81610f69565b92915050565b5f60208284031215610fa857610fa7610cfc565b5b5f610fb584828501610f7f565b91505092915050565b610fc781610efc565b8114610fd1575f5ffd5b50565b5f81359050610fe281610fbe565b92915050565b5f60208284031215610ffd57610ffc610cfc565b5b5f61100a84828501610fd4565b91505092915050565b5f82825260208201905092915050565b7f496e76616c6964207461726765742061646472657373000000000000000000005f82015250565b5f611057601683611013565b915061106282611023565b602082019050919050565b5f6020820190508181035f8301526110848161104b565b9050919050565b61109481610e58565b82525050565b5f6020820190506110ad5f83018461108b565b92915050565b5f819050919050565b5f6110d66110d16110cc84610e39565b6110b3565b610e39565b9050919050565b5f6110e7826110bc565b9050919050565b5f6110f8826110dd565b9050919050565b611108816110ee565b82525050565b5f6040820190506111215f8301856110ff565b61112e602083018461108b565b9392505050565b5f6040820190506111485f830185610f08565b611155602083018461108b565b9392505050565b7f4e6f7420656e6f7567682066756e64732073656e7421000000000000000000005f82015250565b5f611190601683611013565b915061119b8261115c565b602082019050919050565b5f6020820190508181035f8301526111bd81611184565b9050919050565b5f819050919050565b7f4e487b71000000000000000000000000000000000000000000000000000000005f52601160045260245ffd5b5f611204826111c4565b915061120f836111c4565b925082820261121d816111c4565b91508282048414831517611234576112336111cd565b5b5092915050565b7f4e487b71000000000000000000000000000000000000000000000000000000005f52601260045260245ffd5b5f611272826111c4565b915061127d836111c4565b92508261128d5761128c61123b565b5b828204905092915050565b5f6112a2826111c4565b91506112ad836111c4565b92508282039050818111156112c5576112c46111cd565b5b92915050565b5f6112d5826111c4565b91506112e0836111c4565b92508282019050808211156112f8576112f76111cd565b5b92915050565b7f436f756c64206e6f742070726f6363657373207472616e7366657220616d6f755f8201527f6e74000000000000000000000000000000000000000000000000000000000000602082015250565b5f611358602283611013565b9150611363826112fe565b604082019050919050565b5f6020820190508181035f8301526113858161134c565b9050919050565b61139581610e58565b82525050565b6113a4816111c4565b82525050565b5f6040820190506113bd5f83018561138c565b6113ca602083018461139b565b9392505050565b6113da816111c4565b82525050565b5f6040820190506113f35f8301856110ff565b61140060208301846113d1565b9392505050565b5f60408201905061141a5f83018561108b565b6114276020830184610e11565b939250505056fea2646970667358221220ee4a46075b12b8cf5b0b21e6c62c3037238652ad6238a90a7a9b8a335eb6514a64736f6c634300081c0033",
			"opcodes": "PUSH1 0x80 PUSH1 0x40 MSTORE CALLVALUE DUP1 ISZERO PUSH2 0xF JUMPI PUSH0 PUSH0 REVERT JUMPDEST POP PUSH1 0x40 MLOAD PUSH2 0x1787 CODESIZE SUB DUP1 PUSH2 0x1787 DUP4 CODECOPY DUP2 DUP2 ADD PUSH1 0x40 MSTORE DUP2 ADD SWAP1 PUSH2 0x31 SWAP2 SWAP1 PUSH2 0x2D8 JUMP JUMPDEST DUP1 PUSH1 0x64 DUP2 PUSH1 0xFF AND LT PUSH2 0x6F JUMPI PUSH1 0x40 MLOAD PUSH32 0x2477BD5400000000000000000000000000000000000000000000000000000000 DUP2 MSTORE PUSH1 0x4 ADD PUSH1 0x40 MLOAD DUP1 SWAP2 SUB SWAP1 REVERT JUMPDEST DUP3 PUSH1 0x1 PUSH0 PUSH2 0x100 EXP DUP2 SLOAD DUP2 PUSH20 0xFFFFFFFFFFFFFFFFFFFFFFFFFFFFFFFFFFFFFFFF MUL NOT AND SWAP1 DUP4 PUSH20 0xFFFFFFFFFFFFFFFFFFFFFFFFFFFFFFFFFFFFFFFF AND MUL OR SWAP1 SSTORE POP DUP2 PUSH1 0x1 PUSH1 0x14 PUSH2 0x100 EXP DUP2 SLOAD DUP2 PUSH1 0xFF MUL NOT AND SWAP1 DUP4 PUSH1 0xFF AND MUL OR SWAP1 SSTORE POP PUSH2 0xDC PUSH0 PUSH0 SHL CALLER PUSH2 0xE5 PUSH1 0x20 SHL PUSH1 0x20 SHR JUMP JUMPDEST POP POP POP POP PUSH2 0x316 JUMP JUMPDEST PUSH0 PUSH2 0xF6 DUP4 DUP4 PUSH2 0x1DA PUSH1 0x20 SHL PUSH1 0x20 SHR JUMP JUMPDEST PUSH2 0x1D0 JUMPI PUSH1 0x1 PUSH0 PUSH0 DUP6 DUP2 MSTORE PUSH1 0x20 ADD SWAP1 DUP2 MSTORE PUSH1 0x20 ADD PUSH0 KECCAK256 PUSH0 ADD PUSH0 DUP5 PUSH20 0xFFFFFFFFFFFFFFFFFFFFFFFFFFFFFFFFFFFFFFFF AND PUSH20 0xFFFFFFFFFFFFFFFFFFFFFFFFFFFFFFFFFFFFFFFF AND DUP2 MSTORE PUSH1 0x20 ADD SWAP1 DUP2 MSTORE PUSH1 0x20 ADD PUSH0 KECCAK256 PUSH0 PUSH2 0x100 EXP DUP2 SLOAD DUP2 PUSH1 0xFF MUL NOT AND SWAP1 DUP4 ISZERO ISZERO MUL OR SWAP1 SSTORE POP PUSH2 0x16D PUSH2 0x23D PUSH1 0x20 SHL PUSH1 0x20 SHR JUMP JUMPDEST PUSH20 0xFFFFFFFFFFFFFFFFFFFFFFFFFFFFFFFFFFFFFFFF AND DUP3 PUSH20 0xFFFFFFFFFFFFFFFFFFFFFFFFFFFFFFFFFFFFFFFF AND DUP5 PUSH32 0x2F8788117E7EFF1D82E926EC794901D17C78024A50270940304540A733656F0D PUSH1 0x40 MLOAD PUSH1 0x40 MLOAD DUP1 SWAP2 SUB SWAP1 LOG4 PUSH1 0x1 SWAP1 POP PUSH2 0x1D4 JUMP JUMPDEST PUSH0 SWAP1 POP JUMPDEST SWAP3 SWAP2 POP POP JUMP JUMPDEST PUSH0 PUSH0 PUSH0 DUP5 DUP2 MSTORE PUSH1 0x20 ADD SWAP1 DUP2 MSTORE PUSH1 0x20 ADD PUSH0 KECCAK256 PUSH0 ADD PUSH0 DUP4 PUSH20 0xFFFFFFFFFFFFFFFFFFFFFFFFFFFFFFFFFFFFFFFF AND PUSH20 0xFFFFFFFFFFFFFFFFFFFFFFFFFFFFFFFFFFFFFFFF AND DUP2 MSTORE PUSH1 0x20 ADD SWAP1 DUP2 MSTORE PUSH1 0x20 ADD PUSH0 KECCAK256 PUSH0 SWAP1 SLOAD SWAP1 PUSH2 0x100 EXP SWAP1 DIV PUSH1 0xFF AND SWAP1 POP SWAP3 SWAP2 POP POP JUMP JUMPDEST PUSH0 CALLER SWAP1 POP SWAP1 JUMP JUMPDEST PUSH0 PUSH0 REVERT JUMPDEST PUSH0 PUSH20 0xFFFFFFFFFFFFFFFFFFFFFFFFFFFFFFFFFFFFFFFF DUP3 AND SWAP1 POP SWAP2 SWAP1 POP JUMP JUMPDEST PUSH0 PUSH2 0x271 DUP3 PUSH2 0x248 JUMP JUMPDEST SWAP1 POP SWAP2 SWAP1 POP JUMP JUMPDEST PUSH2 0x281 DUP2 PUSH2 0x267 JUMP JUMPDEST DUP2 EQ PUSH2 0x28B JUMPI PUSH0 PUSH0 REVERT JUMPDEST POP JUMP JUMPDEST PUSH0 DUP2 MLOAD SWAP1 POP PUSH2 0x29C DUP2 PUSH2 0x278 JUMP JUMPDEST SWAP3 SWAP2 POP POP JUMP JUMPDEST PUSH0 PUSH1 0xFF DUP3 AND SWAP1 POP SWAP2 SWAP1 POP JUMP JUMPDEST PUSH2 0x2B7 DUP2 PUSH2 0x2A2 JUMP JUMPDEST DUP2 EQ PUSH2 0x2C1 JUMPI PUSH0 PUSH0 REVERT JUMPDEST POP JUMP JUMPDEST PUSH0 DUP2 MLOAD SWAP1 POP PUSH2 0x2D2 DUP2 PUSH2 0x2AE JUMP JUMPDEST SWAP3 SWAP2 POP POP JUMP JUMPDEST PUSH0 PUSH0 PUSH1 0x40 DUP4 DUP6 SUB SLT ISZERO PUSH2 0x2EE JUMPI PUSH2 0x2ED PUSH2 0x244 JUMP JUMPDEST JUMPDEST PUSH0 PUSH2 0x2FB DUP6 DUP3 DUP7 ADD PUSH2 0x28E JUMP JUMPDEST SWAP3 POP POP PUSH1 0x20 PUSH2 0x30C DUP6 DUP3 DUP7 ADD PUSH2 0x2C4 JUMP JUMPDEST SWAP2 POP POP SWAP3 POP SWAP3 SWAP1 POP JUMP JUMPDEST PUSH2 0x1464 DUP1 PUSH2 0x323 PUSH0 CODECOPY PUSH0 RETURN INVALID PUSH1 0x80 PUSH1 0x40 MSTORE PUSH1 0x4 CALLDATASIZE LT PUSH2 0xC1 JUMPI PUSH0 CALLDATALOAD PUSH1 0xE0 SHR DUP1 PUSH4 0x61D027B3 GT PUSH2 0x7E JUMPI DUP1 PUSH4 0x9290ED85 GT PUSH2 0x58 JUMPI DUP1 PUSH4 0x9290ED85 EQ PUSH2 0x26D JUMPI DUP1 PUSH4 0xA217FDDF EQ PUSH2 0x295 JUMPI DUP1 PUSH4 0xBF643FC1 EQ PUSH2 0x2BF JUMPI DUP1 PUSH4 0xD547741F EQ PUSH2 0x2DB JUMPI PUSH2 0xC1 JUMP JUMPDEST DUP1 PUSH4 0x61D027B3 EQ PUSH2 0x1DF JUMPI DUP1 PUSH4 0x7F51BB1F EQ PUSH2 0x209 JUMPI DUP1 PUSH4 0x91D14854 EQ PUSH2 0x231 JUMPI PUSH2 0xC1 JUMP JUMPDEST DUP1 PUSH4 0x1FFC9A7 EQ PUSH2 0xC5 JUMPI DUP1 PUSH4 0x248A9CA3 EQ PUSH2 0x101 JUMPI DUP1 PUSH4 0x2F2FF15D EQ PUSH2 0x13D JUMPI DUP1 PUSH4 0x36568ABE EQ PUSH2 0x165 JUMPI DUP1 PUSH4 0x4BA1B841 EQ PUSH2 0x18D JUMPI DUP1 PUSH4 0x5C73CB70 EQ PUSH2 0x1B5 JUMPI JUMPDEST PUSH0 PUSH0 REVERT JUMPDEST CALLVALUE DUP1 ISZERO PUSH2 0xD0 JUMPI PUSH0 PUSH0 REVERT JUMPDEST POP PUSH2 0xEB PUSH1 0x4 DUP1 CALLDATASIZE SUB DUP2 ADD SWAP1 PUSH2 0xE6 SWAP2 SWAP1 PUSH2 0xD55 JUMP JUMPDEST PUSH2 0x303 JUMP JUMPDEST PUSH1 0x40 MLOAD PUSH2 0xF8 SWAP2 SWAP1 PUSH2 0xD9A JUMP JUMPDEST PUSH1 0x40 MLOAD DUP1 SWAP2 SUB SWAP1 RETURN JUMPDEST CALLVALUE DUP1 ISZERO PUSH2 0x10C JUMPI PUSH0 PUSH0 REVERT JUMPDEST POP PUSH2 0x127 PUSH1 0x4 DUP1 CALLDATASIZE SUB DUP2 ADD SWAP1 PUSH2 0x122 SWAP2 SWAP1 PUSH2 0xDE6 JUMP JUMPDEST PUSH2 0x37C JUMP JUMPDEST PUSH1 0x40 MLOAD PUSH2 0x134 SWAP2 SWAP1 PUSH2 0xE20 JUMP JUMPDEST PUSH1 0x40 MLOAD DUP1 SWAP2 SUB SWAP1 RETURN JUMPDEST CALLVALUE DUP1 ISZERO PUSH2 0x148 JUMPI PUSH0 PUSH0 REVERT JUMPDEST POP PUSH2 0x163 PUSH1 0x4 DUP1 CALLDATASIZE SUB DUP2 ADD SWAP1 PUSH2 0x15E SWAP2 SWAP1 PUSH2 0xE93 JUMP JUMPDEST PUSH2 0x398 JUMP JUMPDEST STOP JUMPDEST CALLVALUE DUP1 ISZERO PUSH2 0x170 JUMPI PUSH0 PUSH0 REVERT JUMPDEST POP PUSH2 0x18B PUSH1 0x4 DUP1 CALLDATASIZE SUB DUP2 ADD SWAP1 PUSH2 0x186 SWAP2 SWAP1 PUSH2 0xE93 JUMP JUMPDEST PUSH2 0x3BA JUMP JUMPDEST STOP JUMPDEST CALLVALUE DUP1 ISZERO PUSH2 0x198 JUMPI PUSH0 PUSH0 REVERT JUMPDEST POP PUSH2 0x1B3 PUSH1 0x4 DUP1 CALLDATASIZE SUB DUP2 ADD SWAP1 PUSH2 0x1AE SWAP2 SWAP1 PUSH2 0xED1 JUMP JUMPDEST PUSH2 0x435 JUMP JUMPDEST STOP JUMPDEST CALLVALUE DUP1 ISZERO PUSH2 0x1C0 JUMPI PUSH0 PUSH0 REVERT JUMPDEST POP PUSH2 0x1C9 PUSH2 0x509 JUMP JUMPDEST PUSH1 0x40 MLOAD PUSH2 0x1D6 SWAP2 SWAP1 PUSH2 0xF17 JUMP JUMPDEST PUSH1 0x40 MLOAD DUP1 SWAP2 SUB SWAP1 RETURN JUMPDEST CALLVALUE DUP1 ISZERO PUSH2 0x1EA JUMPI PUSH0 PUSH0 REVERT JUMPDEST POP PUSH2 0x1F3 PUSH2 0x51C JUMP JUMPDEST PUSH1 0x40 MLOAD PUSH2 0x200 SWAP2 SWAP1 PUSH2 0xF50 JUMP JUMPDEST PUSH1 0x40 MLOAD DUP1 SWAP2 SUB SWAP1 RETURN JUMPDEST CALLVALUE DUP1 ISZERO PUSH2 0x214 JUMPI PUSH0 PUSH0 REVERT JUMPDEST POP PUSH2 0x22F PUSH1 0x4 DUP1 CALLDATASIZE SUB DUP2 ADD SWAP1 PUSH2 0x22A SWAP2 SWAP1 PUSH2 0xF93 JUMP JUMPDEST PUSH2 0x541 JUMP JUMPDEST STOP JUMPDEST CALLVALUE DUP1 ISZERO PUSH2 0x23C JUMPI PUSH0 PUSH0 REVERT JUMPDEST POP PUSH2 0x257 PUSH1 0x4 DUP1 CALLDATASIZE SUB DUP2 ADD SWAP1 PUSH2 0x252 SWAP2 SWAP1 PUSH2 0xE93 JUMP JUMPDEST PUSH2 0x657 JUMP JUMPDEST PUSH1 0x40 MLOAD PUSH2 0x264 SWAP2 SWAP1 PUSH2 0xD9A JUMP JUMPDEST PUSH1 0x40 MLOAD DUP1 SWAP2 SUB SWAP1 RETURN JUMPDEST CALLVALUE DUP1 ISZERO PUSH2 0x278 JUMPI PUSH0 PUSH0 REVERT JUMPDEST POP PUSH2 0x293 PUSH1 0x4 DUP1 CALLDATASIZE SUB DUP2 ADD SWAP1 PUSH2 0x28E SWAP2 SWAP1 PUSH2 0xFE8 JUMP JUMPDEST PUSH2 0x6BA JUMP JUMPDEST STOP JUMPDEST CALLVALUE DUP1 ISZERO PUSH2 0x2A0 JUMPI PUSH0 PUSH0 REVERT JUMPDEST POP PUSH2 0x2A9 PUSH2 0x77A JUMP JUMPDEST PUSH1 0x40 MLOAD PUSH2 0x2B6 SWAP2 SWAP1 PUSH2 0xE20 JUMP JUMPDEST PUSH1 0x40 MLOAD DUP1 SWAP2 SUB SWAP1 RETURN JUMPDEST PUSH2 0x2D9 PUSH1 0x4 DUP1 CALLDATASIZE SUB DUP2 ADD SWAP1 PUSH2 0x2D4 SWAP2 SWAP1 PUSH2 0xF93 JUMP JUMPDEST PUSH2 0x780 JUMP JUMPDEST STOP JUMPDEST CALLVALUE DUP1 ISZERO PUSH2 0x2E6 JUMPI PUSH0 PUSH0 REVERT JUMPDEST POP PUSH2 0x301 PUSH1 0x4 DUP1 CALLDATASIZE SUB DUP2 ADD SWAP1 PUSH2 0x2FC SWAP2 SWAP1 PUSH2 0xE93 JUMP JUMPDEST PUSH2 0xA33 JUMP JUMPDEST STOP JUMPDEST PUSH0 PUSH32 0x7965DB0B00000000000000000000000000000000000000000000000000000000 PUSH28 0xFFFFFFFFFFFFFFFFFFFFFFFFFFFFFFFFFFFFFFFFFFFFFFFFFFFFFFFF NOT AND DUP3 PUSH28 0xFFFFFFFFFFFFFFFFFFFFFFFFFFFFFFFFFFFFFFFFFFFFFFFFFFFFFFFF NOT AND EQ DUP1 PUSH2 0x375 JUMPI POP PUSH2 0x374 DUP3 PUSH2 0xA55 JUMP JUMPDEST JUMPDEST SWAP1 POP SWAP2 SWAP1 POP JUMP JUMPDEST PUSH0 PUSH0 PUSH0 DUP4 DUP2 MSTORE PUSH1 0x20 ADD SWAP1 DUP2 MSTORE PUSH1 0x20 ADD PUSH0 KECCAK256 PUSH1 0x1 ADD SLOAD SWAP1 POP SWAP2 SWAP1 POP JUMP JUMPDEST PUSH2 0x3A1 DUP3 PUSH2 0x37C JUMP JUMPDEST PUSH2 0x3AA DUP2 PUSH2 0xABE JUMP JUMPDEST PUSH2 0x3B4 DUP4 DUP4 PUSH2 0xAD2 JUMP JUMPDEST POP POP POP POP JUMP JUMPDEST PUSH2 0x3C2 PUSH2 0xBBB JUMP JUMPDEST PUSH20 0xFFFFFFFFFFFFFFFFFFFFFFFFFFFFFFFFFFFFFFFF AND DUP2 PUSH20 0xFFFFFFFFFFFFFFFFFFFFFFFFFFFFFFFFFFFFFFFF AND EQ PUSH2 0x426 JUMPI PUSH1 0x40 MLOAD PUSH32 0x6697B23200000000000000000000000000000000000000000000000000000000 DUP2 MSTORE PUSH1 0x4 ADD PUSH1 0x40 MLOAD DUP1 SWAP2 SUB SWAP1 REVERT JUMPDEST PUSH2 0x430 DUP3 DUP3 PUSH2 0xBC2 JUMP JUMPDEST POP POP POP JUMP JUMPDEST DUP1 PUSH0 PUSH20 0xFFFFFFFFFFFFFFFFFFFFFFFFFFFFFFFFFFFFFFFF AND DUP2 PUSH20 0xFFFFFFFFFFFFFFFFFFFFFFFFFFFFFFFFFFFFFFFF AND SUB PUSH2 0x4A4 JUMPI PUSH1 0x40 MLOAD PUSH32 0x8C379A000000000000000000000000000000000000000000000000000000000 DUP2 MSTORE PUSH1 0x4 ADD PUSH2 0x49B SWAP1 PUSH2 0x106D JUMP JUMPDEST PUSH1 0x40 MLOAD DUP1 SWAP2 SUB SWAP1 REVERT JUMPDEST PUSH2 0x4CE PUSH32 0xE1DCBDB91DF27212A29BC27177C840CF2F819ECF2187432E1FAC86C2DD5DFCA9 DUP4 PUSH2 0x398 JUMP JUMPDEST PUSH32 0xFD3A9199660DB8D99A17DD47150E567612D875FD80124E801EA961A1FEBC7F4F DUP3 PUSH1 0x40 MLOAD PUSH2 0x4FD SWAP2 SWAP1 PUSH2 0x109A JUMP JUMPDEST PUSH1 0x40 MLOAD DUP1 SWAP2 SUB SWAP1 LOG1 POP POP JUMP JUMPDEST PUSH1 0x1 PUSH1 0x14 SWAP1 SLOAD SWAP1 PUSH2 0x100 EXP SWAP1 DIV PUSH1 0xFF AND DUP2 JUMP JUMPDEST PUSH1 0x1 PUSH0 SWAP1 SLOAD SWAP1 PUSH2 0x100 EXP SWAP1 DIV PUSH20 0xFFFFFFFFFFFFFFFFFFFFFFFFFFFFFFFFFFFFFFFF AND DUP2 JUMP JUMPDEST DUP1 PUSH0 PUSH20 0xFFFFFFFFFFFFFFFFFFFFFFFFFFFFFFFFFFFFFFFF AND DUP2 PUSH20 0xFFFFFFFFFFFFFFFFFFFFFFFFFFFFFFFFFFFFFFFF AND SUB PUSH2 0x5B0 JUMPI PUSH1 0x40 MLOAD PUSH32 0x8C379A000000000000000000000000000000000000000000000000000000000 DUP2 MSTORE PUSH1 0x4 ADD PUSH2 0x5A7 SWAP1 PUSH2 0x106D JUMP JUMPDEST PUSH1 0x40 MLOAD DUP1 SWAP2 SUB SWAP1 REVERT JUMPDEST PUSH2 0x5DA PUSH32 0xE1DCBDB91DF27212A29BC27177C840CF2F819ECF2187432E1FAC86C2DD5DFCA9 CALLER PUSH2 0xCAB JUMP JUMPDEST DUP2 PUSH1 0x1 PUSH0 PUSH2 0x100 EXP DUP2 SLOAD DUP2 PUSH20 0xFFFFFFFFFFFFFFFFFFFFFFFFFFFFFFFFFFFFFFFF MUL NOT AND SWAP1 DUP4 PUSH20 0xFFFFFFFFFFFFFFFFFFFFFFFFFFFFFFFFFFFFFFFF AND MUL OR SWAP1 SSTORE POP PUSH32 0x430359A6D97CED2B6F93C77A91E7CE9DFD43252EB91E916ADBA170485CD8A6A4 DUP3 CALLER PUSH1 0x40 MLOAD PUSH2 0x64B SWAP3 SWAP2 SWAP1 PUSH2 0x110E JUMP JUMPDEST PUSH1 0x40 MLOAD DUP1 SWAP2 SUB SWAP1 LOG1 POP POP JUMP JUMPDEST PUSH0 PUSH0 PUSH0 DUP5 DUP2 MSTORE PUSH1 0x20 ADD SWAP1 DUP2 MSTORE PUSH1 0x20 ADD PUSH0 KECCAK256 PUSH0 ADD PUSH0 DUP4 PUSH20 0xFFFFFFFFFFFFFFFFFFFFFFFFFFFFFFFFFFFFFFFF AND PUSH20 0xFFFFFFFFFFFFFFFFFFFFFFFFFFFFFFFFFFFFFFFF AND DUP2 MSTORE PUSH1 0x20 ADD SWAP1 DUP2 MSTORE PUSH1 0x20 ADD PUSH0 KECCAK256 PUSH0 SWAP1 SLOAD SWAP1 PUSH2 0x100 EXP SWAP1 DIV PUSH1 0xFF AND SWAP1 POP SWAP3 SWAP2 POP POP JUMP JUMPDEST DUP1 PUSH1 0x64 DUP2 PUSH1 0xFF AND LT PUSH2 0x6F8 JUMPI PUSH1 0x40 MLOAD PUSH32 0x2477BD5400000000000000000000000000000000000000000000000000000000 DUP2 MSTORE PUSH1 0x4 ADD PUSH1 0x40 MLOAD DUP1 SWAP2 SUB SWAP1 REVERT JUMPDEST PUSH2 0x722 PUSH32 0xE1DCBDB91DF27212A29BC27177C840CF2F819ECF2187432E1FAC86C2DD5DFCA9 CALLER PUSH2 0xCAB JUMP JUMPDEST DUP2 PUSH1 0x1 PUSH1 0x14 PUSH2 0x100 EXP DUP2 SLOAD DUP2 PUSH1 0xFF MUL NOT AND SWAP1 DUP4 PUSH1 0xFF AND MUL OR SWAP1 SSTORE POP PUSH32 0xE743E71608078E814B00039D18EE2B5CB2C9E4E0C2B691E6E126E9590D8B38DE DUP3 CALLER PUSH1 0x40 MLOAD PUSH2 0x76E SWAP3 SWAP2 SWAP1 PUSH2 0x1135 JUMP JUMPDEST PUSH1 0x40 MLOAD DUP1 SWAP2 SUB SWAP1 LOG1 POP POP JUMP JUMPDEST PUSH0 PUSH0 SHL DUP2 JUMP JUMPDEST CALLVALUE CALLER PUSH20 0xFFFFFFFFFFFFFFFFFFFFFFFFFFFFFFFFFFFFFFFF AND BALANCE LT ISZERO PUSH2 0x7D1 JUMPI PUSH1 0x40 MLOAD PUSH32 0x7C1B595700000000000000000000000000000000000000000000000000000000 DUP2 MSTORE PUSH1 0x4 ADD PUSH1 0x40 MLOAD DUP1 SWAP2 SUB SWAP1 REVERT JUMPDEST PUSH0 CALLVALUE SUB PUSH2 0x813 JUMPI PUSH1 0x40 MLOAD PUSH32 0x8C379A000000000000000000000000000000000000000000000000000000000 DUP2 MSTORE PUSH1 0x4 ADD PUSH2 0x80A SWAP1 PUSH2 0x11A6 JUMP JUMPDEST PUSH1 0x40 MLOAD DUP1 SWAP2 SUB SWAP1 REVERT JUMPDEST PUSH0 CALLVALUE SWAP1 POP PUSH0 PUSH1 0x64 PUSH1 0x1 PUSH1 0x14 SWAP1 SLOAD SWAP1 PUSH2 0x100 EXP SWAP1 DIV PUSH1 0xFF AND PUSH1 0xFF AND DUP4 PUSH2 0x838 SWAP2 SWAP1 PUSH2 0x11FA JUMP JUMPDEST PUSH2 0x842 SWAP2 SWAP1 PUSH2 0x1268 JUMP JUMPDEST SWAP1 POP PUSH0 DUP2 DUP4 PUSH2 0x851 SWAP2 SWAP1 PUSH2 0x1298 JUMP JUMPDEST SWAP1 POP DUP3 DUP2 DUP4 PUSH2 0x860 SWAP2 SWAP1 PUSH2 0x12CB JUMP JUMPDEST EQ PUSH2 0x8A0 JUMPI PUSH1 0x40 MLOAD PUSH32 0x8C379A000000000000000000000000000000000000000000000000000000000 DUP2 MSTORE PUSH1 0x4 ADD PUSH2 0x897 SWAP1 PUSH2 0x136E JUMP JUMPDEST PUSH1 0x40 MLOAD DUP1 SWAP2 SUB SWAP1 REVERT JUMPDEST DUP4 PUSH20 0xFFFFFFFFFFFFFFFFFFFFFFFFFFFFFFFFFFFFFFFF AND PUSH20 0x0 PUSH4 0x7B1A4909 SWAP1 SWAP2 DUP4 PUSH1 0x40 MLOAD DUP4 PUSH4 0xFFFFFFFF AND PUSH1 0xE0 SHL DUP2 MSTORE PUSH1 0x4 ADD PUSH2 0x8F1 SWAP3 SWAP2 SWAP1 PUSH2 0x13AA JUMP JUMPDEST PUSH0 PUSH1 0x40 MLOAD DUP1 DUP4 SUB DUP2 DUP7 DUP1 EXTCODESIZE ISZERO DUP1 ISZERO PUSH2 0x907 JUMPI PUSH0 PUSH0 REVERT JUMPDEST POP GAS DELEGATECALL ISZERO DUP1 ISZERO PUSH2 0x919 JUMPI RETURNDATASIZE PUSH0 PUSH0 RETURNDATACOPY RETURNDATASIZE PUSH0 REVERT JUMPDEST POP POP POP POP PUSH32 0x1B60136602F3DFA1AB8FE66D36438F30AA19CFF8A3BE4A07020FD1F56A6A880F DUP5 DUP3 PUSH1 0x40 MLOAD PUSH2 0x94E SWAP3 SWAP2 SWAP1 PUSH2 0x13E0 JUMP JUMPDEST PUSH1 0x40 MLOAD DUP1 SWAP2 SUB SWAP1 LOG1 PUSH1 0x1 PUSH0 SWAP1 SLOAD SWAP1 PUSH2 0x100 EXP SWAP1 DIV PUSH20 0xFFFFFFFFFFFFFFFFFFFFFFFFFFFFFFFFFFFFFFFF AND PUSH20 0xFFFFFFFFFFFFFFFFFFFFFFFFFFFFFFFFFFFFFFFF AND PUSH20 0x0 PUSH4 0x7B1A4909 SWAP1 SWAP2 DUP5 PUSH1 0x40 MLOAD DUP4 PUSH4 0xFFFFFFFF AND PUSH1 0xE0 SHL DUP2 MSTORE PUSH1 0x4 ADD PUSH2 0x9C8 SWAP3 SWAP2 SWAP1 PUSH2 0x13AA JUMP JUMPDEST PUSH0 PUSH1 0x40 MLOAD DUP1 DUP4 SUB DUP2 DUP7 DUP1 EXTCODESIZE ISZERO DUP1 ISZERO PUSH2 0x9DE JUMPI PUSH0 PUSH0 REVERT JUMPDEST POP GAS DELEGATECALL ISZERO DUP1 ISZERO PUSH2 0x9F0 JUMPI RETURNDATASIZE PUSH0 PUSH0 RETURNDATACOPY RETURNDATASIZE PUSH0 REVERT JUMPDEST POP POP POP POP PUSH32 0xB31FD285A960185C64DBABAFDDABB818CF217408117E4D2E69155930EE654406 DUP5 DUP4 PUSH1 0x40 MLOAD PUSH2 0xA25 SWAP3 SWAP2 SWAP1 PUSH2 0x13E0 JUMP JUMPDEST PUSH1 0x40 MLOAD DUP1 SWAP2 SUB SWAP1 LOG1 POP POP POP POP JUMP JUMPDEST PUSH2 0xA3C DUP3 PUSH2 0x37C JUMP JUMPDEST PUSH2 0xA45 DUP2 PUSH2 0xABE JUMP JUMPDEST PUSH2 0xA4F DUP4 DUP4 PUSH2 0xBC2 JUMP JUMPDEST POP POP POP POP JUMP JUMPDEST PUSH0 PUSH32 0x1FFC9A700000000000000000000000000000000000000000000000000000000 PUSH28 0xFFFFFFFFFFFFFFFFFFFFFFFFFFFFFFFFFFFFFFFFFFFFFFFFFFFFFFFF NOT AND DUP3 PUSH28 0xFFFFFFFFFFFFFFFFFFFFFFFFFFFFFFFFFFFFFFFFFFFFFFFFFFFFFFFF NOT AND EQ SWAP1 POP SWAP2 SWAP1 POP JUMP JUMPDEST PUSH2 0xACF DUP2 PUSH2 0xACA PUSH2 0xBBB JUMP JUMPDEST PUSH2 0xCAB JUMP JUMPDEST POP JUMP JUMPDEST PUSH0 PUSH2 0xADD DUP4 DUP4 PUSH2 0x657 JUMP JUMPDEST PUSH2 0xBB1 JUMPI PUSH1 0x1 PUSH0 PUSH0 DUP6 DUP2 MSTORE PUSH1 0x20 ADD SWAP1 DUP2 MSTORE PUSH1 0x20 ADD PUSH0 KECCAK256 PUSH0 ADD PUSH0 DUP5 PUSH20 0xFFFFFFFFFFFFFFFFFFFFFFFFFFFFFFFFFFFFFFFF AND PUSH20 0xFFFFFFFFFFFFFFFFFFFFFFFFFFFFFFFFFFFFFFFF AND DUP2 MSTORE PUSH1 0x20 ADD SWAP1 DUP2 MSTORE PUSH1 0x20 ADD PUSH0 KECCAK256 PUSH0 PUSH2 0x100 EXP DUP2 SLOAD DUP2 PUSH1 0xFF MUL NOT AND SWAP1 DUP4 ISZERO ISZERO MUL OR SWAP1 SSTORE POP PUSH2 0xB4E PUSH2 0xBBB JUMP JUMPDEST PUSH20 0xFFFFFFFFFFFFFFFFFFFFFFFFFFFFFFFFFFFFFFFF AND DUP3 PUSH20 0xFFFFFFFFFFFFFFFFFFFFFFFFFFFFFFFFFFFFFFFF AND DUP5 PUSH32 0x2F8788117E7EFF1D82E926EC794901D17C78024A50270940304540A733656F0D PUSH1 0x40 MLOAD PUSH1 0x40 MLOAD DUP1 SWAP2 SUB SWAP1 LOG4 PUSH1 0x1 SWAP1 POP PUSH2 0xBB5 JUMP JUMPDEST PUSH0 SWAP1 POP JUMPDEST SWAP3 SWAP2 POP POP JUMP JUMPDEST PUSH0 CALLER SWAP1 POP SWAP1 JUMP JUMPDEST PUSH0 PUSH2 0xBCD DUP4 DUP4 PUSH2 0x657 JUMP JUMPDEST ISZERO PUSH2 0xCA1 JUMPI PUSH0 PUSH0 PUSH0 DUP6 DUP2 MSTORE PUSH1 0x20 ADD SWAP1 DUP2 MSTORE PUSH1 0x20 ADD PUSH0 KECCAK256 PUSH0 ADD PUSH0 DUP5 PUSH20 0xFFFFFFFFFFFFFFFFFFFFFFFFFFFFFFFFFFFFFFFF AND PUSH20 0xFFFFFFFFFFFFFFFFFFFFFFFFFFFFFFFFFFFFFFFF AND DUP2 MSTORE PUSH1 0x20 ADD SWAP1 DUP2 MSTORE PUSH1 0x20 ADD PUSH0 KECCAK256 PUSH0 PUSH2 0x100 EXP DUP2 SLOAD DUP2 PUSH1 0xFF MUL NOT AND SWAP1 DUP4 ISZERO ISZERO MUL OR SWAP1 SSTORE POP PUSH2 0xC3E PUSH2 0xBBB JUMP JUMPDEST PUSH20 0xFFFFFFFFFFFFFFFFFFFFFFFFFFFFFFFFFFFFFFFF AND DUP3 PUSH20 0xFFFFFFFFFFFFFFFFFFFFFFFFFFFFFFFFFFFFFFFF AND DUP5 PUSH32 0xF6391F5C32D9C69D2A47EA670B442974B53935D1EDC7FD64EB21E047A839171B PUSH1 0x40 MLOAD PUSH1 0x40 MLOAD DUP1 SWAP2 SUB SWAP1 LOG4 PUSH1 0x1 SWAP1 POP PUSH2 0xCA5 JUMP JUMPDEST PUSH0 SWAP1 POP JUMPDEST SWAP3 SWAP2 POP POP JUMP JUMPDEST PUSH2 0xCB5 DUP3 DUP3 PUSH2 0x657 JUMP JUMPDEST PUSH2 0xCF8 JUMPI DUP1 DUP3 PUSH1 0x40 MLOAD PUSH32 0xE2517D3F00000000000000000000000000000000000000000000000000000000 DUP2 MSTORE PUSH1 0x4 ADD PUSH2 0xCEF SWAP3 SWAP2 SWAP1 PUSH2 0x1407 JUMP JUMPDEST PUSH1 0x40 MLOAD DUP1 SWAP2 SUB SWAP1 REVERT JUMPDEST POP POP JUMP JUMPDEST PUSH0 PUSH0 REVERT JUMPDEST PUSH0 PUSH32 0xFFFFFFFF00000000000000000000000000000000000000000000000000000000 DUP3 AND SWAP1 POP SWAP2 SWAP1 POP JUMP JUMPDEST PUSH2 0xD34 DUP2 PUSH2 0xD00 JUMP JUMPDEST DUP2 EQ PUSH2 0xD3E JUMPI PUSH0 PUSH0 REVERT JUMPDEST POP JUMP JUMPDEST PUSH0 DUP2 CALLDATALOAD SWAP1 POP PUSH2 0xD4F DUP2 PUSH2 0xD2B JUMP JUMPDEST SWAP3 SWAP2 POP POP JUMP JUMPDEST PUSH0 PUSH1 0x20 DUP3 DUP5 SUB SLT ISZERO PUSH2 0xD6A JUMPI PUSH2 0xD69 PUSH2 0xCFC JUMP JUMPDEST JUMPDEST PUSH0 PUSH2 0xD77 DUP5 DUP3 DUP6 ADD PUSH2 0xD41 JUMP JUMPDEST SWAP2 POP POP SWAP3 SWAP2 POP POP JUMP JUMPDEST PUSH0 DUP2 ISZERO ISZERO SWAP1 POP SWAP2 SWAP1 POP JUMP JUMPDEST PUSH2 0xD94 DUP2 PUSH2 0xD80 JUMP JUMPDEST DUP3 MSTORE POP POP JUMP JUMPDEST PUSH0 PUSH1 0x20 DUP3 ADD SWAP1 POP PUSH2 0xDAD PUSH0 DUP4 ADD DUP5 PUSH2 0xD8B JUMP JUMPDEST SWAP3 SWAP2 POP POP JUMP JUMPDEST PUSH0 DUP2 SWAP1 POP SWAP2 SWAP1 POP JUMP JUMPDEST PUSH2 0xDC5 DUP2 PUSH2 0xDB3 JUMP JUMPDEST DUP2 EQ PUSH2 0xDCF JUMPI PUSH0 PUSH0 REVERT JUMPDEST POP JUMP JUMPDEST PUSH0 DUP2 CALLDATALOAD SWAP1 POP PUSH2 0xDE0 DUP2 PUSH2 0xDBC JUMP JUMPDEST SWAP3 SWAP2 POP POP JUMP JUMPDEST PUSH0 PUSH1 0x20 DUP3 DUP5 SUB SLT ISZERO PUSH2 0xDFB JUMPI PUSH2 0xDFA PUSH2 0xCFC JUMP JUMPDEST JUMPDEST PUSH0 PUSH2 0xE08 DUP5 DUP3 DUP6 ADD PUSH2 0xDD2 JUMP JUMPDEST SWAP2 POP POP SWAP3 SWAP2 POP POP JUMP JUMPDEST PUSH2 0xE1A DUP2 PUSH2 0xDB3 JUMP JUMPDEST DUP3 MSTORE POP POP JUMP JUMPDEST PUSH0 PUSH1 0x20 DUP3 ADD SWAP1 POP PUSH2 0xE33 PUSH0 DUP4 ADD DUP5 PUSH2 0xE11 JUMP JUMPDEST SWAP3 SWAP2 POP POP JUMP JUMPDEST PUSH0 PUSH20 0xFFFFFFFFFFFFFFFFFFFFFFFFFFFFFFFFFFFFFFFF DUP3 AND SWAP1 POP SWAP2 SWAP1 POP JUMP JUMPDEST PUSH0 PUSH2 0xE62 DUP3 PUSH2 0xE39 JUMP JUMPDEST SWAP1 POP SWAP2 SWAP1 POP JUMP JUMPDEST PUSH2 0xE72 DUP2 PUSH2 0xE58 JUMP JUMPDEST DUP2 EQ PUSH2 0xE7C JUMPI PUSH0 PUSH0 REVERT JUMPDEST POP JUMP JUMPDEST PUSH0 DUP2 CALLDATALOAD SWAP1 POP PUSH2 0xE8D DUP2 PUSH2 0xE69 JUMP JUMPDEST SWAP3 SWAP2 POP POP JUMP JUMPDEST PUSH0 PUSH0 PUSH1 0x40 DUP4 DUP6 SUB SLT ISZERO PUSH2 0xEA9 JUMPI PUSH2 0xEA8 PUSH2 0xCFC JUMP JUMPDEST JUMPDEST PUSH0 PUSH2 0xEB6 DUP6 DUP3 DUP7 ADD PUSH2 0xDD2 JUMP JUMPDEST SWAP3 POP POP PUSH1 0x20 PUSH2 0xEC7 DUP6 DUP3 DUP7 ADD PUSH2 0xE7F JUMP JUMPDEST SWAP2 POP POP SWAP3 POP SWAP3 SWAP1 POP JUMP JUMPDEST PUSH0 PUSH1 0x20 DUP3 DUP5 SUB SLT ISZERO PUSH2 0xEE6 JUMPI PUSH2 0xEE5 PUSH2 0xCFC JUMP JUMPDEST JUMPDEST PUSH0 PUSH2 0xEF3 DUP5 DUP3 DUP6 ADD PUSH2 0xE7F JUMP JUMPDEST SWAP2 POP POP SWAP3 SWAP2 POP POP JUMP JUMPDEST PUSH0 PUSH1 0xFF DUP3 AND SWAP1 POP SWAP2 SWAP1 POP JUMP JUMPDEST PUSH2 0xF11 DUP2 PUSH2 0xEFC JUMP JUMPDEST DUP3 MSTORE POP POP JUMP JUMPDEST PUSH0 PUSH1 0x20 DUP3 ADD SWAP1 POP PUSH2 0xF2A PUSH0 DUP4 ADD DUP5 PUSH2 0xF08 JUMP JUMPDEST SWAP3 SWAP2 POP POP JUMP JUMPDEST PUSH0 PUSH2 0xF3A DUP3 PUSH2 0xE39 JUMP JUMPDEST SWAP1 POP SWAP2 SWAP1 POP JUMP JUMPDEST PUSH2 0xF4A DUP2 PUSH2 0xF30 JUMP JUMPDEST DUP3 MSTORE POP POP JUMP JUMPDEST PUSH0 PUSH1 0x20 DUP3 ADD SWAP1 POP PUSH2 0xF63 PUSH0 DUP4 ADD DUP5 PUSH2 0xF41 JUMP JUMPDEST SWAP3 SWAP2 POP POP JUMP JUMPDEST PUSH2 0xF72 DUP2 PUSH2 0xF30 JUMP JUMPDEST DUP2 EQ PUSH2 0xF7C JUMPI PUSH0 PUSH0 REVERT JUMPDEST POP JUMP JUMPDEST PUSH0 DUP2 CALLDATALOAD SWAP1 POP PUSH2 0xF8D DUP2 PUSH2 0xF69 JUMP JUMPDEST SWAP3 SWAP2 POP POP JUMP JUMPDEST PUSH0 PUSH1 0x20 DUP3 DUP5 SUB SLT ISZERO PUSH2 0xFA8 JUMPI PUSH2 0xFA7 PUSH2 0xCFC JUMP JUMPDEST JUMPDEST PUSH0 PUSH2 0xFB5 DUP5 DUP3 DUP6 ADD PUSH2 0xF7F JUMP JUMPDEST SWAP2 POP POP SWAP3 SWAP2 POP POP JUMP JUMPDEST PUSH2 0xFC7 DUP2 PUSH2 0xEFC JUMP JUMPDEST DUP2 EQ PUSH2 0xFD1 JUMPI PUSH0 PUSH0 REVERT JUMPDEST POP JUMP JUMPDEST PUSH0 DUP2 CALLDATALOAD SWAP1 POP PUSH2 0xFE2 DUP2 PUSH2 0xFBE JUMP JUMPDEST SWAP3 SWAP2 POP POP JUMP JUMPDEST PUSH0 PUSH1 0x20 DUP3 DUP5 SUB SLT ISZERO PUSH2 0xFFD JUMPI PUSH2 0xFFC PUSH2 0xCFC JUMP JUMPDEST JUMPDEST PUSH0 PUSH2 0x100A DUP5 DUP3 DUP6 ADD PUSH2 0xFD4 JUMP JUMPDEST SWAP2 POP POP SWAP3 SWAP2 POP POP JUMP JUMPDEST PUSH0 DUP3 DUP3 MSTORE PUSH1 0x20 DUP3 ADD SWAP1 POP SWAP3 SWAP2 POP POP JUMP JUMPDEST PUSH32 0x496E76616C696420746172676574206164647265737300000000000000000000 PUSH0 DUP3 ADD MSTORE POP JUMP JUMPDEST PUSH0 PUSH2 0x1057 PUSH1 0x16 DUP4 PUSH2 0x1013 JUMP JUMPDEST SWAP2 POP PUSH2 0x1062 DUP3 PUSH2 0x1023 JUMP JUMPDEST PUSH1 0x20 DUP3 ADD SWAP1 POP SWAP2 SWAP1 POP JUMP JUMPDEST PUSH0 PUSH1 0x20 DUP3 ADD SWAP1 POP DUP2 DUP2 SUB PUSH0 DUP4 ADD MSTORE PUSH2 0x1084 DUP2 PUSH2 0x104B JUMP JUMPDEST SWAP1 POP SWAP2 SWAP1 POP JUMP JUMPDEST PUSH2 0x1094 DUP2 PUSH2 0xE58 JUMP JUMPDEST DUP3 MSTORE POP POP JUMP JUMPDEST PUSH0 PUSH1 0x20 DUP3 ADD SWAP1 POP PUSH2 0x10AD PUSH0 DUP4 ADD DUP5 PUSH2 0x108B JUMP JUMPDEST SWAP3 SWAP2 POP POP JUMP JUMPDEST PUSH0 DUP2 SWAP1 POP SWAP2 SWAP1 POP JUMP JUMPDEST PUSH0 PUSH2 0x10D6 PUSH2 0x10D1 PUSH2 0x10CC DUP5 PUSH2 0xE39 JUMP JUMPDEST PUSH2 0x10B3 JUMP JUMPDEST PUSH2 0xE39 JUMP JUMPDEST SWAP1 POP SWAP2 SWAP1 POP JUMP JUMPDEST PUSH0 PUSH2 0x10E7 DUP3 PUSH2 0x10BC JUMP JUMPDEST SWAP1 POP SWAP2 SWAP1 POP JUMP JUMPDEST PUSH0 PUSH2 0x10F8 DUP3 PUSH2 0x10DD JUMP JUMPDEST SWAP1 POP SWAP2 SWAP1 POP JUMP JUMPDEST PUSH2 0x1108 DUP2 PUSH2 0x10EE JUMP JUMPDEST DUP3 MSTORE POP POP JUMP JUMPDEST PUSH0 PUSH1 0x40 DUP3 ADD SWAP1 POP PUSH2 0x1121 PUSH0 DUP4 ADD DUP6 PUSH2 0x10FF JUMP JUMPDEST PUSH2 0x112E PUSH1 0x20 DUP4 ADD DUP5 PUSH2 0x108B JUMP JUMPDEST SWAP4 SWAP3 POP POP POP JUMP JUMPDEST PUSH0 PUSH1 0x40 DUP3 ADD SWAP1 POP PUSH2 0x1148 PUSH0 DUP4 ADD DUP6 PUSH2 0xF08 JUMP JUMPDEST PUSH2 0x1155 PUSH1 0x20 DUP4 ADD DUP5 PUSH2 0x108B JUMP JUMPDEST SWAP4 SWAP3 POP POP POP JUMP JUMPDEST PUSH32 0x4E6F7420656E6F7567682066756E64732073656E742100000000000000000000 PUSH0 DUP3 ADD MSTORE POP JUMP JUMPDEST PUSH0 PUSH2 0x1190 PUSH1 0x16 DUP4 PUSH2 0x1013 JUMP JUMPDEST SWAP2 POP PUSH2 0x119B DUP3 PUSH2 0x115C JUMP JUMPDEST PUSH1 0x20 DUP3 ADD SWAP1 POP SWAP2 SWAP1 POP JUMP JUMPDEST PUSH0 PUSH1 0x20 DUP3 ADD SWAP1 POP DUP2 DUP2 SUB PUSH0 DUP4 ADD MSTORE PUSH2 0x11BD DUP2 PUSH2 0x1184 JUMP JUMPDEST SWAP1 POP SWAP2 SWAP1 POP JUMP JUMPDEST PUSH0 DUP2 SWAP1 POP SWAP2 SWAP1 POP JUMP JUMPDEST PUSH32 0x4E487B7100000000000000000000000000000000000000000000000000000000 PUSH0 MSTORE PUSH1 0x11 PUSH1 0x4 MSTORE PUSH1 0x24 PUSH0 REVERT JUMPDEST PUSH0 PUSH2 0x1204 DUP3 PUSH2 0x11C4 JUMP JUMPDEST SWAP2 POP PUSH2 0x120F DUP4 PUSH2 0x11C4 JUMP JUMPDEST SWAP3 POP DUP3 DUP3 MUL PUSH2 0x121D DUP2 PUSH2 0x11C4 JUMP JUMPDEST SWAP2 POP DUP3 DUP3 DIV DUP5 EQ DUP4 ISZERO OR PUSH2 0x1234 JUMPI PUSH2 0x1233 PUSH2 0x11CD JUMP JUMPDEST JUMPDEST POP SWAP3 SWAP2 POP POP JUMP JUMPDEST PUSH32 0x4E487B7100000000000000000000000000000000000000000000000000000000 PUSH0 MSTORE PUSH1 0x12 PUSH1 0x4 MSTORE PUSH1 0x24 PUSH0 REVERT JUMPDEST PUSH0 PUSH2 0x1272 DUP3 PUSH2 0x11C4 JUMP JUMPDEST SWAP2 POP PUSH2 0x127D DUP4 PUSH2 0x11C4 JUMP JUMPDEST SWAP3 POP DUP3 PUSH2 0x128D JUMPI PUSH2 0x128C PUSH2 0x123B JUMP JUMPDEST JUMPDEST DUP3 DUP3 DIV SWAP1 POP SWAP3 SWAP2 POP POP JUMP JUMPDEST PUSH0 PUSH2 0x12A2 DUP3 PUSH2 0x11C4 JUMP JUMPDEST SWAP2 POP PUSH2 0x12AD DUP4 PUSH2 0x11C4 JUMP JUMPDEST SWAP3 POP DUP3 DUP3 SUB SWAP1 POP DUP2 DUP2 GT ISZERO PUSH2 0x12C5 JUMPI PUSH2 0x12C4 PUSH2 0x11CD JUMP JUMPDEST JUMPDEST SWAP3 SWAP2 POP POP JUMP JUMPDEST PUSH0 PUSH2 0x12D5 DUP3 PUSH2 0x11C4 JUMP JUMPDEST SWAP2 POP PUSH2 0x12E0 DUP4 PUSH2 0x11C4 JUMP JUMPDEST SWAP3 POP DUP3 DUP3 ADD SWAP1 POP DUP1 DUP3 GT ISZERO PUSH2 0x12F8 JUMPI PUSH2 0x12F7 PUSH2 0x11CD JUMP JUMPDEST JUMPDEST SWAP3 SWAP2 POP POP JUMP JUMPDEST PUSH32 0x436F756C64206E6F742070726F6363657373207472616E7366657220616D6F75 PUSH0 DUP3 ADD MSTORE PUSH32 0x6E74000000000000000000000000000000000000000000000000000000000000 PUSH1 0x20 DUP3 ADD MSTORE POP JUMP JUMPDEST PUSH0 PUSH2 0x1358 PUSH1 0x22 DUP4 PUSH2 0x1013 JUMP JUMPDEST SWAP2 POP PUSH2 0x1363 DUP3 PUSH2 0x12FE JUMP JUMPDEST PUSH1 0x40 DUP3 ADD SWAP1 POP SWAP2 SWAP1 POP JUMP JUMPDEST PUSH0 PUSH1 0x20 DUP3 ADD SWAP1 POP DUP2 DUP2 SUB PUSH0 DUP4 ADD MSTORE PUSH2 0x1385 DUP2 PUSH2 0x134C JUMP JUMPDEST SWAP1 POP SWAP2 SWAP1 POP JUMP JUMPDEST PUSH2 0x1395 DUP2 PUSH2 0xE58 JUMP JUMPDEST DUP3 MSTORE POP POP JUMP JUMPDEST PUSH2 0x13A4 DUP2 PUSH2 0x11C4 JUMP JUMPDEST DUP3 MSTORE POP POP JUMP JUMPDEST PUSH0 PUSH1 0x40 DUP3 ADD SWAP1 POP PUSH2 0x13BD PUSH0 DUP4 ADD DUP6 PUSH2 0x138C JUMP JUMPDEST PUSH2 0x13CA PUSH1 0x20 DUP4 ADD DUP5 PUSH2 0x139B JUMP JUMPDEST SWAP4 SWAP3 POP POP POP JUMP JUMPDEST PUSH2 0x13DA DUP2 PUSH2 0x11C4 JUMP JUMPDEST DUP3 MSTORE POP POP JUMP JUMPDEST PUSH0 PUSH1 0x40 DUP3 ADD SWAP1 POP PUSH2 0x13F3 PUSH0 DUP4 ADD DUP6 PUSH2 0x10FF JUMP JUMPDEST PUSH2 0x1400 PUSH1 0x20 DUP4 ADD DUP5 PUSH2 0x13D1 JUMP JUMPDEST SWAP4 SWAP3 POP POP POP JUMP JUMPDEST PUSH0 PUSH1 0x40 DUP3 ADD SWAP1 POP PUSH2 0x141A PUSH0 DUP4 ADD DUP6 PUSH2 0x108B JUMP JUMPDEST PUSH2 0x1427 PUSH1 0x20 DUP4 ADD DUP5 PUSH2 0xE11 JUMP JUMPDEST SWAP4 SWAP3 POP POP POP JUMP INVALID LOG2 PUSH5 0x6970667358 0x22 SLT KECCAK256 0xEE BLOBBASEFEE CHAINID SMOD JUMPDEST SLT 0xB8 0xCF JUMPDEST SIGNEXTEND 0x21 0xE6 0xC6 0x2C ADDRESS CALLDATACOPY 0x23 DUP7 MSTORE 0xAD PUSH3 0x38A90A PUSH27 0x9B8A335EB6514A64736F6C634300081C0033000000000000000000 "
		},
		"gasEstimates": {
			"creation": {
				"codeDepositCost": "1044000",
				"executionCost": "infinite",
				"totalCost": "infinite"
			},
			"external": {
				"DEFAULT_ADMIN_ROLE()": "373",
				"addTreasuryHandler(address)": "infinite",
				"allocationPercentage()": "2628",
				"getRoleAdmin(bytes32)": "infinite",
				"grantRole(bytes32,address)": "infinite",
				"hasRole(bytes32,address)": "3187",
				"proccessPayment(address)": "infinite",
				"renounceRole(bytes32,address)": "infinite",
				"revokeRole(bytes32,address)": "infinite",
				"supportsInterface(bytes4)": "718",
				"treasury()": "2531",
				"updateAllocationAmount(uint8)": "infinite",
				"updateTreasury(address)": "infinite"
			}
		},
		"methodIdentifiers": {
			"DEFAULT_ADMIN_ROLE()": "a217fddf",
			"addTreasuryHandler(address)": "4ba1b841",
			"allocationPercentage()": "5c73cb70",
			"getRoleAdmin(bytes32)": "248a9ca3",
			"grantRole(bytes32,address)": "2f2ff15d",
			"hasRole(bytes32,address)": "91d14854",
			"proccessPayment(address)": "bf643fc1",
			"renounceRole(bytes32,address)": "36568abe",
			"revokeRole(bytes32,address)": "d547741f",
			"supportsInterface(bytes4)": "01ffc9a7",
			"treasury()": "61d027b3",
			"updateAllocationAmount(uint8)": "9290ed85",
			"updateTreasury(address)": "7f51bb1f"
		}
	},
	"abi": [
		{
			"inputs": [
				{
					"internalType": "address payable",
					"name": "_treasury",
					"type": "address"
				},
				{
					"internalType": "uint8",
					"name": "_allocationPercentage",
					"type": "uint8"
				}
			],
			"stateMutability": "nonpayable",
			"type": "constructor"
		},
		{
			"inputs": [],
			"name": "AccessControlBadConfirmation",
			"type": "error"
		},
		{
			"inputs": [
				{
					"internalType": "address",
					"name": "account",
					"type": "address"
				},
				{
					"internalType": "bytes32",
					"name": "neededRole",
					"type": "bytes32"
				}
			],
			"name": "AccessControlUnauthorizedAccount",
			"type": "error"
		},
		{
			"inputs": [],
			"name": "InsuficientBalance",
			"type": "error"
		},
		{
			"inputs": [],
			"name": "InvalidAllocationPercentage",
			"type": "error"
		},
		{
			"anonymous": false,
			"inputs": [
				{
					"indexed": false,
					"internalType": "address",
					"name": "target",
					"type": "address"
				},
				{
					"indexed": false,
					"internalType": "uint256",
					"name": "amount",
					"type": "uint256"
				}
			],
			"name": "AllocationCompleted",
			"type": "event"
		},
		{
			"anonymous": false,
			"inputs": [
				{
					"indexed": false,
					"internalType": "uint8",
					"name": "allocationPercentage",
					"type": "uint8"
				},
				{
					"indexed": false,
					"internalType": "address",
					"name": "handler",
					"type": "address"
				}
			],
			"name": "AllocationPercentageUpdated",
			"type": "event"
		},
		{
			"anonymous": false,
			"inputs": [
				{
					"indexed": true,
					"internalType": "bytes32",
					"name": "role",
					"type": "bytes32"
				},
				{
					"indexed": true,
					"internalType": "bytes32",
					"name": "previousAdminRole",
					"type": "bytes32"
				},
				{
					"indexed": true,
					"internalType": "bytes32",
					"name": "newAdminRole",
					"type": "bytes32"
				}
			],
			"name": "RoleAdminChanged",
			"type": "event"
		},
		{
			"anonymous": false,
			"inputs": [
				{
					"indexed": true,
					"internalType": "bytes32",
					"name": "role",
					"type": "bytes32"
				},
				{
					"indexed": true,
					"internalType": "address",
					"name": "account",
					"type": "address"
				},
				{
					"indexed": true,
					"internalType": "address",
					"name": "sender",
					"type": "address"
				}
			],
			"name": "RoleGranted",
			"type": "event"
		},
		{
			"anonymous": false,
			"inputs": [
				{
					"indexed": true,
					"internalType": "bytes32",
					"name": "role",
					"type": "bytes32"
				},
				{
					"indexed": true,
					"internalType": "address",
					"name": "account",
					"type": "address"
				},
				{
					"indexed": true,
					"internalType": "address",
					"name": "sender",
					"type": "address"
				}
			],
			"name": "RoleRevoked",
			"type": "event"
		},
		{
			"anonymous": false,
			"inputs": [
				{
					"indexed": false,
					"internalType": "address",
					"name": "target",
					"type": "address"
				},
				{
					"indexed": false,
					"internalType": "uint256",
					"name": "amount",
					"type": "uint256"
				}
			],
			"name": "TranferCompleted",
			"type": "event"
		},
		{
			"anonymous": false,
			"inputs": [
				{
					"indexed": false,
					"internalType": "address",
					"name": "target",
					"type": "address"
				},
				{
					"indexed": false,
					"internalType": "address",
					"name": "handler",
					"type": "address"
				}
			],
			"name": "TreasuryAddressUpdated",
			"type": "event"
		},
		{
			"anonymous": false,
			"inputs": [
				{
					"indexed": false,
					"internalType": "address",
					"name": "target",
					"type": "address"
				}
			],
			"name": "TreasuryHandlerAdded",
			"type": "event"
		},
		{
			"inputs": [],
			"name": "DEFAULT_ADMIN_ROLE",
			"outputs": [
				{
					"internalType": "bytes32",
					"name": "",
					"type": "bytes32"
				}
			],
			"stateMutability": "view",
			"type": "function"
		},
		{
			"inputs": [
				{
					"internalType": "address",
					"name": "target",
					"type": "address"
				}
			],
			"name": "addTreasuryHandler",
			"outputs": [],
			"stateMutability": "nonpayable",
			"type": "function"
		},
		{
			"inputs": [],
			"name": "allocationPercentage",
			"outputs": [
				{
					"internalType": "uint8",
					"name": "",
					"type": "uint8"
				}
			],
			"stateMutability": "view",
			"type": "function"
		},
		{
			"inputs": [
				{
					"internalType": "bytes32",
					"name": "role",
					"type": "bytes32"
				}
			],
			"name": "getRoleAdmin",
			"outputs": [
				{
					"internalType": "bytes32",
					"name": "",
					"type": "bytes32"
				}
			],
			"stateMutability": "view",
			"type": "function"
		},
		{
			"inputs": [
				{
					"internalType": "bytes32",
					"name": "role",
					"type": "bytes32"
				},
				{
					"internalType": "address",
					"name": "account",
					"type": "address"
				}
			],
			"name": "grantRole",
			"outputs": [],
			"stateMutability": "nonpayable",
			"type": "function"
		},
		{
			"inputs": [
				{
					"internalType": "bytes32",
					"name": "role",
					"type": "bytes32"
				},
				{
					"internalType": "address",
					"name": "account",
					"type": "address"
				}
			],
			"name": "hasRole",
			"outputs": [
				{
					"internalType": "bool",
					"name": "",
					"type": "bool"
				}
			],
			"stateMutability": "view",
			"type": "function"
		},
		{
			"inputs": [
				{
					"internalType": "address payable",
					"name": "target",
					"type": "address"
				}
			],
			"name": "proccessPayment",
			"outputs": [],
			"stateMutability": "payable",
			"type": "function"
		},
		{
			"inputs": [
				{
					"internalType": "bytes32",
					"name": "role",
					"type": "bytes32"
				},
				{
					"internalType": "address",
					"name": "callerConfirmation",
					"type": "address"
				}
			],
			"name": "renounceRole",
			"outputs": [],
			"stateMutability": "nonpayable",
			"type": "function"
		},
		{
			"inputs": [
				{
					"internalType": "bytes32",
					"name": "role",
					"type": "bytes32"
				},
				{
					"internalType": "address",
					"name": "account",
					"type": "address"
				}
			],
			"name": "revokeRole",
			"outputs": [],
			"stateMutability": "nonpayable",
			"type": "function"
		},
		{
			"inputs": [
				{
					"internalType": "bytes4",
					"name": "interfaceId",
					"type": "bytes4"
				}
			],
			"name": "supportsInterface",
			"outputs": [
				{
					"internalType": "bool",
					"name": "",
					"type": "bool"
				}
			],
			"stateMutability": "view",
			"type": "function"
		},
		{
			"inputs": [],
			"name": "treasury",
			"outputs": [
				{
					"internalType": "address payable",
					"name": "",
					"type": "address"
				}
			],
			"stateMutability": "view",
			"type": "function"
		},
		{
			"inputs": [
				{
					"internalType": "uint8",
					"name": "allocation",
					"type": "uint8"
				}
			],
			"name": "updateAllocationAmount",
			"outputs": [],
			"stateMutability": "nonpayable",
			"type": "function"
		},
		{
			"inputs": [
				{
					"internalType": "address payable",
					"name": "target",
					"type": "address"
				}
			],
			"name": "updateTreasury",
			"outputs": [],
			"stateMutability": "nonpayable",
			"type": "function"
		}
	]
}