{
	"Assignments/Lecture 7/RewardPointsInterface.sol": {
		"BrewBeanPointsToken": {
			"abi": [
				{
					"inputs": [
						{
							"internalType": "string",
							"name": "_name",
							"type": "string"
						},
						{
							"internalType": "string",
							"name": "_symbol",
							"type": "string"
						},
						{
							"internalType": "uint8",
							"name": "_decimals",
							"type": "uint8"
						},
						{
							"internalType": "address",
							"name": "_owner",
							"type": "address"
						},
						{
							"internalType": "uint256",
							"name": "_minReward",
							"type": "uint256"
						}
					],
					"stateMutability": "payable",
					"type": "constructor"
				},
				{
					"inputs": [],
					"name": "IneligibleUser",
					"type": "error"
				},
				{
					"inputs": [],
					"name": "InsuficientBalance",
					"type": "error"
				},
				{
					"inputs": [],
					"name": "InsuficientSupply",
					"type": "error"
				},
				{
					"inputs": [],
					"name": "UnauthorizedAccess",
					"type": "error"
				},
				{
					"anonymous": false,
					"inputs": [
						{
							"indexed": true,
							"internalType": "address",
							"name": "_owner",
							"type": "address"
						},
						{
							"indexed": true,
							"internalType": "address",
							"name": "_spender",
							"type": "address"
						},
						{
							"indexed": false,
							"internalType": "uint256",
							"name": "_value",
							"type": "uint256"
						}
					],
					"name": "Approval",
					"type": "event"
				},
				{
					"anonymous": false,
					"inputs": [
						{
							"indexed": true,
							"internalType": "address",
							"name": "_owner",
							"type": "address"
						},
						{
							"indexed": false,
							"internalType": "uint256",
							"name": "_value",
							"type": "uint256"
						}
					],
					"name": "Redeemed",
					"type": "event"
				},
				{
					"anonymous": false,
					"inputs": [
						{
							"indexed": true,
							"internalType": "address",
							"name": "_from",
							"type": "address"
						},
						{
							"indexed": true,
							"internalType": "address",
							"name": "_to",
							"type": "address"
						},
						{
							"indexed": false,
							"internalType": "uint256",
							"name": "_value",
							"type": "uint256"
						}
					],
					"name": "Rewarded",
					"type": "event"
				},
				{
					"anonymous": false,
					"inputs": [
						{
							"indexed": true,
							"internalType": "address",
							"name": "_from",
							"type": "address"
						},
						{
							"indexed": true,
							"internalType": "address",
							"name": "_to",
							"type": "address"
						},
						{
							"indexed": false,
							"internalType": "uint256",
							"name": "_value",
							"type": "uint256"
						}
					],
					"name": "Transfer",
					"type": "event"
				},
				{
					"inputs": [
						{
							"internalType": "address",
							"name": "target",
							"type": "address"
						}
					],
					"name": "addPartner",
					"outputs": [],
					"stateMutability": "nonpayable",
					"type": "function"
				},
				{
					"inputs": [
						{
							"internalType": "address",
							"name": "_owner",
							"type": "address"
						}
					],
					"name": "balanceOf",
					"outputs": [
						{
							"internalType": "uint256",
							"name": "balance",
							"type": "uint256"
						}
					],
					"stateMutability": "view",
					"type": "function"
				},
				{
					"inputs": [],
					"name": "decimals",
					"outputs": [
						{
							"internalType": "uint8",
							"name": "",
							"type": "uint8"
						}
					],
					"stateMutability": "view",
					"type": "function"
				},
				{
					"inputs": [
						{
							"internalType": "address",
							"name": "",
							"type": "address"
						}
					],
					"name": "holders",
					"outputs": [
						{
							"internalType": "uint256",
							"name": "",
							"type": "uint256"
						}
					],
					"stateMutability": "view",
					"type": "function"
				},
				{
					"inputs": [],
					"name": "minReward",
					"outputs": [
						{
							"internalType": "uint256",
							"name": "",
							"type": "uint256"
						}
					],
					"stateMutability": "view",
					"type": "function"
				},
				{
					"inputs": [],
					"name": "name",
					"outputs": [
						{
							"internalType": "string",
							"name": "",
							"type": "string"
						}
					],
					"stateMutability": "view",
					"type": "function"
				},
				{
					"inputs": [],
					"name": "owner",
					"outputs": [
						{
							"internalType": "address",
							"name": "",
							"type": "address"
						}
					],
					"stateMutability": "view",
					"type": "function"
				},
				{
					"inputs": [
						{
							"internalType": "address",
							"name": "",
							"type": "address"
						}
					],
					"name": "partners",
					"outputs": [
						{
							"internalType": "bool",
							"name": "",
							"type": "bool"
						}
					],
					"stateMutability": "view",
					"type": "function"
				},
				{
					"inputs": [
						{
							"internalType": "uint256",
							"name": "amount",
							"type": "uint256"
						}
					],
					"name": "redeemPoints",
					"outputs": [],
					"stateMutability": "payable",
					"type": "function"
				},
				{
					"inputs": [
						{
							"internalType": "address",
							"name": "target",
							"type": "address"
						}
					],
					"name": "removePartner",
					"outputs": [],
					"stateMutability": "nonpayable",
					"type": "function"
				},
				{
					"inputs": [],
					"name": "renounceOwnership",
					"outputs": [],
					"stateMutability": "nonpayable",
					"type": "function"
				},
				{
					"inputs": [
						{
							"internalType": "address",
							"name": "target",
							"type": "address"
						},
						{
							"internalType": "uint256",
							"name": "amount",
							"type": "uint256"
						}
					],
					"name": "rewardPoints",
					"outputs": [],
					"stateMutability": "nonpayable",
					"type": "function"
				},
				{
					"inputs": [],
					"name": "symbol",
					"outputs": [
						{
							"internalType": "string",
							"name": "",
							"type": "string"
						}
					],
					"stateMutability": "view",
					"type": "function"
				},
				{
					"inputs": [],
					"name": "totalSupply",
					"outputs": [
						{
							"internalType": "uint256",
							"name": "",
							"type": "uint256"
						}
					],
					"stateMutability": "view",
					"type": "function"
				},
				{
					"inputs": [
						{
							"internalType": "address",
							"name": "target",
							"type": "address"
						}
					],
					"name": "tranferOwnership",
					"outputs": [],
					"stateMutability": "nonpayable",
					"type": "function"
				},
				{
					"inputs": [
						{
							"internalType": "address",
							"name": "_to",
							"type": "address"
						},
						{
							"internalType": "uint256",
							"name": "_value",
							"type": "uint256"
						}
					],
					"name": "transfer",
					"outputs": [
						{
							"internalType": "bool",
							"name": "success",
							"type": "bool"
						}
					],
					"stateMutability": "nonpayable",
					"type": "function"
				}
			],
			"devdoc": {
				"kind": "dev",
				"methods": {},
				"version": 1
			},
			"evm": {
				"assembly": "    /* \"Assignments/Lecture 7/RewardPointsInterface.sol\":2150:3435  contract BrewBeanPointsToken is BaseLoyaltyToken {... */\n  mstore(0x40, 0xc0)\n    /* \"Assignments/Lecture 7/RewardPointsInterface.sol\":2206:2462  constructor(string memory _name, string memory _symbol, uint8 _decimals, address _owner, uint256 _minReward) Ownable(_owner) payable {... */\n  mload(0x40)\n  sub(codesize, bytecodeSize)\n  dup1\n  bytecodeSize\n  dup4\n  codecopy\n  dup2\n  dup2\n  add\n  0x40\n  mstore\n  dup2\n  add\n  swap1\n  tag_1\n  swap2\n  swap1\n  tag_2\n  jump\t// in\ntag_1:\n    /* \"Assignments/Lecture 7/RewardPointsInterface.sol\":2323:2329  _owner */\n  dup2\n    /* \"Assignments/Lecture 7/Helpers/Ownable.sol\":164:170  _owner */\n  dup1\n    /* \"Assignments/Lecture 7/Helpers/Ownable.sol\":156:161  owner */\n  0x00\n  0x00\n    /* \"Assignments/Lecture 7/Helpers/Ownable.sol\":156:170  owner = _owner */\n  0x0100\n  exp\n  dup2\n  sload\n  dup2\n  0xffffffffffffffffffffffffffffffffffffffff\n  mul\n  not\n  and\n  swap1\n  dup4\n  0xffffffffffffffffffffffffffffffffffffffff\n  and\n  mul\n  or\n  swap1\n  sstore\n  pop\n    /* \"Assignments/Lecture 7/Helpers/Ownable.sol\":117:178  constructor(address _owner) {... */\n  pop\n    /* \"Assignments/Lecture 7/RewardPointsInterface.sol\":2357:2362  _name */\n  dup5\n    /* \"Assignments/Lecture 7/RewardPointsInterface.sol\":2350:2354  name */\n  0x01\n    /* \"Assignments/Lecture 7/RewardPointsInterface.sol\":2350:2362  name = _name */\n  swap1\n  dup2\n  tag_7\n  swap2\n  swap1\n  tag_8\n  jump\t// in\ntag_7:\n  pop\n    /* \"Assignments/Lecture 7/RewardPointsInterface.sol\":2412:2421  _decimals */\n  dup3\n    /* \"Assignments/Lecture 7/RewardPointsInterface.sol\":2401:2421  decimals = _decimals */\n  0xff\n  and\n  0x80\n  dup2\n  0xff\n  and\n  dup2\n  mstore\n  pop\n  pop\n    /* \"Assignments/Lecture 7/RewardPointsInterface.sol\":2444:2454  _minReward */\n  dup1\n    /* \"Assignments/Lecture 7/RewardPointsInterface.sol\":2432:2454  minReward = _minReward */\n  0xa0\n  dup2\n  dup2\n  mstore\n  pop\n  pop\n    /* \"Assignments/Lecture 7/RewardPointsInterface.sol\":2206:2462  constructor(string memory _name, string memory _symbol, uint8 _decimals, address _owner, uint256 _minReward) Ownable(_owner) payable {... */\n  pop\n  pop\n  pop\n  pop\n  pop\n    /* \"Assignments/Lecture 7/RewardPointsInterface.sol\":2150:3435  contract BrewBeanPointsToken is BaseLoyaltyToken {... */\n  jump(tag_9)\n    /* \"#utility.yul\":7:82   */\ntag_10:\n    /* \"#utility.yul\":40:46   */\n  0x00\n    /* \"#utility.yul\":73:75   */\n  0x40\n    /* \"#utility.yul\":67:76   */\n  mload\n    /* \"#utility.yul\":57:76   */\n  swap1\n  pop\n    /* \"#utility.yul\":7:82   */\n  swap1\n  jump\t// out\n    /* \"#utility.yul\":88:205   */\ntag_11:\n    /* \"#utility.yul\":197:198   */\n  0x00\n    /* \"#utility.yul\":194:195   */\n  0x00\n    /* \"#utility.yul\":187:199   */\n  revert\n    /* \"#utility.yul\":211:328   */\ntag_12:\n    /* \"#utility.yul\":320:321   */\n  0x00\n    /* \"#utility.yul\":317:318   */\n  0x00\n    /* \"#utility.yul\":310:322   */\n  revert\n    /* \"#utility.yul\":334:451   */\ntag_13:\n    /* \"#utility.yul\":443:444   */\n  0x00\n    /* \"#utility.yul\":440:441   */\n  0x00\n    /* \"#utility.yul\":433:445   */\n  revert\n    /* \"#utility.yul\":457:574   */\ntag_14:\n    /* \"#utility.yul\":566:567   */\n  0x00\n    /* \"#utility.yul\":563:564   */\n  0x00\n    /* \"#utility.yul\":556:568   */\n  revert\n    /* \"#utility.yul\":580:682   */\ntag_15:\n    /* \"#utility.yul\":621:627   */\n  0x00\n    /* \"#utility.yul\":672:674   */\n  0x1f\n    /* \"#utility.yul\":668:675   */\n  not\n    /* \"#utility.yul\":663:665   */\n  0x1f\n    /* \"#utility.yul\":656:661   */\n  dup4\n    /* \"#utility.yul\":652:666   */\n  add\n    /* \"#utility.yul\":648:676   */\n  and\n    /* \"#utility.yul\":638:676   */\n  swap1\n  pop\n    /* \"#utility.yul\":580:682   */\n  swap2\n  swap1\n  pop\n  jump\t// out\n    /* \"#utility.yul\":688:868   */\ntag_16:\n    /* \"#utility.yul\":736:813   */\n  0x4e487b7100000000000000000000000000000000000000000000000000000000\n    /* \"#utility.yul\":733:734   */\n  0x00\n    /* \"#utility.yul\":726:814   */\n  mstore\n    /* \"#utility.yul\":833:837   */\n  0x41\n    /* \"#utility.yul\":830:831   */\n  0x04\n    /* \"#utility.yul\":823:838   */\n  mstore\n    /* \"#utility.yul\":857:861   */\n  0x24\n    /* \"#utility.yul\":854:855   */\n  0x00\n    /* \"#utility.yul\":847:862   */\n  revert\n    /* \"#utility.yul\":874:1155   */\ntag_17:\n    /* \"#utility.yul\":957:984   */\n  tag_60\n    /* \"#utility.yul\":979:983   */\n  dup3\n    /* \"#utility.yul\":957:984   */\n  tag_15\n  jump\t// in\ntag_60:\n    /* \"#utility.yul\":949:955   */\n  dup2\n    /* \"#utility.yul\":945:985   */\n  add\n    /* \"#utility.yul\":1087:1093   */\n  dup2\n    /* \"#utility.yul\":1075:1085   */\n  dup2\n    /* \"#utility.yul\":1072:1094   */\n  lt\n    /* \"#utility.yul\":1051:1069   */\n  0xffffffffffffffff\n    /* \"#utility.yul\":1039:1049   */\n  dup3\n    /* \"#utility.yul\":1036:1070   */\n  gt\n    /* \"#utility.yul\":1033:1095   */\n  or\n    /* \"#utility.yul\":1030:1118   */\n  iszero\n  tag_61\n  jumpi\n    /* \"#utility.yul\":1098:1116   */\n  tag_62\n  tag_16\n  jump\t// in\ntag_62:\n    /* \"#utility.yul\":1030:1118   */\ntag_61:\n    /* \"#utility.yul\":1138:1148   */\n  dup1\n    /* \"#utility.yul\":1134:1136   */\n  0x40\n    /* \"#utility.yul\":1127:1149   */\n  mstore\n    /* \"#utility.yul\":917:1155   */\n  pop\n    /* \"#utility.yul\":874:1155   */\n  pop\n  pop\n  jump\t// out\n    /* \"#utility.yul\":1161:1290   */\ntag_18:\n    /* \"#utility.yul\":1195:1201   */\n  0x00\n    /* \"#utility.yul\":1222:1242   */\n  tag_64\n  tag_10\n  jump\t// in\ntag_64:\n    /* \"#utility.yul\":1212:1242   */\n  swap1\n  pop\n    /* \"#utility.yul\":1251:1284   */\n  tag_65\n    /* \"#utility.yul\":1279:1283   */\n  dup3\n    /* \"#utility.yul\":1271:1277   */\n  dup3\n    /* \"#utility.yul\":1251:1284   */\n  tag_17\n  jump\t// in\ntag_65:\n    /* \"#utility.yul\":1161:1290   */\n  swap2\n  swap1\n  pop\n  jump\t// out\n    /* \"#utility.yul\":1296:1604   */\ntag_19:\n    /* \"#utility.yul\":1358:1362   */\n  0x00\n    /* \"#utility.yul\":1448:1466   */\n  0xffffffffffffffff\n    /* \"#utility.yul\":1440:1446   */\n  dup3\n    /* \"#utility.yul\":1437:1467   */\n  gt\n    /* \"#utility.yul\":1434:1490   */\n  iszero\n  tag_67\n  jumpi\n    /* \"#utility.yul\":1470:1488   */\n  tag_68\n  tag_16\n  jump\t// in\ntag_68:\n    /* \"#utility.yul\":1434:1490   */\ntag_67:\n    /* \"#utility.yul\":1508:1537   */\n  tag_69\n    /* \"#utility.yul\":1530:1536   */\n  dup3\n    /* \"#utility.yul\":1508:1537   */\n  tag_15\n  jump\t// in\ntag_69:\n    /* \"#utility.yul\":1500:1537   */\n  swap1\n  pop\n    /* \"#utility.yul\":1592:1596   */\n  0x20\n    /* \"#utility.yul\":1586:1590   */\n  dup2\n    /* \"#utility.yul\":1582:1597   */\n  add\n    /* \"#utility.yul\":1574:1597   */\n  swap1\n  pop\n    /* \"#utility.yul\":1296:1604   */\n  swap2\n  swap1\n  pop\n  jump\t// out\n    /* \"#utility.yul\":1610:1749   */\ntag_20:\n    /* \"#utility.yul\":1699:1705   */\n  dup3\n    /* \"#utility.yul\":1694:1697   */\n  dup2\n    /* \"#utility.yul\":1689:1692   */\n  dup4\n    /* \"#utility.yul\":1683:1706   */\n  mcopy\n    /* \"#utility.yul\":1740:1741   */\n  0x00\n    /* \"#utility.yul\":1731:1737   */\n  dup4\n    /* \"#utility.yul\":1726:1729   */\n  dup4\n    /* \"#utility.yul\":1722:1738   */\n  add\n    /* \"#utility.yul\":1715:1742   */\n  mstore\n    /* \"#utility.yul\":1610:1749   */\n  pop\n  pop\n  pop\n  jump\t// out\n    /* \"#utility.yul\":1755:2189   */\ntag_21:\n    /* \"#utility.yul\":1844:1849   */\n  0x00\n    /* \"#utility.yul\":1869:1935   */\n  tag_72\n    /* \"#utility.yul\":1885:1934   */\n  tag_73\n    /* \"#utility.yul\":1927:1933   */\n  dup5\n    /* \"#utility.yul\":1885:1934   */\n  tag_19\n  jump\t// in\ntag_73:\n    /* \"#utility.yul\":1869:1935   */\n  tag_18\n  jump\t// in\ntag_72:\n    /* \"#utility.yul\":1860:1935   */\n  swap1\n  pop\n    /* \"#utility.yul\":1958:1964   */\n  dup3\n    /* \"#utility.yul\":1951:1956   */\n  dup2\n    /* \"#utility.yul\":1944:1965   */\n  mstore\n    /* \"#utility.yul\":1996:2000   */\n  0x20\n    /* \"#utility.yul\":1989:1994   */\n  dup2\n    /* \"#utility.yul\":1985:2001   */\n  add\n    /* \"#utility.yul\":2034:2037   */\n  dup5\n    /* \"#utility.yul\":2025:2031   */\n  dup5\n    /* \"#utility.yul\":2020:2023   */\n  dup5\n    /* \"#utility.yul\":2016:2032   */\n  add\n    /* \"#utility.yul\":2013:2038   */\n  gt\n    /* \"#utility.yul\":2010:2122   */\n  iszero\n  tag_74\n  jumpi\n    /* \"#utility.yul\":2041:2120   */\n  tag_75\n  tag_14\n  jump\t// in\ntag_75:\n    /* \"#utility.yul\":2010:2122   */\ntag_74:\n    /* \"#utility.yul\":2131:2183   */\n  tag_76\n    /* \"#utility.yul\":2176:2182   */\n  dup5\n    /* \"#utility.yul\":2171:2174   */\n  dup3\n    /* \"#utility.yul\":2166:2169   */\n  dup6\n    /* \"#utility.yul\":2131:2183   */\n  tag_20\n  jump\t// in\ntag_76:\n    /* \"#utility.yul\":1850:2189   */\n  pop\n    /* \"#utility.yul\":1755:2189   */\n  swap4\n  swap3\n  pop\n  pop\n  pop\n  jump\t// out\n    /* \"#utility.yul\":2209:2564   */\ntag_22:\n    /* \"#utility.yul\":2276:2281   */\n  0x00\n    /* \"#utility.yul\":2325:2328   */\n  dup3\n    /* \"#utility.yul\":2318:2322   */\n  0x1f\n    /* \"#utility.yul\":2310:2316   */\n  dup4\n    /* \"#utility.yul\":2306:2323   */\n  add\n    /* \"#utility.yul\":2302:2329   */\n  slt\n    /* \"#utility.yul\":2292:2414   */\n  tag_78\n  jumpi\n    /* \"#utility.yul\":2333:2412   */\n  tag_79\n  tag_13\n  jump\t// in\ntag_79:\n    /* \"#utility.yul\":2292:2414   */\ntag_78:\n    /* \"#utility.yul\":2443:2449   */\n  dup2\n    /* \"#utility.yul\":2437:2450   */\n  mload\n    /* \"#utility.yul\":2468:2558   */\n  tag_80\n    /* \"#utility.yul\":2554:2557   */\n  dup5\n    /* \"#utility.yul\":2546:2552   */\n  dup3\n    /* \"#utility.yul\":2539:2543   */\n  0x20\n    /* \"#utility.yul\":2531:2537   */\n  dup7\n    /* \"#utility.yul\":2527:2544   */\n  add\n    /* \"#utility.yul\":2468:2558   */\n  tag_21\n  jump\t// in\ntag_80:\n    /* \"#utility.yul\":2459:2558   */\n  swap2\n  pop\n    /* \"#utility.yul\":2282:2564   */\n  pop\n    /* \"#utility.yul\":2209:2564   */\n  swap3\n  swap2\n  pop\n  pop\n  jump\t// out\n    /* \"#utility.yul\":2570:2656   */\ntag_23:\n    /* \"#utility.yul\":2605:2612   */\n  0x00\n    /* \"#utility.yul\":2645:2649   */\n  0xff\n    /* \"#utility.yul\":2638:2643   */\n  dup3\n    /* \"#utility.yul\":2634:2650   */\n  and\n    /* \"#utility.yul\":2623:2650   */\n  swap1\n  pop\n    /* \"#utility.yul\":2570:2656   */\n  swap2\n  swap1\n  pop\n  jump\t// out\n    /* \"#utility.yul\":2662:2780   */\ntag_24:\n    /* \"#utility.yul\":2733:2755   */\n  tag_83\n    /* \"#utility.yul\":2749:2754   */\n  dup2\n    /* \"#utility.yul\":2733:2755   */\n  tag_23\n  jump\t// in\ntag_83:\n    /* \"#utility.yul\":2726:2731   */\n  dup2\n    /* \"#utility.yul\":2723:2756   */\n  eq\n    /* \"#utility.yul\":2713:2774   */\n  tag_84\n  jumpi\n    /* \"#utility.yul\":2770:2771   */\n  0x00\n    /* \"#utility.yul\":2767:2768   */\n  0x00\n    /* \"#utility.yul\":2760:2772   */\n  revert\n    /* \"#utility.yul\":2713:2774   */\ntag_84:\n    /* \"#utility.yul\":2662:2780   */\n  pop\n  jump\t// out\n    /* \"#utility.yul\":2786:2925   */\ntag_25:\n    /* \"#utility.yul\":2841:2846   */\n  0x00\n    /* \"#utility.yul\":2872:2878   */\n  dup2\n    /* \"#utility.yul\":2866:2879   */\n  mload\n    /* \"#utility.yul\":2857:2879   */\n  swap1\n  pop\n    /* \"#utility.yul\":2888:2919   */\n  tag_86\n    /* \"#utility.yul\":2913:2918   */\n  dup2\n    /* \"#utility.yul\":2888:2919   */\n  tag_24\n  jump\t// in\ntag_86:\n    /* \"#utility.yul\":2786:2925   */\n  swap3\n  swap2\n  pop\n  pop\n  jump\t// out\n    /* \"#utility.yul\":2931:3057   */\ntag_26:\n    /* \"#utility.yul\":2968:2975   */\n  0x00\n    /* \"#utility.yul\":3008:3050   */\n  0xffffffffffffffffffffffffffffffffffffffff\n    /* \"#utility.yul\":3001:3006   */\n  dup3\n    /* \"#utility.yul\":2997:3051   */\n  and\n    /* \"#utility.yul\":2986:3051   */\n  swap1\n  pop\n    /* \"#utility.yul\":2931:3057   */\n  swap2\n  swap1\n  pop\n  jump\t// out\n    /* \"#utility.yul\":3063:3159   */\ntag_27:\n    /* \"#utility.yul\":3100:3107   */\n  0x00\n    /* \"#utility.yul\":3129:3153   */\n  tag_89\n    /* \"#utility.yul\":3147:3152   */\n  dup3\n    /* \"#utility.yul\":3129:3153   */\n  tag_26\n  jump\t// in\ntag_89:\n    /* \"#utility.yul\":3118:3153   */\n  swap1\n  pop\n    /* \"#utility.yul\":3063:3159   */\n  swap2\n  swap1\n  pop\n  jump\t// out\n    /* \"#utility.yul\":3165:3287   */\ntag_28:\n    /* \"#utility.yul\":3238:3262   */\n  tag_91\n    /* \"#utility.yul\":3256:3261   */\n  dup2\n    /* \"#utility.yul\":3238:3262   */\n  tag_27\n  jump\t// in\ntag_91:\n    /* \"#utility.yul\":3231:3236   */\n  dup2\n    /* \"#utility.yul\":3228:3263   */\n  eq\n    /* \"#utility.yul\":3218:3281   */\n  tag_92\n  jumpi\n    /* \"#utility.yul\":3277:3278   */\n  0x00\n    /* \"#utility.yul\":3274:3275   */\n  0x00\n    /* \"#utility.yul\":3267:3279   */\n  revert\n    /* \"#utility.yul\":3218:3281   */\ntag_92:\n    /* \"#utility.yul\":3165:3287   */\n  pop\n  jump\t// out\n    /* \"#utility.yul\":3293:3436   */\ntag_29:\n    /* \"#utility.yul\":3350:3355   */\n  0x00\n    /* \"#utility.yul\":3381:3387   */\n  dup2\n    /* \"#utility.yul\":3375:3388   */\n  mload\n    /* \"#utility.yul\":3366:3388   */\n  swap1\n  pop\n    /* \"#utility.yul\":3397:3430   */\n  tag_94\n    /* \"#utility.yul\":3424:3429   */\n  dup2\n    /* \"#utility.yul\":3397:3430   */\n  tag_28\n  jump\t// in\ntag_94:\n    /* \"#utility.yul\":3293:3436   */\n  swap3\n  swap2\n  pop\n  pop\n  jump\t// out\n    /* \"#utility.yul\":3442:3519   */\ntag_30:\n    /* \"#utility.yul\":3479:3486   */\n  0x00\n    /* \"#utility.yul\":3508:3513   */\n  dup2\n    /* \"#utility.yul\":3497:3513   */\n  swap1\n  pop\n    /* \"#utility.yul\":3442:3519   */\n  swap2\n  swap1\n  pop\n  jump\t// out\n    /* \"#utility.yul\":3525:3647   */\ntag_31:\n    /* \"#utility.yul\":3598:3622   */\n  tag_97\n    /* \"#utility.yul\":3616:3621   */\n  dup2\n    /* \"#utility.yul\":3598:3622   */\n  tag_30\n  jump\t// in\ntag_97:\n    /* \"#utility.yul\":3591:3596   */\n  dup2\n    /* \"#utility.yul\":3588:3623   */\n  eq\n    /* \"#utility.yul\":3578:3641   */\n  tag_98\n  jumpi\n    /* \"#utility.yul\":3637:3638   */\n  0x00\n    /* \"#utility.yul\":3634:3635   */\n  0x00\n    /* \"#utility.yul\":3627:3639   */\n  revert\n    /* \"#utility.yul\":3578:3641   */\ntag_98:\n    /* \"#utility.yul\":3525:3647   */\n  pop\n  jump\t// out\n    /* \"#utility.yul\":3653:3796   */\ntag_32:\n    /* \"#utility.yul\":3710:3715   */\n  0x00\n    /* \"#utility.yul\":3741:3747   */\n  dup2\n    /* \"#utility.yul\":3735:3748   */\n  mload\n    /* \"#utility.yul\":3726:3748   */\n  swap1\n  pop\n    /* \"#utility.yul\":3757:3790   */\n  tag_100\n    /* \"#utility.yul\":3784:3789   */\n  dup2\n    /* \"#utility.yul\":3757:3790   */\n  tag_31\n  jump\t// in\ntag_100:\n    /* \"#utility.yul\":3653:3796   */\n  swap3\n  swap2\n  pop\n  pop\n  jump\t// out\n    /* \"#utility.yul\":3802:5121   */\ntag_2:\n    /* \"#utility.yul\":3926:3932   */\n  0x00\n    /* \"#utility.yul\":3934:3940   */\n  0x00\n    /* \"#utility.yul\":3942:3948   */\n  0x00\n    /* \"#utility.yul\":3950:3956   */\n  0x00\n    /* \"#utility.yul\":3958:3964   */\n  0x00\n    /* \"#utility.yul\":4007:4010   */\n  0xa0\n    /* \"#utility.yul\":3995:4004   */\n  dup7\n    /* \"#utility.yul\":3986:3993   */\n  dup9\n    /* \"#utility.yul\":3982:4005   */\n  sub\n    /* \"#utility.yul\":3978:4011   */\n  slt\n    /* \"#utility.yul\":3975:4095   */\n  iszero\n  tag_102\n  jumpi\n    /* \"#utility.yul\":4014:4093   */\n  tag_103\n  tag_11\n  jump\t// in\ntag_103:\n    /* \"#utility.yul\":3975:4095   */\ntag_102:\n    /* \"#utility.yul\":4155:4156   */\n  0x00\n    /* \"#utility.yul\":4144:4153   */\n  dup7\n    /* \"#utility.yul\":4140:4157   */\n  add\n    /* \"#utility.yul\":4134:4158   */\n  mload\n    /* \"#utility.yul\":4185:4203   */\n  0xffffffffffffffff\n    /* \"#utility.yul\":4177:4183   */\n  dup2\n    /* \"#utility.yul\":4174:4204   */\n  gt\n    /* \"#utility.yul\":4171:4288   */\n  iszero\n  tag_104\n  jumpi\n    /* \"#utility.yul\":4207:4286   */\n  tag_105\n  tag_12\n  jump\t// in\ntag_105:\n    /* \"#utility.yul\":4171:4288   */\ntag_104:\n    /* \"#utility.yul\":4312:4386   */\n  tag_106\n    /* \"#utility.yul\":4378:4385   */\n  dup9\n    /* \"#utility.yul\":4369:4375   */\n  dup3\n    /* \"#utility.yul\":4358:4367   */\n  dup10\n    /* \"#utility.yul\":4354:4376   */\n  add\n    /* \"#utility.yul\":4312:4386   */\n  tag_22\n  jump\t// in\ntag_106:\n    /* \"#utility.yul\":4302:4386   */\n  swap6\n  pop\n    /* \"#utility.yul\":4105:4396   */\n  pop\n    /* \"#utility.yul\":4456:4458   */\n  0x20\n    /* \"#utility.yul\":4445:4454   */\n  dup7\n    /* \"#utility.yul\":4441:4459   */\n  add\n    /* \"#utility.yul\":4435:4460   */\n  mload\n    /* \"#utility.yul\":4487:4505   */\n  0xffffffffffffffff\n    /* \"#utility.yul\":4479:4485   */\n  dup2\n    /* \"#utility.yul\":4476:4506   */\n  gt\n    /* \"#utility.yul\":4473:4590   */\n  iszero\n  tag_107\n  jumpi\n    /* \"#utility.yul\":4509:4588   */\n  tag_108\n  tag_12\n  jump\t// in\ntag_108:\n    /* \"#utility.yul\":4473:4590   */\ntag_107:\n    /* \"#utility.yul\":4614:4688   */\n  tag_109\n    /* \"#utility.yul\":4680:4687   */\n  dup9\n    /* \"#utility.yul\":4671:4677   */\n  dup3\n    /* \"#utility.yul\":4660:4669   */\n  dup10\n    /* \"#utility.yul\":4656:4678   */\n  add\n    /* \"#utility.yul\":4614:4688   */\n  tag_22\n  jump\t// in\ntag_109:\n    /* \"#utility.yul\":4604:4688   */\n  swap5\n  pop\n    /* \"#utility.yul\":4406:4698   */\n  pop\n    /* \"#utility.yul\":4737:4739   */\n  0x40\n    /* \"#utility.yul\":4763:4825   */\n  tag_110\n    /* \"#utility.yul\":4817:4824   */\n  dup9\n    /* \"#utility.yul\":4808:4814   */\n  dup3\n    /* \"#utility.yul\":4797:4806   */\n  dup10\n    /* \"#utility.yul\":4793:4815   */\n  add\n    /* \"#utility.yul\":4763:4825   */\n  tag_25\n  jump\t// in\ntag_110:\n    /* \"#utility.yul\":4753:4825   */\n  swap4\n  pop\n    /* \"#utility.yul\":4708:4835   */\n  pop\n    /* \"#utility.yul\":4874:4876   */\n  0x60\n    /* \"#utility.yul\":4900:4964   */\n  tag_111\n    /* \"#utility.yul\":4956:4963   */\n  dup9\n    /* \"#utility.yul\":4947:4953   */\n  dup3\n    /* \"#utility.yul\":4936:4945   */\n  dup10\n    /* \"#utility.yul\":4932:4954   */\n  add\n    /* \"#utility.yul\":4900:4964   */\n  tag_29\n  jump\t// in\ntag_111:\n    /* \"#utility.yul\":4890:4964   */\n  swap3\n  pop\n    /* \"#utility.yul\":4845:4974   */\n  pop\n    /* \"#utility.yul\":5013:5016   */\n  0x80\n    /* \"#utility.yul\":5040:5104   */\n  tag_112\n    /* \"#utility.yul\":5096:5103   */\n  dup9\n    /* \"#utility.yul\":5087:5093   */\n  dup3\n    /* \"#utility.yul\":5076:5085   */\n  dup10\n    /* \"#utility.yul\":5072:5094   */\n  add\n    /* \"#utility.yul\":5040:5104   */\n  tag_32\n  jump\t// in\ntag_112:\n    /* \"#utility.yul\":5030:5104   */\n  swap2\n  pop\n    /* \"#utility.yul\":4984:5114   */\n  pop\n    /* \"#utility.yul\":3802:5121   */\n  swap3\n  swap6\n  pop\n  swap3\n  swap6\n  swap1\n  swap4\n  pop\n  jump\t// out\n    /* \"#utility.yul\":5127:5226   */\ntag_33:\n    /* \"#utility.yul\":5179:5185   */\n  0x00\n    /* \"#utility.yul\":5213:5218   */\n  dup2\n    /* \"#utility.yul\":5207:5219   */\n  mload\n    /* \"#utility.yul\":5197:5219   */\n  swap1\n  pop\n    /* \"#utility.yul\":5127:5226   */\n  swap2\n  swap1\n  pop\n  jump\t// out\n    /* \"#utility.yul\":5232:5412   */\ntag_34:\n    /* \"#utility.yul\":5280:5357   */\n  0x4e487b7100000000000000000000000000000000000000000000000000000000\n    /* \"#utility.yul\":5277:5278   */\n  0x00\n    /* \"#utility.yul\":5270:5358   */\n  mstore\n    /* \"#utility.yul\":5377:5381   */\n  0x22\n    /* \"#utility.yul\":5374:5375   */\n  0x04\n    /* \"#utility.yul\":5367:5382   */\n  mstore\n    /* \"#utility.yul\":5401:5405   */\n  0x24\n    /* \"#utility.yul\":5398:5399   */\n  0x00\n    /* \"#utility.yul\":5391:5406   */\n  revert\n    /* \"#utility.yul\":5418:5738   */\ntag_35:\n    /* \"#utility.yul\":5462:5468   */\n  0x00\n    /* \"#utility.yul\":5499:5500   */\n  0x02\n    /* \"#utility.yul\":5493:5497   */\n  dup3\n    /* \"#utility.yul\":5489:5501   */\n  div\n    /* \"#utility.yul\":5479:5501   */\n  swap1\n  pop\n    /* \"#utility.yul\":5546:5547   */\n  0x01\n    /* \"#utility.yul\":5540:5544   */\n  dup3\n    /* \"#utility.yul\":5536:5548   */\n  and\n    /* \"#utility.yul\":5567:5585   */\n  dup1\n    /* \"#utility.yul\":5557:5638   */\n  tag_116\n  jumpi\n    /* \"#utility.yul\":5623:5627   */\n  0x7f\n    /* \"#utility.yul\":5615:5621   */\n  dup3\n    /* \"#utility.yul\":5611:5628   */\n  and\n    /* \"#utility.yul\":5601:5628   */\n  swap2\n  pop\n    /* \"#utility.yul\":5557:5638   */\ntag_116:\n    /* \"#utility.yul\":5685:5687   */\n  0x20\n    /* \"#utility.yul\":5677:5683   */\n  dup3\n    /* \"#utility.yul\":5674:5688   */\n  lt\n    /* \"#utility.yul\":5654:5672   */\n  dup2\n    /* \"#utility.yul\":5651:5689   */\n  sub\n    /* \"#utility.yul\":5648:5732   */\n  tag_117\n  jumpi\n    /* \"#utility.yul\":5704:5722   */\n  tag_118\n  tag_34\n  jump\t// in\ntag_118:\n    /* \"#utility.yul\":5648:5732   */\ntag_117:\n    /* \"#utility.yul\":5469:5738   */\n  pop\n    /* \"#utility.yul\":5418:5738   */\n  swap2\n  swap1\n  pop\n  jump\t// out\n    /* \"#utility.yul\":5744:5885   */\ntag_36:\n    /* \"#utility.yul\":5793:5797   */\n  0x00\n    /* \"#utility.yul\":5816:5819   */\n  dup2\n    /* \"#utility.yul\":5808:5819   */\n  swap1\n  pop\n    /* \"#utility.yul\":5839:5842   */\n  dup2\n    /* \"#utility.yul\":5836:5837   */\n  0x00\n    /* \"#utility.yul\":5829:5843   */\n  mstore\n    /* \"#utility.yul\":5873:5877   */\n  0x20\n    /* \"#utility.yul\":5870:5871   */\n  0x00\n    /* \"#utility.yul\":5860:5878   */\n  keccak256\n    /* \"#utility.yul\":5852:5878   */\n  swap1\n  pop\n    /* \"#utility.yul\":5744:5885   */\n  swap2\n  swap1\n  pop\n  jump\t// out\n    /* \"#utility.yul\":5891:5984   */\ntag_37:\n    /* \"#utility.yul\":5928:5934   */\n  0x00\n    /* \"#utility.yul\":5975:5977   */\n  0x20\n    /* \"#utility.yul\":5970:5972   */\n  0x1f\n    /* \"#utility.yul\":5963:5968   */\n  dup4\n    /* \"#utility.yul\":5959:5973   */\n  add\n    /* \"#utility.yul\":5955:5978   */\n  div\n    /* \"#utility.yul\":5945:5978   */\n  swap1\n  pop\n    /* \"#utility.yul\":5891:5984   */\n  swap2\n  swap1\n  pop\n  jump\t// out\n    /* \"#utility.yul\":5990:6097   */\ntag_38:\n    /* \"#utility.yul\":6034:6042   */\n  0x00\n    /* \"#utility.yul\":6084:6089   */\n  dup3\n    /* \"#utility.yul\":6078:6082   */\n  dup3\n    /* \"#utility.yul\":6074:6090   */\n  shl\n    /* \"#utility.yul\":6053:6090   */\n  swap1\n  pop\n    /* \"#utility.yul\":5990:6097   */\n  swap3\n  swap2\n  pop\n  pop\n  jump\t// out\n    /* \"#utility.yul\":6103:6496   */\ntag_39:\n    /* \"#utility.yul\":6172:6178   */\n  0x00\n    /* \"#utility.yul\":6222:6223   */\n  0x08\n    /* \"#utility.yul\":6210:6220   */\n  dup4\n    /* \"#utility.yul\":6206:6224   */\n  mul\n    /* \"#utility.yul\":6245:6342   */\n  tag_123\n    /* \"#utility.yul\":6275:6341   */\n  0xffffffffffffffffffffffffffffffffffffffffffffffffffffffffffffffff\n    /* \"#utility.yul\":6264:6273   */\n  dup3\n    /* \"#utility.yul\":6245:6342   */\n  tag_38\n  jump\t// in\ntag_123:\n    /* \"#utility.yul\":6363:6402   */\n  tag_124\n    /* \"#utility.yul\":6393:6401   */\n  dup7\n    /* \"#utility.yul\":6382:6391   */\n  dup4\n    /* \"#utility.yul\":6363:6402   */\n  tag_38\n  jump\t// in\ntag_124:\n    /* \"#utility.yul\":6351:6402   */\n  swap6\n  pop\n    /* \"#utility.yul\":6435:6439   */\n  dup1\n    /* \"#utility.yul\":6431:6440   */\n  not\n    /* \"#utility.yul\":6424:6429   */\n  dup5\n    /* \"#utility.yul\":6420:6441   */\n  and\n    /* \"#utility.yul\":6411:6441   */\n  swap4\n  pop\n    /* \"#utility.yul\":6484:6488   */\n  dup1\n    /* \"#utility.yul\":6474:6482   */\n  dup7\n    /* \"#utility.yul\":6470:6489   */\n  and\n    /* \"#utility.yul\":6463:6468   */\n  dup5\n    /* \"#utility.yul\":6460:6490   */\n  or\n    /* \"#utility.yul\":6450:6490   */\n  swap3\n  pop\n    /* \"#utility.yul\":6179:6496   */\n  pop\n  pop\n    /* \"#utility.yul\":6103:6496   */\n  swap4\n  swap3\n  pop\n  pop\n  pop\n  jump\t// out\n    /* \"#utility.yul\":6502:6562   */\ntag_40:\n    /* \"#utility.yul\":6530:6533   */\n  0x00\n    /* \"#utility.yul\":6551:6556   */\n  dup2\n    /* \"#utility.yul\":6544:6556   */\n  swap1\n  pop\n    /* \"#utility.yul\":6502:6562   */\n  swap2\n  swap1\n  pop\n  jump\t// out\n    /* \"#utility.yul\":6568:6710   */\ntag_41:\n    /* \"#utility.yul\":6618:6627   */\n  0x00\n    /* \"#utility.yul\":6651:6704   */\n  tag_127\n    /* \"#utility.yul\":6669:6703   */\n  tag_128\n    /* \"#utility.yul\":6678:6702   */\n  tag_129\n    /* \"#utility.yul\":6696:6701   */\n  dup5\n    /* \"#utility.yul\":6678:6702   */\n  tag_30\n  jump\t// in\ntag_129:\n    /* \"#utility.yul\":6669:6703   */\n  tag_40\n  jump\t// in\ntag_128:\n    /* \"#utility.yul\":6651:6704   */\n  tag_30\n  jump\t// in\ntag_127:\n    /* \"#utility.yul\":6638:6704   */\n  swap1\n  pop\n    /* \"#utility.yul\":6568:6710   */\n  swap2\n  swap1\n  pop\n  jump\t// out\n    /* \"#utility.yul\":6716:6791   */\ntag_42:\n    /* \"#utility.yul\":6759:6762   */\n  0x00\n    /* \"#utility.yul\":6780:6785   */\n  dup2\n    /* \"#utility.yul\":6773:6785   */\n  swap1\n  pop\n    /* \"#utility.yul\":6716:6791   */\n  swap2\n  swap1\n  pop\n  jump\t// out\n    /* \"#utility.yul\":6797:7066   */\ntag_43:\n    /* \"#utility.yul\":6907:6946   */\n  tag_132\n    /* \"#utility.yul\":6938:6945   */\n  dup4\n    /* \"#utility.yul\":6907:6946   */\n  tag_41\n  jump\t// in\ntag_132:\n    /* \"#utility.yul\":6968:7059   */\n  tag_133\n    /* \"#utility.yul\":7017:7058   */\n  tag_134\n    /* \"#utility.yul\":7041:7057   */\n  dup3\n    /* \"#utility.yul\":7017:7058   */\n  tag_42\n  jump\t// in\ntag_134:\n    /* \"#utility.yul\":7009:7015   */\n  dup5\n    /* \"#utility.yul\":7002:7006   */\n  dup5\n    /* \"#utility.yul\":6996:7007   */\n  sload\n    /* \"#utility.yul\":6968:7059   */\n  tag_39\n  jump\t// in\ntag_133:\n    /* \"#utility.yul\":6962:6966   */\n  dup3\n    /* \"#utility.yul\":6955:7060   */\n  sstore\n    /* \"#utility.yul\":6873:7066   */\n  pop\n    /* \"#utility.yul\":6797:7066   */\n  pop\n  pop\n  pop\n  jump\t// out\n    /* \"#utility.yul\":7072:7145   */\ntag_44:\n    /* \"#utility.yul\":7117:7120   */\n  0x00\n    /* \"#utility.yul\":7138:7139   */\n  0x00\n    /* \"#utility.yul\":7131:7139   */\n  swap1\n  pop\n    /* \"#utility.yul\":7072:7145   */\n  swap1\n  jump\t// out\n    /* \"#utility.yul\":7151:7340   */\ntag_45:\n    /* \"#utility.yul\":7228:7260   */\n  tag_137\n  tag_44\n  jump\t// in\ntag_137:\n    /* \"#utility.yul\":7269:7334   */\n  tag_138\n    /* \"#utility.yul\":7327:7333   */\n  dup2\n    /* \"#utility.yul\":7319:7325   */\n  dup5\n    /* \"#utility.yul\":7313:7317   */\n  dup5\n    /* \"#utility.yul\":7269:7334   */\n  tag_43\n  jump\t// in\ntag_138:\n    /* \"#utility.yul\":7204:7340   */\n  pop\n    /* \"#utility.yul\":7151:7340   */\n  pop\n  pop\n  jump\t// out\n    /* \"#utility.yul\":7346:7532   */\ntag_46:\n    /* \"#utility.yul\":7406:7526   */\ntag_140:\n    /* \"#utility.yul\":7423:7426   */\n  dup2\n    /* \"#utility.yul\":7416:7421   */\n  dup2\n    /* \"#utility.yul\":7413:7427   */\n  lt\n    /* \"#utility.yul\":7406:7526   */\n  iszero\n  tag_142\n  jumpi\n    /* \"#utility.yul\":7477:7516   */\n  tag_143\n    /* \"#utility.yul\":7514:7515   */\n  0x00\n    /* \"#utility.yul\":7507:7512   */\n  dup3\n    /* \"#utility.yul\":7477:7516   */\n  tag_45\n  jump\t// in\ntag_143:\n    /* \"#utility.yul\":7450:7451   */\n  0x01\n    /* \"#utility.yul\":7443:7448   */\n  dup2\n    /* \"#utility.yul\":7439:7452   */\n  add\n    /* \"#utility.yul\":7430:7452   */\n  swap1\n  pop\n    /* \"#utility.yul\":7406:7526   */\n  jump(tag_140)\ntag_142:\n    /* \"#utility.yul\":7346:7532   */\n  pop\n  pop\n  jump\t// out\n    /* \"#utility.yul\":7538:8081   */\ntag_47:\n    /* \"#utility.yul\":7639:7641   */\n  0x1f\n    /* \"#utility.yul\":7634:7637   */\n  dup3\n    /* \"#utility.yul\":7631:7642   */\n  gt\n    /* \"#utility.yul\":7628:8074   */\n  iszero\n  tag_145\n  jumpi\n    /* \"#utility.yul\":7673:7711   */\n  tag_146\n    /* \"#utility.yul\":7705:7710   */\n  dup2\n    /* \"#utility.yul\":7673:7711   */\n  tag_36\n  jump\t// in\ntag_146:\n    /* \"#utility.yul\":7757:7786   */\n  tag_147\n    /* \"#utility.yul\":7775:7785   */\n  dup5\n    /* \"#utility.yul\":7757:7786   */\n  tag_37\n  jump\t// in\ntag_147:\n    /* \"#utility.yul\":7747:7755   */\n  dup2\n    /* \"#utility.yul\":7743:7787   */\n  add\n    /* \"#utility.yul\":7940:7942   */\n  0x20\n    /* \"#utility.yul\":7928:7938   */\n  dup6\n    /* \"#utility.yul\":7925:7943   */\n  lt\n    /* \"#utility.yul\":7922:7971   */\n  iszero\n  tag_148\n  jumpi\n    /* \"#utility.yul\":7961:7969   */\n  dup2\n    /* \"#utility.yul\":7946:7969   */\n  swap1\n  pop\n    /* \"#utility.yul\":7922:7971   */\ntag_148:\n    /* \"#utility.yul\":7984:8064   */\n  tag_149\n    /* \"#utility.yul\":8040:8062   */\n  tag_150\n    /* \"#utility.yul\":8058:8061   */\n  dup6\n    /* \"#utility.yul\":8040:8062   */\n  tag_37\n  jump\t// in\ntag_150:\n    /* \"#utility.yul\":8030:8038   */\n  dup4\n    /* \"#utility.yul\":8026:8063   */\n  add\n    /* \"#utility.yul\":8013:8024   */\n  dup3\n    /* \"#utility.yul\":7984:8064   */\n  tag_46\n  jump\t// in\ntag_149:\n    /* \"#utility.yul\":7643:8074   */\n  pop\n  pop\n    /* \"#utility.yul\":7628:8074   */\ntag_145:\n    /* \"#utility.yul\":7538:8081   */\n  pop\n  pop\n  pop\n  jump\t// out\n    /* \"#utility.yul\":8087:8204   */\ntag_48:\n    /* \"#utility.yul\":8141:8149   */\n  0x00\n    /* \"#utility.yul\":8191:8196   */\n  dup3\n    /* \"#utility.yul\":8185:8189   */\n  dup3\n    /* \"#utility.yul\":8181:8197   */\n  shr\n    /* \"#utility.yul\":8160:8197   */\n  swap1\n  pop\n    /* \"#utility.yul\":8087:8204   */\n  swap3\n  swap2\n  pop\n  pop\n  jump\t// out\n    /* \"#utility.yul\":8210:8379   */\ntag_49:\n    /* \"#utility.yul\":8254:8260   */\n  0x00\n    /* \"#utility.yul\":8287:8338   */\n  tag_153\n    /* \"#utility.yul\":8335:8336   */\n  0x00\n    /* \"#utility.yul\":8331:8337   */\n  not\n    /* \"#utility.yul\":8323:8328   */\n  dup5\n    /* \"#utility.yul\":8320:8321   */\n  0x08\n    /* \"#utility.yul\":8316:8329   */\n  mul\n    /* \"#utility.yul\":8287:8338   */\n  tag_48\n  jump\t// in\ntag_153:\n    /* \"#utility.yul\":8283:8339   */\n  not\n    /* \"#utility.yul\":8368:8372   */\n  dup1\n    /* \"#utility.yul\":8362:8366   */\n  dup4\n    /* \"#utility.yul\":8358:8373   */\n  and\n    /* \"#utility.yul\":8348:8373   */\n  swap2\n  pop\n    /* \"#utility.yul\":8261:8379   */\n  pop\n    /* \"#utility.yul\":8210:8379   */\n  swap3\n  swap2\n  pop\n  pop\n  jump\t// out\n    /* \"#utility.yul\":8384:8679   */\ntag_50:\n    /* \"#utility.yul\":8460:8464   */\n  0x00\n    /* \"#utility.yul\":8606:8635   */\n  tag_155\n    /* \"#utility.yul\":8631:8634   */\n  dup4\n    /* \"#utility.yul\":8625:8629   */\n  dup4\n    /* \"#utility.yul\":8606:8635   */\n  tag_49\n  jump\t// in\ntag_155:\n    /* \"#utility.yul\":8598:8635   */\n  swap2\n  pop\n    /* \"#utility.yul\":8668:8671   */\n  dup3\n    /* \"#utility.yul\":8665:8666   */\n  0x02\n    /* \"#utility.yul\":8661:8672   */\n  mul\n    /* \"#utility.yul\":8655:8659   */\n  dup3\n    /* \"#utility.yul\":8652:8673   */\n  or\n    /* \"#utility.yul\":8644:8673   */\n  swap1\n  pop\n    /* \"#utility.yul\":8384:8679   */\n  swap3\n  swap2\n  pop\n  pop\n  jump\t// out\n    /* \"#utility.yul\":8684:10079   */\ntag_8:\n    /* \"#utility.yul\":8801:8838   */\n  tag_157\n    /* \"#utility.yul\":8834:8837   */\n  dup3\n    /* \"#utility.yul\":8801:8838   */\n  tag_33\n  jump\t// in\ntag_157:\n    /* \"#utility.yul\":8903:8921   */\n  0xffffffffffffffff\n    /* \"#utility.yul\":8895:8901   */\n  dup2\n    /* \"#utility.yul\":8892:8922   */\n  gt\n    /* \"#utility.yul\":8889:8945   */\n  iszero\n  tag_158\n  jumpi\n    /* \"#utility.yul\":8925:8943   */\n  tag_159\n  tag_16\n  jump\t// in\ntag_159:\n    /* \"#utility.yul\":8889:8945   */\ntag_158:\n    /* \"#utility.yul\":8969:9007   */\n  tag_160\n    /* \"#utility.yul\":9001:9005   */\n  dup3\n    /* \"#utility.yul\":8995:9006   */\n  sload\n    /* \"#utility.yul\":8969:9007   */\n  tag_35\n  jump\t// in\ntag_160:\n    /* \"#utility.yul\":9054:9121   */\n  tag_161\n    /* \"#utility.yul\":9114:9120   */\n  dup3\n    /* \"#utility.yul\":9106:9112   */\n  dup3\n    /* \"#utility.yul\":9100:9104   */\n  dup6\n    /* \"#utility.yul\":9054:9121   */\n  tag_47\n  jump\t// in\ntag_161:\n    /* \"#utility.yul\":9148:9149   */\n  0x00\n    /* \"#utility.yul\":9172:9176   */\n  0x20\n    /* \"#utility.yul\":9159:9176   */\n  swap1\n  pop\n    /* \"#utility.yul\":9204:9206   */\n  0x1f\n    /* \"#utility.yul\":9196:9202   */\n  dup4\n    /* \"#utility.yul\":9193:9207   */\n  gt\n    /* \"#utility.yul\":9221:9222   */\n  0x01\n    /* \"#utility.yul\":9216:9834   */\n  dup2\n  eq\n  tag_163\n  jumpi\n    /* \"#utility.yul\":9878:9879   */\n  0x00\n    /* \"#utility.yul\":9895:9901   */\n  dup5\n    /* \"#utility.yul\":9892:9969   */\n  iszero\n  tag_164\n  jumpi\n    /* \"#utility.yul\":9944:9953   */\n  dup3\n    /* \"#utility.yul\":9939:9942   */\n  dup8\n    /* \"#utility.yul\":9935:9954   */\n  add\n    /* \"#utility.yul\":9929:9955   */\n  mload\n    /* \"#utility.yul\":9920:9955   */\n  swap1\n  pop\n    /* \"#utility.yul\":9892:9969   */\ntag_164:\n    /* \"#utility.yul\":9995:10062   */\n  tag_165\n    /* \"#utility.yul\":10055:10061   */\n  dup6\n    /* \"#utility.yul\":10048:10053   */\n  dup3\n    /* \"#utility.yul\":9995:10062   */\n  tag_50\n  jump\t// in\ntag_165:\n    /* \"#utility.yul\":9989:9993   */\n  dup7\n    /* \"#utility.yul\":9982:10063   */\n  sstore\n    /* \"#utility.yul\":9851:10073   */\n  pop\n    /* \"#utility.yul\":9186:10073   */\n  jump(tag_162)\n    /* \"#utility.yul\":9216:9834   */\ntag_163:\n    /* \"#utility.yul\":9268:9272   */\n  0x1f\n    /* \"#utility.yul\":9264:9273   */\n  not\n    /* \"#utility.yul\":9256:9262   */\n  dup5\n    /* \"#utility.yul\":9252:9274   */\n  and\n    /* \"#utility.yul\":9302:9339   */\n  tag_166\n    /* \"#utility.yul\":9334:9338   */\n  dup7\n    /* \"#utility.yul\":9302:9339   */\n  tag_36\n  jump\t// in\ntag_166:\n    /* \"#utility.yul\":9361:9362   */\n  0x00\n    /* \"#utility.yul\":9375:9583   */\ntag_167:\n    /* \"#utility.yul\":9389:9396   */\n  dup3\n    /* \"#utility.yul\":9386:9387   */\n  dup2\n    /* \"#utility.yul\":9383:9397   */\n  lt\n    /* \"#utility.yul\":9375:9583   */\n  iszero\n  tag_169\n  jumpi\n    /* \"#utility.yul\":9468:9477   */\n  dup5\n    /* \"#utility.yul\":9463:9466   */\n  dup10\n    /* \"#utility.yul\":9459:9478   */\n  add\n    /* \"#utility.yul\":9453:9479   */\n  mload\n    /* \"#utility.yul\":9445:9451   */\n  dup3\n    /* \"#utility.yul\":9438:9480   */\n  sstore\n    /* \"#utility.yul\":9519:9520   */\n  0x01\n    /* \"#utility.yul\":9511:9517   */\n  dup3\n    /* \"#utility.yul\":9507:9521   */\n  add\n    /* \"#utility.yul\":9497:9521   */\n  swap2\n  pop\n    /* \"#utility.yul\":9566:9568   */\n  0x20\n    /* \"#utility.yul\":9555:9564   */\n  dup6\n    /* \"#utility.yul\":9551:9569   */\n  add\n    /* \"#utility.yul\":9538:9569   */\n  swap5\n  pop\n    /* \"#utility.yul\":9412:9416   */\n  0x20\n    /* \"#utility.yul\":9409:9410   */\n  dup2\n    /* \"#utility.yul\":9405:9417   */\n  add\n    /* \"#utility.yul\":9400:9417   */\n  swap1\n  pop\n    /* \"#utility.yul\":9375:9583   */\n  jump(tag_167)\ntag_169:\n    /* \"#utility.yul\":9611:9617   */\n  dup7\n    /* \"#utility.yul\":9602:9609   */\n  dup4\n    /* \"#utility.yul\":9599:9618   */\n  lt\n    /* \"#utility.yul\":9596:9775   */\n  iszero\n  tag_170\n  jumpi\n    /* \"#utility.yul\":9669:9678   */\n  dup5\n    /* \"#utility.yul\":9664:9667   */\n  dup10\n    /* \"#utility.yul\":9660:9679   */\n  add\n    /* \"#utility.yul\":9654:9680   */\n  mload\n    /* \"#utility.yul\":9712:9760   */\n  tag_171\n    /* \"#utility.yul\":9754:9758   */\n  0x1f\n    /* \"#utility.yul\":9746:9752   */\n  dup10\n    /* \"#utility.yul\":9742:9759   */\n  and\n    /* \"#utility.yul\":9731:9740   */\n  dup3\n    /* \"#utility.yul\":9712:9760   */\n  tag_49\n  jump\t// in\ntag_171:\n    /* \"#utility.yul\":9704:9710   */\n  dup4\n    /* \"#utility.yul\":9697:9761   */\n  sstore\n    /* \"#utility.yul\":9619:9775   */\n  pop\n    /* \"#utility.yul\":9596:9775   */\ntag_170:\n    /* \"#utility.yul\":9821:9822   */\n  0x01\n    /* \"#utility.yul\":9817:9818   */\n  0x02\n    /* \"#utility.yul\":9809:9815   */\n  dup9\n    /* \"#utility.yul\":9805:9819   */\n  mul\n    /* \"#utility.yul\":9801:9823   */\n  add\n    /* \"#utility.yul\":9795:9799   */\n  dup9\n    /* \"#utility.yul\":9788:9824   */\n  sstore\n    /* \"#utility.yul\":9223:9834   */\n  pop\n  pop\n  pop\n    /* \"#utility.yul\":9186:10073   */\ntag_162:\n  pop\n    /* \"#utility.yul\":8776:10079   */\n  pop\n  pop\n  pop\n    /* \"#utility.yul\":8684:10079   */\n  pop\n  pop\n  jump\t// out\n    /* \"Assignments/Lecture 7/RewardPointsInterface.sol\":2150:3435  contract BrewBeanPointsToken is BaseLoyaltyToken {... */\ntag_9:\n  mload(0x80)\n  mload(0xa0)\n  codecopy(0x00, dataOffset(sub_0), dataSize(sub_0))\n  0x00\n  assignImmutable(\"0xca1c98d2cee18ab5da51a9df7bbf45ca91ab83c708e48aed82f5115320306ab4\")\n  0x00\n  assignImmutable(\"0xd252627c3a7ddb3e9969d764fe6d38be47e2139c12c223f8ce16b1e3a5ed7dbb\")\n  return(0x00, dataSize(sub_0))\nstop\n\nsub_0: assembly {\n        /* \"Assignments/Lecture 7/RewardPointsInterface.sol\":2150:3435  contract BrewBeanPointsToken is BaseLoyaltyToken {... */\n      mstore(0x40, 0x80)\n      jumpi(tag_1, lt(calldatasize, 0x04))\n      shr(0xe0, calldataload(0x00))\n      dup1\n      0x8bf34237\n      gt\n      tag_18\n      jumpi\n      dup1\n      0xa9059cbb\n      gt\n      tag_19\n      jumpi\n      dup1\n      0xa9059cbb\n      eq\n      tag_14\n      jumpi\n      dup1\n      0xba16d600\n      eq\n      tag_15\n      jumpi\n      dup1\n      0xe92e92e7\n      eq\n      tag_16\n      jumpi\n      dup1\n      0xea3c281a\n      eq\n      tag_17\n      jumpi\n      jump(tag_1)\n    tag_19:\n      dup1\n      0x8bf34237\n      eq\n      tag_10\n      jumpi\n      dup1\n      0x8da5cb5b\n      eq\n      tag_11\n      jumpi\n      dup1\n      0x95c33652\n      eq\n      tag_12\n      jumpi\n      dup1\n      0x95d89b41\n      eq\n      tag_13\n      jumpi\n      jump(tag_1)\n    tag_18:\n      dup1\n      0x6a7dfd1a\n      gt\n      tag_20\n      jumpi\n      dup1\n      0x6a7dfd1a\n      eq\n      tag_6\n      jumpi\n      dup1\n      0x70a08231\n      eq\n      tag_7\n      jumpi\n      dup1\n      0x715018a6\n      eq\n      tag_8\n      jumpi\n      dup1\n      0x83fc58b4\n      eq\n      tag_9\n      jumpi\n      jump(tag_1)\n    tag_20:\n      dup1\n      0x06fdde03\n      eq\n      tag_2\n      jumpi\n      dup1\n      0x18160ddd\n      eq\n      tag_3\n      jumpi\n      dup1\n      0x18a5bbdc\n      eq\n      tag_4\n      jumpi\n      dup1\n      0x313ce567\n      eq\n      tag_5\n      jumpi\n    tag_1:\n      revert(0x00, 0x00)\n        /* \"Assignments/Lecture 7/RewardPointsInterface.sol\":566:584  string public name */\n    tag_2:\n      callvalue\n      dup1\n      iszero\n      tag_21\n      jumpi\n      revert(0x00, 0x00)\n    tag_21:\n      pop\n      tag_22\n      tag_23\n      jump\t// in\n    tag_22:\n      mload(0x40)\n      tag_24\n      swap2\n      swap1\n      tag_25\n      jump\t// in\n    tag_24:\n      mload(0x40)\n      dup1\n      swap2\n      sub\n      swap1\n      return\n        /* \"Assignments/Lecture 7/RewardPointsInterface.sol\":656:682  uint256 public totalSupply */\n    tag_3:\n      callvalue\n      dup1\n      iszero\n      tag_26\n      jumpi\n      revert(0x00, 0x00)\n    tag_26:\n      pop\n      tag_27\n      tag_28\n      jump\t// in\n    tag_27:\n      mload(0x40)\n      tag_29\n      swap2\n      swap1\n      tag_30\n      jump\t// in\n    tag_29:\n      mload(0x40)\n      dup1\n      swap2\n      sub\n      swap1\n      return\n        /* \"Assignments/Lecture 7/RewardPointsInterface.sol\":732:774  mapping(address => uint256) public holders */\n    tag_4:\n      callvalue\n      dup1\n      iszero\n      tag_31\n      jumpi\n      revert(0x00, 0x00)\n    tag_31:\n      pop\n      tag_32\n      0x04\n      dup1\n      calldatasize\n      sub\n      dup2\n      add\n      swap1\n      tag_33\n      swap2\n      swap1\n      tag_34\n      jump\t// in\n    tag_33:\n      tag_35\n      jump\t// in\n    tag_32:\n      mload(0x40)\n      tag_36\n      swap2\n      swap1\n      tag_30\n      jump\t// in\n    tag_36:\n      mload(0x40)\n      dup1\n      swap2\n      sub\n      swap1\n      return\n        /* \"Assignments/Lecture 7/RewardPointsInterface.sol\":618:649  uint8 immutable public decimals */\n    tag_5:\n      callvalue\n      dup1\n      iszero\n      tag_37\n      jumpi\n      revert(0x00, 0x00)\n    tag_37:\n      pop\n      tag_38\n      tag_39\n      jump\t// in\n    tag_38:\n      mload(0x40)\n      tag_40\n      swap2\n      swap1\n      tag_41\n      jump\t// in\n    tag_40:\n      mload(0x40)\n      dup1\n      swap2\n      sub\n      swap1\n      return\n        /* \"Assignments/Lecture 7/RewardPointsInterface.sol\":2769:3066  function rewardPoints(address target, uint256 amount) onlyPartner _validateAccount(target) _validateAmount(amount) public virtual {... */\n    tag_6:\n      callvalue\n      dup1\n      iszero\n      tag_42\n      jumpi\n      revert(0x00, 0x00)\n    tag_42:\n      pop\n      tag_43\n      0x04\n      dup1\n      calldatasize\n      sub\n      dup2\n      add\n      swap1\n      tag_44\n      swap2\n      swap1\n      tag_45\n      jump\t// in\n    tag_44:\n      tag_46\n      jump\t// in\n    tag_43:\n      stop\n        /* \"Assignments/Lecture 7/RewardPointsInterface.sol\":1439:1580  function balanceOf(address _owner) _validateAccount(_owner) external view returns (uint256 balance) {... */\n    tag_7:\n      callvalue\n      dup1\n      iszero\n      tag_47\n      jumpi\n      revert(0x00, 0x00)\n    tag_47:\n      pop\n      tag_48\n      0x04\n      dup1\n      calldatasize\n      sub\n      dup2\n      add\n      swap1\n      tag_49\n      swap2\n      swap1\n      tag_34\n      jump\t// in\n    tag_49:\n      tag_50\n      jump\t// in\n    tag_48:\n      mload(0x40)\n      tag_51\n      swap2\n      swap1\n      tag_30\n      jump\t// in\n    tag_51:\n      mload(0x40)\n      dup1\n      swap2\n      sub\n      swap1\n      return\n        /* \"Assignments/Lecture 7/Helpers/Ownable.sol\":594:677  function renounceOwnership() onlyOwner public {... */\n    tag_8:\n      callvalue\n      dup1\n      iszero\n      tag_52\n      jumpi\n      revert(0x00, 0x00)\n    tag_52:\n      pop\n      tag_53\n      tag_54\n      jump\t// in\n    tag_53:\n      stop\n        /* \"Assignments/Lecture 7/Helpers/Ownable.sol\":338:586  function tranferOwnership(address target) onlyOwner public {... */\n    tag_9:\n      callvalue\n      dup1\n      iszero\n      tag_55\n      jumpi\n      revert(0x00, 0x00)\n    tag_55:\n      pop\n      tag_56\n      0x04\n      dup1\n      calldatasize\n      sub\n      dup2\n      add\n      swap1\n      tag_57\n      swap2\n      swap1\n      tag_34\n      jump\t// in\n    tag_57:\n      tag_58\n      jump\t// in\n    tag_56:\n      stop\n        /* \"Assignments/Lecture 7/RewardPointsInterface.sol\":1875:2003  function addPartner(address target) onlyOwner _validateAccount(target) public virtual {... */\n    tag_10:\n      callvalue\n      dup1\n      iszero\n      tag_59\n      jumpi\n      revert(0x00, 0x00)\n    tag_59:\n      pop\n      tag_60\n      0x04\n      dup1\n      calldatasize\n      sub\n      dup2\n      add\n      swap1\n      tag_61\n      swap2\n      swap1\n      tag_34\n      jump\t// in\n    tag_61:\n      tag_62\n      jump\t// in\n    tag_60:\n      stop\n        /* \"Assignments/Lecture 7/Helpers/Ownable.sol\":88:108  address public owner */\n    tag_11:\n      callvalue\n      dup1\n      iszero\n      tag_63\n      jumpi\n      revert(0x00, 0x00)\n    tag_63:\n      pop\n      tag_64\n      tag_65\n      jump\t// in\n    tag_64:\n      mload(0x40)\n      tag_66\n      swap2\n      swap1\n      tag_67\n      jump\t// in\n    tag_66:\n      mload(0x40)\n      dup1\n      swap2\n      sub\n      swap1\n      return\n        /* \"Assignments/Lecture 7/RewardPointsInterface.sol\":781:821  mapping(address => bool) public partners */\n    tag_12:\n      callvalue\n      dup1\n      iszero\n      tag_68\n      jumpi\n      revert(0x00, 0x00)\n    tag_68:\n      pop\n      tag_69\n      0x04\n      dup1\n      calldatasize\n      sub\n      dup2\n      add\n      swap1\n      tag_70\n      swap2\n      swap1\n      tag_34\n      jump\t// in\n    tag_70:\n      tag_71\n      jump\t// in\n    tag_69:\n      mload(0x40)\n      tag_72\n      swap2\n      swap1\n      tag_73\n      jump\t// in\n    tag_72:\n      mload(0x40)\n      dup1\n      swap2\n      sub\n      swap1\n      return\n        /* \"Assignments/Lecture 7/RewardPointsInterface.sol\":591:611  string public symbol */\n    tag_13:\n      callvalue\n      dup1\n      iszero\n      tag_74\n      jumpi\n      revert(0x00, 0x00)\n    tag_74:\n      pop\n      tag_75\n      tag_76\n      jump\t// in\n    tag_75:\n      mload(0x40)\n      tag_77\n      swap2\n      swap1\n      tag_25\n      jump\t// in\n    tag_77:\n      mload(0x40)\n      dup1\n      swap2\n      sub\n      swap1\n      return\n        /* \"Assignments/Lecture 7/RewardPointsInterface.sol\":1588:1867  function transfer(address _to, uint256 _value) _validateAccount(_to) _validateAmount(_value) external returns (bool success) {... */\n    tag_14:\n      callvalue\n      dup1\n      iszero\n      tag_78\n      jumpi\n      revert(0x00, 0x00)\n    tag_78:\n      pop\n      tag_79\n      0x04\n      dup1\n      calldatasize\n      sub\n      dup2\n      add\n      swap1\n      tag_80\n      swap2\n      swap1\n      tag_45\n      jump\t// in\n    tag_80:\n      tag_81\n      jump\t// in\n    tag_79:\n      mload(0x40)\n      tag_82\n      swap2\n      swap1\n      tag_73\n      jump\t// in\n    tag_82:\n      mload(0x40)\n      dup1\n      swap2\n      sub\n      swap1\n      return\n        /* \"Assignments/Lecture 7/RewardPointsInterface.sol\":689:723  uint256 immutable public minReward */\n    tag_15:\n      callvalue\n      dup1\n      iszero\n      tag_83\n      jumpi\n      revert(0x00, 0x00)\n    tag_83:\n      pop\n      tag_84\n      tag_85\n      jump\t// in\n    tag_84:\n      mload(0x40)\n      tag_86\n      swap2\n      swap1\n      tag_30\n      jump\t// in\n    tag_86:\n      mload(0x40)\n      dup1\n      swap2\n      sub\n      swap1\n      return\n        /* \"Assignments/Lecture 7/RewardPointsInterface.sol\":3074:3432  function redeemPoints(uint256 amount) _validateAccount(msg.sender) _validateAmount(amount) public payable virtual {... */\n    tag_16:\n      tag_87\n      0x04\n      dup1\n      calldatasize\n      sub\n      dup2\n      add\n      swap1\n      tag_88\n      swap2\n      swap1\n      tag_89\n      jump\t// in\n    tag_88:\n      tag_90\n      jump\t// in\n    tag_87:\n      stop\n        /* \"Assignments/Lecture 7/RewardPointsInterface.sol\":2011:2143  function removePartner(address target) onlyOwner _validateAccount(target) public virtual {... */\n    tag_17:\n      callvalue\n      dup1\n      iszero\n      tag_91\n      jumpi\n      revert(0x00, 0x00)\n    tag_91:\n      pop\n      tag_92\n      0x04\n      dup1\n      calldatasize\n      sub\n      dup2\n      add\n      swap1\n      tag_93\n      swap2\n      swap1\n      tag_34\n      jump\t// in\n    tag_93:\n      tag_94\n      jump\t// in\n    tag_92:\n      stop\n        /* \"Assignments/Lecture 7/RewardPointsInterface.sol\":566:584  string public name */\n    tag_23:\n      0x01\n      dup1\n      sload\n      tag_95\n      swap1\n      tag_96\n      jump\t// in\n    tag_95:\n      dup1\n      0x1f\n      add\n      0x20\n      dup1\n      swap2\n      div\n      mul\n      0x20\n      add\n      mload(0x40)\n      swap1\n      dup2\n      add\n      0x40\n      mstore\n      dup1\n      swap3\n      swap2\n      swap1\n      dup2\n      dup2\n      mstore\n      0x20\n      add\n      dup3\n      dup1\n      sload\n      tag_97\n      swap1\n      tag_96\n      jump\t// in\n    tag_97:\n      dup1\n      iszero\n      tag_98\n      jumpi\n      dup1\n      0x1f\n      lt\n      tag_99\n      jumpi\n      0x0100\n      dup1\n      dup4\n      sload\n      div\n      mul\n      dup4\n      mstore\n      swap2\n      0x20\n      add\n      swap2\n      jump(tag_98)\n    tag_99:\n      dup3\n      add\n      swap2\n      swap1\n      0x00\n      mstore\n      keccak256(0x00, 0x20)\n      swap1\n    tag_100:\n      dup2\n      sload\n      dup2\n      mstore\n      swap1\n      0x01\n      add\n      swap1\n      0x20\n      add\n      dup1\n      dup4\n      gt\n      tag_100\n      jumpi\n      dup3\n      swap1\n      sub\n      0x1f\n      and\n      dup3\n      add\n      swap2\n    tag_98:\n      pop\n      pop\n      pop\n      pop\n      pop\n      dup2\n      jump\t// out\n        /* \"Assignments/Lecture 7/RewardPointsInterface.sol\":656:682  uint256 public totalSupply */\n    tag_28:\n      sload(0x03)\n      dup2\n      jump\t// out\n        /* \"Assignments/Lecture 7/RewardPointsInterface.sol\":732:774  mapping(address => uint256) public holders */\n    tag_35:\n      mstore(0x20, 0x04)\n      dup1\n      0x00\n      mstore\n      keccak256(0x00, 0x40)\n      0x00\n      swap2\n      pop\n      swap1\n      pop\n      sload\n      dup2\n      jump\t// out\n        /* \"Assignments/Lecture 7/RewardPointsInterface.sol\":618:649  uint8 immutable public decimals */\n    tag_39:\n      immutable(\"0xd252627c3a7ddb3e9969d764fe6d38be47e2139c12c223f8ce16b1e3a5ed7dbb\")\n      dup2\n      jump\t// out\n        /* \"Assignments/Lecture 7/RewardPointsInterface.sol\":2769:3066  function rewardPoints(address target, uint256 amount) onlyPartner _validateAccount(target) _validateAmount(amount) public virtual {... */\n    tag_46:\n        /* \"Assignments/Lecture 7/RewardPointsInterface.sol\":1252:1257  false */\n      0x00\n        /* \"Assignments/Lecture 7/RewardPointsInterface.sol\":1228:1257  partners[msg.sender] == false */\n      iszero\n      iszero\n        /* \"Assignments/Lecture 7/RewardPointsInterface.sol\":1228:1236  partners */\n      0x05\n        /* \"Assignments/Lecture 7/RewardPointsInterface.sol\":1228:1248  partners[msg.sender] */\n      0x00\n        /* \"Assignments/Lecture 7/RewardPointsInterface.sol\":1237:1247  msg.sender */\n      caller\n        /* \"Assignments/Lecture 7/RewardPointsInterface.sol\":1228:1248  partners[msg.sender] */\n      0xffffffffffffffffffffffffffffffffffffffff\n      and\n      0xffffffffffffffffffffffffffffffffffffffff\n      and\n      dup2\n      mstore\n      0x20\n      add\n      swap1\n      dup2\n      mstore\n      0x20\n      add\n      0x00\n      keccak256\n      0x00\n      swap1\n      sload\n      swap1\n      0x0100\n      exp\n      swap1\n      div\n      0xff\n      and\n        /* \"Assignments/Lecture 7/RewardPointsInterface.sol\":1228:1257  partners[msg.sender] == false */\n      iszero\n      iszero\n      sub\n        /* \"Assignments/Lecture 7/RewardPointsInterface.sol\":1224:1291  if (partners[msg.sender] == false) { revert UnauthorizedAccess(); } */\n      tag_102\n      jumpi\n        /* \"Assignments/Lecture 7/RewardPointsInterface.sol\":1268:1288  UnauthorizedAccess() */\n      mload(0x40)\n      0x344fd58600000000000000000000000000000000000000000000000000000000\n      dup2\n      mstore\n      0x04\n      add\n      mload(0x40)\n      dup1\n      swap2\n      sub\n      swap1\n      revert\n        /* \"Assignments/Lecture 7/RewardPointsInterface.sol\":1224:1291  if (partners[msg.sender] == false) { revert UnauthorizedAccess(); } */\n    tag_102:\n        /* \"Assignments/Lecture 7/RewardPointsInterface.sol\":2852:2858  target */\n      dup2\n        /* \"Assignments/Lecture 7/RewardPointsInterface.sol\":943:944  0 */\n      0x00\n        /* \"Assignments/Lecture 7/RewardPointsInterface.sol\":925:945  target != address(0) */\n      0xffffffffffffffffffffffffffffffffffffffff\n      and\n        /* \"Assignments/Lecture 7/RewardPointsInterface.sol\":925:931  target */\n      dup2\n        /* \"Assignments/Lecture 7/RewardPointsInterface.sol\":925:945  target != address(0) */\n      0xffffffffffffffffffffffffffffffffffffffff\n      and\n      sub\n        /* \"Assignments/Lecture 7/RewardPointsInterface.sol\":917:972  require(target != address(0), \"Invalid Target Address\") */\n      tag_104\n      jumpi\n      mload(0x40)\n      0x08c379a000000000000000000000000000000000000000000000000000000000\n      dup2\n      mstore\n      0x04\n      add\n      tag_105\n      swap1\n      tag_106\n      jump\t// in\n    tag_105:\n      mload(0x40)\n      dup1\n      swap2\n      sub\n      swap1\n      revert\n    tag_104:\n        /* \"Assignments/Lecture 7/RewardPointsInterface.sol\":2876:2882  amount */\n      dup2\n        /* \"Assignments/Lecture 7/RewardPointsInterface.sol\":1078:1087  minReward */\n      immutable(\"0xca1c98d2cee18ab5da51a9df7bbf45ca91ab83c708e48aed82f5115320306ab4\")\n        /* \"Assignments/Lecture 7/RewardPointsInterface.sol\":1068:1074  amount */\n      dup2\n        /* \"Assignments/Lecture 7/RewardPointsInterface.sol\":1068:1087  amount >= minReward */\n      lt\n      iszero\n        /* \"Assignments/Lecture 7/RewardPointsInterface.sol\":1060:1156  require(amount >= minReward, \"Transfer Amount needs to be at least equal to the minimum Reward\") */\n      tag_108\n      jumpi\n      mload(0x40)\n      0x08c379a000000000000000000000000000000000000000000000000000000000\n      dup2\n      mstore\n      0x04\n      add\n      tag_109\n      swap1\n      tag_110\n      jump\t// in\n    tag_109:\n      mload(0x40)\n      dup1\n      swap2\n      sub\n      swap1\n      revert\n    tag_108:\n        /* \"Assignments/Lecture 7/RewardPointsInterface.sol\":2910:2934  _authorizeReward(target) */\n      tag_112\n        /* \"Assignments/Lecture 7/RewardPointsInterface.sol\":2927:2933  target */\n      dup5\n        /* \"Assignments/Lecture 7/RewardPointsInterface.sol\":2910:2926  _authorizeReward */\n      tag_113\n        /* \"Assignments/Lecture 7/RewardPointsInterface.sol\":2910:2934  _authorizeReward(target) */\n      jump\t// in\n    tag_112:\n        /* \"Assignments/Lecture 7/RewardPointsInterface.sol\":2962:2968  amount */\n      dup3\n        /* \"Assignments/Lecture 7/RewardPointsInterface.sol\":2947:2958  totalSupply */\n      0x03\n      0x00\n        /* \"Assignments/Lecture 7/RewardPointsInterface.sol\":2947:2968  totalSupply += amount */\n      dup3\n      dup3\n      sload\n      tag_114\n      swap2\n      swap1\n      tag_115\n      jump\t// in\n    tag_114:\n      swap3\n      pop\n      pop\n      dup2\n      swap1\n      sstore\n      pop\n        /* \"Assignments/Lecture 7/RewardPointsInterface.sol\":2998:3004  amount */\n      dup3\n        /* \"Assignments/Lecture 7/RewardPointsInterface.sol\":2979:2986  holders */\n      0x04\n        /* \"Assignments/Lecture 7/RewardPointsInterface.sol\":2979:2994  holders[target] */\n      0x00\n        /* \"Assignments/Lecture 7/RewardPointsInterface.sol\":2987:2993  target */\n      dup7\n        /* \"Assignments/Lecture 7/RewardPointsInterface.sol\":2979:2994  holders[target] */\n      0xffffffffffffffffffffffffffffffffffffffff\n      and\n      0xffffffffffffffffffffffffffffffffffffffff\n      and\n      dup2\n      mstore\n      0x20\n      add\n      swap1\n      dup2\n      mstore\n      0x20\n      add\n      0x00\n      keccak256\n      0x00\n        /* \"Assignments/Lecture 7/RewardPointsInterface.sol\":2979:3004  holders[target] += amount */\n      dup3\n      dup3\n      sload\n      tag_116\n      swap2\n      swap1\n      tag_115\n      jump\t// in\n    tag_116:\n      swap3\n      pop\n      pop\n      dup2\n      swap1\n      sstore\n      pop\n        /* \"Assignments/Lecture 7/RewardPointsInterface.sol\":3043:3049  target */\n      dup4\n        /* \"Assignments/Lecture 7/RewardPointsInterface.sol\":3022:3058  Rewarded(address(0), target, amount) */\n      0xffffffffffffffffffffffffffffffffffffffff\n      and\n        /* \"Assignments/Lecture 7/RewardPointsInterface.sol\":3039:3040  0 */\n      0x00\n        /* \"Assignments/Lecture 7/RewardPointsInterface.sol\":3022:3058  Rewarded(address(0), target, amount) */\n      0xffffffffffffffffffffffffffffffffffffffff\n      and\n      0x6876a213a761d9b4f8d7ba3609528ef85da671684271f75fdacb41be8db29f45\n        /* \"Assignments/Lecture 7/RewardPointsInterface.sol\":3051:3057  amount */\n      dup6\n        /* \"Assignments/Lecture 7/RewardPointsInterface.sol\":3022:3058  Rewarded(address(0), target, amount) */\n      mload(0x40)\n      tag_117\n      swap2\n      swap1\n      tag_30\n      jump\t// in\n    tag_117:\n      mload(0x40)\n      dup1\n      swap2\n      sub\n      swap1\n      log3\n        /* \"Assignments/Lecture 7/RewardPointsInterface.sol\":983:984  _ */\n      pop\n        /* \"Assignments/Lecture 7/RewardPointsInterface.sol\":1302:1303  _ */\n      pop\n        /* \"Assignments/Lecture 7/RewardPointsInterface.sol\":2769:3066  function rewardPoints(address target, uint256 amount) onlyPartner _validateAccount(target) _validateAmount(amount) public virtual {... */\n      pop\n      pop\n      jump\t// out\n        /* \"Assignments/Lecture 7/RewardPointsInterface.sol\":1439:1580  function balanceOf(address _owner) _validateAccount(_owner) external view returns (uint256 balance) {... */\n    tag_50:\n        /* \"Assignments/Lecture 7/RewardPointsInterface.sol\":1522:1537  uint256 balance */\n      0x00\n        /* \"Assignments/Lecture 7/RewardPointsInterface.sol\":1491:1497  _owner */\n      dup2\n        /* \"Assignments/Lecture 7/RewardPointsInterface.sol\":943:944  0 */\n      0x00\n        /* \"Assignments/Lecture 7/RewardPointsInterface.sol\":925:945  target != address(0) */\n      0xffffffffffffffffffffffffffffffffffffffff\n      and\n        /* \"Assignments/Lecture 7/RewardPointsInterface.sol\":925:931  target */\n      dup2\n        /* \"Assignments/Lecture 7/RewardPointsInterface.sol\":925:945  target != address(0) */\n      0xffffffffffffffffffffffffffffffffffffffff\n      and\n      sub\n        /* \"Assignments/Lecture 7/RewardPointsInterface.sol\":917:972  require(target != address(0), \"Invalid Target Address\") */\n      tag_119\n      jumpi\n      mload(0x40)\n      0x08c379a000000000000000000000000000000000000000000000000000000000\n      dup2\n      mstore\n      0x04\n      add\n      tag_120\n      swap1\n      tag_106\n      jump\t// in\n    tag_120:\n      mload(0x40)\n      dup1\n      swap2\n      sub\n      swap1\n      revert\n    tag_119:\n        /* \"Assignments/Lecture 7/RewardPointsInterface.sol\":1557:1564  holders */\n      0x04\n        /* \"Assignments/Lecture 7/RewardPointsInterface.sol\":1557:1572  holders[_owner] */\n      0x00\n        /* \"Assignments/Lecture 7/RewardPointsInterface.sol\":1565:1571  _owner */\n      dup5\n        /* \"Assignments/Lecture 7/RewardPointsInterface.sol\":1557:1572  holders[_owner] */\n      0xffffffffffffffffffffffffffffffffffffffff\n      and\n      0xffffffffffffffffffffffffffffffffffffffff\n      and\n      dup2\n      mstore\n      0x20\n      add\n      swap1\n      dup2\n      mstore\n      0x20\n      add\n      0x00\n      keccak256\n      sload\n        /* \"Assignments/Lecture 7/RewardPointsInterface.sol\":1550:1572  return holders[_owner] */\n      swap2\n      pop\n        /* \"Assignments/Lecture 7/RewardPointsInterface.sol\":1439:1580  function balanceOf(address _owner) _validateAccount(_owner) external view returns (uint256 balance) {... */\n      pop\n      swap2\n      swap1\n      pop\n      jump\t// out\n        /* \"Assignments/Lecture 7/Helpers/Ownable.sol\":594:677  function renounceOwnership() onlyOwner public {... */\n    tag_54:\n        /* \"Assignments/Lecture 7/Helpers/Ownable.sol\":238:243  owner */\n      0x00\n      0x00\n      swap1\n      sload\n      swap1\n      0x0100\n      exp\n      swap1\n      div\n      0xffffffffffffffffffffffffffffffffffffffff\n      and\n        /* \"Assignments/Lecture 7/Helpers/Ownable.sol\":224:243  msg.sender == owner */\n      0xffffffffffffffffffffffffffffffffffffffff\n      and\n        /* \"Assignments/Lecture 7/Helpers/Ownable.sol\":224:234  msg.sender */\n      caller\n        /* \"Assignments/Lecture 7/Helpers/Ownable.sol\":224:243  msg.sender == owner */\n      0xffffffffffffffffffffffffffffffffffffffff\n      and\n      eq\n        /* \"Assignments/Lecture 7/Helpers/Ownable.sol\":216:287  require(msg.sender == owner, \"Only the owner is permitted this action\") */\n      tag_123\n      jumpi\n      mload(0x40)\n      0x08c379a000000000000000000000000000000000000000000000000000000000\n      dup2\n      mstore\n      0x04\n      add\n      tag_124\n      swap1\n      tag_125\n      jump\t// in\n    tag_124:\n      mload(0x40)\n      dup1\n      swap2\n      sub\n      swap1\n      revert\n    tag_123:\n        /* \"Assignments/Lecture 7/Helpers/Ownable.sol\":667:668  0 */\n      0x00\n        /* \"Assignments/Lecture 7/Helpers/Ownable.sol\":651:656  owner */\n      0x00\n      0x00\n        /* \"Assignments/Lecture 7/Helpers/Ownable.sol\":651:669  owner = address(0) */\n      0x0100\n      exp\n      dup2\n      sload\n      dup2\n      0xffffffffffffffffffffffffffffffffffffffff\n      mul\n      not\n      and\n      swap1\n      dup4\n      0xffffffffffffffffffffffffffffffffffffffff\n      and\n      mul\n      or\n      swap1\n      sstore\n      pop\n        /* \"Assignments/Lecture 7/Helpers/Ownable.sol\":594:677  function renounceOwnership() onlyOwner public {... */\n      jump\t// out\n        /* \"Assignments/Lecture 7/Helpers/Ownable.sol\":338:586  function tranferOwnership(address target) onlyOwner public {... */\n    tag_58:\n        /* \"Assignments/Lecture 7/Helpers/Ownable.sol\":238:243  owner */\n      0x00\n      0x00\n      swap1\n      sload\n      swap1\n      0x0100\n      exp\n      swap1\n      div\n      0xffffffffffffffffffffffffffffffffffffffff\n      and\n        /* \"Assignments/Lecture 7/Helpers/Ownable.sol\":224:243  msg.sender == owner */\n      0xffffffffffffffffffffffffffffffffffffffff\n      and\n        /* \"Assignments/Lecture 7/Helpers/Ownable.sol\":224:234  msg.sender */\n      caller\n        /* \"Assignments/Lecture 7/Helpers/Ownable.sol\":224:243  msg.sender == owner */\n      0xffffffffffffffffffffffffffffffffffffffff\n      and\n      eq\n        /* \"Assignments/Lecture 7/Helpers/Ownable.sol\":216:287  require(msg.sender == owner, \"Only the owner is permitted this action\") */\n      tag_128\n      jumpi\n      mload(0x40)\n      0x08c379a000000000000000000000000000000000000000000000000000000000\n      dup2\n      mstore\n      0x04\n      add\n      tag_129\n      swap1\n      tag_125\n      jump\t// in\n    tag_129:\n      mload(0x40)\n      dup1\n      swap2\n      sub\n      swap1\n      revert\n    tag_128:\n        /* \"Assignments/Lecture 7/Helpers/Ownable.sol\":434:435  0 */\n      0x00\n        /* \"Assignments/Lecture 7/Helpers/Ownable.sol\":416:436  target != address(0) */\n      0xffffffffffffffffffffffffffffffffffffffff\n      and\n        /* \"Assignments/Lecture 7/Helpers/Ownable.sol\":416:422  target */\n      dup2\n        /* \"Assignments/Lecture 7/Helpers/Ownable.sol\":416:436  target != address(0) */\n      0xffffffffffffffffffffffffffffffffffffffff\n      and\n      eq\n      iszero\n        /* \"Assignments/Lecture 7/Helpers/Ownable.sol\":416:455  target != address(0) && target != owner */\n      dup1\n      iszero\n      tag_131\n      jumpi\n      pop\n        /* \"Assignments/Lecture 7/Helpers/Ownable.sol\":450:455  owner */\n      0x00\n      0x00\n      swap1\n      sload\n      swap1\n      0x0100\n      exp\n      swap1\n      div\n      0xffffffffffffffffffffffffffffffffffffffff\n      and\n        /* \"Assignments/Lecture 7/Helpers/Ownable.sol\":440:455  target != owner */\n      0xffffffffffffffffffffffffffffffffffffffff\n      and\n        /* \"Assignments/Lecture 7/Helpers/Ownable.sol\":440:446  target */\n      dup2\n        /* \"Assignments/Lecture 7/Helpers/Ownable.sol\":440:455  target != owner */\n      0xffffffffffffffffffffffffffffffffffffffff\n      and\n      eq\n      iszero\n        /* \"Assignments/Lecture 7/Helpers/Ownable.sol\":416:455  target != address(0) && target != owner */\n    tag_131:\n        /* \"Assignments/Lecture 7/Helpers/Ownable.sol\":408:553  require(target != address(0) && target != owner, \"Invalid Address, if you want to remove the owner use the 'renounceOwnership' function instead\") */\n      tag_132\n      jumpi\n      mload(0x40)\n      0x08c379a000000000000000000000000000000000000000000000000000000000\n      dup2\n      mstore\n      0x04\n      add\n      tag_133\n      swap1\n      tag_134\n      jump\t// in\n    tag_133:\n      mload(0x40)\n      dup1\n      swap2\n      sub\n      swap1\n      revert\n    tag_132:\n        /* \"Assignments/Lecture 7/Helpers/Ownable.sol\":572:578  target */\n      dup1\n        /* \"Assignments/Lecture 7/Helpers/Ownable.sol\":564:569  owner */\n      0x00\n      0x00\n        /* \"Assignments/Lecture 7/Helpers/Ownable.sol\":564:578  owner = target */\n      0x0100\n      exp\n      dup2\n      sload\n      dup2\n      0xffffffffffffffffffffffffffffffffffffffff\n      mul\n      not\n      and\n      swap1\n      dup4\n      0xffffffffffffffffffffffffffffffffffffffff\n      and\n      mul\n      or\n      swap1\n      sstore\n      pop\n        /* \"Assignments/Lecture 7/Helpers/Ownable.sol\":338:586  function tranferOwnership(address target) onlyOwner public {... */\n      pop\n      jump\t// out\n        /* \"Assignments/Lecture 7/RewardPointsInterface.sol\":1875:2003  function addPartner(address target) onlyOwner _validateAccount(target) public virtual {... */\n    tag_62:\n        /* \"Assignments/Lecture 7/Helpers/Ownable.sol\":238:243  owner */\n      0x00\n      0x00\n      swap1\n      sload\n      swap1\n      0x0100\n      exp\n      swap1\n      div\n      0xffffffffffffffffffffffffffffffffffffffff\n      and\n        /* \"Assignments/Lecture 7/Helpers/Ownable.sol\":224:243  msg.sender == owner */\n      0xffffffffffffffffffffffffffffffffffffffff\n      and\n        /* \"Assignments/Lecture 7/Helpers/Ownable.sol\":224:234  msg.sender */\n      caller\n        /* \"Assignments/Lecture 7/Helpers/Ownable.sol\":224:243  msg.sender == owner */\n      0xffffffffffffffffffffffffffffffffffffffff\n      and\n      eq\n        /* \"Assignments/Lecture 7/Helpers/Ownable.sol\":216:287  require(msg.sender == owner, \"Only the owner is permitted this action\") */\n      tag_136\n      jumpi\n      mload(0x40)\n      0x08c379a000000000000000000000000000000000000000000000000000000000\n      dup2\n      mstore\n      0x04\n      add\n      tag_137\n      swap1\n      tag_125\n      jump\t// in\n    tag_137:\n      mload(0x40)\n      dup1\n      swap2\n      sub\n      swap1\n      revert\n    tag_136:\n        /* \"Assignments/Lecture 7/RewardPointsInterface.sol\":1938:1944  target */\n      dup1\n        /* \"Assignments/Lecture 7/RewardPointsInterface.sol\":943:944  0 */\n      0x00\n        /* \"Assignments/Lecture 7/RewardPointsInterface.sol\":925:945  target != address(0) */\n      0xffffffffffffffffffffffffffffffffffffffff\n      and\n        /* \"Assignments/Lecture 7/RewardPointsInterface.sol\":925:931  target */\n      dup2\n        /* \"Assignments/Lecture 7/RewardPointsInterface.sol\":925:945  target != address(0) */\n      0xffffffffffffffffffffffffffffffffffffffff\n      and\n      sub\n        /* \"Assignments/Lecture 7/RewardPointsInterface.sol\":917:972  require(target != address(0), \"Invalid Target Address\") */\n      tag_139\n      jumpi\n      mload(0x40)\n      0x08c379a000000000000000000000000000000000000000000000000000000000\n      dup2\n      mstore\n      0x04\n      add\n      tag_140\n      swap1\n      tag_106\n      jump\t// in\n    tag_140:\n      mload(0x40)\n      dup1\n      swap2\n      sub\n      swap1\n      revert\n    tag_139:\n        /* \"Assignments/Lecture 7/RewardPointsInterface.sol\":1991:1995  true */\n      0x01\n        /* \"Assignments/Lecture 7/RewardPointsInterface.sol\":1972:1980  partners */\n      0x05\n        /* \"Assignments/Lecture 7/RewardPointsInterface.sol\":1972:1988  partners[target] */\n      0x00\n        /* \"Assignments/Lecture 7/RewardPointsInterface.sol\":1981:1987  target */\n      dup5\n        /* \"Assignments/Lecture 7/RewardPointsInterface.sol\":1972:1988  partners[target] */\n      0xffffffffffffffffffffffffffffffffffffffff\n      and\n      0xffffffffffffffffffffffffffffffffffffffff\n      and\n      dup2\n      mstore\n      0x20\n      add\n      swap1\n      dup2\n      mstore\n      0x20\n      add\n      0x00\n      keccak256\n      0x00\n        /* \"Assignments/Lecture 7/RewardPointsInterface.sol\":1972:1995  partners[target] = true */\n      0x0100\n      exp\n      dup2\n      sload\n      dup2\n      0xff\n      mul\n      not\n      and\n      swap1\n      dup4\n      iszero\n      iszero\n      mul\n      or\n      swap1\n      sstore\n      pop\n        /* \"Assignments/Lecture 7/Helpers/Ownable.sol\":298:299  _ */\n      pop\n        /* \"Assignments/Lecture 7/RewardPointsInterface.sol\":1875:2003  function addPartner(address target) onlyOwner _validateAccount(target) public virtual {... */\n      pop\n      jump\t// out\n        /* \"Assignments/Lecture 7/Helpers/Ownable.sol\":88:108  address public owner */\n    tag_65:\n      0x00\n      0x00\n      swap1\n      sload\n      swap1\n      0x0100\n      exp\n      swap1\n      div\n      0xffffffffffffffffffffffffffffffffffffffff\n      and\n      dup2\n      jump\t// out\n        /* \"Assignments/Lecture 7/RewardPointsInterface.sol\":781:821  mapping(address => bool) public partners */\n    tag_71:\n      mstore(0x20, 0x05)\n      dup1\n      0x00\n      mstore\n      keccak256(0x00, 0x40)\n      0x00\n      swap2\n      pop\n      sload\n      swap1\n      0x0100\n      exp\n      swap1\n      div\n      0xff\n      and\n      dup2\n      jump\t// out\n        /* \"Assignments/Lecture 7/RewardPointsInterface.sol\":591:611  string public symbol */\n    tag_76:\n      0x02\n      dup1\n      sload\n      tag_142\n      swap1\n      tag_96\n      jump\t// in\n    tag_142:\n      dup1\n      0x1f\n      add\n      0x20\n      dup1\n      swap2\n      div\n      mul\n      0x20\n      add\n      mload(0x40)\n      swap1\n      dup2\n      add\n      0x40\n      mstore\n      dup1\n      swap3\n      swap2\n      swap1\n      dup2\n      dup2\n      mstore\n      0x20\n      add\n      dup3\n      dup1\n      sload\n      tag_143\n      swap1\n      tag_96\n      jump\t// in\n    tag_143:\n      dup1\n      iszero\n      tag_144\n      jumpi\n      dup1\n      0x1f\n      lt\n      tag_145\n      jumpi\n      0x0100\n      dup1\n      dup4\n      sload\n      div\n      mul\n      dup4\n      mstore\n      swap2\n      0x20\n      add\n      swap2\n      jump(tag_144)\n    tag_145:\n      dup3\n      add\n      swap2\n      swap1\n      0x00\n      mstore\n      keccak256(0x00, 0x20)\n      swap1\n    tag_146:\n      dup2\n      sload\n      dup2\n      mstore\n      swap1\n      0x01\n      add\n      swap1\n      0x20\n      add\n      dup1\n      dup4\n      gt\n      tag_146\n      jumpi\n      dup3\n      swap1\n      sub\n      0x1f\n      and\n      dup3\n      add\n      swap2\n    tag_144:\n      pop\n      pop\n      pop\n      pop\n      pop\n      dup2\n      jump\t// out\n        /* \"Assignments/Lecture 7/RewardPointsInterface.sol\":1588:1867  function transfer(address _to, uint256 _value) _validateAccount(_to) _validateAmount(_value) external returns (bool success) {... */\n    tag_81:\n        /* \"Assignments/Lecture 7/RewardPointsInterface.sol\":1699:1711  bool success */\n      0x00\n        /* \"Assignments/Lecture 7/RewardPointsInterface.sol\":1652:1655  _to */\n      dup3\n        /* \"Assignments/Lecture 7/RewardPointsInterface.sol\":943:944  0 */\n      0x00\n        /* \"Assignments/Lecture 7/RewardPointsInterface.sol\":925:945  target != address(0) */\n      0xffffffffffffffffffffffffffffffffffffffff\n      and\n        /* \"Assignments/Lecture 7/RewardPointsInterface.sol\":925:931  target */\n      dup2\n        /* \"Assignments/Lecture 7/RewardPointsInterface.sol\":925:945  target != address(0) */\n      0xffffffffffffffffffffffffffffffffffffffff\n      and\n      sub\n        /* \"Assignments/Lecture 7/RewardPointsInterface.sol\":917:972  require(target != address(0), \"Invalid Target Address\") */\n      tag_148\n      jumpi\n      mload(0x40)\n      0x08c379a000000000000000000000000000000000000000000000000000000000\n      dup2\n      mstore\n      0x04\n      add\n      tag_149\n      swap1\n      tag_106\n      jump\t// in\n    tag_149:\n      mload(0x40)\n      dup1\n      swap2\n      sub\n      swap1\n      revert\n    tag_148:\n        /* \"Assignments/Lecture 7/RewardPointsInterface.sol\":1673:1679  _value */\n      dup3\n        /* \"Assignments/Lecture 7/RewardPointsInterface.sol\":1078:1087  minReward */\n      immutable(\"0xca1c98d2cee18ab5da51a9df7bbf45ca91ab83c708e48aed82f5115320306ab4\")\n        /* \"Assignments/Lecture 7/RewardPointsInterface.sol\":1068:1074  amount */\n      dup2\n        /* \"Assignments/Lecture 7/RewardPointsInterface.sol\":1068:1087  amount >= minReward */\n      lt\n      iszero\n        /* \"Assignments/Lecture 7/RewardPointsInterface.sol\":1060:1156  require(amount >= minReward, \"Transfer Amount needs to be at least equal to the minimum Reward\") */\n      tag_151\n      jumpi\n      mload(0x40)\n      0x08c379a000000000000000000000000000000000000000000000000000000000\n      dup2\n      mstore\n      0x04\n      add\n      tag_152\n      swap1\n      tag_110\n      jump\t// in\n    tag_152:\n      mload(0x40)\n      dup1\n      swap2\n      sub\n      swap1\n      revert\n    tag_151:\n        /* \"Assignments/Lecture 7/RewardPointsInterface.sol\":1747:1753  _value */\n      dup4\n        /* \"Assignments/Lecture 7/RewardPointsInterface.sol\":1724:1731  holders */\n      0x04\n        /* \"Assignments/Lecture 7/RewardPointsInterface.sol\":1724:1743  holders[msg.sender] */\n      0x00\n        /* \"Assignments/Lecture 7/RewardPointsInterface.sol\":1732:1742  msg.sender */\n      caller\n        /* \"Assignments/Lecture 7/RewardPointsInterface.sol\":1724:1743  holders[msg.sender] */\n      0xffffffffffffffffffffffffffffffffffffffff\n      and\n      0xffffffffffffffffffffffffffffffffffffffff\n      and\n      dup2\n      mstore\n      0x20\n      add\n      swap1\n      dup2\n      mstore\n      0x20\n      add\n      0x00\n      keccak256\n      0x00\n        /* \"Assignments/Lecture 7/RewardPointsInterface.sol\":1724:1753  holders[msg.sender] -= _value */\n      dup3\n      dup3\n      sload\n      tag_154\n      swap2\n      swap1\n      tag_155\n      jump\t// in\n    tag_154:\n      swap3\n      pop\n      pop\n      dup2\n      swap1\n      sstore\n      pop\n        /* \"Assignments/Lecture 7/RewardPointsInterface.sol\":1780:1786  _value */\n      dup4\n        /* \"Assignments/Lecture 7/RewardPointsInterface.sol\":1764:1771  holders */\n      0x04\n        /* \"Assignments/Lecture 7/RewardPointsInterface.sol\":1764:1776  holders[_to] */\n      0x00\n        /* \"Assignments/Lecture 7/RewardPointsInterface.sol\":1772:1775  _to */\n      dup8\n        /* \"Assignments/Lecture 7/RewardPointsInterface.sol\":1764:1776  holders[_to] */\n      0xffffffffffffffffffffffffffffffffffffffff\n      and\n      0xffffffffffffffffffffffffffffffffffffffff\n      and\n      dup2\n      mstore\n      0x20\n      add\n      swap1\n      dup2\n      mstore\n      0x20\n      add\n      0x00\n      keccak256\n      0x00\n        /* \"Assignments/Lecture 7/RewardPointsInterface.sol\":1764:1786  holders[_to] += _value */\n      dup3\n      dup3\n      sload\n      tag_156\n      swap2\n      swap1\n      tag_115\n      jump\t// in\n    tag_156:\n      swap3\n      pop\n      pop\n      dup2\n      swap1\n      sstore\n      pop\n        /* \"Assignments/Lecture 7/RewardPointsInterface.sol\":1825:1828  _to */\n      dup5\n        /* \"Assignments/Lecture 7/RewardPointsInterface.sol\":1804:1837  Transfer(msg.sender, _to, _value) */\n      0xffffffffffffffffffffffffffffffffffffffff\n      and\n        /* \"Assignments/Lecture 7/RewardPointsInterface.sol\":1813:1823  msg.sender */\n      caller\n        /* \"Assignments/Lecture 7/RewardPointsInterface.sol\":1804:1837  Transfer(msg.sender, _to, _value) */\n      0xffffffffffffffffffffffffffffffffffffffff\n      and\n      0xddf252ad1be2c89b69c2b068fc378daa952ba7f163c4a11628f55a4df523b3ef\n        /* \"Assignments/Lecture 7/RewardPointsInterface.sol\":1830:1836  _value */\n      dup7\n        /* \"Assignments/Lecture 7/RewardPointsInterface.sol\":1804:1837  Transfer(msg.sender, _to, _value) */\n      mload(0x40)\n      tag_157\n      swap2\n      swap1\n      tag_30\n      jump\t// in\n    tag_157:\n      mload(0x40)\n      dup1\n      swap2\n      sub\n      swap1\n      log3\n        /* \"Assignments/Lecture 7/RewardPointsInterface.sol\":1855:1859  true */\n      0x01\n        /* \"Assignments/Lecture 7/RewardPointsInterface.sol\":1848:1859  return true */\n      swap3\n      pop\n        /* \"Assignments/Lecture 7/RewardPointsInterface.sol\":983:984  _ */\n      pop\n        /* \"Assignments/Lecture 7/RewardPointsInterface.sol\":1588:1867  function transfer(address _to, uint256 _value) _validateAccount(_to) _validateAmount(_value) external returns (bool success) {... */\n      pop\n      swap3\n      swap2\n      pop\n      pop\n      jump\t// out\n        /* \"Assignments/Lecture 7/RewardPointsInterface.sol\":689:723  uint256 immutable public minReward */\n    tag_85:\n      immutable(\"0xca1c98d2cee18ab5da51a9df7bbf45ca91ab83c708e48aed82f5115320306ab4\")\n      dup2\n      jump\t// out\n        /* \"Assignments/Lecture 7/RewardPointsInterface.sol\":3074:3432  function redeemPoints(uint256 amount) _validateAccount(msg.sender) _validateAmount(amount) public payable virtual {... */\n    tag_90:\n        /* \"Assignments/Lecture 7/RewardPointsInterface.sol\":3129:3139  msg.sender */\n      caller\n        /* \"Assignments/Lecture 7/RewardPointsInterface.sol\":943:944  0 */\n      0x00\n        /* \"Assignments/Lecture 7/RewardPointsInterface.sol\":925:945  target != address(0) */\n      0xffffffffffffffffffffffffffffffffffffffff\n      and\n        /* \"Assignments/Lecture 7/RewardPointsInterface.sol\":925:931  target */\n      dup2\n        /* \"Assignments/Lecture 7/RewardPointsInterface.sol\":925:945  target != address(0) */\n      0xffffffffffffffffffffffffffffffffffffffff\n      and\n      sub\n        /* \"Assignments/Lecture 7/RewardPointsInterface.sol\":917:972  require(target != address(0), \"Invalid Target Address\") */\n      tag_159\n      jumpi\n      mload(0x40)\n      0x08c379a000000000000000000000000000000000000000000000000000000000\n      dup2\n      mstore\n      0x04\n      add\n      tag_160\n      swap1\n      tag_106\n      jump\t// in\n    tag_160:\n      mload(0x40)\n      dup1\n      swap2\n      sub\n      swap1\n      revert\n    tag_159:\n        /* \"Assignments/Lecture 7/RewardPointsInterface.sol\":3157:3163  amount */\n      dup2\n        /* \"Assignments/Lecture 7/RewardPointsInterface.sol\":1078:1087  minReward */\n      immutable(\"0xca1c98d2cee18ab5da51a9df7bbf45ca91ab83c708e48aed82f5115320306ab4\")\n        /* \"Assignments/Lecture 7/RewardPointsInterface.sol\":1068:1074  amount */\n      dup2\n        /* \"Assignments/Lecture 7/RewardPointsInterface.sol\":1068:1087  amount >= minReward */\n      lt\n      iszero\n        /* \"Assignments/Lecture 7/RewardPointsInterface.sol\":1060:1156  require(amount >= minReward, \"Transfer Amount needs to be at least equal to the minimum Reward\") */\n      tag_162\n      jumpi\n      mload(0x40)\n      0x08c379a000000000000000000000000000000000000000000000000000000000\n      dup2\n      mstore\n      0x04\n      add\n      tag_163\n      swap1\n      tag_110\n      jump\t// in\n    tag_163:\n      mload(0x40)\n      dup1\n      swap2\n      sub\n      swap1\n      revert\n    tag_162:\n        /* \"Assignments/Lecture 7/RewardPointsInterface.sol\":3199:3227  _authorizeReward(msg.sender) */\n      tag_165\n        /* \"Assignments/Lecture 7/RewardPointsInterface.sol\":3216:3226  msg.sender */\n      caller\n        /* \"Assignments/Lecture 7/RewardPointsInterface.sol\":3199:3215  _authorizeReward */\n      tag_113\n        /* \"Assignments/Lecture 7/RewardPointsInterface.sol\":3199:3227  _authorizeReward(msg.sender) */\n      jump\t// in\n    tag_165:\n        /* \"Assignments/Lecture 7/RewardPointsInterface.sol\":3265:3271  amount */\n      dup3\n        /* \"Assignments/Lecture 7/RewardPointsInterface.sol\":3243:3250  holders */\n      0x04\n        /* \"Assignments/Lecture 7/RewardPointsInterface.sol\":3243:3262  holders[msg.sender] */\n      0x00\n        /* \"Assignments/Lecture 7/RewardPointsInterface.sol\":3251:3261  msg.sender */\n      caller\n        /* \"Assignments/Lecture 7/RewardPointsInterface.sol\":3243:3262  holders[msg.sender] */\n      0xffffffffffffffffffffffffffffffffffffffff\n      and\n      0xffffffffffffffffffffffffffffffffffffffff\n      and\n      dup2\n      mstore\n      0x20\n      add\n      swap1\n      dup2\n      mstore\n      0x20\n      add\n      0x00\n      keccak256\n      sload\n        /* \"Assignments/Lecture 7/RewardPointsInterface.sol\":3243:3271  holders[msg.sender] < amount */\n      lt\n        /* \"Assignments/Lecture 7/RewardPointsInterface.sol\":3240:3305  if(holders[msg.sender] < amount) { revert InsuficientBalance(); } */\n      iszero\n      tag_166\n      jumpi\n        /* \"Assignments/Lecture 7/RewardPointsInterface.sol\":3282:3302  InsuficientBalance() */\n      mload(0x40)\n      0x7c1b595700000000000000000000000000000000000000000000000000000000\n      dup2\n      mstore\n      0x04\n      add\n      mload(0x40)\n      dup1\n      swap2\n      sub\n      swap1\n      revert\n        /* \"Assignments/Lecture 7/RewardPointsInterface.sol\":3240:3305  if(holders[msg.sender] < amount) { revert InsuficientBalance(); } */\n    tag_166:\n        /* \"Assignments/Lecture 7/RewardPointsInterface.sol\":3340:3346  amount */\n      dup3\n        /* \"Assignments/Lecture 7/RewardPointsInterface.sol\":3317:3324  holders */\n      0x04\n        /* \"Assignments/Lecture 7/RewardPointsInterface.sol\":3317:3336  holders[msg.sender] */\n      0x00\n        /* \"Assignments/Lecture 7/RewardPointsInterface.sol\":3325:3335  msg.sender */\n      caller\n        /* \"Assignments/Lecture 7/RewardPointsInterface.sol\":3317:3336  holders[msg.sender] */\n      0xffffffffffffffffffffffffffffffffffffffff\n      and\n      0xffffffffffffffffffffffffffffffffffffffff\n      and\n      dup2\n      mstore\n      0x20\n      add\n      swap1\n      dup2\n      mstore\n      0x20\n      add\n      0x00\n      keccak256\n      0x00\n        /* \"Assignments/Lecture 7/RewardPointsInterface.sol\":3317:3346  holders[msg.sender] -= amount */\n      dup3\n      dup3\n      sload\n      tag_167\n      swap2\n      swap1\n      tag_155\n      jump\t// in\n    tag_167:\n      swap3\n      pop\n      pop\n      dup2\n      swap1\n      sstore\n      pop\n        /* \"Assignments/Lecture 7/RewardPointsInterface.sol\":3372:3378  amount */\n      dup3\n        /* \"Assignments/Lecture 7/RewardPointsInterface.sol\":3357:3368  totalSupply */\n      0x03\n      0x00\n        /* \"Assignments/Lecture 7/RewardPointsInterface.sol\":3357:3378  totalSupply -= amount */\n      dup3\n      dup3\n      sload\n      tag_168\n      swap2\n      swap1\n      tag_155\n      jump\t// in\n    tag_168:\n      swap3\n      pop\n      pop\n      dup2\n      swap1\n      sstore\n      pop\n        /* \"Assignments/Lecture 7/RewardPointsInterface.sol\":3405:3415  msg.sender */\n      caller\n        /* \"Assignments/Lecture 7/RewardPointsInterface.sol\":3396:3424  Redeemed(msg.sender, amount) */\n      0xffffffffffffffffffffffffffffffffffffffff\n      and\n      0x4896181ff8f4543cc00db9fe9b6fb7e6f032b7eb772c72ab1ec1b4d2e03b9369\n        /* \"Assignments/Lecture 7/RewardPointsInterface.sol\":3417:3423  amount */\n      dup5\n        /* \"Assignments/Lecture 7/RewardPointsInterface.sol\":3396:3424  Redeemed(msg.sender, amount) */\n      mload(0x40)\n      tag_169\n      swap2\n      swap1\n      tag_30\n      jump\t// in\n    tag_169:\n      mload(0x40)\n      dup1\n      swap2\n      sub\n      swap1\n      log2\n        /* \"Assignments/Lecture 7/RewardPointsInterface.sol\":983:984  _ */\n      pop\n        /* \"Assignments/Lecture 7/RewardPointsInterface.sol\":3074:3432  function redeemPoints(uint256 amount) _validateAccount(msg.sender) _validateAmount(amount) public payable virtual {... */\n      pop\n      pop\n      jump\t// out\n        /* \"Assignments/Lecture 7/RewardPointsInterface.sol\":2011:2143  function removePartner(address target) onlyOwner _validateAccount(target) public virtual {... */\n    tag_94:\n        /* \"Assignments/Lecture 7/Helpers/Ownable.sol\":238:243  owner */\n      0x00\n      0x00\n      swap1\n      sload\n      swap1\n      0x0100\n      exp\n      swap1\n      div\n      0xffffffffffffffffffffffffffffffffffffffff\n      and\n        /* \"Assignments/Lecture 7/Helpers/Ownable.sol\":224:243  msg.sender == owner */\n      0xffffffffffffffffffffffffffffffffffffffff\n      and\n        /* \"Assignments/Lecture 7/Helpers/Ownable.sol\":224:234  msg.sender */\n      caller\n        /* \"Assignments/Lecture 7/Helpers/Ownable.sol\":224:243  msg.sender == owner */\n      0xffffffffffffffffffffffffffffffffffffffff\n      and\n      eq\n        /* \"Assignments/Lecture 7/Helpers/Ownable.sol\":216:287  require(msg.sender == owner, \"Only the owner is permitted this action\") */\n      tag_171\n      jumpi\n      mload(0x40)\n      0x08c379a000000000000000000000000000000000000000000000000000000000\n      dup2\n      mstore\n      0x04\n      add\n      tag_172\n      swap1\n      tag_125\n      jump\t// in\n    tag_172:\n      mload(0x40)\n      dup1\n      swap2\n      sub\n      swap1\n      revert\n    tag_171:\n        /* \"Assignments/Lecture 7/RewardPointsInterface.sol\":2077:2083  target */\n      dup1\n        /* \"Assignments/Lecture 7/RewardPointsInterface.sol\":943:944  0 */\n      0x00\n        /* \"Assignments/Lecture 7/RewardPointsInterface.sol\":925:945  target != address(0) */\n      0xffffffffffffffffffffffffffffffffffffffff\n      and\n        /* \"Assignments/Lecture 7/RewardPointsInterface.sol\":925:931  target */\n      dup2\n        /* \"Assignments/Lecture 7/RewardPointsInterface.sol\":925:945  target != address(0) */\n      0xffffffffffffffffffffffffffffffffffffffff\n      and\n      sub\n        /* \"Assignments/Lecture 7/RewardPointsInterface.sol\":917:972  require(target != address(0), \"Invalid Target Address\") */\n      tag_174\n      jumpi\n      mload(0x40)\n      0x08c379a000000000000000000000000000000000000000000000000000000000\n      dup2\n      mstore\n      0x04\n      add\n      tag_175\n      swap1\n      tag_106\n      jump\t// in\n    tag_175:\n      mload(0x40)\n      dup1\n      swap2\n      sub\n      swap1\n      revert\n    tag_174:\n        /* \"Assignments/Lecture 7/RewardPointsInterface.sol\":2130:2135  false */\n      0x00\n        /* \"Assignments/Lecture 7/RewardPointsInterface.sol\":2111:2119  partners */\n      0x05\n        /* \"Assignments/Lecture 7/RewardPointsInterface.sol\":2111:2127  partners[target] */\n      0x00\n        /* \"Assignments/Lecture 7/RewardPointsInterface.sol\":2120:2126  target */\n      dup5\n        /* \"Assignments/Lecture 7/RewardPointsInterface.sol\":2111:2127  partners[target] */\n      0xffffffffffffffffffffffffffffffffffffffff\n      and\n      0xffffffffffffffffffffffffffffffffffffffff\n      and\n      dup2\n      mstore\n      0x20\n      add\n      swap1\n      dup2\n      mstore\n      0x20\n      add\n      0x00\n      keccak256\n      0x00\n        /* \"Assignments/Lecture 7/RewardPointsInterface.sol\":2111:2135  partners[target] = false */\n      0x0100\n      exp\n      dup2\n      sload\n      dup2\n      0xff\n      mul\n      not\n      and\n      swap1\n      dup4\n      iszero\n      iszero\n      mul\n      or\n      swap1\n      sstore\n      pop\n        /* \"Assignments/Lecture 7/Helpers/Ownable.sol\":298:299  _ */\n      pop\n        /* \"Assignments/Lecture 7/RewardPointsInterface.sol\":2011:2143  function removePartner(address target) onlyOwner _validateAccount(target) public virtual {... */\n      pop\n      jump\t// out\n        /* \"Assignments/Lecture 7/RewardPointsInterface.sol\":2495:2734  function _authorizeReward(address target) internal view override {... */\n    tag_113:\n        /* \"Assignments/Lecture 7/RewardPointsInterface.sol\":2595:2599  true */\n      0x01\n        /* \"Assignments/Lecture 7/RewardPointsInterface.sol\":2575:2599  partners[target] == true */\n      iszero\n      iszero\n        /* \"Assignments/Lecture 7/RewardPointsInterface.sol\":2575:2583  partners */\n      0x05\n        /* \"Assignments/Lecture 7/RewardPointsInterface.sol\":2575:2591  partners[target] */\n      0x00\n        /* \"Assignments/Lecture 7/RewardPointsInterface.sol\":2584:2590  target */\n      dup4\n        /* \"Assignments/Lecture 7/RewardPointsInterface.sol\":2575:2591  partners[target] */\n      0xffffffffffffffffffffffffffffffffffffffff\n      and\n      0xffffffffffffffffffffffffffffffffffffffff\n      and\n      dup2\n      mstore\n      0x20\n      add\n      swap1\n      dup2\n      mstore\n      0x20\n      add\n      0x00\n      keccak256\n      0x00\n      swap1\n      sload\n      swap1\n      0x0100\n      exp\n      swap1\n      div\n      0xff\n      and\n        /* \"Assignments/Lecture 7/RewardPointsInterface.sol\":2575:2599  partners[target] == true */\n      iszero\n      iszero\n      sub\n        /* \"Assignments/Lecture 7/RewardPointsInterface.sol\":2571:2633  if (partners[target] == true) { revert UnauthorizedAccess(); } */\n      tag_178\n      jumpi\n        /* \"Assignments/Lecture 7/RewardPointsInterface.sol\":2610:2630  UnauthorizedAccess() */\n      mload(0x40)\n      0x344fd58600000000000000000000000000000000000000000000000000000000\n      dup2\n      mstore\n      0x04\n      add\n      mload(0x40)\n      dup1\n      swap2\n      sub\n      swap1\n      revert\n        /* \"Assignments/Lecture 7/RewardPointsInterface.sol\":2571:2633  if (partners[target] == true) { revert UnauthorizedAccess(); } */\n    tag_178:\n        /* \"Assignments/Lecture 7/RewardPointsInterface.sol\":2668:2676  95 ether */\n      0x052663ccab1e1c0000\n        /* \"Assignments/Lecture 7/RewardPointsInterface.sol\":2648:2655  holders */\n      0x04\n        /* \"Assignments/Lecture 7/RewardPointsInterface.sol\":2648:2663  holders[target] */\n      0x00\n        /* \"Assignments/Lecture 7/RewardPointsInterface.sol\":2656:2662  target */\n      dup4\n        /* \"Assignments/Lecture 7/RewardPointsInterface.sol\":2648:2663  holders[target] */\n      0xffffffffffffffffffffffffffffffffffffffff\n      and\n      0xffffffffffffffffffffffffffffffffffffffff\n      and\n      dup2\n      mstore\n      0x20\n      add\n      swap1\n      dup2\n      mstore\n      0x20\n      add\n      0x00\n      keccak256\n      sload\n        /* \"Assignments/Lecture 7/RewardPointsInterface.sol\":2648:2677  holders[target] <= (95 ether) */\n      gt\n        /* \"Assignments/Lecture 7/RewardPointsInterface.sol\":2644:2707  if (holders[target] <= (95 ether)) { revert IneligibleUser(); } */\n      tag_179\n      jumpi\n        /* \"Assignments/Lecture 7/RewardPointsInterface.sol\":2688:2704  IneligibleUser() */\n      mload(0x40)\n      0xa08105ed00000000000000000000000000000000000000000000000000000000\n      dup2\n      mstore\n      0x04\n      add\n      mload(0x40)\n      dup1\n      swap2\n      sub\n      swap1\n      revert\n        /* \"Assignments/Lecture 7/RewardPointsInterface.sol\":2644:2707  if (holders[target] <= (95 ether)) { revert IneligibleUser(); } */\n    tag_179:\n        /* \"Assignments/Lecture 7/RewardPointsInterface.sol\":2495:2734  function _authorizeReward(address target) internal view override {... */\n      pop\n      jump\t// out\n        /* \"#utility.yul\":7:106   */\n    tag_180:\n        /* \"#utility.yul\":59:65   */\n      0x00\n        /* \"#utility.yul\":93:98   */\n      dup2\n        /* \"#utility.yul\":87:99   */\n      mload\n        /* \"#utility.yul\":77:99   */\n      swap1\n      pop\n        /* \"#utility.yul\":7:106   */\n      swap2\n      swap1\n      pop\n      jump\t// out\n        /* \"#utility.yul\":112:281   */\n    tag_181:\n        /* \"#utility.yul\":196:207   */\n      0x00\n        /* \"#utility.yul\":230:236   */\n      dup3\n        /* \"#utility.yul\":225:228   */\n      dup3\n        /* \"#utility.yul\":218:237   */\n      mstore\n        /* \"#utility.yul\":270:274   */\n      0x20\n        /* \"#utility.yul\":265:268   */\n      dup3\n        /* \"#utility.yul\":261:275   */\n      add\n        /* \"#utility.yul\":246:275   */\n      swap1\n      pop\n        /* \"#utility.yul\":112:281   */\n      swap3\n      swap2\n      pop\n      pop\n      jump\t// out\n        /* \"#utility.yul\":287:426   */\n    tag_182:\n        /* \"#utility.yul\":376:382   */\n      dup3\n        /* \"#utility.yul\":371:374   */\n      dup2\n        /* \"#utility.yul\":366:369   */\n      dup4\n        /* \"#utility.yul\":360:383   */\n      mcopy\n        /* \"#utility.yul\":417:418   */\n      0x00\n        /* \"#utility.yul\":408:414   */\n      dup4\n        /* \"#utility.yul\":403:406   */\n      dup4\n        /* \"#utility.yul\":399:415   */\n      add\n        /* \"#utility.yul\":392:419   */\n      mstore\n        /* \"#utility.yul\":287:426   */\n      pop\n      pop\n      pop\n      jump\t// out\n        /* \"#utility.yul\":432:534   */\n    tag_183:\n        /* \"#utility.yul\":473:479   */\n      0x00\n        /* \"#utility.yul\":524:526   */\n      0x1f\n        /* \"#utility.yul\":520:527   */\n      not\n        /* \"#utility.yul\":515:517   */\n      0x1f\n        /* \"#utility.yul\":508:513   */\n      dup4\n        /* \"#utility.yul\":504:518   */\n      add\n        /* \"#utility.yul\":500:528   */\n      and\n        /* \"#utility.yul\":490:528   */\n      swap1\n      pop\n        /* \"#utility.yul\":432:534   */\n      swap2\n      swap1\n      pop\n      jump\t// out\n        /* \"#utility.yul\":540:917   */\n    tag_184:\n        /* \"#utility.yul\":628:631   */\n      0x00\n        /* \"#utility.yul\":656:695   */\n      tag_217\n        /* \"#utility.yul\":689:694   */\n      dup3\n        /* \"#utility.yul\":656:695   */\n      tag_180\n      jump\t// in\n    tag_217:\n        /* \"#utility.yul\":711:782   */\n      tag_218\n        /* \"#utility.yul\":775:781   */\n      dup2\n        /* \"#utility.yul\":770:773   */\n      dup6\n        /* \"#utility.yul\":711:782   */\n      tag_181\n      jump\t// in\n    tag_218:\n        /* \"#utility.yul\":704:782   */\n      swap4\n      pop\n        /* \"#utility.yul\":791:856   */\n      tag_219\n        /* \"#utility.yul\":849:855   */\n      dup2\n        /* \"#utility.yul\":844:847   */\n      dup6\n        /* \"#utility.yul\":837:841   */\n      0x20\n        /* \"#utility.yul\":830:835   */\n      dup7\n        /* \"#utility.yul\":826:842   */\n      add\n        /* \"#utility.yul\":791:856   */\n      tag_182\n      jump\t// in\n    tag_219:\n        /* \"#utility.yul\":881:910   */\n      tag_220\n        /* \"#utility.yul\":903:909   */\n      dup2\n        /* \"#utility.yul\":881:910   */\n      tag_183\n      jump\t// in\n    tag_220:\n        /* \"#utility.yul\":876:879   */\n      dup5\n        /* \"#utility.yul\":872:911   */\n      add\n        /* \"#utility.yul\":865:911   */\n      swap2\n      pop\n        /* \"#utility.yul\":632:917   */\n      pop\n        /* \"#utility.yul\":540:917   */\n      swap3\n      swap2\n      pop\n      pop\n      jump\t// out\n        /* \"#utility.yul\":923:1236   */\n    tag_25:\n        /* \"#utility.yul\":1036:1040   */\n      0x00\n        /* \"#utility.yul\":1074:1076   */\n      0x20\n        /* \"#utility.yul\":1063:1072   */\n      dup3\n        /* \"#utility.yul\":1059:1077   */\n      add\n        /* \"#utility.yul\":1051:1077   */\n      swap1\n      pop\n        /* \"#utility.yul\":1123:1132   */\n      dup2\n        /* \"#utility.yul\":1117:1121   */\n      dup2\n        /* \"#utility.yul\":1113:1133   */\n      sub\n        /* \"#utility.yul\":1109:1110   */\n      0x00\n        /* \"#utility.yul\":1098:1107   */\n      dup4\n        /* \"#utility.yul\":1094:1111   */\n      add\n        /* \"#utility.yul\":1087:1134   */\n      mstore\n        /* \"#utility.yul\":1151:1229   */\n      tag_222\n        /* \"#utility.yul\":1224:1228   */\n      dup2\n        /* \"#utility.yul\":1215:1221   */\n      dup5\n        /* \"#utility.yul\":1151:1229   */\n      tag_184\n      jump\t// in\n    tag_222:\n        /* \"#utility.yul\":1143:1229   */\n      swap1\n      pop\n        /* \"#utility.yul\":923:1236   */\n      swap3\n      swap2\n      pop\n      pop\n      jump\t// out\n        /* \"#utility.yul\":1242:1319   */\n    tag_185:\n        /* \"#utility.yul\":1279:1286   */\n      0x00\n        /* \"#utility.yul\":1308:1313   */\n      dup2\n        /* \"#utility.yul\":1297:1313   */\n      swap1\n      pop\n        /* \"#utility.yul\":1242:1319   */\n      swap2\n      swap1\n      pop\n      jump\t// out\n        /* \"#utility.yul\":1325:1443   */\n    tag_186:\n        /* \"#utility.yul\":1412:1436   */\n      tag_225\n        /* \"#utility.yul\":1430:1435   */\n      dup2\n        /* \"#utility.yul\":1412:1436   */\n      tag_185\n      jump\t// in\n    tag_225:\n        /* \"#utility.yul\":1407:1410   */\n      dup3\n        /* \"#utility.yul\":1400:1437   */\n      mstore\n        /* \"#utility.yul\":1325:1443   */\n      pop\n      pop\n      jump\t// out\n        /* \"#utility.yul\":1449:1671   */\n    tag_30:\n        /* \"#utility.yul\":1542:1546   */\n      0x00\n        /* \"#utility.yul\":1580:1582   */\n      0x20\n        /* \"#utility.yul\":1569:1578   */\n      dup3\n        /* \"#utility.yul\":1565:1583   */\n      add\n        /* \"#utility.yul\":1557:1583   */\n      swap1\n      pop\n        /* \"#utility.yul\":1593:1664   */\n      tag_227\n        /* \"#utility.yul\":1661:1662   */\n      0x00\n        /* \"#utility.yul\":1650:1659   */\n      dup4\n        /* \"#utility.yul\":1646:1663   */\n      add\n        /* \"#utility.yul\":1637:1643   */\n      dup5\n        /* \"#utility.yul\":1593:1664   */\n      tag_186\n      jump\t// in\n    tag_227:\n        /* \"#utility.yul\":1449:1671   */\n      swap3\n      swap2\n      pop\n      pop\n      jump\t// out\n        /* \"#utility.yul\":1758:1875   */\n    tag_188:\n        /* \"#utility.yul\":1867:1868   */\n      0x00\n        /* \"#utility.yul\":1864:1865   */\n      0x00\n        /* \"#utility.yul\":1857:1869   */\n      revert\n        /* \"#utility.yul\":2004:2130   */\n    tag_190:\n        /* \"#utility.yul\":2041:2048   */\n      0x00\n        /* \"#utility.yul\":2081:2123   */\n      0xffffffffffffffffffffffffffffffffffffffff\n        /* \"#utility.yul\":2074:2079   */\n      dup3\n        /* \"#utility.yul\":2070:2124   */\n      and\n        /* \"#utility.yul\":2059:2124   */\n      swap1\n      pop\n        /* \"#utility.yul\":2004:2130   */\n      swap2\n      swap1\n      pop\n      jump\t// out\n        /* \"#utility.yul\":2136:2232   */\n    tag_191:\n        /* \"#utility.yul\":2173:2180   */\n      0x00\n        /* \"#utility.yul\":2202:2226   */\n      tag_233\n        /* \"#utility.yul\":2220:2225   */\n      dup3\n        /* \"#utility.yul\":2202:2226   */\n      tag_190\n      jump\t// in\n    tag_233:\n        /* \"#utility.yul\":2191:2226   */\n      swap1\n      pop\n        /* \"#utility.yul\":2136:2232   */\n      swap2\n      swap1\n      pop\n      jump\t// out\n        /* \"#utility.yul\":2238:2360   */\n    tag_192:\n        /* \"#utility.yul\":2311:2335   */\n      tag_235\n        /* \"#utility.yul\":2329:2334   */\n      dup2\n        /* \"#utility.yul\":2311:2335   */\n      tag_191\n      jump\t// in\n    tag_235:\n        /* \"#utility.yul\":2304:2309   */\n      dup2\n        /* \"#utility.yul\":2301:2336   */\n      eq\n        /* \"#utility.yul\":2291:2354   */\n      tag_236\n      jumpi\n        /* \"#utility.yul\":2350:2351   */\n      0x00\n        /* \"#utility.yul\":2347:2348   */\n      0x00\n        /* \"#utility.yul\":2340:2352   */\n      revert\n        /* \"#utility.yul\":2291:2354   */\n    tag_236:\n        /* \"#utility.yul\":2238:2360   */\n      pop\n      jump\t// out\n        /* \"#utility.yul\":2366:2505   */\n    tag_193:\n        /* \"#utility.yul\":2412:2417   */\n      0x00\n        /* \"#utility.yul\":2450:2456   */\n      dup2\n        /* \"#utility.yul\":2437:2457   */\n      calldataload\n        /* \"#utility.yul\":2428:2457   */\n      swap1\n      pop\n        /* \"#utility.yul\":2466:2499   */\n      tag_238\n        /* \"#utility.yul\":2493:2498   */\n      dup2\n        /* \"#utility.yul\":2466:2499   */\n      tag_192\n      jump\t// in\n    tag_238:\n        /* \"#utility.yul\":2366:2505   */\n      swap3\n      swap2\n      pop\n      pop\n      jump\t// out\n        /* \"#utility.yul\":2511:2840   */\n    tag_34:\n        /* \"#utility.yul\":2570:2576   */\n      0x00\n        /* \"#utility.yul\":2619:2621   */\n      0x20\n        /* \"#utility.yul\":2607:2616   */\n      dup3\n        /* \"#utility.yul\":2598:2605   */\n      dup5\n        /* \"#utility.yul\":2594:2617   */\n      sub\n        /* \"#utility.yul\":2590:2622   */\n      slt\n        /* \"#utility.yul\":2587:2706   */\n      iszero\n      tag_240\n      jumpi\n        /* \"#utility.yul\":2625:2704   */\n      tag_241\n      tag_188\n      jump\t// in\n    tag_241:\n        /* \"#utility.yul\":2587:2706   */\n    tag_240:\n        /* \"#utility.yul\":2745:2746   */\n      0x00\n        /* \"#utility.yul\":2770:2823   */\n      tag_242\n        /* \"#utility.yul\":2815:2822   */\n      dup5\n        /* \"#utility.yul\":2806:2812   */\n      dup3\n        /* \"#utility.yul\":2795:2804   */\n      dup6\n        /* \"#utility.yul\":2791:2813   */\n      add\n        /* \"#utility.yul\":2770:2823   */\n      tag_193\n      jump\t// in\n    tag_242:\n        /* \"#utility.yul\":2760:2823   */\n      swap2\n      pop\n        /* \"#utility.yul\":2716:2833   */\n      pop\n        /* \"#utility.yul\":2511:2840   */\n      swap3\n      swap2\n      pop\n      pop\n      jump\t// out\n        /* \"#utility.yul\":2846:2932   */\n    tag_194:\n        /* \"#utility.yul\":2881:2888   */\n      0x00\n        /* \"#utility.yul\":2921:2925   */\n      0xff\n        /* \"#utility.yul\":2914:2919   */\n      dup3\n        /* \"#utility.yul\":2910:2926   */\n      and\n        /* \"#utility.yul\":2899:2926   */\n      swap1\n      pop\n        /* \"#utility.yul\":2846:2932   */\n      swap2\n      swap1\n      pop\n      jump\t// out\n        /* \"#utility.yul\":2938:3050   */\n    tag_195:\n        /* \"#utility.yul\":3021:3043   */\n      tag_245\n        /* \"#utility.yul\":3037:3042   */\n      dup2\n        /* \"#utility.yul\":3021:3043   */\n      tag_194\n      jump\t// in\n    tag_245:\n        /* \"#utility.yul\":3016:3019   */\n      dup3\n        /* \"#utility.yul\":3009:3044   */\n      mstore\n        /* \"#utility.yul\":2938:3050   */\n      pop\n      pop\n      jump\t// out\n        /* \"#utility.yul\":3056:3270   */\n    tag_41:\n        /* \"#utility.yul\":3145:3149   */\n      0x00\n        /* \"#utility.yul\":3183:3185   */\n      0x20\n        /* \"#utility.yul\":3172:3181   */\n      dup3\n        /* \"#utility.yul\":3168:3186   */\n      add\n        /* \"#utility.yul\":3160:3186   */\n      swap1\n      pop\n        /* \"#utility.yul\":3196:3263   */\n      tag_247\n        /* \"#utility.yul\":3260:3261   */\n      0x00\n        /* \"#utility.yul\":3249:3258   */\n      dup4\n        /* \"#utility.yul\":3245:3262   */\n      add\n        /* \"#utility.yul\":3236:3242   */\n      dup5\n        /* \"#utility.yul\":3196:3263   */\n      tag_195\n      jump\t// in\n    tag_247:\n        /* \"#utility.yul\":3056:3270   */\n      swap3\n      swap2\n      pop\n      pop\n      jump\t// out\n        /* \"#utility.yul\":3276:3398   */\n    tag_196:\n        /* \"#utility.yul\":3349:3373   */\n      tag_249\n        /* \"#utility.yul\":3367:3372   */\n      dup2\n        /* \"#utility.yul\":3349:3373   */\n      tag_185\n      jump\t// in\n    tag_249:\n        /* \"#utility.yul\":3342:3347   */\n      dup2\n        /* \"#utility.yul\":3339:3374   */\n      eq\n        /* \"#utility.yul\":3329:3392   */\n      tag_250\n      jumpi\n        /* \"#utility.yul\":3388:3389   */\n      0x00\n        /* \"#utility.yul\":3385:3386   */\n      0x00\n        /* \"#utility.yul\":3378:3390   */\n      revert\n        /* \"#utility.yul\":3329:3392   */\n    tag_250:\n        /* \"#utility.yul\":3276:3398   */\n      pop\n      jump\t// out\n        /* \"#utility.yul\":3404:3543   */\n    tag_197:\n        /* \"#utility.yul\":3450:3455   */\n      0x00\n        /* \"#utility.yul\":3488:3494   */\n      dup2\n        /* \"#utility.yul\":3475:3495   */\n      calldataload\n        /* \"#utility.yul\":3466:3495   */\n      swap1\n      pop\n        /* \"#utility.yul\":3504:3537   */\n      tag_252\n        /* \"#utility.yul\":3531:3536   */\n      dup2\n        /* \"#utility.yul\":3504:3537   */\n      tag_196\n      jump\t// in\n    tag_252:\n        /* \"#utility.yul\":3404:3543   */\n      swap3\n      swap2\n      pop\n      pop\n      jump\t// out\n        /* \"#utility.yul\":3549:4023   */\n    tag_45:\n        /* \"#utility.yul\":3617:3623   */\n      0x00\n        /* \"#utility.yul\":3625:3631   */\n      0x00\n        /* \"#utility.yul\":3674:3676   */\n      0x40\n        /* \"#utility.yul\":3662:3671   */\n      dup4\n        /* \"#utility.yul\":3653:3660   */\n      dup6\n        /* \"#utility.yul\":3649:3672   */\n      sub\n        /* \"#utility.yul\":3645:3677   */\n      slt\n        /* \"#utility.yul\":3642:3761   */\n      iszero\n      tag_254\n      jumpi\n        /* \"#utility.yul\":3680:3759   */\n      tag_255\n      tag_188\n      jump\t// in\n    tag_255:\n        /* \"#utility.yul\":3642:3761   */\n    tag_254:\n        /* \"#utility.yul\":3800:3801   */\n      0x00\n        /* \"#utility.yul\":3825:3878   */\n      tag_256\n        /* \"#utility.yul\":3870:3877   */\n      dup6\n        /* \"#utility.yul\":3861:3867   */\n      dup3\n        /* \"#utility.yul\":3850:3859   */\n      dup7\n        /* \"#utility.yul\":3846:3868   */\n      add\n        /* \"#utility.yul\":3825:3878   */\n      tag_193\n      jump\t// in\n    tag_256:\n        /* \"#utility.yul\":3815:3878   */\n      swap3\n      pop\n        /* \"#utility.yul\":3771:3888   */\n      pop\n        /* \"#utility.yul\":3927:3929   */\n      0x20\n        /* \"#utility.yul\":3953:4006   */\n      tag_257\n        /* \"#utility.yul\":3998:4005   */\n      dup6\n        /* \"#utility.yul\":3989:3995   */\n      dup3\n        /* \"#utility.yul\":3978:3987   */\n      dup7\n        /* \"#utility.yul\":3974:3996   */\n      add\n        /* \"#utility.yul\":3953:4006   */\n      tag_197\n      jump\t// in\n    tag_257:\n        /* \"#utility.yul\":3943:4006   */\n      swap2\n      pop\n        /* \"#utility.yul\":3898:4016   */\n      pop\n        /* \"#utility.yul\":3549:4023   */\n      swap3\n      pop\n      swap3\n      swap1\n      pop\n      jump\t// out\n        /* \"#utility.yul\":4029:4147   */\n    tag_198:\n        /* \"#utility.yul\":4116:4140   */\n      tag_259\n        /* \"#utility.yul\":4134:4139   */\n      dup2\n        /* \"#utility.yul\":4116:4140   */\n      tag_191\n      jump\t// in\n    tag_259:\n        /* \"#utility.yul\":4111:4114   */\n      dup3\n        /* \"#utility.yul\":4104:4141   */\n      mstore\n        /* \"#utility.yul\":4029:4147   */\n      pop\n      pop\n      jump\t// out\n        /* \"#utility.yul\":4153:4375   */\n    tag_67:\n        /* \"#utility.yul\":4246:4250   */\n      0x00\n        /* \"#utility.yul\":4284:4286   */\n      0x20\n        /* \"#utility.yul\":4273:4282   */\n      dup3\n        /* \"#utility.yul\":4269:4287   */\n      add\n        /* \"#utility.yul\":4261:4287   */\n      swap1\n      pop\n        /* \"#utility.yul\":4297:4368   */\n      tag_261\n        /* \"#utility.yul\":4365:4366   */\n      0x00\n        /* \"#utility.yul\":4354:4363   */\n      dup4\n        /* \"#utility.yul\":4350:4367   */\n      add\n        /* \"#utility.yul\":4341:4347   */\n      dup5\n        /* \"#utility.yul\":4297:4368   */\n      tag_198\n      jump\t// in\n    tag_261:\n        /* \"#utility.yul\":4153:4375   */\n      swap3\n      swap2\n      pop\n      pop\n      jump\t// out\n        /* \"#utility.yul\":4381:4471   */\n    tag_199:\n        /* \"#utility.yul\":4415:4422   */\n      0x00\n        /* \"#utility.yul\":4458:4463   */\n      dup2\n        /* \"#utility.yul\":4451:4464   */\n      iszero\n        /* \"#utility.yul\":4444:4465   */\n      iszero\n        /* \"#utility.yul\":4433:4465   */\n      swap1\n      pop\n        /* \"#utility.yul\":4381:4471   */\n      swap2\n      swap1\n      pop\n      jump\t// out\n        /* \"#utility.yul\":4477:4586   */\n    tag_200:\n        /* \"#utility.yul\":4558:4579   */\n      tag_264\n        /* \"#utility.yul\":4573:4578   */\n      dup2\n        /* \"#utility.yul\":4558:4579   */\n      tag_199\n      jump\t// in\n    tag_264:\n        /* \"#utility.yul\":4553:4556   */\n      dup3\n        /* \"#utility.yul\":4546:4580   */\n      mstore\n        /* \"#utility.yul\":4477:4586   */\n      pop\n      pop\n      jump\t// out\n        /* \"#utility.yul\":4592:4802   */\n    tag_73:\n        /* \"#utility.yul\":4679:4683   */\n      0x00\n        /* \"#utility.yul\":4717:4719   */\n      0x20\n        /* \"#utility.yul\":4706:4715   */\n      dup3\n        /* \"#utility.yul\":4702:4720   */\n      add\n        /* \"#utility.yul\":4694:4720   */\n      swap1\n      pop\n        /* \"#utility.yul\":4730:4795   */\n      tag_266\n        /* \"#utility.yul\":4792:4793   */\n      0x00\n        /* \"#utility.yul\":4781:4790   */\n      dup4\n        /* \"#utility.yul\":4777:4794   */\n      add\n        /* \"#utility.yul\":4768:4774   */\n      dup5\n        /* \"#utility.yul\":4730:4795   */\n      tag_200\n      jump\t// in\n    tag_266:\n        /* \"#utility.yul\":4592:4802   */\n      swap3\n      swap2\n      pop\n      pop\n      jump\t// out\n        /* \"#utility.yul\":4808:5137   */\n    tag_89:\n        /* \"#utility.yul\":4867:4873   */\n      0x00\n        /* \"#utility.yul\":4916:4918   */\n      0x20\n        /* \"#utility.yul\":4904:4913   */\n      dup3\n        /* \"#utility.yul\":4895:4902   */\n      dup5\n        /* \"#utility.yul\":4891:4914   */\n      sub\n        /* \"#utility.yul\":4887:4919   */\n      slt\n        /* \"#utility.yul\":4884:5003   */\n      iszero\n      tag_268\n      jumpi\n        /* \"#utility.yul\":4922:5001   */\n      tag_269\n      tag_188\n      jump\t// in\n    tag_269:\n        /* \"#utility.yul\":4884:5003   */\n    tag_268:\n        /* \"#utility.yul\":5042:5043   */\n      0x00\n        /* \"#utility.yul\":5067:5120   */\n      tag_270\n        /* \"#utility.yul\":5112:5119   */\n      dup5\n        /* \"#utility.yul\":5103:5109   */\n      dup3\n        /* \"#utility.yul\":5092:5101   */\n      dup6\n        /* \"#utility.yul\":5088:5110   */\n      add\n        /* \"#utility.yul\":5067:5120   */\n      tag_197\n      jump\t// in\n    tag_270:\n        /* \"#utility.yul\":5057:5120   */\n      swap2\n      pop\n        /* \"#utility.yul\":5013:5130   */\n      pop\n        /* \"#utility.yul\":4808:5137   */\n      swap3\n      swap2\n      pop\n      pop\n      jump\t// out\n        /* \"#utility.yul\":5143:5323   */\n    tag_201:\n        /* \"#utility.yul\":5191:5268   */\n      0x4e487b7100000000000000000000000000000000000000000000000000000000\n        /* \"#utility.yul\":5188:5189   */\n      0x00\n        /* \"#utility.yul\":5181:5269   */\n      mstore\n        /* \"#utility.yul\":5288:5292   */\n      0x22\n        /* \"#utility.yul\":5285:5286   */\n      0x04\n        /* \"#utility.yul\":5278:5293   */\n      mstore\n        /* \"#utility.yul\":5312:5316   */\n      0x24\n        /* \"#utility.yul\":5309:5310   */\n      0x00\n        /* \"#utility.yul\":5302:5317   */\n      revert\n        /* \"#utility.yul\":5329:5649   */\n    tag_96:\n        /* \"#utility.yul\":5373:5379   */\n      0x00\n        /* \"#utility.yul\":5410:5411   */\n      0x02\n        /* \"#utility.yul\":5404:5408   */\n      dup3\n        /* \"#utility.yul\":5400:5412   */\n      div\n        /* \"#utility.yul\":5390:5412   */\n      swap1\n      pop\n        /* \"#utility.yul\":5457:5458   */\n      0x01\n        /* \"#utility.yul\":5451:5455   */\n      dup3\n        /* \"#utility.yul\":5447:5459   */\n      and\n        /* \"#utility.yul\":5478:5496   */\n      dup1\n        /* \"#utility.yul\":5468:5549   */\n      tag_273\n      jumpi\n        /* \"#utility.yul\":5534:5538   */\n      0x7f\n        /* \"#utility.yul\":5526:5532   */\n      dup3\n        /* \"#utility.yul\":5522:5539   */\n      and\n        /* \"#utility.yul\":5512:5539   */\n      swap2\n      pop\n        /* \"#utility.yul\":5468:5549   */\n    tag_273:\n        /* \"#utility.yul\":5596:5598   */\n      0x20\n        /* \"#utility.yul\":5588:5594   */\n      dup3\n        /* \"#utility.yul\":5585:5599   */\n      lt\n        /* \"#utility.yul\":5565:5583   */\n      dup2\n        /* \"#utility.yul\":5562:5600   */\n      sub\n        /* \"#utility.yul\":5559:5643   */\n      tag_274\n      jumpi\n        /* \"#utility.yul\":5615:5633   */\n      tag_275\n      tag_201\n      jump\t// in\n    tag_275:\n        /* \"#utility.yul\":5559:5643   */\n    tag_274:\n        /* \"#utility.yul\":5380:5649   */\n      pop\n        /* \"#utility.yul\":5329:5649   */\n      swap2\n      swap1\n      pop\n      jump\t// out\n        /* \"#utility.yul\":5655:5827   */\n    tag_202:\n        /* \"#utility.yul\":5795:5819   */\n      0x496e76616c696420546172676574204164647265737300000000000000000000\n        /* \"#utility.yul\":5791:5792   */\n      0x00\n        /* \"#utility.yul\":5783:5789   */\n      dup3\n        /* \"#utility.yul\":5779:5793   */\n      add\n        /* \"#utility.yul\":5772:5820   */\n      mstore\n        /* \"#utility.yul\":5655:5827   */\n      pop\n      jump\t// out\n        /* \"#utility.yul\":5833:6199   */\n    tag_203:\n        /* \"#utility.yul\":5975:5978   */\n      0x00\n        /* \"#utility.yul\":5996:6063   */\n      tag_278\n        /* \"#utility.yul\":6060:6062   */\n      0x16\n        /* \"#utility.yul\":6055:6058   */\n      dup4\n        /* \"#utility.yul\":5996:6063   */\n      tag_181\n      jump\t// in\n    tag_278:\n        /* \"#utility.yul\":5989:6063   */\n      swap2\n      pop\n        /* \"#utility.yul\":6072:6165   */\n      tag_279\n        /* \"#utility.yul\":6161:6164   */\n      dup3\n        /* \"#utility.yul\":6072:6165   */\n      tag_202\n      jump\t// in\n    tag_279:\n        /* \"#utility.yul\":6190:6192   */\n      0x20\n        /* \"#utility.yul\":6185:6188   */\n      dup3\n        /* \"#utility.yul\":6181:6193   */\n      add\n        /* \"#utility.yul\":6174:6193   */\n      swap1\n      pop\n        /* \"#utility.yul\":5833:6199   */\n      swap2\n      swap1\n      pop\n      jump\t// out\n        /* \"#utility.yul\":6205:6624   */\n    tag_106:\n        /* \"#utility.yul\":6371:6375   */\n      0x00\n        /* \"#utility.yul\":6409:6411   */\n      0x20\n        /* \"#utility.yul\":6398:6407   */\n      dup3\n        /* \"#utility.yul\":6394:6412   */\n      add\n        /* \"#utility.yul\":6386:6412   */\n      swap1\n      pop\n        /* \"#utility.yul\":6458:6467   */\n      dup2\n        /* \"#utility.yul\":6452:6456   */\n      dup2\n        /* \"#utility.yul\":6448:6468   */\n      sub\n        /* \"#utility.yul\":6444:6445   */\n      0x00\n        /* \"#utility.yul\":6433:6442   */\n      dup4\n        /* \"#utility.yul\":6429:6446   */\n      add\n        /* \"#utility.yul\":6422:6469   */\n      mstore\n        /* \"#utility.yul\":6486:6617   */\n      tag_281\n        /* \"#utility.yul\":6612:6616   */\n      dup2\n        /* \"#utility.yul\":6486:6617   */\n      tag_203\n      jump\t// in\n    tag_281:\n        /* \"#utility.yul\":6478:6617   */\n      swap1\n      pop\n        /* \"#utility.yul\":6205:6624   */\n      swap2\n      swap1\n      pop\n      jump\t// out\n        /* \"#utility.yul\":6630:6881   */\n    tag_204:\n        /* \"#utility.yul\":6770:6804   */\n      0x5472616e7366657220416d6f756e74206e6565647320746f206265206174206c\n        /* \"#utility.yul\":6766:6767   */\n      0x00\n        /* \"#utility.yul\":6758:6764   */\n      dup3\n        /* \"#utility.yul\":6754:6768   */\n      add\n        /* \"#utility.yul\":6747:6805   */\n      mstore\n        /* \"#utility.yul\":6839:6873   */\n      0x6561737420657175616c20746f20746865206d696e696d756d20526577617264\n        /* \"#utility.yul\":6834:6836   */\n      0x20\n        /* \"#utility.yul\":6826:6832   */\n      dup3\n        /* \"#utility.yul\":6822:6837   */\n      add\n        /* \"#utility.yul\":6815:6874   */\n      mstore\n        /* \"#utility.yul\":6630:6881   */\n      pop\n      jump\t// out\n        /* \"#utility.yul\":6887:7253   */\n    tag_205:\n        /* \"#utility.yul\":7029:7032   */\n      0x00\n        /* \"#utility.yul\":7050:7117   */\n      tag_284\n        /* \"#utility.yul\":7114:7116   */\n      0x40\n        /* \"#utility.yul\":7109:7112   */\n      dup4\n        /* \"#utility.yul\":7050:7117   */\n      tag_181\n      jump\t// in\n    tag_284:\n        /* \"#utility.yul\":7043:7117   */\n      swap2\n      pop\n        /* \"#utility.yul\":7126:7219   */\n      tag_285\n        /* \"#utility.yul\":7215:7218   */\n      dup3\n        /* \"#utility.yul\":7126:7219   */\n      tag_204\n      jump\t// in\n    tag_285:\n        /* \"#utility.yul\":7244:7246   */\n      0x40\n        /* \"#utility.yul\":7239:7242   */\n      dup3\n        /* \"#utility.yul\":7235:7247   */\n      add\n        /* \"#utility.yul\":7228:7247   */\n      swap1\n      pop\n        /* \"#utility.yul\":6887:7253   */\n      swap2\n      swap1\n      pop\n      jump\t// out\n        /* \"#utility.yul\":7259:7678   */\n    tag_110:\n        /* \"#utility.yul\":7425:7429   */\n      0x00\n        /* \"#utility.yul\":7463:7465   */\n      0x20\n        /* \"#utility.yul\":7452:7461   */\n      dup3\n        /* \"#utility.yul\":7448:7466   */\n      add\n        /* \"#utility.yul\":7440:7466   */\n      swap1\n      pop\n        /* \"#utility.yul\":7512:7521   */\n      dup2\n        /* \"#utility.yul\":7506:7510   */\n      dup2\n        /* \"#utility.yul\":7502:7522   */\n      sub\n        /* \"#utility.yul\":7498:7499   */\n      0x00\n        /* \"#utility.yul\":7487:7496   */\n      dup4\n        /* \"#utility.yul\":7483:7500   */\n      add\n        /* \"#utility.yul\":7476:7523   */\n      mstore\n        /* \"#utility.yul\":7540:7671   */\n      tag_287\n        /* \"#utility.yul\":7666:7670   */\n      dup2\n        /* \"#utility.yul\":7540:7671   */\n      tag_205\n      jump\t// in\n    tag_287:\n        /* \"#utility.yul\":7532:7671   */\n      swap1\n      pop\n        /* \"#utility.yul\":7259:7678   */\n      swap2\n      swap1\n      pop\n      jump\t// out\n        /* \"#utility.yul\":7684:7864   */\n    tag_206:\n        /* \"#utility.yul\":7732:7809   */\n      0x4e487b7100000000000000000000000000000000000000000000000000000000\n        /* \"#utility.yul\":7729:7730   */\n      0x00\n        /* \"#utility.yul\":7722:7810   */\n      mstore\n        /* \"#utility.yul\":7829:7833   */\n      0x11\n        /* \"#utility.yul\":7826:7827   */\n      0x04\n        /* \"#utility.yul\":7819:7834   */\n      mstore\n        /* \"#utility.yul\":7853:7857   */\n      0x24\n        /* \"#utility.yul\":7850:7851   */\n      0x00\n        /* \"#utility.yul\":7843:7858   */\n      revert\n        /* \"#utility.yul\":7870:8061   */\n    tag_115:\n        /* \"#utility.yul\":7910:7913   */\n      0x00\n        /* \"#utility.yul\":7929:7949   */\n      tag_290\n        /* \"#utility.yul\":7947:7948   */\n      dup3\n        /* \"#utility.yul\":7929:7949   */\n      tag_185\n      jump\t// in\n    tag_290:\n        /* \"#utility.yul\":7924:7949   */\n      swap2\n      pop\n        /* \"#utility.yul\":7963:7983   */\n      tag_291\n        /* \"#utility.yul\":7981:7982   */\n      dup4\n        /* \"#utility.yul\":7963:7983   */\n      tag_185\n      jump\t// in\n    tag_291:\n        /* \"#utility.yul\":7958:7983   */\n      swap3\n      pop\n        /* \"#utility.yul\":8006:8007   */\n      dup3\n        /* \"#utility.yul\":8003:8004   */\n      dup3\n        /* \"#utility.yul\":7999:8008   */\n      add\n        /* \"#utility.yul\":7992:8008   */\n      swap1\n      pop\n        /* \"#utility.yul\":8027:8030   */\n      dup1\n        /* \"#utility.yul\":8024:8025   */\n      dup3\n        /* \"#utility.yul\":8021:8031   */\n      gt\n        /* \"#utility.yul\":8018:8054   */\n      iszero\n      tag_292\n      jumpi\n        /* \"#utility.yul\":8034:8052   */\n      tag_293\n      tag_206\n      jump\t// in\n    tag_293:\n        /* \"#utility.yul\":8018:8054   */\n    tag_292:\n        /* \"#utility.yul\":7870:8061   */\n      swap3\n      swap2\n      pop\n      pop\n      jump\t// out\n        /* \"#utility.yul\":8067:8293   */\n    tag_207:\n        /* \"#utility.yul\":8207:8241   */\n      0x4f6e6c7920746865206f776e6572206973207065726d69747465642074686973\n        /* \"#utility.yul\":8203:8204   */\n      0x00\n        /* \"#utility.yul\":8195:8201   */\n      dup3\n        /* \"#utility.yul\":8191:8205   */\n      add\n        /* \"#utility.yul\":8184:8242   */\n      mstore\n        /* \"#utility.yul\":8276:8285   */\n      0x20616374696f6e00000000000000000000000000000000000000000000000000\n        /* \"#utility.yul\":8271:8273   */\n      0x20\n        /* \"#utility.yul\":8263:8269   */\n      dup3\n        /* \"#utility.yul\":8259:8274   */\n      add\n        /* \"#utility.yul\":8252:8286   */\n      mstore\n        /* \"#utility.yul\":8067:8293   */\n      pop\n      jump\t// out\n        /* \"#utility.yul\":8299:8665   */\n    tag_208:\n        /* \"#utility.yul\":8441:8444   */\n      0x00\n        /* \"#utility.yul\":8462:8529   */\n      tag_296\n        /* \"#utility.yul\":8526:8528   */\n      0x27\n        /* \"#utility.yul\":8521:8524   */\n      dup4\n        /* \"#utility.yul\":8462:8529   */\n      tag_181\n      jump\t// in\n    tag_296:\n        /* \"#utility.yul\":8455:8529   */\n      swap2\n      pop\n        /* \"#utility.yul\":8538:8631   */\n      tag_297\n        /* \"#utility.yul\":8627:8630   */\n      dup3\n        /* \"#utility.yul\":8538:8631   */\n      tag_207\n      jump\t// in\n    tag_297:\n        /* \"#utility.yul\":8656:8658   */\n      0x40\n        /* \"#utility.yul\":8651:8654   */\n      dup3\n        /* \"#utility.yul\":8647:8659   */\n      add\n        /* \"#utility.yul\":8640:8659   */\n      swap1\n      pop\n        /* \"#utility.yul\":8299:8665   */\n      swap2\n      swap1\n      pop\n      jump\t// out\n        /* \"#utility.yul\":8671:9090   */\n    tag_125:\n        /* \"#utility.yul\":8837:8841   */\n      0x00\n        /* \"#utility.yul\":8875:8877   */\n      0x20\n        /* \"#utility.yul\":8864:8873   */\n      dup3\n        /* \"#utility.yul\":8860:8878   */\n      add\n        /* \"#utility.yul\":8852:8878   */\n      swap1\n      pop\n        /* \"#utility.yul\":8924:8933   */\n      dup2\n        /* \"#utility.yul\":8918:8922   */\n      dup2\n        /* \"#utility.yul\":8914:8934   */\n      sub\n        /* \"#utility.yul\":8910:8911   */\n      0x00\n        /* \"#utility.yul\":8899:8908   */\n      dup4\n        /* \"#utility.yul\":8895:8912   */\n      add\n        /* \"#utility.yul\":8888:8935   */\n      mstore\n        /* \"#utility.yul\":8952:9083   */\n      tag_299\n        /* \"#utility.yul\":9078:9082   */\n      dup2\n        /* \"#utility.yul\":8952:9083   */\n      tag_208\n      jump\t// in\n    tag_299:\n        /* \"#utility.yul\":8944:9083   */\n      swap1\n      pop\n        /* \"#utility.yul\":8671:9090   */\n      swap2\n      swap1\n      pop\n      jump\t// out\n        /* \"#utility.yul\":9096:9413   */\n    tag_209:\n        /* \"#utility.yul\":9236:9270   */\n      0x496e76616c696420416464726573732c20696620796f752077616e7420746f20\n        /* \"#utility.yul\":9232:9233   */\n      0x00\n        /* \"#utility.yul\":9224:9230   */\n      dup3\n        /* \"#utility.yul\":9220:9234   */\n      add\n        /* \"#utility.yul\":9213:9271   */\n      mstore\n        /* \"#utility.yul\":9305:9339   */\n      0x72656d6f766520746865206f776e65722075736520746865202772656e6f756e\n        /* \"#utility.yul\":9300:9302   */\n      0x20\n        /* \"#utility.yul\":9292:9298   */\n      dup3\n        /* \"#utility.yul\":9288:9303   */\n      add\n        /* \"#utility.yul\":9281:9340   */\n      mstore\n        /* \"#utility.yul\":9374:9405   */\n      0x63654f776e657273686970272066756e6374696f6e20696e7374656164000000\n        /* \"#utility.yul\":9369:9371   */\n      0x40\n        /* \"#utility.yul\":9361:9367   */\n      dup3\n        /* \"#utility.yul\":9357:9372   */\n      add\n        /* \"#utility.yul\":9350:9406   */\n      mstore\n        /* \"#utility.yul\":9096:9413   */\n      pop\n      jump\t// out\n        /* \"#utility.yul\":9419:9785   */\n    tag_210:\n        /* \"#utility.yul\":9561:9564   */\n      0x00\n        /* \"#utility.yul\":9582:9649   */\n      tag_302\n        /* \"#utility.yul\":9646:9648   */\n      0x5d\n        /* \"#utility.yul\":9641:9644   */\n      dup4\n        /* \"#utility.yul\":9582:9649   */\n      tag_181\n      jump\t// in\n    tag_302:\n        /* \"#utility.yul\":9575:9649   */\n      swap2\n      pop\n        /* \"#utility.yul\":9658:9751   */\n      tag_303\n        /* \"#utility.yul\":9747:9750   */\n      dup3\n        /* \"#utility.yul\":9658:9751   */\n      tag_209\n      jump\t// in\n    tag_303:\n        /* \"#utility.yul\":9776:9778   */\n      0x60\n        /* \"#utility.yul\":9771:9774   */\n      dup3\n        /* \"#utility.yul\":9767:9779   */\n      add\n        /* \"#utility.yul\":9760:9779   */\n      swap1\n      pop\n        /* \"#utility.yul\":9419:9785   */\n      swap2\n      swap1\n      pop\n      jump\t// out\n        /* \"#utility.yul\":9791:10210   */\n    tag_134:\n        /* \"#utility.yul\":9957:9961   */\n      0x00\n        /* \"#utility.yul\":9995:9997   */\n      0x20\n        /* \"#utility.yul\":9984:9993   */\n      dup3\n        /* \"#utility.yul\":9980:9998   */\n      add\n        /* \"#utility.yul\":9972:9998   */\n      swap1\n      pop\n        /* \"#utility.yul\":10044:10053   */\n      dup2\n        /* \"#utility.yul\":10038:10042   */\n      dup2\n        /* \"#utility.yul\":10034:10054   */\n      sub\n        /* \"#utility.yul\":10030:10031   */\n      0x00\n        /* \"#utility.yul\":10019:10028   */\n      dup4\n        /* \"#utility.yul\":10015:10032   */\n      add\n        /* \"#utility.yul\":10008:10055   */\n      mstore\n        /* \"#utility.yul\":10072:10203   */\n      tag_305\n        /* \"#utility.yul\":10198:10202   */\n      dup2\n        /* \"#utility.yul\":10072:10203   */\n      tag_210\n      jump\t// in\n    tag_305:\n        /* \"#utility.yul\":10064:10203   */\n      swap1\n      pop\n        /* \"#utility.yul\":9791:10210   */\n      swap2\n      swap1\n      pop\n      jump\t// out\n        /* \"#utility.yul\":10216:10410   */\n    tag_155:\n        /* \"#utility.yul\":10256:10260   */\n      0x00\n        /* \"#utility.yul\":10276:10296   */\n      tag_307\n        /* \"#utility.yul\":10294:10295   */\n      dup3\n        /* \"#utility.yul\":10276:10296   */\n      tag_185\n      jump\t// in\n    tag_307:\n        /* \"#utility.yul\":10271:10296   */\n      swap2\n      pop\n        /* \"#utility.yul\":10310:10330   */\n      tag_308\n        /* \"#utility.yul\":10328:10329   */\n      dup4\n        /* \"#utility.yul\":10310:10330   */\n      tag_185\n      jump\t// in\n    tag_308:\n        /* \"#utility.yul\":10305:10330   */\n      swap3\n      pop\n        /* \"#utility.yul\":10354:10355   */\n      dup3\n        /* \"#utility.yul\":10351:10352   */\n      dup3\n        /* \"#utility.yul\":10347:10356   */\n      sub\n        /* \"#utility.yul\":10339:10356   */\n      swap1\n      pop\n        /* \"#utility.yul\":10378:10379   */\n      dup2\n        /* \"#utility.yul\":10372:10376   */\n      dup2\n        /* \"#utility.yul\":10369:10380   */\n      gt\n        /* \"#utility.yul\":10366:10403   */\n      iszero\n      tag_309\n      jumpi\n        /* \"#utility.yul\":10383:10401   */\n      tag_310\n      tag_206\n      jump\t// in\n    tag_310:\n        /* \"#utility.yul\":10366:10403   */\n    tag_309:\n        /* \"#utility.yul\":10216:10410   */\n      swap3\n      swap2\n      pop\n      pop\n      jump\t// out\n\n    auxdata: 0xa2646970667358221220c443c171e962a1064fc2fa5577bfd98d18ff713cb7162ce1b0da713a4ff94f5264736f6c634300081c0033\n}\n",
				"bytecode": {
					"linkReferences": {},
					"object": "60c0604052604051611e9f380380611e9f833981810160405281019061002591906102a6565b81805f5f6101000a81548173ffffffffffffffffffffffffffffffffffffffff021916908373ffffffffffffffffffffffffffffffffffffffff160217905550508460019081610075919061055c565b508260ff1660808160ff16815250508060a08181525050505050505061062b565b5f604051905090565b5f5ffd5b5f5ffd5b5f5ffd5b5f5ffd5b5f601f19601f8301169050919050565b7f4e487b71000000000000000000000000000000000000000000000000000000005f52604160045260245ffd5b6100f5826100af565b810181811067ffffffffffffffff82111715610114576101136100bf565b5b80604052505050565b5f610126610096565b905061013282826100ec565b919050565b5f67ffffffffffffffff821115610151576101506100bf565b5b61015a826100af565b9050602081019050919050565b8281835e5f83830152505050565b5f61018761018284610137565b61011d565b9050828152602081018484840111156101a3576101a26100ab565b5b6101ae848285610167565b509392505050565b5f82601f8301126101ca576101c96100a7565b5b81516101da848260208601610175565b91505092915050565b5f60ff82169050919050565b6101f8816101e3565b8114610202575f5ffd5b50565b5f81519050610213816101ef565b92915050565b5f73ffffffffffffffffffffffffffffffffffffffff82169050919050565b5f61024282610219565b9050919050565b61025281610238565b811461025c575f5ffd5b50565b5f8151905061026d81610249565b92915050565b5f819050919050565b61028581610273565b811461028f575f5ffd5b50565b5f815190506102a08161027c565b92915050565b5f5f5f5f5f60a086880312156102bf576102be61009f565b5b5f86015167ffffffffffffffff8111156102dc576102db6100a3565b5b6102e8888289016101b6565b955050602086015167ffffffffffffffff811115610309576103086100a3565b5b610315888289016101b6565b945050604061032688828901610205565b93505060606103378882890161025f565b925050608061034888828901610292565b9150509295509295909350565b5f81519050919050565b7f4e487b71000000000000000000000000000000000000000000000000000000005f52602260045260245ffd5b5f60028204905060018216806103a357607f821691505b6020821081036103b6576103b561035f565b5b50919050565b5f819050815f5260205f209050919050565b5f6020601f8301049050919050565b5f82821b905092915050565b5f600883026104187fffffffffffffffffffffffffffffffffffffffffffffffffffffffffffffffff826103dd565b61042286836103dd565b95508019841693508086168417925050509392505050565b5f819050919050565b5f61045d61045861045384610273565b61043a565b610273565b9050919050565b5f819050919050565b61047683610443565b61048a61048282610464565b8484546103e9565b825550505050565b5f5f905090565b6104a1610492565b6104ac81848461046d565b505050565b5b818110156104cf576104c45f82610499565b6001810190506104b2565b5050565b601f821115610514576104e5816103bc565b6104ee846103ce565b810160208510156104fd578190505b610511610509856103ce565b8301826104b1565b50505b505050565b5f82821c905092915050565b5f6105345f1984600802610519565b1980831691505092915050565b5f61054c8383610525565b9150826002028217905092915050565b61056582610355565b67ffffffffffffffff81111561057e5761057d6100bf565b5b610588825461038c565b6105938282856104d3565b5f60209050601f8311600181146105c4575f84156105b2578287015190505b6105bc8582610541565b865550610623565b601f1984166105d2866103bc565b5f5b828110156105f9578489015182556001820191506020850194506020810190506105d4565b868310156106165784890151610612601f891682610525565b8355505b6001600288020188555050505b505050505050565b60805160a05161183e6106615f395f818161057701528181610c6901528181610de30152610e7701525f61045d015261183e5ff3fe6080604052600436106100f2575f3560e01c80638bf3423711610089578063a9059cbb11610058578063a9059cbb1461030a578063ba16d60014610346578063e92e92e714610370578063ea3c281a1461038c576100f2565b80638bf34237146102525780638da5cb5b1461027a57806395c33652146102a457806395d89b41146102e0576100f2565b80636a7dfd1a116100c55780636a7dfd1a146101b057806370a08231146101d8578063715018a61461021457806383fc58b41461022a576100f2565b806306fdde03146100f657806318160ddd1461012057806318a5bbdc1461014a578063313ce56714610186575b5f5ffd5b348015610101575f5ffd5b5061010a6103b4565b60405161011791906112e4565b60405180910390f35b34801561012b575f5ffd5b50610134610440565b604051610141919061131c565b60405180910390f35b348015610155575f5ffd5b50610170600480360381019061016b9190611393565b610446565b60405161017d919061131c565b60405180910390f35b348015610191575f5ffd5b5061019a61045b565b6040516101a791906113d9565b60405180910390f35b3480156101bb575f5ffd5b506101d660048036038101906101d1919061141c565b61047f565b005b3480156101e3575f5ffd5b506101fe60048036038101906101f99190611393565b6106b7565b60405161020b919061131c565b60405180910390f35b34801561021f575f5ffd5b5061022861076d565b005b348015610235575f5ffd5b50610250600480360381019061024b9190611393565b61083c565b005b34801561025d575f5ffd5b5061027860048036038101906102739190611393565b6109d3565b005b348015610285575f5ffd5b5061028e610b29565b60405161029b9190611469565b60405180910390f35b3480156102af575f5ffd5b506102ca60048036038101906102c59190611393565b610b4d565b6040516102d7919061149c565b60405180910390f35b3480156102eb575f5ffd5b506102f4610b6a565b60405161030191906112e4565b60405180910390f35b348015610315575f5ffd5b50610330600480360381019061032b919061141c565b610bf6565b60405161033d919061149c565b60405180910390f35b348015610351575f5ffd5b5061035a610de1565b604051610367919061131c565b60405180910390f35b61038a600480360381019061038591906114b5565b610e05565b005b348015610397575f5ffd5b506103b260048036038101906103ad9190611393565b611016565b005b600180546103c19061150d565b80601f01602080910402602001604051908101604052809291908181526020018280546103ed9061150d565b80156104385780601f1061040f57610100808354040283529160200191610438565b820191905f5260205f20905b81548152906001019060200180831161041b57829003601f168201915b505050505081565b60035481565b6004602052805f5260405f205f915090505481565b7f000000000000000000000000000000000000000000000000000000000000000081565b5f151560055f3373ffffffffffffffffffffffffffffffffffffffff1673ffffffffffffffffffffffffffffffffffffffff1681526020019081526020015f205f9054906101000a900460ff16151503610505576040517f344fd58600000000000000000000000000000000000000000000000000000000815260040160405180910390fd5b815f73ffffffffffffffffffffffffffffffffffffffff168173ffffffffffffffffffffffffffffffffffffffff1603610574576040517f08c379a000000000000000000000000000000000000000000000000000000000815260040161056b90611587565b60405180910390fd5b817f00000000000000000000000000000000000000000000000000000000000000008110156105d8576040517f08c379a00000000000000000000000000000000000000000000000000000000081526004016105cf90611615565b60405180910390fd5b6105e18461116b565b8260035f8282546105f29190611660565b925050819055508260045f8673ffffffffffffffffffffffffffffffffffffffff1673ffffffffffffffffffffffffffffffffffffffff1681526020019081526020015f205f8282546106459190611660565b925050819055508373ffffffffffffffffffffffffffffffffffffffff165f73ffffffffffffffffffffffffffffffffffffffff167f6876a213a761d9b4f8d7ba3609528ef85da671684271f75fdacb41be8db29f45856040516106a9919061131c565b60405180910390a350505050565b5f815f73ffffffffffffffffffffffffffffffffffffffff168173ffffffffffffffffffffffffffffffffffffffff1603610727576040517f08c379a000000000000000000000000000000000000000000000000000000000815260040161071e90611587565b60405180910390fd5b60045f8473ffffffffffffffffffffffffffffffffffffffff1673ffffffffffffffffffffffffffffffffffffffff1681526020019081526020015f2054915050919050565b5f5f9054906101000a900473ffffffffffffffffffffffffffffffffffffffff1673ffffffffffffffffffffffffffffffffffffffff163373ffffffffffffffffffffffffffffffffffffffff16146107fb576040517f08c379a00000000000000000000000000000000000000000000000000000000081526004016107f290611703565b60405180910390fd5b5f5f5f6101000a81548173ffffffffffffffffffffffffffffffffffffffff021916908373ffffffffffffffffffffffffffffffffffffffff160217905550565b5f5f9054906101000a900473ffffffffffffffffffffffffffffffffffffffff1673ffffffffffffffffffffffffffffffffffffffff163373ffffffffffffffffffffffffffffffffffffffff16146108ca576040517f08c379a00000000000000000000000000000000000000000000000000000000081526004016108c190611703565b60405180910390fd5b5f73ffffffffffffffffffffffffffffffffffffffff168173ffffffffffffffffffffffffffffffffffffffff161415801561095257505f5f9054906101000a900473ffffffffffffffffffffffffffffffffffffffff1673ffffffffffffffffffffffffffffffffffffffff168173ffffffffffffffffffffffffffffffffffffffff1614155b610991576040517f08c379a0000000000000000000000000000000000000000000000000000000008152600401610988906117b7565b60405180910390fd5b805f5f6101000a81548173ffffffffffffffffffffffffffffffffffffffff021916908373ffffffffffffffffffffffffffffffffffffffff16021790555050565b5f5f9054906101000a900473ffffffffffffffffffffffffffffffffffffffff1673ffffffffffffffffffffffffffffffffffffffff163373ffffffffffffffffffffffffffffffffffffffff1614610a61576040517f08c379a0000000000000000000000000000000000000000000000000000000008152600401610a5890611703565b60405180910390fd5b805f73ffffffffffffffffffffffffffffffffffffffff168173ffffffffffffffffffffffffffffffffffffffff1603610ad0576040517f08c379a0000000000000000000000000000000000000000000000000000000008152600401610ac790611587565b60405180910390fd5b600160055f8473ffffffffffffffffffffffffffffffffffffffff1673ffffffffffffffffffffffffffffffffffffffff1681526020019081526020015f205f6101000a81548160ff0219169083151502179055505050565b5f5f9054906101000a900473ffffffffffffffffffffffffffffffffffffffff1681565b6005602052805f5260405f205f915054906101000a900460ff1681565b60028054610b779061150d565b80601f0160208091040260200160405190810160405280929190818152602001828054610ba39061150d565b8015610bee5780601f10610bc557610100808354040283529160200191610bee565b820191905f5260205f20905b815481529060010190602001808311610bd157829003601f168201915b505050505081565b5f825f73ffffffffffffffffffffffffffffffffffffffff168173ffffffffffffffffffffffffffffffffffffffff1603610c66576040517f08c379a0000000000000000000000000000000000000000000000000000000008152600401610c5d90611587565b60405180910390fd5b827f0000000000000000000000000000000000000000000000000000000000000000811015610cca576040517f08c379a0000000000000000000000000000000000000000000000000000000008152600401610cc190611615565b60405180910390fd5b8360045f3373ffffffffffffffffffffffffffffffffffffffff1673ffffffffffffffffffffffffffffffffffffffff1681526020019081526020015f205f828254610d1691906117d5565b925050819055508360045f8773ffffffffffffffffffffffffffffffffffffffff1673ffffffffffffffffffffffffffffffffffffffff1681526020019081526020015f205f828254610d699190611660565b925050819055508473ffffffffffffffffffffffffffffffffffffffff163373ffffffffffffffffffffffffffffffffffffffff167fddf252ad1be2c89b69c2b068fc378daa952ba7f163c4a11628f55a4df523b3ef86604051610dcd919061131c565b60405180910390a360019250505092915050565b7f000000000000000000000000000000000000000000000000000000000000000081565b335f73ffffffffffffffffffffffffffffffffffffffff168173ffffffffffffffffffffffffffffffffffffffff1603610e74576040517f08c379a0000000000000000000000000000000000000000000000000000000008152600401610e6b90611587565b60405180910390fd5b817f0000000000000000000000000000000000000000000000000000000000000000811015610ed8576040517f08c379a0000000000000000000000000000000000000000000000000000000008152600401610ecf90611615565b60405180910390fd5b610ee13361116b565b8260045f3373ffffffffffffffffffffffffffffffffffffffff1673ffffffffffffffffffffffffffffffffffffffff1681526020019081526020015f20541015610f58576040517f7c1b595700000000000000000000000000000000000000000000000000000000815260040160405180910390fd5b8260045f3373ffffffffffffffffffffffffffffffffffffffff1673ffffffffffffffffffffffffffffffffffffffff1681526020019081526020015f205f828254610fa491906117d5565b925050819055508260035f828254610fbc91906117d5565b925050819055503373ffffffffffffffffffffffffffffffffffffffff167f4896181ff8f4543cc00db9fe9b6fb7e6f032b7eb772c72ab1ec1b4d2e03b936984604051611009919061131c565b60405180910390a2505050565b5f5f9054906101000a900473ffffffffffffffffffffffffffffffffffffffff1673ffffffffffffffffffffffffffffffffffffffff163373ffffffffffffffffffffffffffffffffffffffff16146110a4576040517f08c379a000000000000000000000000000000000000000000000000000000000815260040161109b90611703565b60405180910390fd5b805f73ffffffffffffffffffffffffffffffffffffffff168173ffffffffffffffffffffffffffffffffffffffff1603611113576040517f08c379a000000000000000000000000000000000000000000000000000000000815260040161110a90611587565b60405180910390fd5b5f60055f8473ffffffffffffffffffffffffffffffffffffffff1673ffffffffffffffffffffffffffffffffffffffff1681526020019081526020015f205f6101000a81548160ff0219169083151502179055505050565b6001151560055f8373ffffffffffffffffffffffffffffffffffffffff1673ffffffffffffffffffffffffffffffffffffffff1681526020019081526020015f205f9054906101000a900460ff161515036111f2576040517f344fd58600000000000000000000000000000000000000000000000000000000815260040160405180910390fd5b68052663ccab1e1c000060045f8373ffffffffffffffffffffffffffffffffffffffff1673ffffffffffffffffffffffffffffffffffffffff1681526020019081526020015f205411611271576040517fa08105ed00000000000000000000000000000000000000000000000000000000815260040160405180910390fd5b50565b5f81519050919050565b5f82825260208201905092915050565b8281835e5f83830152505050565b5f601f19601f8301169050919050565b5f6112b682611274565b6112c0818561127e565b93506112d081856020860161128e565b6112d98161129c565b840191505092915050565b5f6020820190508181035f8301526112fc81846112ac565b905092915050565b5f819050919050565b61131681611304565b82525050565b5f60208201905061132f5f83018461130d565b92915050565b5f5ffd5b5f73ffffffffffffffffffffffffffffffffffffffff82169050919050565b5f61136282611339565b9050919050565b61137281611358565b811461137c575f5ffd5b50565b5f8135905061138d81611369565b92915050565b5f602082840312156113a8576113a7611335565b5b5f6113b58482850161137f565b91505092915050565b5f60ff82169050919050565b6113d3816113be565b82525050565b5f6020820190506113ec5f8301846113ca565b92915050565b6113fb81611304565b8114611405575f5ffd5b50565b5f81359050611416816113f2565b92915050565b5f5f6040838503121561143257611431611335565b5b5f61143f8582860161137f565b925050602061145085828601611408565b9150509250929050565b61146381611358565b82525050565b5f60208201905061147c5f83018461145a565b92915050565b5f8115159050919050565b61149681611482565b82525050565b5f6020820190506114af5f83018461148d565b92915050565b5f602082840312156114ca576114c9611335565b5b5f6114d784828501611408565b91505092915050565b7f4e487b71000000000000000000000000000000000000000000000000000000005f52602260045260245ffd5b5f600282049050600182168061152457607f821691505b602082108103611537576115366114e0565b5b50919050565b7f496e76616c6964205461726765742041646472657373000000000000000000005f82015250565b5f61157160168361127e565b915061157c8261153d565b602082019050919050565b5f6020820190508181035f83015261159e81611565565b9050919050565b7f5472616e7366657220416d6f756e74206e6565647320746f206265206174206c5f8201527f6561737420657175616c20746f20746865206d696e696d756d20526577617264602082015250565b5f6115ff60408361127e565b915061160a826115a5565b604082019050919050565b5f6020820190508181035f83015261162c816115f3565b9050919050565b7f4e487b71000000000000000000000000000000000000000000000000000000005f52601160045260245ffd5b5f61166a82611304565b915061167583611304565b925082820190508082111561168d5761168c611633565b5b92915050565b7f4f6e6c7920746865206f776e6572206973207065726d697474656420746869735f8201527f20616374696f6e00000000000000000000000000000000000000000000000000602082015250565b5f6116ed60278361127e565b91506116f882611693565b604082019050919050565b5f6020820190508181035f83015261171a816116e1565b9050919050565b7f496e76616c696420416464726573732c20696620796f752077616e7420746f205f8201527f72656d6f766520746865206f776e65722075736520746865202772656e6f756e60208201527f63654f776e657273686970272066756e6374696f6e20696e7374656164000000604082015250565b5f6117a1605d8361127e565b91506117ac82611721565b606082019050919050565b5f6020820190508181035f8301526117ce81611795565b9050919050565b5f6117df82611304565b91506117ea83611304565b925082820390508181111561180257611801611633565b5b9291505056fea2646970667358221220c443c171e962a1064fc2fa5577bfd98d18ff713cb7162ce1b0da713a4ff94f5264736f6c634300081c0033",
					"opcodes": "PUSH1 0xC0 PUSH1 0x40 MSTORE PUSH1 0x40 MLOAD PUSH2 0x1E9F CODESIZE SUB DUP1 PUSH2 0x1E9F DUP4 CODECOPY DUP2 DUP2 ADD PUSH1 0x40 MSTORE DUP2 ADD SWAP1 PUSH2 0x25 SWAP2 SWAP1 PUSH2 0x2A6 JUMP JUMPDEST DUP2 DUP1 PUSH0 PUSH0 PUSH2 0x100 EXP DUP2 SLOAD DUP2 PUSH20 0xFFFFFFFFFFFFFFFFFFFFFFFFFFFFFFFFFFFFFFFF MUL NOT AND SWAP1 DUP4 PUSH20 0xFFFFFFFFFFFFFFFFFFFFFFFFFFFFFFFFFFFFFFFF AND MUL OR SWAP1 SSTORE POP POP DUP5 PUSH1 0x1 SWAP1 DUP2 PUSH2 0x75 SWAP2 SWAP1 PUSH2 0x55C JUMP JUMPDEST POP DUP3 PUSH1 0xFF AND PUSH1 0x80 DUP2 PUSH1 0xFF AND DUP2 MSTORE POP POP DUP1 PUSH1 0xA0 DUP2 DUP2 MSTORE POP POP POP POP POP POP POP PUSH2 0x62B JUMP JUMPDEST PUSH0 PUSH1 0x40 MLOAD SWAP1 POP SWAP1 JUMP JUMPDEST PUSH0 PUSH0 REVERT JUMPDEST PUSH0 PUSH0 REVERT JUMPDEST PUSH0 PUSH0 REVERT JUMPDEST PUSH0 PUSH0 REVERT JUMPDEST PUSH0 PUSH1 0x1F NOT PUSH1 0x1F DUP4 ADD AND SWAP1 POP SWAP2 SWAP1 POP JUMP JUMPDEST PUSH32 0x4E487B7100000000000000000000000000000000000000000000000000000000 PUSH0 MSTORE PUSH1 0x41 PUSH1 0x4 MSTORE PUSH1 0x24 PUSH0 REVERT JUMPDEST PUSH2 0xF5 DUP3 PUSH2 0xAF JUMP JUMPDEST DUP2 ADD DUP2 DUP2 LT PUSH8 0xFFFFFFFFFFFFFFFF DUP3 GT OR ISZERO PUSH2 0x114 JUMPI PUSH2 0x113 PUSH2 0xBF JUMP JUMPDEST JUMPDEST DUP1 PUSH1 0x40 MSTORE POP POP POP JUMP JUMPDEST PUSH0 PUSH2 0x126 PUSH2 0x96 JUMP JUMPDEST SWAP1 POP PUSH2 0x132 DUP3 DUP3 PUSH2 0xEC JUMP JUMPDEST SWAP2 SWAP1 POP JUMP JUMPDEST PUSH0 PUSH8 0xFFFFFFFFFFFFFFFF DUP3 GT ISZERO PUSH2 0x151 JUMPI PUSH2 0x150 PUSH2 0xBF JUMP JUMPDEST JUMPDEST PUSH2 0x15A DUP3 PUSH2 0xAF JUMP JUMPDEST SWAP1 POP PUSH1 0x20 DUP2 ADD SWAP1 POP SWAP2 SWAP1 POP JUMP JUMPDEST DUP3 DUP2 DUP4 MCOPY PUSH0 DUP4 DUP4 ADD MSTORE POP POP POP JUMP JUMPDEST PUSH0 PUSH2 0x187 PUSH2 0x182 DUP5 PUSH2 0x137 JUMP JUMPDEST PUSH2 0x11D JUMP JUMPDEST SWAP1 POP DUP3 DUP2 MSTORE PUSH1 0x20 DUP2 ADD DUP5 DUP5 DUP5 ADD GT ISZERO PUSH2 0x1A3 JUMPI PUSH2 0x1A2 PUSH2 0xAB JUMP JUMPDEST JUMPDEST PUSH2 0x1AE DUP5 DUP3 DUP6 PUSH2 0x167 JUMP JUMPDEST POP SWAP4 SWAP3 POP POP POP JUMP JUMPDEST PUSH0 DUP3 PUSH1 0x1F DUP4 ADD SLT PUSH2 0x1CA JUMPI PUSH2 0x1C9 PUSH2 0xA7 JUMP JUMPDEST JUMPDEST DUP2 MLOAD PUSH2 0x1DA DUP5 DUP3 PUSH1 0x20 DUP7 ADD PUSH2 0x175 JUMP JUMPDEST SWAP2 POP POP SWAP3 SWAP2 POP POP JUMP JUMPDEST PUSH0 PUSH1 0xFF DUP3 AND SWAP1 POP SWAP2 SWAP1 POP JUMP JUMPDEST PUSH2 0x1F8 DUP2 PUSH2 0x1E3 JUMP JUMPDEST DUP2 EQ PUSH2 0x202 JUMPI PUSH0 PUSH0 REVERT JUMPDEST POP JUMP JUMPDEST PUSH0 DUP2 MLOAD SWAP1 POP PUSH2 0x213 DUP2 PUSH2 0x1EF JUMP JUMPDEST SWAP3 SWAP2 POP POP JUMP JUMPDEST PUSH0 PUSH20 0xFFFFFFFFFFFFFFFFFFFFFFFFFFFFFFFFFFFFFFFF DUP3 AND SWAP1 POP SWAP2 SWAP1 POP JUMP JUMPDEST PUSH0 PUSH2 0x242 DUP3 PUSH2 0x219 JUMP JUMPDEST SWAP1 POP SWAP2 SWAP1 POP JUMP JUMPDEST PUSH2 0x252 DUP2 PUSH2 0x238 JUMP JUMPDEST DUP2 EQ PUSH2 0x25C JUMPI PUSH0 PUSH0 REVERT JUMPDEST POP JUMP JUMPDEST PUSH0 DUP2 MLOAD SWAP1 POP PUSH2 0x26D DUP2 PUSH2 0x249 JUMP JUMPDEST SWAP3 SWAP2 POP POP JUMP JUMPDEST PUSH0 DUP2 SWAP1 POP SWAP2 SWAP1 POP JUMP JUMPDEST PUSH2 0x285 DUP2 PUSH2 0x273 JUMP JUMPDEST DUP2 EQ PUSH2 0x28F JUMPI PUSH0 PUSH0 REVERT JUMPDEST POP JUMP JUMPDEST PUSH0 DUP2 MLOAD SWAP1 POP PUSH2 0x2A0 DUP2 PUSH2 0x27C JUMP JUMPDEST SWAP3 SWAP2 POP POP JUMP JUMPDEST PUSH0 PUSH0 PUSH0 PUSH0 PUSH0 PUSH1 0xA0 DUP7 DUP9 SUB SLT ISZERO PUSH2 0x2BF JUMPI PUSH2 0x2BE PUSH2 0x9F JUMP JUMPDEST JUMPDEST PUSH0 DUP7 ADD MLOAD PUSH8 0xFFFFFFFFFFFFFFFF DUP2 GT ISZERO PUSH2 0x2DC JUMPI PUSH2 0x2DB PUSH2 0xA3 JUMP JUMPDEST JUMPDEST PUSH2 0x2E8 DUP9 DUP3 DUP10 ADD PUSH2 0x1B6 JUMP JUMPDEST SWAP6 POP POP PUSH1 0x20 DUP7 ADD MLOAD PUSH8 0xFFFFFFFFFFFFFFFF DUP2 GT ISZERO PUSH2 0x309 JUMPI PUSH2 0x308 PUSH2 0xA3 JUMP JUMPDEST JUMPDEST PUSH2 0x315 DUP9 DUP3 DUP10 ADD PUSH2 0x1B6 JUMP JUMPDEST SWAP5 POP POP PUSH1 0x40 PUSH2 0x326 DUP9 DUP3 DUP10 ADD PUSH2 0x205 JUMP JUMPDEST SWAP4 POP POP PUSH1 0x60 PUSH2 0x337 DUP9 DUP3 DUP10 ADD PUSH2 0x25F JUMP JUMPDEST SWAP3 POP POP PUSH1 0x80 PUSH2 0x348 DUP9 DUP3 DUP10 ADD PUSH2 0x292 JUMP JUMPDEST SWAP2 POP POP SWAP3 SWAP6 POP SWAP3 SWAP6 SWAP1 SWAP4 POP JUMP JUMPDEST PUSH0 DUP2 MLOAD SWAP1 POP SWAP2 SWAP1 POP JUMP JUMPDEST PUSH32 0x4E487B7100000000000000000000000000000000000000000000000000000000 PUSH0 MSTORE PUSH1 0x22 PUSH1 0x4 MSTORE PUSH1 0x24 PUSH0 REVERT JUMPDEST PUSH0 PUSH1 0x2 DUP3 DIV SWAP1 POP PUSH1 0x1 DUP3 AND DUP1 PUSH2 0x3A3 JUMPI PUSH1 0x7F DUP3 AND SWAP2 POP JUMPDEST PUSH1 0x20 DUP3 LT DUP2 SUB PUSH2 0x3B6 JUMPI PUSH2 0x3B5 PUSH2 0x35F JUMP JUMPDEST JUMPDEST POP SWAP2 SWAP1 POP JUMP JUMPDEST PUSH0 DUP2 SWAP1 POP DUP2 PUSH0 MSTORE PUSH1 0x20 PUSH0 KECCAK256 SWAP1 POP SWAP2 SWAP1 POP JUMP JUMPDEST PUSH0 PUSH1 0x20 PUSH1 0x1F DUP4 ADD DIV SWAP1 POP SWAP2 SWAP1 POP JUMP JUMPDEST PUSH0 DUP3 DUP3 SHL SWAP1 POP SWAP3 SWAP2 POP POP JUMP JUMPDEST PUSH0 PUSH1 0x8 DUP4 MUL PUSH2 0x418 PUSH32 0xFFFFFFFFFFFFFFFFFFFFFFFFFFFFFFFFFFFFFFFFFFFFFFFFFFFFFFFFFFFFFFFF DUP3 PUSH2 0x3DD JUMP JUMPDEST PUSH2 0x422 DUP7 DUP4 PUSH2 0x3DD JUMP JUMPDEST SWAP6 POP DUP1 NOT DUP5 AND SWAP4 POP DUP1 DUP7 AND DUP5 OR SWAP3 POP POP POP SWAP4 SWAP3 POP POP POP JUMP JUMPDEST PUSH0 DUP2 SWAP1 POP SWAP2 SWAP1 POP JUMP JUMPDEST PUSH0 PUSH2 0x45D PUSH2 0x458 PUSH2 0x453 DUP5 PUSH2 0x273 JUMP JUMPDEST PUSH2 0x43A JUMP JUMPDEST PUSH2 0x273 JUMP JUMPDEST SWAP1 POP SWAP2 SWAP1 POP JUMP JUMPDEST PUSH0 DUP2 SWAP1 POP SWAP2 SWAP1 POP JUMP JUMPDEST PUSH2 0x476 DUP4 PUSH2 0x443 JUMP JUMPDEST PUSH2 0x48A PUSH2 0x482 DUP3 PUSH2 0x464 JUMP JUMPDEST DUP5 DUP5 SLOAD PUSH2 0x3E9 JUMP JUMPDEST DUP3 SSTORE POP POP POP POP JUMP JUMPDEST PUSH0 PUSH0 SWAP1 POP SWAP1 JUMP JUMPDEST PUSH2 0x4A1 PUSH2 0x492 JUMP JUMPDEST PUSH2 0x4AC DUP2 DUP5 DUP5 PUSH2 0x46D JUMP JUMPDEST POP POP POP JUMP JUMPDEST JUMPDEST DUP2 DUP2 LT ISZERO PUSH2 0x4CF JUMPI PUSH2 0x4C4 PUSH0 DUP3 PUSH2 0x499 JUMP JUMPDEST PUSH1 0x1 DUP2 ADD SWAP1 POP PUSH2 0x4B2 JUMP JUMPDEST POP POP JUMP JUMPDEST PUSH1 0x1F DUP3 GT ISZERO PUSH2 0x514 JUMPI PUSH2 0x4E5 DUP2 PUSH2 0x3BC JUMP JUMPDEST PUSH2 0x4EE DUP5 PUSH2 0x3CE JUMP JUMPDEST DUP2 ADD PUSH1 0x20 DUP6 LT ISZERO PUSH2 0x4FD JUMPI DUP2 SWAP1 POP JUMPDEST PUSH2 0x511 PUSH2 0x509 DUP6 PUSH2 0x3CE JUMP JUMPDEST DUP4 ADD DUP3 PUSH2 0x4B1 JUMP JUMPDEST POP POP JUMPDEST POP POP POP JUMP JUMPDEST PUSH0 DUP3 DUP3 SHR SWAP1 POP SWAP3 SWAP2 POP POP JUMP JUMPDEST PUSH0 PUSH2 0x534 PUSH0 NOT DUP5 PUSH1 0x8 MUL PUSH2 0x519 JUMP JUMPDEST NOT DUP1 DUP4 AND SWAP2 POP POP SWAP3 SWAP2 POP POP JUMP JUMPDEST PUSH0 PUSH2 0x54C DUP4 DUP4 PUSH2 0x525 JUMP JUMPDEST SWAP2 POP DUP3 PUSH1 0x2 MUL DUP3 OR SWAP1 POP SWAP3 SWAP2 POP POP JUMP JUMPDEST PUSH2 0x565 DUP3 PUSH2 0x355 JUMP JUMPDEST PUSH8 0xFFFFFFFFFFFFFFFF DUP2 GT ISZERO PUSH2 0x57E JUMPI PUSH2 0x57D PUSH2 0xBF JUMP JUMPDEST JUMPDEST PUSH2 0x588 DUP3 SLOAD PUSH2 0x38C JUMP JUMPDEST PUSH2 0x593 DUP3 DUP3 DUP6 PUSH2 0x4D3 JUMP JUMPDEST PUSH0 PUSH1 0x20 SWAP1 POP PUSH1 0x1F DUP4 GT PUSH1 0x1 DUP2 EQ PUSH2 0x5C4 JUMPI PUSH0 DUP5 ISZERO PUSH2 0x5B2 JUMPI DUP3 DUP8 ADD MLOAD SWAP1 POP JUMPDEST PUSH2 0x5BC DUP6 DUP3 PUSH2 0x541 JUMP JUMPDEST DUP7 SSTORE POP PUSH2 0x623 JUMP JUMPDEST PUSH1 0x1F NOT DUP5 AND PUSH2 0x5D2 DUP7 PUSH2 0x3BC JUMP JUMPDEST PUSH0 JUMPDEST DUP3 DUP2 LT ISZERO PUSH2 0x5F9 JUMPI DUP5 DUP10 ADD MLOAD DUP3 SSTORE PUSH1 0x1 DUP3 ADD SWAP2 POP PUSH1 0x20 DUP6 ADD SWAP5 POP PUSH1 0x20 DUP2 ADD SWAP1 POP PUSH2 0x5D4 JUMP JUMPDEST DUP7 DUP4 LT ISZERO PUSH2 0x616 JUMPI DUP5 DUP10 ADD MLOAD PUSH2 0x612 PUSH1 0x1F DUP10 AND DUP3 PUSH2 0x525 JUMP JUMPDEST DUP4 SSTORE POP JUMPDEST PUSH1 0x1 PUSH1 0x2 DUP9 MUL ADD DUP9 SSTORE POP POP POP JUMPDEST POP POP POP POP POP POP JUMP JUMPDEST PUSH1 0x80 MLOAD PUSH1 0xA0 MLOAD PUSH2 0x183E PUSH2 0x661 PUSH0 CODECOPY PUSH0 DUP2 DUP2 PUSH2 0x577 ADD MSTORE DUP2 DUP2 PUSH2 0xC69 ADD MSTORE DUP2 DUP2 PUSH2 0xDE3 ADD MSTORE PUSH2 0xE77 ADD MSTORE PUSH0 PUSH2 0x45D ADD MSTORE PUSH2 0x183E PUSH0 RETURN INVALID PUSH1 0x80 PUSH1 0x40 MSTORE PUSH1 0x4 CALLDATASIZE LT PUSH2 0xF2 JUMPI PUSH0 CALLDATALOAD PUSH1 0xE0 SHR DUP1 PUSH4 0x8BF34237 GT PUSH2 0x89 JUMPI DUP1 PUSH4 0xA9059CBB GT PUSH2 0x58 JUMPI DUP1 PUSH4 0xA9059CBB EQ PUSH2 0x30A JUMPI DUP1 PUSH4 0xBA16D600 EQ PUSH2 0x346 JUMPI DUP1 PUSH4 0xE92E92E7 EQ PUSH2 0x370 JUMPI DUP1 PUSH4 0xEA3C281A EQ PUSH2 0x38C JUMPI PUSH2 0xF2 JUMP JUMPDEST DUP1 PUSH4 0x8BF34237 EQ PUSH2 0x252 JUMPI DUP1 PUSH4 0x8DA5CB5B EQ PUSH2 0x27A JUMPI DUP1 PUSH4 0x95C33652 EQ PUSH2 0x2A4 JUMPI DUP1 PUSH4 0x95D89B41 EQ PUSH2 0x2E0 JUMPI PUSH2 0xF2 JUMP JUMPDEST DUP1 PUSH4 0x6A7DFD1A GT PUSH2 0xC5 JUMPI DUP1 PUSH4 0x6A7DFD1A EQ PUSH2 0x1B0 JUMPI DUP1 PUSH4 0x70A08231 EQ PUSH2 0x1D8 JUMPI DUP1 PUSH4 0x715018A6 EQ PUSH2 0x214 JUMPI DUP1 PUSH4 0x83FC58B4 EQ PUSH2 0x22A JUMPI PUSH2 0xF2 JUMP JUMPDEST DUP1 PUSH4 0x6FDDE03 EQ PUSH2 0xF6 JUMPI DUP1 PUSH4 0x18160DDD EQ PUSH2 0x120 JUMPI DUP1 PUSH4 0x18A5BBDC EQ PUSH2 0x14A JUMPI DUP1 PUSH4 0x313CE567 EQ PUSH2 0x186 JUMPI JUMPDEST PUSH0 PUSH0 REVERT JUMPDEST CALLVALUE DUP1 ISZERO PUSH2 0x101 JUMPI PUSH0 PUSH0 REVERT JUMPDEST POP PUSH2 0x10A PUSH2 0x3B4 JUMP JUMPDEST PUSH1 0x40 MLOAD PUSH2 0x117 SWAP2 SWAP1 PUSH2 0x12E4 JUMP JUMPDEST PUSH1 0x40 MLOAD DUP1 SWAP2 SUB SWAP1 RETURN JUMPDEST CALLVALUE DUP1 ISZERO PUSH2 0x12B JUMPI PUSH0 PUSH0 REVERT JUMPDEST POP PUSH2 0x134 PUSH2 0x440 JUMP JUMPDEST PUSH1 0x40 MLOAD PUSH2 0x141 SWAP2 SWAP1 PUSH2 0x131C JUMP JUMPDEST PUSH1 0x40 MLOAD DUP1 SWAP2 SUB SWAP1 RETURN JUMPDEST CALLVALUE DUP1 ISZERO PUSH2 0x155 JUMPI PUSH0 PUSH0 REVERT JUMPDEST POP PUSH2 0x170 PUSH1 0x4 DUP1 CALLDATASIZE SUB DUP2 ADD SWAP1 PUSH2 0x16B SWAP2 SWAP1 PUSH2 0x1393 JUMP JUMPDEST PUSH2 0x446 JUMP JUMPDEST PUSH1 0x40 MLOAD PUSH2 0x17D SWAP2 SWAP1 PUSH2 0x131C JUMP JUMPDEST PUSH1 0x40 MLOAD DUP1 SWAP2 SUB SWAP1 RETURN JUMPDEST CALLVALUE DUP1 ISZERO PUSH2 0x191 JUMPI PUSH0 PUSH0 REVERT JUMPDEST POP PUSH2 0x19A PUSH2 0x45B JUMP JUMPDEST PUSH1 0x40 MLOAD PUSH2 0x1A7 SWAP2 SWAP1 PUSH2 0x13D9 JUMP JUMPDEST PUSH1 0x40 MLOAD DUP1 SWAP2 SUB SWAP1 RETURN JUMPDEST CALLVALUE DUP1 ISZERO PUSH2 0x1BB JUMPI PUSH0 PUSH0 REVERT JUMPDEST POP PUSH2 0x1D6 PUSH1 0x4 DUP1 CALLDATASIZE SUB DUP2 ADD SWAP1 PUSH2 0x1D1 SWAP2 SWAP1 PUSH2 0x141C JUMP JUMPDEST PUSH2 0x47F JUMP JUMPDEST STOP JUMPDEST CALLVALUE DUP1 ISZERO PUSH2 0x1E3 JUMPI PUSH0 PUSH0 REVERT JUMPDEST POP PUSH2 0x1FE PUSH1 0x4 DUP1 CALLDATASIZE SUB DUP2 ADD SWAP1 PUSH2 0x1F9 SWAP2 SWAP1 PUSH2 0x1393 JUMP JUMPDEST PUSH2 0x6B7 JUMP JUMPDEST PUSH1 0x40 MLOAD PUSH2 0x20B SWAP2 SWAP1 PUSH2 0x131C JUMP JUMPDEST PUSH1 0x40 MLOAD DUP1 SWAP2 SUB SWAP1 RETURN JUMPDEST CALLVALUE DUP1 ISZERO PUSH2 0x21F JUMPI PUSH0 PUSH0 REVERT JUMPDEST POP PUSH2 0x228 PUSH2 0x76D JUMP JUMPDEST STOP JUMPDEST CALLVALUE DUP1 ISZERO PUSH2 0x235 JUMPI PUSH0 PUSH0 REVERT JUMPDEST POP PUSH2 0x250 PUSH1 0x4 DUP1 CALLDATASIZE SUB DUP2 ADD SWAP1 PUSH2 0x24B SWAP2 SWAP1 PUSH2 0x1393 JUMP JUMPDEST PUSH2 0x83C JUMP JUMPDEST STOP JUMPDEST CALLVALUE DUP1 ISZERO PUSH2 0x25D JUMPI PUSH0 PUSH0 REVERT JUMPDEST POP PUSH2 0x278 PUSH1 0x4 DUP1 CALLDATASIZE SUB DUP2 ADD SWAP1 PUSH2 0x273 SWAP2 SWAP1 PUSH2 0x1393 JUMP JUMPDEST PUSH2 0x9D3 JUMP JUMPDEST STOP JUMPDEST CALLVALUE DUP1 ISZERO PUSH2 0x285 JUMPI PUSH0 PUSH0 REVERT JUMPDEST POP PUSH2 0x28E PUSH2 0xB29 JUMP JUMPDEST PUSH1 0x40 MLOAD PUSH2 0x29B SWAP2 SWAP1 PUSH2 0x1469 JUMP JUMPDEST PUSH1 0x40 MLOAD DUP1 SWAP2 SUB SWAP1 RETURN JUMPDEST CALLVALUE DUP1 ISZERO PUSH2 0x2AF JUMPI PUSH0 PUSH0 REVERT JUMPDEST POP PUSH2 0x2CA PUSH1 0x4 DUP1 CALLDATASIZE SUB DUP2 ADD SWAP1 PUSH2 0x2C5 SWAP2 SWAP1 PUSH2 0x1393 JUMP JUMPDEST PUSH2 0xB4D JUMP JUMPDEST PUSH1 0x40 MLOAD PUSH2 0x2D7 SWAP2 SWAP1 PUSH2 0x149C JUMP JUMPDEST PUSH1 0x40 MLOAD DUP1 SWAP2 SUB SWAP1 RETURN JUMPDEST CALLVALUE DUP1 ISZERO PUSH2 0x2EB JUMPI PUSH0 PUSH0 REVERT JUMPDEST POP PUSH2 0x2F4 PUSH2 0xB6A JUMP JUMPDEST PUSH1 0x40 MLOAD PUSH2 0x301 SWAP2 SWAP1 PUSH2 0x12E4 JUMP JUMPDEST PUSH1 0x40 MLOAD DUP1 SWAP2 SUB SWAP1 RETURN JUMPDEST CALLVALUE DUP1 ISZERO PUSH2 0x315 JUMPI PUSH0 PUSH0 REVERT JUMPDEST POP PUSH2 0x330 PUSH1 0x4 DUP1 CALLDATASIZE SUB DUP2 ADD SWAP1 PUSH2 0x32B SWAP2 SWAP1 PUSH2 0x141C JUMP JUMPDEST PUSH2 0xBF6 JUMP JUMPDEST PUSH1 0x40 MLOAD PUSH2 0x33D SWAP2 SWAP1 PUSH2 0x149C JUMP JUMPDEST PUSH1 0x40 MLOAD DUP1 SWAP2 SUB SWAP1 RETURN JUMPDEST CALLVALUE DUP1 ISZERO PUSH2 0x351 JUMPI PUSH0 PUSH0 REVERT JUMPDEST POP PUSH2 0x35A PUSH2 0xDE1 JUMP JUMPDEST PUSH1 0x40 MLOAD PUSH2 0x367 SWAP2 SWAP1 PUSH2 0x131C JUMP JUMPDEST PUSH1 0x40 MLOAD DUP1 SWAP2 SUB SWAP1 RETURN JUMPDEST PUSH2 0x38A PUSH1 0x4 DUP1 CALLDATASIZE SUB DUP2 ADD SWAP1 PUSH2 0x385 SWAP2 SWAP1 PUSH2 0x14B5 JUMP JUMPDEST PUSH2 0xE05 JUMP JUMPDEST STOP JUMPDEST CALLVALUE DUP1 ISZERO PUSH2 0x397 JUMPI PUSH0 PUSH0 REVERT JUMPDEST POP PUSH2 0x3B2 PUSH1 0x4 DUP1 CALLDATASIZE SUB DUP2 ADD SWAP1 PUSH2 0x3AD SWAP2 SWAP1 PUSH2 0x1393 JUMP JUMPDEST PUSH2 0x1016 JUMP JUMPDEST STOP JUMPDEST PUSH1 0x1 DUP1 SLOAD PUSH2 0x3C1 SWAP1 PUSH2 0x150D JUMP JUMPDEST DUP1 PUSH1 0x1F ADD PUSH1 0x20 DUP1 SWAP2 DIV MUL PUSH1 0x20 ADD PUSH1 0x40 MLOAD SWAP1 DUP2 ADD PUSH1 0x40 MSTORE DUP1 SWAP3 SWAP2 SWAP1 DUP2 DUP2 MSTORE PUSH1 0x20 ADD DUP3 DUP1 SLOAD PUSH2 0x3ED SWAP1 PUSH2 0x150D JUMP JUMPDEST DUP1 ISZERO PUSH2 0x438 JUMPI DUP1 PUSH1 0x1F LT PUSH2 0x40F JUMPI PUSH2 0x100 DUP1 DUP4 SLOAD DIV MUL DUP4 MSTORE SWAP2 PUSH1 0x20 ADD SWAP2 PUSH2 0x438 JUMP JUMPDEST DUP3 ADD SWAP2 SWAP1 PUSH0 MSTORE PUSH1 0x20 PUSH0 KECCAK256 SWAP1 JUMPDEST DUP2 SLOAD DUP2 MSTORE SWAP1 PUSH1 0x1 ADD SWAP1 PUSH1 0x20 ADD DUP1 DUP4 GT PUSH2 0x41B JUMPI DUP3 SWAP1 SUB PUSH1 0x1F AND DUP3 ADD SWAP2 JUMPDEST POP POP POP POP POP DUP2 JUMP JUMPDEST PUSH1 0x3 SLOAD DUP2 JUMP JUMPDEST PUSH1 0x4 PUSH1 0x20 MSTORE DUP1 PUSH0 MSTORE PUSH1 0x40 PUSH0 KECCAK256 PUSH0 SWAP2 POP SWAP1 POP SLOAD DUP2 JUMP JUMPDEST PUSH32 0x0 DUP2 JUMP JUMPDEST PUSH0 ISZERO ISZERO PUSH1 0x5 PUSH0 CALLER PUSH20 0xFFFFFFFFFFFFFFFFFFFFFFFFFFFFFFFFFFFFFFFF AND PUSH20 0xFFFFFFFFFFFFFFFFFFFFFFFFFFFFFFFFFFFFFFFF AND DUP2 MSTORE PUSH1 0x20 ADD SWAP1 DUP2 MSTORE PUSH1 0x20 ADD PUSH0 KECCAK256 PUSH0 SWAP1 SLOAD SWAP1 PUSH2 0x100 EXP SWAP1 DIV PUSH1 0xFF AND ISZERO ISZERO SUB PUSH2 0x505 JUMPI PUSH1 0x40 MLOAD PUSH32 0x344FD58600000000000000000000000000000000000000000000000000000000 DUP2 MSTORE PUSH1 0x4 ADD PUSH1 0x40 MLOAD DUP1 SWAP2 SUB SWAP1 REVERT JUMPDEST DUP2 PUSH0 PUSH20 0xFFFFFFFFFFFFFFFFFFFFFFFFFFFFFFFFFFFFFFFF AND DUP2 PUSH20 0xFFFFFFFFFFFFFFFFFFFFFFFFFFFFFFFFFFFFFFFF AND SUB PUSH2 0x574 JUMPI PUSH1 0x40 MLOAD PUSH32 0x8C379A000000000000000000000000000000000000000000000000000000000 DUP2 MSTORE PUSH1 0x4 ADD PUSH2 0x56B SWAP1 PUSH2 0x1587 JUMP JUMPDEST PUSH1 0x40 MLOAD DUP1 SWAP2 SUB SWAP1 REVERT JUMPDEST DUP2 PUSH32 0x0 DUP2 LT ISZERO PUSH2 0x5D8 JUMPI PUSH1 0x40 MLOAD PUSH32 0x8C379A000000000000000000000000000000000000000000000000000000000 DUP2 MSTORE PUSH1 0x4 ADD PUSH2 0x5CF SWAP1 PUSH2 0x1615 JUMP JUMPDEST PUSH1 0x40 MLOAD DUP1 SWAP2 SUB SWAP1 REVERT JUMPDEST PUSH2 0x5E1 DUP5 PUSH2 0x116B JUMP JUMPDEST DUP3 PUSH1 0x3 PUSH0 DUP3 DUP3 SLOAD PUSH2 0x5F2 SWAP2 SWAP1 PUSH2 0x1660 JUMP JUMPDEST SWAP3 POP POP DUP2 SWAP1 SSTORE POP DUP3 PUSH1 0x4 PUSH0 DUP7 PUSH20 0xFFFFFFFFFFFFFFFFFFFFFFFFFFFFFFFFFFFFFFFF AND PUSH20 0xFFFFFFFFFFFFFFFFFFFFFFFFFFFFFFFFFFFFFFFF AND DUP2 MSTORE PUSH1 0x20 ADD SWAP1 DUP2 MSTORE PUSH1 0x20 ADD PUSH0 KECCAK256 PUSH0 DUP3 DUP3 SLOAD PUSH2 0x645 SWAP2 SWAP1 PUSH2 0x1660 JUMP JUMPDEST SWAP3 POP POP DUP2 SWAP1 SSTORE POP DUP4 PUSH20 0xFFFFFFFFFFFFFFFFFFFFFFFFFFFFFFFFFFFFFFFF AND PUSH0 PUSH20 0xFFFFFFFFFFFFFFFFFFFFFFFFFFFFFFFFFFFFFFFF AND PUSH32 0x6876A213A761D9B4F8D7BA3609528EF85DA671684271F75FDACB41BE8DB29F45 DUP6 PUSH1 0x40 MLOAD PUSH2 0x6A9 SWAP2 SWAP1 PUSH2 0x131C JUMP JUMPDEST PUSH1 0x40 MLOAD DUP1 SWAP2 SUB SWAP1 LOG3 POP POP POP POP JUMP JUMPDEST PUSH0 DUP2 PUSH0 PUSH20 0xFFFFFFFFFFFFFFFFFFFFFFFFFFFFFFFFFFFFFFFF AND DUP2 PUSH20 0xFFFFFFFFFFFFFFFFFFFFFFFFFFFFFFFFFFFFFFFF AND SUB PUSH2 0x727 JUMPI PUSH1 0x40 MLOAD PUSH32 0x8C379A000000000000000000000000000000000000000000000000000000000 DUP2 MSTORE PUSH1 0x4 ADD PUSH2 0x71E SWAP1 PUSH2 0x1587 JUMP JUMPDEST PUSH1 0x40 MLOAD DUP1 SWAP2 SUB SWAP1 REVERT JUMPDEST PUSH1 0x4 PUSH0 DUP5 PUSH20 0xFFFFFFFFFFFFFFFFFFFFFFFFFFFFFFFFFFFFFFFF AND PUSH20 0xFFFFFFFFFFFFFFFFFFFFFFFFFFFFFFFFFFFFFFFF AND DUP2 MSTORE PUSH1 0x20 ADD SWAP1 DUP2 MSTORE PUSH1 0x20 ADD PUSH0 KECCAK256 SLOAD SWAP2 POP POP SWAP2 SWAP1 POP JUMP JUMPDEST PUSH0 PUSH0 SWAP1 SLOAD SWAP1 PUSH2 0x100 EXP SWAP1 DIV PUSH20 0xFFFFFFFFFFFFFFFFFFFFFFFFFFFFFFFFFFFFFFFF AND PUSH20 0xFFFFFFFFFFFFFFFFFFFFFFFFFFFFFFFFFFFFFFFF AND CALLER PUSH20 0xFFFFFFFFFFFFFFFFFFFFFFFFFFFFFFFFFFFFFFFF AND EQ PUSH2 0x7FB JUMPI PUSH1 0x40 MLOAD PUSH32 0x8C379A000000000000000000000000000000000000000000000000000000000 DUP2 MSTORE PUSH1 0x4 ADD PUSH2 0x7F2 SWAP1 PUSH2 0x1703 JUMP JUMPDEST PUSH1 0x40 MLOAD DUP1 SWAP2 SUB SWAP1 REVERT JUMPDEST PUSH0 PUSH0 PUSH0 PUSH2 0x100 EXP DUP2 SLOAD DUP2 PUSH20 0xFFFFFFFFFFFFFFFFFFFFFFFFFFFFFFFFFFFFFFFF MUL NOT AND SWAP1 DUP4 PUSH20 0xFFFFFFFFFFFFFFFFFFFFFFFFFFFFFFFFFFFFFFFF AND MUL OR SWAP1 SSTORE POP JUMP JUMPDEST PUSH0 PUSH0 SWAP1 SLOAD SWAP1 PUSH2 0x100 EXP SWAP1 DIV PUSH20 0xFFFFFFFFFFFFFFFFFFFFFFFFFFFFFFFFFFFFFFFF AND PUSH20 0xFFFFFFFFFFFFFFFFFFFFFFFFFFFFFFFFFFFFFFFF AND CALLER PUSH20 0xFFFFFFFFFFFFFFFFFFFFFFFFFFFFFFFFFFFFFFFF AND EQ PUSH2 0x8CA JUMPI PUSH1 0x40 MLOAD PUSH32 0x8C379A000000000000000000000000000000000000000000000000000000000 DUP2 MSTORE PUSH1 0x4 ADD PUSH2 0x8C1 SWAP1 PUSH2 0x1703 JUMP JUMPDEST PUSH1 0x40 MLOAD DUP1 SWAP2 SUB SWAP1 REVERT JUMPDEST PUSH0 PUSH20 0xFFFFFFFFFFFFFFFFFFFFFFFFFFFFFFFFFFFFFFFF AND DUP2 PUSH20 0xFFFFFFFFFFFFFFFFFFFFFFFFFFFFFFFFFFFFFFFF AND EQ ISZERO DUP1 ISZERO PUSH2 0x952 JUMPI POP PUSH0 PUSH0 SWAP1 SLOAD SWAP1 PUSH2 0x100 EXP SWAP1 DIV PUSH20 0xFFFFFFFFFFFFFFFFFFFFFFFFFFFFFFFFFFFFFFFF AND PUSH20 0xFFFFFFFFFFFFFFFFFFFFFFFFFFFFFFFFFFFFFFFF AND DUP2 PUSH20 0xFFFFFFFFFFFFFFFFFFFFFFFFFFFFFFFFFFFFFFFF AND EQ ISZERO JUMPDEST PUSH2 0x991 JUMPI PUSH1 0x40 MLOAD PUSH32 0x8C379A000000000000000000000000000000000000000000000000000000000 DUP2 MSTORE PUSH1 0x4 ADD PUSH2 0x988 SWAP1 PUSH2 0x17B7 JUMP JUMPDEST PUSH1 0x40 MLOAD DUP1 SWAP2 SUB SWAP1 REVERT JUMPDEST DUP1 PUSH0 PUSH0 PUSH2 0x100 EXP DUP2 SLOAD DUP2 PUSH20 0xFFFFFFFFFFFFFFFFFFFFFFFFFFFFFFFFFFFFFFFF MUL NOT AND SWAP1 DUP4 PUSH20 0xFFFFFFFFFFFFFFFFFFFFFFFFFFFFFFFFFFFFFFFF AND MUL OR SWAP1 SSTORE POP POP JUMP JUMPDEST PUSH0 PUSH0 SWAP1 SLOAD SWAP1 PUSH2 0x100 EXP SWAP1 DIV PUSH20 0xFFFFFFFFFFFFFFFFFFFFFFFFFFFFFFFFFFFFFFFF AND PUSH20 0xFFFFFFFFFFFFFFFFFFFFFFFFFFFFFFFFFFFFFFFF AND CALLER PUSH20 0xFFFFFFFFFFFFFFFFFFFFFFFFFFFFFFFFFFFFFFFF AND EQ PUSH2 0xA61 JUMPI PUSH1 0x40 MLOAD PUSH32 0x8C379A000000000000000000000000000000000000000000000000000000000 DUP2 MSTORE PUSH1 0x4 ADD PUSH2 0xA58 SWAP1 PUSH2 0x1703 JUMP JUMPDEST PUSH1 0x40 MLOAD DUP1 SWAP2 SUB SWAP1 REVERT JUMPDEST DUP1 PUSH0 PUSH20 0xFFFFFFFFFFFFFFFFFFFFFFFFFFFFFFFFFFFFFFFF AND DUP2 PUSH20 0xFFFFFFFFFFFFFFFFFFFFFFFFFFFFFFFFFFFFFFFF AND SUB PUSH2 0xAD0 JUMPI PUSH1 0x40 MLOAD PUSH32 0x8C379A000000000000000000000000000000000000000000000000000000000 DUP2 MSTORE PUSH1 0x4 ADD PUSH2 0xAC7 SWAP1 PUSH2 0x1587 JUMP JUMPDEST PUSH1 0x40 MLOAD DUP1 SWAP2 SUB SWAP1 REVERT JUMPDEST PUSH1 0x1 PUSH1 0x5 PUSH0 DUP5 PUSH20 0xFFFFFFFFFFFFFFFFFFFFFFFFFFFFFFFFFFFFFFFF AND PUSH20 0xFFFFFFFFFFFFFFFFFFFFFFFFFFFFFFFFFFFFFFFF AND DUP2 MSTORE PUSH1 0x20 ADD SWAP1 DUP2 MSTORE PUSH1 0x20 ADD PUSH0 KECCAK256 PUSH0 PUSH2 0x100 EXP DUP2 SLOAD DUP2 PUSH1 0xFF MUL NOT AND SWAP1 DUP4 ISZERO ISZERO MUL OR SWAP1 SSTORE POP POP POP JUMP JUMPDEST PUSH0 PUSH0 SWAP1 SLOAD SWAP1 PUSH2 0x100 EXP SWAP1 DIV PUSH20 0xFFFFFFFFFFFFFFFFFFFFFFFFFFFFFFFFFFFFFFFF AND DUP2 JUMP JUMPDEST PUSH1 0x5 PUSH1 0x20 MSTORE DUP1 PUSH0 MSTORE PUSH1 0x40 PUSH0 KECCAK256 PUSH0 SWAP2 POP SLOAD SWAP1 PUSH2 0x100 EXP SWAP1 DIV PUSH1 0xFF AND DUP2 JUMP JUMPDEST PUSH1 0x2 DUP1 SLOAD PUSH2 0xB77 SWAP1 PUSH2 0x150D JUMP JUMPDEST DUP1 PUSH1 0x1F ADD PUSH1 0x20 DUP1 SWAP2 DIV MUL PUSH1 0x20 ADD PUSH1 0x40 MLOAD SWAP1 DUP2 ADD PUSH1 0x40 MSTORE DUP1 SWAP3 SWAP2 SWAP1 DUP2 DUP2 MSTORE PUSH1 0x20 ADD DUP3 DUP1 SLOAD PUSH2 0xBA3 SWAP1 PUSH2 0x150D JUMP JUMPDEST DUP1 ISZERO PUSH2 0xBEE JUMPI DUP1 PUSH1 0x1F LT PUSH2 0xBC5 JUMPI PUSH2 0x100 DUP1 DUP4 SLOAD DIV MUL DUP4 MSTORE SWAP2 PUSH1 0x20 ADD SWAP2 PUSH2 0xBEE JUMP JUMPDEST DUP3 ADD SWAP2 SWAP1 PUSH0 MSTORE PUSH1 0x20 PUSH0 KECCAK256 SWAP1 JUMPDEST DUP2 SLOAD DUP2 MSTORE SWAP1 PUSH1 0x1 ADD SWAP1 PUSH1 0x20 ADD DUP1 DUP4 GT PUSH2 0xBD1 JUMPI DUP3 SWAP1 SUB PUSH1 0x1F AND DUP3 ADD SWAP2 JUMPDEST POP POP POP POP POP DUP2 JUMP JUMPDEST PUSH0 DUP3 PUSH0 PUSH20 0xFFFFFFFFFFFFFFFFFFFFFFFFFFFFFFFFFFFFFFFF AND DUP2 PUSH20 0xFFFFFFFFFFFFFFFFFFFFFFFFFFFFFFFFFFFFFFFF AND SUB PUSH2 0xC66 JUMPI PUSH1 0x40 MLOAD PUSH32 0x8C379A000000000000000000000000000000000000000000000000000000000 DUP2 MSTORE PUSH1 0x4 ADD PUSH2 0xC5D SWAP1 PUSH2 0x1587 JUMP JUMPDEST PUSH1 0x40 MLOAD DUP1 SWAP2 SUB SWAP1 REVERT JUMPDEST DUP3 PUSH32 0x0 DUP2 LT ISZERO PUSH2 0xCCA JUMPI PUSH1 0x40 MLOAD PUSH32 0x8C379A000000000000000000000000000000000000000000000000000000000 DUP2 MSTORE PUSH1 0x4 ADD PUSH2 0xCC1 SWAP1 PUSH2 0x1615 JUMP JUMPDEST PUSH1 0x40 MLOAD DUP1 SWAP2 SUB SWAP1 REVERT JUMPDEST DUP4 PUSH1 0x4 PUSH0 CALLER PUSH20 0xFFFFFFFFFFFFFFFFFFFFFFFFFFFFFFFFFFFFFFFF AND PUSH20 0xFFFFFFFFFFFFFFFFFFFFFFFFFFFFFFFFFFFFFFFF AND DUP2 MSTORE PUSH1 0x20 ADD SWAP1 DUP2 MSTORE PUSH1 0x20 ADD PUSH0 KECCAK256 PUSH0 DUP3 DUP3 SLOAD PUSH2 0xD16 SWAP2 SWAP1 PUSH2 0x17D5 JUMP JUMPDEST SWAP3 POP POP DUP2 SWAP1 SSTORE POP DUP4 PUSH1 0x4 PUSH0 DUP8 PUSH20 0xFFFFFFFFFFFFFFFFFFFFFFFFFFFFFFFFFFFFFFFF AND PUSH20 0xFFFFFFFFFFFFFFFFFFFFFFFFFFFFFFFFFFFFFFFF AND DUP2 MSTORE PUSH1 0x20 ADD SWAP1 DUP2 MSTORE PUSH1 0x20 ADD PUSH0 KECCAK256 PUSH0 DUP3 DUP3 SLOAD PUSH2 0xD69 SWAP2 SWAP1 PUSH2 0x1660 JUMP JUMPDEST SWAP3 POP POP DUP2 SWAP1 SSTORE POP DUP5 PUSH20 0xFFFFFFFFFFFFFFFFFFFFFFFFFFFFFFFFFFFFFFFF AND CALLER PUSH20 0xFFFFFFFFFFFFFFFFFFFFFFFFFFFFFFFFFFFFFFFF AND PUSH32 0xDDF252AD1BE2C89B69C2B068FC378DAA952BA7F163C4A11628F55A4DF523B3EF DUP7 PUSH1 0x40 MLOAD PUSH2 0xDCD SWAP2 SWAP1 PUSH2 0x131C JUMP JUMPDEST PUSH1 0x40 MLOAD DUP1 SWAP2 SUB SWAP1 LOG3 PUSH1 0x1 SWAP3 POP POP POP SWAP3 SWAP2 POP POP JUMP JUMPDEST PUSH32 0x0 DUP2 JUMP JUMPDEST CALLER PUSH0 PUSH20 0xFFFFFFFFFFFFFFFFFFFFFFFFFFFFFFFFFFFFFFFF AND DUP2 PUSH20 0xFFFFFFFFFFFFFFFFFFFFFFFFFFFFFFFFFFFFFFFF AND SUB PUSH2 0xE74 JUMPI PUSH1 0x40 MLOAD PUSH32 0x8C379A000000000000000000000000000000000000000000000000000000000 DUP2 MSTORE PUSH1 0x4 ADD PUSH2 0xE6B SWAP1 PUSH2 0x1587 JUMP JUMPDEST PUSH1 0x40 MLOAD DUP1 SWAP2 SUB SWAP1 REVERT JUMPDEST DUP2 PUSH32 0x0 DUP2 LT ISZERO PUSH2 0xED8 JUMPI PUSH1 0x40 MLOAD PUSH32 0x8C379A000000000000000000000000000000000000000000000000000000000 DUP2 MSTORE PUSH1 0x4 ADD PUSH2 0xECF SWAP1 PUSH2 0x1615 JUMP JUMPDEST PUSH1 0x40 MLOAD DUP1 SWAP2 SUB SWAP1 REVERT JUMPDEST PUSH2 0xEE1 CALLER PUSH2 0x116B JUMP JUMPDEST DUP3 PUSH1 0x4 PUSH0 CALLER PUSH20 0xFFFFFFFFFFFFFFFFFFFFFFFFFFFFFFFFFFFFFFFF AND PUSH20 0xFFFFFFFFFFFFFFFFFFFFFFFFFFFFFFFFFFFFFFFF AND DUP2 MSTORE PUSH1 0x20 ADD SWAP1 DUP2 MSTORE PUSH1 0x20 ADD PUSH0 KECCAK256 SLOAD LT ISZERO PUSH2 0xF58 JUMPI PUSH1 0x40 MLOAD PUSH32 0x7C1B595700000000000000000000000000000000000000000000000000000000 DUP2 MSTORE PUSH1 0x4 ADD PUSH1 0x40 MLOAD DUP1 SWAP2 SUB SWAP1 REVERT JUMPDEST DUP3 PUSH1 0x4 PUSH0 CALLER PUSH20 0xFFFFFFFFFFFFFFFFFFFFFFFFFFFFFFFFFFFFFFFF AND PUSH20 0xFFFFFFFFFFFFFFFFFFFFFFFFFFFFFFFFFFFFFFFF AND DUP2 MSTORE PUSH1 0x20 ADD SWAP1 DUP2 MSTORE PUSH1 0x20 ADD PUSH0 KECCAK256 PUSH0 DUP3 DUP3 SLOAD PUSH2 0xFA4 SWAP2 SWAP1 PUSH2 0x17D5 JUMP JUMPDEST SWAP3 POP POP DUP2 SWAP1 SSTORE POP DUP3 PUSH1 0x3 PUSH0 DUP3 DUP3 SLOAD PUSH2 0xFBC SWAP2 SWAP1 PUSH2 0x17D5 JUMP JUMPDEST SWAP3 POP POP DUP2 SWAP1 SSTORE POP CALLER PUSH20 0xFFFFFFFFFFFFFFFFFFFFFFFFFFFFFFFFFFFFFFFF AND PUSH32 0x4896181FF8F4543CC00DB9FE9B6FB7E6F032B7EB772C72AB1EC1B4D2E03B9369 DUP5 PUSH1 0x40 MLOAD PUSH2 0x1009 SWAP2 SWAP1 PUSH2 0x131C JUMP JUMPDEST PUSH1 0x40 MLOAD DUP1 SWAP2 SUB SWAP1 LOG2 POP POP POP JUMP JUMPDEST PUSH0 PUSH0 SWAP1 SLOAD SWAP1 PUSH2 0x100 EXP SWAP1 DIV PUSH20 0xFFFFFFFFFFFFFFFFFFFFFFFFFFFFFFFFFFFFFFFF AND PUSH20 0xFFFFFFFFFFFFFFFFFFFFFFFFFFFFFFFFFFFFFFFF AND CALLER PUSH20 0xFFFFFFFFFFFFFFFFFFFFFFFFFFFFFFFFFFFFFFFF AND EQ PUSH2 0x10A4 JUMPI PUSH1 0x40 MLOAD PUSH32 0x8C379A000000000000000000000000000000000000000000000000000000000 DUP2 MSTORE PUSH1 0x4 ADD PUSH2 0x109B SWAP1 PUSH2 0x1703 JUMP JUMPDEST PUSH1 0x40 MLOAD DUP1 SWAP2 SUB SWAP1 REVERT JUMPDEST DUP1 PUSH0 PUSH20 0xFFFFFFFFFFFFFFFFFFFFFFFFFFFFFFFFFFFFFFFF AND DUP2 PUSH20 0xFFFFFFFFFFFFFFFFFFFFFFFFFFFFFFFFFFFFFFFF AND SUB PUSH2 0x1113 JUMPI PUSH1 0x40 MLOAD PUSH32 0x8C379A000000000000000000000000000000000000000000000000000000000 DUP2 MSTORE PUSH1 0x4 ADD PUSH2 0x110A SWAP1 PUSH2 0x1587 JUMP JUMPDEST PUSH1 0x40 MLOAD DUP1 SWAP2 SUB SWAP1 REVERT JUMPDEST PUSH0 PUSH1 0x5 PUSH0 DUP5 PUSH20 0xFFFFFFFFFFFFFFFFFFFFFFFFFFFFFFFFFFFFFFFF AND PUSH20 0xFFFFFFFFFFFFFFFFFFFFFFFFFFFFFFFFFFFFFFFF AND DUP2 MSTORE PUSH1 0x20 ADD SWAP1 DUP2 MSTORE PUSH1 0x20 ADD PUSH0 KECCAK256 PUSH0 PUSH2 0x100 EXP DUP2 SLOAD DUP2 PUSH1 0xFF MUL NOT AND SWAP1 DUP4 ISZERO ISZERO MUL OR SWAP1 SSTORE POP POP POP JUMP JUMPDEST PUSH1 0x1 ISZERO ISZERO PUSH1 0x5 PUSH0 DUP4 PUSH20 0xFFFFFFFFFFFFFFFFFFFFFFFFFFFFFFFFFFFFFFFF AND PUSH20 0xFFFFFFFFFFFFFFFFFFFFFFFFFFFFFFFFFFFFFFFF AND DUP2 MSTORE PUSH1 0x20 ADD SWAP1 DUP2 MSTORE PUSH1 0x20 ADD PUSH0 KECCAK256 PUSH0 SWAP1 SLOAD SWAP1 PUSH2 0x100 EXP SWAP1 DIV PUSH1 0xFF AND ISZERO ISZERO SUB PUSH2 0x11F2 JUMPI PUSH1 0x40 MLOAD PUSH32 0x344FD58600000000000000000000000000000000000000000000000000000000 DUP2 MSTORE PUSH1 0x4 ADD PUSH1 0x40 MLOAD DUP1 SWAP2 SUB SWAP1 REVERT JUMPDEST PUSH9 0x52663CCAB1E1C0000 PUSH1 0x4 PUSH0 DUP4 PUSH20 0xFFFFFFFFFFFFFFFFFFFFFFFFFFFFFFFFFFFFFFFF AND PUSH20 0xFFFFFFFFFFFFFFFFFFFFFFFFFFFFFFFFFFFFFFFF AND DUP2 MSTORE PUSH1 0x20 ADD SWAP1 DUP2 MSTORE PUSH1 0x20 ADD PUSH0 KECCAK256 SLOAD GT PUSH2 0x1271 JUMPI PUSH1 0x40 MLOAD PUSH32 0xA08105ED00000000000000000000000000000000000000000000000000000000 DUP2 MSTORE PUSH1 0x4 ADD PUSH1 0x40 MLOAD DUP1 SWAP2 SUB SWAP1 REVERT JUMPDEST POP JUMP JUMPDEST PUSH0 DUP2 MLOAD SWAP1 POP SWAP2 SWAP1 POP JUMP JUMPDEST PUSH0 DUP3 DUP3 MSTORE PUSH1 0x20 DUP3 ADD SWAP1 POP SWAP3 SWAP2 POP POP JUMP JUMPDEST DUP3 DUP2 DUP4 MCOPY PUSH0 DUP4 DUP4 ADD MSTORE POP POP POP JUMP JUMPDEST PUSH0 PUSH1 0x1F NOT PUSH1 0x1F DUP4 ADD AND SWAP1 POP SWAP2 SWAP1 POP JUMP JUMPDEST PUSH0 PUSH2 0x12B6 DUP3 PUSH2 0x1274 JUMP JUMPDEST PUSH2 0x12C0 DUP2 DUP6 PUSH2 0x127E JUMP JUMPDEST SWAP4 POP PUSH2 0x12D0 DUP2 DUP6 PUSH1 0x20 DUP7 ADD PUSH2 0x128E JUMP JUMPDEST PUSH2 0x12D9 DUP2 PUSH2 0x129C JUMP JUMPDEST DUP5 ADD SWAP2 POP POP SWAP3 SWAP2 POP POP JUMP JUMPDEST PUSH0 PUSH1 0x20 DUP3 ADD SWAP1 POP DUP2 DUP2 SUB PUSH0 DUP4 ADD MSTORE PUSH2 0x12FC DUP2 DUP5 PUSH2 0x12AC JUMP JUMPDEST SWAP1 POP SWAP3 SWAP2 POP POP JUMP JUMPDEST PUSH0 DUP2 SWAP1 POP SWAP2 SWAP1 POP JUMP JUMPDEST PUSH2 0x1316 DUP2 PUSH2 0x1304 JUMP JUMPDEST DUP3 MSTORE POP POP JUMP JUMPDEST PUSH0 PUSH1 0x20 DUP3 ADD SWAP1 POP PUSH2 0x132F PUSH0 DUP4 ADD DUP5 PUSH2 0x130D JUMP JUMPDEST SWAP3 SWAP2 POP POP JUMP JUMPDEST PUSH0 PUSH0 REVERT JUMPDEST PUSH0 PUSH20 0xFFFFFFFFFFFFFFFFFFFFFFFFFFFFFFFFFFFFFFFF DUP3 AND SWAP1 POP SWAP2 SWAP1 POP JUMP JUMPDEST PUSH0 PUSH2 0x1362 DUP3 PUSH2 0x1339 JUMP JUMPDEST SWAP1 POP SWAP2 SWAP1 POP JUMP JUMPDEST PUSH2 0x1372 DUP2 PUSH2 0x1358 JUMP JUMPDEST DUP2 EQ PUSH2 0x137C JUMPI PUSH0 PUSH0 REVERT JUMPDEST POP JUMP JUMPDEST PUSH0 DUP2 CALLDATALOAD SWAP1 POP PUSH2 0x138D DUP2 PUSH2 0x1369 JUMP JUMPDEST SWAP3 SWAP2 POP POP JUMP JUMPDEST PUSH0 PUSH1 0x20 DUP3 DUP5 SUB SLT ISZERO PUSH2 0x13A8 JUMPI PUSH2 0x13A7 PUSH2 0x1335 JUMP JUMPDEST JUMPDEST PUSH0 PUSH2 0x13B5 DUP5 DUP3 DUP6 ADD PUSH2 0x137F JUMP JUMPDEST SWAP2 POP POP SWAP3 SWAP2 POP POP JUMP JUMPDEST PUSH0 PUSH1 0xFF DUP3 AND SWAP1 POP SWAP2 SWAP1 POP JUMP JUMPDEST PUSH2 0x13D3 DUP2 PUSH2 0x13BE JUMP JUMPDEST DUP3 MSTORE POP POP JUMP JUMPDEST PUSH0 PUSH1 0x20 DUP3 ADD SWAP1 POP PUSH2 0x13EC PUSH0 DUP4 ADD DUP5 PUSH2 0x13CA JUMP JUMPDEST SWAP3 SWAP2 POP POP JUMP JUMPDEST PUSH2 0x13FB DUP2 PUSH2 0x1304 JUMP JUMPDEST DUP2 EQ PUSH2 0x1405 JUMPI PUSH0 PUSH0 REVERT JUMPDEST POP JUMP JUMPDEST PUSH0 DUP2 CALLDATALOAD SWAP1 POP PUSH2 0x1416 DUP2 PUSH2 0x13F2 JUMP JUMPDEST SWAP3 SWAP2 POP POP JUMP JUMPDEST PUSH0 PUSH0 PUSH1 0x40 DUP4 DUP6 SUB SLT ISZERO PUSH2 0x1432 JUMPI PUSH2 0x1431 PUSH2 0x1335 JUMP JUMPDEST JUMPDEST PUSH0 PUSH2 0x143F DUP6 DUP3 DUP7 ADD PUSH2 0x137F JUMP JUMPDEST SWAP3 POP POP PUSH1 0x20 PUSH2 0x1450 DUP6 DUP3 DUP7 ADD PUSH2 0x1408 JUMP JUMPDEST SWAP2 POP POP SWAP3 POP SWAP3 SWAP1 POP JUMP JUMPDEST PUSH2 0x1463 DUP2 PUSH2 0x1358 JUMP JUMPDEST DUP3 MSTORE POP POP JUMP JUMPDEST PUSH0 PUSH1 0x20 DUP3 ADD SWAP1 POP PUSH2 0x147C PUSH0 DUP4 ADD DUP5 PUSH2 0x145A JUMP JUMPDEST SWAP3 SWAP2 POP POP JUMP JUMPDEST PUSH0 DUP2 ISZERO ISZERO SWAP1 POP SWAP2 SWAP1 POP JUMP JUMPDEST PUSH2 0x1496 DUP2 PUSH2 0x1482 JUMP JUMPDEST DUP3 MSTORE POP POP JUMP JUMPDEST PUSH0 PUSH1 0x20 DUP3 ADD SWAP1 POP PUSH2 0x14AF PUSH0 DUP4 ADD DUP5 PUSH2 0x148D JUMP JUMPDEST SWAP3 SWAP2 POP POP JUMP JUMPDEST PUSH0 PUSH1 0x20 DUP3 DUP5 SUB SLT ISZERO PUSH2 0x14CA JUMPI PUSH2 0x14C9 PUSH2 0x1335 JUMP JUMPDEST JUMPDEST PUSH0 PUSH2 0x14D7 DUP5 DUP3 DUP6 ADD PUSH2 0x1408 JUMP JUMPDEST SWAP2 POP POP SWAP3 SWAP2 POP POP JUMP JUMPDEST PUSH32 0x4E487B7100000000000000000000000000000000000000000000000000000000 PUSH0 MSTORE PUSH1 0x22 PUSH1 0x4 MSTORE PUSH1 0x24 PUSH0 REVERT JUMPDEST PUSH0 PUSH1 0x2 DUP3 DIV SWAP1 POP PUSH1 0x1 DUP3 AND DUP1 PUSH2 0x1524 JUMPI PUSH1 0x7F DUP3 AND SWAP2 POP JUMPDEST PUSH1 0x20 DUP3 LT DUP2 SUB PUSH2 0x1537 JUMPI PUSH2 0x1536 PUSH2 0x14E0 JUMP JUMPDEST JUMPDEST POP SWAP2 SWAP1 POP JUMP JUMPDEST PUSH32 0x496E76616C696420546172676574204164647265737300000000000000000000 PUSH0 DUP3 ADD MSTORE POP JUMP JUMPDEST PUSH0 PUSH2 0x1571 PUSH1 0x16 DUP4 PUSH2 0x127E JUMP JUMPDEST SWAP2 POP PUSH2 0x157C DUP3 PUSH2 0x153D JUMP JUMPDEST PUSH1 0x20 DUP3 ADD SWAP1 POP SWAP2 SWAP1 POP JUMP JUMPDEST PUSH0 PUSH1 0x20 DUP3 ADD SWAP1 POP DUP2 DUP2 SUB PUSH0 DUP4 ADD MSTORE PUSH2 0x159E DUP2 PUSH2 0x1565 JUMP JUMPDEST SWAP1 POP SWAP2 SWAP1 POP JUMP JUMPDEST PUSH32 0x5472616E7366657220416D6F756E74206E6565647320746F206265206174206C PUSH0 DUP3 ADD MSTORE PUSH32 0x6561737420657175616C20746F20746865206D696E696D756D20526577617264 PUSH1 0x20 DUP3 ADD MSTORE POP JUMP JUMPDEST PUSH0 PUSH2 0x15FF PUSH1 0x40 DUP4 PUSH2 0x127E JUMP JUMPDEST SWAP2 POP PUSH2 0x160A DUP3 PUSH2 0x15A5 JUMP JUMPDEST PUSH1 0x40 DUP3 ADD SWAP1 POP SWAP2 SWAP1 POP JUMP JUMPDEST PUSH0 PUSH1 0x20 DUP3 ADD SWAP1 POP DUP2 DUP2 SUB PUSH0 DUP4 ADD MSTORE PUSH2 0x162C DUP2 PUSH2 0x15F3 JUMP JUMPDEST SWAP1 POP SWAP2 SWAP1 POP JUMP JUMPDEST PUSH32 0x4E487B7100000000000000000000000000000000000000000000000000000000 PUSH0 MSTORE PUSH1 0x11 PUSH1 0x4 MSTORE PUSH1 0x24 PUSH0 REVERT JUMPDEST PUSH0 PUSH2 0x166A DUP3 PUSH2 0x1304 JUMP JUMPDEST SWAP2 POP PUSH2 0x1675 DUP4 PUSH2 0x1304 JUMP JUMPDEST SWAP3 POP DUP3 DUP3 ADD SWAP1 POP DUP1 DUP3 GT ISZERO PUSH2 0x168D JUMPI PUSH2 0x168C PUSH2 0x1633 JUMP JUMPDEST JUMPDEST SWAP3 SWAP2 POP POP JUMP JUMPDEST PUSH32 0x4F6E6C7920746865206F776E6572206973207065726D69747465642074686973 PUSH0 DUP3 ADD MSTORE PUSH32 0x20616374696F6E00000000000000000000000000000000000000000000000000 PUSH1 0x20 DUP3 ADD MSTORE POP JUMP JUMPDEST PUSH0 PUSH2 0x16ED PUSH1 0x27 DUP4 PUSH2 0x127E JUMP JUMPDEST SWAP2 POP PUSH2 0x16F8 DUP3 PUSH2 0x1693 JUMP JUMPDEST PUSH1 0x40 DUP3 ADD SWAP1 POP SWAP2 SWAP1 POP JUMP JUMPDEST PUSH0 PUSH1 0x20 DUP3 ADD SWAP1 POP DUP2 DUP2 SUB PUSH0 DUP4 ADD MSTORE PUSH2 0x171A DUP2 PUSH2 0x16E1 JUMP JUMPDEST SWAP1 POP SWAP2 SWAP1 POP JUMP JUMPDEST PUSH32 0x496E76616C696420416464726573732C20696620796F752077616E7420746F20 PUSH0 DUP3 ADD MSTORE PUSH32 0x72656D6F766520746865206F776E65722075736520746865202772656E6F756E PUSH1 0x20 DUP3 ADD MSTORE PUSH32 0x63654F776E657273686970272066756E6374696F6E20696E7374656164000000 PUSH1 0x40 DUP3 ADD MSTORE POP JUMP JUMPDEST PUSH0 PUSH2 0x17A1 PUSH1 0x5D DUP4 PUSH2 0x127E JUMP JUMPDEST SWAP2 POP PUSH2 0x17AC DUP3 PUSH2 0x1721 JUMP JUMPDEST PUSH1 0x60 DUP3 ADD SWAP1 POP SWAP2 SWAP1 POP JUMP JUMPDEST PUSH0 PUSH1 0x20 DUP3 ADD SWAP1 POP DUP2 DUP2 SUB PUSH0 DUP4 ADD MSTORE PUSH2 0x17CE DUP2 PUSH2 0x1795 JUMP JUMPDEST SWAP1 POP SWAP2 SWAP1 POP JUMP JUMPDEST PUSH0 PUSH2 0x17DF DUP3 PUSH2 0x1304 JUMP JUMPDEST SWAP2 POP PUSH2 0x17EA DUP4 PUSH2 0x1304 JUMP JUMPDEST SWAP3 POP DUP3 DUP3 SUB SWAP1 POP DUP2 DUP2 GT ISZERO PUSH2 0x1802 JUMPI PUSH2 0x1801 PUSH2 0x1633 JUMP JUMPDEST JUMPDEST SWAP3 SWAP2 POP POP JUMP INVALID LOG2 PUSH5 0x6970667358 0x22 SLT KECCAK256 0xC4 NUMBER 0xC1 PUSH18 0xE962A1064FC2FA5577BFD98D18FF713CB716 0x2C 0xE1 0xB0 0xDA PUSH18 0x3A4FF94F5264736F6C634300081C00330000 "
				},
				"gasEstimates": {
					"creation": {
						"codeDepositCost": "1241200",
						"executionCost": "infinite",
						"totalCost": "infinite"
					},
					"external": {
						"addPartner(address)": "27033",
						"balanceOf(address)": "2913",
						"decimals()": "infinite",
						"holders(address)": "2870",
						"minReward()": "infinite",
						"name()": "infinite",
						"owner()": "2552",
						"partners(address)": "2900",
						"redeemPoints(uint256)": "infinite",
						"removePartner(address)": "27097",
						"renounceOwnership()": "26642",
						"rewardPoints(address,uint256)": "infinite",
						"symbol()": "infinite",
						"totalSupply()": "2471",
						"tranferOwnership(address)": "29188",
						"transfer(address,uint256)": "infinite"
					},
					"internal": {
						"_authorizeReward(address)": "infinite"
					}
				},
				"methodIdentifiers": {
					"addPartner(address)": "8bf34237",
					"balanceOf(address)": "70a08231",
					"decimals()": "313ce567",
					"holders(address)": "18a5bbdc",
					"minReward()": "ba16d600",
					"name()": "06fdde03",
					"owner()": "8da5cb5b",
					"partners(address)": "95c33652",
					"redeemPoints(uint256)": "e92e92e7",
					"removePartner(address)": "ea3c281a",
					"renounceOwnership()": "715018a6",
					"rewardPoints(address,uint256)": "6a7dfd1a",
					"symbol()": "95d89b41",
					"totalSupply()": "18160ddd",
					"tranferOwnership(address)": "83fc58b4",
					"transfer(address,uint256)": "a9059cbb"
				}
			},
			"storageLayout": {
				"storage": [
					{
						"astId": 64,
						"contract": "Assignments/Lecture 7/RewardPointsInterface.sol:BrewBeanPointsToken",
						"label": "owner",
						"offset": 0,
						"slot": "0",
						"type": "t_address"
					},
					{
						"astId": 169,
						"contract": "Assignments/Lecture 7/RewardPointsInterface.sol:BrewBeanPointsToken",
						"label": "name",
						"offset": 0,
						"slot": "1",
						"type": "t_string_storage"
					},
					{
						"astId": 171,
						"contract": "Assignments/Lecture 7/RewardPointsInterface.sol:BrewBeanPointsToken",
						"label": "symbol",
						"offset": 0,
						"slot": "2",
						"type": "t_string_storage"
					},
					{
						"astId": 175,
						"contract": "Assignments/Lecture 7/RewardPointsInterface.sol:BrewBeanPointsToken",
						"label": "totalSupply",
						"offset": 0,
						"slot": "3",
						"type": "t_uint256"
					},
					{
						"astId": 181,
						"contract": "Assignments/Lecture 7/RewardPointsInterface.sol:BrewBeanPointsToken",
						"label": "holders",
						"offset": 0,
						"slot": "4",
						"type": "t_mapping(t_address,t_uint256)"
					},
					{
						"astId": 185,
						"contract": "Assignments/Lecture 7/RewardPointsInterface.sol:BrewBeanPointsToken",
						"label": "partners",
						"offset": 0,
						"slot": "5",
						"type": "t_mapping(t_address,t_bool)"
					}
				],
				"types": {
					"t_address": {
						"encoding": "inplace",
						"label": "address",
						"numberOfBytes": "20"
					},
					"t_bool": {
						"encoding": "inplace",
						"label": "bool",
						"numberOfBytes": "1"
					},
					"t_mapping(t_address,t_bool)": {
						"encoding": "mapping",
						"key": "t_address",
						"label": "mapping(address => bool)",
						"numberOfBytes": "32",
						"value": "t_bool"
					},
					"t_mapping(t_address,t_uint256)": {
						"encoding": "mapping",
						"key": "t_address",
						"label": "mapping(address => uint256)",
						"numberOfBytes": "32",
						"value": "t_uint256"
					},
					"t_string_storage": {
						"encoding": "bytes",
						"label": "string",
						"numberOfBytes": "32"
					},
					"t_uint256": {
						"encoding": "inplace",
						"label": "uint256",
						"numberOfBytes": "32"
					}
				}
			},
			"userdoc": {
				"kind": "user",
				"methods": {},
				"version": 1
			}
		}
	}
}