{
	"Assignments/Lecture 7/Helpers/Ownable.sol": {
		"Ownable": {
			"abi": [
				{
					"inputs": [
						{
							"internalType": "address",
							"name": "_owner",
							"type": "address"
						}
					],
					"stateMutability": "nonpayable",
					"type": "constructor"
				},
				{
					"inputs": [],
					"name": "owner",
					"outputs": [
						{
							"internalType": "address",
							"name": "",
							"type": "address"
						}
					],
					"stateMutability": "view",
					"type": "function"
				},
				{
					"inputs": [],
					"name": "renounceOwnership",
					"outputs": [],
					"stateMutability": "nonpayable",
					"type": "function"
				},
				{
					"inputs": [
						{
							"internalType": "address",
							"name": "target",
							"type": "address"
						}
					],
					"name": "tranferOwnership",
					"outputs": [],
					"stateMutability": "nonpayable",
					"type": "function"
				}
			],
			"devdoc": {
				"kind": "dev",
				"methods": {},
				"version": 1
			},
			"evm": {
				"assembly": "    /* \"Assignments/Lecture 7/Helpers/Ownable.sol\":64:680  contract Ownable {... */\n  mstore(0x40, 0x80)\n    /* \"Assignments/Lecture 7/Helpers/Ownable.sol\":117:178  constructor(address _owner) {... */\n  callvalue\n  dup1\n  iszero\n  tag_1\n  jumpi\n  revert(0x00, 0x00)\ntag_1:\n  pop\n  mload(0x40)\n  sub(codesize, bytecodeSize)\n  dup1\n  bytecodeSize\n  dup4\n  codecopy\n  dup2\n  dup2\n  add\n  0x40\n  mstore\n  dup2\n  add\n  swap1\n  tag_2\n  swap2\n  swap1\n  tag_3\n  jump\t// in\ntag_2:\n    /* \"Assignments/Lecture 7/Helpers/Ownable.sol\":164:170  _owner */\n  dup1\n    /* \"Assignments/Lecture 7/Helpers/Ownable.sol\":156:161  owner */\n  0x00\n  0x00\n    /* \"Assignments/Lecture 7/Helpers/Ownable.sol\":156:170  owner = _owner */\n  0x0100\n  exp\n  dup2\n  sload\n  dup2\n  0xffffffffffffffffffffffffffffffffffffffff\n  mul\n  not\n  and\n  swap1\n  dup4\n  0xffffffffffffffffffffffffffffffffffffffff\n  and\n  mul\n  or\n  swap1\n  sstore\n  pop\n    /* \"Assignments/Lecture 7/Helpers/Ownable.sol\":117:178  constructor(address _owner) {... */\n  pop\n    /* \"Assignments/Lecture 7/Helpers/Ownable.sol\":64:680  contract Ownable {... */\n  jump(tag_6)\n    /* \"#utility.yul\":88:205   */\ntag_8:\n    /* \"#utility.yul\":197:198   */\n  0x00\n    /* \"#utility.yul\":194:195   */\n  0x00\n    /* \"#utility.yul\":187:199   */\n  revert\n    /* \"#utility.yul\":334:460   */\ntag_10:\n    /* \"#utility.yul\":371:378   */\n  0x00\n    /* \"#utility.yul\":411:453   */\n  0xffffffffffffffffffffffffffffffffffffffff\n    /* \"#utility.yul\":404:409   */\n  dup3\n    /* \"#utility.yul\":400:454   */\n  and\n    /* \"#utility.yul\":389:454   */\n  swap1\n  pop\n    /* \"#utility.yul\":334:460   */\n  swap2\n  swap1\n  pop\n  jump\t// out\n    /* \"#utility.yul\":466:562   */\ntag_11:\n    /* \"#utility.yul\":503:510   */\n  0x00\n    /* \"#utility.yul\":532:556   */\n  tag_20\n    /* \"#utility.yul\":550:555   */\n  dup3\n    /* \"#utility.yul\":532:556   */\n  tag_10\n  jump\t// in\ntag_20:\n    /* \"#utility.yul\":521:556   */\n  swap1\n  pop\n    /* \"#utility.yul\":466:562   */\n  swap2\n  swap1\n  pop\n  jump\t// out\n    /* \"#utility.yul\":568:690   */\ntag_12:\n    /* \"#utility.yul\":641:665   */\n  tag_22\n    /* \"#utility.yul\":659:664   */\n  dup2\n    /* \"#utility.yul\":641:665   */\n  tag_11\n  jump\t// in\ntag_22:\n    /* \"#utility.yul\":634:639   */\n  dup2\n    /* \"#utility.yul\":631:666   */\n  eq\n    /* \"#utility.yul\":621:684   */\n  tag_23\n  jumpi\n    /* \"#utility.yul\":680:681   */\n  0x00\n    /* \"#utility.yul\":677:678   */\n  0x00\n    /* \"#utility.yul\":670:682   */\n  revert\n    /* \"#utility.yul\":621:684   */\ntag_23:\n    /* \"#utility.yul\":568:690   */\n  pop\n  jump\t// out\n    /* \"#utility.yul\":696:839   */\ntag_13:\n    /* \"#utility.yul\":753:758   */\n  0x00\n    /* \"#utility.yul\":784:790   */\n  dup2\n    /* \"#utility.yul\":778:791   */\n  mload\n    /* \"#utility.yul\":769:791   */\n  swap1\n  pop\n    /* \"#utility.yul\":800:833   */\n  tag_25\n    /* \"#utility.yul\":827:832   */\n  dup2\n    /* \"#utility.yul\":800:833   */\n  tag_12\n  jump\t// in\ntag_25:\n    /* \"#utility.yul\":696:839   */\n  swap3\n  swap2\n  pop\n  pop\n  jump\t// out\n    /* \"#utility.yul\":845:1196   */\ntag_3:\n    /* \"#utility.yul\":915:921   */\n  0x00\n    /* \"#utility.yul\":964:966   */\n  0x20\n    /* \"#utility.yul\":952:961   */\n  dup3\n    /* \"#utility.yul\":943:950   */\n  dup5\n    /* \"#utility.yul\":939:962   */\n  sub\n    /* \"#utility.yul\":935:967   */\n  slt\n    /* \"#utility.yul\":932:1051   */\n  iszero\n  tag_27\n  jumpi\n    /* \"#utility.yul\":970:1049   */\n  tag_28\n  tag_8\n  jump\t// in\ntag_28:\n    /* \"#utility.yul\":932:1051   */\ntag_27:\n    /* \"#utility.yul\":1090:1091   */\n  0x00\n    /* \"#utility.yul\":1115:1179   */\n  tag_29\n    /* \"#utility.yul\":1171:1178   */\n  dup5\n    /* \"#utility.yul\":1162:1168   */\n  dup3\n    /* \"#utility.yul\":1151:1160   */\n  dup6\n    /* \"#utility.yul\":1147:1169   */\n  add\n    /* \"#utility.yul\":1115:1179   */\n  tag_13\n  jump\t// in\ntag_29:\n    /* \"#utility.yul\":1105:1179   */\n  swap2\n  pop\n    /* \"#utility.yul\":1061:1189   */\n  pop\n    /* \"#utility.yul\":845:1196   */\n  swap3\n  swap2\n  pop\n  pop\n  jump\t// out\n    /* \"Assignments/Lecture 7/Helpers/Ownable.sol\":64:680  contract Ownable {... */\ntag_6:\n  dataSize(sub_0)\n  dup1\n  dataOffset(sub_0)\n  0x00\n  codecopy\n  0x00\n  return\nstop\n\nsub_0: assembly {\n        /* \"Assignments/Lecture 7/Helpers/Ownable.sol\":64:680  contract Ownable {... */\n      mstore(0x40, 0x80)\n      callvalue\n      dup1\n      iszero\n      tag_1\n      jumpi\n      revert(0x00, 0x00)\n    tag_1:\n      pop\n      jumpi(tag_2, lt(calldatasize, 0x04))\n      shr(0xe0, calldataload(0x00))\n      dup1\n      0x715018a6\n      eq\n      tag_3\n      jumpi\n      dup1\n      0x83fc58b4\n      eq\n      tag_4\n      jumpi\n      dup1\n      0x8da5cb5b\n      eq\n      tag_5\n      jumpi\n    tag_2:\n      revert(0x00, 0x00)\n        /* \"Assignments/Lecture 7/Helpers/Ownable.sol\":594:677  function renounceOwnership() onlyOwner public {... */\n    tag_3:\n      tag_6\n      tag_7\n      jump\t// in\n    tag_6:\n      stop\n        /* \"Assignments/Lecture 7/Helpers/Ownable.sol\":338:586  function tranferOwnership(address target) onlyOwner public {... */\n    tag_4:\n      tag_8\n      0x04\n      dup1\n      calldatasize\n      sub\n      dup2\n      add\n      swap1\n      tag_9\n      swap2\n      swap1\n      tag_10\n      jump\t// in\n    tag_9:\n      tag_11\n      jump\t// in\n    tag_8:\n      stop\n        /* \"Assignments/Lecture 7/Helpers/Ownable.sol\":88:108  address public owner */\n    tag_5:\n      tag_12\n      tag_13\n      jump\t// in\n    tag_12:\n      mload(0x40)\n      tag_14\n      swap2\n      swap1\n      tag_15\n      jump\t// in\n    tag_14:\n      mload(0x40)\n      dup1\n      swap2\n      sub\n      swap1\n      return\n        /* \"Assignments/Lecture 7/Helpers/Ownable.sol\":594:677  function renounceOwnership() onlyOwner public {... */\n    tag_7:\n        /* \"Assignments/Lecture 7/Helpers/Ownable.sol\":238:243  owner */\n      0x00\n      0x00\n      swap1\n      sload\n      swap1\n      0x0100\n      exp\n      swap1\n      div\n      0xffffffffffffffffffffffffffffffffffffffff\n      and\n        /* \"Assignments/Lecture 7/Helpers/Ownable.sol\":224:243  msg.sender == owner */\n      0xffffffffffffffffffffffffffffffffffffffff\n      and\n        /* \"Assignments/Lecture 7/Helpers/Ownable.sol\":224:234  msg.sender */\n      caller\n        /* \"Assignments/Lecture 7/Helpers/Ownable.sol\":224:243  msg.sender == owner */\n      0xffffffffffffffffffffffffffffffffffffffff\n      and\n      eq\n        /* \"Assignments/Lecture 7/Helpers/Ownable.sol\":216:287  require(msg.sender == owner, \"Only the owner is permitted this action\") */\n      tag_17\n      jumpi\n      mload(0x40)\n      0x08c379a000000000000000000000000000000000000000000000000000000000\n      dup2\n      mstore\n      0x04\n      add\n      tag_18\n      swap1\n      tag_19\n      jump\t// in\n    tag_18:\n      mload(0x40)\n      dup1\n      swap2\n      sub\n      swap1\n      revert\n    tag_17:\n        /* \"Assignments/Lecture 7/Helpers/Ownable.sol\":667:668  0 */\n      0x00\n        /* \"Assignments/Lecture 7/Helpers/Ownable.sol\":651:656  owner */\n      0x00\n      0x00\n        /* \"Assignments/Lecture 7/Helpers/Ownable.sol\":651:669  owner = address(0) */\n      0x0100\n      exp\n      dup2\n      sload\n      dup2\n      0xffffffffffffffffffffffffffffffffffffffff\n      mul\n      not\n      and\n      swap1\n      dup4\n      0xffffffffffffffffffffffffffffffffffffffff\n      and\n      mul\n      or\n      swap1\n      sstore\n      pop\n        /* \"Assignments/Lecture 7/Helpers/Ownable.sol\":594:677  function renounceOwnership() onlyOwner public {... */\n      jump\t// out\n        /* \"Assignments/Lecture 7/Helpers/Ownable.sol\":338:586  function tranferOwnership(address target) onlyOwner public {... */\n    tag_11:\n        /* \"Assignments/Lecture 7/Helpers/Ownable.sol\":238:243  owner */\n      0x00\n      0x00\n      swap1\n      sload\n      swap1\n      0x0100\n      exp\n      swap1\n      div\n      0xffffffffffffffffffffffffffffffffffffffff\n      and\n        /* \"Assignments/Lecture 7/Helpers/Ownable.sol\":224:243  msg.sender == owner */\n      0xffffffffffffffffffffffffffffffffffffffff\n      and\n        /* \"Assignments/Lecture 7/Helpers/Ownable.sol\":224:234  msg.sender */\n      caller\n        /* \"Assignments/Lecture 7/Helpers/Ownable.sol\":224:243  msg.sender == owner */\n      0xffffffffffffffffffffffffffffffffffffffff\n      and\n      eq\n        /* \"Assignments/Lecture 7/Helpers/Ownable.sol\":216:287  require(msg.sender == owner, \"Only the owner is permitted this action\") */\n      tag_22\n      jumpi\n      mload(0x40)\n      0x08c379a000000000000000000000000000000000000000000000000000000000\n      dup2\n      mstore\n      0x04\n      add\n      tag_23\n      swap1\n      tag_19\n      jump\t// in\n    tag_23:\n      mload(0x40)\n      dup1\n      swap2\n      sub\n      swap1\n      revert\n    tag_22:\n        /* \"Assignments/Lecture 7/Helpers/Ownable.sol\":434:435  0 */\n      0x00\n        /* \"Assignments/Lecture 7/Helpers/Ownable.sol\":416:436  target != address(0) */\n      0xffffffffffffffffffffffffffffffffffffffff\n      and\n        /* \"Assignments/Lecture 7/Helpers/Ownable.sol\":416:422  target */\n      dup2\n        /* \"Assignments/Lecture 7/Helpers/Ownable.sol\":416:436  target != address(0) */\n      0xffffffffffffffffffffffffffffffffffffffff\n      and\n      eq\n      iszero\n        /* \"Assignments/Lecture 7/Helpers/Ownable.sol\":416:455  target != address(0) && target != owner */\n      dup1\n      iszero\n      tag_25\n      jumpi\n      pop\n        /* \"Assignments/Lecture 7/Helpers/Ownable.sol\":450:455  owner */\n      0x00\n      0x00\n      swap1\n      sload\n      swap1\n      0x0100\n      exp\n      swap1\n      div\n      0xffffffffffffffffffffffffffffffffffffffff\n      and\n        /* \"Assignments/Lecture 7/Helpers/Ownable.sol\":440:455  target != owner */\n      0xffffffffffffffffffffffffffffffffffffffff\n      and\n        /* \"Assignments/Lecture 7/Helpers/Ownable.sol\":440:446  target */\n      dup2\n        /* \"Assignments/Lecture 7/Helpers/Ownable.sol\":440:455  target != owner */\n      0xffffffffffffffffffffffffffffffffffffffff\n      and\n      eq\n      iszero\n        /* \"Assignments/Lecture 7/Helpers/Ownable.sol\":416:455  target != address(0) && target != owner */\n    tag_25:\n        /* \"Assignments/Lecture 7/Helpers/Ownable.sol\":408:553  require(target != address(0) && target != owner, \"Invalid Address, if you want to remove the owner use the 'renounceOwnership' function instead\") */\n      tag_26\n      jumpi\n      mload(0x40)\n      0x08c379a000000000000000000000000000000000000000000000000000000000\n      dup2\n      mstore\n      0x04\n      add\n      tag_27\n      swap1\n      tag_28\n      jump\t// in\n    tag_27:\n      mload(0x40)\n      dup1\n      swap2\n      sub\n      swap1\n      revert\n    tag_26:\n        /* \"Assignments/Lecture 7/Helpers/Ownable.sol\":572:578  target */\n      dup1\n        /* \"Assignments/Lecture 7/Helpers/Ownable.sol\":564:569  owner */\n      0x00\n      0x00\n        /* \"Assignments/Lecture 7/Helpers/Ownable.sol\":564:578  owner = target */\n      0x0100\n      exp\n      dup2\n      sload\n      dup2\n      0xffffffffffffffffffffffffffffffffffffffff\n      mul\n      not\n      and\n      swap1\n      dup4\n      0xffffffffffffffffffffffffffffffffffffffff\n      and\n      mul\n      or\n      swap1\n      sstore\n      pop\n        /* \"Assignments/Lecture 7/Helpers/Ownable.sol\":338:586  function tranferOwnership(address target) onlyOwner public {... */\n      pop\n      jump\t// out\n        /* \"Assignments/Lecture 7/Helpers/Ownable.sol\":88:108  address public owner */\n    tag_13:\n      0x00\n      0x00\n      swap1\n      sload\n      swap1\n      0x0100\n      exp\n      swap1\n      div\n      0xffffffffffffffffffffffffffffffffffffffff\n      and\n      dup2\n      jump\t// out\n        /* \"#utility.yul\":88:205   */\n    tag_30:\n        /* \"#utility.yul\":197:198   */\n      0x00\n        /* \"#utility.yul\":194:195   */\n      0x00\n        /* \"#utility.yul\":187:199   */\n      revert\n        /* \"#utility.yul\":334:460   */\n    tag_32:\n        /* \"#utility.yul\":371:378   */\n      0x00\n        /* \"#utility.yul\":411:453   */\n      0xffffffffffffffffffffffffffffffffffffffff\n        /* \"#utility.yul\":404:409   */\n      dup3\n        /* \"#utility.yul\":400:454   */\n      and\n        /* \"#utility.yul\":389:454   */\n      swap1\n      pop\n        /* \"#utility.yul\":334:460   */\n      swap2\n      swap1\n      pop\n      jump\t// out\n        /* \"#utility.yul\":466:562   */\n    tag_33:\n        /* \"#utility.yul\":503:510   */\n      0x00\n        /* \"#utility.yul\":532:556   */\n      tag_48\n        /* \"#utility.yul\":550:555   */\n      dup3\n        /* \"#utility.yul\":532:556   */\n      tag_32\n      jump\t// in\n    tag_48:\n        /* \"#utility.yul\":521:556   */\n      swap1\n      pop\n        /* \"#utility.yul\":466:562   */\n      swap2\n      swap1\n      pop\n      jump\t// out\n        /* \"#utility.yul\":568:690   */\n    tag_34:\n        /* \"#utility.yul\":641:665   */\n      tag_50\n        /* \"#utility.yul\":659:664   */\n      dup2\n        /* \"#utility.yul\":641:665   */\n      tag_33\n      jump\t// in\n    tag_50:\n        /* \"#utility.yul\":634:639   */\n      dup2\n        /* \"#utility.yul\":631:666   */\n      eq\n        /* \"#utility.yul\":621:684   */\n      tag_51\n      jumpi\n        /* \"#utility.yul\":680:681   */\n      0x00\n        /* \"#utility.yul\":677:678   */\n      0x00\n        /* \"#utility.yul\":670:682   */\n      revert\n        /* \"#utility.yul\":621:684   */\n    tag_51:\n        /* \"#utility.yul\":568:690   */\n      pop\n      jump\t// out\n        /* \"#utility.yul\":696:835   */\n    tag_35:\n        /* \"#utility.yul\":742:747   */\n      0x00\n        /* \"#utility.yul\":780:786   */\n      dup2\n        /* \"#utility.yul\":767:787   */\n      calldataload\n        /* \"#utility.yul\":758:787   */\n      swap1\n      pop\n        /* \"#utility.yul\":796:829   */\n      tag_53\n        /* \"#utility.yul\":823:828   */\n      dup2\n        /* \"#utility.yul\":796:829   */\n      tag_34\n      jump\t// in\n    tag_53:\n        /* \"#utility.yul\":696:835   */\n      swap3\n      swap2\n      pop\n      pop\n      jump\t// out\n        /* \"#utility.yul\":841:1170   */\n    tag_10:\n        /* \"#utility.yul\":900:906   */\n      0x00\n        /* \"#utility.yul\":949:951   */\n      0x20\n        /* \"#utility.yul\":937:946   */\n      dup3\n        /* \"#utility.yul\":928:935   */\n      dup5\n        /* \"#utility.yul\":924:947   */\n      sub\n        /* \"#utility.yul\":920:952   */\n      slt\n        /* \"#utility.yul\":917:1036   */\n      iszero\n      tag_55\n      jumpi\n        /* \"#utility.yul\":955:1034   */\n      tag_56\n      tag_30\n      jump\t// in\n    tag_56:\n        /* \"#utility.yul\":917:1036   */\n    tag_55:\n        /* \"#utility.yul\":1075:1076   */\n      0x00\n        /* \"#utility.yul\":1100:1153   */\n      tag_57\n        /* \"#utility.yul\":1145:1152   */\n      dup5\n        /* \"#utility.yul\":1136:1142   */\n      dup3\n        /* \"#utility.yul\":1125:1134   */\n      dup6\n        /* \"#utility.yul\":1121:1143   */\n      add\n        /* \"#utility.yul\":1100:1153   */\n      tag_35\n      jump\t// in\n    tag_57:\n        /* \"#utility.yul\":1090:1153   */\n      swap2\n      pop\n        /* \"#utility.yul\":1046:1163   */\n      pop\n        /* \"#utility.yul\":841:1170   */\n      swap3\n      swap2\n      pop\n      pop\n      jump\t// out\n        /* \"#utility.yul\":1176:1294   */\n    tag_36:\n        /* \"#utility.yul\":1263:1287   */\n      tag_59\n        /* \"#utility.yul\":1281:1286   */\n      dup2\n        /* \"#utility.yul\":1263:1287   */\n      tag_33\n      jump\t// in\n    tag_59:\n        /* \"#utility.yul\":1258:1261   */\n      dup3\n        /* \"#utility.yul\":1251:1288   */\n      mstore\n        /* \"#utility.yul\":1176:1294   */\n      pop\n      pop\n      jump\t// out\n        /* \"#utility.yul\":1300:1522   */\n    tag_15:\n        /* \"#utility.yul\":1393:1397   */\n      0x00\n        /* \"#utility.yul\":1431:1433   */\n      0x20\n        /* \"#utility.yul\":1420:1429   */\n      dup3\n        /* \"#utility.yul\":1416:1434   */\n      add\n        /* \"#utility.yul\":1408:1434   */\n      swap1\n      pop\n        /* \"#utility.yul\":1444:1515   */\n      tag_61\n        /* \"#utility.yul\":1512:1513   */\n      0x00\n        /* \"#utility.yul\":1501:1510   */\n      dup4\n        /* \"#utility.yul\":1497:1514   */\n      add\n        /* \"#utility.yul\":1488:1494   */\n      dup5\n        /* \"#utility.yul\":1444:1515   */\n      tag_36\n      jump\t// in\n    tag_61:\n        /* \"#utility.yul\":1300:1522   */\n      swap3\n      swap2\n      pop\n      pop\n      jump\t// out\n        /* \"#utility.yul\":1528:1697   */\n    tag_37:\n        /* \"#utility.yul\":1612:1623   */\n      0x00\n        /* \"#utility.yul\":1646:1652   */\n      dup3\n        /* \"#utility.yul\":1641:1644   */\n      dup3\n        /* \"#utility.yul\":1634:1653   */\n      mstore\n        /* \"#utility.yul\":1686:1690   */\n      0x20\n        /* \"#utility.yul\":1681:1684   */\n      dup3\n        /* \"#utility.yul\":1677:1691   */\n      add\n        /* \"#utility.yul\":1662:1691   */\n      swap1\n      pop\n        /* \"#utility.yul\":1528:1697   */\n      swap3\n      swap2\n      pop\n      pop\n      jump\t// out\n        /* \"#utility.yul\":1703:1929   */\n    tag_38:\n        /* \"#utility.yul\":1843:1877   */\n      0x4f6e6c7920746865206f776e6572206973207065726d69747465642074686973\n        /* \"#utility.yul\":1839:1840   */\n      0x00\n        /* \"#utility.yul\":1831:1837   */\n      dup3\n        /* \"#utility.yul\":1827:1841   */\n      add\n        /* \"#utility.yul\":1820:1878   */\n      mstore\n        /* \"#utility.yul\":1912:1921   */\n      0x20616374696f6e00000000000000000000000000000000000000000000000000\n        /* \"#utility.yul\":1907:1909   */\n      0x20\n        /* \"#utility.yul\":1899:1905   */\n      dup3\n        /* \"#utility.yul\":1895:1910   */\n      add\n        /* \"#utility.yul\":1888:1922   */\n      mstore\n        /* \"#utility.yul\":1703:1929   */\n      pop\n      jump\t// out\n        /* \"#utility.yul\":1935:2301   */\n    tag_39:\n        /* \"#utility.yul\":2077:2080   */\n      0x00\n        /* \"#utility.yul\":2098:2165   */\n      tag_65\n        /* \"#utility.yul\":2162:2164   */\n      0x27\n        /* \"#utility.yul\":2157:2160   */\n      dup4\n        /* \"#utility.yul\":2098:2165   */\n      tag_37\n      jump\t// in\n    tag_65:\n        /* \"#utility.yul\":2091:2165   */\n      swap2\n      pop\n        /* \"#utility.yul\":2174:2267   */\n      tag_66\n        /* \"#utility.yul\":2263:2266   */\n      dup3\n        /* \"#utility.yul\":2174:2267   */\n      tag_38\n      jump\t// in\n    tag_66:\n        /* \"#utility.yul\":2292:2294   */\n      0x40\n        /* \"#utility.yul\":2287:2290   */\n      dup3\n        /* \"#utility.yul\":2283:2295   */\n      add\n        /* \"#utility.yul\":2276:2295   */\n      swap1\n      pop\n        /* \"#utility.yul\":1935:2301   */\n      swap2\n      swap1\n      pop\n      jump\t// out\n        /* \"#utility.yul\":2307:2726   */\n    tag_19:\n        /* \"#utility.yul\":2473:2477   */\n      0x00\n        /* \"#utility.yul\":2511:2513   */\n      0x20\n        /* \"#utility.yul\":2500:2509   */\n      dup3\n        /* \"#utility.yul\":2496:2514   */\n      add\n        /* \"#utility.yul\":2488:2514   */\n      swap1\n      pop\n        /* \"#utility.yul\":2560:2569   */\n      dup2\n        /* \"#utility.yul\":2554:2558   */\n      dup2\n        /* \"#utility.yul\":2550:2570   */\n      sub\n        /* \"#utility.yul\":2546:2547   */\n      0x00\n        /* \"#utility.yul\":2535:2544   */\n      dup4\n        /* \"#utility.yul\":2531:2548   */\n      add\n        /* \"#utility.yul\":2524:2571   */\n      mstore\n        /* \"#utility.yul\":2588:2719   */\n      tag_68\n        /* \"#utility.yul\":2714:2718   */\n      dup2\n        /* \"#utility.yul\":2588:2719   */\n      tag_39\n      jump\t// in\n    tag_68:\n        /* \"#utility.yul\":2580:2719   */\n      swap1\n      pop\n        /* \"#utility.yul\":2307:2726   */\n      swap2\n      swap1\n      pop\n      jump\t// out\n        /* \"#utility.yul\":2732:3049   */\n    tag_40:\n        /* \"#utility.yul\":2872:2906   */\n      0x496e76616c696420416464726573732c20696620796f752077616e7420746f20\n        /* \"#utility.yul\":2868:2869   */\n      0x00\n        /* \"#utility.yul\":2860:2866   */\n      dup3\n        /* \"#utility.yul\":2856:2870   */\n      add\n        /* \"#utility.yul\":2849:2907   */\n      mstore\n        /* \"#utility.yul\":2941:2975   */\n      0x72656d6f766520746865206f776e65722075736520746865202772656e6f756e\n        /* \"#utility.yul\":2936:2938   */\n      0x20\n        /* \"#utility.yul\":2928:2934   */\n      dup3\n        /* \"#utility.yul\":2924:2939   */\n      add\n        /* \"#utility.yul\":2917:2976   */\n      mstore\n        /* \"#utility.yul\":3010:3041   */\n      0x63654f776e657273686970272066756e6374696f6e20696e7374656164000000\n        /* \"#utility.yul\":3005:3007   */\n      0x40\n        /* \"#utility.yul\":2997:3003   */\n      dup3\n        /* \"#utility.yul\":2993:3008   */\n      add\n        /* \"#utility.yul\":2986:3042   */\n      mstore\n        /* \"#utility.yul\":2732:3049   */\n      pop\n      jump\t// out\n        /* \"#utility.yul\":3055:3421   */\n    tag_41:\n        /* \"#utility.yul\":3197:3200   */\n      0x00\n        /* \"#utility.yul\":3218:3285   */\n      tag_71\n        /* \"#utility.yul\":3282:3284   */\n      0x5d\n        /* \"#utility.yul\":3277:3280   */\n      dup4\n        /* \"#utility.yul\":3218:3285   */\n      tag_37\n      jump\t// in\n    tag_71:\n        /* \"#utility.yul\":3211:3285   */\n      swap2\n      pop\n        /* \"#utility.yul\":3294:3387   */\n      tag_72\n        /* \"#utility.yul\":3383:3386   */\n      dup3\n        /* \"#utility.yul\":3294:3387   */\n      tag_40\n      jump\t// in\n    tag_72:\n        /* \"#utility.yul\":3412:3414   */\n      0x60\n        /* \"#utility.yul\":3407:3410   */\n      dup3\n        /* \"#utility.yul\":3403:3415   */\n      add\n        /* \"#utility.yul\":3396:3415   */\n      swap1\n      pop\n        /* \"#utility.yul\":3055:3421   */\n      swap2\n      swap1\n      pop\n      jump\t// out\n        /* \"#utility.yul\":3427:3846   */\n    tag_28:\n        /* \"#utility.yul\":3593:3597   */\n      0x00\n        /* \"#utility.yul\":3631:3633   */\n      0x20\n        /* \"#utility.yul\":3620:3629   */\n      dup3\n        /* \"#utility.yul\":3616:3634   */\n      add\n        /* \"#utility.yul\":3608:3634   */\n      swap1\n      pop\n        /* \"#utility.yul\":3680:3689   */\n      dup2\n        /* \"#utility.yul\":3674:3678   */\n      dup2\n        /* \"#utility.yul\":3670:3690   */\n      sub\n        /* \"#utility.yul\":3666:3667   */\n      0x00\n        /* \"#utility.yul\":3655:3664   */\n      dup4\n        /* \"#utility.yul\":3651:3668   */\n      add\n        /* \"#utility.yul\":3644:3691   */\n      mstore\n        /* \"#utility.yul\":3708:3839   */\n      tag_74\n        /* \"#utility.yul\":3834:3838   */\n      dup2\n        /* \"#utility.yul\":3708:3839   */\n      tag_41\n      jump\t// in\n    tag_74:\n        /* \"#utility.yul\":3700:3839   */\n      swap1\n      pop\n        /* \"#utility.yul\":3427:3846   */\n      swap2\n      swap1\n      pop\n      jump\t// out\n\n    auxdata: 0xa2646970667358221220d049b741f5779e6e681daa44698fd2ad2a7e827f17da08b387586a2d8fb52fb064736f6c634300081c0033\n}\n",
				"bytecode": {
					"linkReferences": {},
					"object": "608060405234801561000f575f5ffd5b50604051610656380380610656833981810160405281019061003191906100d4565b805f5f6101000a81548173ffffffffffffffffffffffffffffffffffffffff021916908373ffffffffffffffffffffffffffffffffffffffff160217905550506100ff565b5f5ffd5b5f73ffffffffffffffffffffffffffffffffffffffff82169050919050565b5f6100a38261007a565b9050919050565b6100b381610099565b81146100bd575f5ffd5b50565b5f815190506100ce816100aa565b92915050565b5f602082840312156100e9576100e8610076565b5b5f6100f6848285016100c0565b91505092915050565b61054a8061010c5f395ff3fe608060405234801561000f575f5ffd5b506004361061003f575f3560e01c8063715018a61461004357806383fc58b41461004d5780638da5cb5b14610069575b5f5ffd5b61004b610087565b005b6100676004803603810190610062919061036f565b610156565b005b6100716102ed565b60405161007e91906103a9565b60405180910390f35b5f5f9054906101000a900473ffffffffffffffffffffffffffffffffffffffff1673ffffffffffffffffffffffffffffffffffffffff163373ffffffffffffffffffffffffffffffffffffffff1614610115576040517f08c379a000000000000000000000000000000000000000000000000000000000815260040161010c90610442565b60405180910390fd5b5f5f5f6101000a81548173ffffffffffffffffffffffffffffffffffffffff021916908373ffffffffffffffffffffffffffffffffffffffff160217905550565b5f5f9054906101000a900473ffffffffffffffffffffffffffffffffffffffff1673ffffffffffffffffffffffffffffffffffffffff163373ffffffffffffffffffffffffffffffffffffffff16146101e4576040517f08c379a00000000000000000000000000000000000000000000000000000000081526004016101db90610442565b60405180910390fd5b5f73ffffffffffffffffffffffffffffffffffffffff168173ffffffffffffffffffffffffffffffffffffffff161415801561026c57505f5f9054906101000a900473ffffffffffffffffffffffffffffffffffffffff1673ffffffffffffffffffffffffffffffffffffffff168173ffffffffffffffffffffffffffffffffffffffff1614155b6102ab576040517f08c379a00000000000000000000000000000000000000000000000000000000081526004016102a2906104f6565b60405180910390fd5b805f5f6101000a81548173ffffffffffffffffffffffffffffffffffffffff021916908373ffffffffffffffffffffffffffffffffffffffff16021790555050565b5f5f9054906101000a900473ffffffffffffffffffffffffffffffffffffffff1681565b5f5ffd5b5f73ffffffffffffffffffffffffffffffffffffffff82169050919050565b5f61033e82610315565b9050919050565b61034e81610334565b8114610358575f5ffd5b50565b5f8135905061036981610345565b92915050565b5f6020828403121561038457610383610311565b5b5f6103918482850161035b565b91505092915050565b6103a381610334565b82525050565b5f6020820190506103bc5f83018461039a565b92915050565b5f82825260208201905092915050565b7f4f6e6c7920746865206f776e6572206973207065726d697474656420746869735f8201527f20616374696f6e00000000000000000000000000000000000000000000000000602082015250565b5f61042c6027836103c2565b9150610437826103d2565b604082019050919050565b5f6020820190508181035f83015261045981610420565b9050919050565b7f496e76616c696420416464726573732c20696620796f752077616e7420746f205f8201527f72656d6f766520746865206f776e65722075736520746865202772656e6f756e60208201527f63654f776e657273686970272066756e6374696f6e20696e7374656164000000604082015250565b5f6104e0605d836103c2565b91506104eb82610460565b606082019050919050565b5f6020820190508181035f83015261050d816104d4565b905091905056fea2646970667358221220d049b741f5779e6e681daa44698fd2ad2a7e827f17da08b387586a2d8fb52fb064736f6c634300081c0033",
					"opcodes": "PUSH1 0x80 PUSH1 0x40 MSTORE CALLVALUE DUP1 ISZERO PUSH2 0xF JUMPI PUSH0 PUSH0 REVERT JUMPDEST POP PUSH1 0x40 MLOAD PUSH2 0x656 CODESIZE SUB DUP1 PUSH2 0x656 DUP4 CODECOPY DUP2 DUP2 ADD PUSH1 0x40 MSTORE DUP2 ADD SWAP1 PUSH2 0x31 SWAP2 SWAP1 PUSH2 0xD4 JUMP JUMPDEST DUP1 PUSH0 PUSH0 PUSH2 0x100 EXP DUP2 SLOAD DUP2 PUSH20 0xFFFFFFFFFFFFFFFFFFFFFFFFFFFFFFFFFFFFFFFF MUL NOT AND SWAP1 DUP4 PUSH20 0xFFFFFFFFFFFFFFFFFFFFFFFFFFFFFFFFFFFFFFFF AND MUL OR SWAP1 SSTORE POP POP PUSH2 0xFF JUMP JUMPDEST PUSH0 PUSH0 REVERT JUMPDEST PUSH0 PUSH20 0xFFFFFFFFFFFFFFFFFFFFFFFFFFFFFFFFFFFFFFFF DUP3 AND SWAP1 POP SWAP2 SWAP1 POP JUMP JUMPDEST PUSH0 PUSH2 0xA3 DUP3 PUSH2 0x7A JUMP JUMPDEST SWAP1 POP SWAP2 SWAP1 POP JUMP JUMPDEST PUSH2 0xB3 DUP2 PUSH2 0x99 JUMP JUMPDEST DUP2 EQ PUSH2 0xBD JUMPI PUSH0 PUSH0 REVERT JUMPDEST POP JUMP JUMPDEST PUSH0 DUP2 MLOAD SWAP1 POP PUSH2 0xCE DUP2 PUSH2 0xAA JUMP JUMPDEST SWAP3 SWAP2 POP POP JUMP JUMPDEST PUSH0 PUSH1 0x20 DUP3 DUP5 SUB SLT ISZERO PUSH2 0xE9 JUMPI PUSH2 0xE8 PUSH2 0x76 JUMP JUMPDEST JUMPDEST PUSH0 PUSH2 0xF6 DUP5 DUP3 DUP6 ADD PUSH2 0xC0 JUMP JUMPDEST SWAP2 POP POP SWAP3 SWAP2 POP POP JUMP JUMPDEST PUSH2 0x54A DUP1 PUSH2 0x10C PUSH0 CODECOPY PUSH0 RETURN INVALID PUSH1 0x80 PUSH1 0x40 MSTORE CALLVALUE DUP1 ISZERO PUSH2 0xF JUMPI PUSH0 PUSH0 REVERT JUMPDEST POP PUSH1 0x4 CALLDATASIZE LT PUSH2 0x3F JUMPI PUSH0 CALLDATALOAD PUSH1 0xE0 SHR DUP1 PUSH4 0x715018A6 EQ PUSH2 0x43 JUMPI DUP1 PUSH4 0x83FC58B4 EQ PUSH2 0x4D JUMPI DUP1 PUSH4 0x8DA5CB5B EQ PUSH2 0x69 JUMPI JUMPDEST PUSH0 PUSH0 REVERT JUMPDEST PUSH2 0x4B PUSH2 0x87 JUMP JUMPDEST STOP JUMPDEST PUSH2 0x67 PUSH1 0x4 DUP1 CALLDATASIZE SUB DUP2 ADD SWAP1 PUSH2 0x62 SWAP2 SWAP1 PUSH2 0x36F JUMP JUMPDEST PUSH2 0x156 JUMP JUMPDEST STOP JUMPDEST PUSH2 0x71 PUSH2 0x2ED JUMP JUMPDEST PUSH1 0x40 MLOAD PUSH2 0x7E SWAP2 SWAP1 PUSH2 0x3A9 JUMP JUMPDEST PUSH1 0x40 MLOAD DUP1 SWAP2 SUB SWAP1 RETURN JUMPDEST PUSH0 PUSH0 SWAP1 SLOAD SWAP1 PUSH2 0x100 EXP SWAP1 DIV PUSH20 0xFFFFFFFFFFFFFFFFFFFFFFFFFFFFFFFFFFFFFFFF AND PUSH20 0xFFFFFFFFFFFFFFFFFFFFFFFFFFFFFFFFFFFFFFFF AND CALLER PUSH20 0xFFFFFFFFFFFFFFFFFFFFFFFFFFFFFFFFFFFFFFFF AND EQ PUSH2 0x115 JUMPI PUSH1 0x40 MLOAD PUSH32 0x8C379A000000000000000000000000000000000000000000000000000000000 DUP2 MSTORE PUSH1 0x4 ADD PUSH2 0x10C SWAP1 PUSH2 0x442 JUMP JUMPDEST PUSH1 0x40 MLOAD DUP1 SWAP2 SUB SWAP1 REVERT JUMPDEST PUSH0 PUSH0 PUSH0 PUSH2 0x100 EXP DUP2 SLOAD DUP2 PUSH20 0xFFFFFFFFFFFFFFFFFFFFFFFFFFFFFFFFFFFFFFFF MUL NOT AND SWAP1 DUP4 PUSH20 0xFFFFFFFFFFFFFFFFFFFFFFFFFFFFFFFFFFFFFFFF AND MUL OR SWAP1 SSTORE POP JUMP JUMPDEST PUSH0 PUSH0 SWAP1 SLOAD SWAP1 PUSH2 0x100 EXP SWAP1 DIV PUSH20 0xFFFFFFFFFFFFFFFFFFFFFFFFFFFFFFFFFFFFFFFF AND PUSH20 0xFFFFFFFFFFFFFFFFFFFFFFFFFFFFFFFFFFFFFFFF AND CALLER PUSH20 0xFFFFFFFFFFFFFFFFFFFFFFFFFFFFFFFFFFFFFFFF AND EQ PUSH2 0x1E4 JUMPI PUSH1 0x40 MLOAD PUSH32 0x8C379A000000000000000000000000000000000000000000000000000000000 DUP2 MSTORE PUSH1 0x4 ADD PUSH2 0x1DB SWAP1 PUSH2 0x442 JUMP JUMPDEST PUSH1 0x40 MLOAD DUP1 SWAP2 SUB SWAP1 REVERT JUMPDEST PUSH0 PUSH20 0xFFFFFFFFFFFFFFFFFFFFFFFFFFFFFFFFFFFFFFFF AND DUP2 PUSH20 0xFFFFFFFFFFFFFFFFFFFFFFFFFFFFFFFFFFFFFFFF AND EQ ISZERO DUP1 ISZERO PUSH2 0x26C JUMPI POP PUSH0 PUSH0 SWAP1 SLOAD SWAP1 PUSH2 0x100 EXP SWAP1 DIV PUSH20 0xFFFFFFFFFFFFFFFFFFFFFFFFFFFFFFFFFFFFFFFF AND PUSH20 0xFFFFFFFFFFFFFFFFFFFFFFFFFFFFFFFFFFFFFFFF AND DUP2 PUSH20 0xFFFFFFFFFFFFFFFFFFFFFFFFFFFFFFFFFFFFFFFF AND EQ ISZERO JUMPDEST PUSH2 0x2AB JUMPI PUSH1 0x40 MLOAD PUSH32 0x8C379A000000000000000000000000000000000000000000000000000000000 DUP2 MSTORE PUSH1 0x4 ADD PUSH2 0x2A2 SWAP1 PUSH2 0x4F6 JUMP JUMPDEST PUSH1 0x40 MLOAD DUP1 SWAP2 SUB SWAP1 REVERT JUMPDEST DUP1 PUSH0 PUSH0 PUSH2 0x100 EXP DUP2 SLOAD DUP2 PUSH20 0xFFFFFFFFFFFFFFFFFFFFFFFFFFFFFFFFFFFFFFFF MUL NOT AND SWAP1 DUP4 PUSH20 0xFFFFFFFFFFFFFFFFFFFFFFFFFFFFFFFFFFFFFFFF AND MUL OR SWAP1 SSTORE POP POP JUMP JUMPDEST PUSH0 PUSH0 SWAP1 SLOAD SWAP1 PUSH2 0x100 EXP SWAP1 DIV PUSH20 0xFFFFFFFFFFFFFFFFFFFFFFFFFFFFFFFFFFFFFFFF AND DUP2 JUMP JUMPDEST PUSH0 PUSH0 REVERT JUMPDEST PUSH0 PUSH20 0xFFFFFFFFFFFFFFFFFFFFFFFFFFFFFFFFFFFFFFFF DUP3 AND SWAP1 POP SWAP2 SWAP1 POP JUMP JUMPDEST PUSH0 PUSH2 0x33E DUP3 PUSH2 0x315 JUMP JUMPDEST SWAP1 POP SWAP2 SWAP1 POP JUMP JUMPDEST PUSH2 0x34E DUP2 PUSH2 0x334 JUMP JUMPDEST DUP2 EQ PUSH2 0x358 JUMPI PUSH0 PUSH0 REVERT JUMPDEST POP JUMP JUMPDEST PUSH0 DUP2 CALLDATALOAD SWAP1 POP PUSH2 0x369 DUP2 PUSH2 0x345 JUMP JUMPDEST SWAP3 SWAP2 POP POP JUMP JUMPDEST PUSH0 PUSH1 0x20 DUP3 DUP5 SUB SLT ISZERO PUSH2 0x384 JUMPI PUSH2 0x383 PUSH2 0x311 JUMP JUMPDEST JUMPDEST PUSH0 PUSH2 0x391 DUP5 DUP3 DUP6 ADD PUSH2 0x35B JUMP JUMPDEST SWAP2 POP POP SWAP3 SWAP2 POP POP JUMP JUMPDEST PUSH2 0x3A3 DUP2 PUSH2 0x334 JUMP JUMPDEST DUP3 MSTORE POP POP JUMP JUMPDEST PUSH0 PUSH1 0x20 DUP3 ADD SWAP1 POP PUSH2 0x3BC PUSH0 DUP4 ADD DUP5 PUSH2 0x39A JUMP JUMPDEST SWAP3 SWAP2 POP POP JUMP JUMPDEST PUSH0 DUP3 DUP3 MSTORE PUSH1 0x20 DUP3 ADD SWAP1 POP SWAP3 SWAP2 POP POP JUMP JUMPDEST PUSH32 0x4F6E6C7920746865206F776E6572206973207065726D69747465642074686973 PUSH0 DUP3 ADD MSTORE PUSH32 0x20616374696F6E00000000000000000000000000000000000000000000000000 PUSH1 0x20 DUP3 ADD MSTORE POP JUMP JUMPDEST PUSH0 PUSH2 0x42C PUSH1 0x27 DUP4 PUSH2 0x3C2 JUMP JUMPDEST SWAP2 POP PUSH2 0x437 DUP3 PUSH2 0x3D2 JUMP JUMPDEST PUSH1 0x40 DUP3 ADD SWAP1 POP SWAP2 SWAP1 POP JUMP JUMPDEST PUSH0 PUSH1 0x20 DUP3 ADD SWAP1 POP DUP2 DUP2 SUB PUSH0 DUP4 ADD MSTORE PUSH2 0x459 DUP2 PUSH2 0x420 JUMP JUMPDEST SWAP1 POP SWAP2 SWAP1 POP JUMP JUMPDEST PUSH32 0x496E76616C696420416464726573732C20696620796F752077616E7420746F20 PUSH0 DUP3 ADD MSTORE PUSH32 0x72656D6F766520746865206F776E65722075736520746865202772656E6F756E PUSH1 0x20 DUP3 ADD MSTORE PUSH32 0x63654F776E657273686970272066756E6374696F6E20696E7374656164000000 PUSH1 0x40 DUP3 ADD MSTORE POP JUMP JUMPDEST PUSH0 PUSH2 0x4E0 PUSH1 0x5D DUP4 PUSH2 0x3C2 JUMP JUMPDEST SWAP2 POP PUSH2 0x4EB DUP3 PUSH2 0x460 JUMP JUMPDEST PUSH1 0x60 DUP3 ADD SWAP1 POP SWAP2 SWAP1 POP JUMP JUMPDEST PUSH0 PUSH1 0x20 DUP3 ADD SWAP1 POP DUP2 DUP2 SUB PUSH0 DUP4 ADD MSTORE PUSH2 0x50D DUP2 PUSH2 0x4D4 JUMP JUMPDEST SWAP1 POP SWAP2 SWAP1 POP JUMP INVALID LOG2 PUSH5 0x6970667358 0x22 SLT KECCAK256 0xD0 BLOBHASH 0xB7 COINBASE CREATE2 PUSH24 0x9E6E681DAA44698FD2AD2A7E827F17DA08B387586A2D8FB5 0x2F 0xB0 PUSH5 0x736F6C6343 STOP ADDMOD SHR STOP CALLER "
				},
				"gasEstimates": {
					"creation": {
						"codeDepositCost": "270800",
						"executionCost": "infinite",
						"totalCost": "infinite"
					},
					"external": {
						"owner()": "2529",
						"renounceOwnership()": "26553",
						"tranferOwnership(address)": "29099"
					}
				},
				"methodIdentifiers": {
					"owner()": "8da5cb5b",
					"renounceOwnership()": "715018a6",
					"tranferOwnership(address)": "83fc58b4"
				}
			},
			"storageLayout": {
				"storage": [
					{
						"astId": 64,
						"contract": "Assignments/Lecture 7/Helpers/Ownable.sol:Ownable",
						"label": "owner",
						"offset": 0,
						"slot": "0",
						"type": "t_address"
					}
				],
				"types": {
					"t_address": {
						"encoding": "inplace",
						"label": "address",
						"numberOfBytes": "20"
					}
				}
			},
			"userdoc": {
				"kind": "user",
				"methods": {},
				"version": 1
			}
		}
	}
}