{
	"Assignments/Lecture 8/PaymentLibrary.sol": {
		"PaymentLibrary": {
			"abi": [
				{
					"inputs": [],
					"name": "InsuficientAmount",
					"type": "error"
				},
				{
					"inputs": [
						{
							"internalType": "address",
							"name": "target",
							"type": "address"
						}
					],
					"name": "isContract",
					"outputs": [
						{
							"internalType": "bool",
							"name": "",
							"type": "bool"
						}
					],
					"stateMutability": "view",
					"type": "function"
				}
			],
			"devdoc": {
				"kind": "dev",
				"methods": {},
				"version": 1
			},
			"evm": {
				"assembly": "    /* \"Assignments/Lecture 8/PaymentLibrary.sol\":147:736  library PaymentLibrary {... */\n  dataSize(sub_0)\n  dataOffset(sub_0)\n  0x0b\n  dup3\n  dup3\n  dup3\n  codecopy\n  dup1\n  mload\n  0x00\n  byte\n  0x73\n  eq\n  tag_1\n  jumpi\n  mstore(0x00, 0x4e487b7100000000000000000000000000000000000000000000000000000000)\n  mstore(0x04, 0x00)\n  revert(0x00, 0x24)\ntag_1:\n  mstore(0x00, address)\n  0x73\n  dup2\n  mstore8\n  dup3\n  dup2\n  return\nstop\n\nsub_0: assembly {\n        /* \"Assignments/Lecture 8/PaymentLibrary.sol\":147:736  library PaymentLibrary {... */\n      eq(address, deployTimeAddress())\n      mstore(0x40, 0x80)\n      jumpi(tag_1, lt(calldatasize, 0x04))\n      shr(0xe0, calldataload(0x00))\n      dup1\n      0x16279055\n      eq\n      tag_2\n      jumpi\n      dup1\n      0x7b1a4909\n      eq\n      tag_3\n      jumpi\n    tag_1:\n      revert(0x00, 0x00)\n        /* \"Assignments/Lecture 8/PaymentLibrary.sol\":528:733  function isContract(address target) public view returns(bool) {... */\n    tag_2:\n      tag_4\n      0x04\n      dup1\n      calldatasize\n      sub\n      dup2\n      add\n      swap1\n      tag_5\n      swap2\n      swap1\n      tag_6\n      jump\t// in\n    tag_5:\n      tag_7\n      jump\t// in\n    tag_4:\n      mload(0x40)\n      tag_8\n      swap2\n      swap1\n      tag_9\n      jump\t// in\n    tag_8:\n      mload(0x40)\n      dup1\n      swap2\n      sub\n      swap1\n      return\n        /* \"Assignments/Lecture 8/PaymentLibrary.sol\":211:520  function transferETH(address target, uint256 amount) external {... */\n    tag_3:\n      dup2\n      dup1\n      iszero\n      tag_10\n      jumpi\n      revert(0x00, 0x00)\n    tag_10:\n      pop\n      tag_11\n      0x04\n      dup1\n      calldatasize\n      sub\n      dup2\n      add\n      swap1\n      tag_12\n      swap2\n      swap1\n      tag_13\n      jump\t// in\n    tag_12:\n      tag_14\n      jump\t// in\n    tag_11:\n      stop\n        /* \"Assignments/Lecture 8/PaymentLibrary.sol\":528:733  function isContract(address target) public view returns(bool) {... */\n    tag_7:\n        /* \"Assignments/Lecture 8/PaymentLibrary.sol\":584:588  bool */\n      0x00\n        /* \"Assignments/Lecture 8/PaymentLibrary.sol\":601:617  uint256 codeSize */\n      0x00\n        /* \"Assignments/Lecture 8/PaymentLibrary.sol\":676:682  target */\n      dup3\n        /* \"Assignments/Lecture 8/PaymentLibrary.sol\":664:683  extcodesize(target) */\n      extcodesize\n        /* \"Assignments/Lecture 8/PaymentLibrary.sol\":652:683  codeSize := extcodesize(target) */\n      swap1\n      pop\n        /* \"Assignments/Lecture 8/PaymentLibrary.sol\":724:725  0 */\n      0x00\n        /* \"Assignments/Lecture 8/PaymentLibrary.sol\":713:721  codeSize */\n      dup2\n        /* \"Assignments/Lecture 8/PaymentLibrary.sol\":713:725  codeSize > 0 */\n      gt\n        /* \"Assignments/Lecture 8/PaymentLibrary.sol\":706:725  return codeSize > 0 */\n      swap2\n      pop\n      pop\n        /* \"Assignments/Lecture 8/PaymentLibrary.sol\":528:733  function isContract(address target) public view returns(bool) {... */\n      swap2\n      swap1\n      pop\n      jump\t// out\n        /* \"Assignments/Lecture 8/PaymentLibrary.sol\":211:520  function transferETH(address target, uint256 amount) external {... */\n    tag_14:\n        /* \"Assignments/Lecture 8/PaymentLibrary.sol\":297:305  1000 wei */\n      0x03e8\n        /* \"Assignments/Lecture 8/PaymentLibrary.sol\":288:294  amount */\n      dup2\n        /* \"Assignments/Lecture 8/PaymentLibrary.sol\":288:305  amount < 1000 wei */\n      lt\n        /* \"Assignments/Lecture 8/PaymentLibrary.sol\":284:337  if (amount < 1000 wei) { revert InsuficientAmount();} */\n      iszero\n      tag_17\n      jumpi\n        /* \"Assignments/Lecture 8/PaymentLibrary.sol\":316:335  InsuficientAmount() */\n      mload(0x40)\n      0x77a5e4f000000000000000000000000000000000000000000000000000000000\n      dup2\n      mstore\n      0x04\n      add\n      mload(0x40)\n      dup1\n      swap2\n      sub\n      swap1\n      revert\n        /* \"Assignments/Lecture 8/PaymentLibrary.sol\":284:337  if (amount < 1000 wei) { revert InsuficientAmount();} */\n    tag_17:\n        /* \"Assignments/Lecture 8/PaymentLibrary.sol\":373:374  0 */\n      0x00\n        /* \"Assignments/Lecture 8/PaymentLibrary.sol\":355:375  target != address(0) */\n      0xffffffffffffffffffffffffffffffffffffffff\n      and\n        /* \"Assignments/Lecture 8/PaymentLibrary.sol\":355:361  target */\n      dup3\n        /* \"Assignments/Lecture 8/PaymentLibrary.sol\":355:375  target != address(0) */\n      0xffffffffffffffffffffffffffffffffffffffff\n      and\n      sub\n        /* \"Assignments/Lecture 8/PaymentLibrary.sol\":347:402  require(target != address(0), \"Invalid target address\") */\n      tag_18\n      jumpi\n      mload(0x40)\n      0x08c379a000000000000000000000000000000000000000000000000000000000\n      dup2\n      mstore\n      0x04\n      add\n      tag_19\n      swap1\n      tag_20\n      jump\t// in\n    tag_19:\n      mload(0x40)\n      dup1\n      swap2\n      sub\n      swap1\n      revert\n    tag_18:\n        /* \"Assignments/Lecture 8/PaymentLibrary.sol\":416:428  bool success */\n      0x00\n        /* \"Assignments/Lecture 8/PaymentLibrary.sol\":434:440  target */\n      dup3\n        /* \"Assignments/Lecture 8/PaymentLibrary.sol\":434:445  target.call */\n      0xffffffffffffffffffffffffffffffffffffffff\n      and\n        /* \"Assignments/Lecture 8/PaymentLibrary.sol\":453:459  amount */\n      dup3\n        /* \"Assignments/Lecture 8/PaymentLibrary.sol\":434:464  target.call{value: amount}(\"\") */\n      mload(0x40)\n      tag_21\n      swap1\n      tag_22\n      jump\t// in\n    tag_21:\n      0x00\n      mload(0x40)\n      dup1\n      dup4\n      sub\n      dup2\n      dup6\n      dup8\n      gas\n      call\n      swap3\n      pop\n      pop\n      pop\n      returndatasize\n      dup1\n      0x00\n      dup2\n      eq\n      tag_25\n      jumpi\n      mload(0x40)\n      swap2\n      pop\n      and(add(returndatasize, 0x3f), not(0x1f))\n      dup3\n      add\n      0x40\n      mstore\n      returndatasize\n      dup3\n      mstore\n      returndatasize\n      0x00\n      0x20\n      dup5\n      add\n      returndatacopy\n      jump(tag_24)\n    tag_25:\n      0x60\n      swap2\n      pop\n    tag_24:\n      pop\n        /* \"Assignments/Lecture 8/PaymentLibrary.sol\":415:464  (bool success, ) = target.call{value: amount}(\"\") */\n      pop\n      swap1\n      pop\n        /* \"Assignments/Lecture 8/PaymentLibrary.sol\":485:492  success */\n      dup1\n        /* \"Assignments/Lecture 8/PaymentLibrary.sol\":477:512  require(success, \"Tranfer failed!\") */\n      tag_26\n      jumpi\n      mload(0x40)\n      0x08c379a000000000000000000000000000000000000000000000000000000000\n      dup2\n      mstore\n      0x04\n      add\n      tag_27\n      swap1\n      tag_28\n      jump\t// in\n    tag_27:\n      mload(0x40)\n      dup1\n      swap2\n      sub\n      swap1\n      revert\n    tag_26:\n        /* \"Assignments/Lecture 8/PaymentLibrary.sol\":273:520  {... */\n      pop\n        /* \"Assignments/Lecture 8/PaymentLibrary.sol\":211:520  function transferETH(address target, uint256 amount) external {... */\n      pop\n      pop\n      jump\t// out\n        /* \"#utility.yul\":88:205   */\n    tag_30:\n        /* \"#utility.yul\":197:198   */\n      0x00\n        /* \"#utility.yul\":194:195   */\n      0x00\n        /* \"#utility.yul\":187:199   */\n      revert\n        /* \"#utility.yul\":334:460   */\n    tag_32:\n        /* \"#utility.yul\":371:378   */\n      0x00\n        /* \"#utility.yul\":411:453   */\n      0xffffffffffffffffffffffffffffffffffffffff\n        /* \"#utility.yul\":404:409   */\n      dup3\n        /* \"#utility.yul\":400:454   */\n      and\n        /* \"#utility.yul\":389:454   */\n      swap1\n      pop\n        /* \"#utility.yul\":334:460   */\n      swap2\n      swap1\n      pop\n      jump\t// out\n        /* \"#utility.yul\":466:562   */\n    tag_33:\n        /* \"#utility.yul\":503:510   */\n      0x00\n        /* \"#utility.yul\":532:556   */\n      tag_55\n        /* \"#utility.yul\":550:555   */\n      dup3\n        /* \"#utility.yul\":532:556   */\n      tag_32\n      jump\t// in\n    tag_55:\n        /* \"#utility.yul\":521:556   */\n      swap1\n      pop\n        /* \"#utility.yul\":466:562   */\n      swap2\n      swap1\n      pop\n      jump\t// out\n        /* \"#utility.yul\":568:690   */\n    tag_34:\n        /* \"#utility.yul\":641:665   */\n      tag_57\n        /* \"#utility.yul\":659:664   */\n      dup2\n        /* \"#utility.yul\":641:665   */\n      tag_33\n      jump\t// in\n    tag_57:\n        /* \"#utility.yul\":634:639   */\n      dup2\n        /* \"#utility.yul\":631:666   */\n      eq\n        /* \"#utility.yul\":621:684   */\n      tag_58\n      jumpi\n        /* \"#utility.yul\":680:681   */\n      0x00\n        /* \"#utility.yul\":677:678   */\n      0x00\n        /* \"#utility.yul\":670:682   */\n      revert\n        /* \"#utility.yul\":621:684   */\n    tag_58:\n        /* \"#utility.yul\":568:690   */\n      pop\n      jump\t// out\n        /* \"#utility.yul\":696:835   */\n    tag_35:\n        /* \"#utility.yul\":742:747   */\n      0x00\n        /* \"#utility.yul\":780:786   */\n      dup2\n        /* \"#utility.yul\":767:787   */\n      calldataload\n        /* \"#utility.yul\":758:787   */\n      swap1\n      pop\n        /* \"#utility.yul\":796:829   */\n      tag_60\n        /* \"#utility.yul\":823:828   */\n      dup2\n        /* \"#utility.yul\":796:829   */\n      tag_34\n      jump\t// in\n    tag_60:\n        /* \"#utility.yul\":696:835   */\n      swap3\n      swap2\n      pop\n      pop\n      jump\t// out\n        /* \"#utility.yul\":841:1170   */\n    tag_6:\n        /* \"#utility.yul\":900:906   */\n      0x00\n        /* \"#utility.yul\":949:951   */\n      0x20\n        /* \"#utility.yul\":937:946   */\n      dup3\n        /* \"#utility.yul\":928:935   */\n      dup5\n        /* \"#utility.yul\":924:947   */\n      sub\n        /* \"#utility.yul\":920:952   */\n      slt\n        /* \"#utility.yul\":917:1036   */\n      iszero\n      tag_62\n      jumpi\n        /* \"#utility.yul\":955:1034   */\n      tag_63\n      tag_30\n      jump\t// in\n    tag_63:\n        /* \"#utility.yul\":917:1036   */\n    tag_62:\n        /* \"#utility.yul\":1075:1076   */\n      0x00\n        /* \"#utility.yul\":1100:1153   */\n      tag_64\n        /* \"#utility.yul\":1145:1152   */\n      dup5\n        /* \"#utility.yul\":1136:1142   */\n      dup3\n        /* \"#utility.yul\":1125:1134   */\n      dup6\n        /* \"#utility.yul\":1121:1143   */\n      add\n        /* \"#utility.yul\":1100:1153   */\n      tag_35\n      jump\t// in\n    tag_64:\n        /* \"#utility.yul\":1090:1153   */\n      swap2\n      pop\n        /* \"#utility.yul\":1046:1163   */\n      pop\n        /* \"#utility.yul\":841:1170   */\n      swap3\n      swap2\n      pop\n      pop\n      jump\t// out\n        /* \"#utility.yul\":1176:1266   */\n    tag_36:\n        /* \"#utility.yul\":1210:1217   */\n      0x00\n        /* \"#utility.yul\":1253:1258   */\n      dup2\n        /* \"#utility.yul\":1246:1259   */\n      iszero\n        /* \"#utility.yul\":1239:1260   */\n      iszero\n        /* \"#utility.yul\":1228:1260   */\n      swap1\n      pop\n        /* \"#utility.yul\":1176:1266   */\n      swap2\n      swap1\n      pop\n      jump\t// out\n        /* \"#utility.yul\":1272:1389   */\n    tag_37:\n        /* \"#utility.yul\":1361:1382   */\n      tag_67\n        /* \"#utility.yul\":1376:1381   */\n      dup2\n        /* \"#utility.yul\":1361:1382   */\n      tag_36\n      jump\t// in\n    tag_67:\n        /* \"#utility.yul\":1356:1359   */\n      dup3\n        /* \"#utility.yul\":1349:1383   */\n      mstore\n        /* \"#utility.yul\":1272:1389   */\n      pop\n      pop\n      jump\t// out\n        /* \"#utility.yul\":1395:1621   */\n    tag_9:\n        /* \"#utility.yul\":1490:1494   */\n      0x00\n        /* \"#utility.yul\":1528:1530   */\n      0x20\n        /* \"#utility.yul\":1517:1526   */\n      dup3\n        /* \"#utility.yul\":1513:1531   */\n      add\n        /* \"#utility.yul\":1505:1531   */\n      swap1\n      pop\n        /* \"#utility.yul\":1541:1614   */\n      tag_69\n        /* \"#utility.yul\":1611:1612   */\n      0x00\n        /* \"#utility.yul\":1600:1609   */\n      dup4\n        /* \"#utility.yul\":1596:1613   */\n      add\n        /* \"#utility.yul\":1587:1593   */\n      dup5\n        /* \"#utility.yul\":1541:1614   */\n      tag_37\n      jump\t// in\n    tag_69:\n        /* \"#utility.yul\":1395:1621   */\n      swap3\n      swap2\n      pop\n      pop\n      jump\t// out\n        /* \"#utility.yul\":1627:1704   */\n    tag_38:\n        /* \"#utility.yul\":1664:1671   */\n      0x00\n        /* \"#utility.yul\":1693:1698   */\n      dup2\n        /* \"#utility.yul\":1682:1698   */\n      swap1\n      pop\n        /* \"#utility.yul\":1627:1704   */\n      swap2\n      swap1\n      pop\n      jump\t// out\n        /* \"#utility.yul\":1710:1832   */\n    tag_39:\n        /* \"#utility.yul\":1783:1807   */\n      tag_72\n        /* \"#utility.yul\":1801:1806   */\n      dup2\n        /* \"#utility.yul\":1783:1807   */\n      tag_38\n      jump\t// in\n    tag_72:\n        /* \"#utility.yul\":1776:1781   */\n      dup2\n        /* \"#utility.yul\":1773:1808   */\n      eq\n        /* \"#utility.yul\":1763:1826   */\n      tag_73\n      jumpi\n        /* \"#utility.yul\":1822:1823   */\n      0x00\n        /* \"#utility.yul\":1819:1820   */\n      0x00\n        /* \"#utility.yul\":1812:1824   */\n      revert\n        /* \"#utility.yul\":1763:1826   */\n    tag_73:\n        /* \"#utility.yul\":1710:1832   */\n      pop\n      jump\t// out\n        /* \"#utility.yul\":1838:1977   */\n    tag_40:\n        /* \"#utility.yul\":1884:1889   */\n      0x00\n        /* \"#utility.yul\":1922:1928   */\n      dup2\n        /* \"#utility.yul\":1909:1929   */\n      calldataload\n        /* \"#utility.yul\":1900:1929   */\n      swap1\n      pop\n        /* \"#utility.yul\":1938:1971   */\n      tag_75\n        /* \"#utility.yul\":1965:1970   */\n      dup2\n        /* \"#utility.yul\":1938:1971   */\n      tag_39\n      jump\t// in\n    tag_75:\n        /* \"#utility.yul\":1838:1977   */\n      swap3\n      swap2\n      pop\n      pop\n      jump\t// out\n        /* \"#utility.yul\":1983:2457   */\n    tag_13:\n        /* \"#utility.yul\":2051:2057   */\n      0x00\n        /* \"#utility.yul\":2059:2065   */\n      0x00\n        /* \"#utility.yul\":2108:2110   */\n      0x40\n        /* \"#utility.yul\":2096:2105   */\n      dup4\n        /* \"#utility.yul\":2087:2094   */\n      dup6\n        /* \"#utility.yul\":2083:2106   */\n      sub\n        /* \"#utility.yul\":2079:2111   */\n      slt\n        /* \"#utility.yul\":2076:2195   */\n      iszero\n      tag_77\n      jumpi\n        /* \"#utility.yul\":2114:2193   */\n      tag_78\n      tag_30\n      jump\t// in\n    tag_78:\n        /* \"#utility.yul\":2076:2195   */\n    tag_77:\n        /* \"#utility.yul\":2234:2235   */\n      0x00\n        /* \"#utility.yul\":2259:2312   */\n      tag_79\n        /* \"#utility.yul\":2304:2311   */\n      dup6\n        /* \"#utility.yul\":2295:2301   */\n      dup3\n        /* \"#utility.yul\":2284:2293   */\n      dup7\n        /* \"#utility.yul\":2280:2302   */\n      add\n        /* \"#utility.yul\":2259:2312   */\n      tag_35\n      jump\t// in\n    tag_79:\n        /* \"#utility.yul\":2249:2312   */\n      swap3\n      pop\n        /* \"#utility.yul\":2205:2322   */\n      pop\n        /* \"#utility.yul\":2361:2363   */\n      0x20\n        /* \"#utility.yul\":2387:2440   */\n      tag_80\n        /* \"#utility.yul\":2432:2439   */\n      dup6\n        /* \"#utility.yul\":2423:2429   */\n      dup3\n        /* \"#utility.yul\":2412:2421   */\n      dup7\n        /* \"#utility.yul\":2408:2430   */\n      add\n        /* \"#utility.yul\":2387:2440   */\n      tag_40\n      jump\t// in\n    tag_80:\n        /* \"#utility.yul\":2377:2440   */\n      swap2\n      pop\n        /* \"#utility.yul\":2332:2450   */\n      pop\n        /* \"#utility.yul\":1983:2457   */\n      swap3\n      pop\n      swap3\n      swap1\n      pop\n      jump\t// out\n        /* \"#utility.yul\":2463:2632   */\n    tag_41:\n        /* \"#utility.yul\":2547:2558   */\n      0x00\n        /* \"#utility.yul\":2581:2587   */\n      dup3\n        /* \"#utility.yul\":2576:2579   */\n      dup3\n        /* \"#utility.yul\":2569:2588   */\n      mstore\n        /* \"#utility.yul\":2621:2625   */\n      0x20\n        /* \"#utility.yul\":2616:2619   */\n      dup3\n        /* \"#utility.yul\":2612:2626   */\n      add\n        /* \"#utility.yul\":2597:2626   */\n      swap1\n      pop\n        /* \"#utility.yul\":2463:2632   */\n      swap3\n      swap2\n      pop\n      pop\n      jump\t// out\n        /* \"#utility.yul\":2638:2810   */\n    tag_42:\n        /* \"#utility.yul\":2778:2802   */\n      0x496e76616c696420746172676574206164647265737300000000000000000000\n        /* \"#utility.yul\":2774:2775   */\n      0x00\n        /* \"#utility.yul\":2766:2772   */\n      dup3\n        /* \"#utility.yul\":2762:2776   */\n      add\n        /* \"#utility.yul\":2755:2803   */\n      mstore\n        /* \"#utility.yul\":2638:2810   */\n      pop\n      jump\t// out\n        /* \"#utility.yul\":2816:3182   */\n    tag_43:\n        /* \"#utility.yul\":2958:2961   */\n      0x00\n        /* \"#utility.yul\":2979:3046   */\n      tag_84\n        /* \"#utility.yul\":3043:3045   */\n      0x16\n        /* \"#utility.yul\":3038:3041   */\n      dup4\n        /* \"#utility.yul\":2979:3046   */\n      tag_41\n      jump\t// in\n    tag_84:\n        /* \"#utility.yul\":2972:3046   */\n      swap2\n      pop\n        /* \"#utility.yul\":3055:3148   */\n      tag_85\n        /* \"#utility.yul\":3144:3147   */\n      dup3\n        /* \"#utility.yul\":3055:3148   */\n      tag_42\n      jump\t// in\n    tag_85:\n        /* \"#utility.yul\":3173:3175   */\n      0x20\n        /* \"#utility.yul\":3168:3171   */\n      dup3\n        /* \"#utility.yul\":3164:3176   */\n      add\n        /* \"#utility.yul\":3157:3176   */\n      swap1\n      pop\n        /* \"#utility.yul\":2816:3182   */\n      swap2\n      swap1\n      pop\n      jump\t// out\n        /* \"#utility.yul\":3188:3607   */\n    tag_20:\n        /* \"#utility.yul\":3354:3358   */\n      0x00\n        /* \"#utility.yul\":3392:3394   */\n      0x20\n        /* \"#utility.yul\":3381:3390   */\n      dup3\n        /* \"#utility.yul\":3377:3395   */\n      add\n        /* \"#utility.yul\":3369:3395   */\n      swap1\n      pop\n        /* \"#utility.yul\":3441:3450   */\n      dup2\n        /* \"#utility.yul\":3435:3439   */\n      dup2\n        /* \"#utility.yul\":3431:3451   */\n      sub\n        /* \"#utility.yul\":3427:3428   */\n      0x00\n        /* \"#utility.yul\":3416:3425   */\n      dup4\n        /* \"#utility.yul\":3412:3429   */\n      add\n        /* \"#utility.yul\":3405:3452   */\n      mstore\n        /* \"#utility.yul\":3469:3600   */\n      tag_87\n        /* \"#utility.yul\":3595:3599   */\n      dup2\n        /* \"#utility.yul\":3469:3600   */\n      tag_43\n      jump\t// in\n    tag_87:\n        /* \"#utility.yul\":3461:3600   */\n      swap1\n      pop\n        /* \"#utility.yul\":3188:3607   */\n      swap2\n      swap1\n      pop\n      jump\t// out\n        /* \"#utility.yul\":3613:3760   */\n    tag_44:\n        /* \"#utility.yul\":3714:3725   */\n      0x00\n        /* \"#utility.yul\":3751:3754   */\n      dup2\n        /* \"#utility.yul\":3736:3754   */\n      swap1\n      pop\n        /* \"#utility.yul\":3613:3760   */\n      swap3\n      swap2\n      pop\n      pop\n      jump\t// out\n        /* \"#utility.yul\":3766:3880   */\n    tag_45:\n      pop\n      jump\t// out\n        /* \"#utility.yul\":3886:4284   */\n    tag_46:\n        /* \"#utility.yul\":4045:4048   */\n      0x00\n        /* \"#utility.yul\":4066:4149   */\n      tag_91\n        /* \"#utility.yul\":4147:4148   */\n      0x00\n        /* \"#utility.yul\":4142:4145   */\n      dup4\n        /* \"#utility.yul\":4066:4149   */\n      tag_44\n      jump\t// in\n    tag_91:\n        /* \"#utility.yul\":4059:4149   */\n      swap2\n      pop\n        /* \"#utility.yul\":4158:4251   */\n      tag_92\n        /* \"#utility.yul\":4247:4250   */\n      dup3\n        /* \"#utility.yul\":4158:4251   */\n      tag_45\n      jump\t// in\n    tag_92:\n        /* \"#utility.yul\":4276:4277   */\n      0x00\n        /* \"#utility.yul\":4271:4274   */\n      dup3\n        /* \"#utility.yul\":4267:4278   */\n      add\n        /* \"#utility.yul\":4260:4278   */\n      swap1\n      pop\n        /* \"#utility.yul\":3886:4284   */\n      swap2\n      swap1\n      pop\n      jump\t// out\n        /* \"#utility.yul\":4290:4669   */\n    tag_22:\n        /* \"#utility.yul\":4474:4477   */\n      0x00\n        /* \"#utility.yul\":4496:4643   */\n      tag_94\n        /* \"#utility.yul\":4639:4642   */\n      dup3\n        /* \"#utility.yul\":4496:4643   */\n      tag_46\n      jump\t// in\n    tag_94:\n        /* \"#utility.yul\":4489:4643   */\n      swap2\n      pop\n        /* \"#utility.yul\":4660:4663   */\n      dup2\n        /* \"#utility.yul\":4653:4663   */\n      swap1\n      pop\n        /* \"#utility.yul\":4290:4669   */\n      swap2\n      swap1\n      pop\n      jump\t// out\n        /* \"#utility.yul\":4675:4840   */\n    tag_47:\n        /* \"#utility.yul\":4815:4832   */\n      0x5472616e666572206661696c6564210000000000000000000000000000000000\n        /* \"#utility.yul\":4811:4812   */\n      0x00\n        /* \"#utility.yul\":4803:4809   */\n      dup3\n        /* \"#utility.yul\":4799:4813   */\n      add\n        /* \"#utility.yul\":4792:4833   */\n      mstore\n        /* \"#utility.yul\":4675:4840   */\n      pop\n      jump\t// out\n        /* \"#utility.yul\":4846:5212   */\n    tag_48:\n        /* \"#utility.yul\":4988:4991   */\n      0x00\n        /* \"#utility.yul\":5009:5076   */\n      tag_97\n        /* \"#utility.yul\":5073:5075   */\n      0x0f\n        /* \"#utility.yul\":5068:5071   */\n      dup4\n        /* \"#utility.yul\":5009:5076   */\n      tag_41\n      jump\t// in\n    tag_97:\n        /* \"#utility.yul\":5002:5076   */\n      swap2\n      pop\n        /* \"#utility.yul\":5085:5178   */\n      tag_98\n        /* \"#utility.yul\":5174:5177   */\n      dup3\n        /* \"#utility.yul\":5085:5178   */\n      tag_47\n      jump\t// in\n    tag_98:\n        /* \"#utility.yul\":5203:5205   */\n      0x20\n        /* \"#utility.yul\":5198:5201   */\n      dup3\n        /* \"#utility.yul\":5194:5206   */\n      add\n        /* \"#utility.yul\":5187:5206   */\n      swap1\n      pop\n        /* \"#utility.yul\":4846:5212   */\n      swap2\n      swap1\n      pop\n      jump\t// out\n        /* \"#utility.yul\":5218:5637   */\n    tag_28:\n        /* \"#utility.yul\":5384:5388   */\n      0x00\n        /* \"#utility.yul\":5422:5424   */\n      0x20\n        /* \"#utility.yul\":5411:5420   */\n      dup3\n        /* \"#utility.yul\":5407:5425   */\n      add\n        /* \"#utility.yul\":5399:5425   */\n      swap1\n      pop\n        /* \"#utility.yul\":5471:5480   */\n      dup2\n        /* \"#utility.yul\":5465:5469   */\n      dup2\n        /* \"#utility.yul\":5461:5481   */\n      sub\n        /* \"#utility.yul\":5457:5458   */\n      0x00\n        /* \"#utility.yul\":5446:5455   */\n      dup4\n        /* \"#utility.yul\":5442:5459   */\n      add\n        /* \"#utility.yul\":5435:5482   */\n      mstore\n        /* \"#utility.yul\":5499:5630   */\n      tag_100\n        /* \"#utility.yul\":5625:5629   */\n      dup2\n        /* \"#utility.yul\":5499:5630   */\n      tag_48\n      jump\t// in\n    tag_100:\n        /* \"#utility.yul\":5491:5630   */\n      swap1\n      pop\n        /* \"#utility.yul\":5218:5637   */\n      swap2\n      swap1\n      pop\n      jump\t// out\n\n    auxdata: 0xa26469706673582212201462889495cc7a236e73c3db913b904efb9fe4c4b5bde8f5c01e01d0d97b22d664736f6c634300081c0033\n}\n",
				"bytecode": {
					"linkReferences": {},
					"object": "61048761004d600b8282823980515f1a6073146041577f4e487b71000000000000000000000000000000000000000000000000000000005f525f60045260245ffd5b305f52607381538281f3fe730000000000000000000000000000000000000000301460806040526004361061003f575f3560e01c806316279055146100435780637b1a490914610073575b5f5ffd5b61005d60048036038101906100589190610261565b61009b565b60405161006a91906102a6565b60405180910390f35b81801561007e575f5ffd5b50610099600480360381019061009491906102f2565b6100ac565b005b5f5f823b90505f8111915050919050565b6103e88110156100e8576040517f77a5e4f000000000000000000000000000000000000000000000000000000000815260040160405180910390fd5b5f73ffffffffffffffffffffffffffffffffffffffff168273ffffffffffffffffffffffffffffffffffffffff1603610156576040517f08c379a000000000000000000000000000000000000000000000000000000000815260040161014d9061038a565b60405180910390fd5b5f8273ffffffffffffffffffffffffffffffffffffffff168260405161017b906103d5565b5f6040518083038185875af1925050503d805f81146101b5576040519150601f19603f3d011682016040523d82523d5f602084013e6101ba565b606091505b50509050806101fe576040517f08c379a00000000000000000000000000000000000000000000000000000000081526004016101f590610433565b60405180910390fd5b505050565b5f5ffd5b5f73ffffffffffffffffffffffffffffffffffffffff82169050919050565b5f61023082610207565b9050919050565b61024081610226565b811461024a575f5ffd5b50565b5f8135905061025b81610237565b92915050565b5f6020828403121561027657610275610203565b5b5f6102838482850161024d565b91505092915050565b5f8115159050919050565b6102a08161028c565b82525050565b5f6020820190506102b95f830184610297565b92915050565b5f819050919050565b6102d1816102bf565b81146102db575f5ffd5b50565b5f813590506102ec816102c8565b92915050565b5f5f6040838503121561030857610307610203565b5b5f6103158582860161024d565b9250506020610326858286016102de565b9150509250929050565b5f82825260208201905092915050565b7f496e76616c6964207461726765742061646472657373000000000000000000005f82015250565b5f610374601683610330565b915061037f82610340565b602082019050919050565b5f6020820190508181035f8301526103a181610368565b9050919050565b5f81905092915050565b50565b5f6103c05f836103a8565b91506103cb826103b2565b5f82019050919050565b5f6103df826103b5565b9150819050919050565b7f5472616e666572206661696c65642100000000000000000000000000000000005f82015250565b5f61041d600f83610330565b9150610428826103e9565b602082019050919050565b5f6020820190508181035f83015261044a81610411565b905091905056fea26469706673582212201462889495cc7a236e73c3db913b904efb9fe4c4b5bde8f5c01e01d0d97b22d664736f6c634300081c0033",
					"opcodes": "PUSH2 0x487 PUSH2 0x4D PUSH1 0xB DUP3 DUP3 DUP3 CODECOPY DUP1 MLOAD PUSH0 BYTE PUSH1 0x73 EQ PUSH1 0x41 JUMPI PUSH32 0x4E487B7100000000000000000000000000000000000000000000000000000000 PUSH0 MSTORE PUSH0 PUSH1 0x4 MSTORE PUSH1 0x24 PUSH0 REVERT JUMPDEST ADDRESS PUSH0 MSTORE PUSH1 0x73 DUP2 MSTORE8 DUP3 DUP2 RETURN INVALID PUSH20 0x0 ADDRESS EQ PUSH1 0x80 PUSH1 0x40 MSTORE PUSH1 0x4 CALLDATASIZE LT PUSH2 0x3F JUMPI PUSH0 CALLDATALOAD PUSH1 0xE0 SHR DUP1 PUSH4 0x16279055 EQ PUSH2 0x43 JUMPI DUP1 PUSH4 0x7B1A4909 EQ PUSH2 0x73 JUMPI JUMPDEST PUSH0 PUSH0 REVERT JUMPDEST PUSH2 0x5D PUSH1 0x4 DUP1 CALLDATASIZE SUB DUP2 ADD SWAP1 PUSH2 0x58 SWAP2 SWAP1 PUSH2 0x261 JUMP JUMPDEST PUSH2 0x9B JUMP JUMPDEST PUSH1 0x40 MLOAD PUSH2 0x6A SWAP2 SWAP1 PUSH2 0x2A6 JUMP JUMPDEST PUSH1 0x40 MLOAD DUP1 SWAP2 SUB SWAP1 RETURN JUMPDEST DUP2 DUP1 ISZERO PUSH2 0x7E JUMPI PUSH0 PUSH0 REVERT JUMPDEST POP PUSH2 0x99 PUSH1 0x4 DUP1 CALLDATASIZE SUB DUP2 ADD SWAP1 PUSH2 0x94 SWAP2 SWAP1 PUSH2 0x2F2 JUMP JUMPDEST PUSH2 0xAC JUMP JUMPDEST STOP JUMPDEST PUSH0 PUSH0 DUP3 EXTCODESIZE SWAP1 POP PUSH0 DUP2 GT SWAP2 POP POP SWAP2 SWAP1 POP JUMP JUMPDEST PUSH2 0x3E8 DUP2 LT ISZERO PUSH2 0xE8 JUMPI PUSH1 0x40 MLOAD PUSH32 0x77A5E4F000000000000000000000000000000000000000000000000000000000 DUP2 MSTORE PUSH1 0x4 ADD PUSH1 0x40 MLOAD DUP1 SWAP2 SUB SWAP1 REVERT JUMPDEST PUSH0 PUSH20 0xFFFFFFFFFFFFFFFFFFFFFFFFFFFFFFFFFFFFFFFF AND DUP3 PUSH20 0xFFFFFFFFFFFFFFFFFFFFFFFFFFFFFFFFFFFFFFFF AND SUB PUSH2 0x156 JUMPI PUSH1 0x40 MLOAD PUSH32 0x8C379A000000000000000000000000000000000000000000000000000000000 DUP2 MSTORE PUSH1 0x4 ADD PUSH2 0x14D SWAP1 PUSH2 0x38A JUMP JUMPDEST PUSH1 0x40 MLOAD DUP1 SWAP2 SUB SWAP1 REVERT JUMPDEST PUSH0 DUP3 PUSH20 0xFFFFFFFFFFFFFFFFFFFFFFFFFFFFFFFFFFFFFFFF AND DUP3 PUSH1 0x40 MLOAD PUSH2 0x17B SWAP1 PUSH2 0x3D5 JUMP JUMPDEST PUSH0 PUSH1 0x40 MLOAD DUP1 DUP4 SUB DUP2 DUP6 DUP8 GAS CALL SWAP3 POP POP POP RETURNDATASIZE DUP1 PUSH0 DUP2 EQ PUSH2 0x1B5 JUMPI PUSH1 0x40 MLOAD SWAP2 POP PUSH1 0x1F NOT PUSH1 0x3F RETURNDATASIZE ADD AND DUP3 ADD PUSH1 0x40 MSTORE RETURNDATASIZE DUP3 MSTORE RETURNDATASIZE PUSH0 PUSH1 0x20 DUP5 ADD RETURNDATACOPY PUSH2 0x1BA JUMP JUMPDEST PUSH1 0x60 SWAP2 POP JUMPDEST POP POP SWAP1 POP DUP1 PUSH2 0x1FE JUMPI PUSH1 0x40 MLOAD PUSH32 0x8C379A000000000000000000000000000000000000000000000000000000000 DUP2 MSTORE PUSH1 0x4 ADD PUSH2 0x1F5 SWAP1 PUSH2 0x433 JUMP JUMPDEST PUSH1 0x40 MLOAD DUP1 SWAP2 SUB SWAP1 REVERT JUMPDEST POP POP POP JUMP JUMPDEST PUSH0 PUSH0 REVERT JUMPDEST PUSH0 PUSH20 0xFFFFFFFFFFFFFFFFFFFFFFFFFFFFFFFFFFFFFFFF DUP3 AND SWAP1 POP SWAP2 SWAP1 POP JUMP JUMPDEST PUSH0 PUSH2 0x230 DUP3 PUSH2 0x207 JUMP JUMPDEST SWAP1 POP SWAP2 SWAP1 POP JUMP JUMPDEST PUSH2 0x240 DUP2 PUSH2 0x226 JUMP JUMPDEST DUP2 EQ PUSH2 0x24A JUMPI PUSH0 PUSH0 REVERT JUMPDEST POP JUMP JUMPDEST PUSH0 DUP2 CALLDATALOAD SWAP1 POP PUSH2 0x25B DUP2 PUSH2 0x237 JUMP JUMPDEST SWAP3 SWAP2 POP POP JUMP JUMPDEST PUSH0 PUSH1 0x20 DUP3 DUP5 SUB SLT ISZERO PUSH2 0x276 JUMPI PUSH2 0x275 PUSH2 0x203 JUMP JUMPDEST JUMPDEST PUSH0 PUSH2 0x283 DUP5 DUP3 DUP6 ADD PUSH2 0x24D JUMP JUMPDEST SWAP2 POP POP SWAP3 SWAP2 POP POP JUMP JUMPDEST PUSH0 DUP2 ISZERO ISZERO SWAP1 POP SWAP2 SWAP1 POP JUMP JUMPDEST PUSH2 0x2A0 DUP2 PUSH2 0x28C JUMP JUMPDEST DUP3 MSTORE POP POP JUMP JUMPDEST PUSH0 PUSH1 0x20 DUP3 ADD SWAP1 POP PUSH2 0x2B9 PUSH0 DUP4 ADD DUP5 PUSH2 0x297 JUMP JUMPDEST SWAP3 SWAP2 POP POP JUMP JUMPDEST PUSH0 DUP2 SWAP1 POP SWAP2 SWAP1 POP JUMP JUMPDEST PUSH2 0x2D1 DUP2 PUSH2 0x2BF JUMP JUMPDEST DUP2 EQ PUSH2 0x2DB JUMPI PUSH0 PUSH0 REVERT JUMPDEST POP JUMP JUMPDEST PUSH0 DUP2 CALLDATALOAD SWAP1 POP PUSH2 0x2EC DUP2 PUSH2 0x2C8 JUMP JUMPDEST SWAP3 SWAP2 POP POP JUMP JUMPDEST PUSH0 PUSH0 PUSH1 0x40 DUP4 DUP6 SUB SLT ISZERO PUSH2 0x308 JUMPI PUSH2 0x307 PUSH2 0x203 JUMP JUMPDEST JUMPDEST PUSH0 PUSH2 0x315 DUP6 DUP3 DUP7 ADD PUSH2 0x24D JUMP JUMPDEST SWAP3 POP POP PUSH1 0x20 PUSH2 0x326 DUP6 DUP3 DUP7 ADD PUSH2 0x2DE JUMP JUMPDEST SWAP2 POP POP SWAP3 POP SWAP3 SWAP1 POP JUMP JUMPDEST PUSH0 DUP3 DUP3 MSTORE PUSH1 0x20 DUP3 ADD SWAP1 POP SWAP3 SWAP2 POP POP JUMP JUMPDEST PUSH32 0x496E76616C696420746172676574206164647265737300000000000000000000 PUSH0 DUP3 ADD MSTORE POP JUMP JUMPDEST PUSH0 PUSH2 0x374 PUSH1 0x16 DUP4 PUSH2 0x330 JUMP JUMPDEST SWAP2 POP PUSH2 0x37F DUP3 PUSH2 0x340 JUMP JUMPDEST PUSH1 0x20 DUP3 ADD SWAP1 POP SWAP2 SWAP1 POP JUMP JUMPDEST PUSH0 PUSH1 0x20 DUP3 ADD SWAP1 POP DUP2 DUP2 SUB PUSH0 DUP4 ADD MSTORE PUSH2 0x3A1 DUP2 PUSH2 0x368 JUMP JUMPDEST SWAP1 POP SWAP2 SWAP1 POP JUMP JUMPDEST PUSH0 DUP2 SWAP1 POP SWAP3 SWAP2 POP POP JUMP JUMPDEST POP JUMP JUMPDEST PUSH0 PUSH2 0x3C0 PUSH0 DUP4 PUSH2 0x3A8 JUMP JUMPDEST SWAP2 POP PUSH2 0x3CB DUP3 PUSH2 0x3B2 JUMP JUMPDEST PUSH0 DUP3 ADD SWAP1 POP SWAP2 SWAP1 POP JUMP JUMPDEST PUSH0 PUSH2 0x3DF DUP3 PUSH2 0x3B5 JUMP JUMPDEST SWAP2 POP DUP2 SWAP1 POP SWAP2 SWAP1 POP JUMP JUMPDEST PUSH32 0x5472616E666572206661696C6564210000000000000000000000000000000000 PUSH0 DUP3 ADD MSTORE POP JUMP JUMPDEST PUSH0 PUSH2 0x41D PUSH1 0xF DUP4 PUSH2 0x330 JUMP JUMPDEST SWAP2 POP PUSH2 0x428 DUP3 PUSH2 0x3E9 JUMP JUMPDEST PUSH1 0x20 DUP3 ADD SWAP1 POP SWAP2 SWAP1 POP JUMP JUMPDEST PUSH0 PUSH1 0x20 DUP3 ADD SWAP1 POP DUP2 DUP2 SUB PUSH0 DUP4 ADD MSTORE PUSH2 0x44A DUP2 PUSH2 0x411 JUMP JUMPDEST SWAP1 POP SWAP2 SWAP1 POP JUMP INVALID LOG2 PUSH5 0x6970667358 0x22 SLT KECCAK256 EQ PUSH3 0x889495 0xCC PUSH27 0x236E73C3DB913B904EFB9FE4C4B5BDE8F5C01E01D0D97B22D66473 PUSH16 0x6C634300081C00330000000000000000 "
				},
				"gasEstimates": {
					"creation": {
						"codeDepositCost": "231800",
						"executionCost": "298",
						"totalCost": "232098"
					},
					"external": {
						"isContract(address)": "3226",
						"transferETH(address,uint256)": "infinite"
					}
				},
				"methodIdentifiers": {
					"isContract(address)": "16279055",
					"transferETH(address,uint256)": "7b1a4909"
				}
			},
			"storageLayout": {
				"storage": [],
				"types": null
			},
			"userdoc": {
				"kind": "user",
				"methods": {},
				"version": 1
			}
		}
	}
}