{
	"data": {
		"bytecode": {
			"linkReferences": {},
			"object": "6080604052348015600e575f80fd5b506106bc8061001c5f395ff3fe608060405234801561000f575f80fd5b5060043610610029575f3560e01c8063a68cbb231461002d575b5f80fd5b610047600480360381019061004291906101ad565b61005d565b60405161005491906101fa565b60405180910390f35b5f808303610097576040517f96ed7e8500000000000000000000000000000000000000000000000000000000815260040160405180910390fd5b600a8260ff1611156100d5576040517fd29df2dd00000000000000000000000000000000000000000000000000000000815260040160405180910390fd5b5f670de0b6b3a7640000846100ea9190610240565b905060088360ff161015610101578091505061012d565b5f60405161010e90610133565b604051809103905ff080158015610127573d5f803e3d5ffd5b50905050505b92915050565b6104058061028283390190565b5f80fd5b5f819050919050565b61015681610144565b8114610160575f80fd5b50565b5f813590506101718161014d565b92915050565b5f60ff82169050919050565b61018c81610177565b8114610196575f80fd5b50565b5f813590506101a781610183565b92915050565b5f80604083850312156101c3576101c2610140565b5b5f6101d085828601610163565b92505060206101e185828601610199565b9150509250929050565b6101f481610144565b82525050565b5f60208201905061020d5f8301846101eb565b92915050565b7f4e487b71000000000000000000000000000000000000000000000000000000005f52601160045260245ffd5b5f61024a82610144565b915061025583610144565b925082820261026381610144565b9150828204841483151761027a57610279610213565b5b509291505056fe6080604052348015600e575f80fd5b506103e98061001c5f395ff3fe608060405234801561000f575f80fd5b5060043610610034575f3560e01c80631b415fed1461003857806384867cff14610068575b5f80fd5b610052600480360381019061004d919061023d565b610098565b60405161005f919061029c565b60405180910390f35b610082600480360381019061007d919061023d565b6101bb565b60405161008f919061029c565b60405180910390f35b5f8084036100d2576040517f3d62b58b00000000000000000000000000000000000000000000000000000000815260040160405180910390fd5b60018260ff161015610110576040517fcfabd48300000000000000000000000000000000000000000000000000000000815260040160405180910390fd5b60018360ff16101561014e576040517fd2693ab000000000000000000000000000000000000000000000000000000000815260040160405180910390fd5b5f670de0b6b3a76400008561016391906102e2565b90505f5b8360ff168160ff1610156101af575f60648660ff168461018791906102e2565b6101919190610350565b9050808361019f9190610380565b9250508080600101915050610167565b50809150509392505050565b5f6101c7848484610098565b90509392505050565b5f80fd5b5f819050919050565b6101e6816101d4565b81146101f0575f80fd5b50565b5f81359050610201816101dd565b92915050565b5f60ff82169050919050565b61021c81610207565b8114610226575f80fd5b50565b5f8135905061023781610213565b92915050565b5f805f60608486031215610254576102536101d0565b5b5f610261868287016101f3565b935050602061027286828701610229565b925050604061028386828701610229565b9150509250925092565b610296816101d4565b82525050565b5f6020820190506102af5f83018461028d565b92915050565b7f4e487b71000000000000000000000000000000000000000000000000000000005f52601160045260245ffd5b5f6102ec826101d4565b91506102f7836101d4565b9250828202610305816101d4565b9150828204841483151761031c5761031b6102b5565b5b5092915050565b7f4e487b71000000000000000000000000000000000000000000000000000000005f52601260045260245ffd5b5f61035a826101d4565b9150610365836101d4565b92508261037557610374610323565b5b828204905092915050565b5f61038a826101d4565b9150610395836101d4565b92508282019050808211156103ad576103ac6102b5565b5b9291505056fea26469706673582212203bfaf19e968f0623c8c993358b02541498353bbaa217aa11d75ea99f5fc6084764736f6c634300081a0033a264697066735822122017f1a407e48d5c471373b77ad4faaf1d5107ce7ce45b26e4f4461aa315a6e06c64736f6c634300081a0033",
			"opcodes": "PUSH1 0x80 PUSH1 0x40 MSTORE CALLVALUE DUP1 ISZERO PUSH1 0xE JUMPI PUSH0 DUP1 REVERT JUMPDEST POP PUSH2 0x6BC DUP1 PUSH2 0x1C PUSH0 CODECOPY PUSH0 RETURN INVALID PUSH1 0x80 PUSH1 0x40 MSTORE CALLVALUE DUP1 ISZERO PUSH2 0xF JUMPI PUSH0 DUP1 REVERT JUMPDEST POP PUSH1 0x4 CALLDATASIZE LT PUSH2 0x29 JUMPI PUSH0 CALLDATALOAD PUSH1 0xE0 SHR DUP1 PUSH4 0xA68CBB23 EQ PUSH2 0x2D JUMPI JUMPDEST PUSH0 DUP1 REVERT JUMPDEST PUSH2 0x47 PUSH1 0x4 DUP1 CALLDATASIZE SUB DUP2 ADD SWAP1 PUSH2 0x42 SWAP2 SWAP1 PUSH2 0x1AD JUMP JUMPDEST PUSH2 0x5D JUMP JUMPDEST PUSH1 0x40 MLOAD PUSH2 0x54 SWAP2 SWAP1 PUSH2 0x1FA JUMP JUMPDEST PUSH1 0x40 MLOAD DUP1 SWAP2 SUB SWAP1 RETURN JUMPDEST PUSH0 DUP1 DUP4 SUB PUSH2 0x97 JUMPI PUSH1 0x40 MLOAD PUSH32 0x96ED7E8500000000000000000000000000000000000000000000000000000000 DUP2 MSTORE PUSH1 0x4 ADD PUSH1 0x40 MLOAD DUP1 SWAP2 SUB SWAP1 REVERT JUMPDEST PUSH1 0xA DUP3 PUSH1 0xFF AND GT ISZERO PUSH2 0xD5 JUMPI PUSH1 0x40 MLOAD PUSH32 0xD29DF2DD00000000000000000000000000000000000000000000000000000000 DUP2 MSTORE PUSH1 0x4 ADD PUSH1 0x40 MLOAD DUP1 SWAP2 SUB SWAP1 REVERT JUMPDEST PUSH0 PUSH8 0xDE0B6B3A7640000 DUP5 PUSH2 0xEA SWAP2 SWAP1 PUSH2 0x240 JUMP JUMPDEST SWAP1 POP PUSH1 0x8 DUP4 PUSH1 0xFF AND LT ISZERO PUSH2 0x101 JUMPI DUP1 SWAP2 POP POP PUSH2 0x12D JUMP JUMPDEST PUSH0 PUSH1 0x40 MLOAD PUSH2 0x10E SWAP1 PUSH2 0x133 JUMP JUMPDEST PUSH1 0x40 MLOAD DUP1 SWAP2 SUB SWAP1 PUSH0 CREATE DUP1 ISZERO DUP1 ISZERO PUSH2 0x127 JUMPI RETURNDATASIZE PUSH0 DUP1 RETURNDATACOPY RETURNDATASIZE PUSH0 REVERT JUMPDEST POP SWAP1 POP POP POP JUMPDEST SWAP3 SWAP2 POP POP JUMP JUMPDEST PUSH2 0x405 DUP1 PUSH2 0x282 DUP4 CODECOPY ADD SWAP1 JUMP JUMPDEST PUSH0 DUP1 REVERT JUMPDEST PUSH0 DUP2 SWAP1 POP SWAP2 SWAP1 POP JUMP JUMPDEST PUSH2 0x156 DUP2 PUSH2 0x144 JUMP JUMPDEST DUP2 EQ PUSH2 0x160 JUMPI PUSH0 DUP1 REVERT JUMPDEST POP JUMP JUMPDEST PUSH0 DUP2 CALLDATALOAD SWAP1 POP PUSH2 0x171 DUP2 PUSH2 0x14D JUMP JUMPDEST SWAP3 SWAP2 POP POP JUMP JUMPDEST PUSH0 PUSH1 0xFF DUP3 AND SWAP1 POP SWAP2 SWAP1 POP JUMP JUMPDEST PUSH2 0x18C DUP2 PUSH2 0x177 JUMP JUMPDEST DUP2 EQ PUSH2 0x196 JUMPI PUSH0 DUP1 REVERT JUMPDEST POP JUMP JUMPDEST PUSH0 DUP2 CALLDATALOAD SWAP1 POP PUSH2 0x1A7 DUP2 PUSH2 0x183 JUMP JUMPDEST SWAP3 SWAP2 POP POP JUMP JUMPDEST PUSH0 DUP1 PUSH1 0x40 DUP4 DUP6 SUB SLT ISZERO PUSH2 0x1C3 JUMPI PUSH2 0x1C2 PUSH2 0x140 JUMP JUMPDEST JUMPDEST PUSH0 PUSH2 0x1D0 DUP6 DUP3 DUP7 ADD PUSH2 0x163 JUMP JUMPDEST SWAP3 POP POP PUSH1 0x20 PUSH2 0x1E1 DUP6 DUP3 DUP7 ADD PUSH2 0x199 JUMP JUMPDEST SWAP2 POP POP SWAP3 POP SWAP3 SWAP1 POP JUMP JUMPDEST PUSH2 0x1F4 DUP2 PUSH2 0x144 JUMP JUMPDEST DUP3 MSTORE POP POP JUMP JUMPDEST PUSH0 PUSH1 0x20 DUP3 ADD SWAP1 POP PUSH2 0x20D PUSH0 DUP4 ADD DUP5 PUSH2 0x1EB JUMP JUMPDEST SWAP3 SWAP2 POP POP JUMP JUMPDEST PUSH32 0x4E487B7100000000000000000000000000000000000000000000000000000000 PUSH0 MSTORE PUSH1 0x11 PUSH1 0x4 MSTORE PUSH1 0x24 PUSH0 REVERT JUMPDEST PUSH0 PUSH2 0x24A DUP3 PUSH2 0x144 JUMP JUMPDEST SWAP2 POP PUSH2 0x255 DUP4 PUSH2 0x144 JUMP JUMPDEST SWAP3 POP DUP3 DUP3 MUL PUSH2 0x263 DUP2 PUSH2 0x144 JUMP JUMPDEST SWAP2 POP DUP3 DUP3 DIV DUP5 EQ DUP4 ISZERO OR PUSH2 0x27A JUMPI PUSH2 0x279 PUSH2 0x213 JUMP JUMPDEST JUMPDEST POP SWAP3 SWAP2 POP POP JUMP INVALID PUSH1 0x80 PUSH1 0x40 MSTORE CALLVALUE DUP1 ISZERO PUSH1 0xE JUMPI PUSH0 DUP1 REVERT JUMPDEST POP PUSH2 0x3E9 DUP1 PUSH2 0x1C PUSH0 CODECOPY PUSH0 RETURN INVALID PUSH1 0x80 PUSH1 0x40 MSTORE CALLVALUE DUP1 ISZERO PUSH2 0xF JUMPI PUSH0 DUP1 REVERT JUMPDEST POP PUSH1 0x4 CALLDATASIZE LT PUSH2 0x34 JUMPI PUSH0 CALLDATALOAD PUSH1 0xE0 SHR DUP1 PUSH4 0x1B415FED EQ PUSH2 0x38 JUMPI DUP1 PUSH4 0x84867CFF EQ PUSH2 0x68 JUMPI JUMPDEST PUSH0 DUP1 REVERT JUMPDEST PUSH2 0x52 PUSH1 0x4 DUP1 CALLDATASIZE SUB DUP2 ADD SWAP1 PUSH2 0x4D SWAP2 SWAP1 PUSH2 0x23D JUMP JUMPDEST PUSH2 0x98 JUMP JUMPDEST PUSH1 0x40 MLOAD PUSH2 0x5F SWAP2 SWAP1 PUSH2 0x29C JUMP JUMPDEST PUSH1 0x40 MLOAD DUP1 SWAP2 SUB SWAP1 RETURN JUMPDEST PUSH2 0x82 PUSH1 0x4 DUP1 CALLDATASIZE SUB DUP2 ADD SWAP1 PUSH2 0x7D SWAP2 SWAP1 PUSH2 0x23D JUMP JUMPDEST PUSH2 0x1BB JUMP JUMPDEST PUSH1 0x40 MLOAD PUSH2 0x8F SWAP2 SWAP1 PUSH2 0x29C JUMP JUMPDEST PUSH1 0x40 MLOAD DUP1 SWAP2 SUB SWAP1 RETURN JUMPDEST PUSH0 DUP1 DUP5 SUB PUSH2 0xD2 JUMPI PUSH1 0x40 MLOAD PUSH32 0x3D62B58B00000000000000000000000000000000000000000000000000000000 DUP2 MSTORE PUSH1 0x4 ADD PUSH1 0x40 MLOAD DUP1 SWAP2 SUB SWAP1 REVERT JUMPDEST PUSH1 0x1 DUP3 PUSH1 0xFF AND LT ISZERO PUSH2 0x110 JUMPI PUSH1 0x40 MLOAD PUSH32 0xCFABD48300000000000000000000000000000000000000000000000000000000 DUP2 MSTORE PUSH1 0x4 ADD PUSH1 0x40 MLOAD DUP1 SWAP2 SUB SWAP1 REVERT JUMPDEST PUSH1 0x1 DUP4 PUSH1 0xFF AND LT ISZERO PUSH2 0x14E JUMPI PUSH1 0x40 MLOAD PUSH32 0xD2693AB000000000000000000000000000000000000000000000000000000000 DUP2 MSTORE PUSH1 0x4 ADD PUSH1 0x40 MLOAD DUP1 SWAP2 SUB SWAP1 REVERT JUMPDEST PUSH0 PUSH8 0xDE0B6B3A7640000 DUP6 PUSH2 0x163 SWAP2 SWAP1 PUSH2 0x2E2 JUMP JUMPDEST SWAP1 POP PUSH0 JUMPDEST DUP4 PUSH1 0xFF AND DUP2 PUSH1 0xFF AND LT ISZERO PUSH2 0x1AF JUMPI PUSH0 PUSH1 0x64 DUP7 PUSH1 0xFF AND DUP5 PUSH2 0x187 SWAP2 SWAP1 PUSH2 0x2E2 JUMP JUMPDEST PUSH2 0x191 SWAP2 SWAP1 PUSH2 0x350 JUMP JUMPDEST SWAP1 POP DUP1 DUP4 PUSH2 0x19F SWAP2 SWAP1 PUSH2 0x380 JUMP JUMPDEST SWAP3 POP POP DUP1 DUP1 PUSH1 0x1 ADD SWAP2 POP POP PUSH2 0x167 JUMP JUMPDEST POP DUP1 SWAP2 POP POP SWAP4 SWAP3 POP POP POP JUMP JUMPDEST PUSH0 PUSH2 0x1C7 DUP5 DUP5 DUP5 PUSH2 0x98 JUMP JUMPDEST SWAP1 POP SWAP4 SWAP3 POP POP POP JUMP JUMPDEST PUSH0 DUP1 REVERT JUMPDEST PUSH0 DUP2 SWAP1 POP SWAP2 SWAP1 POP JUMP JUMPDEST PUSH2 0x1E6 DUP2 PUSH2 0x1D4 JUMP JUMPDEST DUP2 EQ PUSH2 0x1F0 JUMPI PUSH0 DUP1 REVERT JUMPDEST POP JUMP JUMPDEST PUSH0 DUP2 CALLDATALOAD SWAP1 POP PUSH2 0x201 DUP2 PUSH2 0x1DD JUMP JUMPDEST SWAP3 SWAP2 POP POP JUMP JUMPDEST PUSH0 PUSH1 0xFF DUP3 AND SWAP1 POP SWAP2 SWAP1 POP JUMP JUMPDEST PUSH2 0x21C DUP2 PUSH2 0x207 JUMP JUMPDEST DUP2 EQ PUSH2 0x226 JUMPI PUSH0 DUP1 REVERT JUMPDEST POP JUMP JUMPDEST PUSH0 DUP2 CALLDATALOAD SWAP1 POP PUSH2 0x237 DUP2 PUSH2 0x213 JUMP JUMPDEST SWAP3 SWAP2 POP POP JUMP JUMPDEST PUSH0 DUP1 PUSH0 PUSH1 0x60 DUP5 DUP7 SUB SLT ISZERO PUSH2 0x254 JUMPI PUSH2 0x253 PUSH2 0x1D0 JUMP JUMPDEST JUMPDEST PUSH0 PUSH2 0x261 DUP7 DUP3 DUP8 ADD PUSH2 0x1F3 JUMP JUMPDEST SWAP4 POP POP PUSH1 0x20 PUSH2 0x272 DUP7 DUP3 DUP8 ADD PUSH2 0x229 JUMP JUMPDEST SWAP3 POP POP PUSH1 0x40 PUSH2 0x283 DUP7 DUP3 DUP8 ADD PUSH2 0x229 JUMP JUMPDEST SWAP2 POP POP SWAP3 POP SWAP3 POP SWAP3 JUMP JUMPDEST PUSH2 0x296 DUP2 PUSH2 0x1D4 JUMP JUMPDEST DUP3 MSTORE POP POP JUMP JUMPDEST PUSH0 PUSH1 0x20 DUP3 ADD SWAP1 POP PUSH2 0x2AF PUSH0 DUP4 ADD DUP5 PUSH2 0x28D JUMP JUMPDEST SWAP3 SWAP2 POP POP JUMP JUMPDEST PUSH32 0x4E487B7100000000000000000000000000000000000000000000000000000000 PUSH0 MSTORE PUSH1 0x11 PUSH1 0x4 MSTORE PUSH1 0x24 PUSH0 REVERT JUMPDEST PUSH0 PUSH2 0x2EC DUP3 PUSH2 0x1D4 JUMP JUMPDEST SWAP2 POP PUSH2 0x2F7 DUP4 PUSH2 0x1D4 JUMP JUMPDEST SWAP3 POP DUP3 DUP3 MUL PUSH2 0x305 DUP2 PUSH2 0x1D4 JUMP JUMPDEST SWAP2 POP DUP3 DUP3 DIV DUP5 EQ DUP4 ISZERO OR PUSH2 0x31C JUMPI PUSH2 0x31B PUSH2 0x2B5 JUMP JUMPDEST JUMPDEST POP SWAP3 SWAP2 POP POP JUMP JUMPDEST PUSH32 0x4E487B7100000000000000000000000000000000000000000000000000000000 PUSH0 MSTORE PUSH1 0x12 PUSH1 0x4 MSTORE PUSH1 0x24 PUSH0 REVERT JUMPDEST PUSH0 PUSH2 0x35A DUP3 PUSH2 0x1D4 JUMP JUMPDEST SWAP2 POP PUSH2 0x365 DUP4 PUSH2 0x1D4 JUMP JUMPDEST SWAP3 POP DUP3 PUSH2 0x375 JUMPI PUSH2 0x374 PUSH2 0x323 JUMP JUMPDEST JUMPDEST DUP3 DUP3 DIV SWAP1 POP SWAP3 SWAP2 POP POP JUMP JUMPDEST PUSH0 PUSH2 0x38A DUP3 PUSH2 0x1D4 JUMP JUMPDEST SWAP2 POP PUSH2 0x395 DUP4 PUSH2 0x1D4 JUMP JUMPDEST SWAP3 POP DUP3 DUP3 ADD SWAP1 POP DUP1 DUP3 GT ISZERO PUSH2 0x3AD JUMPI PUSH2 0x3AC PUSH2 0x2B5 JUMP JUMPDEST JUMPDEST SWAP3 SWAP2 POP POP JUMP INVALID LOG2 PUSH5 0x6970667358 0x22 SLT KECCAK256 EXTCODESIZE STATICCALL CALL SWAP15 SWAP7 DUP16 MOD 0x23 0xC8 0xC9 SWAP4 CALLDATALOAD DUP12 MUL SLOAD EQ SWAP9 CALLDATALOAD EXTCODESIZE 0xBA LOG2 OR 0xAA GT 0xD7 MCOPY 0xA9 SWAP16 PUSH0 0xC6 ADDMOD SELFBALANCE PUSH5 0x736F6C6343 STOP ADDMOD BYTE STOP CALLER LOG2 PUSH5 0x6970667358 0x22 SLT KECCAK256 OR CALL LOG4 SMOD 0xE4 DUP14 TLOAD SELFBALANCE SGT PUSH20 0xB77AD4FAAF1D5107CE7CE45B26E4F4461AA315A6 0xE0 PUSH13 0x64736F6C634300081A00330000 "
		},
		"gasEstimates": {
			"creation": {
				"codeDepositCost": "344800",
				"executionCost": "378",
				"totalCost": "345178"
			},
			"external": {
				"calculatePaycheck(uint256,uint8)": "infinite"
			}
		},
		"methodIdentifiers": {
			"calculatePaycheck(uint256,uint8)": "a68cbb23"
		}
	},
	"abi": [
		{
			"inputs": [],
			"name": "InvalidRating",
			"type": "error"
		},
		{
			"inputs": [],
			"name": "InvalidSalaryAmount",
			"type": "error"
		},
		{
			"inputs": [
				{
					"internalType": "uint256",
					"name": "salary",
					"type": "uint256"
				},
				{
					"internalType": "uint8",
					"name": "rating",
					"type": "uint8"
				}
			],
			"name": "calculatePaycheck",
			"outputs": [
				{
					"internalType": "uint256",
					"name": "",
					"type": "uint256"
				}
			],
			"stateMutability": "nonpayable",
			"type": "function"
		}
	]
}