{
	"Assignments/Lecture 6/AssetFactory.sol": {
		"AssetFactory": {
			"abi": [
				{
					"inputs": [],
					"name": "AssetNotFound",
					"type": "error"
				},
				{
					"inputs": [],
					"name": "DuplicateAsset",
					"type": "error"
				},
				{
					"inputs": [],
					"name": "IncorrectAmount",
					"type": "error"
				},
				{
					"inputs": [],
					"name": "InvalidAddress",
					"type": "error"
				},
				{
					"inputs": [
						{
							"internalType": "string",
							"name": "",
							"type": "string"
						}
					],
					"name": "assets",
					"outputs": [
						{
							"internalType": "address",
							"name": "",
							"type": "address"
						}
					],
					"stateMutability": "view",
					"type": "function"
				},
				{
					"inputs": [
						{
							"internalType": "string",
							"name": "ticker",
							"type": "string"
						}
					],
					"name": "balanceFor",
					"outputs": [
						{
							"internalType": "uint256",
							"name": "",
							"type": "uint256"
						}
					],
					"stateMutability": "view",
					"type": "function"
				},
				{
					"inputs": [
						{
							"internalType": "string",
							"name": "name",
							"type": "string"
						},
						{
							"internalType": "string",
							"name": "ticker",
							"type": "string"
						},
						{
							"internalType": "uint256",
							"name": "initialSupply",
							"type": "uint256"
						}
					],
					"name": "createAsset",
					"outputs": [],
					"stateMutability": "nonpayable",
					"type": "function"
				},
				{
					"inputs": [
						{
							"internalType": "address",
							"name": "target",
							"type": "address"
						},
						{
							"internalType": "string",
							"name": "assetTicker",
							"type": "string"
						}
					],
					"name": "send",
					"outputs": [],
					"stateMutability": "payable",
					"type": "function"
				},
				{
					"inputs": [
						{
							"internalType": "string",
							"name": "ticker",
							"type": "string"
						}
					],
					"name": "supplyFor",
					"outputs": [
						{
							"internalType": "uint256",
							"name": "",
							"type": "uint256"
						}
					],
					"stateMutability": "view",
					"type": "function"
				}
			],
			"devdoc": {
				"kind": "dev",
				"methods": {},
				"version": 1
			},
			"evm": {
				"assembly": "    /* \"Assignments/Lecture 6/AssetFactory.sol\":1148:2497  contract AssetFactory {... */\n  mstore(0x40, 0x80)\n  callvalue\n  dup1\n  iszero\n  tag_1\n  jumpi\n  0x00\n  dup1\n  revert\ntag_1:\n  pop\n  dataSize(sub_0)\n  dup1\n  dataOffset(sub_0)\n  0x00\n  codecopy\n  0x00\n  return\nstop\n\nsub_0: assembly {\n        /* \"Assignments/Lecture 6/AssetFactory.sol\":1148:2497  contract AssetFactory {... */\n      mstore(0x40, 0x80)\n      jumpi(tag_1, lt(calldatasize, 0x04))\n      shr(0xe0, calldataload(0x00))\n      dup1\n      0x1a45ca74\n      eq\n      tag_2\n      jumpi\n      dup1\n      0x85936228\n      eq\n      tag_3\n      jumpi\n      dup1\n      0x99142b5f\n      eq\n      tag_4\n      jumpi\n      dup1\n      0xefdc99c5\n      eq\n      tag_5\n      jumpi\n      dup1\n      0xf2bdc035\n      eq\n      tag_6\n      jumpi\n    tag_1:\n      0x00\n      dup1\n      revert\n        /* \"Assignments/Lecture 6/AssetFactory.sol\":1940:2208  function supplyFor(string memory ticker) public view returns (uint256) {... */\n    tag_2:\n      callvalue\n      dup1\n      iszero\n      tag_7\n      jumpi\n      0x00\n      dup1\n      revert\n    tag_7:\n      pop\n      tag_8\n      0x04\n      dup1\n      calldatasize\n      sub\n      dup2\n      add\n      swap1\n      tag_9\n      swap2\n      swap1\n      tag_10\n      jump\t// in\n    tag_9:\n      tag_11\n      jump\t// in\n    tag_8:\n      mload(0x40)\n      tag_12\n      swap2\n      swap1\n      tag_13\n      jump\t// in\n    tag_12:\n      mload(0x40)\n      dup1\n      swap2\n      sub\n      swap1\n      return\n        /* \"Assignments/Lecture 6/AssetFactory.sol\":1176:1216  mapping(string => address) public assets */\n    tag_3:\n      callvalue\n      dup1\n      iszero\n      tag_14\n      jumpi\n      0x00\n      dup1\n      revert\n    tag_14:\n      pop\n      tag_15\n      0x04\n      dup1\n      calldatasize\n      sub\n      dup2\n      add\n      swap1\n      tag_16\n      swap2\n      swap1\n      tag_10\n      jump\t// in\n    tag_16:\n      tag_17\n      jump\t// in\n    tag_15:\n      mload(0x40)\n      tag_18\n      swap2\n      swap1\n      tag_19\n      jump\t// in\n    tag_18:\n      mload(0x40)\n      dup1\n      swap2\n      sub\n      swap1\n      return\n        /* \"Assignments/Lecture 6/AssetFactory.sol\":1522:1934  function send(address target, string memory assetTicker) external payable {... */\n    tag_4:\n      tag_20\n      0x04\n      dup1\n      calldatasize\n      sub\n      dup2\n      add\n      swap1\n      tag_21\n      swap2\n      swap1\n      tag_22\n      jump\t// in\n    tag_21:\n      tag_23\n      jump\t// in\n    tag_20:\n      stop\n        /* \"Assignments/Lecture 6/AssetFactory.sol\":2214:2495  function balanceFor(string memory ticker) public view returns(uint256) {... */\n    tag_5:\n      callvalue\n      dup1\n      iszero\n      tag_24\n      jumpi\n      0x00\n      dup1\n      revert\n    tag_24:\n      pop\n      tag_25\n      0x04\n      dup1\n      calldatasize\n      sub\n      dup2\n      add\n      swap1\n      tag_26\n      swap2\n      swap1\n      tag_10\n      jump\t// in\n    tag_26:\n      tag_27\n      jump\t// in\n    tag_25:\n      mload(0x40)\n      tag_28\n      swap2\n      swap1\n      tag_13\n      jump\t// in\n    tag_28:\n      mload(0x40)\n      dup1\n      swap2\n      sub\n      swap1\n      return\n        /* \"Assignments/Lecture 6/AssetFactory.sol\":1223:1516  function createAsset(string memory name, string memory ticker, uint256 initialSupply) public {... */\n    tag_6:\n      callvalue\n      dup1\n      iszero\n      tag_29\n      jumpi\n      0x00\n      dup1\n      revert\n    tag_29:\n      pop\n      tag_30\n      0x04\n      dup1\n      calldatasize\n      sub\n      dup2\n      add\n      swap1\n      tag_31\n      swap2\n      swap1\n      tag_32\n      jump\t// in\n    tag_31:\n      tag_33\n      jump\t// in\n    tag_30:\n      stop\n        /* \"Assignments/Lecture 6/AssetFactory.sol\":1940:2208  function supplyFor(string memory ticker) public view returns (uint256) {... */\n    tag_11:\n        /* \"Assignments/Lecture 6/AssetFactory.sol\":2002:2009  uint256 */\n      0x00\n        /* \"Assignments/Lecture 6/AssetFactory.sol\":2021:2041  address assetAddress */\n      dup1\n        /* \"Assignments/Lecture 6/AssetFactory.sol\":2044:2050  assets */\n      0x00\n        /* \"Assignments/Lecture 6/AssetFactory.sol\":2051:2057  ticker */\n      dup4\n        /* \"Assignments/Lecture 6/AssetFactory.sol\":2044:2058  assets[ticker] */\n      mload(0x40)\n      tag_35\n      swap2\n      swap1\n      tag_36\n      jump\t// in\n    tag_35:\n      swap1\n      dup2\n      mstore\n      0x20\n      add\n      mload(0x40)\n      dup1\n      swap2\n      sub\n      swap1\n      keccak256\n      0x00\n      swap1\n      sload\n      swap1\n      0x0100\n      exp\n      swap1\n      div\n      0xffffffffffffffffffffffffffffffffffffffff\n      and\n        /* \"Assignments/Lecture 6/AssetFactory.sol\":2021:2058  address assetAddress = assets[ticker] */\n      swap1\n      pop\n        /* \"Assignments/Lecture 6/AssetFactory.sol\":2096:2097  0 */\n      0x00\n        /* \"Assignments/Lecture 6/AssetFactory.sol\":2072:2098  assetAddress == address(0) */\n      0xffffffffffffffffffffffffffffffffffffffff\n      and\n        /* \"Assignments/Lecture 6/AssetFactory.sol\":2072:2084  assetAddress */\n      dup2\n        /* \"Assignments/Lecture 6/AssetFactory.sol\":2072:2098  assetAddress == address(0) */\n      0xffffffffffffffffffffffffffffffffffffffff\n      and\n      sub\n        /* \"Assignments/Lecture 6/AssetFactory.sol\":2068:2127  if (assetAddress == address(0)) { revert AssetNotFound(); } */\n      tag_37\n      jumpi\n        /* \"Assignments/Lecture 6/AssetFactory.sol\":2109:2124  AssetNotFound() */\n      mload(0x40)\n      0x470cbf4700000000000000000000000000000000000000000000000000000000\n      dup2\n      mstore\n      0x04\n      add\n      mload(0x40)\n      dup1\n      swap2\n      sub\n      swap1\n      revert\n        /* \"Assignments/Lecture 6/AssetFactory.sol\":2068:2127  if (assetAddress == address(0)) { revert AssetNotFound(); } */\n    tag_37:\n        /* \"Assignments/Lecture 6/AssetFactory.sol\":2137:2148  Asset asset */\n      0x00\n        /* \"Assignments/Lecture 6/AssetFactory.sol\":2157:2169  assetAddress */\n      dup2\n        /* \"Assignments/Lecture 6/AssetFactory.sol\":2137:2170  Asset asset = Asset(assetAddress) */\n      swap1\n      pop\n        /* \"Assignments/Lecture 6/AssetFactory.sol\":2187:2192  asset */\n      dup1\n        /* \"Assignments/Lecture 6/AssetFactory.sol\":2187:2199  asset.supply */\n      0xffffffffffffffffffffffffffffffffffffffff\n      and\n      0x047fc9aa\n        /* \"Assignments/Lecture 6/AssetFactory.sol\":2187:2201  asset.supply() */\n      mload(0x40)\n      dup2\n      0xffffffff\n      and\n      0xe0\n      shl\n      dup2\n      mstore\n      0x04\n      add\n      0x20\n      mload(0x40)\n      dup1\n      dup4\n      sub\n      dup2\n      dup7\n      gas\n      staticcall\n      iszero\n      dup1\n      iszero\n      tag_39\n      jumpi\n      returndatasize\n      0x00\n      dup1\n      returndatacopy\n      revert(0x00, returndatasize)\n    tag_39:\n      pop\n      pop\n      pop\n      pop\n      mload(0x40)\n      returndatasize\n      not(0x1f)\n      0x1f\n      dup3\n      add\n      and\n      dup3\n      add\n      dup1\n      0x40\n      mstore\n      pop\n      dup2\n      add\n      swap1\n      tag_40\n      swap2\n      swap1\n      tag_41\n      jump\t// in\n    tag_40:\n        /* \"Assignments/Lecture 6/AssetFactory.sol\":2180:2201  return asset.supply() */\n      swap3\n      pop\n      pop\n      pop\n        /* \"Assignments/Lecture 6/AssetFactory.sol\":1940:2208  function supplyFor(string memory ticker) public view returns (uint256) {... */\n      swap2\n      swap1\n      pop\n      jump\t// out\n        /* \"Assignments/Lecture 6/AssetFactory.sol\":1176:1216  mapping(string => address) public assets */\n    tag_17:\n      0x00\n      dup2\n      dup1\n      mload\n      0x20\n      dup2\n      add\n      dup3\n      add\n      dup1\n      mload\n      dup5\n      dup3\n      mstore\n      0x20\n      dup4\n      add\n      0x20\n      dup6\n      add\n      keccak256\n      dup2\n      dup4\n      mstore\n      dup1\n      swap6\n      pop\n      pop\n      pop\n      pop\n      pop\n      pop\n      0x00\n      swap2\n      pop\n      sload\n      swap1\n      0x0100\n      exp\n      swap1\n      div\n      0xffffffffffffffffffffffffffffffffffffffff\n      and\n      dup2\n      jump\t// out\n        /* \"Assignments/Lecture 6/AssetFactory.sol\":1522:1934  function send(address target, string memory assetTicker) external payable {... */\n    tag_23:\n        /* \"Assignments/Lecture 6/AssetFactory.sol\":1628:1629  0 */\n      0x00\n        /* \"Assignments/Lecture 6/AssetFactory.sol\":1610:1630  target == address(0) */\n      0xffffffffffffffffffffffffffffffffffffffff\n      and\n        /* \"Assignments/Lecture 6/AssetFactory.sol\":1610:1616  target */\n      dup3\n        /* \"Assignments/Lecture 6/AssetFactory.sol\":1610:1630  target == address(0) */\n      0xffffffffffffffffffffffffffffffffffffffff\n      and\n      sub\n        /* \"Assignments/Lecture 6/AssetFactory.sol\":1606:1660  if (target == address(0)) { revert InvalidAddress(); } */\n      tag_43\n      jumpi\n        /* \"Assignments/Lecture 6/AssetFactory.sol\":1641:1657  InvalidAddress() */\n      mload(0x40)\n      0xe6c4247b00000000000000000000000000000000000000000000000000000000\n      dup2\n      mstore\n      0x04\n      add\n      mload(0x40)\n      dup1\n      swap2\n      sub\n      swap1\n      revert\n        /* \"Assignments/Lecture 6/AssetFactory.sol\":1606:1660  if (target == address(0)) { revert InvalidAddress(); } */\n    tag_43:\n        /* \"Assignments/Lecture 6/AssetFactory.sol\":1686:1687  0 */\n      0x00\n        /* \"Assignments/Lecture 6/AssetFactory.sol\":1673:1682  msg.value */\n      callvalue\n        /* \"Assignments/Lecture 6/AssetFactory.sol\":1673:1687  msg.value == 0 */\n      sub\n        /* \"Assignments/Lecture 6/AssetFactory.sol\":1669:1718  if (msg.value == 0) { revert IncorrectAmount(); } */\n      tag_44\n      jumpi\n        /* \"Assignments/Lecture 6/AssetFactory.sol\":1698:1715  IncorrectAmount() */\n      mload(0x40)\n      0x69640e7200000000000000000000000000000000000000000000000000000000\n      dup2\n      mstore\n      0x04\n      add\n      mload(0x40)\n      dup1\n      swap2\n      sub\n      swap1\n      revert\n        /* \"Assignments/Lecture 6/AssetFactory.sol\":1669:1718  if (msg.value == 0) { revert IncorrectAmount(); } */\n    tag_44:\n        /* \"Assignments/Lecture 6/AssetFactory.sol\":1728:1748  address assetAddress */\n      0x00\n        /* \"Assignments/Lecture 6/AssetFactory.sol\":1751:1757  assets */\n      dup1\n        /* \"Assignments/Lecture 6/AssetFactory.sol\":1758:1769  assetTicker */\n      dup3\n        /* \"Assignments/Lecture 6/AssetFactory.sol\":1751:1770  assets[assetTicker] */\n      mload(0x40)\n      tag_45\n      swap2\n      swap1\n      tag_36\n      jump\t// in\n    tag_45:\n      swap1\n      dup2\n      mstore\n      0x20\n      add\n      mload(0x40)\n      dup1\n      swap2\n      sub\n      swap1\n      keccak256\n      0x00\n      swap1\n      sload\n      swap1\n      0x0100\n      exp\n      swap1\n      div\n      0xffffffffffffffffffffffffffffffffffffffff\n      and\n        /* \"Assignments/Lecture 6/AssetFactory.sol\":1728:1770  address assetAddress = assets[assetTicker] */\n      swap1\n      pop\n        /* \"Assignments/Lecture 6/AssetFactory.sol\":1808:1809  0 */\n      0x00\n        /* \"Assignments/Lecture 6/AssetFactory.sol\":1784:1810  assetAddress == address(0) */\n      0xffffffffffffffffffffffffffffffffffffffff\n      and\n        /* \"Assignments/Lecture 6/AssetFactory.sol\":1784:1796  assetAddress */\n      dup2\n        /* \"Assignments/Lecture 6/AssetFactory.sol\":1784:1810  assetAddress == address(0) */\n      0xffffffffffffffffffffffffffffffffffffffff\n      and\n      sub\n        /* \"Assignments/Lecture 6/AssetFactory.sol\":1780:1839  if (assetAddress == address(0)) { revert AssetNotFound(); } */\n      tag_46\n      jumpi\n        /* \"Assignments/Lecture 6/AssetFactory.sol\":1821:1836  AssetNotFound() */\n      mload(0x40)\n      0x470cbf4700000000000000000000000000000000000000000000000000000000\n      dup2\n      mstore\n      0x04\n      add\n      mload(0x40)\n      dup1\n      swap2\n      sub\n      swap1\n      revert\n        /* \"Assignments/Lecture 6/AssetFactory.sol\":1780:1839  if (assetAddress == address(0)) { revert AssetNotFound(); } */\n    tag_46:\n        /* \"Assignments/Lecture 6/AssetFactory.sol\":1849:1860  Asset asset */\n      0x00\n        /* \"Assignments/Lecture 6/AssetFactory.sol\":1869:1881  assetAddress */\n      dup2\n        /* \"Assignments/Lecture 6/AssetFactory.sol\":1849:1882  Asset asset = Asset(assetAddress) */\n      swap1\n      pop\n        /* \"Assignments/Lecture 6/AssetFactory.sol\":1892:1897  asset */\n      dup1\n        /* \"Assignments/Lecture 6/AssetFactory.sol\":1892:1908  asset.transferTo */\n      0xffffffffffffffffffffffffffffffffffffffff\n      and\n      0x2ccb1b30\n        /* \"Assignments/Lecture 6/AssetFactory.sol\":1909:1915  target */\n      dup6\n        /* \"Assignments/Lecture 6/AssetFactory.sol\":1917:1926  msg.value */\n      callvalue\n        /* \"Assignments/Lecture 6/AssetFactory.sol\":1892:1927  asset.transferTo(target, msg.value) */\n      mload(0x40)\n      dup4\n      0xffffffff\n      and\n      0xe0\n      shl\n      dup2\n      mstore\n      0x04\n      add\n      tag_47\n      swap3\n      swap2\n      swap1\n      tag_48\n      jump\t// in\n    tag_47:\n      0x00\n      mload(0x40)\n      dup1\n      dup4\n      sub\n      dup2\n      0x00\n      dup8\n      dup1\n      extcodesize\n      iszero\n      dup1\n      iszero\n      tag_49\n      jumpi\n      0x00\n      dup1\n      revert\n    tag_49:\n      pop\n      gas\n      call\n      iszero\n      dup1\n      iszero\n      tag_51\n      jumpi\n      returndatasize\n      0x00\n      dup1\n      returndatacopy\n      revert(0x00, returndatasize)\n    tag_51:\n      pop\n      pop\n      pop\n      pop\n        /* \"Assignments/Lecture 6/AssetFactory.sol\":1596:1934  {... */\n      pop\n      pop\n        /* \"Assignments/Lecture 6/AssetFactory.sol\":1522:1934  function send(address target, string memory assetTicker) external payable {... */\n      pop\n      pop\n      jump\t// out\n        /* \"Assignments/Lecture 6/AssetFactory.sol\":2214:2495  function balanceFor(string memory ticker) public view returns(uint256) {... */\n    tag_27:\n        /* \"Assignments/Lecture 6/AssetFactory.sol\":2276:2283  uint256 */\n      0x00\n        /* \"Assignments/Lecture 6/AssetFactory.sol\":2295:2315  address assetAddress */\n      dup1\n        /* \"Assignments/Lecture 6/AssetFactory.sol\":2318:2324  assets */\n      0x00\n        /* \"Assignments/Lecture 6/AssetFactory.sol\":2325:2331  ticker */\n      dup4\n        /* \"Assignments/Lecture 6/AssetFactory.sol\":2318:2332  assets[ticker] */\n      mload(0x40)\n      tag_53\n      swap2\n      swap1\n      tag_36\n      jump\t// in\n    tag_53:\n      swap1\n      dup2\n      mstore\n      0x20\n      add\n      mload(0x40)\n      dup1\n      swap2\n      sub\n      swap1\n      keccak256\n      0x00\n      swap1\n      sload\n      swap1\n      0x0100\n      exp\n      swap1\n      div\n      0xffffffffffffffffffffffffffffffffffffffff\n      and\n        /* \"Assignments/Lecture 6/AssetFactory.sol\":2295:2332  address assetAddress = assets[ticker] */\n      swap1\n      pop\n        /* \"Assignments/Lecture 6/AssetFactory.sol\":2370:2371  0 */\n      0x00\n        /* \"Assignments/Lecture 6/AssetFactory.sol\":2346:2372  assetAddress == address(0) */\n      0xffffffffffffffffffffffffffffffffffffffff\n      and\n        /* \"Assignments/Lecture 6/AssetFactory.sol\":2346:2358  assetAddress */\n      dup2\n        /* \"Assignments/Lecture 6/AssetFactory.sol\":2346:2372  assetAddress == address(0) */\n      0xffffffffffffffffffffffffffffffffffffffff\n      and\n      sub\n        /* \"Assignments/Lecture 6/AssetFactory.sol\":2342:2401  if (assetAddress == address(0)) { revert AssetNotFound(); } */\n      tag_54\n      jumpi\n        /* \"Assignments/Lecture 6/AssetFactory.sol\":2383:2398  AssetNotFound() */\n      mload(0x40)\n      0x470cbf4700000000000000000000000000000000000000000000000000000000\n      dup2\n      mstore\n      0x04\n      add\n      mload(0x40)\n      dup1\n      swap2\n      sub\n      swap1\n      revert\n        /* \"Assignments/Lecture 6/AssetFactory.sol\":2342:2401  if (assetAddress == address(0)) { revert AssetNotFound(); } */\n    tag_54:\n        /* \"Assignments/Lecture 6/AssetFactory.sol\":2411:2422  Asset asset */\n      0x00\n        /* \"Assignments/Lecture 6/AssetFactory.sol\":2431:2443  assetAddress */\n      dup2\n        /* \"Assignments/Lecture 6/AssetFactory.sol\":2411:2444  Asset asset = Asset(assetAddress) */\n      swap1\n      pop\n        /* \"Assignments/Lecture 6/AssetFactory.sol\":2461:2466  asset */\n      dup1\n        /* \"Assignments/Lecture 6/AssetFactory.sol\":2461:2476  asset.balanceOf */\n      0xffffffffffffffffffffffffffffffffffffffff\n      and\n      0x70a08231\n        /* \"Assignments/Lecture 6/AssetFactory.sol\":2477:2487  msg.sender */\n      caller\n        /* \"Assignments/Lecture 6/AssetFactory.sol\":2461:2488  asset.balanceOf(msg.sender) */\n      mload(0x40)\n      dup3\n      0xffffffff\n      and\n      0xe0\n      shl\n      dup2\n      mstore\n      0x04\n      add\n      tag_55\n      swap2\n      swap1\n      tag_19\n      jump\t// in\n    tag_55:\n      0x20\n      mload(0x40)\n      dup1\n      dup4\n      sub\n      dup2\n      dup7\n      gas\n      staticcall\n      iszero\n      dup1\n      iszero\n      tag_57\n      jumpi\n      returndatasize\n      0x00\n      dup1\n      returndatacopy\n      revert(0x00, returndatasize)\n    tag_57:\n      pop\n      pop\n      pop\n      pop\n      mload(0x40)\n      returndatasize\n      not(0x1f)\n      0x1f\n      dup3\n      add\n      and\n      dup3\n      add\n      dup1\n      0x40\n      mstore\n      pop\n      dup2\n      add\n      swap1\n      tag_58\n      swap2\n      swap1\n      tag_41\n      jump\t// in\n    tag_58:\n        /* \"Assignments/Lecture 6/AssetFactory.sol\":2454:2488  return asset.balanceOf(msg.sender) */\n      swap3\n      pop\n      pop\n      pop\n        /* \"Assignments/Lecture 6/AssetFactory.sol\":2214:2495  function balanceFor(string memory ticker) public view returns(uint256) {... */\n      swap2\n      swap1\n      pop\n      jump\t// out\n        /* \"Assignments/Lecture 6/AssetFactory.sol\":1223:1516  function createAsset(string memory name, string memory ticker, uint256 initialSupply) public {... */\n    tag_33:\n        /* \"Assignments/Lecture 6/AssetFactory.sol\":1356:1357  0 */\n      0x00\n        /* \"Assignments/Lecture 6/AssetFactory.sol\":1330:1358  assets[ticker] != address(0) */\n      0xffffffffffffffffffffffffffffffffffffffff\n      and\n        /* \"Assignments/Lecture 6/AssetFactory.sol\":1330:1336  assets */\n      0x00\n        /* \"Assignments/Lecture 6/AssetFactory.sol\":1337:1343  ticker */\n      dup4\n        /* \"Assignments/Lecture 6/AssetFactory.sol\":1330:1344  assets[ticker] */\n      mload(0x40)\n      tag_60\n      swap2\n      swap1\n      tag_36\n      jump\t// in\n    tag_60:\n      swap1\n      dup2\n      mstore\n      0x20\n      add\n      mload(0x40)\n      dup1\n      swap2\n      sub\n      swap1\n      keccak256\n      0x00\n      swap1\n      sload\n      swap1\n      0x0100\n      exp\n      swap1\n      div\n      0xffffffffffffffffffffffffffffffffffffffff\n      and\n        /* \"Assignments/Lecture 6/AssetFactory.sol\":1330:1358  assets[ticker] != address(0) */\n      0xffffffffffffffffffffffffffffffffffffffff\n      and\n      eq\n        /* \"Assignments/Lecture 6/AssetFactory.sol\":1326:1383  if (assets[ticker] != address(0)) revert DuplicateAsset() */\n      tag_61\n      jumpi\n        /* \"Assignments/Lecture 6/AssetFactory.sol\":1367:1383  DuplicateAsset() */\n      mload(0x40)\n      0x587daa3000000000000000000000000000000000000000000000000000000000\n      dup2\n      mstore\n      0x04\n      add\n      mload(0x40)\n      dup1\n      swap2\n      sub\n      swap1\n      revert\n        /* \"Assignments/Lecture 6/AssetFactory.sol\":1326:1383  if (assets[ticker] != address(0)) revert DuplicateAsset() */\n    tag_61:\n        /* \"Assignments/Lecture 6/AssetFactory.sol\":1394:1417  address newAssetAddress */\n      0x00\n        /* \"Assignments/Lecture 6/AssetFactory.sol\":1438:1442  name */\n      dup4\n        /* \"Assignments/Lecture 6/AssetFactory.sol\":1444:1450  ticker */\n      dup4\n        /* \"Assignments/Lecture 6/AssetFactory.sol\":1452:1465  initialSupply */\n      dup4\n        /* \"Assignments/Lecture 6/AssetFactory.sol\":1428:1466  new Asset(name, ticker, initialSupply) */\n      mload(0x40)\n      tag_62\n      swap1\n      tag_63\n      jump\t// in\n    tag_62:\n      tag_64\n      swap4\n      swap3\n      swap2\n      swap1\n      tag_65\n      jump\t// in\n    tag_64:\n      mload(0x40)\n      dup1\n      swap2\n      sub\n      swap1\n      0x00\n      create\n      dup1\n      iszero\n      dup1\n      iszero\n      tag_66\n      jumpi\n      returndatasize\n      0x00\n      dup1\n      returndatacopy\n      revert(0x00, returndatasize)\n    tag_66:\n      pop\n        /* \"Assignments/Lecture 6/AssetFactory.sol\":1394:1467  address newAssetAddress = address(new Asset(name, ticker, initialSupply)) */\n      swap1\n      pop\n        /* \"Assignments/Lecture 6/AssetFactory.sol\":1494:1509  newAssetAddress */\n      dup1\n        /* \"Assignments/Lecture 6/AssetFactory.sol\":1477:1483  assets */\n      0x00\n        /* \"Assignments/Lecture 6/AssetFactory.sol\":1484:1490  ticker */\n      dup5\n        /* \"Assignments/Lecture 6/AssetFactory.sol\":1477:1491  assets[ticker] */\n      mload(0x40)\n      tag_67\n      swap2\n      swap1\n      tag_36\n      jump\t// in\n    tag_67:\n      swap1\n      dup2\n      mstore\n      0x20\n      add\n      mload(0x40)\n      dup1\n      swap2\n      sub\n      swap1\n      keccak256\n      0x00\n        /* \"Assignments/Lecture 6/AssetFactory.sol\":1477:1509  assets[ticker] = newAssetAddress */\n      0x0100\n      exp\n      dup2\n      sload\n      dup2\n      0xffffffffffffffffffffffffffffffffffffffff\n      mul\n      not\n      and\n      swap1\n      dup4\n      0xffffffffffffffffffffffffffffffffffffffff\n      and\n      mul\n      or\n      swap1\n      sstore\n      pop\n        /* \"Assignments/Lecture 6/AssetFactory.sol\":1316:1516  {... */\n      pop\n        /* \"Assignments/Lecture 6/AssetFactory.sol\":1223:1516  function createAsset(string memory name, string memory ticker, uint256 initialSupply) public {... */\n      pop\n      pop\n      pop\n      jump\t// out\n    tag_63:\n      dataSize(sub_0)\n      dup1\n      dataOffset(sub_0)\n      dup4\n      codecopy\n      add\n      swap1\n      jump\t// out\n        /* \"#utility.yul\":7:82   */\n    tag_68:\n        /* \"#utility.yul\":40:46   */\n      0x00\n        /* \"#utility.yul\":73:75   */\n      0x40\n        /* \"#utility.yul\":67:76   */\n      mload\n        /* \"#utility.yul\":57:76   */\n      swap1\n      pop\n        /* \"#utility.yul\":7:82   */\n      swap1\n      jump\t// out\n        /* \"#utility.yul\":88:205   */\n    tag_69:\n        /* \"#utility.yul\":197:198   */\n      0x00\n        /* \"#utility.yul\":194:195   */\n      dup1\n        /* \"#utility.yul\":187:199   */\n      revert\n        /* \"#utility.yul\":211:328   */\n    tag_70:\n        /* \"#utility.yul\":320:321   */\n      0x00\n        /* \"#utility.yul\":317:318   */\n      dup1\n        /* \"#utility.yul\":310:322   */\n      revert\n        /* \"#utility.yul\":334:451   */\n    tag_71:\n        /* \"#utility.yul\":443:444   */\n      0x00\n        /* \"#utility.yul\":440:441   */\n      dup1\n        /* \"#utility.yul\":433:445   */\n      revert\n        /* \"#utility.yul\":457:574   */\n    tag_72:\n        /* \"#utility.yul\":566:567   */\n      0x00\n        /* \"#utility.yul\":563:564   */\n      dup1\n        /* \"#utility.yul\":556:568   */\n      revert\n        /* \"#utility.yul\":580:682   */\n    tag_73:\n        /* \"#utility.yul\":621:627   */\n      0x00\n        /* \"#utility.yul\":672:674   */\n      0x1f\n        /* \"#utility.yul\":668:675   */\n      not\n        /* \"#utility.yul\":663:665   */\n      0x1f\n        /* \"#utility.yul\":656:661   */\n      dup4\n        /* \"#utility.yul\":652:666   */\n      add\n        /* \"#utility.yul\":648:676   */\n      and\n        /* \"#utility.yul\":638:676   */\n      swap1\n      pop\n        /* \"#utility.yul\":580:682   */\n      swap2\n      swap1\n      pop\n      jump\t// out\n        /* \"#utility.yul\":688:868   */\n    tag_74:\n        /* \"#utility.yul\":736:813   */\n      0x4e487b7100000000000000000000000000000000000000000000000000000000\n        /* \"#utility.yul\":733:734   */\n      0x00\n        /* \"#utility.yul\":726:814   */\n      mstore\n        /* \"#utility.yul\":833:837   */\n      0x41\n        /* \"#utility.yul\":830:831   */\n      0x04\n        /* \"#utility.yul\":823:838   */\n      mstore\n        /* \"#utility.yul\":857:861   */\n      0x24\n        /* \"#utility.yul\":854:855   */\n      0x00\n        /* \"#utility.yul\":847:862   */\n      revert\n        /* \"#utility.yul\":874:1155   */\n    tag_75:\n        /* \"#utility.yul\":957:984   */\n      tag_106\n        /* \"#utility.yul\":979:983   */\n      dup3\n        /* \"#utility.yul\":957:984   */\n      tag_73\n      jump\t// in\n    tag_106:\n        /* \"#utility.yul\":949:955   */\n      dup2\n        /* \"#utility.yul\":945:985   */\n      add\n        /* \"#utility.yul\":1087:1093   */\n      dup2\n        /* \"#utility.yul\":1075:1085   */\n      dup2\n        /* \"#utility.yul\":1072:1094   */\n      lt\n        /* \"#utility.yul\":1051:1069   */\n      0xffffffffffffffff\n        /* \"#utility.yul\":1039:1049   */\n      dup3\n        /* \"#utility.yul\":1036:1070   */\n      gt\n        /* \"#utility.yul\":1033:1095   */\n      or\n        /* \"#utility.yul\":1030:1118   */\n      iszero\n      tag_107\n      jumpi\n        /* \"#utility.yul\":1098:1116   */\n      tag_108\n      tag_74\n      jump\t// in\n    tag_108:\n        /* \"#utility.yul\":1030:1118   */\n    tag_107:\n        /* \"#utility.yul\":1138:1148   */\n      dup1\n        /* \"#utility.yul\":1134:1136   */\n      0x40\n        /* \"#utility.yul\":1127:1149   */\n      mstore\n        /* \"#utility.yul\":917:1155   */\n      pop\n        /* \"#utility.yul\":874:1155   */\n      pop\n      pop\n      jump\t// out\n        /* \"#utility.yul\":1161:1290   */\n    tag_76:\n        /* \"#utility.yul\":1195:1201   */\n      0x00\n        /* \"#utility.yul\":1222:1242   */\n      tag_110\n      tag_68\n      jump\t// in\n    tag_110:\n        /* \"#utility.yul\":1212:1242   */\n      swap1\n      pop\n        /* \"#utility.yul\":1251:1284   */\n      tag_111\n        /* \"#utility.yul\":1279:1283   */\n      dup3\n        /* \"#utility.yul\":1271:1277   */\n      dup3\n        /* \"#utility.yul\":1251:1284   */\n      tag_75\n      jump\t// in\n    tag_111:\n        /* \"#utility.yul\":1161:1290   */\n      swap2\n      swap1\n      pop\n      jump\t// out\n        /* \"#utility.yul\":1296:1604   */\n    tag_77:\n        /* \"#utility.yul\":1358:1362   */\n      0x00\n        /* \"#utility.yul\":1448:1466   */\n      0xffffffffffffffff\n        /* \"#utility.yul\":1440:1446   */\n      dup3\n        /* \"#utility.yul\":1437:1467   */\n      gt\n        /* \"#utility.yul\":1434:1490   */\n      iszero\n      tag_113\n      jumpi\n        /* \"#utility.yul\":1470:1488   */\n      tag_114\n      tag_74\n      jump\t// in\n    tag_114:\n        /* \"#utility.yul\":1434:1490   */\n    tag_113:\n        /* \"#utility.yul\":1508:1537   */\n      tag_115\n        /* \"#utility.yul\":1530:1536   */\n      dup3\n        /* \"#utility.yul\":1508:1537   */\n      tag_73\n      jump\t// in\n    tag_115:\n        /* \"#utility.yul\":1500:1537   */\n      swap1\n      pop\n        /* \"#utility.yul\":1592:1596   */\n      0x20\n        /* \"#utility.yul\":1586:1590   */\n      dup2\n        /* \"#utility.yul\":1582:1597   */\n      add\n        /* \"#utility.yul\":1574:1597   */\n      swap1\n      pop\n        /* \"#utility.yul\":1296:1604   */\n      swap2\n      swap1\n      pop\n      jump\t// out\n        /* \"#utility.yul\":1610:1758   */\n    tag_78:\n        /* \"#utility.yul\":1708:1714   */\n      dup3\n        /* \"#utility.yul\":1703:1706   */\n      dup2\n        /* \"#utility.yul\":1698:1701   */\n      dup4\n        /* \"#utility.yul\":1685:1715   */\n      calldatacopy\n        /* \"#utility.yul\":1749:1750   */\n      0x00\n        /* \"#utility.yul\":1740:1746   */\n      dup4\n        /* \"#utility.yul\":1735:1738   */\n      dup4\n        /* \"#utility.yul\":1731:1747   */\n      add\n        /* \"#utility.yul\":1724:1751   */\n      mstore\n        /* \"#utility.yul\":1610:1758   */\n      pop\n      pop\n      pop\n      jump\t// out\n        /* \"#utility.yul\":1764:2189   */\n    tag_79:\n        /* \"#utility.yul\":1842:1847   */\n      0x00\n        /* \"#utility.yul\":1867:1933   */\n      tag_118\n        /* \"#utility.yul\":1883:1932   */\n      tag_119\n        /* \"#utility.yul\":1925:1931   */\n      dup5\n        /* \"#utility.yul\":1883:1932   */\n      tag_77\n      jump\t// in\n    tag_119:\n        /* \"#utility.yul\":1867:1933   */\n      tag_76\n      jump\t// in\n    tag_118:\n        /* \"#utility.yul\":1858:1933   */\n      swap1\n      pop\n        /* \"#utility.yul\":1956:1962   */\n      dup3\n        /* \"#utility.yul\":1949:1954   */\n      dup2\n        /* \"#utility.yul\":1942:1963   */\n      mstore\n        /* \"#utility.yul\":1994:1998   */\n      0x20\n        /* \"#utility.yul\":1987:1992   */\n      dup2\n        /* \"#utility.yul\":1983:1999   */\n      add\n        /* \"#utility.yul\":2032:2035   */\n      dup5\n        /* \"#utility.yul\":2023:2029   */\n      dup5\n        /* \"#utility.yul\":2018:2021   */\n      dup5\n        /* \"#utility.yul\":2014:2030   */\n      add\n        /* \"#utility.yul\":2011:2036   */\n      gt\n        /* \"#utility.yul\":2008:2120   */\n      iszero\n      tag_120\n      jumpi\n        /* \"#utility.yul\":2039:2118   */\n      tag_121\n      tag_72\n      jump\t// in\n    tag_121:\n        /* \"#utility.yul\":2008:2120   */\n    tag_120:\n        /* \"#utility.yul\":2129:2183   */\n      tag_122\n        /* \"#utility.yul\":2176:2182   */\n      dup5\n        /* \"#utility.yul\":2171:2174   */\n      dup3\n        /* \"#utility.yul\":2166:2169   */\n      dup6\n        /* \"#utility.yul\":2129:2183   */\n      tag_78\n      jump\t// in\n    tag_122:\n        /* \"#utility.yul\":1848:2189   */\n      pop\n        /* \"#utility.yul\":1764:2189   */\n      swap4\n      swap3\n      pop\n      pop\n      pop\n      jump\t// out\n        /* \"#utility.yul\":2209:2549   */\n    tag_80:\n        /* \"#utility.yul\":2265:2270   */\n      0x00\n        /* \"#utility.yul\":2314:2317   */\n      dup3\n        /* \"#utility.yul\":2307:2311   */\n      0x1f\n        /* \"#utility.yul\":2299:2305   */\n      dup4\n        /* \"#utility.yul\":2295:2312   */\n      add\n        /* \"#utility.yul\":2291:2318   */\n      slt\n        /* \"#utility.yul\":2281:2403   */\n      tag_124\n      jumpi\n        /* \"#utility.yul\":2322:2401   */\n      tag_125\n      tag_71\n      jump\t// in\n    tag_125:\n        /* \"#utility.yul\":2281:2403   */\n    tag_124:\n        /* \"#utility.yul\":2439:2445   */\n      dup2\n        /* \"#utility.yul\":2426:2446   */\n      calldataload\n        /* \"#utility.yul\":2464:2543   */\n      tag_126\n        /* \"#utility.yul\":2539:2542   */\n      dup5\n        /* \"#utility.yul\":2531:2537   */\n      dup3\n        /* \"#utility.yul\":2524:2528   */\n      0x20\n        /* \"#utility.yul\":2516:2522   */\n      dup7\n        /* \"#utility.yul\":2512:2529   */\n      add\n        /* \"#utility.yul\":2464:2543   */\n      tag_79\n      jump\t// in\n    tag_126:\n        /* \"#utility.yul\":2455:2543   */\n      swap2\n      pop\n        /* \"#utility.yul\":2271:2549   */\n      pop\n        /* \"#utility.yul\":2209:2549   */\n      swap3\n      swap2\n      pop\n      pop\n      jump\t// out\n        /* \"#utility.yul\":2555:3064   */\n    tag_10:\n        /* \"#utility.yul\":2624:2630   */\n      0x00\n        /* \"#utility.yul\":2673:2675   */\n      0x20\n        /* \"#utility.yul\":2661:2670   */\n      dup3\n        /* \"#utility.yul\":2652:2659   */\n      dup5\n        /* \"#utility.yul\":2648:2671   */\n      sub\n        /* \"#utility.yul\":2644:2676   */\n      slt\n        /* \"#utility.yul\":2641:2760   */\n      iszero\n      tag_128\n      jumpi\n        /* \"#utility.yul\":2679:2758   */\n      tag_129\n      tag_69\n      jump\t// in\n    tag_129:\n        /* \"#utility.yul\":2641:2760   */\n    tag_128:\n        /* \"#utility.yul\":2827:2828   */\n      0x00\n        /* \"#utility.yul\":2816:2825   */\n      dup3\n        /* \"#utility.yul\":2812:2829   */\n      add\n        /* \"#utility.yul\":2799:2830   */\n      calldataload\n        /* \"#utility.yul\":2857:2875   */\n      0xffffffffffffffff\n        /* \"#utility.yul\":2849:2855   */\n      dup2\n        /* \"#utility.yul\":2846:2876   */\n      gt\n        /* \"#utility.yul\":2843:2960   */\n      iszero\n      tag_130\n      jumpi\n        /* \"#utility.yul\":2879:2958   */\n      tag_131\n      tag_70\n      jump\t// in\n    tag_131:\n        /* \"#utility.yul\":2843:2960   */\n    tag_130:\n        /* \"#utility.yul\":2984:3047   */\n      tag_132\n        /* \"#utility.yul\":3039:3046   */\n      dup5\n        /* \"#utility.yul\":3030:3036   */\n      dup3\n        /* \"#utility.yul\":3019:3028   */\n      dup6\n        /* \"#utility.yul\":3015:3037   */\n      add\n        /* \"#utility.yul\":2984:3047   */\n      tag_80\n      jump\t// in\n    tag_132:\n        /* \"#utility.yul\":2974:3047   */\n      swap2\n      pop\n        /* \"#utility.yul\":2770:3057   */\n      pop\n        /* \"#utility.yul\":2555:3064   */\n      swap3\n      swap2\n      pop\n      pop\n      jump\t// out\n        /* \"#utility.yul\":3070:3147   */\n    tag_81:\n        /* \"#utility.yul\":3107:3114   */\n      0x00\n        /* \"#utility.yul\":3136:3141   */\n      dup2\n        /* \"#utility.yul\":3125:3141   */\n      swap1\n      pop\n        /* \"#utility.yul\":3070:3147   */\n      swap2\n      swap1\n      pop\n      jump\t// out\n        /* \"#utility.yul\":3153:3271   */\n    tag_82:\n        /* \"#utility.yul\":3240:3264   */\n      tag_135\n        /* \"#utility.yul\":3258:3263   */\n      dup2\n        /* \"#utility.yul\":3240:3264   */\n      tag_81\n      jump\t// in\n    tag_135:\n        /* \"#utility.yul\":3235:3238   */\n      dup3\n        /* \"#utility.yul\":3228:3265   */\n      mstore\n        /* \"#utility.yul\":3153:3271   */\n      pop\n      pop\n      jump\t// out\n        /* \"#utility.yul\":3277:3499   */\n    tag_13:\n        /* \"#utility.yul\":3370:3374   */\n      0x00\n        /* \"#utility.yul\":3408:3410   */\n      0x20\n        /* \"#utility.yul\":3397:3406   */\n      dup3\n        /* \"#utility.yul\":3393:3411   */\n      add\n        /* \"#utility.yul\":3385:3411   */\n      swap1\n      pop\n        /* \"#utility.yul\":3421:3492   */\n      tag_137\n        /* \"#utility.yul\":3489:3490   */\n      0x00\n        /* \"#utility.yul\":3478:3487   */\n      dup4\n        /* \"#utility.yul\":3474:3491   */\n      add\n        /* \"#utility.yul\":3465:3471   */\n      dup5\n        /* \"#utility.yul\":3421:3492   */\n      tag_82\n      jump\t// in\n    tag_137:\n        /* \"#utility.yul\":3277:3499   */\n      swap3\n      swap2\n      pop\n      pop\n      jump\t// out\n        /* \"#utility.yul\":3505:3631   */\n    tag_83:\n        /* \"#utility.yul\":3542:3549   */\n      0x00\n        /* \"#utility.yul\":3582:3624   */\n      0xffffffffffffffffffffffffffffffffffffffff\n        /* \"#utility.yul\":3575:3580   */\n      dup3\n        /* \"#utility.yul\":3571:3625   */\n      and\n        /* \"#utility.yul\":3560:3625   */\n      swap1\n      pop\n        /* \"#utility.yul\":3505:3631   */\n      swap2\n      swap1\n      pop\n      jump\t// out\n        /* \"#utility.yul\":3637:3733   */\n    tag_84:\n        /* \"#utility.yul\":3674:3681   */\n      0x00\n        /* \"#utility.yul\":3703:3727   */\n      tag_140\n        /* \"#utility.yul\":3721:3726   */\n      dup3\n        /* \"#utility.yul\":3703:3727   */\n      tag_83\n      jump\t// in\n    tag_140:\n        /* \"#utility.yul\":3692:3727   */\n      swap1\n      pop\n        /* \"#utility.yul\":3637:3733   */\n      swap2\n      swap1\n      pop\n      jump\t// out\n        /* \"#utility.yul\":3739:3857   */\n    tag_85:\n        /* \"#utility.yul\":3826:3850   */\n      tag_142\n        /* \"#utility.yul\":3844:3849   */\n      dup2\n        /* \"#utility.yul\":3826:3850   */\n      tag_84\n      jump\t// in\n    tag_142:\n        /* \"#utility.yul\":3821:3824   */\n      dup3\n        /* \"#utility.yul\":3814:3851   */\n      mstore\n        /* \"#utility.yul\":3739:3857   */\n      pop\n      pop\n      jump\t// out\n        /* \"#utility.yul\":3863:4085   */\n    tag_19:\n        /* \"#utility.yul\":3956:3960   */\n      0x00\n        /* \"#utility.yul\":3994:3996   */\n      0x20\n        /* \"#utility.yul\":3983:3992   */\n      dup3\n        /* \"#utility.yul\":3979:3997   */\n      add\n        /* \"#utility.yul\":3971:3997   */\n      swap1\n      pop\n        /* \"#utility.yul\":4007:4078   */\n      tag_144\n        /* \"#utility.yul\":4075:4076   */\n      0x00\n        /* \"#utility.yul\":4064:4073   */\n      dup4\n        /* \"#utility.yul\":4060:4077   */\n      add\n        /* \"#utility.yul\":4051:4057   */\n      dup5\n        /* \"#utility.yul\":4007:4078   */\n      tag_85\n      jump\t// in\n    tag_144:\n        /* \"#utility.yul\":3863:4085   */\n      swap3\n      swap2\n      pop\n      pop\n      jump\t// out\n        /* \"#utility.yul\":4091:4213   */\n    tag_86:\n        /* \"#utility.yul\":4164:4188   */\n      tag_146\n        /* \"#utility.yul\":4182:4187   */\n      dup2\n        /* \"#utility.yul\":4164:4188   */\n      tag_84\n      jump\t// in\n    tag_146:\n        /* \"#utility.yul\":4157:4162   */\n      dup2\n        /* \"#utility.yul\":4154:4189   */\n      eq\n        /* \"#utility.yul\":4144:4207   */\n      tag_147\n      jumpi\n        /* \"#utility.yul\":4203:4204   */\n      0x00\n        /* \"#utility.yul\":4200:4201   */\n      dup1\n        /* \"#utility.yul\":4193:4205   */\n      revert\n        /* \"#utility.yul\":4144:4207   */\n    tag_147:\n        /* \"#utility.yul\":4091:4213   */\n      pop\n      jump\t// out\n        /* \"#utility.yul\":4219:4358   */\n    tag_87:\n        /* \"#utility.yul\":4265:4270   */\n      0x00\n        /* \"#utility.yul\":4303:4309   */\n      dup2\n        /* \"#utility.yul\":4290:4310   */\n      calldataload\n        /* \"#utility.yul\":4281:4310   */\n      swap1\n      pop\n        /* \"#utility.yul\":4319:4352   */\n      tag_149\n        /* \"#utility.yul\":4346:4351   */\n      dup2\n        /* \"#utility.yul\":4319:4352   */\n      tag_86\n      jump\t// in\n    tag_149:\n        /* \"#utility.yul\":4219:4358   */\n      swap3\n      swap2\n      pop\n      pop\n      jump\t// out\n        /* \"#utility.yul\":4364:5018   */\n    tag_22:\n        /* \"#utility.yul\":4442:4448   */\n      0x00\n        /* \"#utility.yul\":4450:4456   */\n      dup1\n        /* \"#utility.yul\":4499:4501   */\n      0x40\n        /* \"#utility.yul\":4487:4496   */\n      dup4\n        /* \"#utility.yul\":4478:4485   */\n      dup6\n        /* \"#utility.yul\":4474:4497   */\n      sub\n        /* \"#utility.yul\":4470:4502   */\n      slt\n        /* \"#utility.yul\":4467:4586   */\n      iszero\n      tag_151\n      jumpi\n        /* \"#utility.yul\":4505:4584   */\n      tag_152\n      tag_69\n      jump\t// in\n    tag_152:\n        /* \"#utility.yul\":4467:4586   */\n    tag_151:\n        /* \"#utility.yul\":4625:4626   */\n      0x00\n        /* \"#utility.yul\":4650:4703   */\n      tag_153\n        /* \"#utility.yul\":4695:4702   */\n      dup6\n        /* \"#utility.yul\":4686:4692   */\n      dup3\n        /* \"#utility.yul\":4675:4684   */\n      dup7\n        /* \"#utility.yul\":4671:4693   */\n      add\n        /* \"#utility.yul\":4650:4703   */\n      tag_87\n      jump\t// in\n    tag_153:\n        /* \"#utility.yul\":4640:4703   */\n      swap3\n      pop\n        /* \"#utility.yul\":4596:4713   */\n      pop\n        /* \"#utility.yul\":4780:4782   */\n      0x20\n        /* \"#utility.yul\":4769:4778   */\n      dup4\n        /* \"#utility.yul\":4765:4783   */\n      add\n        /* \"#utility.yul\":4752:4784   */\n      calldataload\n        /* \"#utility.yul\":4811:4829   */\n      0xffffffffffffffff\n        /* \"#utility.yul\":4803:4809   */\n      dup2\n        /* \"#utility.yul\":4800:4830   */\n      gt\n        /* \"#utility.yul\":4797:4914   */\n      iszero\n      tag_154\n      jumpi\n        /* \"#utility.yul\":4833:4912   */\n      tag_155\n      tag_70\n      jump\t// in\n    tag_155:\n        /* \"#utility.yul\":4797:4914   */\n    tag_154:\n        /* \"#utility.yul\":4938:5001   */\n      tag_156\n        /* \"#utility.yul\":4993:5000   */\n      dup6\n        /* \"#utility.yul\":4984:4990   */\n      dup3\n        /* \"#utility.yul\":4973:4982   */\n      dup7\n        /* \"#utility.yul\":4969:4991   */\n      add\n        /* \"#utility.yul\":4938:5001   */\n      tag_80\n      jump\t// in\n    tag_156:\n        /* \"#utility.yul\":4928:5001   */\n      swap2\n      pop\n        /* \"#utility.yul\":4723:5011   */\n      pop\n        /* \"#utility.yul\":4364:5018   */\n      swap3\n      pop\n      swap3\n      swap1\n      pop\n      jump\t// out\n        /* \"#utility.yul\":5024:5146   */\n    tag_88:\n        /* \"#utility.yul\":5097:5121   */\n      tag_158\n        /* \"#utility.yul\":5115:5120   */\n      dup2\n        /* \"#utility.yul\":5097:5121   */\n      tag_81\n      jump\t// in\n    tag_158:\n        /* \"#utility.yul\":5090:5095   */\n      dup2\n        /* \"#utility.yul\":5087:5122   */\n      eq\n        /* \"#utility.yul\":5077:5140   */\n      tag_159\n      jumpi\n        /* \"#utility.yul\":5136:5137   */\n      0x00\n        /* \"#utility.yul\":5133:5134   */\n      dup1\n        /* \"#utility.yul\":5126:5138   */\n      revert\n        /* \"#utility.yul\":5077:5140   */\n    tag_159:\n        /* \"#utility.yul\":5024:5146   */\n      pop\n      jump\t// out\n        /* \"#utility.yul\":5152:5291   */\n    tag_89:\n        /* \"#utility.yul\":5198:5203   */\n      0x00\n        /* \"#utility.yul\":5236:5242   */\n      dup2\n        /* \"#utility.yul\":5223:5243   */\n      calldataload\n        /* \"#utility.yul\":5214:5243   */\n      swap1\n      pop\n        /* \"#utility.yul\":5252:5285   */\n      tag_161\n        /* \"#utility.yul\":5279:5284   */\n      dup2\n        /* \"#utility.yul\":5252:5285   */\n      tag_88\n      jump\t// in\n    tag_161:\n        /* \"#utility.yul\":5152:5291   */\n      swap3\n      swap2\n      pop\n      pop\n      jump\t// out\n        /* \"#utility.yul\":5297:6276   */\n    tag_32:\n        /* \"#utility.yul\":5394:5400   */\n      0x00\n        /* \"#utility.yul\":5402:5408   */\n      dup1\n        /* \"#utility.yul\":5410:5416   */\n      0x00\n        /* \"#utility.yul\":5459:5461   */\n      0x60\n        /* \"#utility.yul\":5447:5456   */\n      dup5\n        /* \"#utility.yul\":5438:5445   */\n      dup7\n        /* \"#utility.yul\":5434:5457   */\n      sub\n        /* \"#utility.yul\":5430:5462   */\n      slt\n        /* \"#utility.yul\":5427:5546   */\n      iszero\n      tag_163\n      jumpi\n        /* \"#utility.yul\":5465:5544   */\n      tag_164\n      tag_69\n      jump\t// in\n    tag_164:\n        /* \"#utility.yul\":5427:5546   */\n    tag_163:\n        /* \"#utility.yul\":5613:5614   */\n      0x00\n        /* \"#utility.yul\":5602:5611   */\n      dup5\n        /* \"#utility.yul\":5598:5615   */\n      add\n        /* \"#utility.yul\":5585:5616   */\n      calldataload\n        /* \"#utility.yul\":5643:5661   */\n      0xffffffffffffffff\n        /* \"#utility.yul\":5635:5641   */\n      dup2\n        /* \"#utility.yul\":5632:5662   */\n      gt\n        /* \"#utility.yul\":5629:5746   */\n      iszero\n      tag_165\n      jumpi\n        /* \"#utility.yul\":5665:5744   */\n      tag_166\n      tag_70\n      jump\t// in\n    tag_166:\n        /* \"#utility.yul\":5629:5746   */\n    tag_165:\n        /* \"#utility.yul\":5770:5833   */\n      tag_167\n        /* \"#utility.yul\":5825:5832   */\n      dup7\n        /* \"#utility.yul\":5816:5822   */\n      dup3\n        /* \"#utility.yul\":5805:5814   */\n      dup8\n        /* \"#utility.yul\":5801:5823   */\n      add\n        /* \"#utility.yul\":5770:5833   */\n      tag_80\n      jump\t// in\n    tag_167:\n        /* \"#utility.yul\":5760:5833   */\n      swap4\n      pop\n        /* \"#utility.yul\":5556:5843   */\n      pop\n        /* \"#utility.yul\":5910:5912   */\n      0x20\n        /* \"#utility.yul\":5899:5908   */\n      dup5\n        /* \"#utility.yul\":5895:5913   */\n      add\n        /* \"#utility.yul\":5882:5914   */\n      calldataload\n        /* \"#utility.yul\":5941:5959   */\n      0xffffffffffffffff\n        /* \"#utility.yul\":5933:5939   */\n      dup2\n        /* \"#utility.yul\":5930:5960   */\n      gt\n        /* \"#utility.yul\":5927:6044   */\n      iszero\n      tag_168\n      jumpi\n        /* \"#utility.yul\":5963:6042   */\n      tag_169\n      tag_70\n      jump\t// in\n    tag_169:\n        /* \"#utility.yul\":5927:6044   */\n    tag_168:\n        /* \"#utility.yul\":6068:6131   */\n      tag_170\n        /* \"#utility.yul\":6123:6130   */\n      dup7\n        /* \"#utility.yul\":6114:6120   */\n      dup3\n        /* \"#utility.yul\":6103:6112   */\n      dup8\n        /* \"#utility.yul\":6099:6121   */\n      add\n        /* \"#utility.yul\":6068:6131   */\n      tag_80\n      jump\t// in\n    tag_170:\n        /* \"#utility.yul\":6058:6131   */\n      swap3\n      pop\n        /* \"#utility.yul\":5853:6141   */\n      pop\n        /* \"#utility.yul\":6180:6182   */\n      0x40\n        /* \"#utility.yul\":6206:6259   */\n      tag_171\n        /* \"#utility.yul\":6251:6258   */\n      dup7\n        /* \"#utility.yul\":6242:6248   */\n      dup3\n        /* \"#utility.yul\":6231:6240   */\n      dup8\n        /* \"#utility.yul\":6227:6249   */\n      add\n        /* \"#utility.yul\":6206:6259   */\n      tag_89\n      jump\t// in\n    tag_171:\n        /* \"#utility.yul\":6196:6259   */\n      swap2\n      pop\n        /* \"#utility.yul\":6151:6269   */\n      pop\n        /* \"#utility.yul\":5297:6276   */\n      swap3\n      pop\n      swap3\n      pop\n      swap3\n      jump\t// out\n        /* \"#utility.yul\":6282:6381   */\n    tag_90:\n        /* \"#utility.yul\":6334:6340   */\n      0x00\n        /* \"#utility.yul\":6368:6373   */\n      dup2\n        /* \"#utility.yul\":6362:6374   */\n      mload\n        /* \"#utility.yul\":6352:6374   */\n      swap1\n      pop\n        /* \"#utility.yul\":6282:6381   */\n      swap2\n      swap1\n      pop\n      jump\t// out\n        /* \"#utility.yul\":6387:6535   */\n    tag_91:\n        /* \"#utility.yul\":6489:6500   */\n      0x00\n        /* \"#utility.yul\":6526:6529   */\n      dup2\n        /* \"#utility.yul\":6511:6529   */\n      swap1\n      pop\n        /* \"#utility.yul\":6387:6535   */\n      swap3\n      swap2\n      pop\n      pop\n      jump\t// out\n        /* \"#utility.yul\":6541:6680   */\n    tag_92:\n        /* \"#utility.yul\":6630:6636   */\n      dup3\n        /* \"#utility.yul\":6625:6628   */\n      dup2\n        /* \"#utility.yul\":6620:6623   */\n      dup4\n        /* \"#utility.yul\":6614:6637   */\n      mcopy\n        /* \"#utility.yul\":6671:6672   */\n      0x00\n        /* \"#utility.yul\":6662:6668   */\n      dup4\n        /* \"#utility.yul\":6657:6660   */\n      dup4\n        /* \"#utility.yul\":6653:6669   */\n      add\n        /* \"#utility.yul\":6646:6673   */\n      mstore\n        /* \"#utility.yul\":6541:6680   */\n      pop\n      pop\n      pop\n      jump\t// out\n        /* \"#utility.yul\":6686:7076   */\n    tag_93:\n        /* \"#utility.yul\":6792:6795   */\n      0x00\n        /* \"#utility.yul\":6820:6859   */\n      tag_176\n        /* \"#utility.yul\":6853:6858   */\n      dup3\n        /* \"#utility.yul\":6820:6859   */\n      tag_90\n      jump\t// in\n    tag_176:\n        /* \"#utility.yul\":6875:6964   */\n      tag_177\n        /* \"#utility.yul\":6957:6963   */\n      dup2\n        /* \"#utility.yul\":6952:6955   */\n      dup6\n        /* \"#utility.yul\":6875:6964   */\n      tag_91\n      jump\t// in\n    tag_177:\n        /* \"#utility.yul\":6868:6964   */\n      swap4\n      pop\n        /* \"#utility.yul\":6973:7038   */\n      tag_178\n        /* \"#utility.yul\":7031:7037   */\n      dup2\n        /* \"#utility.yul\":7026:7029   */\n      dup6\n        /* \"#utility.yul\":7019:7023   */\n      0x20\n        /* \"#utility.yul\":7012:7017   */\n      dup7\n        /* \"#utility.yul\":7008:7024   */\n      add\n        /* \"#utility.yul\":6973:7038   */\n      tag_92\n      jump\t// in\n    tag_178:\n        /* \"#utility.yul\":7063:7069   */\n      dup1\n        /* \"#utility.yul\":7058:7061   */\n      dup5\n        /* \"#utility.yul\":7054:7070   */\n      add\n        /* \"#utility.yul\":7047:7070   */\n      swap2\n      pop\n        /* \"#utility.yul\":6796:7076   */\n      pop\n        /* \"#utility.yul\":6686:7076   */\n      swap3\n      swap2\n      pop\n      pop\n      jump\t// out\n        /* \"#utility.yul\":7082:7357   */\n    tag_36:\n        /* \"#utility.yul\":7214:7217   */\n      0x00\n        /* \"#utility.yul\":7236:7331   */\n      tag_180\n        /* \"#utility.yul\":7327:7330   */\n      dup3\n        /* \"#utility.yul\":7318:7324   */\n      dup5\n        /* \"#utility.yul\":7236:7331   */\n      tag_93\n      jump\t// in\n    tag_180:\n        /* \"#utility.yul\":7229:7331   */\n      swap2\n      pop\n        /* \"#utility.yul\":7348:7351   */\n      dup2\n        /* \"#utility.yul\":7341:7351   */\n      swap1\n      pop\n        /* \"#utility.yul\":7082:7357   */\n      swap3\n      swap2\n      pop\n      pop\n      jump\t// out\n        /* \"#utility.yul\":7363:7506   */\n    tag_94:\n        /* \"#utility.yul\":7420:7425   */\n      0x00\n        /* \"#utility.yul\":7451:7457   */\n      dup2\n        /* \"#utility.yul\":7445:7458   */\n      mload\n        /* \"#utility.yul\":7436:7458   */\n      swap1\n      pop\n        /* \"#utility.yul\":7467:7500   */\n      tag_182\n        /* \"#utility.yul\":7494:7499   */\n      dup2\n        /* \"#utility.yul\":7467:7500   */\n      tag_88\n      jump\t// in\n    tag_182:\n        /* \"#utility.yul\":7363:7506   */\n      swap3\n      swap2\n      pop\n      pop\n      jump\t// out\n        /* \"#utility.yul\":7512:7863   */\n    tag_41:\n        /* \"#utility.yul\":7582:7588   */\n      0x00\n        /* \"#utility.yul\":7631:7633   */\n      0x20\n        /* \"#utility.yul\":7619:7628   */\n      dup3\n        /* \"#utility.yul\":7610:7617   */\n      dup5\n        /* \"#utility.yul\":7606:7629   */\n      sub\n        /* \"#utility.yul\":7602:7634   */\n      slt\n        /* \"#utility.yul\":7599:7718   */\n      iszero\n      tag_184\n      jumpi\n        /* \"#utility.yul\":7637:7716   */\n      tag_185\n      tag_69\n      jump\t// in\n    tag_185:\n        /* \"#utility.yul\":7599:7718   */\n    tag_184:\n        /* \"#utility.yul\":7757:7758   */\n      0x00\n        /* \"#utility.yul\":7782:7846   */\n      tag_186\n        /* \"#utility.yul\":7838:7845   */\n      dup5\n        /* \"#utility.yul\":7829:7835   */\n      dup3\n        /* \"#utility.yul\":7818:7827   */\n      dup6\n        /* \"#utility.yul\":7814:7836   */\n      add\n        /* \"#utility.yul\":7782:7846   */\n      tag_94\n      jump\t// in\n    tag_186:\n        /* \"#utility.yul\":7772:7846   */\n      swap2\n      pop\n        /* \"#utility.yul\":7728:7856   */\n      pop\n        /* \"#utility.yul\":7512:7863   */\n      swap3\n      swap2\n      pop\n      pop\n      jump\t// out\n        /* \"#utility.yul\":7869:8201   */\n    tag_48:\n        /* \"#utility.yul\":7990:7994   */\n      0x00\n        /* \"#utility.yul\":8028:8030   */\n      0x40\n        /* \"#utility.yul\":8017:8026   */\n      dup3\n        /* \"#utility.yul\":8013:8031   */\n      add\n        /* \"#utility.yul\":8005:8031   */\n      swap1\n      pop\n        /* \"#utility.yul\":8041:8112   */\n      tag_188\n        /* \"#utility.yul\":8109:8110   */\n      0x00\n        /* \"#utility.yul\":8098:8107   */\n      dup4\n        /* \"#utility.yul\":8094:8111   */\n      add\n        /* \"#utility.yul\":8085:8091   */\n      dup6\n        /* \"#utility.yul\":8041:8112   */\n      tag_85\n      jump\t// in\n    tag_188:\n        /* \"#utility.yul\":8122:8194   */\n      tag_189\n        /* \"#utility.yul\":8190:8192   */\n      0x20\n        /* \"#utility.yul\":8179:8188   */\n      dup4\n        /* \"#utility.yul\":8175:8193   */\n      add\n        /* \"#utility.yul\":8166:8172   */\n      dup5\n        /* \"#utility.yul\":8122:8194   */\n      tag_82\n      jump\t// in\n    tag_189:\n        /* \"#utility.yul\":7869:8201   */\n      swap4\n      swap3\n      pop\n      pop\n      pop\n      jump\t// out\n        /* \"#utility.yul\":8207:8376   */\n    tag_95:\n        /* \"#utility.yul\":8291:8302   */\n      0x00\n        /* \"#utility.yul\":8325:8331   */\n      dup3\n        /* \"#utility.yul\":8320:8323   */\n      dup3\n        /* \"#utility.yul\":8313:8332   */\n      mstore\n        /* \"#utility.yul\":8365:8369   */\n      0x20\n        /* \"#utility.yul\":8360:8363   */\n      dup3\n        /* \"#utility.yul\":8356:8370   */\n      add\n        /* \"#utility.yul\":8341:8370   */\n      swap1\n      pop\n        /* \"#utility.yul\":8207:8376   */\n      swap3\n      swap2\n      pop\n      pop\n      jump\t// out\n        /* \"#utility.yul\":8382:8759   */\n    tag_96:\n        /* \"#utility.yul\":8470:8473   */\n      0x00\n        /* \"#utility.yul\":8498:8537   */\n      tag_192\n        /* \"#utility.yul\":8531:8536   */\n      dup3\n        /* \"#utility.yul\":8498:8537   */\n      tag_90\n      jump\t// in\n    tag_192:\n        /* \"#utility.yul\":8553:8624   */\n      tag_193\n        /* \"#utility.yul\":8617:8623   */\n      dup2\n        /* \"#utility.yul\":8612:8615   */\n      dup6\n        /* \"#utility.yul\":8553:8624   */\n      tag_95\n      jump\t// in\n    tag_193:\n        /* \"#utility.yul\":8546:8624   */\n      swap4\n      pop\n        /* \"#utility.yul\":8633:8698   */\n      tag_194\n        /* \"#utility.yul\":8691:8697   */\n      dup2\n        /* \"#utility.yul\":8686:8689   */\n      dup6\n        /* \"#utility.yul\":8679:8683   */\n      0x20\n        /* \"#utility.yul\":8672:8677   */\n      dup7\n        /* \"#utility.yul\":8668:8684   */\n      add\n        /* \"#utility.yul\":8633:8698   */\n      tag_92\n      jump\t// in\n    tag_194:\n        /* \"#utility.yul\":8723:8752   */\n      tag_195\n        /* \"#utility.yul\":8745:8751   */\n      dup2\n        /* \"#utility.yul\":8723:8752   */\n      tag_73\n      jump\t// in\n    tag_195:\n        /* \"#utility.yul\":8718:8721   */\n      dup5\n        /* \"#utility.yul\":8714:8753   */\n      add\n        /* \"#utility.yul\":8707:8753   */\n      swap2\n      pop\n        /* \"#utility.yul\":8474:8759   */\n      pop\n        /* \"#utility.yul\":8382:8759   */\n      swap3\n      swap2\n      pop\n      pop\n      jump\t// out\n        /* \"#utility.yul\":8765:9389   */\n    tag_65:\n        /* \"#utility.yul\":8954:8958   */\n      0x00\n        /* \"#utility.yul\":8992:8994   */\n      0x60\n        /* \"#utility.yul\":8981:8990   */\n      dup3\n        /* \"#utility.yul\":8977:8995   */\n      add\n        /* \"#utility.yul\":8969:8995   */\n      swap1\n      pop\n        /* \"#utility.yul\":9041:9050   */\n      dup2\n        /* \"#utility.yul\":9035:9039   */\n      dup2\n        /* \"#utility.yul\":9031:9051   */\n      sub\n        /* \"#utility.yul\":9027:9028   */\n      0x00\n        /* \"#utility.yul\":9016:9025   */\n      dup4\n        /* \"#utility.yul\":9012:9029   */\n      add\n        /* \"#utility.yul\":9005:9052   */\n      mstore\n        /* \"#utility.yul\":9069:9147   */\n      tag_197\n        /* \"#utility.yul\":9142:9146   */\n      dup2\n        /* \"#utility.yul\":9133:9139   */\n      dup7\n        /* \"#utility.yul\":9069:9147   */\n      tag_96\n      jump\t// in\n    tag_197:\n        /* \"#utility.yul\":9061:9147   */\n      swap1\n      pop\n        /* \"#utility.yul\":9194:9203   */\n      dup2\n        /* \"#utility.yul\":9188:9192   */\n      dup2\n        /* \"#utility.yul\":9184:9204   */\n      sub\n        /* \"#utility.yul\":9179:9181   */\n      0x20\n        /* \"#utility.yul\":9168:9177   */\n      dup4\n        /* \"#utility.yul\":9164:9182   */\n      add\n        /* \"#utility.yul\":9157:9205   */\n      mstore\n        /* \"#utility.yul\":9222:9300   */\n      tag_198\n        /* \"#utility.yul\":9295:9299   */\n      dup2\n        /* \"#utility.yul\":9286:9292   */\n      dup6\n        /* \"#utility.yul\":9222:9300   */\n      tag_96\n      jump\t// in\n    tag_198:\n        /* \"#utility.yul\":9214:9300   */\n      swap1\n      pop\n        /* \"#utility.yul\":9310:9382   */\n      tag_199\n        /* \"#utility.yul\":9378:9380   */\n      0x40\n        /* \"#utility.yul\":9367:9376   */\n      dup4\n        /* \"#utility.yul\":9363:9381   */\n      add\n        /* \"#utility.yul\":9354:9360   */\n      dup5\n        /* \"#utility.yul\":9310:9382   */\n      tag_82\n      jump\t// in\n    tag_199:\n        /* \"#utility.yul\":8765:9389   */\n      swap5\n      swap4\n      pop\n      pop\n      pop\n      pop\n      jump\t// out\n    stop\n\n    sub_0: assembly {\n            /* \"Assignments/Lecture 6/AssetFactory.sol\":312:1146  contract Asset  {... */\n          mstore(0x40, 0x80)\n            /* \"Assignments/Lecture 6/AssetFactory.sol\":454:632  constructor(string memory name_, string memory ticker_, uint256 initialSupply_) {... */\n          callvalue\n          dup1\n          iszero\n          tag_1\n          jumpi\n          0x00\n          dup1\n          revert\n        tag_1:\n          pop\n          mload(0x40)\n          sub(codesize, bytecodeSize)\n          dup1\n          bytecodeSize\n          dup4\n          codecopy\n          dup2\n          dup2\n          add\n          0x40\n          mstore\n          dup2\n          add\n          swap1\n          tag_2\n          swap2\n          swap1\n          tag_3\n          jump\t// in\n        tag_2:\n            /* \"Assignments/Lecture 6/AssetFactory.sol\":551:556  name_ */\n          dup3\n            /* \"Assignments/Lecture 6/AssetFactory.sol\":544:548  name */\n          0x00\n            /* \"Assignments/Lecture 6/AssetFactory.sol\":544:556  name = name_ */\n          swap1\n          dup2\n          tag_6\n          swap2\n          swap1\n          tag_7\n          jump\t// in\n        tag_6:\n          pop\n            /* \"Assignments/Lecture 6/AssetFactory.sol\":575:582  ticker_ */\n          dup2\n            /* \"Assignments/Lecture 6/AssetFactory.sol\":566:572  ticker */\n          0x01\n            /* \"Assignments/Lecture 6/AssetFactory.sol\":566:582  ticker = ticker_ */\n          swap1\n          dup2\n          tag_8\n          swap2\n          swap1\n          tag_7\n          jump\t// in\n        tag_8:\n          pop\n            /* \"Assignments/Lecture 6/AssetFactory.sol\":618:625  1 ether */\n          0x0de0b6b3a7640000\n            /* \"Assignments/Lecture 6/AssetFactory.sol\":601:615  initialSupply_ */\n          dup2\n            /* \"Assignments/Lecture 6/AssetFactory.sol\":601:625  initialSupply_ * 1 ether */\n          tag_9\n          swap2\n          swap1\n          tag_10\n          jump\t// in\n        tag_9:\n            /* \"Assignments/Lecture 6/AssetFactory.sol\":592:598  supply */\n          0x02\n            /* \"Assignments/Lecture 6/AssetFactory.sol\":592:625  supply = initialSupply_ * 1 ether */\n          dup2\n          swap1\n          sstore\n          pop\n            /* \"Assignments/Lecture 6/AssetFactory.sol\":454:632  constructor(string memory name_, string memory ticker_, uint256 initialSupply_) {... */\n          pop\n          pop\n          pop\n            /* \"Assignments/Lecture 6/AssetFactory.sol\":312:1146  contract Asset  {... */\n          jump(tag_11)\n            /* \"#utility.yul\":7:82   */\n        tag_12:\n            /* \"#utility.yul\":40:46   */\n          0x00\n            /* \"#utility.yul\":73:75   */\n          0x40\n            /* \"#utility.yul\":67:76   */\n          mload\n            /* \"#utility.yul\":57:76   */\n          swap1\n          pop\n            /* \"#utility.yul\":7:82   */\n          swap1\n          jump\t// out\n            /* \"#utility.yul\":88:205   */\n        tag_13:\n            /* \"#utility.yul\":197:198   */\n          0x00\n            /* \"#utility.yul\":194:195   */\n          dup1\n            /* \"#utility.yul\":187:199   */\n          revert\n            /* \"#utility.yul\":211:328   */\n        tag_14:\n            /* \"#utility.yul\":320:321   */\n          0x00\n            /* \"#utility.yul\":317:318   */\n          dup1\n            /* \"#utility.yul\":310:322   */\n          revert\n            /* \"#utility.yul\":334:451   */\n        tag_15:\n            /* \"#utility.yul\":443:444   */\n          0x00\n            /* \"#utility.yul\":440:441   */\n          dup1\n            /* \"#utility.yul\":433:445   */\n          revert\n            /* \"#utility.yul\":457:574   */\n        tag_16:\n            /* \"#utility.yul\":566:567   */\n          0x00\n            /* \"#utility.yul\":563:564   */\n          dup1\n            /* \"#utility.yul\":556:568   */\n          revert\n            /* \"#utility.yul\":580:682   */\n        tag_17:\n            /* \"#utility.yul\":621:627   */\n          0x00\n            /* \"#utility.yul\":672:674   */\n          0x1f\n            /* \"#utility.yul\":668:675   */\n          not\n            /* \"#utility.yul\":663:665   */\n          0x1f\n            /* \"#utility.yul\":656:661   */\n          dup4\n            /* \"#utility.yul\":652:666   */\n          add\n            /* \"#utility.yul\":648:676   */\n          and\n            /* \"#utility.yul\":638:676   */\n          swap1\n          pop\n            /* \"#utility.yul\":580:682   */\n          swap2\n          swap1\n          pop\n          jump\t// out\n            /* \"#utility.yul\":688:868   */\n        tag_18:\n            /* \"#utility.yul\":736:813   */\n          0x4e487b7100000000000000000000000000000000000000000000000000000000\n            /* \"#utility.yul\":733:734   */\n          0x00\n            /* \"#utility.yul\":726:814   */\n          mstore\n            /* \"#utility.yul\":833:837   */\n          0x41\n            /* \"#utility.yul\":830:831   */\n          0x04\n            /* \"#utility.yul\":823:838   */\n          mstore\n            /* \"#utility.yul\":857:861   */\n          0x24\n            /* \"#utility.yul\":854:855   */\n          0x00\n            /* \"#utility.yul\":847:862   */\n          revert\n            /* \"#utility.yul\":874:1155   */\n        tag_19:\n            /* \"#utility.yul\":957:984   */\n          tag_56\n            /* \"#utility.yul\":979:983   */\n          dup3\n            /* \"#utility.yul\":957:984   */\n          tag_17\n          jump\t// in\n        tag_56:\n            /* \"#utility.yul\":949:955   */\n          dup2\n            /* \"#utility.yul\":945:985   */\n          add\n            /* \"#utility.yul\":1087:1093   */\n          dup2\n            /* \"#utility.yul\":1075:1085   */\n          dup2\n            /* \"#utility.yul\":1072:1094   */\n          lt\n            /* \"#utility.yul\":1051:1069   */\n          0xffffffffffffffff\n            /* \"#utility.yul\":1039:1049   */\n          dup3\n            /* \"#utility.yul\":1036:1070   */\n          gt\n            /* \"#utility.yul\":1033:1095   */\n          or\n            /* \"#utility.yul\":1030:1118   */\n          iszero\n          tag_57\n          jumpi\n            /* \"#utility.yul\":1098:1116   */\n          tag_58\n          tag_18\n          jump\t// in\n        tag_58:\n            /* \"#utility.yul\":1030:1118   */\n        tag_57:\n            /* \"#utility.yul\":1138:1148   */\n          dup1\n            /* \"#utility.yul\":1134:1136   */\n          0x40\n            /* \"#utility.yul\":1127:1149   */\n          mstore\n            /* \"#utility.yul\":917:1155   */\n          pop\n            /* \"#utility.yul\":874:1155   */\n          pop\n          pop\n          jump\t// out\n            /* \"#utility.yul\":1161:1290   */\n        tag_20:\n            /* \"#utility.yul\":1195:1201   */\n          0x00\n            /* \"#utility.yul\":1222:1242   */\n          tag_60\n          tag_12\n          jump\t// in\n        tag_60:\n            /* \"#utility.yul\":1212:1242   */\n          swap1\n          pop\n            /* \"#utility.yul\":1251:1284   */\n          tag_61\n            /* \"#utility.yul\":1279:1283   */\n          dup3\n            /* \"#utility.yul\":1271:1277   */\n          dup3\n            /* \"#utility.yul\":1251:1284   */\n          tag_19\n          jump\t// in\n        tag_61:\n            /* \"#utility.yul\":1161:1290   */\n          swap2\n          swap1\n          pop\n          jump\t// out\n            /* \"#utility.yul\":1296:1604   */\n        tag_21:\n            /* \"#utility.yul\":1358:1362   */\n          0x00\n            /* \"#utility.yul\":1448:1466   */\n          0xffffffffffffffff\n            /* \"#utility.yul\":1440:1446   */\n          dup3\n            /* \"#utility.yul\":1437:1467   */\n          gt\n            /* \"#utility.yul\":1434:1490   */\n          iszero\n          tag_63\n          jumpi\n            /* \"#utility.yul\":1470:1488   */\n          tag_64\n          tag_18\n          jump\t// in\n        tag_64:\n            /* \"#utility.yul\":1434:1490   */\n        tag_63:\n            /* \"#utility.yul\":1508:1537   */\n          tag_65\n            /* \"#utility.yul\":1530:1536   */\n          dup3\n            /* \"#utility.yul\":1508:1537   */\n          tag_17\n          jump\t// in\n        tag_65:\n            /* \"#utility.yul\":1500:1537   */\n          swap1\n          pop\n            /* \"#utility.yul\":1592:1596   */\n          0x20\n            /* \"#utility.yul\":1586:1590   */\n          dup2\n            /* \"#utility.yul\":1582:1597   */\n          add\n            /* \"#utility.yul\":1574:1597   */\n          swap1\n          pop\n            /* \"#utility.yul\":1296:1604   */\n          swap2\n          swap1\n          pop\n          jump\t// out\n            /* \"#utility.yul\":1610:1749   */\n        tag_22:\n            /* \"#utility.yul\":1699:1705   */\n          dup3\n            /* \"#utility.yul\":1694:1697   */\n          dup2\n            /* \"#utility.yul\":1689:1692   */\n          dup4\n            /* \"#utility.yul\":1683:1706   */\n          mcopy\n            /* \"#utility.yul\":1740:1741   */\n          0x00\n            /* \"#utility.yul\":1731:1737   */\n          dup4\n            /* \"#utility.yul\":1726:1729   */\n          dup4\n            /* \"#utility.yul\":1722:1738   */\n          add\n            /* \"#utility.yul\":1715:1742   */\n          mstore\n            /* \"#utility.yul\":1610:1749   */\n          pop\n          pop\n          pop\n          jump\t// out\n            /* \"#utility.yul\":1755:2189   */\n        tag_23:\n            /* \"#utility.yul\":1844:1849   */\n          0x00\n            /* \"#utility.yul\":1869:1935   */\n          tag_68\n            /* \"#utility.yul\":1885:1934   */\n          tag_69\n            /* \"#utility.yul\":1927:1933   */\n          dup5\n            /* \"#utility.yul\":1885:1934   */\n          tag_21\n          jump\t// in\n        tag_69:\n            /* \"#utility.yul\":1869:1935   */\n          tag_20\n          jump\t// in\n        tag_68:\n            /* \"#utility.yul\":1860:1935   */\n          swap1\n          pop\n            /* \"#utility.yul\":1958:1964   */\n          dup3\n            /* \"#utility.yul\":1951:1956   */\n          dup2\n            /* \"#utility.yul\":1944:1965   */\n          mstore\n            /* \"#utility.yul\":1996:2000   */\n          0x20\n            /* \"#utility.yul\":1989:1994   */\n          dup2\n            /* \"#utility.yul\":1985:2001   */\n          add\n            /* \"#utility.yul\":2034:2037   */\n          dup5\n            /* \"#utility.yul\":2025:2031   */\n          dup5\n            /* \"#utility.yul\":2020:2023   */\n          dup5\n            /* \"#utility.yul\":2016:2032   */\n          add\n            /* \"#utility.yul\":2013:2038   */\n          gt\n            /* \"#utility.yul\":2010:2122   */\n          iszero\n          tag_70\n          jumpi\n            /* \"#utility.yul\":2041:2120   */\n          tag_71\n          tag_16\n          jump\t// in\n        tag_71:\n            /* \"#utility.yul\":2010:2122   */\n        tag_70:\n            /* \"#utility.yul\":2131:2183   */\n          tag_72\n            /* \"#utility.yul\":2176:2182   */\n          dup5\n            /* \"#utility.yul\":2171:2174   */\n          dup3\n            /* \"#utility.yul\":2166:2169   */\n          dup6\n            /* \"#utility.yul\":2131:2183   */\n          tag_22\n          jump\t// in\n        tag_72:\n            /* \"#utility.yul\":1850:2189   */\n          pop\n            /* \"#utility.yul\":1755:2189   */\n          swap4\n          swap3\n          pop\n          pop\n          pop\n          jump\t// out\n            /* \"#utility.yul\":2209:2564   */\n        tag_24:\n            /* \"#utility.yul\":2276:2281   */\n          0x00\n            /* \"#utility.yul\":2325:2328   */\n          dup3\n            /* \"#utility.yul\":2318:2322   */\n          0x1f\n            /* \"#utility.yul\":2310:2316   */\n          dup4\n            /* \"#utility.yul\":2306:2323   */\n          add\n            /* \"#utility.yul\":2302:2329   */\n          slt\n            /* \"#utility.yul\":2292:2414   */\n          tag_74\n          jumpi\n            /* \"#utility.yul\":2333:2412   */\n          tag_75\n          tag_15\n          jump\t// in\n        tag_75:\n            /* \"#utility.yul\":2292:2414   */\n        tag_74:\n            /* \"#utility.yul\":2443:2449   */\n          dup2\n            /* \"#utility.yul\":2437:2450   */\n          mload\n            /* \"#utility.yul\":2468:2558   */\n          tag_76\n            /* \"#utility.yul\":2554:2557   */\n          dup5\n            /* \"#utility.yul\":2546:2552   */\n          dup3\n            /* \"#utility.yul\":2539:2543   */\n          0x20\n            /* \"#utility.yul\":2531:2537   */\n          dup7\n            /* \"#utility.yul\":2527:2544   */\n          add\n            /* \"#utility.yul\":2468:2558   */\n          tag_23\n          jump\t// in\n        tag_76:\n            /* \"#utility.yul\":2459:2558   */\n          swap2\n          pop\n            /* \"#utility.yul\":2282:2564   */\n          pop\n            /* \"#utility.yul\":2209:2564   */\n          swap3\n          swap2\n          pop\n          pop\n          jump\t// out\n            /* \"#utility.yul\":2570:2647   */\n        tag_25:\n            /* \"#utility.yul\":2607:2614   */\n          0x00\n            /* \"#utility.yul\":2636:2641   */\n          dup2\n            /* \"#utility.yul\":2625:2641   */\n          swap1\n          pop\n            /* \"#utility.yul\":2570:2647   */\n          swap2\n          swap1\n          pop\n          jump\t// out\n            /* \"#utility.yul\":2653:2775   */\n        tag_26:\n            /* \"#utility.yul\":2726:2750   */\n          tag_79\n            /* \"#utility.yul\":2744:2749   */\n          dup2\n            /* \"#utility.yul\":2726:2750   */\n          tag_25\n          jump\t// in\n        tag_79:\n            /* \"#utility.yul\":2719:2724   */\n          dup2\n            /* \"#utility.yul\":2716:2751   */\n          eq\n            /* \"#utility.yul\":2706:2769   */\n          tag_80\n          jumpi\n            /* \"#utility.yul\":2765:2766   */\n          0x00\n            /* \"#utility.yul\":2762:2763   */\n          dup1\n            /* \"#utility.yul\":2755:2767   */\n          revert\n            /* \"#utility.yul\":2706:2769   */\n        tag_80:\n            /* \"#utility.yul\":2653:2775   */\n          pop\n          jump\t// out\n            /* \"#utility.yul\":2781:2924   */\n        tag_27:\n            /* \"#utility.yul\":2838:2843   */\n          0x00\n            /* \"#utility.yul\":2869:2875   */\n          dup2\n            /* \"#utility.yul\":2863:2876   */\n          mload\n            /* \"#utility.yul\":2854:2876   */\n          swap1\n          pop\n            /* \"#utility.yul\":2885:2918   */\n          tag_82\n            /* \"#utility.yul\":2912:2917   */\n          dup2\n            /* \"#utility.yul\":2885:2918   */\n          tag_26\n          jump\t// in\n        tag_82:\n            /* \"#utility.yul\":2781:2924   */\n          swap3\n          swap2\n          pop\n          pop\n          jump\t// out\n            /* \"#utility.yul\":2930:3939   */\n        tag_3:\n            /* \"#utility.yul\":3038:3044   */\n          0x00\n            /* \"#utility.yul\":3046:3052   */\n          dup1\n            /* \"#utility.yul\":3054:3060   */\n          0x00\n            /* \"#utility.yul\":3103:3105   */\n          0x60\n            /* \"#utility.yul\":3091:3100   */\n          dup5\n            /* \"#utility.yul\":3082:3089   */\n          dup7\n            /* \"#utility.yul\":3078:3101   */\n          sub\n            /* \"#utility.yul\":3074:3106   */\n          slt\n            /* \"#utility.yul\":3071:3190   */\n          iszero\n          tag_84\n          jumpi\n            /* \"#utility.yul\":3109:3188   */\n          tag_85\n          tag_13\n          jump\t// in\n        tag_85:\n            /* \"#utility.yul\":3071:3190   */\n        tag_84:\n            /* \"#utility.yul\":3250:3251   */\n          0x00\n            /* \"#utility.yul\":3239:3248   */\n          dup5\n            /* \"#utility.yul\":3235:3252   */\n          add\n            /* \"#utility.yul\":3229:3253   */\n          mload\n            /* \"#utility.yul\":3280:3298   */\n          0xffffffffffffffff\n            /* \"#utility.yul\":3272:3278   */\n          dup2\n            /* \"#utility.yul\":3269:3299   */\n          gt\n            /* \"#utility.yul\":3266:3383   */\n          iszero\n          tag_86\n          jumpi\n            /* \"#utility.yul\":3302:3381   */\n          tag_87\n          tag_14\n          jump\t// in\n        tag_87:\n            /* \"#utility.yul\":3266:3383   */\n        tag_86:\n            /* \"#utility.yul\":3407:3481   */\n          tag_88\n            /* \"#utility.yul\":3473:3480   */\n          dup7\n            /* \"#utility.yul\":3464:3470   */\n          dup3\n            /* \"#utility.yul\":3453:3462   */\n          dup8\n            /* \"#utility.yul\":3449:3471   */\n          add\n            /* \"#utility.yul\":3407:3481   */\n          tag_24\n          jump\t// in\n        tag_88:\n            /* \"#utility.yul\":3397:3481   */\n          swap4\n          pop\n            /* \"#utility.yul\":3200:3491   */\n          pop\n            /* \"#utility.yul\":3551:3553   */\n          0x20\n            /* \"#utility.yul\":3540:3549   */\n          dup5\n            /* \"#utility.yul\":3536:3554   */\n          add\n            /* \"#utility.yul\":3530:3555   */\n          mload\n            /* \"#utility.yul\":3582:3600   */\n          0xffffffffffffffff\n            /* \"#utility.yul\":3574:3580   */\n          dup2\n            /* \"#utility.yul\":3571:3601   */\n          gt\n            /* \"#utility.yul\":3568:3685   */\n          iszero\n          tag_89\n          jumpi\n            /* \"#utility.yul\":3604:3683   */\n          tag_90\n          tag_14\n          jump\t// in\n        tag_90:\n            /* \"#utility.yul\":3568:3685   */\n        tag_89:\n            /* \"#utility.yul\":3709:3783   */\n          tag_91\n            /* \"#utility.yul\":3775:3782   */\n          dup7\n            /* \"#utility.yul\":3766:3772   */\n          dup3\n            /* \"#utility.yul\":3755:3764   */\n          dup8\n            /* \"#utility.yul\":3751:3773   */\n          add\n            /* \"#utility.yul\":3709:3783   */\n          tag_24\n          jump\t// in\n        tag_91:\n            /* \"#utility.yul\":3699:3783   */\n          swap3\n          pop\n            /* \"#utility.yul\":3501:3793   */\n          pop\n            /* \"#utility.yul\":3832:3834   */\n          0x40\n            /* \"#utility.yul\":3858:3922   */\n          tag_92\n            /* \"#utility.yul\":3914:3921   */\n          dup7\n            /* \"#utility.yul\":3905:3911   */\n          dup3\n            /* \"#utility.yul\":3894:3903   */\n          dup8\n            /* \"#utility.yul\":3890:3912   */\n          add\n            /* \"#utility.yul\":3858:3922   */\n          tag_27\n          jump\t// in\n        tag_92:\n            /* \"#utility.yul\":3848:3922   */\n          swap2\n          pop\n            /* \"#utility.yul\":3803:3932   */\n          pop\n            /* \"#utility.yul\":2930:3939   */\n          swap3\n          pop\n          swap3\n          pop\n          swap3\n          jump\t// out\n            /* \"#utility.yul\":3945:4044   */\n        tag_28:\n            /* \"#utility.yul\":3997:4003   */\n          0x00\n            /* \"#utility.yul\":4031:4036   */\n          dup2\n            /* \"#utility.yul\":4025:4037   */\n          mload\n            /* \"#utility.yul\":4015:4037   */\n          swap1\n          pop\n            /* \"#utility.yul\":3945:4044   */\n          swap2\n          swap1\n          pop\n          jump\t// out\n            /* \"#utility.yul\":4050:4230   */\n        tag_29:\n            /* \"#utility.yul\":4098:4175   */\n          0x4e487b7100000000000000000000000000000000000000000000000000000000\n            /* \"#utility.yul\":4095:4096   */\n          0x00\n            /* \"#utility.yul\":4088:4176   */\n          mstore\n            /* \"#utility.yul\":4195:4199   */\n          0x22\n            /* \"#utility.yul\":4192:4193   */\n          0x04\n            /* \"#utility.yul\":4185:4200   */\n          mstore\n            /* \"#utility.yul\":4219:4223   */\n          0x24\n            /* \"#utility.yul\":4216:4217   */\n          0x00\n            /* \"#utility.yul\":4209:4224   */\n          revert\n            /* \"#utility.yul\":4236:4556   */\n        tag_30:\n            /* \"#utility.yul\":4280:4286   */\n          0x00\n            /* \"#utility.yul\":4317:4318   */\n          0x02\n            /* \"#utility.yul\":4311:4315   */\n          dup3\n            /* \"#utility.yul\":4307:4319   */\n          div\n            /* \"#utility.yul\":4297:4319   */\n          swap1\n          pop\n            /* \"#utility.yul\":4364:4365   */\n          0x01\n            /* \"#utility.yul\":4358:4362   */\n          dup3\n            /* \"#utility.yul\":4354:4366   */\n          and\n            /* \"#utility.yul\":4385:4403   */\n          dup1\n            /* \"#utility.yul\":4375:4456   */\n          tag_96\n          jumpi\n            /* \"#utility.yul\":4441:4445   */\n          0x7f\n            /* \"#utility.yul\":4433:4439   */\n          dup3\n            /* \"#utility.yul\":4429:4446   */\n          and\n            /* \"#utility.yul\":4419:4446   */\n          swap2\n          pop\n            /* \"#utility.yul\":4375:4456   */\n        tag_96:\n            /* \"#utility.yul\":4503:4505   */\n          0x20\n            /* \"#utility.yul\":4495:4501   */\n          dup3\n            /* \"#utility.yul\":4492:4506   */\n          lt\n            /* \"#utility.yul\":4472:4490   */\n          dup2\n            /* \"#utility.yul\":4469:4507   */\n          sub\n            /* \"#utility.yul\":4466:4550   */\n          tag_97\n          jumpi\n            /* \"#utility.yul\":4522:4540   */\n          tag_98\n          tag_29\n          jump\t// in\n        tag_98:\n            /* \"#utility.yul\":4466:4550   */\n        tag_97:\n            /* \"#utility.yul\":4287:4556   */\n          pop\n            /* \"#utility.yul\":4236:4556   */\n          swap2\n          swap1\n          pop\n          jump\t// out\n            /* \"#utility.yul\":4562:4703   */\n        tag_31:\n            /* \"#utility.yul\":4611:4615   */\n          0x00\n            /* \"#utility.yul\":4634:4637   */\n          dup2\n            /* \"#utility.yul\":4626:4637   */\n          swap1\n          pop\n            /* \"#utility.yul\":4657:4660   */\n          dup2\n            /* \"#utility.yul\":4654:4655   */\n          0x00\n            /* \"#utility.yul\":4647:4661   */\n          mstore\n            /* \"#utility.yul\":4691:4695   */\n          0x20\n            /* \"#utility.yul\":4688:4689   */\n          0x00\n            /* \"#utility.yul\":4678:4696   */\n          keccak256\n            /* \"#utility.yul\":4670:4696   */\n          swap1\n          pop\n            /* \"#utility.yul\":4562:4703   */\n          swap2\n          swap1\n          pop\n          jump\t// out\n            /* \"#utility.yul\":4709:4802   */\n        tag_32:\n            /* \"#utility.yul\":4746:4752   */\n          0x00\n            /* \"#utility.yul\":4793:4795   */\n          0x20\n            /* \"#utility.yul\":4788:4790   */\n          0x1f\n            /* \"#utility.yul\":4781:4786   */\n          dup4\n            /* \"#utility.yul\":4777:4791   */\n          add\n            /* \"#utility.yul\":4773:4796   */\n          div\n            /* \"#utility.yul\":4763:4796   */\n          swap1\n          pop\n            /* \"#utility.yul\":4709:4802   */\n          swap2\n          swap1\n          pop\n          jump\t// out\n            /* \"#utility.yul\":4808:4915   */\n        tag_33:\n            /* \"#utility.yul\":4852:4860   */\n          0x00\n            /* \"#utility.yul\":4902:4907   */\n          dup3\n            /* \"#utility.yul\":4896:4900   */\n          dup3\n            /* \"#utility.yul\":4892:4908   */\n          shl\n            /* \"#utility.yul\":4871:4908   */\n          swap1\n          pop\n            /* \"#utility.yul\":4808:4915   */\n          swap3\n          swap2\n          pop\n          pop\n          jump\t// out\n            /* \"#utility.yul\":4921:5314   */\n        tag_34:\n            /* \"#utility.yul\":4990:4996   */\n          0x00\n            /* \"#utility.yul\":5040:5041   */\n          0x08\n            /* \"#utility.yul\":5028:5038   */\n          dup4\n            /* \"#utility.yul\":5024:5042   */\n          mul\n            /* \"#utility.yul\":5063:5160   */\n          tag_103\n            /* \"#utility.yul\":5093:5159   */\n          0xffffffffffffffffffffffffffffffffffffffffffffffffffffffffffffffff\n            /* \"#utility.yul\":5082:5091   */\n          dup3\n            /* \"#utility.yul\":5063:5160   */\n          tag_33\n          jump\t// in\n        tag_103:\n            /* \"#utility.yul\":5181:5220   */\n          tag_104\n            /* \"#utility.yul\":5211:5219   */\n          dup7\n            /* \"#utility.yul\":5200:5209   */\n          dup4\n            /* \"#utility.yul\":5181:5220   */\n          tag_33\n          jump\t// in\n        tag_104:\n            /* \"#utility.yul\":5169:5220   */\n          swap6\n          pop\n            /* \"#utility.yul\":5253:5257   */\n          dup1\n            /* \"#utility.yul\":5249:5258   */\n          not\n            /* \"#utility.yul\":5242:5247   */\n          dup5\n            /* \"#utility.yul\":5238:5259   */\n          and\n            /* \"#utility.yul\":5229:5259   */\n          swap4\n          pop\n            /* \"#utility.yul\":5302:5306   */\n          dup1\n            /* \"#utility.yul\":5292:5300   */\n          dup7\n            /* \"#utility.yul\":5288:5307   */\n          and\n            /* \"#utility.yul\":5281:5286   */\n          dup5\n            /* \"#utility.yul\":5278:5308   */\n          or\n            /* \"#utility.yul\":5268:5308   */\n          swap3\n          pop\n            /* \"#utility.yul\":4997:5314   */\n          pop\n          pop\n            /* \"#utility.yul\":4921:5314   */\n          swap4\n          swap3\n          pop\n          pop\n          pop\n          jump\t// out\n            /* \"#utility.yul\":5320:5380   */\n        tag_35:\n            /* \"#utility.yul\":5348:5351   */\n          0x00\n            /* \"#utility.yul\":5369:5374   */\n          dup2\n            /* \"#utility.yul\":5362:5374   */\n          swap1\n          pop\n            /* \"#utility.yul\":5320:5380   */\n          swap2\n          swap1\n          pop\n          jump\t// out\n            /* \"#utility.yul\":5386:5528   */\n        tag_36:\n            /* \"#utility.yul\":5436:5445   */\n          0x00\n            /* \"#utility.yul\":5469:5522   */\n          tag_107\n            /* \"#utility.yul\":5487:5521   */\n          tag_108\n            /* \"#utility.yul\":5496:5520   */\n          tag_109\n            /* \"#utility.yul\":5514:5519   */\n          dup5\n            /* \"#utility.yul\":5496:5520   */\n          tag_25\n          jump\t// in\n        tag_109:\n            /* \"#utility.yul\":5487:5521   */\n          tag_35\n          jump\t// in\n        tag_108:\n            /* \"#utility.yul\":5469:5522   */\n          tag_25\n          jump\t// in\n        tag_107:\n            /* \"#utility.yul\":5456:5522   */\n          swap1\n          pop\n            /* \"#utility.yul\":5386:5528   */\n          swap2\n          swap1\n          pop\n          jump\t// out\n            /* \"#utility.yul\":5534:5609   */\n        tag_37:\n            /* \"#utility.yul\":5577:5580   */\n          0x00\n            /* \"#utility.yul\":5598:5603   */\n          dup2\n            /* \"#utility.yul\":5591:5603   */\n          swap1\n          pop\n            /* \"#utility.yul\":5534:5609   */\n          swap2\n          swap1\n          pop\n          jump\t// out\n            /* \"#utility.yul\":5615:5884   */\n        tag_38:\n            /* \"#utility.yul\":5725:5764   */\n          tag_112\n            /* \"#utility.yul\":5756:5763   */\n          dup4\n            /* \"#utility.yul\":5725:5764   */\n          tag_36\n          jump\t// in\n        tag_112:\n            /* \"#utility.yul\":5786:5877   */\n          tag_113\n            /* \"#utility.yul\":5835:5876   */\n          tag_114\n            /* \"#utility.yul\":5859:5875   */\n          dup3\n            /* \"#utility.yul\":5835:5876   */\n          tag_37\n          jump\t// in\n        tag_114:\n            /* \"#utility.yul\":5827:5833   */\n          dup5\n            /* \"#utility.yul\":5820:5824   */\n          dup5\n            /* \"#utility.yul\":5814:5825   */\n          sload\n            /* \"#utility.yul\":5786:5877   */\n          tag_34\n          jump\t// in\n        tag_113:\n            /* \"#utility.yul\":5780:5784   */\n          dup3\n            /* \"#utility.yul\":5773:5878   */\n          sstore\n            /* \"#utility.yul\":5691:5884   */\n          pop\n            /* \"#utility.yul\":5615:5884   */\n          pop\n          pop\n          pop\n          jump\t// out\n            /* \"#utility.yul\":5890:5963   */\n        tag_39:\n            /* \"#utility.yul\":5935:5938   */\n          0x00\n            /* \"#utility.yul\":5890:5963   */\n          swap1\n          jump\t// out\n            /* \"#utility.yul\":5969:6158   */\n        tag_40:\n            /* \"#utility.yul\":6046:6078   */\n          tag_117\n          tag_39\n          jump\t// in\n        tag_117:\n            /* \"#utility.yul\":6087:6152   */\n          tag_118\n            /* \"#utility.yul\":6145:6151   */\n          dup2\n            /* \"#utility.yul\":6137:6143   */\n          dup5\n            /* \"#utility.yul\":6131:6135   */\n          dup5\n            /* \"#utility.yul\":6087:6152   */\n          tag_38\n          jump\t// in\n        tag_118:\n            /* \"#utility.yul\":6022:6158   */\n          pop\n            /* \"#utility.yul\":5969:6158   */\n          pop\n          pop\n          jump\t// out\n            /* \"#utility.yul\":6164:6350   */\n        tag_41:\n            /* \"#utility.yul\":6224:6344   */\n        tag_120:\n            /* \"#utility.yul\":6241:6244   */\n          dup2\n            /* \"#utility.yul\":6234:6239   */\n          dup2\n            /* \"#utility.yul\":6231:6245   */\n          lt\n            /* \"#utility.yul\":6224:6344   */\n          iszero\n          tag_122\n          jumpi\n            /* \"#utility.yul\":6295:6334   */\n          tag_123\n            /* \"#utility.yul\":6332:6333   */\n          0x00\n            /* \"#utility.yul\":6325:6330   */\n          dup3\n            /* \"#utility.yul\":6295:6334   */\n          tag_40\n          jump\t// in\n        tag_123:\n            /* \"#utility.yul\":6268:6269   */\n          0x01\n            /* \"#utility.yul\":6261:6266   */\n          dup2\n            /* \"#utility.yul\":6257:6270   */\n          add\n            /* \"#utility.yul\":6248:6270   */\n          swap1\n          pop\n            /* \"#utility.yul\":6224:6344   */\n          jump(tag_120)\n        tag_122:\n            /* \"#utility.yul\":6164:6350   */\n          pop\n          pop\n          jump\t// out\n            /* \"#utility.yul\":6356:6899   */\n        tag_42:\n            /* \"#utility.yul\":6457:6459   */\n          0x1f\n            /* \"#utility.yul\":6452:6455   */\n          dup3\n            /* \"#utility.yul\":6449:6460   */\n          gt\n            /* \"#utility.yul\":6446:6892   */\n          iszero\n          tag_125\n          jumpi\n            /* \"#utility.yul\":6491:6529   */\n          tag_126\n            /* \"#utility.yul\":6523:6528   */\n          dup2\n            /* \"#utility.yul\":6491:6529   */\n          tag_31\n          jump\t// in\n        tag_126:\n            /* \"#utility.yul\":6575:6604   */\n          tag_127\n            /* \"#utility.yul\":6593:6603   */\n          dup5\n            /* \"#utility.yul\":6575:6604   */\n          tag_32\n          jump\t// in\n        tag_127:\n            /* \"#utility.yul\":6565:6573   */\n          dup2\n            /* \"#utility.yul\":6561:6605   */\n          add\n            /* \"#utility.yul\":6758:6760   */\n          0x20\n            /* \"#utility.yul\":6746:6756   */\n          dup6\n            /* \"#utility.yul\":6743:6761   */\n          lt\n            /* \"#utility.yul\":6740:6789   */\n          iszero\n          tag_128\n          jumpi\n            /* \"#utility.yul\":6779:6787   */\n          dup2\n            /* \"#utility.yul\":6764:6787   */\n          swap1\n          pop\n            /* \"#utility.yul\":6740:6789   */\n        tag_128:\n            /* \"#utility.yul\":6802:6882   */\n          tag_129\n            /* \"#utility.yul\":6858:6880   */\n          tag_130\n            /* \"#utility.yul\":6876:6879   */\n          dup6\n            /* \"#utility.yul\":6858:6880   */\n          tag_32\n          jump\t// in\n        tag_130:\n            /* \"#utility.yul\":6848:6856   */\n          dup4\n            /* \"#utility.yul\":6844:6881   */\n          add\n            /* \"#utility.yul\":6831:6842   */\n          dup3\n            /* \"#utility.yul\":6802:6882   */\n          tag_41\n          jump\t// in\n        tag_129:\n            /* \"#utility.yul\":6461:6892   */\n          pop\n          pop\n            /* \"#utility.yul\":6446:6892   */\n        tag_125:\n            /* \"#utility.yul\":6356:6899   */\n          pop\n          pop\n          pop\n          jump\t// out\n            /* \"#utility.yul\":6905:7022   */\n        tag_43:\n            /* \"#utility.yul\":6959:6967   */\n          0x00\n            /* \"#utility.yul\":7009:7014   */\n          dup3\n            /* \"#utility.yul\":7003:7007   */\n          dup3\n            /* \"#utility.yul\":6999:7015   */\n          shr\n            /* \"#utility.yul\":6978:7015   */\n          swap1\n          pop\n            /* \"#utility.yul\":6905:7022   */\n          swap3\n          swap2\n          pop\n          pop\n          jump\t// out\n            /* \"#utility.yul\":7028:7197   */\n        tag_44:\n            /* \"#utility.yul\":7072:7078   */\n          0x00\n            /* \"#utility.yul\":7105:7156   */\n          tag_133\n            /* \"#utility.yul\":7153:7154   */\n          0x00\n            /* \"#utility.yul\":7149:7155   */\n          not\n            /* \"#utility.yul\":7141:7146   */\n          dup5\n            /* \"#utility.yul\":7138:7139   */\n          0x08\n            /* \"#utility.yul\":7134:7147   */\n          mul\n            /* \"#utility.yul\":7105:7156   */\n          tag_43\n          jump\t// in\n        tag_133:\n            /* \"#utility.yul\":7101:7157   */\n          not\n            /* \"#utility.yul\":7186:7190   */\n          dup1\n            /* \"#utility.yul\":7180:7184   */\n          dup4\n            /* \"#utility.yul\":7176:7191   */\n          and\n            /* \"#utility.yul\":7166:7191   */\n          swap2\n          pop\n            /* \"#utility.yul\":7079:7197   */\n          pop\n            /* \"#utility.yul\":7028:7197   */\n          swap3\n          swap2\n          pop\n          pop\n          jump\t// out\n            /* \"#utility.yul\":7202:7497   */\n        tag_45:\n            /* \"#utility.yul\":7278:7282   */\n          0x00\n            /* \"#utility.yul\":7424:7453   */\n          tag_135\n            /* \"#utility.yul\":7449:7452   */\n          dup4\n            /* \"#utility.yul\":7443:7447   */\n          dup4\n            /* \"#utility.yul\":7424:7453   */\n          tag_44\n          jump\t// in\n        tag_135:\n            /* \"#utility.yul\":7416:7453   */\n          swap2\n          pop\n            /* \"#utility.yul\":7486:7489   */\n          dup3\n            /* \"#utility.yul\":7483:7484   */\n          0x02\n            /* \"#utility.yul\":7479:7490   */\n          mul\n            /* \"#utility.yul\":7473:7477   */\n          dup3\n            /* \"#utility.yul\":7470:7491   */\n          or\n            /* \"#utility.yul\":7462:7491   */\n          swap1\n          pop\n            /* \"#utility.yul\":7202:7497   */\n          swap3\n          swap2\n          pop\n          pop\n          jump\t// out\n            /* \"#utility.yul\":7502:8897   */\n        tag_7:\n            /* \"#utility.yul\":7619:7656   */\n          tag_137\n            /* \"#utility.yul\":7652:7655   */\n          dup3\n            /* \"#utility.yul\":7619:7656   */\n          tag_28\n          jump\t// in\n        tag_137:\n            /* \"#utility.yul\":7721:7739   */\n          0xffffffffffffffff\n            /* \"#utility.yul\":7713:7719   */\n          dup2\n            /* \"#utility.yul\":7710:7740   */\n          gt\n            /* \"#utility.yul\":7707:7763   */\n          iszero\n          tag_138\n          jumpi\n            /* \"#utility.yul\":7743:7761   */\n          tag_139\n          tag_18\n          jump\t// in\n        tag_139:\n            /* \"#utility.yul\":7707:7763   */\n        tag_138:\n            /* \"#utility.yul\":7787:7825   */\n          tag_140\n            /* \"#utility.yul\":7819:7823   */\n          dup3\n            /* \"#utility.yul\":7813:7824   */\n          sload\n            /* \"#utility.yul\":7787:7825   */\n          tag_30\n          jump\t// in\n        tag_140:\n            /* \"#utility.yul\":7872:7939   */\n          tag_141\n            /* \"#utility.yul\":7932:7938   */\n          dup3\n            /* \"#utility.yul\":7924:7930   */\n          dup3\n            /* \"#utility.yul\":7918:7922   */\n          dup6\n            /* \"#utility.yul\":7872:7939   */\n          tag_42\n          jump\t// in\n        tag_141:\n            /* \"#utility.yul\":7966:7967   */\n          0x00\n            /* \"#utility.yul\":7990:7994   */\n          0x20\n            /* \"#utility.yul\":7977:7994   */\n          swap1\n          pop\n            /* \"#utility.yul\":8022:8024   */\n          0x1f\n            /* \"#utility.yul\":8014:8020   */\n          dup4\n            /* \"#utility.yul\":8011:8025   */\n          gt\n            /* \"#utility.yul\":8039:8040   */\n          0x01\n            /* \"#utility.yul\":8034:8652   */\n          dup2\n          eq\n          tag_143\n          jumpi\n            /* \"#utility.yul\":8696:8697   */\n          0x00\n            /* \"#utility.yul\":8713:8719   */\n          dup5\n            /* \"#utility.yul\":8710:8787   */\n          iszero\n          tag_144\n          jumpi\n            /* \"#utility.yul\":8762:8771   */\n          dup3\n            /* \"#utility.yul\":8757:8760   */\n          dup8\n            /* \"#utility.yul\":8753:8772   */\n          add\n            /* \"#utility.yul\":8747:8773   */\n          mload\n            /* \"#utility.yul\":8738:8773   */\n          swap1\n          pop\n            /* \"#utility.yul\":8710:8787   */\n        tag_144:\n            /* \"#utility.yul\":8813:8880   */\n          tag_145\n            /* \"#utility.yul\":8873:8879   */\n          dup6\n            /* \"#utility.yul\":8866:8871   */\n          dup3\n            /* \"#utility.yul\":8813:8880   */\n          tag_45\n          jump\t// in\n        tag_145:\n            /* \"#utility.yul\":8807:8811   */\n          dup7\n            /* \"#utility.yul\":8800:8881   */\n          sstore\n            /* \"#utility.yul\":8669:8891   */\n          pop\n            /* \"#utility.yul\":8004:8891   */\n          jump(tag_142)\n            /* \"#utility.yul\":8034:8652   */\n        tag_143:\n            /* \"#utility.yul\":8086:8090   */\n          0x1f\n            /* \"#utility.yul\":8082:8091   */\n          not\n            /* \"#utility.yul\":8074:8080   */\n          dup5\n            /* \"#utility.yul\":8070:8092   */\n          and\n            /* \"#utility.yul\":8120:8157   */\n          tag_146\n            /* \"#utility.yul\":8152:8156   */\n          dup7\n            /* \"#utility.yul\":8120:8157   */\n          tag_31\n          jump\t// in\n        tag_146:\n            /* \"#utility.yul\":8179:8180   */\n          0x00\n            /* \"#utility.yul\":8193:8401   */\n        tag_147:\n            /* \"#utility.yul\":8207:8214   */\n          dup3\n            /* \"#utility.yul\":8204:8205   */\n          dup2\n            /* \"#utility.yul\":8201:8215   */\n          lt\n            /* \"#utility.yul\":8193:8401   */\n          iszero\n          tag_149\n          jumpi\n            /* \"#utility.yul\":8286:8295   */\n          dup5\n            /* \"#utility.yul\":8281:8284   */\n          dup10\n            /* \"#utility.yul\":8277:8296   */\n          add\n            /* \"#utility.yul\":8271:8297   */\n          mload\n            /* \"#utility.yul\":8263:8269   */\n          dup3\n            /* \"#utility.yul\":8256:8298   */\n          sstore\n            /* \"#utility.yul\":8337:8338   */\n          0x01\n            /* \"#utility.yul\":8329:8335   */\n          dup3\n            /* \"#utility.yul\":8325:8339   */\n          add\n            /* \"#utility.yul\":8315:8339   */\n          swap2\n          pop\n            /* \"#utility.yul\":8384:8386   */\n          0x20\n            /* \"#utility.yul\":8373:8382   */\n          dup6\n            /* \"#utility.yul\":8369:8387   */\n          add\n            /* \"#utility.yul\":8356:8387   */\n          swap5\n          pop\n            /* \"#utility.yul\":8230:8234   */\n          0x20\n            /* \"#utility.yul\":8227:8228   */\n          dup2\n            /* \"#utility.yul\":8223:8235   */\n          add\n            /* \"#utility.yul\":8218:8235   */\n          swap1\n          pop\n            /* \"#utility.yul\":8193:8401   */\n          jump(tag_147)\n        tag_149:\n            /* \"#utility.yul\":8429:8435   */\n          dup7\n            /* \"#utility.yul\":8420:8427   */\n          dup4\n            /* \"#utility.yul\":8417:8436   */\n          lt\n            /* \"#utility.yul\":8414:8593   */\n          iszero\n          tag_150\n          jumpi\n            /* \"#utility.yul\":8487:8496   */\n          dup5\n            /* \"#utility.yul\":8482:8485   */\n          dup10\n            /* \"#utility.yul\":8478:8497   */\n          add\n            /* \"#utility.yul\":8472:8498   */\n          mload\n            /* \"#utility.yul\":8530:8578   */\n          tag_151\n            /* \"#utility.yul\":8572:8576   */\n          0x1f\n            /* \"#utility.yul\":8564:8570   */\n          dup10\n            /* \"#utility.yul\":8560:8577   */\n          and\n            /* \"#utility.yul\":8549:8558   */\n          dup3\n            /* \"#utility.yul\":8530:8578   */\n          tag_44\n          jump\t// in\n        tag_151:\n            /* \"#utility.yul\":8522:8528   */\n          dup4\n            /* \"#utility.yul\":8515:8579   */\n          sstore\n            /* \"#utility.yul\":8437:8593   */\n          pop\n            /* \"#utility.yul\":8414:8593   */\n        tag_150:\n            /* \"#utility.yul\":8639:8640   */\n          0x01\n            /* \"#utility.yul\":8635:8636   */\n          0x02\n            /* \"#utility.yul\":8627:8633   */\n          dup9\n            /* \"#utility.yul\":8623:8637   */\n          mul\n            /* \"#utility.yul\":8619:8641   */\n          add\n            /* \"#utility.yul\":8613:8617   */\n          dup9\n            /* \"#utility.yul\":8606:8642   */\n          sstore\n            /* \"#utility.yul\":8041:8652   */\n          pop\n          pop\n          pop\n            /* \"#utility.yul\":8004:8891   */\n        tag_142:\n          pop\n            /* \"#utility.yul\":7594:8897   */\n          pop\n          pop\n          pop\n            /* \"#utility.yul\":7502:8897   */\n          pop\n          pop\n          jump\t// out\n            /* \"#utility.yul\":8903:9083   */\n        tag_46:\n            /* \"#utility.yul\":8951:9028   */\n          0x4e487b7100000000000000000000000000000000000000000000000000000000\n            /* \"#utility.yul\":8948:8949   */\n          0x00\n            /* \"#utility.yul\":8941:9029   */\n          mstore\n            /* \"#utility.yul\":9048:9052   */\n          0x11\n            /* \"#utility.yul\":9045:9046   */\n          0x04\n            /* \"#utility.yul\":9038:9053   */\n          mstore\n            /* \"#utility.yul\":9072:9076   */\n          0x24\n            /* \"#utility.yul\":9069:9070   */\n          0x00\n            /* \"#utility.yul\":9062:9077   */\n          revert\n            /* \"#utility.yul\":9089:9499   */\n        tag_10:\n            /* \"#utility.yul\":9129:9136   */\n          0x00\n            /* \"#utility.yul\":9152:9172   */\n          tag_154\n            /* \"#utility.yul\":9170:9171   */\n          dup3\n            /* \"#utility.yul\":9152:9172   */\n          tag_25\n          jump\t// in\n        tag_154:\n            /* \"#utility.yul\":9147:9172   */\n          swap2\n          pop\n            /* \"#utility.yul\":9186:9206   */\n          tag_155\n            /* \"#utility.yul\":9204:9205   */\n          dup4\n            /* \"#utility.yul\":9186:9206   */\n          tag_25\n          jump\t// in\n        tag_155:\n            /* \"#utility.yul\":9181:9206   */\n          swap3\n          pop\n            /* \"#utility.yul\":9241:9242   */\n          dup3\n            /* \"#utility.yul\":9238:9239   */\n          dup3\n            /* \"#utility.yul\":9234:9243   */\n          mul\n            /* \"#utility.yul\":9263:9293   */\n          tag_156\n            /* \"#utility.yul\":9281:9292   */\n          dup2\n            /* \"#utility.yul\":9263:9293   */\n          tag_25\n          jump\t// in\n        tag_156:\n            /* \"#utility.yul\":9252:9293   */\n          swap2\n          pop\n            /* \"#utility.yul\":9442:9443   */\n          dup3\n            /* \"#utility.yul\":9433:9440   */\n          dup3\n            /* \"#utility.yul\":9429:9444   */\n          div\n            /* \"#utility.yul\":9426:9427   */\n          dup5\n            /* \"#utility.yul\":9423:9445   */\n          eq\n            /* \"#utility.yul\":9403:9404   */\n          dup4\n            /* \"#utility.yul\":9396:9405   */\n          iszero\n            /* \"#utility.yul\":9376:9459   */\n          or\n            /* \"#utility.yul\":9353:9492   */\n          tag_157\n          jumpi\n            /* \"#utility.yul\":9472:9490   */\n          tag_158\n          tag_46\n          jump\t// in\n        tag_158:\n            /* \"#utility.yul\":9353:9492   */\n        tag_157:\n            /* \"#utility.yul\":9137:9499   */\n          pop\n            /* \"#utility.yul\":9089:9499   */\n          swap3\n          swap2\n          pop\n          pop\n          jump\t// out\n            /* \"Assignments/Lecture 6/AssetFactory.sol\":312:1146  contract Asset  {... */\n        tag_11:\n          dataSize(sub_0)\n          dup1\n          dataOffset(sub_0)\n          0x00\n          codecopy\n          0x00\n          return\n        stop\n\n        sub_0: assembly {\n                /* \"Assignments/Lecture 6/AssetFactory.sol\":312:1146  contract Asset  {... */\n              mstore(0x40, 0x80)\n              jumpi(tag_1, lt(calldatasize, 0x04))\n              shr(0xe0, calldataload(0x00))\n              dup1\n              0x047fc9aa\n              eq\n              tag_2\n              jumpi\n              dup1\n              0x06fdde03\n              eq\n              tag_3\n              jumpi\n              dup1\n              0x2ccb1b30\n              eq\n              tag_4\n              jumpi\n              dup1\n              0x70a08231\n              eq\n              tag_5\n              jumpi\n              dup1\n              0x8ba47bdd\n              eq\n              tag_6\n              jumpi\n            tag_1:\n              0x00\n              dup1\n              revert\n                /* \"Assignments/Lecture 6/AssetFactory.sol\":384:405  uint256 public supply */\n            tag_2:\n              callvalue\n              dup1\n              iszero\n              tag_7\n              jumpi\n              0x00\n              dup1\n              revert\n            tag_7:\n              pop\n              tag_8\n              tag_9\n              jump\t// in\n            tag_8:\n              mload(0x40)\n              tag_10\n              swap2\n              swap1\n              tag_11\n              jump\t// in\n            tag_10:\n              mload(0x40)\n              dup1\n              swap2\n              sub\n              swap1\n              return\n                /* \"Assignments/Lecture 6/AssetFactory.sol\":334:352  string public name */\n            tag_3:\n              callvalue\n              dup1\n              iszero\n              tag_12\n              jumpi\n              0x00\n              dup1\n              revert\n            tag_12:\n              pop\n              tag_13\n              tag_14\n              jump\t// in\n            tag_13:\n              mload(0x40)\n              tag_15\n              swap2\n              swap1\n              tag_16\n              jump\t// in\n            tag_15:\n              mload(0x40)\n              dup1\n              swap2\n              sub\n              swap1\n              return\n                /* \"Assignments/Lecture 6/AssetFactory.sol\":638:971  function transferTo(address target, uint256 amount) external payable {... */\n            tag_4:\n              tag_17\n              0x04\n              dup1\n              calldatasize\n              sub\n              dup2\n              add\n              swap1\n              tag_18\n              swap2\n              swap1\n              tag_19\n              jump\t// in\n            tag_18:\n              tag_20\n              jump\t// in\n            tag_17:\n              stop\n                /* \"Assignments/Lecture 6/AssetFactory.sol\":977:1144  function balanceOf(address target) public view returns (uint256) {... */\n            tag_5:\n              callvalue\n              dup1\n              iszero\n              tag_21\n              jumpi\n              0x00\n              dup1\n              revert\n            tag_21:\n              pop\n              tag_22\n              0x04\n              dup1\n              calldatasize\n              sub\n              dup2\n              add\n              swap1\n              tag_23\n              swap2\n              swap1\n              tag_24\n              jump\t// in\n            tag_23:\n              tag_25\n              jump\t// in\n            tag_22:\n              mload(0x40)\n              tag_26\n              swap2\n              swap1\n              tag_11\n              jump\t// in\n            tag_26:\n              mload(0x40)\n              dup1\n              swap2\n              sub\n              swap1\n              return\n                /* \"Assignments/Lecture 6/AssetFactory.sol\":358:378  string public ticker */\n            tag_6:\n              callvalue\n              dup1\n              iszero\n              tag_27\n              jumpi\n              0x00\n              dup1\n              revert\n            tag_27:\n              pop\n              tag_28\n              tag_29\n              jump\t// in\n            tag_28:\n              mload(0x40)\n              tag_30\n              swap2\n              swap1\n              tag_16\n              jump\t// in\n            tag_30:\n              mload(0x40)\n              dup1\n              swap2\n              sub\n              swap1\n              return\n                /* \"Assignments/Lecture 6/AssetFactory.sol\":384:405  uint256 public supply */\n            tag_9:\n              sload(0x02)\n              dup2\n              jump\t// out\n                /* \"Assignments/Lecture 6/AssetFactory.sol\":334:352  string public name */\n            tag_14:\n              0x00\n              dup1\n              sload\n              tag_31\n              swap1\n              tag_32\n              jump\t// in\n            tag_31:\n              dup1\n              0x1f\n              add\n              0x20\n              dup1\n              swap2\n              div\n              mul\n              0x20\n              add\n              mload(0x40)\n              swap1\n              dup2\n              add\n              0x40\n              mstore\n              dup1\n              swap3\n              swap2\n              swap1\n              dup2\n              dup2\n              mstore\n              0x20\n              add\n              dup3\n              dup1\n              sload\n              tag_33\n              swap1\n              tag_32\n              jump\t// in\n            tag_33:\n              dup1\n              iszero\n              tag_34\n              jumpi\n              dup1\n              0x1f\n              lt\n              tag_35\n              jumpi\n              0x0100\n              dup1\n              dup4\n              sload\n              div\n              mul\n              dup4\n              mstore\n              swap2\n              0x20\n              add\n              swap2\n              jump(tag_34)\n            tag_35:\n              dup3\n              add\n              swap2\n              swap1\n              0x00\n              mstore\n              keccak256(0x00, 0x20)\n              swap1\n            tag_36:\n              dup2\n              sload\n              dup2\n              mstore\n              swap1\n              0x01\n              add\n              swap1\n              0x20\n              add\n              dup1\n              dup4\n              gt\n              tag_36\n              jumpi\n              dup3\n              swap1\n              sub\n              0x1f\n              and\n              dup3\n              add\n              swap2\n            tag_34:\n              pop\n              pop\n              pop\n              pop\n              pop\n              dup2\n              jump\t// out\n                /* \"Assignments/Lecture 6/AssetFactory.sol\":638:971  function transferTo(address target, uint256 amount) external payable {... */\n            tag_20:\n                /* \"Assignments/Lecture 6/AssetFactory.sol\":733:739  supply */\n              sload(0x02)\n                /* \"Assignments/Lecture 6/AssetFactory.sol\":721:730  msg.value */\n              callvalue\n                /* \"Assignments/Lecture 6/AssetFactory.sol\":721:739  msg.value > supply */\n              gt\n                /* \"Assignments/Lecture 6/AssetFactory.sol\":717:770  if (msg.value > supply) { revert IncorrectAmount(); } */\n              iszero\n              tag_38\n              jumpi\n                /* \"Assignments/Lecture 6/AssetFactory.sol\":750:767  IncorrectAmount() */\n              mload(0x40)\n              0x69640e7200000000000000000000000000000000000000000000000000000000\n              dup2\n              mstore\n              0x04\n              add\n              mload(0x40)\n              dup1\n              swap2\n              sub\n              swap1\n              revert\n                /* \"Assignments/Lecture 6/AssetFactory.sol\":717:770  if (msg.value > supply) { revert IncorrectAmount(); } */\n            tag_38:\n                /* \"Assignments/Lecture 6/AssetFactory.sol\":797:803  amount */\n              dup1\n                /* \"Assignments/Lecture 6/AssetFactory.sol\":788:794  supply */\n              sload(0x02)\n                /* \"Assignments/Lecture 6/AssetFactory.sol\":788:803  supply - amount */\n              tag_39\n              swap2\n              swap1\n              tag_40\n              jump\t// in\n            tag_39:\n                /* \"Assignments/Lecture 6/AssetFactory.sol\":779:785  supply */\n              0x02\n                /* \"Assignments/Lecture 6/AssetFactory.sol\":779:803  supply = supply - amount */\n              dup2\n              swap1\n              sstore\n              pop\n                /* \"Assignments/Lecture 6/AssetFactory.sol\":815:827  bool success */\n              0x00\n                /* \"Assignments/Lecture 6/AssetFactory.sol\":841:847  target */\n              dup3\n                /* \"Assignments/Lecture 6/AssetFactory.sol\":833:853  payable(target).call */\n              0xffffffffffffffffffffffffffffffffffffffff\n              and\n                /* \"Assignments/Lecture 6/AssetFactory.sol\":861:870  msg.value */\n              callvalue\n                /* \"Assignments/Lecture 6/AssetFactory.sol\":833:875  payable(target).call{value: msg.value}(\"\") */\n              mload(0x40)\n              tag_41\n              swap1\n              tag_42\n              jump\t// in\n            tag_41:\n              0x00\n              mload(0x40)\n              dup1\n              dup4\n              sub\n              dup2\n              dup6\n              dup8\n              gas\n              call\n              swap3\n              pop\n              pop\n              pop\n              returndatasize\n              dup1\n              0x00\n              dup2\n              eq\n              tag_45\n              jumpi\n              mload(0x40)\n              swap2\n              pop\n              and(add(returndatasize, 0x3f), not(0x1f))\n              dup3\n              add\n              0x40\n              mstore\n              returndatasize\n              dup3\n              mstore\n              returndatasize\n              0x00\n              0x20\n              dup5\n              add\n              returndatacopy\n              jump(tag_44)\n            tag_45:\n              0x60\n              swap2\n              pop\n            tag_44:\n              pop\n                /* \"Assignments/Lecture 6/AssetFactory.sol\":814:875  (bool success, ) = payable(target).call{value: msg.value}(\"\") */\n              pop\n              swap1\n              pop\n                /* \"Assignments/Lecture 6/AssetFactory.sol\":893:900  success */\n              dup1\n                /* \"Assignments/Lecture 6/AssetFactory.sol\":885:920  require(success, \"Transfer failed\") */\n              tag_46\n              jumpi\n              mload(0x40)\n              0x08c379a000000000000000000000000000000000000000000000000000000000\n              dup2\n              mstore\n              0x04\n              add\n              tag_47\n              swap1\n              tag_48\n              jump\t// in\n            tag_47:\n              mload(0x40)\n              dup1\n              swap2\n              sub\n              swap1\n              revert\n            tag_46:\n                /* \"Assignments/Lecture 6/AssetFactory.sol\":958:964  amount */\n              dup2\n                /* \"Assignments/Lecture 6/AssetFactory.sol\":939:946  holders */\n              0x03\n                /* \"Assignments/Lecture 6/AssetFactory.sol\":939:954  holders[target] */\n              0x00\n                /* \"Assignments/Lecture 6/AssetFactory.sol\":947:953  target */\n              dup6\n                /* \"Assignments/Lecture 6/AssetFactory.sol\":939:954  holders[target] */\n              0xffffffffffffffffffffffffffffffffffffffff\n              and\n              0xffffffffffffffffffffffffffffffffffffffff\n              and\n              dup2\n              mstore\n              0x20\n              add\n              swap1\n              dup2\n              mstore\n              0x20\n              add\n              0x00\n              keccak256\n              0x00\n                /* \"Assignments/Lecture 6/AssetFactory.sol\":939:964  holders[target] += amount */\n              dup3\n              dup3\n              sload\n              tag_49\n              swap2\n              swap1\n              tag_50\n              jump\t// in\n            tag_49:\n              swap3\n              pop\n              pop\n              dup2\n              swap1\n              sstore\n              pop\n                /* \"Assignments/Lecture 6/AssetFactory.sol\":707:971  {... */\n              pop\n                /* \"Assignments/Lecture 6/AssetFactory.sol\":638:971  function transferTo(address target, uint256 amount) external payable {... */\n              pop\n              pop\n              jump\t// out\n                /* \"Assignments/Lecture 6/AssetFactory.sol\":977:1144  function balanceOf(address target) public view returns (uint256) {... */\n            tag_25:\n                /* \"Assignments/Lecture 6/AssetFactory.sol\":1033:1040  uint256 */\n              0x00\n                /* \"Assignments/Lecture 6/AssetFactory.sol\":1074:1075  0 */\n              dup1\n                /* \"Assignments/Lecture 6/AssetFactory.sol\":1056:1076  target == address(0) */\n              0xffffffffffffffffffffffffffffffffffffffff\n              and\n                /* \"Assignments/Lecture 6/AssetFactory.sol\":1056:1062  target */\n              dup3\n                /* \"Assignments/Lecture 6/AssetFactory.sol\":1056:1076  target == address(0) */\n              0xffffffffffffffffffffffffffffffffffffffff\n              and\n              sub\n                /* \"Assignments/Lecture 6/AssetFactory.sol\":1052:1106  if (target == address(0)) { revert InvalidAddress(); } */\n              tag_52\n              jumpi\n                /* \"Assignments/Lecture 6/AssetFactory.sol\":1087:1103  InvalidAddress() */\n              mload(0x40)\n              0xe6c4247b00000000000000000000000000000000000000000000000000000000\n              dup2\n              mstore\n              0x04\n              add\n              mload(0x40)\n              dup1\n              swap2\n              sub\n              swap1\n              revert\n                /* \"Assignments/Lecture 6/AssetFactory.sol\":1052:1106  if (target == address(0)) { revert InvalidAddress(); } */\n            tag_52:\n                /* \"Assignments/Lecture 6/AssetFactory.sol\":1122:1129  holders */\n              0x03\n                /* \"Assignments/Lecture 6/AssetFactory.sol\":1122:1137  holders[target] */\n              0x00\n                /* \"Assignments/Lecture 6/AssetFactory.sol\":1130:1136  target */\n              dup4\n                /* \"Assignments/Lecture 6/AssetFactory.sol\":1122:1137  holders[target] */\n              0xffffffffffffffffffffffffffffffffffffffff\n              and\n              0xffffffffffffffffffffffffffffffffffffffff\n              and\n              dup2\n              mstore\n              0x20\n              add\n              swap1\n              dup2\n              mstore\n              0x20\n              add\n              0x00\n              keccak256\n              sload\n                /* \"Assignments/Lecture 6/AssetFactory.sol\":1115:1137  return holders[target] */\n              swap1\n              pop\n                /* \"Assignments/Lecture 6/AssetFactory.sol\":977:1144  function balanceOf(address target) public view returns (uint256) {... */\n              swap2\n              swap1\n              pop\n              jump\t// out\n                /* \"Assignments/Lecture 6/AssetFactory.sol\":358:378  string public ticker */\n            tag_29:\n              0x01\n              dup1\n              sload\n              tag_53\n              swap1\n              tag_32\n              jump\t// in\n            tag_53:\n              dup1\n              0x1f\n              add\n              0x20\n              dup1\n              swap2\n              div\n              mul\n              0x20\n              add\n              mload(0x40)\n              swap1\n              dup2\n              add\n              0x40\n              mstore\n              dup1\n              swap3\n              swap2\n              swap1\n              dup2\n              dup2\n              mstore\n              0x20\n              add\n              dup3\n              dup1\n              sload\n              tag_54\n              swap1\n              tag_32\n              jump\t// in\n            tag_54:\n              dup1\n              iszero\n              tag_55\n              jumpi\n              dup1\n              0x1f\n              lt\n              tag_56\n              jumpi\n              0x0100\n              dup1\n              dup4\n              sload\n              div\n              mul\n              dup4\n              mstore\n              swap2\n              0x20\n              add\n              swap2\n              jump(tag_55)\n            tag_56:\n              dup3\n              add\n              swap2\n              swap1\n              0x00\n              mstore\n              keccak256(0x00, 0x20)\n              swap1\n            tag_57:\n              dup2\n              sload\n              dup2\n              mstore\n              swap1\n              0x01\n              add\n              swap1\n              0x20\n              add\n              dup1\n              dup4\n              gt\n              tag_57\n              jumpi\n              dup3\n              swap1\n              sub\n              0x1f\n              and\n              dup3\n              add\n              swap2\n            tag_55:\n              pop\n              pop\n              pop\n              pop\n              pop\n              dup2\n              jump\t// out\n                /* \"#utility.yul\":7:84   */\n            tag_58:\n                /* \"#utility.yul\":44:51   */\n              0x00\n                /* \"#utility.yul\":73:78   */\n              dup2\n                /* \"#utility.yul\":62:78   */\n              swap1\n              pop\n                /* \"#utility.yul\":7:84   */\n              swap2\n              swap1\n              pop\n              jump\t// out\n                /* \"#utility.yul\":90:208   */\n            tag_59:\n                /* \"#utility.yul\":177:201   */\n              tag_84\n                /* \"#utility.yul\":195:200   */\n              dup2\n                /* \"#utility.yul\":177:201   */\n              tag_58\n              jump\t// in\n            tag_84:\n                /* \"#utility.yul\":172:175   */\n              dup3\n                /* \"#utility.yul\":165:202   */\n              mstore\n                /* \"#utility.yul\":90:208   */\n              pop\n              pop\n              jump\t// out\n                /* \"#utility.yul\":214:436   */\n            tag_11:\n                /* \"#utility.yul\":307:311   */\n              0x00\n                /* \"#utility.yul\":345:347   */\n              0x20\n                /* \"#utility.yul\":334:343   */\n              dup3\n                /* \"#utility.yul\":330:348   */\n              add\n                /* \"#utility.yul\":322:348   */\n              swap1\n              pop\n                /* \"#utility.yul\":358:429   */\n              tag_86\n                /* \"#utility.yul\":426:427   */\n              0x00\n                /* \"#utility.yul\":415:424   */\n              dup4\n                /* \"#utility.yul\":411:428   */\n              add\n                /* \"#utility.yul\":402:408   */\n              dup5\n                /* \"#utility.yul\":358:429   */\n              tag_59\n              jump\t// in\n            tag_86:\n                /* \"#utility.yul\":214:436   */\n              swap3\n              swap2\n              pop\n              pop\n              jump\t// out\n                /* \"#utility.yul\":442:541   */\n            tag_60:\n                /* \"#utility.yul\":494:500   */\n              0x00\n                /* \"#utility.yul\":528:533   */\n              dup2\n                /* \"#utility.yul\":522:534   */\n              mload\n                /* \"#utility.yul\":512:534   */\n              swap1\n              pop\n                /* \"#utility.yul\":442:541   */\n              swap2\n              swap1\n              pop\n              jump\t// out\n                /* \"#utility.yul\":547:716   */\n            tag_61:\n                /* \"#utility.yul\":631:642   */\n              0x00\n                /* \"#utility.yul\":665:671   */\n              dup3\n                /* \"#utility.yul\":660:663   */\n              dup3\n                /* \"#utility.yul\":653:672   */\n              mstore\n                /* \"#utility.yul\":705:709   */\n              0x20\n                /* \"#utility.yul\":700:703   */\n              dup3\n                /* \"#utility.yul\":696:710   */\n              add\n                /* \"#utility.yul\":681:710   */\n              swap1\n              pop\n                /* \"#utility.yul\":547:716   */\n              swap3\n              swap2\n              pop\n              pop\n              jump\t// out\n                /* \"#utility.yul\":722:861   */\n            tag_62:\n                /* \"#utility.yul\":811:817   */\n              dup3\n                /* \"#utility.yul\":806:809   */\n              dup2\n                /* \"#utility.yul\":801:804   */\n              dup4\n                /* \"#utility.yul\":795:818   */\n              mcopy\n                /* \"#utility.yul\":852:853   */\n              0x00\n                /* \"#utility.yul\":843:849   */\n              dup4\n                /* \"#utility.yul\":838:841   */\n              dup4\n                /* \"#utility.yul\":834:850   */\n              add\n                /* \"#utility.yul\":827:854   */\n              mstore\n                /* \"#utility.yul\":722:861   */\n              pop\n              pop\n              pop\n              jump\t// out\n                /* \"#utility.yul\":867:969   */\n            tag_63:\n                /* \"#utility.yul\":908:914   */\n              0x00\n                /* \"#utility.yul\":959:961   */\n              0x1f\n                /* \"#utility.yul\":955:962   */\n              not\n                /* \"#utility.yul\":950:952   */\n              0x1f\n                /* \"#utility.yul\":943:948   */\n              dup4\n                /* \"#utility.yul\":939:953   */\n              add\n                /* \"#utility.yul\":935:963   */\n              and\n                /* \"#utility.yul\":925:963   */\n              swap1\n              pop\n                /* \"#utility.yul\":867:969   */\n              swap2\n              swap1\n              pop\n              jump\t// out\n                /* \"#utility.yul\":975:1352   */\n            tag_64:\n                /* \"#utility.yul\":1063:1066   */\n              0x00\n                /* \"#utility.yul\":1091:1130   */\n              tag_92\n                /* \"#utility.yul\":1124:1129   */\n              dup3\n                /* \"#utility.yul\":1091:1130   */\n              tag_60\n              jump\t// in\n            tag_92:\n                /* \"#utility.yul\":1146:1217   */\n              tag_93\n                /* \"#utility.yul\":1210:1216   */\n              dup2\n                /* \"#utility.yul\":1205:1208   */\n              dup6\n                /* \"#utility.yul\":1146:1217   */\n              tag_61\n              jump\t// in\n            tag_93:\n                /* \"#utility.yul\":1139:1217   */\n              swap4\n              pop\n                /* \"#utility.yul\":1226:1291   */\n              tag_94\n                /* \"#utility.yul\":1284:1290   */\n              dup2\n                /* \"#utility.yul\":1279:1282   */\n              dup6\n                /* \"#utility.yul\":1272:1276   */\n              0x20\n                /* \"#utility.yul\":1265:1270   */\n              dup7\n                /* \"#utility.yul\":1261:1277   */\n              add\n                /* \"#utility.yul\":1226:1291   */\n              tag_62\n              jump\t// in\n            tag_94:\n                /* \"#utility.yul\":1316:1345   */\n              tag_95\n                /* \"#utility.yul\":1338:1344   */\n              dup2\n                /* \"#utility.yul\":1316:1345   */\n              tag_63\n              jump\t// in\n            tag_95:\n                /* \"#utility.yul\":1311:1314   */\n              dup5\n                /* \"#utility.yul\":1307:1346   */\n              add\n                /* \"#utility.yul\":1300:1346   */\n              swap2\n              pop\n                /* \"#utility.yul\":1067:1352   */\n              pop\n                /* \"#utility.yul\":975:1352   */\n              swap3\n              swap2\n              pop\n              pop\n              jump\t// out\n                /* \"#utility.yul\":1358:1671   */\n            tag_16:\n                /* \"#utility.yul\":1471:1475   */\n              0x00\n                /* \"#utility.yul\":1509:1511   */\n              0x20\n                /* \"#utility.yul\":1498:1507   */\n              dup3\n                /* \"#utility.yul\":1494:1512   */\n              add\n                /* \"#utility.yul\":1486:1512   */\n              swap1\n              pop\n                /* \"#utility.yul\":1558:1567   */\n              dup2\n                /* \"#utility.yul\":1552:1556   */\n              dup2\n                /* \"#utility.yul\":1548:1568   */\n              sub\n                /* \"#utility.yul\":1544:1545   */\n              0x00\n                /* \"#utility.yul\":1533:1542   */\n              dup4\n                /* \"#utility.yul\":1529:1546   */\n              add\n                /* \"#utility.yul\":1522:1569   */\n              mstore\n                /* \"#utility.yul\":1586:1664   */\n              tag_97\n                /* \"#utility.yul\":1659:1663   */\n              dup2\n                /* \"#utility.yul\":1650:1656   */\n              dup5\n                /* \"#utility.yul\":1586:1664   */\n              tag_64\n              jump\t// in\n            tag_97:\n                /* \"#utility.yul\":1578:1664   */\n              swap1\n              pop\n                /* \"#utility.yul\":1358:1671   */\n              swap3\n              swap2\n              pop\n              pop\n              jump\t// out\n                /* \"#utility.yul\":1758:1875   */\n            tag_66:\n                /* \"#utility.yul\":1867:1868   */\n              0x00\n                /* \"#utility.yul\":1864:1865   */\n              dup1\n                /* \"#utility.yul\":1857:1869   */\n              revert\n                /* \"#utility.yul\":2004:2130   */\n            tag_68:\n                /* \"#utility.yul\":2041:2048   */\n              0x00\n                /* \"#utility.yul\":2081:2123   */\n              0xffffffffffffffffffffffffffffffffffffffff\n                /* \"#utility.yul\":2074:2079   */\n              dup3\n                /* \"#utility.yul\":2070:2124   */\n              and\n                /* \"#utility.yul\":2059:2124   */\n              swap1\n              pop\n                /* \"#utility.yul\":2004:2130   */\n              swap2\n              swap1\n              pop\n              jump\t// out\n                /* \"#utility.yul\":2136:2232   */\n            tag_69:\n                /* \"#utility.yul\":2173:2180   */\n              0x00\n                /* \"#utility.yul\":2202:2226   */\n              tag_103\n                /* \"#utility.yul\":2220:2225   */\n              dup3\n                /* \"#utility.yul\":2202:2226   */\n              tag_68\n              jump\t// in\n            tag_103:\n                /* \"#utility.yul\":2191:2226   */\n              swap1\n              pop\n                /* \"#utility.yul\":2136:2232   */\n              swap2\n              swap1\n              pop\n              jump\t// out\n                /* \"#utility.yul\":2238:2360   */\n            tag_70:\n                /* \"#utility.yul\":2311:2335   */\n              tag_105\n                /* \"#utility.yul\":2329:2334   */\n              dup2\n                /* \"#utility.yul\":2311:2335   */\n              tag_69\n              jump\t// in\n            tag_105:\n                /* \"#utility.yul\":2304:2309   */\n              dup2\n                /* \"#utility.yul\":2301:2336   */\n              eq\n                /* \"#utility.yul\":2291:2354   */\n              tag_106\n              jumpi\n                /* \"#utility.yul\":2350:2351   */\n              0x00\n                /* \"#utility.yul\":2347:2348   */\n              dup1\n                /* \"#utility.yul\":2340:2352   */\n              revert\n                /* \"#utility.yul\":2291:2354   */\n            tag_106:\n                /* \"#utility.yul\":2238:2360   */\n              pop\n              jump\t// out\n                /* \"#utility.yul\":2366:2505   */\n            tag_71:\n                /* \"#utility.yul\":2412:2417   */\n              0x00\n                /* \"#utility.yul\":2450:2456   */\n              dup2\n                /* \"#utility.yul\":2437:2457   */\n              calldataload\n                /* \"#utility.yul\":2428:2457   */\n              swap1\n              pop\n                /* \"#utility.yul\":2466:2499   */\n              tag_108\n                /* \"#utility.yul\":2493:2498   */\n              dup2\n                /* \"#utility.yul\":2466:2499   */\n              tag_70\n              jump\t// in\n            tag_108:\n                /* \"#utility.yul\":2366:2505   */\n              swap3\n              swap2\n              pop\n              pop\n              jump\t// out\n                /* \"#utility.yul\":2511:2633   */\n            tag_72:\n                /* \"#utility.yul\":2584:2608   */\n              tag_110\n                /* \"#utility.yul\":2602:2607   */\n              dup2\n                /* \"#utility.yul\":2584:2608   */\n              tag_58\n              jump\t// in\n            tag_110:\n                /* \"#utility.yul\":2577:2582   */\n              dup2\n                /* \"#utility.yul\":2574:2609   */\n              eq\n                /* \"#utility.yul\":2564:2627   */\n              tag_111\n              jumpi\n                /* \"#utility.yul\":2623:2624   */\n              0x00\n                /* \"#utility.yul\":2620:2621   */\n              dup1\n                /* \"#utility.yul\":2613:2625   */\n              revert\n                /* \"#utility.yul\":2564:2627   */\n            tag_111:\n                /* \"#utility.yul\":2511:2633   */\n              pop\n              jump\t// out\n                /* \"#utility.yul\":2639:2778   */\n            tag_73:\n                /* \"#utility.yul\":2685:2690   */\n              0x00\n                /* \"#utility.yul\":2723:2729   */\n              dup2\n                /* \"#utility.yul\":2710:2730   */\n              calldataload\n                /* \"#utility.yul\":2701:2730   */\n              swap1\n              pop\n                /* \"#utility.yul\":2739:2772   */\n              tag_113\n                /* \"#utility.yul\":2766:2771   */\n              dup2\n                /* \"#utility.yul\":2739:2772   */\n              tag_72\n              jump\t// in\n            tag_113:\n                /* \"#utility.yul\":2639:2778   */\n              swap3\n              swap2\n              pop\n              pop\n              jump\t// out\n                /* \"#utility.yul\":2784:3258   */\n            tag_19:\n                /* \"#utility.yul\":2852:2858   */\n              0x00\n                /* \"#utility.yul\":2860:2866   */\n              dup1\n                /* \"#utility.yul\":2909:2911   */\n              0x40\n                /* \"#utility.yul\":2897:2906   */\n              dup4\n                /* \"#utility.yul\":2888:2895   */\n              dup6\n                /* \"#utility.yul\":2884:2907   */\n              sub\n                /* \"#utility.yul\":2880:2912   */\n              slt\n                /* \"#utility.yul\":2877:2996   */\n              iszero\n              tag_115\n              jumpi\n                /* \"#utility.yul\":2915:2994   */\n              tag_116\n              tag_66\n              jump\t// in\n            tag_116:\n                /* \"#utility.yul\":2877:2996   */\n            tag_115:\n                /* \"#utility.yul\":3035:3036   */\n              0x00\n                /* \"#utility.yul\":3060:3113   */\n              tag_117\n                /* \"#utility.yul\":3105:3112   */\n              dup6\n                /* \"#utility.yul\":3096:3102   */\n              dup3\n                /* \"#utility.yul\":3085:3094   */\n              dup7\n                /* \"#utility.yul\":3081:3103   */\n              add\n                /* \"#utility.yul\":3060:3113   */\n              tag_71\n              jump\t// in\n            tag_117:\n                /* \"#utility.yul\":3050:3113   */\n              swap3\n              pop\n                /* \"#utility.yul\":3006:3123   */\n              pop\n                /* \"#utility.yul\":3162:3164   */\n              0x20\n                /* \"#utility.yul\":3188:3241   */\n              tag_118\n                /* \"#utility.yul\":3233:3240   */\n              dup6\n                /* \"#utility.yul\":3224:3230   */\n              dup3\n                /* \"#utility.yul\":3213:3222   */\n              dup7\n                /* \"#utility.yul\":3209:3231   */\n              add\n                /* \"#utility.yul\":3188:3241   */\n              tag_73\n              jump\t// in\n            tag_118:\n                /* \"#utility.yul\":3178:3241   */\n              swap2\n              pop\n                /* \"#utility.yul\":3133:3251   */\n              pop\n                /* \"#utility.yul\":2784:3258   */\n              swap3\n              pop\n              swap3\n              swap1\n              pop\n              jump\t// out\n                /* \"#utility.yul\":3264:3593   */\n            tag_24:\n                /* \"#utility.yul\":3323:3329   */\n              0x00\n                /* \"#utility.yul\":3372:3374   */\n              0x20\n                /* \"#utility.yul\":3360:3369   */\n              dup3\n                /* \"#utility.yul\":3351:3358   */\n              dup5\n                /* \"#utility.yul\":3347:3370   */\n              sub\n                /* \"#utility.yul\":3343:3375   */\n              slt\n                /* \"#utility.yul\":3340:3459   */\n              iszero\n              tag_120\n              jumpi\n                /* \"#utility.yul\":3378:3457   */\n              tag_121\n              tag_66\n              jump\t// in\n            tag_121:\n                /* \"#utility.yul\":3340:3459   */\n            tag_120:\n                /* \"#utility.yul\":3498:3499   */\n              0x00\n                /* \"#utility.yul\":3523:3576   */\n              tag_122\n                /* \"#utility.yul\":3568:3575   */\n              dup5\n                /* \"#utility.yul\":3559:3565   */\n              dup3\n                /* \"#utility.yul\":3548:3557   */\n              dup6\n                /* \"#utility.yul\":3544:3566   */\n              add\n                /* \"#utility.yul\":3523:3576   */\n              tag_71\n              jump\t// in\n            tag_122:\n                /* \"#utility.yul\":3513:3576   */\n              swap2\n              pop\n                /* \"#utility.yul\":3469:3586   */\n              pop\n                /* \"#utility.yul\":3264:3593   */\n              swap3\n              swap2\n              pop\n              pop\n              jump\t// out\n                /* \"#utility.yul\":3599:3779   */\n            tag_74:\n                /* \"#utility.yul\":3647:3724   */\n              0x4e487b7100000000000000000000000000000000000000000000000000000000\n                /* \"#utility.yul\":3644:3645   */\n              0x00\n                /* \"#utility.yul\":3637:3725   */\n              mstore\n                /* \"#utility.yul\":3744:3748   */\n              0x22\n                /* \"#utility.yul\":3741:3742   */\n              0x04\n                /* \"#utility.yul\":3734:3749   */\n              mstore\n                /* \"#utility.yul\":3768:3772   */\n              0x24\n                /* \"#utility.yul\":3765:3766   */\n              0x00\n                /* \"#utility.yul\":3758:3773   */\n              revert\n                /* \"#utility.yul\":3785:4105   */\n            tag_32:\n                /* \"#utility.yul\":3829:3835   */\n              0x00\n                /* \"#utility.yul\":3866:3867   */\n              0x02\n                /* \"#utility.yul\":3860:3864   */\n              dup3\n                /* \"#utility.yul\":3856:3868   */\n              div\n                /* \"#utility.yul\":3846:3868   */\n              swap1\n              pop\n                /* \"#utility.yul\":3913:3914   */\n              0x01\n                /* \"#utility.yul\":3907:3911   */\n              dup3\n                /* \"#utility.yul\":3903:3915   */\n              and\n                /* \"#utility.yul\":3934:3952   */\n              dup1\n                /* \"#utility.yul\":3924:4005   */\n              tag_125\n              jumpi\n                /* \"#utility.yul\":3990:3994   */\n              0x7f\n                /* \"#utility.yul\":3982:3988   */\n              dup3\n                /* \"#utility.yul\":3978:3995   */\n              and\n                /* \"#utility.yul\":3968:3995   */\n              swap2\n              pop\n                /* \"#utility.yul\":3924:4005   */\n            tag_125:\n                /* \"#utility.yul\":4052:4054   */\n              0x20\n                /* \"#utility.yul\":4044:4050   */\n              dup3\n                /* \"#utility.yul\":4041:4055   */\n              lt\n                /* \"#utility.yul\":4021:4039   */\n              dup2\n                /* \"#utility.yul\":4018:4056   */\n              sub\n                /* \"#utility.yul\":4015:4099   */\n              tag_126\n              jumpi\n                /* \"#utility.yul\":4071:4089   */\n              tag_127\n              tag_74\n              jump\t// in\n            tag_127:\n                /* \"#utility.yul\":4015:4099   */\n            tag_126:\n                /* \"#utility.yul\":3836:4105   */\n              pop\n                /* \"#utility.yul\":3785:4105   */\n              swap2\n              swap1\n              pop\n              jump\t// out\n                /* \"#utility.yul\":4111:4291   */\n            tag_75:\n                /* \"#utility.yul\":4159:4236   */\n              0x4e487b7100000000000000000000000000000000000000000000000000000000\n                /* \"#utility.yul\":4156:4157   */\n              0x00\n                /* \"#utility.yul\":4149:4237   */\n              mstore\n                /* \"#utility.yul\":4256:4260   */\n              0x11\n                /* \"#utility.yul\":4253:4254   */\n              0x04\n                /* \"#utility.yul\":4246:4261   */\n              mstore\n                /* \"#utility.yul\":4280:4284   */\n              0x24\n                /* \"#utility.yul\":4277:4278   */\n              0x00\n                /* \"#utility.yul\":4270:4285   */\n              revert\n                /* \"#utility.yul\":4297:4491   */\n            tag_40:\n                /* \"#utility.yul\":4337:4341   */\n              0x00\n                /* \"#utility.yul\":4357:4377   */\n              tag_130\n                /* \"#utility.yul\":4375:4376   */\n              dup3\n                /* \"#utility.yul\":4357:4377   */\n              tag_58\n              jump\t// in\n            tag_130:\n                /* \"#utility.yul\":4352:4377   */\n              swap2\n              pop\n                /* \"#utility.yul\":4391:4411   */\n              tag_131\n                /* \"#utility.yul\":4409:4410   */\n              dup4\n                /* \"#utility.yul\":4391:4411   */\n              tag_58\n              jump\t// in\n            tag_131:\n                /* \"#utility.yul\":4386:4411   */\n              swap3\n              pop\n                /* \"#utility.yul\":4435:4436   */\n              dup3\n                /* \"#utility.yul\":4432:4433   */\n              dup3\n                /* \"#utility.yul\":4428:4437   */\n              sub\n                /* \"#utility.yul\":4420:4437   */\n              swap1\n              pop\n                /* \"#utility.yul\":4459:4460   */\n              dup2\n                /* \"#utility.yul\":4453:4457   */\n              dup2\n                /* \"#utility.yul\":4450:4461   */\n              gt\n                /* \"#utility.yul\":4447:4484   */\n              iszero\n              tag_132\n              jumpi\n                /* \"#utility.yul\":4464:4482   */\n              tag_133\n              tag_75\n              jump\t// in\n            tag_133:\n                /* \"#utility.yul\":4447:4484   */\n            tag_132:\n                /* \"#utility.yul\":4297:4491   */\n              swap3\n              swap2\n              pop\n              pop\n              jump\t// out\n                /* \"#utility.yul\":4497:4644   */\n            tag_76:\n                /* \"#utility.yul\":4598:4609   */\n              0x00\n                /* \"#utility.yul\":4635:4638   */\n              dup2\n                /* \"#utility.yul\":4620:4638   */\n              swap1\n              pop\n                /* \"#utility.yul\":4497:4644   */\n              swap3\n              swap2\n              pop\n              pop\n              jump\t// out\n                /* \"#utility.yul\":4650:4764   */\n            tag_77:\n              pop\n              jump\t// out\n                /* \"#utility.yul\":4770:5168   */\n            tag_78:\n                /* \"#utility.yul\":4929:4932   */\n              0x00\n                /* \"#utility.yul\":4950:5033   */\n              tag_137\n                /* \"#utility.yul\":5031:5032   */\n              0x00\n                /* \"#utility.yul\":5026:5029   */\n              dup4\n                /* \"#utility.yul\":4950:5033   */\n              tag_76\n              jump\t// in\n            tag_137:\n                /* \"#utility.yul\":4943:5033   */\n              swap2\n              pop\n                /* \"#utility.yul\":5042:5135   */\n              tag_138\n                /* \"#utility.yul\":5131:5134   */\n              dup3\n                /* \"#utility.yul\":5042:5135   */\n              tag_77\n              jump\t// in\n            tag_138:\n                /* \"#utility.yul\":5160:5161   */\n              0x00\n                /* \"#utility.yul\":5155:5158   */\n              dup3\n                /* \"#utility.yul\":5151:5162   */\n              add\n                /* \"#utility.yul\":5144:5162   */\n              swap1\n              pop\n                /* \"#utility.yul\":4770:5168   */\n              swap2\n              swap1\n              pop\n              jump\t// out\n                /* \"#utility.yul\":5174:5553   */\n            tag_42:\n                /* \"#utility.yul\":5358:5361   */\n              0x00\n                /* \"#utility.yul\":5380:5527   */\n              tag_140\n                /* \"#utility.yul\":5523:5526   */\n              dup3\n                /* \"#utility.yul\":5380:5527   */\n              tag_78\n              jump\t// in\n            tag_140:\n                /* \"#utility.yul\":5373:5527   */\n              swap2\n              pop\n                /* \"#utility.yul\":5544:5547   */\n              dup2\n                /* \"#utility.yul\":5537:5547   */\n              swap1\n              pop\n                /* \"#utility.yul\":5174:5553   */\n              swap2\n              swap1\n              pop\n              jump\t// out\n                /* \"#utility.yul\":5559:5724   */\n            tag_79:\n                /* \"#utility.yul\":5699:5716   */\n              0x5472616e73666572206661696c65640000000000000000000000000000000000\n                /* \"#utility.yul\":5695:5696   */\n              0x00\n                /* \"#utility.yul\":5687:5693   */\n              dup3\n                /* \"#utility.yul\":5683:5697   */\n              add\n                /* \"#utility.yul\":5676:5717   */\n              mstore\n                /* \"#utility.yul\":5559:5724   */\n              pop\n              jump\t// out\n                /* \"#utility.yul\":5730:6096   */\n            tag_80:\n                /* \"#utility.yul\":5872:5875   */\n              0x00\n                /* \"#utility.yul\":5893:5960   */\n              tag_143\n                /* \"#utility.yul\":5957:5959   */\n              0x0f\n                /* \"#utility.yul\":5952:5955   */\n              dup4\n                /* \"#utility.yul\":5893:5960   */\n              tag_61\n              jump\t// in\n            tag_143:\n                /* \"#utility.yul\":5886:5960   */\n              swap2\n              pop\n                /* \"#utility.yul\":5969:6062   */\n              tag_144\n                /* \"#utility.yul\":6058:6061   */\n              dup3\n                /* \"#utility.yul\":5969:6062   */\n              tag_79\n              jump\t// in\n            tag_144:\n                /* \"#utility.yul\":6087:6089   */\n              0x20\n                /* \"#utility.yul\":6082:6085   */\n              dup3\n                /* \"#utility.yul\":6078:6090   */\n              add\n                /* \"#utility.yul\":6071:6090   */\n              swap1\n              pop\n                /* \"#utility.yul\":5730:6096   */\n              swap2\n              swap1\n              pop\n              jump\t// out\n                /* \"#utility.yul\":6102:6521   */\n            tag_48:\n                /* \"#utility.yul\":6268:6272   */\n              0x00\n                /* \"#utility.yul\":6306:6308   */\n              0x20\n                /* \"#utility.yul\":6295:6304   */\n              dup3\n                /* \"#utility.yul\":6291:6309   */\n              add\n                /* \"#utility.yul\":6283:6309   */\n              swap1\n              pop\n                /* \"#utility.yul\":6355:6364   */\n              dup2\n                /* \"#utility.yul\":6349:6353   */\n              dup2\n                /* \"#utility.yul\":6345:6365   */\n              sub\n                /* \"#utility.yul\":6341:6342   */\n              0x00\n                /* \"#utility.yul\":6330:6339   */\n              dup4\n                /* \"#utility.yul\":6326:6343   */\n              add\n                /* \"#utility.yul\":6319:6366   */\n              mstore\n                /* \"#utility.yul\":6383:6514   */\n              tag_146\n                /* \"#utility.yul\":6509:6513   */\n              dup2\n                /* \"#utility.yul\":6383:6514   */\n              tag_80\n              jump\t// in\n            tag_146:\n                /* \"#utility.yul\":6375:6514   */\n              swap1\n              pop\n                /* \"#utility.yul\":6102:6521   */\n              swap2\n              swap1\n              pop\n              jump\t// out\n                /* \"#utility.yul\":6527:6718   */\n            tag_50:\n                /* \"#utility.yul\":6567:6570   */\n              0x00\n                /* \"#utility.yul\":6586:6606   */\n              tag_148\n                /* \"#utility.yul\":6604:6605   */\n              dup3\n                /* \"#utility.yul\":6586:6606   */\n              tag_58\n              jump\t// in\n            tag_148:\n                /* \"#utility.yul\":6581:6606   */\n              swap2\n              pop\n                /* \"#utility.yul\":6620:6640   */\n              tag_149\n                /* \"#utility.yul\":6638:6639   */\n              dup4\n                /* \"#utility.yul\":6620:6640   */\n              tag_58\n              jump\t// in\n            tag_149:\n                /* \"#utility.yul\":6615:6640   */\n              swap3\n              pop\n                /* \"#utility.yul\":6663:6664   */\n              dup3\n                /* \"#utility.yul\":6660:6661   */\n              dup3\n                /* \"#utility.yul\":6656:6665   */\n              add\n                /* \"#utility.yul\":6649:6665   */\n              swap1\n              pop\n                /* \"#utility.yul\":6684:6687   */\n              dup1\n                /* \"#utility.yul\":6681:6682   */\n              dup3\n                /* \"#utility.yul\":6678:6688   */\n              gt\n                /* \"#utility.yul\":6675:6711   */\n              iszero\n              tag_150\n              jumpi\n                /* \"#utility.yul\":6691:6709   */\n              tag_151\n              tag_75\n              jump\t// in\n            tag_151:\n                /* \"#utility.yul\":6675:6711   */\n            tag_150:\n                /* \"#utility.yul\":6527:6718   */\n              swap3\n              swap2\n              pop\n              pop\n              jump\t// out\n\n            auxdata: 0xa2646970667358221220b3b7bf54d2f65c800dd4bf0e04445f47dd30482ae5b11c1aa1b04ef6269272c864736f6c634300081a0033\n        }\n    }\n\n    auxdata: 0xa26469706673582212203920c0001e800980484c744c00a7978b65a726852c62ede14d44018528c4c28464736f6c634300081a0033\n}\n",
				"bytecode": {
					"linkReferences": {},
					"object": "6080604052348015600e575f80fd5b506119398061001c5f395ff3fe608060405260043610610049575f3560e01c80631a45ca741461004d578063859362281461008957806399142b5f146100c5578063efdc99c5146100e1578063f2bdc0351461011d575b5f80fd5b348015610058575f80fd5b50610073600480360381019061006e9190610820565b610145565b604051610080919061087f565b60405180910390f35b348015610094575f80fd5b506100af60048036038101906100aa9190610820565b610265565b6040516100bc91906108d7565b60405180910390f35b6100df60048036038101906100da919061091a565b6102ac565b005b3480156100ec575f80fd5b5061010760048036038101906101029190610820565b610461565b604051610114919061087f565b60405180910390f35b348015610128575f80fd5b50610143600480360381019061013e919061099e565b61058c565b005b5f805f836040516101569190610a78565b90815260200160405180910390205f9054906101000a900473ffffffffffffffffffffffffffffffffffffffff1690505f73ffffffffffffffffffffffffffffffffffffffff168173ffffffffffffffffffffffffffffffffffffffff16036101eb576040517f470cbf4700000000000000000000000000000000000000000000000000000000815260040160405180910390fd5b5f8190508073ffffffffffffffffffffffffffffffffffffffff1663047fc9aa6040518163ffffffff1660e01b8152600401602060405180830381865afa158015610238573d5f803e3d5ffd5b505050506040513d601f19601f8201168201806040525081019061025c9190610aa2565b92505050919050565b5f818051602081018201805184825260208301602085012081835280955050505050505f915054906101000a900473ffffffffffffffffffffffffffffffffffffffff1681565b5f73ffffffffffffffffffffffffffffffffffffffff168273ffffffffffffffffffffffffffffffffffffffff1603610311576040517fe6c4247b00000000000000000000000000000000000000000000000000000000815260040160405180910390fd5b5f340361034a576040517f69640e7200000000000000000000000000000000000000000000000000000000815260040160405180910390fd5b5f808260405161035a9190610a78565b90815260200160405180910390205f9054906101000a900473ffffffffffffffffffffffffffffffffffffffff1690505f73ffffffffffffffffffffffffffffffffffffffff168173ffffffffffffffffffffffffffffffffffffffff16036103ef576040517f470cbf4700000000000000000000000000000000000000000000000000000000815260040160405180910390fd5b5f8190508073ffffffffffffffffffffffffffffffffffffffff16632ccb1b3085346040518363ffffffff1660e01b815260040161042e929190610acd565b5f604051808303815f87803b158015610445575f80fd5b505af1158015610457573d5f803e3d5ffd5b5050505050505050565b5f805f836040516104729190610a78565b90815260200160405180910390205f9054906101000a900473ffffffffffffffffffffffffffffffffffffffff1690505f73ffffffffffffffffffffffffffffffffffffffff168173ffffffffffffffffffffffffffffffffffffffff1603610507576040517f470cbf4700000000000000000000000000000000000000000000000000000000815260040160405180910390fd5b5f8190508073ffffffffffffffffffffffffffffffffffffffff166370a08231336040518263ffffffff1660e01b815260040161054491906108d7565b602060405180830381865afa15801561055f573d5f803e3d5ffd5b505050506040513d601f19601f820116820180604052508101906105839190610aa2565b92505050919050565b5f73ffffffffffffffffffffffffffffffffffffffff165f836040516105b29190610a78565b90815260200160405180910390205f9054906101000a900473ffffffffffffffffffffffffffffffffffffffff1673ffffffffffffffffffffffffffffffffffffffff161461062d576040517f587daa3000000000000000000000000000000000000000000000000000000000815260040160405180910390fd5b5f83838360405161063d906106c6565b61064993929190610b3c565b604051809103905ff080158015610662573d5f803e3d5ffd5b509050805f846040516106759190610a78565b90815260200160405180910390205f6101000a81548173ffffffffffffffffffffffffffffffffffffffff021916908373ffffffffffffffffffffffffffffffffffffffff16021790555050505050565b610d8480610b8083390190565b5f604051905090565b5f80fd5b5f80fd5b5f80fd5b5f80fd5b5f601f19601f8301169050919050565b7f4e487b71000000000000000000000000000000000000000000000000000000005f52604160045260245ffd5b610732826106ec565b810181811067ffffffffffffffff82111715610751576107506106fc565b5b80604052505050565b5f6107636106d3565b905061076f8282610729565b919050565b5f67ffffffffffffffff82111561078e5761078d6106fc565b5b610797826106ec565b9050602081019050919050565b828183375f83830152505050565b5f6107c46107bf84610774565b61075a565b9050828152602081018484840111156107e0576107df6106e8565b5b6107eb8482856107a4565b509392505050565b5f82601f830112610807576108066106e4565b5b81356108178482602086016107b2565b91505092915050565b5f60208284031215610835576108346106dc565b5b5f82013567ffffffffffffffff811115610852576108516106e0565b5b61085e848285016107f3565b91505092915050565b5f819050919050565b61087981610867565b82525050565b5f6020820190506108925f830184610870565b92915050565b5f73ffffffffffffffffffffffffffffffffffffffff82169050919050565b5f6108c182610898565b9050919050565b6108d1816108b7565b82525050565b5f6020820190506108ea5f8301846108c8565b92915050565b6108f9816108b7565b8114610903575f80fd5b50565b5f81359050610914816108f0565b92915050565b5f80604083850312156109305761092f6106dc565b5b5f61093d85828601610906565b925050602083013567ffffffffffffffff81111561095e5761095d6106e0565b5b61096a858286016107f3565b9150509250929050565b61097d81610867565b8114610987575f80fd5b50565b5f8135905061099881610974565b92915050565b5f805f606084860312156109b5576109b46106dc565b5b5f84013567ffffffffffffffff8111156109d2576109d16106e0565b5b6109de868287016107f3565b935050602084013567ffffffffffffffff8111156109ff576109fe6106e0565b5b610a0b868287016107f3565b9250506040610a1c8682870161098a565b9150509250925092565b5f81519050919050565b5f81905092915050565b8281835e5f83830152505050565b5f610a5282610a26565b610a5c8185610a30565b9350610a6c818560208601610a3a565b80840191505092915050565b5f610a838284610a48565b915081905092915050565b5f81519050610a9c81610974565b92915050565b5f60208284031215610ab757610ab66106dc565b5b5f610ac484828501610a8e565b91505092915050565b5f604082019050610ae05f8301856108c8565b610aed6020830184610870565b9392505050565b5f82825260208201905092915050565b5f610b0e82610a26565b610b188185610af4565b9350610b28818560208601610a3a565b610b31816106ec565b840191505092915050565b5f6060820190508181035f830152610b548186610b04565b90508181036020830152610b688185610b04565b9050610b776040830184610870565b94935050505056fe608060405234801561000f575f80fd5b50604051610d84380380610d84833981810160405281019061003191906101f2565b825f908161003f919061047e565b50816001908161004f919061047e565b50670de0b6b3a764000081610064919061057a565b6002819055505050506105bb565b5f604051905090565b5f80fd5b5f80fd5b5f80fd5b5f80fd5b5f601f19601f8301169050919050565b7f4e487b71000000000000000000000000000000000000000000000000000000005f52604160045260245ffd5b6100d18261008b565b810181811067ffffffffffffffff821117156100f0576100ef61009b565b5b80604052505050565b5f610102610072565b905061010e82826100c8565b919050565b5f67ffffffffffffffff82111561012d5761012c61009b565b5b6101368261008b565b9050602081019050919050565b8281835e5f83830152505050565b5f61016361015e84610113565b6100f9565b90508281526020810184848401111561017f5761017e610087565b5b61018a848285610143565b509392505050565b5f82601f8301126101a6576101a5610083565b5b81516101b6848260208601610151565b91505092915050565b5f819050919050565b6101d1816101bf565b81146101db575f80fd5b50565b5f815190506101ec816101c8565b92915050565b5f805f606084860312156102095761020861007b565b5b5f84015167ffffffffffffffff8111156102265761022561007f565b5b61023286828701610192565b935050602084015167ffffffffffffffff8111156102535761025261007f565b5b61025f86828701610192565b9250506040610270868287016101de565b9150509250925092565b5f81519050919050565b7f4e487b71000000000000000000000000000000000000000000000000000000005f52602260045260245ffd5b5f60028204905060018216806102c857607f821691505b6020821081036102db576102da610284565b5b50919050565b5f819050815f5260205f209050919050565b5f6020601f8301049050919050565b5f82821b905092915050565b5f6008830261033d7fffffffffffffffffffffffffffffffffffffffffffffffffffffffffffffffff82610302565b6103478683610302565b95508019841693508086168417925050509392505050565b5f819050919050565b5f61038261037d610378846101bf565b61035f565b6101bf565b9050919050565b5f819050919050565b61039b83610368565b6103af6103a782610389565b84845461030e565b825550505050565b5f90565b6103c36103b7565b6103ce818484610392565b505050565b5b818110156103f1576103e65f826103bb565b6001810190506103d4565b5050565b601f82111561043657610407816102e1565b610410846102f3565b8101602085101561041f578190505b61043361042b856102f3565b8301826103d3565b50505b505050565b5f82821c905092915050565b5f6104565f198460080261043b565b1980831691505092915050565b5f61046e8383610447565b9150826002028217905092915050565b6104878261027a565b67ffffffffffffffff8111156104a05761049f61009b565b5b6104aa82546102b1565b6104b58282856103f5565b5f60209050601f8311600181146104e6575f84156104d4578287015190505b6104de8582610463565b865550610545565b601f1984166104f4866102e1565b5f5b8281101561051b578489015182556001820191506020850194506020810190506104f6565b868310156105385784890151610534601f891682610447565b8355505b6001600288020188555050505b505050505050565b7f4e487b71000000000000000000000000000000000000000000000000000000005f52601160045260245ffd5b5f610584826101bf565b915061058f836101bf565b925082820261059d816101bf565b915082820484148315176105b4576105b361054d565b5b5092915050565b6107bc806105c85f395ff3fe608060405260043610610049575f3560e01c8063047fc9aa1461004d57806306fdde03146100775780632ccb1b30146100a157806370a08231146100bd5780638ba47bdd146100f9575b5f80fd5b348015610058575f80fd5b50610061610123565b60405161006e9190610453565b60405180910390f35b348015610082575f80fd5b5061008b610129565b60405161009891906104dc565b60405180910390f35b6100bb60048036038101906100b69190610584565b6101b4565b005b3480156100c8575f80fd5b506100e360048036038101906100de91906105c2565b610304565b6040516100f09190610453565b60405180910390f35b348015610104575f80fd5b5061010d6103af565b60405161011a91906104dc565b60405180910390f35b60025481565b5f80546101359061061a565b80601f01602080910402602001604051908101604052809291908181526020018280546101619061061a565b80156101ac5780601f10610183576101008083540402835291602001916101ac565b820191905f5260205f20905b81548152906001019060200180831161018f57829003601f168201915b505050505081565b6002543411156101f0576040517f69640e7200000000000000000000000000000000000000000000000000000000815260040160405180910390fd5b806002546101fe9190610677565b6002819055505f8273ffffffffffffffffffffffffffffffffffffffff1634604051610229906106d7565b5f6040518083038185875af1925050503d805f8114610263576040519150601f19603f3d011682016040523d82523d5f602084013e610268565b606091505b50509050806102ac576040517f08c379a00000000000000000000000000000000000000000000000000000000081526004016102a390610735565b60405180910390fd5b8160035f8573ffffffffffffffffffffffffffffffffffffffff1673ffffffffffffffffffffffffffffffffffffffff1681526020019081526020015f205f8282546102f89190610753565b92505081905550505050565b5f8073ffffffffffffffffffffffffffffffffffffffff168273ffffffffffffffffffffffffffffffffffffffff160361036a576040517fe6c4247b00000000000000000000000000000000000000000000000000000000815260040160405180910390fd5b60035f8373ffffffffffffffffffffffffffffffffffffffff1673ffffffffffffffffffffffffffffffffffffffff1681526020019081526020015f20549050919050565b600180546103bc9061061a565b80601f01602080910402602001604051908101604052809291908181526020018280546103e89061061a565b80156104335780601f1061040a57610100808354040283529160200191610433565b820191905f5260205f20905b81548152906001019060200180831161041657829003601f168201915b505050505081565b5f819050919050565b61044d8161043b565b82525050565b5f6020820190506104665f830184610444565b92915050565b5f81519050919050565b5f82825260208201905092915050565b8281835e5f83830152505050565b5f601f19601f8301169050919050565b5f6104ae8261046c565b6104b88185610476565b93506104c8818560208601610486565b6104d181610494565b840191505092915050565b5f6020820190508181035f8301526104f481846104a4565b905092915050565b5f80fd5b5f73ffffffffffffffffffffffffffffffffffffffff82169050919050565b5f61052982610500565b9050919050565b6105398161051f565b8114610543575f80fd5b50565b5f8135905061055481610530565b92915050565b6105638161043b565b811461056d575f80fd5b50565b5f8135905061057e8161055a565b92915050565b5f806040838503121561059a576105996104fc565b5b5f6105a785828601610546565b92505060206105b885828601610570565b9150509250929050565b5f602082840312156105d7576105d66104fc565b5b5f6105e484828501610546565b91505092915050565b7f4e487b71000000000000000000000000000000000000000000000000000000005f52602260045260245ffd5b5f600282049050600182168061063157607f821691505b602082108103610644576106436105ed565b5b50919050565b7f4e487b71000000000000000000000000000000000000000000000000000000005f52601160045260245ffd5b5f6106818261043b565b915061068c8361043b565b92508282039050818111156106a4576106a361064a565b5b92915050565b5f81905092915050565b50565b5f6106c25f836106aa565b91506106cd826106b4565b5f82019050919050565b5f6106e1826106b7565b9150819050919050565b7f5472616e73666572206661696c656400000000000000000000000000000000005f82015250565b5f61071f600f83610476565b915061072a826106eb565b602082019050919050565b5f6020820190508181035f83015261074c81610713565b9050919050565b5f61075d8261043b565b91506107688361043b565b92508282019050808211156107805761077f61064a565b5b9291505056fea2646970667358221220b3b7bf54d2f65c800dd4bf0e04445f47dd30482ae5b11c1aa1b04ef6269272c864736f6c634300081a0033a26469706673582212203920c0001e800980484c744c00a7978b65a726852c62ede14d44018528c4c28464736f6c634300081a0033",
					"opcodes": "PUSH1 0x80 PUSH1 0x40 MSTORE CALLVALUE DUP1 ISZERO PUSH1 0xE JUMPI PUSH0 DUP1 REVERT JUMPDEST POP PUSH2 0x1939 DUP1 PUSH2 0x1C PUSH0 CODECOPY PUSH0 RETURN INVALID PUSH1 0x80 PUSH1 0x40 MSTORE PUSH1 0x4 CALLDATASIZE LT PUSH2 0x49 JUMPI PUSH0 CALLDATALOAD PUSH1 0xE0 SHR DUP1 PUSH4 0x1A45CA74 EQ PUSH2 0x4D JUMPI DUP1 PUSH4 0x85936228 EQ PUSH2 0x89 JUMPI DUP1 PUSH4 0x99142B5F EQ PUSH2 0xC5 JUMPI DUP1 PUSH4 0xEFDC99C5 EQ PUSH2 0xE1 JUMPI DUP1 PUSH4 0xF2BDC035 EQ PUSH2 0x11D JUMPI JUMPDEST PUSH0 DUP1 REVERT JUMPDEST CALLVALUE DUP1 ISZERO PUSH2 0x58 JUMPI PUSH0 DUP1 REVERT JUMPDEST POP PUSH2 0x73 PUSH1 0x4 DUP1 CALLDATASIZE SUB DUP2 ADD SWAP1 PUSH2 0x6E SWAP2 SWAP1 PUSH2 0x820 JUMP JUMPDEST PUSH2 0x145 JUMP JUMPDEST PUSH1 0x40 MLOAD PUSH2 0x80 SWAP2 SWAP1 PUSH2 0x87F JUMP JUMPDEST PUSH1 0x40 MLOAD DUP1 SWAP2 SUB SWAP1 RETURN JUMPDEST CALLVALUE DUP1 ISZERO PUSH2 0x94 JUMPI PUSH0 DUP1 REVERT JUMPDEST POP PUSH2 0xAF PUSH1 0x4 DUP1 CALLDATASIZE SUB DUP2 ADD SWAP1 PUSH2 0xAA SWAP2 SWAP1 PUSH2 0x820 JUMP JUMPDEST PUSH2 0x265 JUMP JUMPDEST PUSH1 0x40 MLOAD PUSH2 0xBC SWAP2 SWAP1 PUSH2 0x8D7 JUMP JUMPDEST PUSH1 0x40 MLOAD DUP1 SWAP2 SUB SWAP1 RETURN JUMPDEST PUSH2 0xDF PUSH1 0x4 DUP1 CALLDATASIZE SUB DUP2 ADD SWAP1 PUSH2 0xDA SWAP2 SWAP1 PUSH2 0x91A JUMP JUMPDEST PUSH2 0x2AC JUMP JUMPDEST STOP JUMPDEST CALLVALUE DUP1 ISZERO PUSH2 0xEC JUMPI PUSH0 DUP1 REVERT JUMPDEST POP PUSH2 0x107 PUSH1 0x4 DUP1 CALLDATASIZE SUB DUP2 ADD SWAP1 PUSH2 0x102 SWAP2 SWAP1 PUSH2 0x820 JUMP JUMPDEST PUSH2 0x461 JUMP JUMPDEST PUSH1 0x40 MLOAD PUSH2 0x114 SWAP2 SWAP1 PUSH2 0x87F JUMP JUMPDEST PUSH1 0x40 MLOAD DUP1 SWAP2 SUB SWAP1 RETURN JUMPDEST CALLVALUE DUP1 ISZERO PUSH2 0x128 JUMPI PUSH0 DUP1 REVERT JUMPDEST POP PUSH2 0x143 PUSH1 0x4 DUP1 CALLDATASIZE SUB DUP2 ADD SWAP1 PUSH2 0x13E SWAP2 SWAP1 PUSH2 0x99E JUMP JUMPDEST PUSH2 0x58C JUMP JUMPDEST STOP JUMPDEST PUSH0 DUP1 PUSH0 DUP4 PUSH1 0x40 MLOAD PUSH2 0x156 SWAP2 SWAP1 PUSH2 0xA78 JUMP JUMPDEST SWAP1 DUP2 MSTORE PUSH1 0x20 ADD PUSH1 0x40 MLOAD DUP1 SWAP2 SUB SWAP1 KECCAK256 PUSH0 SWAP1 SLOAD SWAP1 PUSH2 0x100 EXP SWAP1 DIV PUSH20 0xFFFFFFFFFFFFFFFFFFFFFFFFFFFFFFFFFFFFFFFF AND SWAP1 POP PUSH0 PUSH20 0xFFFFFFFFFFFFFFFFFFFFFFFFFFFFFFFFFFFFFFFF AND DUP2 PUSH20 0xFFFFFFFFFFFFFFFFFFFFFFFFFFFFFFFFFFFFFFFF AND SUB PUSH2 0x1EB JUMPI PUSH1 0x40 MLOAD PUSH32 0x470CBF4700000000000000000000000000000000000000000000000000000000 DUP2 MSTORE PUSH1 0x4 ADD PUSH1 0x40 MLOAD DUP1 SWAP2 SUB SWAP1 REVERT JUMPDEST PUSH0 DUP2 SWAP1 POP DUP1 PUSH20 0xFFFFFFFFFFFFFFFFFFFFFFFFFFFFFFFFFFFFFFFF AND PUSH4 0x47FC9AA PUSH1 0x40 MLOAD DUP2 PUSH4 0xFFFFFFFF AND PUSH1 0xE0 SHL DUP2 MSTORE PUSH1 0x4 ADD PUSH1 0x20 PUSH1 0x40 MLOAD DUP1 DUP4 SUB DUP2 DUP7 GAS STATICCALL ISZERO DUP1 ISZERO PUSH2 0x238 JUMPI RETURNDATASIZE PUSH0 DUP1 RETURNDATACOPY RETURNDATASIZE PUSH0 REVERT JUMPDEST POP POP POP POP PUSH1 0x40 MLOAD RETURNDATASIZE PUSH1 0x1F NOT PUSH1 0x1F DUP3 ADD AND DUP3 ADD DUP1 PUSH1 0x40 MSTORE POP DUP2 ADD SWAP1 PUSH2 0x25C SWAP2 SWAP1 PUSH2 0xAA2 JUMP JUMPDEST SWAP3 POP POP POP SWAP2 SWAP1 POP JUMP JUMPDEST PUSH0 DUP2 DUP1 MLOAD PUSH1 0x20 DUP2 ADD DUP3 ADD DUP1 MLOAD DUP5 DUP3 MSTORE PUSH1 0x20 DUP4 ADD PUSH1 0x20 DUP6 ADD KECCAK256 DUP2 DUP4 MSTORE DUP1 SWAP6 POP POP POP POP POP POP PUSH0 SWAP2 POP SLOAD SWAP1 PUSH2 0x100 EXP SWAP1 DIV PUSH20 0xFFFFFFFFFFFFFFFFFFFFFFFFFFFFFFFFFFFFFFFF AND DUP2 JUMP JUMPDEST PUSH0 PUSH20 0xFFFFFFFFFFFFFFFFFFFFFFFFFFFFFFFFFFFFFFFF AND DUP3 PUSH20 0xFFFFFFFFFFFFFFFFFFFFFFFFFFFFFFFFFFFFFFFF AND SUB PUSH2 0x311 JUMPI PUSH1 0x40 MLOAD PUSH32 0xE6C4247B00000000000000000000000000000000000000000000000000000000 DUP2 MSTORE PUSH1 0x4 ADD PUSH1 0x40 MLOAD DUP1 SWAP2 SUB SWAP1 REVERT JUMPDEST PUSH0 CALLVALUE SUB PUSH2 0x34A JUMPI PUSH1 0x40 MLOAD PUSH32 0x69640E7200000000000000000000000000000000000000000000000000000000 DUP2 MSTORE PUSH1 0x4 ADD PUSH1 0x40 MLOAD DUP1 SWAP2 SUB SWAP1 REVERT JUMPDEST PUSH0 DUP1 DUP3 PUSH1 0x40 MLOAD PUSH2 0x35A SWAP2 SWAP1 PUSH2 0xA78 JUMP JUMPDEST SWAP1 DUP2 MSTORE PUSH1 0x20 ADD PUSH1 0x40 MLOAD DUP1 SWAP2 SUB SWAP1 KECCAK256 PUSH0 SWAP1 SLOAD SWAP1 PUSH2 0x100 EXP SWAP1 DIV PUSH20 0xFFFFFFFFFFFFFFFFFFFFFFFFFFFFFFFFFFFFFFFF AND SWAP1 POP PUSH0 PUSH20 0xFFFFFFFFFFFFFFFFFFFFFFFFFFFFFFFFFFFFFFFF AND DUP2 PUSH20 0xFFFFFFFFFFFFFFFFFFFFFFFFFFFFFFFFFFFFFFFF AND SUB PUSH2 0x3EF JUMPI PUSH1 0x40 MLOAD PUSH32 0x470CBF4700000000000000000000000000000000000000000000000000000000 DUP2 MSTORE PUSH1 0x4 ADD PUSH1 0x40 MLOAD DUP1 SWAP2 SUB SWAP1 REVERT JUMPDEST PUSH0 DUP2 SWAP1 POP DUP1 PUSH20 0xFFFFFFFFFFFFFFFFFFFFFFFFFFFFFFFFFFFFFFFF AND PUSH4 0x2CCB1B30 DUP6 CALLVALUE PUSH1 0x40 MLOAD DUP4 PUSH4 0xFFFFFFFF AND PUSH1 0xE0 SHL DUP2 MSTORE PUSH1 0x4 ADD PUSH2 0x42E SWAP3 SWAP2 SWAP1 PUSH2 0xACD JUMP JUMPDEST PUSH0 PUSH1 0x40 MLOAD DUP1 DUP4 SUB DUP2 PUSH0 DUP8 DUP1 EXTCODESIZE ISZERO DUP1 ISZERO PUSH2 0x445 JUMPI PUSH0 DUP1 REVERT JUMPDEST POP GAS CALL ISZERO DUP1 ISZERO PUSH2 0x457 JUMPI RETURNDATASIZE PUSH0 DUP1 RETURNDATACOPY RETURNDATASIZE PUSH0 REVERT JUMPDEST POP POP POP POP POP POP POP POP JUMP JUMPDEST PUSH0 DUP1 PUSH0 DUP4 PUSH1 0x40 MLOAD PUSH2 0x472 SWAP2 SWAP1 PUSH2 0xA78 JUMP JUMPDEST SWAP1 DUP2 MSTORE PUSH1 0x20 ADD PUSH1 0x40 MLOAD DUP1 SWAP2 SUB SWAP1 KECCAK256 PUSH0 SWAP1 SLOAD SWAP1 PUSH2 0x100 EXP SWAP1 DIV PUSH20 0xFFFFFFFFFFFFFFFFFFFFFFFFFFFFFFFFFFFFFFFF AND SWAP1 POP PUSH0 PUSH20 0xFFFFFFFFFFFFFFFFFFFFFFFFFFFFFFFFFFFFFFFF AND DUP2 PUSH20 0xFFFFFFFFFFFFFFFFFFFFFFFFFFFFFFFFFFFFFFFF AND SUB PUSH2 0x507 JUMPI PUSH1 0x40 MLOAD PUSH32 0x470CBF4700000000000000000000000000000000000000000000000000000000 DUP2 MSTORE PUSH1 0x4 ADD PUSH1 0x40 MLOAD DUP1 SWAP2 SUB SWAP1 REVERT JUMPDEST PUSH0 DUP2 SWAP1 POP DUP1 PUSH20 0xFFFFFFFFFFFFFFFFFFFFFFFFFFFFFFFFFFFFFFFF AND PUSH4 0x70A08231 CALLER PUSH1 0x40 MLOAD DUP3 PUSH4 0xFFFFFFFF AND PUSH1 0xE0 SHL DUP2 MSTORE PUSH1 0x4 ADD PUSH2 0x544 SWAP2 SWAP1 PUSH2 0x8D7 JUMP JUMPDEST PUSH1 0x20 PUSH1 0x40 MLOAD DUP1 DUP4 SUB DUP2 DUP7 GAS STATICCALL ISZERO DUP1 ISZERO PUSH2 0x55F JUMPI RETURNDATASIZE PUSH0 DUP1 RETURNDATACOPY RETURNDATASIZE PUSH0 REVERT JUMPDEST POP POP POP POP PUSH1 0x40 MLOAD RETURNDATASIZE PUSH1 0x1F NOT PUSH1 0x1F DUP3 ADD AND DUP3 ADD DUP1 PUSH1 0x40 MSTORE POP DUP2 ADD SWAP1 PUSH2 0x583 SWAP2 SWAP1 PUSH2 0xAA2 JUMP JUMPDEST SWAP3 POP POP POP SWAP2 SWAP1 POP JUMP JUMPDEST PUSH0 PUSH20 0xFFFFFFFFFFFFFFFFFFFFFFFFFFFFFFFFFFFFFFFF AND PUSH0 DUP4 PUSH1 0x40 MLOAD PUSH2 0x5B2 SWAP2 SWAP1 PUSH2 0xA78 JUMP JUMPDEST SWAP1 DUP2 MSTORE PUSH1 0x20 ADD PUSH1 0x40 MLOAD DUP1 SWAP2 SUB SWAP1 KECCAK256 PUSH0 SWAP1 SLOAD SWAP1 PUSH2 0x100 EXP SWAP1 DIV PUSH20 0xFFFFFFFFFFFFFFFFFFFFFFFFFFFFFFFFFFFFFFFF AND PUSH20 0xFFFFFFFFFFFFFFFFFFFFFFFFFFFFFFFFFFFFFFFF AND EQ PUSH2 0x62D JUMPI PUSH1 0x40 MLOAD PUSH32 0x587DAA3000000000000000000000000000000000000000000000000000000000 DUP2 MSTORE PUSH1 0x4 ADD PUSH1 0x40 MLOAD DUP1 SWAP2 SUB SWAP1 REVERT JUMPDEST PUSH0 DUP4 DUP4 DUP4 PUSH1 0x40 MLOAD PUSH2 0x63D SWAP1 PUSH2 0x6C6 JUMP JUMPDEST PUSH2 0x649 SWAP4 SWAP3 SWAP2 SWAP1 PUSH2 0xB3C JUMP JUMPDEST PUSH1 0x40 MLOAD DUP1 SWAP2 SUB SWAP1 PUSH0 CREATE DUP1 ISZERO DUP1 ISZERO PUSH2 0x662 JUMPI RETURNDATASIZE PUSH0 DUP1 RETURNDATACOPY RETURNDATASIZE PUSH0 REVERT JUMPDEST POP SWAP1 POP DUP1 PUSH0 DUP5 PUSH1 0x40 MLOAD PUSH2 0x675 SWAP2 SWAP1 PUSH2 0xA78 JUMP JUMPDEST SWAP1 DUP2 MSTORE PUSH1 0x20 ADD PUSH1 0x40 MLOAD DUP1 SWAP2 SUB SWAP1 KECCAK256 PUSH0 PUSH2 0x100 EXP DUP2 SLOAD DUP2 PUSH20 0xFFFFFFFFFFFFFFFFFFFFFFFFFFFFFFFFFFFFFFFF MUL NOT AND SWAP1 DUP4 PUSH20 0xFFFFFFFFFFFFFFFFFFFFFFFFFFFFFFFFFFFFFFFF AND MUL OR SWAP1 SSTORE POP POP POP POP POP JUMP JUMPDEST PUSH2 0xD84 DUP1 PUSH2 0xB80 DUP4 CODECOPY ADD SWAP1 JUMP JUMPDEST PUSH0 PUSH1 0x40 MLOAD SWAP1 POP SWAP1 JUMP JUMPDEST PUSH0 DUP1 REVERT JUMPDEST PUSH0 DUP1 REVERT JUMPDEST PUSH0 DUP1 REVERT JUMPDEST PUSH0 DUP1 REVERT JUMPDEST PUSH0 PUSH1 0x1F NOT PUSH1 0x1F DUP4 ADD AND SWAP1 POP SWAP2 SWAP1 POP JUMP JUMPDEST PUSH32 0x4E487B7100000000000000000000000000000000000000000000000000000000 PUSH0 MSTORE PUSH1 0x41 PUSH1 0x4 MSTORE PUSH1 0x24 PUSH0 REVERT JUMPDEST PUSH2 0x732 DUP3 PUSH2 0x6EC JUMP JUMPDEST DUP2 ADD DUP2 DUP2 LT PUSH8 0xFFFFFFFFFFFFFFFF DUP3 GT OR ISZERO PUSH2 0x751 JUMPI PUSH2 0x750 PUSH2 0x6FC JUMP JUMPDEST JUMPDEST DUP1 PUSH1 0x40 MSTORE POP POP POP JUMP JUMPDEST PUSH0 PUSH2 0x763 PUSH2 0x6D3 JUMP JUMPDEST SWAP1 POP PUSH2 0x76F DUP3 DUP3 PUSH2 0x729 JUMP JUMPDEST SWAP2 SWAP1 POP JUMP JUMPDEST PUSH0 PUSH8 0xFFFFFFFFFFFFFFFF DUP3 GT ISZERO PUSH2 0x78E JUMPI PUSH2 0x78D PUSH2 0x6FC JUMP JUMPDEST JUMPDEST PUSH2 0x797 DUP3 PUSH2 0x6EC JUMP JUMPDEST SWAP1 POP PUSH1 0x20 DUP2 ADD SWAP1 POP SWAP2 SWAP1 POP JUMP JUMPDEST DUP3 DUP2 DUP4 CALLDATACOPY PUSH0 DUP4 DUP4 ADD MSTORE POP POP POP JUMP JUMPDEST PUSH0 PUSH2 0x7C4 PUSH2 0x7BF DUP5 PUSH2 0x774 JUMP JUMPDEST PUSH2 0x75A JUMP JUMPDEST SWAP1 POP DUP3 DUP2 MSTORE PUSH1 0x20 DUP2 ADD DUP5 DUP5 DUP5 ADD GT ISZERO PUSH2 0x7E0 JUMPI PUSH2 0x7DF PUSH2 0x6E8 JUMP JUMPDEST JUMPDEST PUSH2 0x7EB DUP5 DUP3 DUP6 PUSH2 0x7A4 JUMP JUMPDEST POP SWAP4 SWAP3 POP POP POP JUMP JUMPDEST PUSH0 DUP3 PUSH1 0x1F DUP4 ADD SLT PUSH2 0x807 JUMPI PUSH2 0x806 PUSH2 0x6E4 JUMP JUMPDEST JUMPDEST DUP2 CALLDATALOAD PUSH2 0x817 DUP5 DUP3 PUSH1 0x20 DUP7 ADD PUSH2 0x7B2 JUMP JUMPDEST SWAP2 POP POP SWAP3 SWAP2 POP POP JUMP JUMPDEST PUSH0 PUSH1 0x20 DUP3 DUP5 SUB SLT ISZERO PUSH2 0x835 JUMPI PUSH2 0x834 PUSH2 0x6DC JUMP JUMPDEST JUMPDEST PUSH0 DUP3 ADD CALLDATALOAD PUSH8 0xFFFFFFFFFFFFFFFF DUP2 GT ISZERO PUSH2 0x852 JUMPI PUSH2 0x851 PUSH2 0x6E0 JUMP JUMPDEST JUMPDEST PUSH2 0x85E DUP5 DUP3 DUP6 ADD PUSH2 0x7F3 JUMP JUMPDEST SWAP2 POP POP SWAP3 SWAP2 POP POP JUMP JUMPDEST PUSH0 DUP2 SWAP1 POP SWAP2 SWAP1 POP JUMP JUMPDEST PUSH2 0x879 DUP2 PUSH2 0x867 JUMP JUMPDEST DUP3 MSTORE POP POP JUMP JUMPDEST PUSH0 PUSH1 0x20 DUP3 ADD SWAP1 POP PUSH2 0x892 PUSH0 DUP4 ADD DUP5 PUSH2 0x870 JUMP JUMPDEST SWAP3 SWAP2 POP POP JUMP JUMPDEST PUSH0 PUSH20 0xFFFFFFFFFFFFFFFFFFFFFFFFFFFFFFFFFFFFFFFF DUP3 AND SWAP1 POP SWAP2 SWAP1 POP JUMP JUMPDEST PUSH0 PUSH2 0x8C1 DUP3 PUSH2 0x898 JUMP JUMPDEST SWAP1 POP SWAP2 SWAP1 POP JUMP JUMPDEST PUSH2 0x8D1 DUP2 PUSH2 0x8B7 JUMP JUMPDEST DUP3 MSTORE POP POP JUMP JUMPDEST PUSH0 PUSH1 0x20 DUP3 ADD SWAP1 POP PUSH2 0x8EA PUSH0 DUP4 ADD DUP5 PUSH2 0x8C8 JUMP JUMPDEST SWAP3 SWAP2 POP POP JUMP JUMPDEST PUSH2 0x8F9 DUP2 PUSH2 0x8B7 JUMP JUMPDEST DUP2 EQ PUSH2 0x903 JUMPI PUSH0 DUP1 REVERT JUMPDEST POP JUMP JUMPDEST PUSH0 DUP2 CALLDATALOAD SWAP1 POP PUSH2 0x914 DUP2 PUSH2 0x8F0 JUMP JUMPDEST SWAP3 SWAP2 POP POP JUMP JUMPDEST PUSH0 DUP1 PUSH1 0x40 DUP4 DUP6 SUB SLT ISZERO PUSH2 0x930 JUMPI PUSH2 0x92F PUSH2 0x6DC JUMP JUMPDEST JUMPDEST PUSH0 PUSH2 0x93D DUP6 DUP3 DUP7 ADD PUSH2 0x906 JUMP JUMPDEST SWAP3 POP POP PUSH1 0x20 DUP4 ADD CALLDATALOAD PUSH8 0xFFFFFFFFFFFFFFFF DUP2 GT ISZERO PUSH2 0x95E JUMPI PUSH2 0x95D PUSH2 0x6E0 JUMP JUMPDEST JUMPDEST PUSH2 0x96A DUP6 DUP3 DUP7 ADD PUSH2 0x7F3 JUMP JUMPDEST SWAP2 POP POP SWAP3 POP SWAP3 SWAP1 POP JUMP JUMPDEST PUSH2 0x97D DUP2 PUSH2 0x867 JUMP JUMPDEST DUP2 EQ PUSH2 0x987 JUMPI PUSH0 DUP1 REVERT JUMPDEST POP JUMP JUMPDEST PUSH0 DUP2 CALLDATALOAD SWAP1 POP PUSH2 0x998 DUP2 PUSH2 0x974 JUMP JUMPDEST SWAP3 SWAP2 POP POP JUMP JUMPDEST PUSH0 DUP1 PUSH0 PUSH1 0x60 DUP5 DUP7 SUB SLT ISZERO PUSH2 0x9B5 JUMPI PUSH2 0x9B4 PUSH2 0x6DC JUMP JUMPDEST JUMPDEST PUSH0 DUP5 ADD CALLDATALOAD PUSH8 0xFFFFFFFFFFFFFFFF DUP2 GT ISZERO PUSH2 0x9D2 JUMPI PUSH2 0x9D1 PUSH2 0x6E0 JUMP JUMPDEST JUMPDEST PUSH2 0x9DE DUP7 DUP3 DUP8 ADD PUSH2 0x7F3 JUMP JUMPDEST SWAP4 POP POP PUSH1 0x20 DUP5 ADD CALLDATALOAD PUSH8 0xFFFFFFFFFFFFFFFF DUP2 GT ISZERO PUSH2 0x9FF JUMPI PUSH2 0x9FE PUSH2 0x6E0 JUMP JUMPDEST JUMPDEST PUSH2 0xA0B DUP7 DUP3 DUP8 ADD PUSH2 0x7F3 JUMP JUMPDEST SWAP3 POP POP PUSH1 0x40 PUSH2 0xA1C DUP7 DUP3 DUP8 ADD PUSH2 0x98A JUMP JUMPDEST SWAP2 POP POP SWAP3 POP SWAP3 POP SWAP3 JUMP JUMPDEST PUSH0 DUP2 MLOAD SWAP1 POP SWAP2 SWAP1 POP JUMP JUMPDEST PUSH0 DUP2 SWAP1 POP SWAP3 SWAP2 POP POP JUMP JUMPDEST DUP3 DUP2 DUP4 MCOPY PUSH0 DUP4 DUP4 ADD MSTORE POP POP POP JUMP JUMPDEST PUSH0 PUSH2 0xA52 DUP3 PUSH2 0xA26 JUMP JUMPDEST PUSH2 0xA5C DUP2 DUP6 PUSH2 0xA30 JUMP JUMPDEST SWAP4 POP PUSH2 0xA6C DUP2 DUP6 PUSH1 0x20 DUP7 ADD PUSH2 0xA3A JUMP JUMPDEST DUP1 DUP5 ADD SWAP2 POP POP SWAP3 SWAP2 POP POP JUMP JUMPDEST PUSH0 PUSH2 0xA83 DUP3 DUP5 PUSH2 0xA48 JUMP JUMPDEST SWAP2 POP DUP2 SWAP1 POP SWAP3 SWAP2 POP POP JUMP JUMPDEST PUSH0 DUP2 MLOAD SWAP1 POP PUSH2 0xA9C DUP2 PUSH2 0x974 JUMP JUMPDEST SWAP3 SWAP2 POP POP JUMP JUMPDEST PUSH0 PUSH1 0x20 DUP3 DUP5 SUB SLT ISZERO PUSH2 0xAB7 JUMPI PUSH2 0xAB6 PUSH2 0x6DC JUMP JUMPDEST JUMPDEST PUSH0 PUSH2 0xAC4 DUP5 DUP3 DUP6 ADD PUSH2 0xA8E JUMP JUMPDEST SWAP2 POP POP SWAP3 SWAP2 POP POP JUMP JUMPDEST PUSH0 PUSH1 0x40 DUP3 ADD SWAP1 POP PUSH2 0xAE0 PUSH0 DUP4 ADD DUP6 PUSH2 0x8C8 JUMP JUMPDEST PUSH2 0xAED PUSH1 0x20 DUP4 ADD DUP5 PUSH2 0x870 JUMP JUMPDEST SWAP4 SWAP3 POP POP POP JUMP JUMPDEST PUSH0 DUP3 DUP3 MSTORE PUSH1 0x20 DUP3 ADD SWAP1 POP SWAP3 SWAP2 POP POP JUMP JUMPDEST PUSH0 PUSH2 0xB0E DUP3 PUSH2 0xA26 JUMP JUMPDEST PUSH2 0xB18 DUP2 DUP6 PUSH2 0xAF4 JUMP JUMPDEST SWAP4 POP PUSH2 0xB28 DUP2 DUP6 PUSH1 0x20 DUP7 ADD PUSH2 0xA3A JUMP JUMPDEST PUSH2 0xB31 DUP2 PUSH2 0x6EC JUMP JUMPDEST DUP5 ADD SWAP2 POP POP SWAP3 SWAP2 POP POP JUMP JUMPDEST PUSH0 PUSH1 0x60 DUP3 ADD SWAP1 POP DUP2 DUP2 SUB PUSH0 DUP4 ADD MSTORE PUSH2 0xB54 DUP2 DUP7 PUSH2 0xB04 JUMP JUMPDEST SWAP1 POP DUP2 DUP2 SUB PUSH1 0x20 DUP4 ADD MSTORE PUSH2 0xB68 DUP2 DUP6 PUSH2 0xB04 JUMP JUMPDEST SWAP1 POP PUSH2 0xB77 PUSH1 0x40 DUP4 ADD DUP5 PUSH2 0x870 JUMP JUMPDEST SWAP5 SWAP4 POP POP POP POP JUMP INVALID PUSH1 0x80 PUSH1 0x40 MSTORE CALLVALUE DUP1 ISZERO PUSH2 0xF JUMPI PUSH0 DUP1 REVERT JUMPDEST POP PUSH1 0x40 MLOAD PUSH2 0xD84 CODESIZE SUB DUP1 PUSH2 0xD84 DUP4 CODECOPY DUP2 DUP2 ADD PUSH1 0x40 MSTORE DUP2 ADD SWAP1 PUSH2 0x31 SWAP2 SWAP1 PUSH2 0x1F2 JUMP JUMPDEST DUP3 PUSH0 SWAP1 DUP2 PUSH2 0x3F SWAP2 SWAP1 PUSH2 0x47E JUMP JUMPDEST POP DUP2 PUSH1 0x1 SWAP1 DUP2 PUSH2 0x4F SWAP2 SWAP1 PUSH2 0x47E JUMP JUMPDEST POP PUSH8 0xDE0B6B3A7640000 DUP2 PUSH2 0x64 SWAP2 SWAP1 PUSH2 0x57A JUMP JUMPDEST PUSH1 0x2 DUP2 SWAP1 SSTORE POP POP POP POP PUSH2 0x5BB JUMP JUMPDEST PUSH0 PUSH1 0x40 MLOAD SWAP1 POP SWAP1 JUMP JUMPDEST PUSH0 DUP1 REVERT JUMPDEST PUSH0 DUP1 REVERT JUMPDEST PUSH0 DUP1 REVERT JUMPDEST PUSH0 DUP1 REVERT JUMPDEST PUSH0 PUSH1 0x1F NOT PUSH1 0x1F DUP4 ADD AND SWAP1 POP SWAP2 SWAP1 POP JUMP JUMPDEST PUSH32 0x4E487B7100000000000000000000000000000000000000000000000000000000 PUSH0 MSTORE PUSH1 0x41 PUSH1 0x4 MSTORE PUSH1 0x24 PUSH0 REVERT JUMPDEST PUSH2 0xD1 DUP3 PUSH2 0x8B JUMP JUMPDEST DUP2 ADD DUP2 DUP2 LT PUSH8 0xFFFFFFFFFFFFFFFF DUP3 GT OR ISZERO PUSH2 0xF0 JUMPI PUSH2 0xEF PUSH2 0x9B JUMP JUMPDEST JUMPDEST DUP1 PUSH1 0x40 MSTORE POP POP POP JUMP JUMPDEST PUSH0 PUSH2 0x102 PUSH2 0x72 JUMP JUMPDEST SWAP1 POP PUSH2 0x10E DUP3 DUP3 PUSH2 0xC8 JUMP JUMPDEST SWAP2 SWAP1 POP JUMP JUMPDEST PUSH0 PUSH8 0xFFFFFFFFFFFFFFFF DUP3 GT ISZERO PUSH2 0x12D JUMPI PUSH2 0x12C PUSH2 0x9B JUMP JUMPDEST JUMPDEST PUSH2 0x136 DUP3 PUSH2 0x8B JUMP JUMPDEST SWAP1 POP PUSH1 0x20 DUP2 ADD SWAP1 POP SWAP2 SWAP1 POP JUMP JUMPDEST DUP3 DUP2 DUP4 MCOPY PUSH0 DUP4 DUP4 ADD MSTORE POP POP POP JUMP JUMPDEST PUSH0 PUSH2 0x163 PUSH2 0x15E DUP5 PUSH2 0x113 JUMP JUMPDEST PUSH2 0xF9 JUMP JUMPDEST SWAP1 POP DUP3 DUP2 MSTORE PUSH1 0x20 DUP2 ADD DUP5 DUP5 DUP5 ADD GT ISZERO PUSH2 0x17F JUMPI PUSH2 0x17E PUSH2 0x87 JUMP JUMPDEST JUMPDEST PUSH2 0x18A DUP5 DUP3 DUP6 PUSH2 0x143 JUMP JUMPDEST POP SWAP4 SWAP3 POP POP POP JUMP JUMPDEST PUSH0 DUP3 PUSH1 0x1F DUP4 ADD SLT PUSH2 0x1A6 JUMPI PUSH2 0x1A5 PUSH2 0x83 JUMP JUMPDEST JUMPDEST DUP2 MLOAD PUSH2 0x1B6 DUP5 DUP3 PUSH1 0x20 DUP7 ADD PUSH2 0x151 JUMP JUMPDEST SWAP2 POP POP SWAP3 SWAP2 POP POP JUMP JUMPDEST PUSH0 DUP2 SWAP1 POP SWAP2 SWAP1 POP JUMP JUMPDEST PUSH2 0x1D1 DUP2 PUSH2 0x1BF JUMP JUMPDEST DUP2 EQ PUSH2 0x1DB JUMPI PUSH0 DUP1 REVERT JUMPDEST POP JUMP JUMPDEST PUSH0 DUP2 MLOAD SWAP1 POP PUSH2 0x1EC DUP2 PUSH2 0x1C8 JUMP JUMPDEST SWAP3 SWAP2 POP POP JUMP JUMPDEST PUSH0 DUP1 PUSH0 PUSH1 0x60 DUP5 DUP7 SUB SLT ISZERO PUSH2 0x209 JUMPI PUSH2 0x208 PUSH2 0x7B JUMP JUMPDEST JUMPDEST PUSH0 DUP5 ADD MLOAD PUSH8 0xFFFFFFFFFFFFFFFF DUP2 GT ISZERO PUSH2 0x226 JUMPI PUSH2 0x225 PUSH2 0x7F JUMP JUMPDEST JUMPDEST PUSH2 0x232 DUP7 DUP3 DUP8 ADD PUSH2 0x192 JUMP JUMPDEST SWAP4 POP POP PUSH1 0x20 DUP5 ADD MLOAD PUSH8 0xFFFFFFFFFFFFFFFF DUP2 GT ISZERO PUSH2 0x253 JUMPI PUSH2 0x252 PUSH2 0x7F JUMP JUMPDEST JUMPDEST PUSH2 0x25F DUP7 DUP3 DUP8 ADD PUSH2 0x192 JUMP JUMPDEST SWAP3 POP POP PUSH1 0x40 PUSH2 0x270 DUP7 DUP3 DUP8 ADD PUSH2 0x1DE JUMP JUMPDEST SWAP2 POP POP SWAP3 POP SWAP3 POP SWAP3 JUMP JUMPDEST PUSH0 DUP2 MLOAD SWAP1 POP SWAP2 SWAP1 POP JUMP JUMPDEST PUSH32 0x4E487B7100000000000000000000000000000000000000000000000000000000 PUSH0 MSTORE PUSH1 0x22 PUSH1 0x4 MSTORE PUSH1 0x24 PUSH0 REVERT JUMPDEST PUSH0 PUSH1 0x2 DUP3 DIV SWAP1 POP PUSH1 0x1 DUP3 AND DUP1 PUSH2 0x2C8 JUMPI PUSH1 0x7F DUP3 AND SWAP2 POP JUMPDEST PUSH1 0x20 DUP3 LT DUP2 SUB PUSH2 0x2DB JUMPI PUSH2 0x2DA PUSH2 0x284 JUMP JUMPDEST JUMPDEST POP SWAP2 SWAP1 POP JUMP JUMPDEST PUSH0 DUP2 SWAP1 POP DUP2 PUSH0 MSTORE PUSH1 0x20 PUSH0 KECCAK256 SWAP1 POP SWAP2 SWAP1 POP JUMP JUMPDEST PUSH0 PUSH1 0x20 PUSH1 0x1F DUP4 ADD DIV SWAP1 POP SWAP2 SWAP1 POP JUMP JUMPDEST PUSH0 DUP3 DUP3 SHL SWAP1 POP SWAP3 SWAP2 POP POP JUMP JUMPDEST PUSH0 PUSH1 0x8 DUP4 MUL PUSH2 0x33D PUSH32 0xFFFFFFFFFFFFFFFFFFFFFFFFFFFFFFFFFFFFFFFFFFFFFFFFFFFFFFFFFFFFFFFF DUP3 PUSH2 0x302 JUMP JUMPDEST PUSH2 0x347 DUP7 DUP4 PUSH2 0x302 JUMP JUMPDEST SWAP6 POP DUP1 NOT DUP5 AND SWAP4 POP DUP1 DUP7 AND DUP5 OR SWAP3 POP POP POP SWAP4 SWAP3 POP POP POP JUMP JUMPDEST PUSH0 DUP2 SWAP1 POP SWAP2 SWAP1 POP JUMP JUMPDEST PUSH0 PUSH2 0x382 PUSH2 0x37D PUSH2 0x378 DUP5 PUSH2 0x1BF JUMP JUMPDEST PUSH2 0x35F JUMP JUMPDEST PUSH2 0x1BF JUMP JUMPDEST SWAP1 POP SWAP2 SWAP1 POP JUMP JUMPDEST PUSH0 DUP2 SWAP1 POP SWAP2 SWAP1 POP JUMP JUMPDEST PUSH2 0x39B DUP4 PUSH2 0x368 JUMP JUMPDEST PUSH2 0x3AF PUSH2 0x3A7 DUP3 PUSH2 0x389 JUMP JUMPDEST DUP5 DUP5 SLOAD PUSH2 0x30E JUMP JUMPDEST DUP3 SSTORE POP POP POP POP JUMP JUMPDEST PUSH0 SWAP1 JUMP JUMPDEST PUSH2 0x3C3 PUSH2 0x3B7 JUMP JUMPDEST PUSH2 0x3CE DUP2 DUP5 DUP5 PUSH2 0x392 JUMP JUMPDEST POP POP POP JUMP JUMPDEST JUMPDEST DUP2 DUP2 LT ISZERO PUSH2 0x3F1 JUMPI PUSH2 0x3E6 PUSH0 DUP3 PUSH2 0x3BB JUMP JUMPDEST PUSH1 0x1 DUP2 ADD SWAP1 POP PUSH2 0x3D4 JUMP JUMPDEST POP POP JUMP JUMPDEST PUSH1 0x1F DUP3 GT ISZERO PUSH2 0x436 JUMPI PUSH2 0x407 DUP2 PUSH2 0x2E1 JUMP JUMPDEST PUSH2 0x410 DUP5 PUSH2 0x2F3 JUMP JUMPDEST DUP2 ADD PUSH1 0x20 DUP6 LT ISZERO PUSH2 0x41F JUMPI DUP2 SWAP1 POP JUMPDEST PUSH2 0x433 PUSH2 0x42B DUP6 PUSH2 0x2F3 JUMP JUMPDEST DUP4 ADD DUP3 PUSH2 0x3D3 JUMP JUMPDEST POP POP JUMPDEST POP POP POP JUMP JUMPDEST PUSH0 DUP3 DUP3 SHR SWAP1 POP SWAP3 SWAP2 POP POP JUMP JUMPDEST PUSH0 PUSH2 0x456 PUSH0 NOT DUP5 PUSH1 0x8 MUL PUSH2 0x43B JUMP JUMPDEST NOT DUP1 DUP4 AND SWAP2 POP POP SWAP3 SWAP2 POP POP JUMP JUMPDEST PUSH0 PUSH2 0x46E DUP4 DUP4 PUSH2 0x447 JUMP JUMPDEST SWAP2 POP DUP3 PUSH1 0x2 MUL DUP3 OR SWAP1 POP SWAP3 SWAP2 POP POP JUMP JUMPDEST PUSH2 0x487 DUP3 PUSH2 0x27A JUMP JUMPDEST PUSH8 0xFFFFFFFFFFFFFFFF DUP2 GT ISZERO PUSH2 0x4A0 JUMPI PUSH2 0x49F PUSH2 0x9B JUMP JUMPDEST JUMPDEST PUSH2 0x4AA DUP3 SLOAD PUSH2 0x2B1 JUMP JUMPDEST PUSH2 0x4B5 DUP3 DUP3 DUP6 PUSH2 0x3F5 JUMP JUMPDEST PUSH0 PUSH1 0x20 SWAP1 POP PUSH1 0x1F DUP4 GT PUSH1 0x1 DUP2 EQ PUSH2 0x4E6 JUMPI PUSH0 DUP5 ISZERO PUSH2 0x4D4 JUMPI DUP3 DUP8 ADD MLOAD SWAP1 POP JUMPDEST PUSH2 0x4DE DUP6 DUP3 PUSH2 0x463 JUMP JUMPDEST DUP7 SSTORE POP PUSH2 0x545 JUMP JUMPDEST PUSH1 0x1F NOT DUP5 AND PUSH2 0x4F4 DUP7 PUSH2 0x2E1 JUMP JUMPDEST PUSH0 JUMPDEST DUP3 DUP2 LT ISZERO PUSH2 0x51B JUMPI DUP5 DUP10 ADD MLOAD DUP3 SSTORE PUSH1 0x1 DUP3 ADD SWAP2 POP PUSH1 0x20 DUP6 ADD SWAP5 POP PUSH1 0x20 DUP2 ADD SWAP1 POP PUSH2 0x4F6 JUMP JUMPDEST DUP7 DUP4 LT ISZERO PUSH2 0x538 JUMPI DUP5 DUP10 ADD MLOAD PUSH2 0x534 PUSH1 0x1F DUP10 AND DUP3 PUSH2 0x447 JUMP JUMPDEST DUP4 SSTORE POP JUMPDEST PUSH1 0x1 PUSH1 0x2 DUP9 MUL ADD DUP9 SSTORE POP POP POP JUMPDEST POP POP POP POP POP POP JUMP JUMPDEST PUSH32 0x4E487B7100000000000000000000000000000000000000000000000000000000 PUSH0 MSTORE PUSH1 0x11 PUSH1 0x4 MSTORE PUSH1 0x24 PUSH0 REVERT JUMPDEST PUSH0 PUSH2 0x584 DUP3 PUSH2 0x1BF JUMP JUMPDEST SWAP2 POP PUSH2 0x58F DUP4 PUSH2 0x1BF JUMP JUMPDEST SWAP3 POP DUP3 DUP3 MUL PUSH2 0x59D DUP2 PUSH2 0x1BF JUMP JUMPDEST SWAP2 POP DUP3 DUP3 DIV DUP5 EQ DUP4 ISZERO OR PUSH2 0x5B4 JUMPI PUSH2 0x5B3 PUSH2 0x54D JUMP JUMPDEST JUMPDEST POP SWAP3 SWAP2 POP POP JUMP JUMPDEST PUSH2 0x7BC DUP1 PUSH2 0x5C8 PUSH0 CODECOPY PUSH0 RETURN INVALID PUSH1 0x80 PUSH1 0x40 MSTORE PUSH1 0x4 CALLDATASIZE LT PUSH2 0x49 JUMPI PUSH0 CALLDATALOAD PUSH1 0xE0 SHR DUP1 PUSH4 0x47FC9AA EQ PUSH2 0x4D JUMPI DUP1 PUSH4 0x6FDDE03 EQ PUSH2 0x77 JUMPI DUP1 PUSH4 0x2CCB1B30 EQ PUSH2 0xA1 JUMPI DUP1 PUSH4 0x70A08231 EQ PUSH2 0xBD JUMPI DUP1 PUSH4 0x8BA47BDD EQ PUSH2 0xF9 JUMPI JUMPDEST PUSH0 DUP1 REVERT JUMPDEST CALLVALUE DUP1 ISZERO PUSH2 0x58 JUMPI PUSH0 DUP1 REVERT JUMPDEST POP PUSH2 0x61 PUSH2 0x123 JUMP JUMPDEST PUSH1 0x40 MLOAD PUSH2 0x6E SWAP2 SWAP1 PUSH2 0x453 JUMP JUMPDEST PUSH1 0x40 MLOAD DUP1 SWAP2 SUB SWAP1 RETURN JUMPDEST CALLVALUE DUP1 ISZERO PUSH2 0x82 JUMPI PUSH0 DUP1 REVERT JUMPDEST POP PUSH2 0x8B PUSH2 0x129 JUMP JUMPDEST PUSH1 0x40 MLOAD PUSH2 0x98 SWAP2 SWAP1 PUSH2 0x4DC JUMP JUMPDEST PUSH1 0x40 MLOAD DUP1 SWAP2 SUB SWAP1 RETURN JUMPDEST PUSH2 0xBB PUSH1 0x4 DUP1 CALLDATASIZE SUB DUP2 ADD SWAP1 PUSH2 0xB6 SWAP2 SWAP1 PUSH2 0x584 JUMP JUMPDEST PUSH2 0x1B4 JUMP JUMPDEST STOP JUMPDEST CALLVALUE DUP1 ISZERO PUSH2 0xC8 JUMPI PUSH0 DUP1 REVERT JUMPDEST POP PUSH2 0xE3 PUSH1 0x4 DUP1 CALLDATASIZE SUB DUP2 ADD SWAP1 PUSH2 0xDE SWAP2 SWAP1 PUSH2 0x5C2 JUMP JUMPDEST PUSH2 0x304 JUMP JUMPDEST PUSH1 0x40 MLOAD PUSH2 0xF0 SWAP2 SWAP1 PUSH2 0x453 JUMP JUMPDEST PUSH1 0x40 MLOAD DUP1 SWAP2 SUB SWAP1 RETURN JUMPDEST CALLVALUE DUP1 ISZERO PUSH2 0x104 JUMPI PUSH0 DUP1 REVERT JUMPDEST POP PUSH2 0x10D PUSH2 0x3AF JUMP JUMPDEST PUSH1 0x40 MLOAD PUSH2 0x11A SWAP2 SWAP1 PUSH2 0x4DC JUMP JUMPDEST PUSH1 0x40 MLOAD DUP1 SWAP2 SUB SWAP1 RETURN JUMPDEST PUSH1 0x2 SLOAD DUP2 JUMP JUMPDEST PUSH0 DUP1 SLOAD PUSH2 0x135 SWAP1 PUSH2 0x61A JUMP JUMPDEST DUP1 PUSH1 0x1F ADD PUSH1 0x20 DUP1 SWAP2 DIV MUL PUSH1 0x20 ADD PUSH1 0x40 MLOAD SWAP1 DUP2 ADD PUSH1 0x40 MSTORE DUP1 SWAP3 SWAP2 SWAP1 DUP2 DUP2 MSTORE PUSH1 0x20 ADD DUP3 DUP1 SLOAD PUSH2 0x161 SWAP1 PUSH2 0x61A JUMP JUMPDEST DUP1 ISZERO PUSH2 0x1AC JUMPI DUP1 PUSH1 0x1F LT PUSH2 0x183 JUMPI PUSH2 0x100 DUP1 DUP4 SLOAD DIV MUL DUP4 MSTORE SWAP2 PUSH1 0x20 ADD SWAP2 PUSH2 0x1AC JUMP JUMPDEST DUP3 ADD SWAP2 SWAP1 PUSH0 MSTORE PUSH1 0x20 PUSH0 KECCAK256 SWAP1 JUMPDEST DUP2 SLOAD DUP2 MSTORE SWAP1 PUSH1 0x1 ADD SWAP1 PUSH1 0x20 ADD DUP1 DUP4 GT PUSH2 0x18F JUMPI DUP3 SWAP1 SUB PUSH1 0x1F AND DUP3 ADD SWAP2 JUMPDEST POP POP POP POP POP DUP2 JUMP JUMPDEST PUSH1 0x2 SLOAD CALLVALUE GT ISZERO PUSH2 0x1F0 JUMPI PUSH1 0x40 MLOAD PUSH32 0x69640E7200000000000000000000000000000000000000000000000000000000 DUP2 MSTORE PUSH1 0x4 ADD PUSH1 0x40 MLOAD DUP1 SWAP2 SUB SWAP1 REVERT JUMPDEST DUP1 PUSH1 0x2 SLOAD PUSH2 0x1FE SWAP2 SWAP1 PUSH2 0x677 JUMP JUMPDEST PUSH1 0x2 DUP2 SWAP1 SSTORE POP PUSH0 DUP3 PUSH20 0xFFFFFFFFFFFFFFFFFFFFFFFFFFFFFFFFFFFFFFFF AND CALLVALUE PUSH1 0x40 MLOAD PUSH2 0x229 SWAP1 PUSH2 0x6D7 JUMP JUMPDEST PUSH0 PUSH1 0x40 MLOAD DUP1 DUP4 SUB DUP2 DUP6 DUP8 GAS CALL SWAP3 POP POP POP RETURNDATASIZE DUP1 PUSH0 DUP2 EQ PUSH2 0x263 JUMPI PUSH1 0x40 MLOAD SWAP2 POP PUSH1 0x1F NOT PUSH1 0x3F RETURNDATASIZE ADD AND DUP3 ADD PUSH1 0x40 MSTORE RETURNDATASIZE DUP3 MSTORE RETURNDATASIZE PUSH0 PUSH1 0x20 DUP5 ADD RETURNDATACOPY PUSH2 0x268 JUMP JUMPDEST PUSH1 0x60 SWAP2 POP JUMPDEST POP POP SWAP1 POP DUP1 PUSH2 0x2AC JUMPI PUSH1 0x40 MLOAD PUSH32 0x8C379A000000000000000000000000000000000000000000000000000000000 DUP2 MSTORE PUSH1 0x4 ADD PUSH2 0x2A3 SWAP1 PUSH2 0x735 JUMP JUMPDEST PUSH1 0x40 MLOAD DUP1 SWAP2 SUB SWAP1 REVERT JUMPDEST DUP2 PUSH1 0x3 PUSH0 DUP6 PUSH20 0xFFFFFFFFFFFFFFFFFFFFFFFFFFFFFFFFFFFFFFFF AND PUSH20 0xFFFFFFFFFFFFFFFFFFFFFFFFFFFFFFFFFFFFFFFF AND DUP2 MSTORE PUSH1 0x20 ADD SWAP1 DUP2 MSTORE PUSH1 0x20 ADD PUSH0 KECCAK256 PUSH0 DUP3 DUP3 SLOAD PUSH2 0x2F8 SWAP2 SWAP1 PUSH2 0x753 JUMP JUMPDEST SWAP3 POP POP DUP2 SWAP1 SSTORE POP POP POP POP JUMP JUMPDEST PUSH0 DUP1 PUSH20 0xFFFFFFFFFFFFFFFFFFFFFFFFFFFFFFFFFFFFFFFF AND DUP3 PUSH20 0xFFFFFFFFFFFFFFFFFFFFFFFFFFFFFFFFFFFFFFFF AND SUB PUSH2 0x36A JUMPI PUSH1 0x40 MLOAD PUSH32 0xE6C4247B00000000000000000000000000000000000000000000000000000000 DUP2 MSTORE PUSH1 0x4 ADD PUSH1 0x40 MLOAD DUP1 SWAP2 SUB SWAP1 REVERT JUMPDEST PUSH1 0x3 PUSH0 DUP4 PUSH20 0xFFFFFFFFFFFFFFFFFFFFFFFFFFFFFFFFFFFFFFFF AND PUSH20 0xFFFFFFFFFFFFFFFFFFFFFFFFFFFFFFFFFFFFFFFF AND DUP2 MSTORE PUSH1 0x20 ADD SWAP1 DUP2 MSTORE PUSH1 0x20 ADD PUSH0 KECCAK256 SLOAD SWAP1 POP SWAP2 SWAP1 POP JUMP JUMPDEST PUSH1 0x1 DUP1 SLOAD PUSH2 0x3BC SWAP1 PUSH2 0x61A JUMP JUMPDEST DUP1 PUSH1 0x1F ADD PUSH1 0x20 DUP1 SWAP2 DIV MUL PUSH1 0x20 ADD PUSH1 0x40 MLOAD SWAP1 DUP2 ADD PUSH1 0x40 MSTORE DUP1 SWAP3 SWAP2 SWAP1 DUP2 DUP2 MSTORE PUSH1 0x20 ADD DUP3 DUP1 SLOAD PUSH2 0x3E8 SWAP1 PUSH2 0x61A JUMP JUMPDEST DUP1 ISZERO PUSH2 0x433 JUMPI DUP1 PUSH1 0x1F LT PUSH2 0x40A JUMPI PUSH2 0x100 DUP1 DUP4 SLOAD DIV MUL DUP4 MSTORE SWAP2 PUSH1 0x20 ADD SWAP2 PUSH2 0x433 JUMP JUMPDEST DUP3 ADD SWAP2 SWAP1 PUSH0 MSTORE PUSH1 0x20 PUSH0 KECCAK256 SWAP1 JUMPDEST DUP2 SLOAD DUP2 MSTORE SWAP1 PUSH1 0x1 ADD SWAP1 PUSH1 0x20 ADD DUP1 DUP4 GT PUSH2 0x416 JUMPI DUP3 SWAP1 SUB PUSH1 0x1F AND DUP3 ADD SWAP2 JUMPDEST POP POP POP POP POP DUP2 JUMP JUMPDEST PUSH0 DUP2 SWAP1 POP SWAP2 SWAP1 POP JUMP JUMPDEST PUSH2 0x44D DUP2 PUSH2 0x43B JUMP JUMPDEST DUP3 MSTORE POP POP JUMP JUMPDEST PUSH0 PUSH1 0x20 DUP3 ADD SWAP1 POP PUSH2 0x466 PUSH0 DUP4 ADD DUP5 PUSH2 0x444 JUMP JUMPDEST SWAP3 SWAP2 POP POP JUMP JUMPDEST PUSH0 DUP2 MLOAD SWAP1 POP SWAP2 SWAP1 POP JUMP JUMPDEST PUSH0 DUP3 DUP3 MSTORE PUSH1 0x20 DUP3 ADD SWAP1 POP SWAP3 SWAP2 POP POP JUMP JUMPDEST DUP3 DUP2 DUP4 MCOPY PUSH0 DUP4 DUP4 ADD MSTORE POP POP POP JUMP JUMPDEST PUSH0 PUSH1 0x1F NOT PUSH1 0x1F DUP4 ADD AND SWAP1 POP SWAP2 SWAP1 POP JUMP JUMPDEST PUSH0 PUSH2 0x4AE DUP3 PUSH2 0x46C JUMP JUMPDEST PUSH2 0x4B8 DUP2 DUP6 PUSH2 0x476 JUMP JUMPDEST SWAP4 POP PUSH2 0x4C8 DUP2 DUP6 PUSH1 0x20 DUP7 ADD PUSH2 0x486 JUMP JUMPDEST PUSH2 0x4D1 DUP2 PUSH2 0x494 JUMP JUMPDEST DUP5 ADD SWAP2 POP POP SWAP3 SWAP2 POP POP JUMP JUMPDEST PUSH0 PUSH1 0x20 DUP3 ADD SWAP1 POP DUP2 DUP2 SUB PUSH0 DUP4 ADD MSTORE PUSH2 0x4F4 DUP2 DUP5 PUSH2 0x4A4 JUMP JUMPDEST SWAP1 POP SWAP3 SWAP2 POP POP JUMP JUMPDEST PUSH0 DUP1 REVERT JUMPDEST PUSH0 PUSH20 0xFFFFFFFFFFFFFFFFFFFFFFFFFFFFFFFFFFFFFFFF DUP3 AND SWAP1 POP SWAP2 SWAP1 POP JUMP JUMPDEST PUSH0 PUSH2 0x529 DUP3 PUSH2 0x500 JUMP JUMPDEST SWAP1 POP SWAP2 SWAP1 POP JUMP JUMPDEST PUSH2 0x539 DUP2 PUSH2 0x51F JUMP JUMPDEST DUP2 EQ PUSH2 0x543 JUMPI PUSH0 DUP1 REVERT JUMPDEST POP JUMP JUMPDEST PUSH0 DUP2 CALLDATALOAD SWAP1 POP PUSH2 0x554 DUP2 PUSH2 0x530 JUMP JUMPDEST SWAP3 SWAP2 POP POP JUMP JUMPDEST PUSH2 0x563 DUP2 PUSH2 0x43B JUMP JUMPDEST DUP2 EQ PUSH2 0x56D JUMPI PUSH0 DUP1 REVERT JUMPDEST POP JUMP JUMPDEST PUSH0 DUP2 CALLDATALOAD SWAP1 POP PUSH2 0x57E DUP2 PUSH2 0x55A JUMP JUMPDEST SWAP3 SWAP2 POP POP JUMP JUMPDEST PUSH0 DUP1 PUSH1 0x40 DUP4 DUP6 SUB SLT ISZERO PUSH2 0x59A JUMPI PUSH2 0x599 PUSH2 0x4FC JUMP JUMPDEST JUMPDEST PUSH0 PUSH2 0x5A7 DUP6 DUP3 DUP7 ADD PUSH2 0x546 JUMP JUMPDEST SWAP3 POP POP PUSH1 0x20 PUSH2 0x5B8 DUP6 DUP3 DUP7 ADD PUSH2 0x570 JUMP JUMPDEST SWAP2 POP POP SWAP3 POP SWAP3 SWAP1 POP JUMP JUMPDEST PUSH0 PUSH1 0x20 DUP3 DUP5 SUB SLT ISZERO PUSH2 0x5D7 JUMPI PUSH2 0x5D6 PUSH2 0x4FC JUMP JUMPDEST JUMPDEST PUSH0 PUSH2 0x5E4 DUP5 DUP3 DUP6 ADD PUSH2 0x546 JUMP JUMPDEST SWAP2 POP POP SWAP3 SWAP2 POP POP JUMP JUMPDEST PUSH32 0x4E487B7100000000000000000000000000000000000000000000000000000000 PUSH0 MSTORE PUSH1 0x22 PUSH1 0x4 MSTORE PUSH1 0x24 PUSH0 REVERT JUMPDEST PUSH0 PUSH1 0x2 DUP3 DIV SWAP1 POP PUSH1 0x1 DUP3 AND DUP1 PUSH2 0x631 JUMPI PUSH1 0x7F DUP3 AND SWAP2 POP JUMPDEST PUSH1 0x20 DUP3 LT DUP2 SUB PUSH2 0x644 JUMPI PUSH2 0x643 PUSH2 0x5ED JUMP JUMPDEST JUMPDEST POP SWAP2 SWAP1 POP JUMP JUMPDEST PUSH32 0x4E487B7100000000000000000000000000000000000000000000000000000000 PUSH0 MSTORE PUSH1 0x11 PUSH1 0x4 MSTORE PUSH1 0x24 PUSH0 REVERT JUMPDEST PUSH0 PUSH2 0x681 DUP3 PUSH2 0x43B JUMP JUMPDEST SWAP2 POP PUSH2 0x68C DUP4 PUSH2 0x43B JUMP JUMPDEST SWAP3 POP DUP3 DUP3 SUB SWAP1 POP DUP2 DUP2 GT ISZERO PUSH2 0x6A4 JUMPI PUSH2 0x6A3 PUSH2 0x64A JUMP JUMPDEST JUMPDEST SWAP3 SWAP2 POP POP JUMP JUMPDEST PUSH0 DUP2 SWAP1 POP SWAP3 SWAP2 POP POP JUMP JUMPDEST POP JUMP JUMPDEST PUSH0 PUSH2 0x6C2 PUSH0 DUP4 PUSH2 0x6AA JUMP JUMPDEST SWAP2 POP PUSH2 0x6CD DUP3 PUSH2 0x6B4 JUMP JUMPDEST PUSH0 DUP3 ADD SWAP1 POP SWAP2 SWAP1 POP JUMP JUMPDEST PUSH0 PUSH2 0x6E1 DUP3 PUSH2 0x6B7 JUMP JUMPDEST SWAP2 POP DUP2 SWAP1 POP SWAP2 SWAP1 POP JUMP JUMPDEST PUSH32 0x5472616E73666572206661696C65640000000000000000000000000000000000 PUSH0 DUP3 ADD MSTORE POP JUMP JUMPDEST PUSH0 PUSH2 0x71F PUSH1 0xF DUP4 PUSH2 0x476 JUMP JUMPDEST SWAP2 POP PUSH2 0x72A DUP3 PUSH2 0x6EB JUMP JUMPDEST PUSH1 0x20 DUP3 ADD SWAP1 POP SWAP2 SWAP1 POP JUMP JUMPDEST PUSH0 PUSH1 0x20 DUP3 ADD SWAP1 POP DUP2 DUP2 SUB PUSH0 DUP4 ADD MSTORE PUSH2 0x74C DUP2 PUSH2 0x713 JUMP JUMPDEST SWAP1 POP SWAP2 SWAP1 POP JUMP JUMPDEST PUSH0 PUSH2 0x75D DUP3 PUSH2 0x43B JUMP JUMPDEST SWAP2 POP PUSH2 0x768 DUP4 PUSH2 0x43B JUMP JUMPDEST SWAP3 POP DUP3 DUP3 ADD SWAP1 POP DUP1 DUP3 GT ISZERO PUSH2 0x780 JUMPI PUSH2 0x77F PUSH2 0x64A JUMP JUMPDEST JUMPDEST SWAP3 SWAP2 POP POP JUMP INVALID LOG2 PUSH5 0x6970667358 0x22 SLT KECCAK256 0xB3 0xB7 0xBF SLOAD 0xD2 0xF6 TLOAD DUP1 0xD 0xD4 0xBF 0xE DIV PREVRANDAO PUSH0 SELFBALANCE 0xDD ADDRESS BASEFEE 0x2A 0xE5 0xB1 SHR BYTE LOG1 0xB0 0x4E 0xF6 0x26 SWAP3 PUSH19 0xC864736F6C634300081A0033A2646970667358 0x22 SLT KECCAK256 CODECOPY KECCAK256 0xC0 STOP 0x1E DUP1 MULMOD DUP1 BASEFEE 0x4C PUSH21 0x4C00A7978B65A726852C62EDE14D44018528C4C284 PUSH5 0x736F6C6343 STOP ADDMOD BYTE STOP CALLER "
				},
				"gasEstimates": {
					"creation": {
						"codeDepositCost": "1291400",
						"executionCost": "1340",
						"totalCost": "1292740"
					},
					"external": {
						"assets(string)": "infinite",
						"balanceFor(string)": "infinite",
						"createAsset(string,string,uint256)": "infinite",
						"send(address,string)": "infinite",
						"supplyFor(string)": "infinite"
					}
				},
				"methodIdentifiers": {
					"assets(string)": "85936228",
					"balanceFor(string)": "efdc99c5",
					"createAsset(string,string,uint256)": "f2bdc035",
					"send(address,string)": "99142b5f",
					"supplyFor(string)": "1a45ca74"
				}
			},
			"storageLayout": {
				"storage": [
					{
						"astId": 136,
						"contract": "Assignments/Lecture 6/AssetFactory.sol:AssetFactory",
						"label": "assets",
						"offset": 0,
						"slot": "0",
						"type": "t_mapping(t_string_memory_ptr,t_address)"
					}
				],
				"types": {
					"t_address": {
						"encoding": "inplace",
						"label": "address",
						"numberOfBytes": "20"
					},
					"t_mapping(t_string_memory_ptr,t_address)": {
						"encoding": "mapping",
						"key": "t_string_memory_ptr",
						"label": "mapping(string => address)",
						"numberOfBytes": "32",
						"value": "t_address"
					},
					"t_string_memory_ptr": {
						"encoding": "bytes",
						"label": "string",
						"numberOfBytes": "32"
					}
				}
			},
			"userdoc": {
				"kind": "user",
				"methods": {},
				"version": 1
			}
		}
	}
}