{
	"Assignments/Lecture 6/AssetFactory.sol": {
		"AssetFactory": {
			"abi": [
				{
					"inputs": [],
					"name": "AssetNotFound",
					"type": "error"
				},
				{
					"inputs": [],
					"name": "DuplicateAsset",
					"type": "error"
				},
				{
					"inputs": [],
					"name": "IncorrectAmount",
					"type": "error"
				},
				{
					"inputs": [],
					"name": "InvalidAddress",
					"type": "error"
				},
				{
					"inputs": [
						{
							"internalType": "string",
							"name": "",
							"type": "string"
						}
					],
					"name": "assets",
					"outputs": [
						{
							"internalType": "address",
							"name": "",
							"type": "address"
						}
					],
					"stateMutability": "view",
					"type": "function"
				},
				{
					"inputs": [
						{
							"internalType": "string",
							"name": "ticker",
							"type": "string"
						}
					],
					"name": "balanceFor",
					"outputs": [
						{
							"internalType": "uint256",
							"name": "",
							"type": "uint256"
						}
					],
					"stateMutability": "view",
					"type": "function"
				},
				{
					"inputs": [
						{
							"internalType": "string",
							"name": "name",
							"type": "string"
						},
						{
							"internalType": "string",
							"name": "ticker",
							"type": "string"
						},
						{
							"internalType": "uint256",
							"name": "initialSupply",
							"type": "uint256"
						}
					],
					"name": "createAsset",
					"outputs": [],
					"stateMutability": "nonpayable",
					"type": "function"
				},
				{
					"inputs": [
						{
							"internalType": "address",
							"name": "target",
							"type": "address"
						},
						{
							"internalType": "string",
							"name": "assetTicker",
							"type": "string"
						},
						{
							"internalType": "uint256",
							"name": "amount",
							"type": "uint256"
						}
					],
					"name": "send",
					"outputs": [],
					"stateMutability": "payable",
					"type": "function"
				},
				{
					"inputs": [
						{
							"internalType": "string",
							"name": "ticker",
							"type": "string"
						}
					],
					"name": "supplyFor",
					"outputs": [
						{
							"internalType": "uint256",
							"name": "",
							"type": "uint256"
						}
					],
					"stateMutability": "view",
					"type": "function"
				}
			],
			"devdoc": {
				"kind": "dev",
				"methods": {},
				"version": 1
			},
			"evm": {
				"assembly": "    /* \"Assignments/Lecture 6/AssetFactory.sol\":903:2272  contract AssetFactory {... */\n  mstore(0x40, 0x80)\n  callvalue\n  dup1\n  iszero\n  tag_1\n  jumpi\n  revert(0x00, 0x00)\ntag_1:\n  pop\n  dataSize(sub_0)\n  dup1\n  dataOffset(sub_0)\n  0x00\n  codecopy\n  0x00\n  return\nstop\n\nsub_0: assembly {\n        /* \"Assignments/Lecture 6/AssetFactory.sol\":903:2272  contract AssetFactory {... */\n      mstore(0x40, 0x80)\n      jumpi(tag_1, lt(calldatasize, 0x04))\n      shr(0xe0, calldataload(0x00))\n      dup1\n      0x1a45ca74\n      eq\n      tag_2\n      jumpi\n      dup1\n      0x85936228\n      eq\n      tag_3\n      jumpi\n      dup1\n      0xa8990b8c\n      eq\n      tag_4\n      jumpi\n      dup1\n      0xefdc99c5\n      eq\n      tag_5\n      jumpi\n      dup1\n      0xf2bdc035\n      eq\n      tag_6\n      jumpi\n    tag_1:\n      revert(0x00, 0x00)\n        /* \"Assignments/Lecture 6/AssetFactory.sol\":1715:1983  function supplyFor(string memory ticker) public view returns (uint256) {... */\n    tag_2:\n      callvalue\n      dup1\n      iszero\n      tag_7\n      jumpi\n      revert(0x00, 0x00)\n    tag_7:\n      pop\n      tag_8\n      0x04\n      dup1\n      calldatasize\n      sub\n      dup2\n      add\n      swap1\n      tag_9\n      swap2\n      swap1\n      tag_10\n      jump\t// in\n    tag_9:\n      tag_11\n      jump\t// in\n    tag_8:\n      mload(0x40)\n      tag_12\n      swap2\n      swap1\n      tag_13\n      jump\t// in\n    tag_12:\n      mload(0x40)\n      dup1\n      swap2\n      sub\n      swap1\n      return\n        /* \"Assignments/Lecture 6/AssetFactory.sol\":931:971  mapping(string => address) public assets */\n    tag_3:\n      callvalue\n      dup1\n      iszero\n      tag_14\n      jumpi\n      revert(0x00, 0x00)\n    tag_14:\n      pop\n      tag_15\n      0x04\n      dup1\n      calldatasize\n      sub\n      dup2\n      add\n      swap1\n      tag_16\n      swap2\n      swap1\n      tag_10\n      jump\t// in\n    tag_16:\n      tag_17\n      jump\t// in\n    tag_15:\n      mload(0x40)\n      tag_18\n      swap2\n      swap1\n      tag_19\n      jump\t// in\n    tag_18:\n      mload(0x40)\n      dup1\n      swap2\n      sub\n      swap1\n      return\n        /* \"Assignments/Lecture 6/AssetFactory.sol\":1277:1709  function send(address target, string memory assetTicker, uint256 amount) external payable {... */\n    tag_4:\n      tag_20\n      0x04\n      dup1\n      calldatasize\n      sub\n      dup2\n      add\n      swap1\n      tag_21\n      swap2\n      swap1\n      tag_22\n      jump\t// in\n    tag_21:\n      tag_23\n      jump\t// in\n    tag_20:\n      stop\n        /* \"Assignments/Lecture 6/AssetFactory.sol\":1989:2270  function balanceFor(string memory ticker) public view returns(uint256) {... */\n    tag_5:\n      callvalue\n      dup1\n      iszero\n      tag_24\n      jumpi\n      revert(0x00, 0x00)\n    tag_24:\n      pop\n      tag_25\n      0x04\n      dup1\n      calldatasize\n      sub\n      dup2\n      add\n      swap1\n      tag_26\n      swap2\n      swap1\n      tag_10\n      jump\t// in\n    tag_26:\n      tag_27\n      jump\t// in\n    tag_25:\n      mload(0x40)\n      tag_28\n      swap2\n      swap1\n      tag_13\n      jump\t// in\n    tag_28:\n      mload(0x40)\n      dup1\n      swap2\n      sub\n      swap1\n      return\n        /* \"Assignments/Lecture 6/AssetFactory.sol\":978:1271  function createAsset(string memory name, string memory ticker, uint256 initialSupply) public {... */\n    tag_6:\n      callvalue\n      dup1\n      iszero\n      tag_29\n      jumpi\n      revert(0x00, 0x00)\n    tag_29:\n      pop\n      tag_30\n      0x04\n      dup1\n      calldatasize\n      sub\n      dup2\n      add\n      swap1\n      tag_31\n      swap2\n      swap1\n      tag_32\n      jump\t// in\n    tag_31:\n      tag_33\n      jump\t// in\n    tag_30:\n      stop\n        /* \"Assignments/Lecture 6/AssetFactory.sol\":1715:1983  function supplyFor(string memory ticker) public view returns (uint256) {... */\n    tag_11:\n        /* \"Assignments/Lecture 6/AssetFactory.sol\":1777:1784  uint256 */\n      0x00\n        /* \"Assignments/Lecture 6/AssetFactory.sol\":1796:1816  address assetAddress */\n      0x00\n        /* \"Assignments/Lecture 6/AssetFactory.sol\":1819:1825  assets */\n      0x00\n        /* \"Assignments/Lecture 6/AssetFactory.sol\":1826:1832  ticker */\n      dup4\n        /* \"Assignments/Lecture 6/AssetFactory.sol\":1819:1833  assets[ticker] */\n      mload(0x40)\n      tag_35\n      swap2\n      swap1\n      tag_36\n      jump\t// in\n    tag_35:\n      swap1\n      dup2\n      mstore\n      0x20\n      add\n      mload(0x40)\n      dup1\n      swap2\n      sub\n      swap1\n      keccak256\n      0x00\n      swap1\n      sload\n      swap1\n      0x0100\n      exp\n      swap1\n      div\n      0xffffffffffffffffffffffffffffffffffffffff\n      and\n        /* \"Assignments/Lecture 6/AssetFactory.sol\":1796:1833  address assetAddress = assets[ticker] */\n      swap1\n      pop\n        /* \"Assignments/Lecture 6/AssetFactory.sol\":1871:1872  0 */\n      0x00\n        /* \"Assignments/Lecture 6/AssetFactory.sol\":1847:1873  assetAddress == address(0) */\n      0xffffffffffffffffffffffffffffffffffffffff\n      and\n        /* \"Assignments/Lecture 6/AssetFactory.sol\":1847:1859  assetAddress */\n      dup2\n        /* \"Assignments/Lecture 6/AssetFactory.sol\":1847:1873  assetAddress == address(0) */\n      0xffffffffffffffffffffffffffffffffffffffff\n      and\n      sub\n        /* \"Assignments/Lecture 6/AssetFactory.sol\":1843:1902  if (assetAddress == address(0)) { revert AssetNotFound(); } */\n      tag_37\n      jumpi\n        /* \"Assignments/Lecture 6/AssetFactory.sol\":1884:1899  AssetNotFound() */\n      mload(0x40)\n      0x470cbf4700000000000000000000000000000000000000000000000000000000\n      dup2\n      mstore\n      0x04\n      add\n      mload(0x40)\n      dup1\n      swap2\n      sub\n      swap1\n      revert\n        /* \"Assignments/Lecture 6/AssetFactory.sol\":1843:1902  if (assetAddress == address(0)) { revert AssetNotFound(); } */\n    tag_37:\n        /* \"Assignments/Lecture 6/AssetFactory.sol\":1912:1923  Asset asset */\n      0x00\n        /* \"Assignments/Lecture 6/AssetFactory.sol\":1932:1944  assetAddress */\n      dup2\n        /* \"Assignments/Lecture 6/AssetFactory.sol\":1912:1945  Asset asset = Asset(assetAddress) */\n      swap1\n      pop\n        /* \"Assignments/Lecture 6/AssetFactory.sol\":1962:1967  asset */\n      dup1\n        /* \"Assignments/Lecture 6/AssetFactory.sol\":1962:1974  asset.supply */\n      0xffffffffffffffffffffffffffffffffffffffff\n      and\n      0x047fc9aa\n        /* \"Assignments/Lecture 6/AssetFactory.sol\":1962:1976  asset.supply() */\n      mload(0x40)\n      dup2\n      0xffffffff\n      and\n      0xe0\n      shl\n      dup2\n      mstore\n      0x04\n      add\n      0x20\n      mload(0x40)\n      dup1\n      dup4\n      sub\n      dup2\n      dup7\n      gas\n      staticcall\n      iszero\n      dup1\n      iszero\n      tag_39\n      jumpi\n      returndatacopy(0x00, 0x00, returndatasize)\n      revert(0x00, returndatasize)\n    tag_39:\n      pop\n      pop\n      pop\n      pop\n      mload(0x40)\n      returndatasize\n      not(0x1f)\n      0x1f\n      dup3\n      add\n      and\n      dup3\n      add\n      dup1\n      0x40\n      mstore\n      pop\n      dup2\n      add\n      swap1\n      tag_40\n      swap2\n      swap1\n      tag_41\n      jump\t// in\n    tag_40:\n        /* \"Assignments/Lecture 6/AssetFactory.sol\":1955:1976  return asset.supply() */\n      swap3\n      pop\n      pop\n      pop\n        /* \"Assignments/Lecture 6/AssetFactory.sol\":1715:1983  function supplyFor(string memory ticker) public view returns (uint256) {... */\n      swap2\n      swap1\n      pop\n      jump\t// out\n        /* \"Assignments/Lecture 6/AssetFactory.sol\":931:971  mapping(string => address) public assets */\n    tag_17:\n      0x00\n      dup2\n      dup1\n      mload\n      0x20\n      dup2\n      add\n      dup3\n      add\n      dup1\n      mload\n      dup5\n      dup3\n      mstore\n      0x20\n      dup4\n      add\n      0x20\n      dup6\n      add\n      keccak256\n      dup2\n      dup4\n      mstore\n      dup1\n      swap6\n      pop\n      pop\n      pop\n      pop\n      pop\n      pop\n      0x00\n      swap2\n      pop\n      sload\n      swap1\n      0x0100\n      exp\n      swap1\n      div\n      0xffffffffffffffffffffffffffffffffffffffff\n      and\n      dup2\n      jump\t// out\n        /* \"Assignments/Lecture 6/AssetFactory.sol\":1277:1709  function send(address target, string memory assetTicker, uint256 amount) external payable {... */\n    tag_23:\n        /* \"Assignments/Lecture 6/AssetFactory.sol\":1399:1400  0 */\n      0x00\n        /* \"Assignments/Lecture 6/AssetFactory.sol\":1381:1401  target == address(0) */\n      0xffffffffffffffffffffffffffffffffffffffff\n      and\n        /* \"Assignments/Lecture 6/AssetFactory.sol\":1381:1387  target */\n      dup4\n        /* \"Assignments/Lecture 6/AssetFactory.sol\":1381:1401  target == address(0) */\n      0xffffffffffffffffffffffffffffffffffffffff\n      and\n      sub\n        /* \"Assignments/Lecture 6/AssetFactory.sol\":1377:1431  if (target == address(0)) { revert InvalidAddress(); } */\n      tag_43\n      jumpi\n        /* \"Assignments/Lecture 6/AssetFactory.sol\":1412:1428  InvalidAddress() */\n      mload(0x40)\n      0xe6c4247b00000000000000000000000000000000000000000000000000000000\n      dup2\n      mstore\n      0x04\n      add\n      mload(0x40)\n      dup1\n      swap2\n      sub\n      swap1\n      revert\n        /* \"Assignments/Lecture 6/AssetFactory.sol\":1377:1431  if (target == address(0)) { revert InvalidAddress(); } */\n    tag_43:\n        /* \"Assignments/Lecture 6/AssetFactory.sol\":1454:1455  0 */\n      0x00\n        /* \"Assignments/Lecture 6/AssetFactory.sol\":1444:1450  amount */\n      dup2\n        /* \"Assignments/Lecture 6/AssetFactory.sol\":1444:1455  amount == 0 */\n      sub\n        /* \"Assignments/Lecture 6/AssetFactory.sol\":1440:1486  if (amount == 0) { revert IncorrectAmount(); } */\n      tag_44\n      jumpi\n        /* \"Assignments/Lecture 6/AssetFactory.sol\":1466:1483  IncorrectAmount() */\n      mload(0x40)\n      0x69640e7200000000000000000000000000000000000000000000000000000000\n      dup2\n      mstore\n      0x04\n      add\n      mload(0x40)\n      dup1\n      swap2\n      sub\n      swap1\n      revert\n        /* \"Assignments/Lecture 6/AssetFactory.sol\":1440:1486  if (amount == 0) { revert IncorrectAmount(); } */\n    tag_44:\n        /* \"Assignments/Lecture 6/AssetFactory.sol\":1496:1516  address assetAddress */\n      0x00\n        /* \"Assignments/Lecture 6/AssetFactory.sol\":1519:1525  assets */\n      0x00\n        /* \"Assignments/Lecture 6/AssetFactory.sol\":1526:1537  assetTicker */\n      dup4\n        /* \"Assignments/Lecture 6/AssetFactory.sol\":1519:1538  assets[assetTicker] */\n      mload(0x40)\n      tag_45\n      swap2\n      swap1\n      tag_36\n      jump\t// in\n    tag_45:\n      swap1\n      dup2\n      mstore\n      0x20\n      add\n      mload(0x40)\n      dup1\n      swap2\n      sub\n      swap1\n      keccak256\n      0x00\n      swap1\n      sload\n      swap1\n      0x0100\n      exp\n      swap1\n      div\n      0xffffffffffffffffffffffffffffffffffffffff\n      and\n        /* \"Assignments/Lecture 6/AssetFactory.sol\":1496:1538  address assetAddress = assets[assetTicker] */\n      swap1\n      pop\n        /* \"Assignments/Lecture 6/AssetFactory.sol\":1576:1577  0 */\n      0x00\n        /* \"Assignments/Lecture 6/AssetFactory.sol\":1552:1578  assetAddress == address(0) */\n      0xffffffffffffffffffffffffffffffffffffffff\n      and\n        /* \"Assignments/Lecture 6/AssetFactory.sol\":1552:1564  assetAddress */\n      dup2\n        /* \"Assignments/Lecture 6/AssetFactory.sol\":1552:1578  assetAddress == address(0) */\n      0xffffffffffffffffffffffffffffffffffffffff\n      and\n      sub\n        /* \"Assignments/Lecture 6/AssetFactory.sol\":1548:1607  if (assetAddress == address(0)) { revert AssetNotFound(); } */\n      tag_46\n      jumpi\n        /* \"Assignments/Lecture 6/AssetFactory.sol\":1589:1604  AssetNotFound() */\n      mload(0x40)\n      0x470cbf4700000000000000000000000000000000000000000000000000000000\n      dup2\n      mstore\n      0x04\n      add\n      mload(0x40)\n      dup1\n      swap2\n      sub\n      swap1\n      revert\n        /* \"Assignments/Lecture 6/AssetFactory.sol\":1548:1607  if (assetAddress == address(0)) { revert AssetNotFound(); } */\n    tag_46:\n        /* \"Assignments/Lecture 6/AssetFactory.sol\":1617:1628  Asset asset */\n      0x00\n        /* \"Assignments/Lecture 6/AssetFactory.sol\":1637:1649  assetAddress */\n      dup2\n        /* \"Assignments/Lecture 6/AssetFactory.sol\":1617:1650  Asset asset = Asset(assetAddress) */\n      swap1\n      pop\n        /* \"Assignments/Lecture 6/AssetFactory.sol\":1660:1665  asset */\n      dup1\n        /* \"Assignments/Lecture 6/AssetFactory.sol\":1660:1676  asset.transferTo */\n      0xffffffffffffffffffffffffffffffffffffffff\n      and\n      0x2ccb1b30\n        /* \"Assignments/Lecture 6/AssetFactory.sol\":1677:1683  target */\n      dup7\n        /* \"Assignments/Lecture 6/AssetFactory.sol\":1694:1701  1 ether */\n      0x0de0b6b3a7640000\n        /* \"Assignments/Lecture 6/AssetFactory.sol\":1685:1691  amount */\n      dup7\n        /* \"Assignments/Lecture 6/AssetFactory.sol\":1685:1701  amount * 1 ether */\n      tag_47\n      swap2\n      swap1\n      tag_48\n      jump\t// in\n    tag_47:\n        /* \"Assignments/Lecture 6/AssetFactory.sol\":1660:1702  asset.transferTo(target, amount * 1 ether) */\n      mload(0x40)\n      dup4\n      0xffffffff\n      and\n      0xe0\n      shl\n      dup2\n      mstore\n      0x04\n      add\n      tag_49\n      swap3\n      swap2\n      swap1\n      tag_50\n      jump\t// in\n    tag_49:\n      0x00\n      mload(0x40)\n      dup1\n      dup4\n      sub\n      dup2\n      0x00\n      dup8\n      dup1\n      extcodesize\n      iszero\n      dup1\n      iszero\n      tag_51\n      jumpi\n      revert(0x00, 0x00)\n    tag_51:\n      pop\n      gas\n      call\n      iszero\n      dup1\n      iszero\n      tag_53\n      jumpi\n      returndatacopy(0x00, 0x00, returndatasize)\n      revert(0x00, returndatasize)\n    tag_53:\n      pop\n      pop\n      pop\n      pop\n        /* \"Assignments/Lecture 6/AssetFactory.sol\":1367:1709  {... */\n      pop\n      pop\n        /* \"Assignments/Lecture 6/AssetFactory.sol\":1277:1709  function send(address target, string memory assetTicker, uint256 amount) external payable {... */\n      pop\n      pop\n      pop\n      jump\t// out\n        /* \"Assignments/Lecture 6/AssetFactory.sol\":1989:2270  function balanceFor(string memory ticker) public view returns(uint256) {... */\n    tag_27:\n        /* \"Assignments/Lecture 6/AssetFactory.sol\":2051:2058  uint256 */\n      0x00\n        /* \"Assignments/Lecture 6/AssetFactory.sol\":2070:2090  address assetAddress */\n      0x00\n        /* \"Assignments/Lecture 6/AssetFactory.sol\":2093:2099  assets */\n      0x00\n        /* \"Assignments/Lecture 6/AssetFactory.sol\":2100:2106  ticker */\n      dup4\n        /* \"Assignments/Lecture 6/AssetFactory.sol\":2093:2107  assets[ticker] */\n      mload(0x40)\n      tag_55\n      swap2\n      swap1\n      tag_36\n      jump\t// in\n    tag_55:\n      swap1\n      dup2\n      mstore\n      0x20\n      add\n      mload(0x40)\n      dup1\n      swap2\n      sub\n      swap1\n      keccak256\n      0x00\n      swap1\n      sload\n      swap1\n      0x0100\n      exp\n      swap1\n      div\n      0xffffffffffffffffffffffffffffffffffffffff\n      and\n        /* \"Assignments/Lecture 6/AssetFactory.sol\":2070:2107  address assetAddress = assets[ticker] */\n      swap1\n      pop\n        /* \"Assignments/Lecture 6/AssetFactory.sol\":2145:2146  0 */\n      0x00\n        /* \"Assignments/Lecture 6/AssetFactory.sol\":2121:2147  assetAddress == address(0) */\n      0xffffffffffffffffffffffffffffffffffffffff\n      and\n        /* \"Assignments/Lecture 6/AssetFactory.sol\":2121:2133  assetAddress */\n      dup2\n        /* \"Assignments/Lecture 6/AssetFactory.sol\":2121:2147  assetAddress == address(0) */\n      0xffffffffffffffffffffffffffffffffffffffff\n      and\n      sub\n        /* \"Assignments/Lecture 6/AssetFactory.sol\":2117:2176  if (assetAddress == address(0)) { revert AssetNotFound(); } */\n      tag_56\n      jumpi\n        /* \"Assignments/Lecture 6/AssetFactory.sol\":2158:2173  AssetNotFound() */\n      mload(0x40)\n      0x470cbf4700000000000000000000000000000000000000000000000000000000\n      dup2\n      mstore\n      0x04\n      add\n      mload(0x40)\n      dup1\n      swap2\n      sub\n      swap1\n      revert\n        /* \"Assignments/Lecture 6/AssetFactory.sol\":2117:2176  if (assetAddress == address(0)) { revert AssetNotFound(); } */\n    tag_56:\n        /* \"Assignments/Lecture 6/AssetFactory.sol\":2186:2197  Asset asset */\n      0x00\n        /* \"Assignments/Lecture 6/AssetFactory.sol\":2206:2218  assetAddress */\n      dup2\n        /* \"Assignments/Lecture 6/AssetFactory.sol\":2186:2219  Asset asset = Asset(assetAddress) */\n      swap1\n      pop\n        /* \"Assignments/Lecture 6/AssetFactory.sol\":2236:2241  asset */\n      dup1\n        /* \"Assignments/Lecture 6/AssetFactory.sol\":2236:2251  asset.balanceOf */\n      0xffffffffffffffffffffffffffffffffffffffff\n      and\n      0x70a08231\n        /* \"Assignments/Lecture 6/AssetFactory.sol\":2252:2262  msg.sender */\n      caller\n        /* \"Assignments/Lecture 6/AssetFactory.sol\":2236:2263  asset.balanceOf(msg.sender) */\n      mload(0x40)\n      dup3\n      0xffffffff\n      and\n      0xe0\n      shl\n      dup2\n      mstore\n      0x04\n      add\n      tag_57\n      swap2\n      swap1\n      tag_19\n      jump\t// in\n    tag_57:\n      0x20\n      mload(0x40)\n      dup1\n      dup4\n      sub\n      dup2\n      dup7\n      gas\n      staticcall\n      iszero\n      dup1\n      iszero\n      tag_59\n      jumpi\n      returndatacopy(0x00, 0x00, returndatasize)\n      revert(0x00, returndatasize)\n    tag_59:\n      pop\n      pop\n      pop\n      pop\n      mload(0x40)\n      returndatasize\n      not(0x1f)\n      0x1f\n      dup3\n      add\n      and\n      dup3\n      add\n      dup1\n      0x40\n      mstore\n      pop\n      dup2\n      add\n      swap1\n      tag_60\n      swap2\n      swap1\n      tag_41\n      jump\t// in\n    tag_60:\n        /* \"Assignments/Lecture 6/AssetFactory.sol\":2229:2263  return asset.balanceOf(msg.sender) */\n      swap3\n      pop\n      pop\n      pop\n        /* \"Assignments/Lecture 6/AssetFactory.sol\":1989:2270  function balanceFor(string memory ticker) public view returns(uint256) {... */\n      swap2\n      swap1\n      pop\n      jump\t// out\n        /* \"Assignments/Lecture 6/AssetFactory.sol\":978:1271  function createAsset(string memory name, string memory ticker, uint256 initialSupply) public {... */\n    tag_33:\n        /* \"Assignments/Lecture 6/AssetFactory.sol\":1111:1112  0 */\n      0x00\n        /* \"Assignments/Lecture 6/AssetFactory.sol\":1085:1113  assets[ticker] != address(0) */\n      0xffffffffffffffffffffffffffffffffffffffff\n      and\n        /* \"Assignments/Lecture 6/AssetFactory.sol\":1085:1091  assets */\n      0x00\n        /* \"Assignments/Lecture 6/AssetFactory.sol\":1092:1098  ticker */\n      dup4\n        /* \"Assignments/Lecture 6/AssetFactory.sol\":1085:1099  assets[ticker] */\n      mload(0x40)\n      tag_62\n      swap2\n      swap1\n      tag_36\n      jump\t// in\n    tag_62:\n      swap1\n      dup2\n      mstore\n      0x20\n      add\n      mload(0x40)\n      dup1\n      swap2\n      sub\n      swap1\n      keccak256\n      0x00\n      swap1\n      sload\n      swap1\n      0x0100\n      exp\n      swap1\n      div\n      0xffffffffffffffffffffffffffffffffffffffff\n      and\n        /* \"Assignments/Lecture 6/AssetFactory.sol\":1085:1113  assets[ticker] != address(0) */\n      0xffffffffffffffffffffffffffffffffffffffff\n      and\n      eq\n        /* \"Assignments/Lecture 6/AssetFactory.sol\":1081:1138  if (assets[ticker] != address(0)) revert DuplicateAsset() */\n      tag_63\n      jumpi\n        /* \"Assignments/Lecture 6/AssetFactory.sol\":1122:1138  DuplicateAsset() */\n      mload(0x40)\n      0x587daa3000000000000000000000000000000000000000000000000000000000\n      dup2\n      mstore\n      0x04\n      add\n      mload(0x40)\n      dup1\n      swap2\n      sub\n      swap1\n      revert\n        /* \"Assignments/Lecture 6/AssetFactory.sol\":1081:1138  if (assets[ticker] != address(0)) revert DuplicateAsset() */\n    tag_63:\n        /* \"Assignments/Lecture 6/AssetFactory.sol\":1149:1172  address newAssetAddress */\n      0x00\n        /* \"Assignments/Lecture 6/AssetFactory.sol\":1193:1197  name */\n      dup4\n        /* \"Assignments/Lecture 6/AssetFactory.sol\":1199:1205  ticker */\n      dup4\n        /* \"Assignments/Lecture 6/AssetFactory.sol\":1207:1220  initialSupply */\n      dup4\n        /* \"Assignments/Lecture 6/AssetFactory.sol\":1183:1221  new Asset(name, ticker, initialSupply) */\n      mload(0x40)\n      tag_64\n      swap1\n      tag_65\n      jump\t// in\n    tag_64:\n      tag_66\n      swap4\n      swap3\n      swap2\n      swap1\n      tag_67\n      jump\t// in\n    tag_66:\n      mload(0x40)\n      dup1\n      swap2\n      sub\n      swap1\n      0x00\n      create\n      dup1\n      iszero\n      dup1\n      iszero\n      tag_68\n      jumpi\n      returndatacopy(0x00, 0x00, returndatasize)\n      revert(0x00, returndatasize)\n    tag_68:\n      pop\n        /* \"Assignments/Lecture 6/AssetFactory.sol\":1149:1222  address newAssetAddress = address(new Asset(name, ticker, initialSupply)) */\n      swap1\n      pop\n        /* \"Assignments/Lecture 6/AssetFactory.sol\":1249:1264  newAssetAddress */\n      dup1\n        /* \"Assignments/Lecture 6/AssetFactory.sol\":1232:1238  assets */\n      0x00\n        /* \"Assignments/Lecture 6/AssetFactory.sol\":1239:1245  ticker */\n      dup5\n        /* \"Assignments/Lecture 6/AssetFactory.sol\":1232:1246  assets[ticker] */\n      mload(0x40)\n      tag_69\n      swap2\n      swap1\n      tag_36\n      jump\t// in\n    tag_69:\n      swap1\n      dup2\n      mstore\n      0x20\n      add\n      mload(0x40)\n      dup1\n      swap2\n      sub\n      swap1\n      keccak256\n      0x00\n        /* \"Assignments/Lecture 6/AssetFactory.sol\":1232:1264  assets[ticker] = newAssetAddress */\n      0x0100\n      exp\n      dup2\n      sload\n      dup2\n      0xffffffffffffffffffffffffffffffffffffffff\n      mul\n      not\n      and\n      swap1\n      dup4\n      0xffffffffffffffffffffffffffffffffffffffff\n      and\n      mul\n      or\n      swap1\n      sstore\n      pop\n        /* \"Assignments/Lecture 6/AssetFactory.sol\":1071:1271  {... */\n      pop\n        /* \"Assignments/Lecture 6/AssetFactory.sol\":978:1271  function createAsset(string memory name, string memory ticker, uint256 initialSupply) public {... */\n      pop\n      pop\n      pop\n      jump\t// out\n    tag_65:\n      dataSize(sub_0)\n      dup1\n      dataOffset(sub_0)\n      dup4\n      codecopy\n      add\n      swap1\n      jump\t// out\n        /* \"#utility.yul\":7:82   */\n    tag_70:\n        /* \"#utility.yul\":40:46   */\n      0x00\n        /* \"#utility.yul\":73:75   */\n      0x40\n        /* \"#utility.yul\":67:76   */\n      mload\n        /* \"#utility.yul\":57:76   */\n      swap1\n      pop\n        /* \"#utility.yul\":7:82   */\n      swap1\n      jump\t// out\n        /* \"#utility.yul\":88:205   */\n    tag_71:\n        /* \"#utility.yul\":197:198   */\n      0x00\n        /* \"#utility.yul\":194:195   */\n      0x00\n        /* \"#utility.yul\":187:199   */\n      revert\n        /* \"#utility.yul\":211:328   */\n    tag_72:\n        /* \"#utility.yul\":320:321   */\n      0x00\n        /* \"#utility.yul\":317:318   */\n      0x00\n        /* \"#utility.yul\":310:322   */\n      revert\n        /* \"#utility.yul\":334:451   */\n    tag_73:\n        /* \"#utility.yul\":443:444   */\n      0x00\n        /* \"#utility.yul\":440:441   */\n      0x00\n        /* \"#utility.yul\":433:445   */\n      revert\n        /* \"#utility.yul\":457:574   */\n    tag_74:\n        /* \"#utility.yul\":566:567   */\n      0x00\n        /* \"#utility.yul\":563:564   */\n      0x00\n        /* \"#utility.yul\":556:568   */\n      revert\n        /* \"#utility.yul\":580:682   */\n    tag_75:\n        /* \"#utility.yul\":621:627   */\n      0x00\n        /* \"#utility.yul\":672:674   */\n      0x1f\n        /* \"#utility.yul\":668:675   */\n      not\n        /* \"#utility.yul\":663:665   */\n      0x1f\n        /* \"#utility.yul\":656:661   */\n      dup4\n        /* \"#utility.yul\":652:666   */\n      add\n        /* \"#utility.yul\":648:676   */\n      and\n        /* \"#utility.yul\":638:676   */\n      swap1\n      pop\n        /* \"#utility.yul\":580:682   */\n      swap2\n      swap1\n      pop\n      jump\t// out\n        /* \"#utility.yul\":688:868   */\n    tag_76:\n        /* \"#utility.yul\":736:813   */\n      0x4e487b7100000000000000000000000000000000000000000000000000000000\n        /* \"#utility.yul\":733:734   */\n      0x00\n        /* \"#utility.yul\":726:814   */\n      mstore\n        /* \"#utility.yul\":833:837   */\n      0x41\n        /* \"#utility.yul\":830:831   */\n      0x04\n        /* \"#utility.yul\":823:838   */\n      mstore\n        /* \"#utility.yul\":857:861   */\n      0x24\n        /* \"#utility.yul\":854:855   */\n      0x00\n        /* \"#utility.yul\":847:862   */\n      revert\n        /* \"#utility.yul\":874:1155   */\n    tag_77:\n        /* \"#utility.yul\":957:984   */\n      tag_109\n        /* \"#utility.yul\":979:983   */\n      dup3\n        /* \"#utility.yul\":957:984   */\n      tag_75\n      jump\t// in\n    tag_109:\n        /* \"#utility.yul\":949:955   */\n      dup2\n        /* \"#utility.yul\":945:985   */\n      add\n        /* \"#utility.yul\":1087:1093   */\n      dup2\n        /* \"#utility.yul\":1075:1085   */\n      dup2\n        /* \"#utility.yul\":1072:1094   */\n      lt\n        /* \"#utility.yul\":1051:1069   */\n      0xffffffffffffffff\n        /* \"#utility.yul\":1039:1049   */\n      dup3\n        /* \"#utility.yul\":1036:1070   */\n      gt\n        /* \"#utility.yul\":1033:1095   */\n      or\n        /* \"#utility.yul\":1030:1118   */\n      iszero\n      tag_110\n      jumpi\n        /* \"#utility.yul\":1098:1116   */\n      tag_111\n      tag_76\n      jump\t// in\n    tag_111:\n        /* \"#utility.yul\":1030:1118   */\n    tag_110:\n        /* \"#utility.yul\":1138:1148   */\n      dup1\n        /* \"#utility.yul\":1134:1136   */\n      0x40\n        /* \"#utility.yul\":1127:1149   */\n      mstore\n        /* \"#utility.yul\":917:1155   */\n      pop\n        /* \"#utility.yul\":874:1155   */\n      pop\n      pop\n      jump\t// out\n        /* \"#utility.yul\":1161:1290   */\n    tag_78:\n        /* \"#utility.yul\":1195:1201   */\n      0x00\n        /* \"#utility.yul\":1222:1242   */\n      tag_113\n      tag_70\n      jump\t// in\n    tag_113:\n        /* \"#utility.yul\":1212:1242   */\n      swap1\n      pop\n        /* \"#utility.yul\":1251:1284   */\n      tag_114\n        /* \"#utility.yul\":1279:1283   */\n      dup3\n        /* \"#utility.yul\":1271:1277   */\n      dup3\n        /* \"#utility.yul\":1251:1284   */\n      tag_77\n      jump\t// in\n    tag_114:\n        /* \"#utility.yul\":1161:1290   */\n      swap2\n      swap1\n      pop\n      jump\t// out\n        /* \"#utility.yul\":1296:1604   */\n    tag_79:\n        /* \"#utility.yul\":1358:1362   */\n      0x00\n        /* \"#utility.yul\":1448:1466   */\n      0xffffffffffffffff\n        /* \"#utility.yul\":1440:1446   */\n      dup3\n        /* \"#utility.yul\":1437:1467   */\n      gt\n        /* \"#utility.yul\":1434:1490   */\n      iszero\n      tag_116\n      jumpi\n        /* \"#utility.yul\":1470:1488   */\n      tag_117\n      tag_76\n      jump\t// in\n    tag_117:\n        /* \"#utility.yul\":1434:1490   */\n    tag_116:\n        /* \"#utility.yul\":1508:1537   */\n      tag_118\n        /* \"#utility.yul\":1530:1536   */\n      dup3\n        /* \"#utility.yul\":1508:1537   */\n      tag_75\n      jump\t// in\n    tag_118:\n        /* \"#utility.yul\":1500:1537   */\n      swap1\n      pop\n        /* \"#utility.yul\":1592:1596   */\n      0x20\n        /* \"#utility.yul\":1586:1590   */\n      dup2\n        /* \"#utility.yul\":1582:1597   */\n      add\n        /* \"#utility.yul\":1574:1597   */\n      swap1\n      pop\n        /* \"#utility.yul\":1296:1604   */\n      swap2\n      swap1\n      pop\n      jump\t// out\n        /* \"#utility.yul\":1610:1758   */\n    tag_80:\n        /* \"#utility.yul\":1708:1714   */\n      dup3\n        /* \"#utility.yul\":1703:1706   */\n      dup2\n        /* \"#utility.yul\":1698:1701   */\n      dup4\n        /* \"#utility.yul\":1685:1715   */\n      calldatacopy\n        /* \"#utility.yul\":1749:1750   */\n      0x00\n        /* \"#utility.yul\":1740:1746   */\n      dup4\n        /* \"#utility.yul\":1735:1738   */\n      dup4\n        /* \"#utility.yul\":1731:1747   */\n      add\n        /* \"#utility.yul\":1724:1751   */\n      mstore\n        /* \"#utility.yul\":1610:1758   */\n      pop\n      pop\n      pop\n      jump\t// out\n        /* \"#utility.yul\":1764:2189   */\n    tag_81:\n        /* \"#utility.yul\":1842:1847   */\n      0x00\n        /* \"#utility.yul\":1867:1933   */\n      tag_121\n        /* \"#utility.yul\":1883:1932   */\n      tag_122\n        /* \"#utility.yul\":1925:1931   */\n      dup5\n        /* \"#utility.yul\":1883:1932   */\n      tag_79\n      jump\t// in\n    tag_122:\n        /* \"#utility.yul\":1867:1933   */\n      tag_78\n      jump\t// in\n    tag_121:\n        /* \"#utility.yul\":1858:1933   */\n      swap1\n      pop\n        /* \"#utility.yul\":1956:1962   */\n      dup3\n        /* \"#utility.yul\":1949:1954   */\n      dup2\n        /* \"#utility.yul\":1942:1963   */\n      mstore\n        /* \"#utility.yul\":1994:1998   */\n      0x20\n        /* \"#utility.yul\":1987:1992   */\n      dup2\n        /* \"#utility.yul\":1983:1999   */\n      add\n        /* \"#utility.yul\":2032:2035   */\n      dup5\n        /* \"#utility.yul\":2023:2029   */\n      dup5\n        /* \"#utility.yul\":2018:2021   */\n      dup5\n        /* \"#utility.yul\":2014:2030   */\n      add\n        /* \"#utility.yul\":2011:2036   */\n      gt\n        /* \"#utility.yul\":2008:2120   */\n      iszero\n      tag_123\n      jumpi\n        /* \"#utility.yul\":2039:2118   */\n      tag_124\n      tag_74\n      jump\t// in\n    tag_124:\n        /* \"#utility.yul\":2008:2120   */\n    tag_123:\n        /* \"#utility.yul\":2129:2183   */\n      tag_125\n        /* \"#utility.yul\":2176:2182   */\n      dup5\n        /* \"#utility.yul\":2171:2174   */\n      dup3\n        /* \"#utility.yul\":2166:2169   */\n      dup6\n        /* \"#utility.yul\":2129:2183   */\n      tag_80\n      jump\t// in\n    tag_125:\n        /* \"#utility.yul\":1848:2189   */\n      pop\n        /* \"#utility.yul\":1764:2189   */\n      swap4\n      swap3\n      pop\n      pop\n      pop\n      jump\t// out\n        /* \"#utility.yul\":2209:2549   */\n    tag_82:\n        /* \"#utility.yul\":2265:2270   */\n      0x00\n        /* \"#utility.yul\":2314:2317   */\n      dup3\n        /* \"#utility.yul\":2307:2311   */\n      0x1f\n        /* \"#utility.yul\":2299:2305   */\n      dup4\n        /* \"#utility.yul\":2295:2312   */\n      add\n        /* \"#utility.yul\":2291:2318   */\n      slt\n        /* \"#utility.yul\":2281:2403   */\n      tag_127\n      jumpi\n        /* \"#utility.yul\":2322:2401   */\n      tag_128\n      tag_73\n      jump\t// in\n    tag_128:\n        /* \"#utility.yul\":2281:2403   */\n    tag_127:\n        /* \"#utility.yul\":2439:2445   */\n      dup2\n        /* \"#utility.yul\":2426:2446   */\n      calldataload\n        /* \"#utility.yul\":2464:2543   */\n      tag_129\n        /* \"#utility.yul\":2539:2542   */\n      dup5\n        /* \"#utility.yul\":2531:2537   */\n      dup3\n        /* \"#utility.yul\":2524:2528   */\n      0x20\n        /* \"#utility.yul\":2516:2522   */\n      dup7\n        /* \"#utility.yul\":2512:2529   */\n      add\n        /* \"#utility.yul\":2464:2543   */\n      tag_81\n      jump\t// in\n    tag_129:\n        /* \"#utility.yul\":2455:2543   */\n      swap2\n      pop\n        /* \"#utility.yul\":2271:2549   */\n      pop\n        /* \"#utility.yul\":2209:2549   */\n      swap3\n      swap2\n      pop\n      pop\n      jump\t// out\n        /* \"#utility.yul\":2555:3064   */\n    tag_10:\n        /* \"#utility.yul\":2624:2630   */\n      0x00\n        /* \"#utility.yul\":2673:2675   */\n      0x20\n        /* \"#utility.yul\":2661:2670   */\n      dup3\n        /* \"#utility.yul\":2652:2659   */\n      dup5\n        /* \"#utility.yul\":2648:2671   */\n      sub\n        /* \"#utility.yul\":2644:2676   */\n      slt\n        /* \"#utility.yul\":2641:2760   */\n      iszero\n      tag_131\n      jumpi\n        /* \"#utility.yul\":2679:2758   */\n      tag_132\n      tag_71\n      jump\t// in\n    tag_132:\n        /* \"#utility.yul\":2641:2760   */\n    tag_131:\n        /* \"#utility.yul\":2827:2828   */\n      0x00\n        /* \"#utility.yul\":2816:2825   */\n      dup3\n        /* \"#utility.yul\":2812:2829   */\n      add\n        /* \"#utility.yul\":2799:2830   */\n      calldataload\n        /* \"#utility.yul\":2857:2875   */\n      0xffffffffffffffff\n        /* \"#utility.yul\":2849:2855   */\n      dup2\n        /* \"#utility.yul\":2846:2876   */\n      gt\n        /* \"#utility.yul\":2843:2960   */\n      iszero\n      tag_133\n      jumpi\n        /* \"#utility.yul\":2879:2958   */\n      tag_134\n      tag_72\n      jump\t// in\n    tag_134:\n        /* \"#utility.yul\":2843:2960   */\n    tag_133:\n        /* \"#utility.yul\":2984:3047   */\n      tag_135\n        /* \"#utility.yul\":3039:3046   */\n      dup5\n        /* \"#utility.yul\":3030:3036   */\n      dup3\n        /* \"#utility.yul\":3019:3028   */\n      dup6\n        /* \"#utility.yul\":3015:3037   */\n      add\n        /* \"#utility.yul\":2984:3047   */\n      tag_82\n      jump\t// in\n    tag_135:\n        /* \"#utility.yul\":2974:3047   */\n      swap2\n      pop\n        /* \"#utility.yul\":2770:3057   */\n      pop\n        /* \"#utility.yul\":2555:3064   */\n      swap3\n      swap2\n      pop\n      pop\n      jump\t// out\n        /* \"#utility.yul\":3070:3147   */\n    tag_83:\n        /* \"#utility.yul\":3107:3114   */\n      0x00\n        /* \"#utility.yul\":3136:3141   */\n      dup2\n        /* \"#utility.yul\":3125:3141   */\n      swap1\n      pop\n        /* \"#utility.yul\":3070:3147   */\n      swap2\n      swap1\n      pop\n      jump\t// out\n        /* \"#utility.yul\":3153:3271   */\n    tag_84:\n        /* \"#utility.yul\":3240:3264   */\n      tag_138\n        /* \"#utility.yul\":3258:3263   */\n      dup2\n        /* \"#utility.yul\":3240:3264   */\n      tag_83\n      jump\t// in\n    tag_138:\n        /* \"#utility.yul\":3235:3238   */\n      dup3\n        /* \"#utility.yul\":3228:3265   */\n      mstore\n        /* \"#utility.yul\":3153:3271   */\n      pop\n      pop\n      jump\t// out\n        /* \"#utility.yul\":3277:3499   */\n    tag_13:\n        /* \"#utility.yul\":3370:3374   */\n      0x00\n        /* \"#utility.yul\":3408:3410   */\n      0x20\n        /* \"#utility.yul\":3397:3406   */\n      dup3\n        /* \"#utility.yul\":3393:3411   */\n      add\n        /* \"#utility.yul\":3385:3411   */\n      swap1\n      pop\n        /* \"#utility.yul\":3421:3492   */\n      tag_140\n        /* \"#utility.yul\":3489:3490   */\n      0x00\n        /* \"#utility.yul\":3478:3487   */\n      dup4\n        /* \"#utility.yul\":3474:3491   */\n      add\n        /* \"#utility.yul\":3465:3471   */\n      dup5\n        /* \"#utility.yul\":3421:3492   */\n      tag_84\n      jump\t// in\n    tag_140:\n        /* \"#utility.yul\":3277:3499   */\n      swap3\n      swap2\n      pop\n      pop\n      jump\t// out\n        /* \"#utility.yul\":3505:3631   */\n    tag_85:\n        /* \"#utility.yul\":3542:3549   */\n      0x00\n        /* \"#utility.yul\":3582:3624   */\n      0xffffffffffffffffffffffffffffffffffffffff\n        /* \"#utility.yul\":3575:3580   */\n      dup3\n        /* \"#utility.yul\":3571:3625   */\n      and\n        /* \"#utility.yul\":3560:3625   */\n      swap1\n      pop\n        /* \"#utility.yul\":3505:3631   */\n      swap2\n      swap1\n      pop\n      jump\t// out\n        /* \"#utility.yul\":3637:3733   */\n    tag_86:\n        /* \"#utility.yul\":3674:3681   */\n      0x00\n        /* \"#utility.yul\":3703:3727   */\n      tag_143\n        /* \"#utility.yul\":3721:3726   */\n      dup3\n        /* \"#utility.yul\":3703:3727   */\n      tag_85\n      jump\t// in\n    tag_143:\n        /* \"#utility.yul\":3692:3727   */\n      swap1\n      pop\n        /* \"#utility.yul\":3637:3733   */\n      swap2\n      swap1\n      pop\n      jump\t// out\n        /* \"#utility.yul\":3739:3857   */\n    tag_87:\n        /* \"#utility.yul\":3826:3850   */\n      tag_145\n        /* \"#utility.yul\":3844:3849   */\n      dup2\n        /* \"#utility.yul\":3826:3850   */\n      tag_86\n      jump\t// in\n    tag_145:\n        /* \"#utility.yul\":3821:3824   */\n      dup3\n        /* \"#utility.yul\":3814:3851   */\n      mstore\n        /* \"#utility.yul\":3739:3857   */\n      pop\n      pop\n      jump\t// out\n        /* \"#utility.yul\":3863:4085   */\n    tag_19:\n        /* \"#utility.yul\":3956:3960   */\n      0x00\n        /* \"#utility.yul\":3994:3996   */\n      0x20\n        /* \"#utility.yul\":3983:3992   */\n      dup3\n        /* \"#utility.yul\":3979:3997   */\n      add\n        /* \"#utility.yul\":3971:3997   */\n      swap1\n      pop\n        /* \"#utility.yul\":4007:4078   */\n      tag_147\n        /* \"#utility.yul\":4075:4076   */\n      0x00\n        /* \"#utility.yul\":4064:4073   */\n      dup4\n        /* \"#utility.yul\":4060:4077   */\n      add\n        /* \"#utility.yul\":4051:4057   */\n      dup5\n        /* \"#utility.yul\":4007:4078   */\n      tag_87\n      jump\t// in\n    tag_147:\n        /* \"#utility.yul\":3863:4085   */\n      swap3\n      swap2\n      pop\n      pop\n      jump\t// out\n        /* \"#utility.yul\":4091:4213   */\n    tag_88:\n        /* \"#utility.yul\":4164:4188   */\n      tag_149\n        /* \"#utility.yul\":4182:4187   */\n      dup2\n        /* \"#utility.yul\":4164:4188   */\n      tag_86\n      jump\t// in\n    tag_149:\n        /* \"#utility.yul\":4157:4162   */\n      dup2\n        /* \"#utility.yul\":4154:4189   */\n      eq\n        /* \"#utility.yul\":4144:4207   */\n      tag_150\n      jumpi\n        /* \"#utility.yul\":4203:4204   */\n      0x00\n        /* \"#utility.yul\":4200:4201   */\n      0x00\n        /* \"#utility.yul\":4193:4205   */\n      revert\n        /* \"#utility.yul\":4144:4207   */\n    tag_150:\n        /* \"#utility.yul\":4091:4213   */\n      pop\n      jump\t// out\n        /* \"#utility.yul\":4219:4358   */\n    tag_89:\n        /* \"#utility.yul\":4265:4270   */\n      0x00\n        /* \"#utility.yul\":4303:4309   */\n      dup2\n        /* \"#utility.yul\":4290:4310   */\n      calldataload\n        /* \"#utility.yul\":4281:4310   */\n      swap1\n      pop\n        /* \"#utility.yul\":4319:4352   */\n      tag_152\n        /* \"#utility.yul\":4346:4351   */\n      dup2\n        /* \"#utility.yul\":4319:4352   */\n      tag_88\n      jump\t// in\n    tag_152:\n        /* \"#utility.yul\":4219:4358   */\n      swap3\n      swap2\n      pop\n      pop\n      jump\t// out\n        /* \"#utility.yul\":4364:4486   */\n    tag_90:\n        /* \"#utility.yul\":4437:4461   */\n      tag_154\n        /* \"#utility.yul\":4455:4460   */\n      dup2\n        /* \"#utility.yul\":4437:4461   */\n      tag_83\n      jump\t// in\n    tag_154:\n        /* \"#utility.yul\":4430:4435   */\n      dup2\n        /* \"#utility.yul\":4427:4462   */\n      eq\n        /* \"#utility.yul\":4417:4480   */\n      tag_155\n      jumpi\n        /* \"#utility.yul\":4476:4477   */\n      0x00\n        /* \"#utility.yul\":4473:4474   */\n      0x00\n        /* \"#utility.yul\":4466:4478   */\n      revert\n        /* \"#utility.yul\":4417:4480   */\n    tag_155:\n        /* \"#utility.yul\":4364:4486   */\n      pop\n      jump\t// out\n        /* \"#utility.yul\":4492:4631   */\n    tag_91:\n        /* \"#utility.yul\":4538:4543   */\n      0x00\n        /* \"#utility.yul\":4576:4582   */\n      dup2\n        /* \"#utility.yul\":4563:4583   */\n      calldataload\n        /* \"#utility.yul\":4554:4583   */\n      swap1\n      pop\n        /* \"#utility.yul\":4592:4625   */\n      tag_157\n        /* \"#utility.yul\":4619:4624   */\n      dup2\n        /* \"#utility.yul\":4592:4625   */\n      tag_90\n      jump\t// in\n    tag_157:\n        /* \"#utility.yul\":4492:4631   */\n      swap3\n      swap2\n      pop\n      pop\n      jump\t// out\n        /* \"#utility.yul\":4637:5436   */\n    tag_22:\n        /* \"#utility.yul\":4724:4730   */\n      0x00\n        /* \"#utility.yul\":4732:4738   */\n      0x00\n        /* \"#utility.yul\":4740:4746   */\n      0x00\n        /* \"#utility.yul\":4789:4791   */\n      0x60\n        /* \"#utility.yul\":4777:4786   */\n      dup5\n        /* \"#utility.yul\":4768:4775   */\n      dup7\n        /* \"#utility.yul\":4764:4787   */\n      sub\n        /* \"#utility.yul\":4760:4792   */\n      slt\n        /* \"#utility.yul\":4757:4876   */\n      iszero\n      tag_159\n      jumpi\n        /* \"#utility.yul\":4795:4874   */\n      tag_160\n      tag_71\n      jump\t// in\n    tag_160:\n        /* \"#utility.yul\":4757:4876   */\n    tag_159:\n        /* \"#utility.yul\":4915:4916   */\n      0x00\n        /* \"#utility.yul\":4940:4993   */\n      tag_161\n        /* \"#utility.yul\":4985:4992   */\n      dup7\n        /* \"#utility.yul\":4976:4982   */\n      dup3\n        /* \"#utility.yul\":4965:4974   */\n      dup8\n        /* \"#utility.yul\":4961:4983   */\n      add\n        /* \"#utility.yul\":4940:4993   */\n      tag_89\n      jump\t// in\n    tag_161:\n        /* \"#utility.yul\":4930:4993   */\n      swap4\n      pop\n        /* \"#utility.yul\":4886:5003   */\n      pop\n        /* \"#utility.yul\":5070:5072   */\n      0x20\n        /* \"#utility.yul\":5059:5068   */\n      dup5\n        /* \"#utility.yul\":5055:5073   */\n      add\n        /* \"#utility.yul\":5042:5074   */\n      calldataload\n        /* \"#utility.yul\":5101:5119   */\n      0xffffffffffffffff\n        /* \"#utility.yul\":5093:5099   */\n      dup2\n        /* \"#utility.yul\":5090:5120   */\n      gt\n        /* \"#utility.yul\":5087:5204   */\n      iszero\n      tag_162\n      jumpi\n        /* \"#utility.yul\":5123:5202   */\n      tag_163\n      tag_72\n      jump\t// in\n    tag_163:\n        /* \"#utility.yul\":5087:5204   */\n    tag_162:\n        /* \"#utility.yul\":5228:5291   */\n      tag_164\n        /* \"#utility.yul\":5283:5290   */\n      dup7\n        /* \"#utility.yul\":5274:5280   */\n      dup3\n        /* \"#utility.yul\":5263:5272   */\n      dup8\n        /* \"#utility.yul\":5259:5281   */\n      add\n        /* \"#utility.yul\":5228:5291   */\n      tag_82\n      jump\t// in\n    tag_164:\n        /* \"#utility.yul\":5218:5291   */\n      swap3\n      pop\n        /* \"#utility.yul\":5013:5301   */\n      pop\n        /* \"#utility.yul\":5340:5342   */\n      0x40\n        /* \"#utility.yul\":5366:5419   */\n      tag_165\n        /* \"#utility.yul\":5411:5418   */\n      dup7\n        /* \"#utility.yul\":5402:5408   */\n      dup3\n        /* \"#utility.yul\":5391:5400   */\n      dup8\n        /* \"#utility.yul\":5387:5409   */\n      add\n        /* \"#utility.yul\":5366:5419   */\n      tag_91\n      jump\t// in\n    tag_165:\n        /* \"#utility.yul\":5356:5419   */\n      swap2\n      pop\n        /* \"#utility.yul\":5311:5429   */\n      pop\n        /* \"#utility.yul\":4637:5436   */\n      swap3\n      pop\n      swap3\n      pop\n      swap3\n      jump\t// out\n        /* \"#utility.yul\":5442:6421   */\n    tag_32:\n        /* \"#utility.yul\":5539:5545   */\n      0x00\n        /* \"#utility.yul\":5547:5553   */\n      0x00\n        /* \"#utility.yul\":5555:5561   */\n      0x00\n        /* \"#utility.yul\":5604:5606   */\n      0x60\n        /* \"#utility.yul\":5592:5601   */\n      dup5\n        /* \"#utility.yul\":5583:5590   */\n      dup7\n        /* \"#utility.yul\":5579:5602   */\n      sub\n        /* \"#utility.yul\":5575:5607   */\n      slt\n        /* \"#utility.yul\":5572:5691   */\n      iszero\n      tag_167\n      jumpi\n        /* \"#utility.yul\":5610:5689   */\n      tag_168\n      tag_71\n      jump\t// in\n    tag_168:\n        /* \"#utility.yul\":5572:5691   */\n    tag_167:\n        /* \"#utility.yul\":5758:5759   */\n      0x00\n        /* \"#utility.yul\":5747:5756   */\n      dup5\n        /* \"#utility.yul\":5743:5760   */\n      add\n        /* \"#utility.yul\":5730:5761   */\n      calldataload\n        /* \"#utility.yul\":5788:5806   */\n      0xffffffffffffffff\n        /* \"#utility.yul\":5780:5786   */\n      dup2\n        /* \"#utility.yul\":5777:5807   */\n      gt\n        /* \"#utility.yul\":5774:5891   */\n      iszero\n      tag_169\n      jumpi\n        /* \"#utility.yul\":5810:5889   */\n      tag_170\n      tag_72\n      jump\t// in\n    tag_170:\n        /* \"#utility.yul\":5774:5891   */\n    tag_169:\n        /* \"#utility.yul\":5915:5978   */\n      tag_171\n        /* \"#utility.yul\":5970:5977   */\n      dup7\n        /* \"#utility.yul\":5961:5967   */\n      dup3\n        /* \"#utility.yul\":5950:5959   */\n      dup8\n        /* \"#utility.yul\":5946:5968   */\n      add\n        /* \"#utility.yul\":5915:5978   */\n      tag_82\n      jump\t// in\n    tag_171:\n        /* \"#utility.yul\":5905:5978   */\n      swap4\n      pop\n        /* \"#utility.yul\":5701:5988   */\n      pop\n        /* \"#utility.yul\":6055:6057   */\n      0x20\n        /* \"#utility.yul\":6044:6053   */\n      dup5\n        /* \"#utility.yul\":6040:6058   */\n      add\n        /* \"#utility.yul\":6027:6059   */\n      calldataload\n        /* \"#utility.yul\":6086:6104   */\n      0xffffffffffffffff\n        /* \"#utility.yul\":6078:6084   */\n      dup2\n        /* \"#utility.yul\":6075:6105   */\n      gt\n        /* \"#utility.yul\":6072:6189   */\n      iszero\n      tag_172\n      jumpi\n        /* \"#utility.yul\":6108:6187   */\n      tag_173\n      tag_72\n      jump\t// in\n    tag_173:\n        /* \"#utility.yul\":6072:6189   */\n    tag_172:\n        /* \"#utility.yul\":6213:6276   */\n      tag_174\n        /* \"#utility.yul\":6268:6275   */\n      dup7\n        /* \"#utility.yul\":6259:6265   */\n      dup3\n        /* \"#utility.yul\":6248:6257   */\n      dup8\n        /* \"#utility.yul\":6244:6266   */\n      add\n        /* \"#utility.yul\":6213:6276   */\n      tag_82\n      jump\t// in\n    tag_174:\n        /* \"#utility.yul\":6203:6276   */\n      swap3\n      pop\n        /* \"#utility.yul\":5998:6286   */\n      pop\n        /* \"#utility.yul\":6325:6327   */\n      0x40\n        /* \"#utility.yul\":6351:6404   */\n      tag_175\n        /* \"#utility.yul\":6396:6403   */\n      dup7\n        /* \"#utility.yul\":6387:6393   */\n      dup3\n        /* \"#utility.yul\":6376:6385   */\n      dup8\n        /* \"#utility.yul\":6372:6394   */\n      add\n        /* \"#utility.yul\":6351:6404   */\n      tag_91\n      jump\t// in\n    tag_175:\n        /* \"#utility.yul\":6341:6404   */\n      swap2\n      pop\n        /* \"#utility.yul\":6296:6414   */\n      pop\n        /* \"#utility.yul\":5442:6421   */\n      swap3\n      pop\n      swap3\n      pop\n      swap3\n      jump\t// out\n        /* \"#utility.yul\":6427:6526   */\n    tag_92:\n        /* \"#utility.yul\":6479:6485   */\n      0x00\n        /* \"#utility.yul\":6513:6518   */\n      dup2\n        /* \"#utility.yul\":6507:6519   */\n      mload\n        /* \"#utility.yul\":6497:6519   */\n      swap1\n      pop\n        /* \"#utility.yul\":6427:6526   */\n      swap2\n      swap1\n      pop\n      jump\t// out\n        /* \"#utility.yul\":6532:6680   */\n    tag_93:\n        /* \"#utility.yul\":6634:6645   */\n      0x00\n        /* \"#utility.yul\":6671:6674   */\n      dup2\n        /* \"#utility.yul\":6656:6674   */\n      swap1\n      pop\n        /* \"#utility.yul\":6532:6680   */\n      swap3\n      swap2\n      pop\n      pop\n      jump\t// out\n        /* \"#utility.yul\":6686:6825   */\n    tag_94:\n        /* \"#utility.yul\":6775:6781   */\n      dup3\n        /* \"#utility.yul\":6770:6773   */\n      dup2\n        /* \"#utility.yul\":6765:6768   */\n      dup4\n        /* \"#utility.yul\":6759:6782   */\n      mcopy\n        /* \"#utility.yul\":6816:6817   */\n      0x00\n        /* \"#utility.yul\":6807:6813   */\n      dup4\n        /* \"#utility.yul\":6802:6805   */\n      dup4\n        /* \"#utility.yul\":6798:6814   */\n      add\n        /* \"#utility.yul\":6791:6818   */\n      mstore\n        /* \"#utility.yul\":6686:6825   */\n      pop\n      pop\n      pop\n      jump\t// out\n        /* \"#utility.yul\":6831:7221   */\n    tag_95:\n        /* \"#utility.yul\":6937:6940   */\n      0x00\n        /* \"#utility.yul\":6965:7004   */\n      tag_180\n        /* \"#utility.yul\":6998:7003   */\n      dup3\n        /* \"#utility.yul\":6965:7004   */\n      tag_92\n      jump\t// in\n    tag_180:\n        /* \"#utility.yul\":7020:7109   */\n      tag_181\n        /* \"#utility.yul\":7102:7108   */\n      dup2\n        /* \"#utility.yul\":7097:7100   */\n      dup6\n        /* \"#utility.yul\":7020:7109   */\n      tag_93\n      jump\t// in\n    tag_181:\n        /* \"#utility.yul\":7013:7109   */\n      swap4\n      pop\n        /* \"#utility.yul\":7118:7183   */\n      tag_182\n        /* \"#utility.yul\":7176:7182   */\n      dup2\n        /* \"#utility.yul\":7171:7174   */\n      dup6\n        /* \"#utility.yul\":7164:7168   */\n      0x20\n        /* \"#utility.yul\":7157:7162   */\n      dup7\n        /* \"#utility.yul\":7153:7169   */\n      add\n        /* \"#utility.yul\":7118:7183   */\n      tag_94\n      jump\t// in\n    tag_182:\n        /* \"#utility.yul\":7208:7214   */\n      dup1\n        /* \"#utility.yul\":7203:7206   */\n      dup5\n        /* \"#utility.yul\":7199:7215   */\n      add\n        /* \"#utility.yul\":7192:7215   */\n      swap2\n      pop\n        /* \"#utility.yul\":6941:7221   */\n      pop\n        /* \"#utility.yul\":6831:7221   */\n      swap3\n      swap2\n      pop\n      pop\n      jump\t// out\n        /* \"#utility.yul\":7227:7502   */\n    tag_36:\n        /* \"#utility.yul\":7359:7362   */\n      0x00\n        /* \"#utility.yul\":7381:7476   */\n      tag_184\n        /* \"#utility.yul\":7472:7475   */\n      dup3\n        /* \"#utility.yul\":7463:7469   */\n      dup5\n        /* \"#utility.yul\":7381:7476   */\n      tag_95\n      jump\t// in\n    tag_184:\n        /* \"#utility.yul\":7374:7476   */\n      swap2\n      pop\n        /* \"#utility.yul\":7493:7496   */\n      dup2\n        /* \"#utility.yul\":7486:7496   */\n      swap1\n      pop\n        /* \"#utility.yul\":7227:7502   */\n      swap3\n      swap2\n      pop\n      pop\n      jump\t// out\n        /* \"#utility.yul\":7508:7651   */\n    tag_96:\n        /* \"#utility.yul\":7565:7570   */\n      0x00\n        /* \"#utility.yul\":7596:7602   */\n      dup2\n        /* \"#utility.yul\":7590:7603   */\n      mload\n        /* \"#utility.yul\":7581:7603   */\n      swap1\n      pop\n        /* \"#utility.yul\":7612:7645   */\n      tag_186\n        /* \"#utility.yul\":7639:7644   */\n      dup2\n        /* \"#utility.yul\":7612:7645   */\n      tag_90\n      jump\t// in\n    tag_186:\n        /* \"#utility.yul\":7508:7651   */\n      swap3\n      swap2\n      pop\n      pop\n      jump\t// out\n        /* \"#utility.yul\":7657:8008   */\n    tag_41:\n        /* \"#utility.yul\":7727:7733   */\n      0x00\n        /* \"#utility.yul\":7776:7778   */\n      0x20\n        /* \"#utility.yul\":7764:7773   */\n      dup3\n        /* \"#utility.yul\":7755:7762   */\n      dup5\n        /* \"#utility.yul\":7751:7774   */\n      sub\n        /* \"#utility.yul\":7747:7779   */\n      slt\n        /* \"#utility.yul\":7744:7863   */\n      iszero\n      tag_188\n      jumpi\n        /* \"#utility.yul\":7782:7861   */\n      tag_189\n      tag_71\n      jump\t// in\n    tag_189:\n        /* \"#utility.yul\":7744:7863   */\n    tag_188:\n        /* \"#utility.yul\":7902:7903   */\n      0x00\n        /* \"#utility.yul\":7927:7991   */\n      tag_190\n        /* \"#utility.yul\":7983:7990   */\n      dup5\n        /* \"#utility.yul\":7974:7980   */\n      dup3\n        /* \"#utility.yul\":7963:7972   */\n      dup6\n        /* \"#utility.yul\":7959:7981   */\n      add\n        /* \"#utility.yul\":7927:7991   */\n      tag_96\n      jump\t// in\n    tag_190:\n        /* \"#utility.yul\":7917:7991   */\n      swap2\n      pop\n        /* \"#utility.yul\":7873:8001   */\n      pop\n        /* \"#utility.yul\":7657:8008   */\n      swap3\n      swap2\n      pop\n      pop\n      jump\t// out\n        /* \"#utility.yul\":8014:8194   */\n    tag_97:\n        /* \"#utility.yul\":8062:8139   */\n      0x4e487b7100000000000000000000000000000000000000000000000000000000\n        /* \"#utility.yul\":8059:8060   */\n      0x00\n        /* \"#utility.yul\":8052:8140   */\n      mstore\n        /* \"#utility.yul\":8159:8163   */\n      0x11\n        /* \"#utility.yul\":8156:8157   */\n      0x04\n        /* \"#utility.yul\":8149:8164   */\n      mstore\n        /* \"#utility.yul\":8183:8187   */\n      0x24\n        /* \"#utility.yul\":8180:8181   */\n      0x00\n        /* \"#utility.yul\":8173:8188   */\n      revert\n        /* \"#utility.yul\":8200:8610   */\n    tag_48:\n        /* \"#utility.yul\":8240:8247   */\n      0x00\n        /* \"#utility.yul\":8263:8283   */\n      tag_193\n        /* \"#utility.yul\":8281:8282   */\n      dup3\n        /* \"#utility.yul\":8263:8283   */\n      tag_83\n      jump\t// in\n    tag_193:\n        /* \"#utility.yul\":8258:8283   */\n      swap2\n      pop\n        /* \"#utility.yul\":8297:8317   */\n      tag_194\n        /* \"#utility.yul\":8315:8316   */\n      dup4\n        /* \"#utility.yul\":8297:8317   */\n      tag_83\n      jump\t// in\n    tag_194:\n        /* \"#utility.yul\":8292:8317   */\n      swap3\n      pop\n        /* \"#utility.yul\":8352:8353   */\n      dup3\n        /* \"#utility.yul\":8349:8350   */\n      dup3\n        /* \"#utility.yul\":8345:8354   */\n      mul\n        /* \"#utility.yul\":8374:8404   */\n      tag_195\n        /* \"#utility.yul\":8392:8403   */\n      dup2\n        /* \"#utility.yul\":8374:8404   */\n      tag_83\n      jump\t// in\n    tag_195:\n        /* \"#utility.yul\":8363:8404   */\n      swap2\n      pop\n        /* \"#utility.yul\":8553:8554   */\n      dup3\n        /* \"#utility.yul\":8544:8551   */\n      dup3\n        /* \"#utility.yul\":8540:8555   */\n      div\n        /* \"#utility.yul\":8537:8538   */\n      dup5\n        /* \"#utility.yul\":8534:8556   */\n      eq\n        /* \"#utility.yul\":8514:8515   */\n      dup4\n        /* \"#utility.yul\":8507:8516   */\n      iszero\n        /* \"#utility.yul\":8487:8570   */\n      or\n        /* \"#utility.yul\":8464:8603   */\n      tag_196\n      jumpi\n        /* \"#utility.yul\":8583:8601   */\n      tag_197\n      tag_97\n      jump\t// in\n    tag_197:\n        /* \"#utility.yul\":8464:8603   */\n    tag_196:\n        /* \"#utility.yul\":8248:8610   */\n      pop\n        /* \"#utility.yul\":8200:8610   */\n      swap3\n      swap2\n      pop\n      pop\n      jump\t// out\n        /* \"#utility.yul\":8616:8948   */\n    tag_50:\n        /* \"#utility.yul\":8737:8741   */\n      0x00\n        /* \"#utility.yul\":8775:8777   */\n      0x40\n        /* \"#utility.yul\":8764:8773   */\n      dup3\n        /* \"#utility.yul\":8760:8778   */\n      add\n        /* \"#utility.yul\":8752:8778   */\n      swap1\n      pop\n        /* \"#utility.yul\":8788:8859   */\n      tag_199\n        /* \"#utility.yul\":8856:8857   */\n      0x00\n        /* \"#utility.yul\":8845:8854   */\n      dup4\n        /* \"#utility.yul\":8841:8858   */\n      add\n        /* \"#utility.yul\":8832:8838   */\n      dup6\n        /* \"#utility.yul\":8788:8859   */\n      tag_87\n      jump\t// in\n    tag_199:\n        /* \"#utility.yul\":8869:8941   */\n      tag_200\n        /* \"#utility.yul\":8937:8939   */\n      0x20\n        /* \"#utility.yul\":8926:8935   */\n      dup4\n        /* \"#utility.yul\":8922:8940   */\n      add\n        /* \"#utility.yul\":8913:8919   */\n      dup5\n        /* \"#utility.yul\":8869:8941   */\n      tag_84\n      jump\t// in\n    tag_200:\n        /* \"#utility.yul\":8616:8948   */\n      swap4\n      swap3\n      pop\n      pop\n      pop\n      jump\t// out\n        /* \"#utility.yul\":8954:9123   */\n    tag_98:\n        /* \"#utility.yul\":9038:9049   */\n      0x00\n        /* \"#utility.yul\":9072:9078   */\n      dup3\n        /* \"#utility.yul\":9067:9070   */\n      dup3\n        /* \"#utility.yul\":9060:9079   */\n      mstore\n        /* \"#utility.yul\":9112:9116   */\n      0x20\n        /* \"#utility.yul\":9107:9110   */\n      dup3\n        /* \"#utility.yul\":9103:9117   */\n      add\n        /* \"#utility.yul\":9088:9117   */\n      swap1\n      pop\n        /* \"#utility.yul\":8954:9123   */\n      swap3\n      swap2\n      pop\n      pop\n      jump\t// out\n        /* \"#utility.yul\":9129:9506   */\n    tag_99:\n        /* \"#utility.yul\":9217:9220   */\n      0x00\n        /* \"#utility.yul\":9245:9284   */\n      tag_203\n        /* \"#utility.yul\":9278:9283   */\n      dup3\n        /* \"#utility.yul\":9245:9284   */\n      tag_92\n      jump\t// in\n    tag_203:\n        /* \"#utility.yul\":9300:9371   */\n      tag_204\n        /* \"#utility.yul\":9364:9370   */\n      dup2\n        /* \"#utility.yul\":9359:9362   */\n      dup6\n        /* \"#utility.yul\":9300:9371   */\n      tag_98\n      jump\t// in\n    tag_204:\n        /* \"#utility.yul\":9293:9371   */\n      swap4\n      pop\n        /* \"#utility.yul\":9380:9445   */\n      tag_205\n        /* \"#utility.yul\":9438:9444   */\n      dup2\n        /* \"#utility.yul\":9433:9436   */\n      dup6\n        /* \"#utility.yul\":9426:9430   */\n      0x20\n        /* \"#utility.yul\":9419:9424   */\n      dup7\n        /* \"#utility.yul\":9415:9431   */\n      add\n        /* \"#utility.yul\":9380:9445   */\n      tag_94\n      jump\t// in\n    tag_205:\n        /* \"#utility.yul\":9470:9499   */\n      tag_206\n        /* \"#utility.yul\":9492:9498   */\n      dup2\n        /* \"#utility.yul\":9470:9499   */\n      tag_75\n      jump\t// in\n    tag_206:\n        /* \"#utility.yul\":9465:9468   */\n      dup5\n        /* \"#utility.yul\":9461:9500   */\n      add\n        /* \"#utility.yul\":9454:9500   */\n      swap2\n      pop\n        /* \"#utility.yul\":9221:9506   */\n      pop\n        /* \"#utility.yul\":9129:9506   */\n      swap3\n      swap2\n      pop\n      pop\n      jump\t// out\n        /* \"#utility.yul\":9512:10136   */\n    tag_67:\n        /* \"#utility.yul\":9701:9705   */\n      0x00\n        /* \"#utility.yul\":9739:9741   */\n      0x60\n        /* \"#utility.yul\":9728:9737   */\n      dup3\n        /* \"#utility.yul\":9724:9742   */\n      add\n        /* \"#utility.yul\":9716:9742   */\n      swap1\n      pop\n        /* \"#utility.yul\":9788:9797   */\n      dup2\n        /* \"#utility.yul\":9782:9786   */\n      dup2\n        /* \"#utility.yul\":9778:9798   */\n      sub\n        /* \"#utility.yul\":9774:9775   */\n      0x00\n        /* \"#utility.yul\":9763:9772   */\n      dup4\n        /* \"#utility.yul\":9759:9776   */\n      add\n        /* \"#utility.yul\":9752:9799   */\n      mstore\n        /* \"#utility.yul\":9816:9894   */\n      tag_208\n        /* \"#utility.yul\":9889:9893   */\n      dup2\n        /* \"#utility.yul\":9880:9886   */\n      dup7\n        /* \"#utility.yul\":9816:9894   */\n      tag_99\n      jump\t// in\n    tag_208:\n        /* \"#utility.yul\":9808:9894   */\n      swap1\n      pop\n        /* \"#utility.yul\":9941:9950   */\n      dup2\n        /* \"#utility.yul\":9935:9939   */\n      dup2\n        /* \"#utility.yul\":9931:9951   */\n      sub\n        /* \"#utility.yul\":9926:9928   */\n      0x20\n        /* \"#utility.yul\":9915:9924   */\n      dup4\n        /* \"#utility.yul\":9911:9929   */\n      add\n        /* \"#utility.yul\":9904:9952   */\n      mstore\n        /* \"#utility.yul\":9969:10047   */\n      tag_209\n        /* \"#utility.yul\":10042:10046   */\n      dup2\n        /* \"#utility.yul\":10033:10039   */\n      dup6\n        /* \"#utility.yul\":9969:10047   */\n      tag_99\n      jump\t// in\n    tag_209:\n        /* \"#utility.yul\":9961:10047   */\n      swap1\n      pop\n        /* \"#utility.yul\":10057:10129   */\n      tag_210\n        /* \"#utility.yul\":10125:10127   */\n      0x40\n        /* \"#utility.yul\":10114:10123   */\n      dup4\n        /* \"#utility.yul\":10110:10128   */\n      add\n        /* \"#utility.yul\":10101:10107   */\n      dup5\n        /* \"#utility.yul\":10057:10129   */\n      tag_84\n      jump\t// in\n    tag_210:\n        /* \"#utility.yul\":9512:10136   */\n      swap5\n      swap4\n      pop\n      pop\n      pop\n      pop\n      jump\t// out\n    stop\n\n    sub_0: assembly {\n            /* \"Assignments/Lecture 6/AssetFactory.sol\":158:901  contract Asset  {... */\n          mstore(0x40, 0x80)\n            /* \"Assignments/Lecture 6/AssetFactory.sol\":326:504  constructor(string memory name_, string memory ticker_, uint256 initialSupply_) {... */\n          callvalue\n          dup1\n          iszero\n          tag_1\n          jumpi\n          revert(0x00, 0x00)\n        tag_1:\n          pop\n          mload(0x40)\n          sub(codesize, bytecodeSize)\n          dup1\n          bytecodeSize\n          dup4\n          codecopy\n          dup2\n          dup2\n          add\n          0x40\n          mstore\n          dup2\n          add\n          swap1\n          tag_2\n          swap2\n          swap1\n          tag_3\n          jump\t// in\n        tag_2:\n            /* \"Assignments/Lecture 6/AssetFactory.sol\":423:428  name_ */\n          dup3\n            /* \"Assignments/Lecture 6/AssetFactory.sol\":416:420  name */\n          0x00\n            /* \"Assignments/Lecture 6/AssetFactory.sol\":416:428  name = name_ */\n          swap1\n          dup2\n          tag_6\n          swap2\n          swap1\n          tag_7\n          jump\t// in\n        tag_6:\n          pop\n            /* \"Assignments/Lecture 6/AssetFactory.sol\":447:454  ticker_ */\n          dup2\n            /* \"Assignments/Lecture 6/AssetFactory.sol\":438:444  ticker */\n          0x01\n            /* \"Assignments/Lecture 6/AssetFactory.sol\":438:454  ticker = ticker_ */\n          swap1\n          dup2\n          tag_8\n          swap2\n          swap1\n          tag_7\n          jump\t// in\n        tag_8:\n          pop\n            /* \"Assignments/Lecture 6/AssetFactory.sol\":490:497  1 ether */\n          0x0de0b6b3a7640000\n            /* \"Assignments/Lecture 6/AssetFactory.sol\":473:487  initialSupply_ */\n          dup2\n            /* \"Assignments/Lecture 6/AssetFactory.sol\":473:497  initialSupply_ * 1 ether */\n          tag_9\n          swap2\n          swap1\n          tag_10\n          jump\t// in\n        tag_9:\n            /* \"Assignments/Lecture 6/AssetFactory.sol\":464:470  supply */\n          0x02\n            /* \"Assignments/Lecture 6/AssetFactory.sol\":464:497  supply = initialSupply_ * 1 ether */\n          dup2\n          swap1\n          sstore\n          pop\n            /* \"Assignments/Lecture 6/AssetFactory.sol\":326:504  constructor(string memory name_, string memory ticker_, uint256 initialSupply_) {... */\n          pop\n          pop\n          pop\n            /* \"Assignments/Lecture 6/AssetFactory.sol\":158:901  contract Asset  {... */\n          jump(tag_11)\n            /* \"#utility.yul\":7:82   */\n        tag_12:\n            /* \"#utility.yul\":40:46   */\n          0x00\n            /* \"#utility.yul\":73:75   */\n          0x40\n            /* \"#utility.yul\":67:76   */\n          mload\n            /* \"#utility.yul\":57:76   */\n          swap1\n          pop\n            /* \"#utility.yul\":7:82   */\n          swap1\n          jump\t// out\n            /* \"#utility.yul\":88:205   */\n        tag_13:\n            /* \"#utility.yul\":197:198   */\n          0x00\n            /* \"#utility.yul\":194:195   */\n          0x00\n            /* \"#utility.yul\":187:199   */\n          revert\n            /* \"#utility.yul\":211:328   */\n        tag_14:\n            /* \"#utility.yul\":320:321   */\n          0x00\n            /* \"#utility.yul\":317:318   */\n          0x00\n            /* \"#utility.yul\":310:322   */\n          revert\n            /* \"#utility.yul\":334:451   */\n        tag_15:\n            /* \"#utility.yul\":443:444   */\n          0x00\n            /* \"#utility.yul\":440:441   */\n          0x00\n            /* \"#utility.yul\":433:445   */\n          revert\n            /* \"#utility.yul\":457:574   */\n        tag_16:\n            /* \"#utility.yul\":566:567   */\n          0x00\n            /* \"#utility.yul\":563:564   */\n          0x00\n            /* \"#utility.yul\":556:568   */\n          revert\n            /* \"#utility.yul\":580:682   */\n        tag_17:\n            /* \"#utility.yul\":621:627   */\n          0x00\n            /* \"#utility.yul\":672:674   */\n          0x1f\n            /* \"#utility.yul\":668:675   */\n          not\n            /* \"#utility.yul\":663:665   */\n          0x1f\n            /* \"#utility.yul\":656:661   */\n          dup4\n            /* \"#utility.yul\":652:666   */\n          add\n            /* \"#utility.yul\":648:676   */\n          and\n            /* \"#utility.yul\":638:676   */\n          swap1\n          pop\n            /* \"#utility.yul\":580:682   */\n          swap2\n          swap1\n          pop\n          jump\t// out\n            /* \"#utility.yul\":688:868   */\n        tag_18:\n            /* \"#utility.yul\":736:813   */\n          0x4e487b7100000000000000000000000000000000000000000000000000000000\n            /* \"#utility.yul\":733:734   */\n          0x00\n            /* \"#utility.yul\":726:814   */\n          mstore\n            /* \"#utility.yul\":833:837   */\n          0x41\n            /* \"#utility.yul\":830:831   */\n          0x04\n            /* \"#utility.yul\":823:838   */\n          mstore\n            /* \"#utility.yul\":857:861   */\n          0x24\n            /* \"#utility.yul\":854:855   */\n          0x00\n            /* \"#utility.yul\":847:862   */\n          revert\n            /* \"#utility.yul\":874:1155   */\n        tag_19:\n            /* \"#utility.yul\":957:984   */\n          tag_56\n            /* \"#utility.yul\":979:983   */\n          dup3\n            /* \"#utility.yul\":957:984   */\n          tag_17\n          jump\t// in\n        tag_56:\n            /* \"#utility.yul\":949:955   */\n          dup2\n            /* \"#utility.yul\":945:985   */\n          add\n            /* \"#utility.yul\":1087:1093   */\n          dup2\n            /* \"#utility.yul\":1075:1085   */\n          dup2\n            /* \"#utility.yul\":1072:1094   */\n          lt\n            /* \"#utility.yul\":1051:1069   */\n          0xffffffffffffffff\n            /* \"#utility.yul\":1039:1049   */\n          dup3\n            /* \"#utility.yul\":1036:1070   */\n          gt\n            /* \"#utility.yul\":1033:1095   */\n          or\n            /* \"#utility.yul\":1030:1118   */\n          iszero\n          tag_57\n          jumpi\n            /* \"#utility.yul\":1098:1116   */\n          tag_58\n          tag_18\n          jump\t// in\n        tag_58:\n            /* \"#utility.yul\":1030:1118   */\n        tag_57:\n            /* \"#utility.yul\":1138:1148   */\n          dup1\n            /* \"#utility.yul\":1134:1136   */\n          0x40\n            /* \"#utility.yul\":1127:1149   */\n          mstore\n            /* \"#utility.yul\":917:1155   */\n          pop\n            /* \"#utility.yul\":874:1155   */\n          pop\n          pop\n          jump\t// out\n            /* \"#utility.yul\":1161:1290   */\n        tag_20:\n            /* \"#utility.yul\":1195:1201   */\n          0x00\n            /* \"#utility.yul\":1222:1242   */\n          tag_60\n          tag_12\n          jump\t// in\n        tag_60:\n            /* \"#utility.yul\":1212:1242   */\n          swap1\n          pop\n            /* \"#utility.yul\":1251:1284   */\n          tag_61\n            /* \"#utility.yul\":1279:1283   */\n          dup3\n            /* \"#utility.yul\":1271:1277   */\n          dup3\n            /* \"#utility.yul\":1251:1284   */\n          tag_19\n          jump\t// in\n        tag_61:\n            /* \"#utility.yul\":1161:1290   */\n          swap2\n          swap1\n          pop\n          jump\t// out\n            /* \"#utility.yul\":1296:1604   */\n        tag_21:\n            /* \"#utility.yul\":1358:1362   */\n          0x00\n            /* \"#utility.yul\":1448:1466   */\n          0xffffffffffffffff\n            /* \"#utility.yul\":1440:1446   */\n          dup3\n            /* \"#utility.yul\":1437:1467   */\n          gt\n            /* \"#utility.yul\":1434:1490   */\n          iszero\n          tag_63\n          jumpi\n            /* \"#utility.yul\":1470:1488   */\n          tag_64\n          tag_18\n          jump\t// in\n        tag_64:\n            /* \"#utility.yul\":1434:1490   */\n        tag_63:\n            /* \"#utility.yul\":1508:1537   */\n          tag_65\n            /* \"#utility.yul\":1530:1536   */\n          dup3\n            /* \"#utility.yul\":1508:1537   */\n          tag_17\n          jump\t// in\n        tag_65:\n            /* \"#utility.yul\":1500:1537   */\n          swap1\n          pop\n            /* \"#utility.yul\":1592:1596   */\n          0x20\n            /* \"#utility.yul\":1586:1590   */\n          dup2\n            /* \"#utility.yul\":1582:1597   */\n          add\n            /* \"#utility.yul\":1574:1597   */\n          swap1\n          pop\n            /* \"#utility.yul\":1296:1604   */\n          swap2\n          swap1\n          pop\n          jump\t// out\n            /* \"#utility.yul\":1610:1749   */\n        tag_22:\n            /* \"#utility.yul\":1699:1705   */\n          dup3\n            /* \"#utility.yul\":1694:1697   */\n          dup2\n            /* \"#utility.yul\":1689:1692   */\n          dup4\n            /* \"#utility.yul\":1683:1706   */\n          mcopy\n            /* \"#utility.yul\":1740:1741   */\n          0x00\n            /* \"#utility.yul\":1731:1737   */\n          dup4\n            /* \"#utility.yul\":1726:1729   */\n          dup4\n            /* \"#utility.yul\":1722:1738   */\n          add\n            /* \"#utility.yul\":1715:1742   */\n          mstore\n            /* \"#utility.yul\":1610:1749   */\n          pop\n          pop\n          pop\n          jump\t// out\n            /* \"#utility.yul\":1755:2189   */\n        tag_23:\n            /* \"#utility.yul\":1844:1849   */\n          0x00\n            /* \"#utility.yul\":1869:1935   */\n          tag_68\n            /* \"#utility.yul\":1885:1934   */\n          tag_69\n            /* \"#utility.yul\":1927:1933   */\n          dup5\n            /* \"#utility.yul\":1885:1934   */\n          tag_21\n          jump\t// in\n        tag_69:\n            /* \"#utility.yul\":1869:1935   */\n          tag_20\n          jump\t// in\n        tag_68:\n            /* \"#utility.yul\":1860:1935   */\n          swap1\n          pop\n            /* \"#utility.yul\":1958:1964   */\n          dup3\n            /* \"#utility.yul\":1951:1956   */\n          dup2\n            /* \"#utility.yul\":1944:1965   */\n          mstore\n            /* \"#utility.yul\":1996:2000   */\n          0x20\n            /* \"#utility.yul\":1989:1994   */\n          dup2\n            /* \"#utility.yul\":1985:2001   */\n          add\n            /* \"#utility.yul\":2034:2037   */\n          dup5\n            /* \"#utility.yul\":2025:2031   */\n          dup5\n            /* \"#utility.yul\":2020:2023   */\n          dup5\n            /* \"#utility.yul\":2016:2032   */\n          add\n            /* \"#utility.yul\":2013:2038   */\n          gt\n            /* \"#utility.yul\":2010:2122   */\n          iszero\n          tag_70\n          jumpi\n            /* \"#utility.yul\":2041:2120   */\n          tag_71\n          tag_16\n          jump\t// in\n        tag_71:\n            /* \"#utility.yul\":2010:2122   */\n        tag_70:\n            /* \"#utility.yul\":2131:2183   */\n          tag_72\n            /* \"#utility.yul\":2176:2182   */\n          dup5\n            /* \"#utility.yul\":2171:2174   */\n          dup3\n            /* \"#utility.yul\":2166:2169   */\n          dup6\n            /* \"#utility.yul\":2131:2183   */\n          tag_22\n          jump\t// in\n        tag_72:\n            /* \"#utility.yul\":1850:2189   */\n          pop\n            /* \"#utility.yul\":1755:2189   */\n          swap4\n          swap3\n          pop\n          pop\n          pop\n          jump\t// out\n            /* \"#utility.yul\":2209:2564   */\n        tag_24:\n            /* \"#utility.yul\":2276:2281   */\n          0x00\n            /* \"#utility.yul\":2325:2328   */\n          dup3\n            /* \"#utility.yul\":2318:2322   */\n          0x1f\n            /* \"#utility.yul\":2310:2316   */\n          dup4\n            /* \"#utility.yul\":2306:2323   */\n          add\n            /* \"#utility.yul\":2302:2329   */\n          slt\n            /* \"#utility.yul\":2292:2414   */\n          tag_74\n          jumpi\n            /* \"#utility.yul\":2333:2412   */\n          tag_75\n          tag_15\n          jump\t// in\n        tag_75:\n            /* \"#utility.yul\":2292:2414   */\n        tag_74:\n            /* \"#utility.yul\":2443:2449   */\n          dup2\n            /* \"#utility.yul\":2437:2450   */\n          mload\n            /* \"#utility.yul\":2468:2558   */\n          tag_76\n            /* \"#utility.yul\":2554:2557   */\n          dup5\n            /* \"#utility.yul\":2546:2552   */\n          dup3\n            /* \"#utility.yul\":2539:2543   */\n          0x20\n            /* \"#utility.yul\":2531:2537   */\n          dup7\n            /* \"#utility.yul\":2527:2544   */\n          add\n            /* \"#utility.yul\":2468:2558   */\n          tag_23\n          jump\t// in\n        tag_76:\n            /* \"#utility.yul\":2459:2558   */\n          swap2\n          pop\n            /* \"#utility.yul\":2282:2564   */\n          pop\n            /* \"#utility.yul\":2209:2564   */\n          swap3\n          swap2\n          pop\n          pop\n          jump\t// out\n            /* \"#utility.yul\":2570:2647   */\n        tag_25:\n            /* \"#utility.yul\":2607:2614   */\n          0x00\n            /* \"#utility.yul\":2636:2641   */\n          dup2\n            /* \"#utility.yul\":2625:2641   */\n          swap1\n          pop\n            /* \"#utility.yul\":2570:2647   */\n          swap2\n          swap1\n          pop\n          jump\t// out\n            /* \"#utility.yul\":2653:2775   */\n        tag_26:\n            /* \"#utility.yul\":2726:2750   */\n          tag_79\n            /* \"#utility.yul\":2744:2749   */\n          dup2\n            /* \"#utility.yul\":2726:2750   */\n          tag_25\n          jump\t// in\n        tag_79:\n            /* \"#utility.yul\":2719:2724   */\n          dup2\n            /* \"#utility.yul\":2716:2751   */\n          eq\n            /* \"#utility.yul\":2706:2769   */\n          tag_80\n          jumpi\n            /* \"#utility.yul\":2765:2766   */\n          0x00\n            /* \"#utility.yul\":2762:2763   */\n          0x00\n            /* \"#utility.yul\":2755:2767   */\n          revert\n            /* \"#utility.yul\":2706:2769   */\n        tag_80:\n            /* \"#utility.yul\":2653:2775   */\n          pop\n          jump\t// out\n            /* \"#utility.yul\":2781:2924   */\n        tag_27:\n            /* \"#utility.yul\":2838:2843   */\n          0x00\n            /* \"#utility.yul\":2869:2875   */\n          dup2\n            /* \"#utility.yul\":2863:2876   */\n          mload\n            /* \"#utility.yul\":2854:2876   */\n          swap1\n          pop\n            /* \"#utility.yul\":2885:2918   */\n          tag_82\n            /* \"#utility.yul\":2912:2917   */\n          dup2\n            /* \"#utility.yul\":2885:2918   */\n          tag_26\n          jump\t// in\n        tag_82:\n            /* \"#utility.yul\":2781:2924   */\n          swap3\n          swap2\n          pop\n          pop\n          jump\t// out\n            /* \"#utility.yul\":2930:3939   */\n        tag_3:\n            /* \"#utility.yul\":3038:3044   */\n          0x00\n            /* \"#utility.yul\":3046:3052   */\n          0x00\n            /* \"#utility.yul\":3054:3060   */\n          0x00\n            /* \"#utility.yul\":3103:3105   */\n          0x60\n            /* \"#utility.yul\":3091:3100   */\n          dup5\n            /* \"#utility.yul\":3082:3089   */\n          dup7\n            /* \"#utility.yul\":3078:3101   */\n          sub\n            /* \"#utility.yul\":3074:3106   */\n          slt\n            /* \"#utility.yul\":3071:3190   */\n          iszero\n          tag_84\n          jumpi\n            /* \"#utility.yul\":3109:3188   */\n          tag_85\n          tag_13\n          jump\t// in\n        tag_85:\n            /* \"#utility.yul\":3071:3190   */\n        tag_84:\n            /* \"#utility.yul\":3250:3251   */\n          0x00\n            /* \"#utility.yul\":3239:3248   */\n          dup5\n            /* \"#utility.yul\":3235:3252   */\n          add\n            /* \"#utility.yul\":3229:3253   */\n          mload\n            /* \"#utility.yul\":3280:3298   */\n          0xffffffffffffffff\n            /* \"#utility.yul\":3272:3278   */\n          dup2\n            /* \"#utility.yul\":3269:3299   */\n          gt\n            /* \"#utility.yul\":3266:3383   */\n          iszero\n          tag_86\n          jumpi\n            /* \"#utility.yul\":3302:3381   */\n          tag_87\n          tag_14\n          jump\t// in\n        tag_87:\n            /* \"#utility.yul\":3266:3383   */\n        tag_86:\n            /* \"#utility.yul\":3407:3481   */\n          tag_88\n            /* \"#utility.yul\":3473:3480   */\n          dup7\n            /* \"#utility.yul\":3464:3470   */\n          dup3\n            /* \"#utility.yul\":3453:3462   */\n          dup8\n            /* \"#utility.yul\":3449:3471   */\n          add\n            /* \"#utility.yul\":3407:3481   */\n          tag_24\n          jump\t// in\n        tag_88:\n            /* \"#utility.yul\":3397:3481   */\n          swap4\n          pop\n            /* \"#utility.yul\":3200:3491   */\n          pop\n            /* \"#utility.yul\":3551:3553   */\n          0x20\n            /* \"#utility.yul\":3540:3549   */\n          dup5\n            /* \"#utility.yul\":3536:3554   */\n          add\n            /* \"#utility.yul\":3530:3555   */\n          mload\n            /* \"#utility.yul\":3582:3600   */\n          0xffffffffffffffff\n            /* \"#utility.yul\":3574:3580   */\n          dup2\n            /* \"#utility.yul\":3571:3601   */\n          gt\n            /* \"#utility.yul\":3568:3685   */\n          iszero\n          tag_89\n          jumpi\n            /* \"#utility.yul\":3604:3683   */\n          tag_90\n          tag_14\n          jump\t// in\n        tag_90:\n            /* \"#utility.yul\":3568:3685   */\n        tag_89:\n            /* \"#utility.yul\":3709:3783   */\n          tag_91\n            /* \"#utility.yul\":3775:3782   */\n          dup7\n            /* \"#utility.yul\":3766:3772   */\n          dup3\n            /* \"#utility.yul\":3755:3764   */\n          dup8\n            /* \"#utility.yul\":3751:3773   */\n          add\n            /* \"#utility.yul\":3709:3783   */\n          tag_24\n          jump\t// in\n        tag_91:\n            /* \"#utility.yul\":3699:3783   */\n          swap3\n          pop\n            /* \"#utility.yul\":3501:3793   */\n          pop\n            /* \"#utility.yul\":3832:3834   */\n          0x40\n            /* \"#utility.yul\":3858:3922   */\n          tag_92\n            /* \"#utility.yul\":3914:3921   */\n          dup7\n            /* \"#utility.yul\":3905:3911   */\n          dup3\n            /* \"#utility.yul\":3894:3903   */\n          dup8\n            /* \"#utility.yul\":3890:3912   */\n          add\n            /* \"#utility.yul\":3858:3922   */\n          tag_27\n          jump\t// in\n        tag_92:\n            /* \"#utility.yul\":3848:3922   */\n          swap2\n          pop\n            /* \"#utility.yul\":3803:3932   */\n          pop\n            /* \"#utility.yul\":2930:3939   */\n          swap3\n          pop\n          swap3\n          pop\n          swap3\n          jump\t// out\n            /* \"#utility.yul\":3945:4044   */\n        tag_28:\n            /* \"#utility.yul\":3997:4003   */\n          0x00\n            /* \"#utility.yul\":4031:4036   */\n          dup2\n            /* \"#utility.yul\":4025:4037   */\n          mload\n            /* \"#utility.yul\":4015:4037   */\n          swap1\n          pop\n            /* \"#utility.yul\":3945:4044   */\n          swap2\n          swap1\n          pop\n          jump\t// out\n            /* \"#utility.yul\":4050:4230   */\n        tag_29:\n            /* \"#utility.yul\":4098:4175   */\n          0x4e487b7100000000000000000000000000000000000000000000000000000000\n            /* \"#utility.yul\":4095:4096   */\n          0x00\n            /* \"#utility.yul\":4088:4176   */\n          mstore\n            /* \"#utility.yul\":4195:4199   */\n          0x22\n            /* \"#utility.yul\":4192:4193   */\n          0x04\n            /* \"#utility.yul\":4185:4200   */\n          mstore\n            /* \"#utility.yul\":4219:4223   */\n          0x24\n            /* \"#utility.yul\":4216:4217   */\n          0x00\n            /* \"#utility.yul\":4209:4224   */\n          revert\n            /* \"#utility.yul\":4236:4556   */\n        tag_30:\n            /* \"#utility.yul\":4280:4286   */\n          0x00\n            /* \"#utility.yul\":4317:4318   */\n          0x02\n            /* \"#utility.yul\":4311:4315   */\n          dup3\n            /* \"#utility.yul\":4307:4319   */\n          div\n            /* \"#utility.yul\":4297:4319   */\n          swap1\n          pop\n            /* \"#utility.yul\":4364:4365   */\n          0x01\n            /* \"#utility.yul\":4358:4362   */\n          dup3\n            /* \"#utility.yul\":4354:4366   */\n          and\n            /* \"#utility.yul\":4385:4403   */\n          dup1\n            /* \"#utility.yul\":4375:4456   */\n          tag_96\n          jumpi\n            /* \"#utility.yul\":4441:4445   */\n          0x7f\n            /* \"#utility.yul\":4433:4439   */\n          dup3\n            /* \"#utility.yul\":4429:4446   */\n          and\n            /* \"#utility.yul\":4419:4446   */\n          swap2\n          pop\n            /* \"#utility.yul\":4375:4456   */\n        tag_96:\n            /* \"#utility.yul\":4503:4505   */\n          0x20\n            /* \"#utility.yul\":4495:4501   */\n          dup3\n            /* \"#utility.yul\":4492:4506   */\n          lt\n            /* \"#utility.yul\":4472:4490   */\n          dup2\n            /* \"#utility.yul\":4469:4507   */\n          sub\n            /* \"#utility.yul\":4466:4550   */\n          tag_97\n          jumpi\n            /* \"#utility.yul\":4522:4540   */\n          tag_98\n          tag_29\n          jump\t// in\n        tag_98:\n            /* \"#utility.yul\":4466:4550   */\n        tag_97:\n            /* \"#utility.yul\":4287:4556   */\n          pop\n            /* \"#utility.yul\":4236:4556   */\n          swap2\n          swap1\n          pop\n          jump\t// out\n            /* \"#utility.yul\":4562:4703   */\n        tag_31:\n            /* \"#utility.yul\":4611:4615   */\n          0x00\n            /* \"#utility.yul\":4634:4637   */\n          dup2\n            /* \"#utility.yul\":4626:4637   */\n          swap1\n          pop\n            /* \"#utility.yul\":4657:4660   */\n          dup2\n            /* \"#utility.yul\":4654:4655   */\n          0x00\n            /* \"#utility.yul\":4647:4661   */\n          mstore\n            /* \"#utility.yul\":4691:4695   */\n          0x20\n            /* \"#utility.yul\":4688:4689   */\n          0x00\n            /* \"#utility.yul\":4678:4696   */\n          keccak256\n            /* \"#utility.yul\":4670:4696   */\n          swap1\n          pop\n            /* \"#utility.yul\":4562:4703   */\n          swap2\n          swap1\n          pop\n          jump\t// out\n            /* \"#utility.yul\":4709:4802   */\n        tag_32:\n            /* \"#utility.yul\":4746:4752   */\n          0x00\n            /* \"#utility.yul\":4793:4795   */\n          0x20\n            /* \"#utility.yul\":4788:4790   */\n          0x1f\n            /* \"#utility.yul\":4781:4786   */\n          dup4\n            /* \"#utility.yul\":4777:4791   */\n          add\n            /* \"#utility.yul\":4773:4796   */\n          div\n            /* \"#utility.yul\":4763:4796   */\n          swap1\n          pop\n            /* \"#utility.yul\":4709:4802   */\n          swap2\n          swap1\n          pop\n          jump\t// out\n            /* \"#utility.yul\":4808:4915   */\n        tag_33:\n            /* \"#utility.yul\":4852:4860   */\n          0x00\n            /* \"#utility.yul\":4902:4907   */\n          dup3\n            /* \"#utility.yul\":4896:4900   */\n          dup3\n            /* \"#utility.yul\":4892:4908   */\n          shl\n            /* \"#utility.yul\":4871:4908   */\n          swap1\n          pop\n            /* \"#utility.yul\":4808:4915   */\n          swap3\n          swap2\n          pop\n          pop\n          jump\t// out\n            /* \"#utility.yul\":4921:5314   */\n        tag_34:\n            /* \"#utility.yul\":4990:4996   */\n          0x00\n            /* \"#utility.yul\":5040:5041   */\n          0x08\n            /* \"#utility.yul\":5028:5038   */\n          dup4\n            /* \"#utility.yul\":5024:5042   */\n          mul\n            /* \"#utility.yul\":5063:5160   */\n          tag_103\n            /* \"#utility.yul\":5093:5159   */\n          0xffffffffffffffffffffffffffffffffffffffffffffffffffffffffffffffff\n            /* \"#utility.yul\":5082:5091   */\n          dup3\n            /* \"#utility.yul\":5063:5160   */\n          tag_33\n          jump\t// in\n        tag_103:\n            /* \"#utility.yul\":5181:5220   */\n          tag_104\n            /* \"#utility.yul\":5211:5219   */\n          dup7\n            /* \"#utility.yul\":5200:5209   */\n          dup4\n            /* \"#utility.yul\":5181:5220   */\n          tag_33\n          jump\t// in\n        tag_104:\n            /* \"#utility.yul\":5169:5220   */\n          swap6\n          pop\n            /* \"#utility.yul\":5253:5257   */\n          dup1\n            /* \"#utility.yul\":5249:5258   */\n          not\n            /* \"#utility.yul\":5242:5247   */\n          dup5\n            /* \"#utility.yul\":5238:5259   */\n          and\n            /* \"#utility.yul\":5229:5259   */\n          swap4\n          pop\n            /* \"#utility.yul\":5302:5306   */\n          dup1\n            /* \"#utility.yul\":5292:5300   */\n          dup7\n            /* \"#utility.yul\":5288:5307   */\n          and\n            /* \"#utility.yul\":5281:5286   */\n          dup5\n            /* \"#utility.yul\":5278:5308   */\n          or\n            /* \"#utility.yul\":5268:5308   */\n          swap3\n          pop\n            /* \"#utility.yul\":4997:5314   */\n          pop\n          pop\n            /* \"#utility.yul\":4921:5314   */\n          swap4\n          swap3\n          pop\n          pop\n          pop\n          jump\t// out\n            /* \"#utility.yul\":5320:5380   */\n        tag_35:\n            /* \"#utility.yul\":5348:5351   */\n          0x00\n            /* \"#utility.yul\":5369:5374   */\n          dup2\n            /* \"#utility.yul\":5362:5374   */\n          swap1\n          pop\n            /* \"#utility.yul\":5320:5380   */\n          swap2\n          swap1\n          pop\n          jump\t// out\n            /* \"#utility.yul\":5386:5528   */\n        tag_36:\n            /* \"#utility.yul\":5436:5445   */\n          0x00\n            /* \"#utility.yul\":5469:5522   */\n          tag_107\n            /* \"#utility.yul\":5487:5521   */\n          tag_108\n            /* \"#utility.yul\":5496:5520   */\n          tag_109\n            /* \"#utility.yul\":5514:5519   */\n          dup5\n            /* \"#utility.yul\":5496:5520   */\n          tag_25\n          jump\t// in\n        tag_109:\n            /* \"#utility.yul\":5487:5521   */\n          tag_35\n          jump\t// in\n        tag_108:\n            /* \"#utility.yul\":5469:5522   */\n          tag_25\n          jump\t// in\n        tag_107:\n            /* \"#utility.yul\":5456:5522   */\n          swap1\n          pop\n            /* \"#utility.yul\":5386:5528   */\n          swap2\n          swap1\n          pop\n          jump\t// out\n            /* \"#utility.yul\":5534:5609   */\n        tag_37:\n            /* \"#utility.yul\":5577:5580   */\n          0x00\n            /* \"#utility.yul\":5598:5603   */\n          dup2\n            /* \"#utility.yul\":5591:5603   */\n          swap1\n          pop\n            /* \"#utility.yul\":5534:5609   */\n          swap2\n          swap1\n          pop\n          jump\t// out\n            /* \"#utility.yul\":5615:5884   */\n        tag_38:\n            /* \"#utility.yul\":5725:5764   */\n          tag_112\n            /* \"#utility.yul\":5756:5763   */\n          dup4\n            /* \"#utility.yul\":5725:5764   */\n          tag_36\n          jump\t// in\n        tag_112:\n            /* \"#utility.yul\":5786:5877   */\n          tag_113\n            /* \"#utility.yul\":5835:5876   */\n          tag_114\n            /* \"#utility.yul\":5859:5875   */\n          dup3\n            /* \"#utility.yul\":5835:5876   */\n          tag_37\n          jump\t// in\n        tag_114:\n            /* \"#utility.yul\":5827:5833   */\n          dup5\n            /* \"#utility.yul\":5820:5824   */\n          dup5\n            /* \"#utility.yul\":5814:5825   */\n          sload\n            /* \"#utility.yul\":5786:5877   */\n          tag_34\n          jump\t// in\n        tag_113:\n            /* \"#utility.yul\":5780:5784   */\n          dup3\n            /* \"#utility.yul\":5773:5878   */\n          sstore\n            /* \"#utility.yul\":5691:5884   */\n          pop\n            /* \"#utility.yul\":5615:5884   */\n          pop\n          pop\n          pop\n          jump\t// out\n            /* \"#utility.yul\":5890:5963   */\n        tag_39:\n            /* \"#utility.yul\":5935:5938   */\n          0x00\n            /* \"#utility.yul\":5956:5957   */\n          0x00\n            /* \"#utility.yul\":5949:5957   */\n          swap1\n          pop\n            /* \"#utility.yul\":5890:5963   */\n          swap1\n          jump\t// out\n            /* \"#utility.yul\":5969:6158   */\n        tag_40:\n            /* \"#utility.yul\":6046:6078   */\n          tag_117\n          tag_39\n          jump\t// in\n        tag_117:\n            /* \"#utility.yul\":6087:6152   */\n          tag_118\n            /* \"#utility.yul\":6145:6151   */\n          dup2\n            /* \"#utility.yul\":6137:6143   */\n          dup5\n            /* \"#utility.yul\":6131:6135   */\n          dup5\n            /* \"#utility.yul\":6087:6152   */\n          tag_38\n          jump\t// in\n        tag_118:\n            /* \"#utility.yul\":6022:6158   */\n          pop\n            /* \"#utility.yul\":5969:6158   */\n          pop\n          pop\n          jump\t// out\n            /* \"#utility.yul\":6164:6350   */\n        tag_41:\n            /* \"#utility.yul\":6224:6344   */\n        tag_120:\n            /* \"#utility.yul\":6241:6244   */\n          dup2\n            /* \"#utility.yul\":6234:6239   */\n          dup2\n            /* \"#utility.yul\":6231:6245   */\n          lt\n            /* \"#utility.yul\":6224:6344   */\n          iszero\n          tag_122\n          jumpi\n            /* \"#utility.yul\":6295:6334   */\n          tag_123\n            /* \"#utility.yul\":6332:6333   */\n          0x00\n            /* \"#utility.yul\":6325:6330   */\n          dup3\n            /* \"#utility.yul\":6295:6334   */\n          tag_40\n          jump\t// in\n        tag_123:\n            /* \"#utility.yul\":6268:6269   */\n          0x01\n            /* \"#utility.yul\":6261:6266   */\n          dup2\n            /* \"#utility.yul\":6257:6270   */\n          add\n            /* \"#utility.yul\":6248:6270   */\n          swap1\n          pop\n            /* \"#utility.yul\":6224:6344   */\n          jump(tag_120)\n        tag_122:\n            /* \"#utility.yul\":6164:6350   */\n          pop\n          pop\n          jump\t// out\n            /* \"#utility.yul\":6356:6899   */\n        tag_42:\n            /* \"#utility.yul\":6457:6459   */\n          0x1f\n            /* \"#utility.yul\":6452:6455   */\n          dup3\n            /* \"#utility.yul\":6449:6460   */\n          gt\n            /* \"#utility.yul\":6446:6892   */\n          iszero\n          tag_125\n          jumpi\n            /* \"#utility.yul\":6491:6529   */\n          tag_126\n            /* \"#utility.yul\":6523:6528   */\n          dup2\n            /* \"#utility.yul\":6491:6529   */\n          tag_31\n          jump\t// in\n        tag_126:\n            /* \"#utility.yul\":6575:6604   */\n          tag_127\n            /* \"#utility.yul\":6593:6603   */\n          dup5\n            /* \"#utility.yul\":6575:6604   */\n          tag_32\n          jump\t// in\n        tag_127:\n            /* \"#utility.yul\":6565:6573   */\n          dup2\n            /* \"#utility.yul\":6561:6605   */\n          add\n            /* \"#utility.yul\":6758:6760   */\n          0x20\n            /* \"#utility.yul\":6746:6756   */\n          dup6\n            /* \"#utility.yul\":6743:6761   */\n          lt\n            /* \"#utility.yul\":6740:6789   */\n          iszero\n          tag_128\n          jumpi\n            /* \"#utility.yul\":6779:6787   */\n          dup2\n            /* \"#utility.yul\":6764:6787   */\n          swap1\n          pop\n            /* \"#utility.yul\":6740:6789   */\n        tag_128:\n            /* \"#utility.yul\":6802:6882   */\n          tag_129\n            /* \"#utility.yul\":6858:6880   */\n          tag_130\n            /* \"#utility.yul\":6876:6879   */\n          dup6\n            /* \"#utility.yul\":6858:6880   */\n          tag_32\n          jump\t// in\n        tag_130:\n            /* \"#utility.yul\":6848:6856   */\n          dup4\n            /* \"#utility.yul\":6844:6881   */\n          add\n            /* \"#utility.yul\":6831:6842   */\n          dup3\n            /* \"#utility.yul\":6802:6882   */\n          tag_41\n          jump\t// in\n        tag_129:\n            /* \"#utility.yul\":6461:6892   */\n          pop\n          pop\n            /* \"#utility.yul\":6446:6892   */\n        tag_125:\n            /* \"#utility.yul\":6356:6899   */\n          pop\n          pop\n          pop\n          jump\t// out\n            /* \"#utility.yul\":6905:7022   */\n        tag_43:\n            /* \"#utility.yul\":6959:6967   */\n          0x00\n            /* \"#utility.yul\":7009:7014   */\n          dup3\n            /* \"#utility.yul\":7003:7007   */\n          dup3\n            /* \"#utility.yul\":6999:7015   */\n          shr\n            /* \"#utility.yul\":6978:7015   */\n          swap1\n          pop\n            /* \"#utility.yul\":6905:7022   */\n          swap3\n          swap2\n          pop\n          pop\n          jump\t// out\n            /* \"#utility.yul\":7028:7197   */\n        tag_44:\n            /* \"#utility.yul\":7072:7078   */\n          0x00\n            /* \"#utility.yul\":7105:7156   */\n          tag_133\n            /* \"#utility.yul\":7153:7154   */\n          0x00\n            /* \"#utility.yul\":7149:7155   */\n          not\n            /* \"#utility.yul\":7141:7146   */\n          dup5\n            /* \"#utility.yul\":7138:7139   */\n          0x08\n            /* \"#utility.yul\":7134:7147   */\n          mul\n            /* \"#utility.yul\":7105:7156   */\n          tag_43\n          jump\t// in\n        tag_133:\n            /* \"#utility.yul\":7101:7157   */\n          not\n            /* \"#utility.yul\":7186:7190   */\n          dup1\n            /* \"#utility.yul\":7180:7184   */\n          dup4\n            /* \"#utility.yul\":7176:7191   */\n          and\n            /* \"#utility.yul\":7166:7191   */\n          swap2\n          pop\n            /* \"#utility.yul\":7079:7197   */\n          pop\n            /* \"#utility.yul\":7028:7197   */\n          swap3\n          swap2\n          pop\n          pop\n          jump\t// out\n            /* \"#utility.yul\":7202:7497   */\n        tag_45:\n            /* \"#utility.yul\":7278:7282   */\n          0x00\n            /* \"#utility.yul\":7424:7453   */\n          tag_135\n            /* \"#utility.yul\":7449:7452   */\n          dup4\n            /* \"#utility.yul\":7443:7447   */\n          dup4\n            /* \"#utility.yul\":7424:7453   */\n          tag_44\n          jump\t// in\n        tag_135:\n            /* \"#utility.yul\":7416:7453   */\n          swap2\n          pop\n            /* \"#utility.yul\":7486:7489   */\n          dup3\n            /* \"#utility.yul\":7483:7484   */\n          0x02\n            /* \"#utility.yul\":7479:7490   */\n          mul\n            /* \"#utility.yul\":7473:7477   */\n          dup3\n            /* \"#utility.yul\":7470:7491   */\n          or\n            /* \"#utility.yul\":7462:7491   */\n          swap1\n          pop\n            /* \"#utility.yul\":7202:7497   */\n          swap3\n          swap2\n          pop\n          pop\n          jump\t// out\n            /* \"#utility.yul\":7502:8897   */\n        tag_7:\n            /* \"#utility.yul\":7619:7656   */\n          tag_137\n            /* \"#utility.yul\":7652:7655   */\n          dup3\n            /* \"#utility.yul\":7619:7656   */\n          tag_28\n          jump\t// in\n        tag_137:\n            /* \"#utility.yul\":7721:7739   */\n          0xffffffffffffffff\n            /* \"#utility.yul\":7713:7719   */\n          dup2\n            /* \"#utility.yul\":7710:7740   */\n          gt\n            /* \"#utility.yul\":7707:7763   */\n          iszero\n          tag_138\n          jumpi\n            /* \"#utility.yul\":7743:7761   */\n          tag_139\n          tag_18\n          jump\t// in\n        tag_139:\n            /* \"#utility.yul\":7707:7763   */\n        tag_138:\n            /* \"#utility.yul\":7787:7825   */\n          tag_140\n            /* \"#utility.yul\":7819:7823   */\n          dup3\n            /* \"#utility.yul\":7813:7824   */\n          sload\n            /* \"#utility.yul\":7787:7825   */\n          tag_30\n          jump\t// in\n        tag_140:\n            /* \"#utility.yul\":7872:7939   */\n          tag_141\n            /* \"#utility.yul\":7932:7938   */\n          dup3\n            /* \"#utility.yul\":7924:7930   */\n          dup3\n            /* \"#utility.yul\":7918:7922   */\n          dup6\n            /* \"#utility.yul\":7872:7939   */\n          tag_42\n          jump\t// in\n        tag_141:\n            /* \"#utility.yul\":7966:7967   */\n          0x00\n            /* \"#utility.yul\":7990:7994   */\n          0x20\n            /* \"#utility.yul\":7977:7994   */\n          swap1\n          pop\n            /* \"#utility.yul\":8022:8024   */\n          0x1f\n            /* \"#utility.yul\":8014:8020   */\n          dup4\n            /* \"#utility.yul\":8011:8025   */\n          gt\n            /* \"#utility.yul\":8039:8040   */\n          0x01\n            /* \"#utility.yul\":8034:8652   */\n          dup2\n          eq\n          tag_143\n          jumpi\n            /* \"#utility.yul\":8696:8697   */\n          0x00\n            /* \"#utility.yul\":8713:8719   */\n          dup5\n            /* \"#utility.yul\":8710:8787   */\n          iszero\n          tag_144\n          jumpi\n            /* \"#utility.yul\":8762:8771   */\n          dup3\n            /* \"#utility.yul\":8757:8760   */\n          dup8\n            /* \"#utility.yul\":8753:8772   */\n          add\n            /* \"#utility.yul\":8747:8773   */\n          mload\n            /* \"#utility.yul\":8738:8773   */\n          swap1\n          pop\n            /* \"#utility.yul\":8710:8787   */\n        tag_144:\n            /* \"#utility.yul\":8813:8880   */\n          tag_145\n            /* \"#utility.yul\":8873:8879   */\n          dup6\n            /* \"#utility.yul\":8866:8871   */\n          dup3\n            /* \"#utility.yul\":8813:8880   */\n          tag_45\n          jump\t// in\n        tag_145:\n            /* \"#utility.yul\":8807:8811   */\n          dup7\n            /* \"#utility.yul\":8800:8881   */\n          sstore\n            /* \"#utility.yul\":8669:8891   */\n          pop\n            /* \"#utility.yul\":8004:8891   */\n          jump(tag_142)\n            /* \"#utility.yul\":8034:8652   */\n        tag_143:\n            /* \"#utility.yul\":8086:8090   */\n          0x1f\n            /* \"#utility.yul\":8082:8091   */\n          not\n            /* \"#utility.yul\":8074:8080   */\n          dup5\n            /* \"#utility.yul\":8070:8092   */\n          and\n            /* \"#utility.yul\":8120:8157   */\n          tag_146\n            /* \"#utility.yul\":8152:8156   */\n          dup7\n            /* \"#utility.yul\":8120:8157   */\n          tag_31\n          jump\t// in\n        tag_146:\n            /* \"#utility.yul\":8179:8180   */\n          0x00\n            /* \"#utility.yul\":8193:8401   */\n        tag_147:\n            /* \"#utility.yul\":8207:8214   */\n          dup3\n            /* \"#utility.yul\":8204:8205   */\n          dup2\n            /* \"#utility.yul\":8201:8215   */\n          lt\n            /* \"#utility.yul\":8193:8401   */\n          iszero\n          tag_149\n          jumpi\n            /* \"#utility.yul\":8286:8295   */\n          dup5\n            /* \"#utility.yul\":8281:8284   */\n          dup10\n            /* \"#utility.yul\":8277:8296   */\n          add\n            /* \"#utility.yul\":8271:8297   */\n          mload\n            /* \"#utility.yul\":8263:8269   */\n          dup3\n            /* \"#utility.yul\":8256:8298   */\n          sstore\n            /* \"#utility.yul\":8337:8338   */\n          0x01\n            /* \"#utility.yul\":8329:8335   */\n          dup3\n            /* \"#utility.yul\":8325:8339   */\n          add\n            /* \"#utility.yul\":8315:8339   */\n          swap2\n          pop\n            /* \"#utility.yul\":8384:8386   */\n          0x20\n            /* \"#utility.yul\":8373:8382   */\n          dup6\n            /* \"#utility.yul\":8369:8387   */\n          add\n            /* \"#utility.yul\":8356:8387   */\n          swap5\n          pop\n            /* \"#utility.yul\":8230:8234   */\n          0x20\n            /* \"#utility.yul\":8227:8228   */\n          dup2\n            /* \"#utility.yul\":8223:8235   */\n          add\n            /* \"#utility.yul\":8218:8235   */\n          swap1\n          pop\n            /* \"#utility.yul\":8193:8401   */\n          jump(tag_147)\n        tag_149:\n            /* \"#utility.yul\":8429:8435   */\n          dup7\n            /* \"#utility.yul\":8420:8427   */\n          dup4\n            /* \"#utility.yul\":8417:8436   */\n          lt\n            /* \"#utility.yul\":8414:8593   */\n          iszero\n          tag_150\n          jumpi\n            /* \"#utility.yul\":8487:8496   */\n          dup5\n            /* \"#utility.yul\":8482:8485   */\n          dup10\n            /* \"#utility.yul\":8478:8497   */\n          add\n            /* \"#utility.yul\":8472:8498   */\n          mload\n            /* \"#utility.yul\":8530:8578   */\n          tag_151\n            /* \"#utility.yul\":8572:8576   */\n          0x1f\n            /* \"#utility.yul\":8564:8570   */\n          dup10\n            /* \"#utility.yul\":8560:8577   */\n          and\n            /* \"#utility.yul\":8549:8558   */\n          dup3\n            /* \"#utility.yul\":8530:8578   */\n          tag_44\n          jump\t// in\n        tag_151:\n            /* \"#utility.yul\":8522:8528   */\n          dup4\n            /* \"#utility.yul\":8515:8579   */\n          sstore\n            /* \"#utility.yul\":8437:8593   */\n          pop\n            /* \"#utility.yul\":8414:8593   */\n        tag_150:\n            /* \"#utility.yul\":8639:8640   */\n          0x01\n            /* \"#utility.yul\":8635:8636   */\n          0x02\n            /* \"#utility.yul\":8627:8633   */\n          dup9\n            /* \"#utility.yul\":8623:8637   */\n          mul\n            /* \"#utility.yul\":8619:8641   */\n          add\n            /* \"#utility.yul\":8613:8617   */\n          dup9\n            /* \"#utility.yul\":8606:8642   */\n          sstore\n            /* \"#utility.yul\":8041:8652   */\n          pop\n          pop\n          pop\n            /* \"#utility.yul\":8004:8891   */\n        tag_142:\n          pop\n            /* \"#utility.yul\":7594:8897   */\n          pop\n          pop\n          pop\n            /* \"#utility.yul\":7502:8897   */\n          pop\n          pop\n          jump\t// out\n            /* \"#utility.yul\":8903:9083   */\n        tag_46:\n            /* \"#utility.yul\":8951:9028   */\n          0x4e487b7100000000000000000000000000000000000000000000000000000000\n            /* \"#utility.yul\":8948:8949   */\n          0x00\n            /* \"#utility.yul\":8941:9029   */\n          mstore\n            /* \"#utility.yul\":9048:9052   */\n          0x11\n            /* \"#utility.yul\":9045:9046   */\n          0x04\n            /* \"#utility.yul\":9038:9053   */\n          mstore\n            /* \"#utility.yul\":9072:9076   */\n          0x24\n            /* \"#utility.yul\":9069:9070   */\n          0x00\n            /* \"#utility.yul\":9062:9077   */\n          revert\n            /* \"#utility.yul\":9089:9499   */\n        tag_10:\n            /* \"#utility.yul\":9129:9136   */\n          0x00\n            /* \"#utility.yul\":9152:9172   */\n          tag_154\n            /* \"#utility.yul\":9170:9171   */\n          dup3\n            /* \"#utility.yul\":9152:9172   */\n          tag_25\n          jump\t// in\n        tag_154:\n            /* \"#utility.yul\":9147:9172   */\n          swap2\n          pop\n            /* \"#utility.yul\":9186:9206   */\n          tag_155\n            /* \"#utility.yul\":9204:9205   */\n          dup4\n            /* \"#utility.yul\":9186:9206   */\n          tag_25\n          jump\t// in\n        tag_155:\n            /* \"#utility.yul\":9181:9206   */\n          swap3\n          pop\n            /* \"#utility.yul\":9241:9242   */\n          dup3\n            /* \"#utility.yul\":9238:9239   */\n          dup3\n            /* \"#utility.yul\":9234:9243   */\n          mul\n            /* \"#utility.yul\":9263:9293   */\n          tag_156\n            /* \"#utility.yul\":9281:9292   */\n          dup2\n            /* \"#utility.yul\":9263:9293   */\n          tag_25\n          jump\t// in\n        tag_156:\n            /* \"#utility.yul\":9252:9293   */\n          swap2\n          pop\n            /* \"#utility.yul\":9442:9443   */\n          dup3\n            /* \"#utility.yul\":9433:9440   */\n          dup3\n            /* \"#utility.yul\":9429:9444   */\n          div\n            /* \"#utility.yul\":9426:9427   */\n          dup5\n            /* \"#utility.yul\":9423:9445   */\n          eq\n            /* \"#utility.yul\":9403:9404   */\n          dup4\n            /* \"#utility.yul\":9396:9405   */\n          iszero\n            /* \"#utility.yul\":9376:9459   */\n          or\n            /* \"#utility.yul\":9353:9492   */\n          tag_157\n          jumpi\n            /* \"#utility.yul\":9472:9490   */\n          tag_158\n          tag_46\n          jump\t// in\n        tag_158:\n            /* \"#utility.yul\":9353:9492   */\n        tag_157:\n            /* \"#utility.yul\":9137:9499   */\n          pop\n            /* \"#utility.yul\":9089:9499   */\n          swap3\n          swap2\n          pop\n          pop\n          jump\t// out\n            /* \"Assignments/Lecture 6/AssetFactory.sol\":158:901  contract Asset  {... */\n        tag_11:\n          dataSize(sub_0)\n          dup1\n          dataOffset(sub_0)\n          0x00\n          codecopy\n          0x00\n          return\n        stop\n\n        sub_0: assembly {\n                /* \"Assignments/Lecture 6/AssetFactory.sol\":158:901  contract Asset  {... */\n              mstore(0x40, 0x80)\n              jumpi(tag_1, lt(calldatasize, 0x04))\n              shr(0xe0, calldataload(0x00))\n              dup1\n              0x047fc9aa\n              eq\n              tag_2\n              jumpi\n              dup1\n              0x06fdde03\n              eq\n              tag_3\n              jumpi\n              dup1\n              0x2ccb1b30\n              eq\n              tag_4\n              jumpi\n              dup1\n              0x70a08231\n              eq\n              tag_5\n              jumpi\n              dup1\n              0x8ba47bdd\n              eq\n              tag_6\n              jumpi\n              dup1\n              0x8da5cb5b\n              eq\n              tag_7\n              jumpi\n            tag_1:\n              revert(0x00, 0x00)\n                /* \"Assignments/Lecture 6/AssetFactory.sol\":230:251  uint256 public supply */\n            tag_2:\n              callvalue\n              dup1\n              iszero\n              tag_8\n              jumpi\n              revert(0x00, 0x00)\n            tag_8:\n              pop\n              tag_9\n              tag_10\n              jump\t// in\n            tag_9:\n              mload(0x40)\n              tag_11\n              swap2\n              swap1\n              tag_12\n              jump\t// in\n            tag_11:\n              mload(0x40)\n              dup1\n              swap2\n              sub\n              swap1\n              return\n                /* \"Assignments/Lecture 6/AssetFactory.sol\":180:198  string public name */\n            tag_3:\n              callvalue\n              dup1\n              iszero\n              tag_13\n              jumpi\n              revert(0x00, 0x00)\n            tag_13:\n              pop\n              tag_14\n              tag_15\n              jump\t// in\n            tag_14:\n              mload(0x40)\n              tag_16\n              swap2\n              swap1\n              tag_17\n              jump\t// in\n            tag_16:\n              mload(0x40)\n              dup1\n              swap2\n              sub\n              swap1\n              return\n                /* \"Assignments/Lecture 6/AssetFactory.sol\":510:726  function transferTo(address target, uint256 amount) external payable {... */\n            tag_4:\n              tag_18\n              0x04\n              dup1\n              calldatasize\n              sub\n              dup2\n              add\n              swap1\n              tag_19\n              swap2\n              swap1\n              tag_20\n              jump\t// in\n            tag_19:\n              tag_21\n              jump\t// in\n            tag_18:\n              stop\n                /* \"Assignments/Lecture 6/AssetFactory.sol\":732:899  function balanceOf(address target) public view returns (uint256) {... */\n            tag_5:\n              callvalue\n              dup1\n              iszero\n              tag_22\n              jumpi\n              revert(0x00, 0x00)\n            tag_22:\n              pop\n              tag_23\n              0x04\n              dup1\n              calldatasize\n              sub\n              dup2\n              add\n              swap1\n              tag_24\n              swap2\n              swap1\n              tag_25\n              jump\t// in\n            tag_24:\n              tag_26\n              jump\t// in\n            tag_23:\n              mload(0x40)\n              tag_27\n              swap2\n              swap1\n              tag_12\n              jump\t// in\n            tag_27:\n              mload(0x40)\n              dup1\n              swap2\n              sub\n              swap1\n              return\n                /* \"Assignments/Lecture 6/AssetFactory.sol\":204:224  string public ticker */\n            tag_6:\n              callvalue\n              dup1\n              iszero\n              tag_28\n              jumpi\n              revert(0x00, 0x00)\n            tag_28:\n              pop\n              tag_29\n              tag_30\n              jump\t// in\n            tag_29:\n              mload(0x40)\n              tag_31\n              swap2\n              swap1\n              tag_17\n              jump\t// in\n            tag_31:\n              mload(0x40)\n              dup1\n              swap2\n              sub\n              swap1\n              return\n                /* \"Assignments/Lecture 6/AssetFactory.sol\":257:277  address public owner */\n            tag_7:\n              callvalue\n              dup1\n              iszero\n              tag_32\n              jumpi\n              revert(0x00, 0x00)\n            tag_32:\n              pop\n              tag_33\n              tag_34\n              jump\t// in\n            tag_33:\n              mload(0x40)\n              tag_35\n              swap2\n              swap1\n              tag_36\n              jump\t// in\n            tag_35:\n              mload(0x40)\n              dup1\n              swap2\n              sub\n              swap1\n              return\n                /* \"Assignments/Lecture 6/AssetFactory.sol\":230:251  uint256 public supply */\n            tag_10:\n              sload(0x02)\n              dup2\n              jump\t// out\n                /* \"Assignments/Lecture 6/AssetFactory.sol\":180:198  string public name */\n            tag_15:\n              0x00\n              dup1\n              sload\n              tag_37\n              swap1\n              tag_38\n              jump\t// in\n            tag_37:\n              dup1\n              0x1f\n              add\n              0x20\n              dup1\n              swap2\n              div\n              mul\n              0x20\n              add\n              mload(0x40)\n              swap1\n              dup2\n              add\n              0x40\n              mstore\n              dup1\n              swap3\n              swap2\n              swap1\n              dup2\n              dup2\n              mstore\n              0x20\n              add\n              dup3\n              dup1\n              sload\n              tag_39\n              swap1\n              tag_38\n              jump\t// in\n            tag_39:\n              dup1\n              iszero\n              tag_40\n              jumpi\n              dup1\n              0x1f\n              lt\n              tag_41\n              jumpi\n              0x0100\n              dup1\n              dup4\n              sload\n              div\n              mul\n              dup4\n              mstore\n              swap2\n              0x20\n              add\n              swap2\n              jump(tag_40)\n            tag_41:\n              dup3\n              add\n              swap2\n              swap1\n              0x00\n              mstore\n              keccak256(0x00, 0x20)\n              swap1\n            tag_42:\n              dup2\n              sload\n              dup2\n              mstore\n              swap1\n              0x01\n              add\n              swap1\n              0x20\n              add\n              dup1\n              dup4\n              gt\n              tag_42\n              jumpi\n              dup3\n              swap1\n              sub\n              0x1f\n              and\n              dup3\n              add\n              swap2\n            tag_40:\n              pop\n              pop\n              pop\n              pop\n              pop\n              dup2\n              jump\t// out\n                /* \"Assignments/Lecture 6/AssetFactory.sol\":510:726  function transferTo(address target, uint256 amount) external payable {... */\n            tag_21:\n                /* \"Assignments/Lecture 6/AssetFactory.sol\":605:611  supply */\n              sload(0x02)\n                /* \"Assignments/Lecture 6/AssetFactory.sol\":593:602  msg.value */\n              callvalue\n                /* \"Assignments/Lecture 6/AssetFactory.sol\":593:611  msg.value > supply */\n              gt\n                /* \"Assignments/Lecture 6/AssetFactory.sol\":589:642  if (msg.value > supply) { revert IncorrectAmount(); } */\n              iszero\n              tag_44\n              jumpi\n                /* \"Assignments/Lecture 6/AssetFactory.sol\":622:639  IncorrectAmount() */\n              mload(0x40)\n              0x69640e7200000000000000000000000000000000000000000000000000000000\n              dup2\n              mstore\n              0x04\n              add\n              mload(0x40)\n              dup1\n              swap2\n              sub\n              swap1\n              revert\n                /* \"Assignments/Lecture 6/AssetFactory.sol\":589:642  if (msg.value > supply) { revert IncorrectAmount(); } */\n            tag_44:\n                /* \"Assignments/Lecture 6/AssetFactory.sol\":669:675  amount */\n              dup1\n                /* \"Assignments/Lecture 6/AssetFactory.sol\":660:666  supply */\n              sload(0x02)\n                /* \"Assignments/Lecture 6/AssetFactory.sol\":660:675  supply - amount */\n              tag_45\n              swap2\n              swap1\n              tag_46\n              jump\t// in\n            tag_45:\n                /* \"Assignments/Lecture 6/AssetFactory.sol\":651:657  supply */\n              0x02\n                /* \"Assignments/Lecture 6/AssetFactory.sol\":651:675  supply = supply - amount */\n              dup2\n              swap1\n              sstore\n              pop\n                /* \"Assignments/Lecture 6/AssetFactory.sol\":713:719  amount */\n              dup1\n                /* \"Assignments/Lecture 6/AssetFactory.sol\":694:701  holders */\n              0x04\n                /* \"Assignments/Lecture 6/AssetFactory.sol\":694:709  holders[target] */\n              0x00\n                /* \"Assignments/Lecture 6/AssetFactory.sol\":702:708  target */\n              dup5\n                /* \"Assignments/Lecture 6/AssetFactory.sol\":694:709  holders[target] */\n              0xffffffffffffffffffffffffffffffffffffffff\n              and\n              0xffffffffffffffffffffffffffffffffffffffff\n              and\n              dup2\n              mstore\n              0x20\n              add\n              swap1\n              dup2\n              mstore\n              0x20\n              add\n              0x00\n              keccak256\n              0x00\n                /* \"Assignments/Lecture 6/AssetFactory.sol\":694:719  holders[target] += amount */\n              dup3\n              dup3\n              sload\n              tag_47\n              swap2\n              swap1\n              tag_48\n              jump\t// in\n            tag_47:\n              swap3\n              pop\n              pop\n              dup2\n              swap1\n              sstore\n              pop\n                /* \"Assignments/Lecture 6/AssetFactory.sol\":510:726  function transferTo(address target, uint256 amount) external payable {... */\n              pop\n              pop\n              jump\t// out\n                /* \"Assignments/Lecture 6/AssetFactory.sol\":732:899  function balanceOf(address target) public view returns (uint256) {... */\n            tag_26:\n                /* \"Assignments/Lecture 6/AssetFactory.sol\":788:795  uint256 */\n              0x00\n                /* \"Assignments/Lecture 6/AssetFactory.sol\":829:830  0 */\n              0x00\n                /* \"Assignments/Lecture 6/AssetFactory.sol\":811:831  target == address(0) */\n              0xffffffffffffffffffffffffffffffffffffffff\n              and\n                /* \"Assignments/Lecture 6/AssetFactory.sol\":811:817  target */\n              dup3\n                /* \"Assignments/Lecture 6/AssetFactory.sol\":811:831  target == address(0) */\n              0xffffffffffffffffffffffffffffffffffffffff\n              and\n              sub\n                /* \"Assignments/Lecture 6/AssetFactory.sol\":807:861  if (target == address(0)) { revert InvalidAddress(); } */\n              tag_50\n              jumpi\n                /* \"Assignments/Lecture 6/AssetFactory.sol\":842:858  InvalidAddress() */\n              mload(0x40)\n              0xe6c4247b00000000000000000000000000000000000000000000000000000000\n              dup2\n              mstore\n              0x04\n              add\n              mload(0x40)\n              dup1\n              swap2\n              sub\n              swap1\n              revert\n                /* \"Assignments/Lecture 6/AssetFactory.sol\":807:861  if (target == address(0)) { revert InvalidAddress(); } */\n            tag_50:\n                /* \"Assignments/Lecture 6/AssetFactory.sol\":877:884  holders */\n              0x04\n                /* \"Assignments/Lecture 6/AssetFactory.sol\":877:892  holders[target] */\n              0x00\n                /* \"Assignments/Lecture 6/AssetFactory.sol\":885:891  target */\n              dup4\n                /* \"Assignments/Lecture 6/AssetFactory.sol\":877:892  holders[target] */\n              0xffffffffffffffffffffffffffffffffffffffff\n              and\n              0xffffffffffffffffffffffffffffffffffffffff\n              and\n              dup2\n              mstore\n              0x20\n              add\n              swap1\n              dup2\n              mstore\n              0x20\n              add\n              0x00\n              keccak256\n              sload\n                /* \"Assignments/Lecture 6/AssetFactory.sol\":870:892  return holders[target] */\n              swap1\n              pop\n                /* \"Assignments/Lecture 6/AssetFactory.sol\":732:899  function balanceOf(address target) public view returns (uint256) {... */\n              swap2\n              swap1\n              pop\n              jump\t// out\n                /* \"Assignments/Lecture 6/AssetFactory.sol\":204:224  string public ticker */\n            tag_30:\n              0x01\n              dup1\n              sload\n              tag_51\n              swap1\n              tag_38\n              jump\t// in\n            tag_51:\n              dup1\n              0x1f\n              add\n              0x20\n              dup1\n              swap2\n              div\n              mul\n              0x20\n              add\n              mload(0x40)\n              swap1\n              dup2\n              add\n              0x40\n              mstore\n              dup1\n              swap3\n              swap2\n              swap1\n              dup2\n              dup2\n              mstore\n              0x20\n              add\n              dup3\n              dup1\n              sload\n              tag_52\n              swap1\n              tag_38\n              jump\t// in\n            tag_52:\n              dup1\n              iszero\n              tag_53\n              jumpi\n              dup1\n              0x1f\n              lt\n              tag_54\n              jumpi\n              0x0100\n              dup1\n              dup4\n              sload\n              div\n              mul\n              dup4\n              mstore\n              swap2\n              0x20\n              add\n              swap2\n              jump(tag_53)\n            tag_54:\n              dup3\n              add\n              swap2\n              swap1\n              0x00\n              mstore\n              keccak256(0x00, 0x20)\n              swap1\n            tag_55:\n              dup2\n              sload\n              dup2\n              mstore\n              swap1\n              0x01\n              add\n              swap1\n              0x20\n              add\n              dup1\n              dup4\n              gt\n              tag_55\n              jumpi\n              dup3\n              swap1\n              sub\n              0x1f\n              and\n              dup3\n              add\n              swap2\n            tag_53:\n              pop\n              pop\n              pop\n              pop\n              pop\n              dup2\n              jump\t// out\n                /* \"Assignments/Lecture 6/AssetFactory.sol\":257:277  address public owner */\n            tag_34:\n              0x03\n              0x00\n              swap1\n              sload\n              swap1\n              0x0100\n              exp\n              swap1\n              div\n              0xffffffffffffffffffffffffffffffffffffffff\n              and\n              dup2\n              jump\t// out\n                /* \"#utility.yul\":7:84   */\n            tag_56:\n                /* \"#utility.yul\":44:51   */\n              0x00\n                /* \"#utility.yul\":73:78   */\n              dup2\n                /* \"#utility.yul\":62:78   */\n              swap1\n              pop\n                /* \"#utility.yul\":7:84   */\n              swap2\n              swap1\n              pop\n              jump\t// out\n                /* \"#utility.yul\":90:208   */\n            tag_57:\n                /* \"#utility.yul\":177:201   */\n              tag_78\n                /* \"#utility.yul\":195:200   */\n              dup2\n                /* \"#utility.yul\":177:201   */\n              tag_56\n              jump\t// in\n            tag_78:\n                /* \"#utility.yul\":172:175   */\n              dup3\n                /* \"#utility.yul\":165:202   */\n              mstore\n                /* \"#utility.yul\":90:208   */\n              pop\n              pop\n              jump\t// out\n                /* \"#utility.yul\":214:436   */\n            tag_12:\n                /* \"#utility.yul\":307:311   */\n              0x00\n                /* \"#utility.yul\":345:347   */\n              0x20\n                /* \"#utility.yul\":334:343   */\n              dup3\n                /* \"#utility.yul\":330:348   */\n              add\n                /* \"#utility.yul\":322:348   */\n              swap1\n              pop\n                /* \"#utility.yul\":358:429   */\n              tag_80\n                /* \"#utility.yul\":426:427   */\n              0x00\n                /* \"#utility.yul\":415:424   */\n              dup4\n                /* \"#utility.yul\":411:428   */\n              add\n                /* \"#utility.yul\":402:408   */\n              dup5\n                /* \"#utility.yul\":358:429   */\n              tag_57\n              jump\t// in\n            tag_80:\n                /* \"#utility.yul\":214:436   */\n              swap3\n              swap2\n              pop\n              pop\n              jump\t// out\n                /* \"#utility.yul\":442:541   */\n            tag_58:\n                /* \"#utility.yul\":494:500   */\n              0x00\n                /* \"#utility.yul\":528:533   */\n              dup2\n                /* \"#utility.yul\":522:534   */\n              mload\n                /* \"#utility.yul\":512:534   */\n              swap1\n              pop\n                /* \"#utility.yul\":442:541   */\n              swap2\n              swap1\n              pop\n              jump\t// out\n                /* \"#utility.yul\":547:716   */\n            tag_59:\n                /* \"#utility.yul\":631:642   */\n              0x00\n                /* \"#utility.yul\":665:671   */\n              dup3\n                /* \"#utility.yul\":660:663   */\n              dup3\n                /* \"#utility.yul\":653:672   */\n              mstore\n                /* \"#utility.yul\":705:709   */\n              0x20\n                /* \"#utility.yul\":700:703   */\n              dup3\n                /* \"#utility.yul\":696:710   */\n              add\n                /* \"#utility.yul\":681:710   */\n              swap1\n              pop\n                /* \"#utility.yul\":547:716   */\n              swap3\n              swap2\n              pop\n              pop\n              jump\t// out\n                /* \"#utility.yul\":722:861   */\n            tag_60:\n                /* \"#utility.yul\":811:817   */\n              dup3\n                /* \"#utility.yul\":806:809   */\n              dup2\n                /* \"#utility.yul\":801:804   */\n              dup4\n                /* \"#utility.yul\":795:818   */\n              mcopy\n                /* \"#utility.yul\":852:853   */\n              0x00\n                /* \"#utility.yul\":843:849   */\n              dup4\n                /* \"#utility.yul\":838:841   */\n              dup4\n                /* \"#utility.yul\":834:850   */\n              add\n                /* \"#utility.yul\":827:854   */\n              mstore\n                /* \"#utility.yul\":722:861   */\n              pop\n              pop\n              pop\n              jump\t// out\n                /* \"#utility.yul\":867:969   */\n            tag_61:\n                /* \"#utility.yul\":908:914   */\n              0x00\n                /* \"#utility.yul\":959:961   */\n              0x1f\n                /* \"#utility.yul\":955:962   */\n              not\n                /* \"#utility.yul\":950:952   */\n              0x1f\n                /* \"#utility.yul\":943:948   */\n              dup4\n                /* \"#utility.yul\":939:953   */\n              add\n                /* \"#utility.yul\":935:963   */\n              and\n                /* \"#utility.yul\":925:963   */\n              swap1\n              pop\n                /* \"#utility.yul\":867:969   */\n              swap2\n              swap1\n              pop\n              jump\t// out\n                /* \"#utility.yul\":975:1352   */\n            tag_62:\n                /* \"#utility.yul\":1063:1066   */\n              0x00\n                /* \"#utility.yul\":1091:1130   */\n              tag_86\n                /* \"#utility.yul\":1124:1129   */\n              dup3\n                /* \"#utility.yul\":1091:1130   */\n              tag_58\n              jump\t// in\n            tag_86:\n                /* \"#utility.yul\":1146:1217   */\n              tag_87\n                /* \"#utility.yul\":1210:1216   */\n              dup2\n                /* \"#utility.yul\":1205:1208   */\n              dup6\n                /* \"#utility.yul\":1146:1217   */\n              tag_59\n              jump\t// in\n            tag_87:\n                /* \"#utility.yul\":1139:1217   */\n              swap4\n              pop\n                /* \"#utility.yul\":1226:1291   */\n              tag_88\n                /* \"#utility.yul\":1284:1290   */\n              dup2\n                /* \"#utility.yul\":1279:1282   */\n              dup6\n                /* \"#utility.yul\":1272:1276   */\n              0x20\n                /* \"#utility.yul\":1265:1270   */\n              dup7\n                /* \"#utility.yul\":1261:1277   */\n              add\n                /* \"#utility.yul\":1226:1291   */\n              tag_60\n              jump\t// in\n            tag_88:\n                /* \"#utility.yul\":1316:1345   */\n              tag_89\n                /* \"#utility.yul\":1338:1344   */\n              dup2\n                /* \"#utility.yul\":1316:1345   */\n              tag_61\n              jump\t// in\n            tag_89:\n                /* \"#utility.yul\":1311:1314   */\n              dup5\n                /* \"#utility.yul\":1307:1346   */\n              add\n                /* \"#utility.yul\":1300:1346   */\n              swap2\n              pop\n                /* \"#utility.yul\":1067:1352   */\n              pop\n                /* \"#utility.yul\":975:1352   */\n              swap3\n              swap2\n              pop\n              pop\n              jump\t// out\n                /* \"#utility.yul\":1358:1671   */\n            tag_17:\n                /* \"#utility.yul\":1471:1475   */\n              0x00\n                /* \"#utility.yul\":1509:1511   */\n              0x20\n                /* \"#utility.yul\":1498:1507   */\n              dup3\n                /* \"#utility.yul\":1494:1512   */\n              add\n                /* \"#utility.yul\":1486:1512   */\n              swap1\n              pop\n                /* \"#utility.yul\":1558:1567   */\n              dup2\n                /* \"#utility.yul\":1552:1556   */\n              dup2\n                /* \"#utility.yul\":1548:1568   */\n              sub\n                /* \"#utility.yul\":1544:1545   */\n              0x00\n                /* \"#utility.yul\":1533:1542   */\n              dup4\n                /* \"#utility.yul\":1529:1546   */\n              add\n                /* \"#utility.yul\":1522:1569   */\n              mstore\n                /* \"#utility.yul\":1586:1664   */\n              tag_91\n                /* \"#utility.yul\":1659:1663   */\n              dup2\n                /* \"#utility.yul\":1650:1656   */\n              dup5\n                /* \"#utility.yul\":1586:1664   */\n              tag_62\n              jump\t// in\n            tag_91:\n                /* \"#utility.yul\":1578:1664   */\n              swap1\n              pop\n                /* \"#utility.yul\":1358:1671   */\n              swap3\n              swap2\n              pop\n              pop\n              jump\t// out\n                /* \"#utility.yul\":1758:1875   */\n            tag_64:\n                /* \"#utility.yul\":1867:1868   */\n              0x00\n                /* \"#utility.yul\":1864:1865   */\n              0x00\n                /* \"#utility.yul\":1857:1869   */\n              revert\n                /* \"#utility.yul\":2004:2130   */\n            tag_66:\n                /* \"#utility.yul\":2041:2048   */\n              0x00\n                /* \"#utility.yul\":2081:2123   */\n              0xffffffffffffffffffffffffffffffffffffffff\n                /* \"#utility.yul\":2074:2079   */\n              dup3\n                /* \"#utility.yul\":2070:2124   */\n              and\n                /* \"#utility.yul\":2059:2124   */\n              swap1\n              pop\n                /* \"#utility.yul\":2004:2130   */\n              swap2\n              swap1\n              pop\n              jump\t// out\n                /* \"#utility.yul\":2136:2232   */\n            tag_67:\n                /* \"#utility.yul\":2173:2180   */\n              0x00\n                /* \"#utility.yul\":2202:2226   */\n              tag_97\n                /* \"#utility.yul\":2220:2225   */\n              dup3\n                /* \"#utility.yul\":2202:2226   */\n              tag_66\n              jump\t// in\n            tag_97:\n                /* \"#utility.yul\":2191:2226   */\n              swap1\n              pop\n                /* \"#utility.yul\":2136:2232   */\n              swap2\n              swap1\n              pop\n              jump\t// out\n                /* \"#utility.yul\":2238:2360   */\n            tag_68:\n                /* \"#utility.yul\":2311:2335   */\n              tag_99\n                /* \"#utility.yul\":2329:2334   */\n              dup2\n                /* \"#utility.yul\":2311:2335   */\n              tag_67\n              jump\t// in\n            tag_99:\n                /* \"#utility.yul\":2304:2309   */\n              dup2\n                /* \"#utility.yul\":2301:2336   */\n              eq\n                /* \"#utility.yul\":2291:2354   */\n              tag_100\n              jumpi\n                /* \"#utility.yul\":2350:2351   */\n              0x00\n                /* \"#utility.yul\":2347:2348   */\n              0x00\n                /* \"#utility.yul\":2340:2352   */\n              revert\n                /* \"#utility.yul\":2291:2354   */\n            tag_100:\n                /* \"#utility.yul\":2238:2360   */\n              pop\n              jump\t// out\n                /* \"#utility.yul\":2366:2505   */\n            tag_69:\n                /* \"#utility.yul\":2412:2417   */\n              0x00\n                /* \"#utility.yul\":2450:2456   */\n              dup2\n                /* \"#utility.yul\":2437:2457   */\n              calldataload\n                /* \"#utility.yul\":2428:2457   */\n              swap1\n              pop\n                /* \"#utility.yul\":2466:2499   */\n              tag_102\n                /* \"#utility.yul\":2493:2498   */\n              dup2\n                /* \"#utility.yul\":2466:2499   */\n              tag_68\n              jump\t// in\n            tag_102:\n                /* \"#utility.yul\":2366:2505   */\n              swap3\n              swap2\n              pop\n              pop\n              jump\t// out\n                /* \"#utility.yul\":2511:2633   */\n            tag_70:\n                /* \"#utility.yul\":2584:2608   */\n              tag_104\n                /* \"#utility.yul\":2602:2607   */\n              dup2\n                /* \"#utility.yul\":2584:2608   */\n              tag_56\n              jump\t// in\n            tag_104:\n                /* \"#utility.yul\":2577:2582   */\n              dup2\n                /* \"#utility.yul\":2574:2609   */\n              eq\n                /* \"#utility.yul\":2564:2627   */\n              tag_105\n              jumpi\n                /* \"#utility.yul\":2623:2624   */\n              0x00\n                /* \"#utility.yul\":2620:2621   */\n              0x00\n                /* \"#utility.yul\":2613:2625   */\n              revert\n                /* \"#utility.yul\":2564:2627   */\n            tag_105:\n                /* \"#utility.yul\":2511:2633   */\n              pop\n              jump\t// out\n                /* \"#utility.yul\":2639:2778   */\n            tag_71:\n                /* \"#utility.yul\":2685:2690   */\n              0x00\n                /* \"#utility.yul\":2723:2729   */\n              dup2\n                /* \"#utility.yul\":2710:2730   */\n              calldataload\n                /* \"#utility.yul\":2701:2730   */\n              swap1\n              pop\n                /* \"#utility.yul\":2739:2772   */\n              tag_107\n                /* \"#utility.yul\":2766:2771   */\n              dup2\n                /* \"#utility.yul\":2739:2772   */\n              tag_70\n              jump\t// in\n            tag_107:\n                /* \"#utility.yul\":2639:2778   */\n              swap3\n              swap2\n              pop\n              pop\n              jump\t// out\n                /* \"#utility.yul\":2784:3258   */\n            tag_20:\n                /* \"#utility.yul\":2852:2858   */\n              0x00\n                /* \"#utility.yul\":2860:2866   */\n              0x00\n                /* \"#utility.yul\":2909:2911   */\n              0x40\n                /* \"#utility.yul\":2897:2906   */\n              dup4\n                /* \"#utility.yul\":2888:2895   */\n              dup6\n                /* \"#utility.yul\":2884:2907   */\n              sub\n                /* \"#utility.yul\":2880:2912   */\n              slt\n                /* \"#utility.yul\":2877:2996   */\n              iszero\n              tag_109\n              jumpi\n                /* \"#utility.yul\":2915:2994   */\n              tag_110\n              tag_64\n              jump\t// in\n            tag_110:\n                /* \"#utility.yul\":2877:2996   */\n            tag_109:\n                /* \"#utility.yul\":3035:3036   */\n              0x00\n                /* \"#utility.yul\":3060:3113   */\n              tag_111\n                /* \"#utility.yul\":3105:3112   */\n              dup6\n                /* \"#utility.yul\":3096:3102   */\n              dup3\n                /* \"#utility.yul\":3085:3094   */\n              dup7\n                /* \"#utility.yul\":3081:3103   */\n              add\n                /* \"#utility.yul\":3060:3113   */\n              tag_69\n              jump\t// in\n            tag_111:\n                /* \"#utility.yul\":3050:3113   */\n              swap3\n              pop\n                /* \"#utility.yul\":3006:3123   */\n              pop\n                /* \"#utility.yul\":3162:3164   */\n              0x20\n                /* \"#utility.yul\":3188:3241   */\n              tag_112\n                /* \"#utility.yul\":3233:3240   */\n              dup6\n                /* \"#utility.yul\":3224:3230   */\n              dup3\n                /* \"#utility.yul\":3213:3222   */\n              dup7\n                /* \"#utility.yul\":3209:3231   */\n              add\n                /* \"#utility.yul\":3188:3241   */\n              tag_71\n              jump\t// in\n            tag_112:\n                /* \"#utility.yul\":3178:3241   */\n              swap2\n              pop\n                /* \"#utility.yul\":3133:3251   */\n              pop\n                /* \"#utility.yul\":2784:3258   */\n              swap3\n              pop\n              swap3\n              swap1\n              pop\n              jump\t// out\n                /* \"#utility.yul\":3264:3593   */\n            tag_25:\n                /* \"#utility.yul\":3323:3329   */\n              0x00\n                /* \"#utility.yul\":3372:3374   */\n              0x20\n                /* \"#utility.yul\":3360:3369   */\n              dup3\n                /* \"#utility.yul\":3351:3358   */\n              dup5\n                /* \"#utility.yul\":3347:3370   */\n              sub\n                /* \"#utility.yul\":3343:3375   */\n              slt\n                /* \"#utility.yul\":3340:3459   */\n              iszero\n              tag_114\n              jumpi\n                /* \"#utility.yul\":3378:3457   */\n              tag_115\n              tag_64\n              jump\t// in\n            tag_115:\n                /* \"#utility.yul\":3340:3459   */\n            tag_114:\n                /* \"#utility.yul\":3498:3499   */\n              0x00\n                /* \"#utility.yul\":3523:3576   */\n              tag_116\n                /* \"#utility.yul\":3568:3575   */\n              dup5\n                /* \"#utility.yul\":3559:3565   */\n              dup3\n                /* \"#utility.yul\":3548:3557   */\n              dup6\n                /* \"#utility.yul\":3544:3566   */\n              add\n                /* \"#utility.yul\":3523:3576   */\n              tag_69\n              jump\t// in\n            tag_116:\n                /* \"#utility.yul\":3513:3576   */\n              swap2\n              pop\n                /* \"#utility.yul\":3469:3586   */\n              pop\n                /* \"#utility.yul\":3264:3593   */\n              swap3\n              swap2\n              pop\n              pop\n              jump\t// out\n                /* \"#utility.yul\":3599:3717   */\n            tag_72:\n                /* \"#utility.yul\":3686:3710   */\n              tag_118\n                /* \"#utility.yul\":3704:3709   */\n              dup2\n                /* \"#utility.yul\":3686:3710   */\n              tag_67\n              jump\t// in\n            tag_118:\n                /* \"#utility.yul\":3681:3684   */\n              dup3\n                /* \"#utility.yul\":3674:3711   */\n              mstore\n                /* \"#utility.yul\":3599:3717   */\n              pop\n              pop\n              jump\t// out\n                /* \"#utility.yul\":3723:3945   */\n            tag_36:\n                /* \"#utility.yul\":3816:3820   */\n              0x00\n                /* \"#utility.yul\":3854:3856   */\n              0x20\n                /* \"#utility.yul\":3843:3852   */\n              dup3\n                /* \"#utility.yul\":3839:3857   */\n              add\n                /* \"#utility.yul\":3831:3857   */\n              swap1\n              pop\n                /* \"#utility.yul\":3867:3938   */\n              tag_120\n                /* \"#utility.yul\":3935:3936   */\n              0x00\n                /* \"#utility.yul\":3924:3933   */\n              dup4\n                /* \"#utility.yul\":3920:3937   */\n              add\n                /* \"#utility.yul\":3911:3917   */\n              dup5\n                /* \"#utility.yul\":3867:3938   */\n              tag_72\n              jump\t// in\n            tag_120:\n                /* \"#utility.yul\":3723:3945   */\n              swap3\n              swap2\n              pop\n              pop\n              jump\t// out\n                /* \"#utility.yul\":3951:4131   */\n            tag_73:\n                /* \"#utility.yul\":3999:4076   */\n              0x4e487b7100000000000000000000000000000000000000000000000000000000\n                /* \"#utility.yul\":3996:3997   */\n              0x00\n                /* \"#utility.yul\":3989:4077   */\n              mstore\n                /* \"#utility.yul\":4096:4100   */\n              0x22\n                /* \"#utility.yul\":4093:4094   */\n              0x04\n                /* \"#utility.yul\":4086:4101   */\n              mstore\n                /* \"#utility.yul\":4120:4124   */\n              0x24\n                /* \"#utility.yul\":4117:4118   */\n              0x00\n                /* \"#utility.yul\":4110:4125   */\n              revert\n                /* \"#utility.yul\":4137:4457   */\n            tag_38:\n                /* \"#utility.yul\":4181:4187   */\n              0x00\n                /* \"#utility.yul\":4218:4219   */\n              0x02\n                /* \"#utility.yul\":4212:4216   */\n              dup3\n                /* \"#utility.yul\":4208:4220   */\n              div\n                /* \"#utility.yul\":4198:4220   */\n              swap1\n              pop\n                /* \"#utility.yul\":4265:4266   */\n              0x01\n                /* \"#utility.yul\":4259:4263   */\n              dup3\n                /* \"#utility.yul\":4255:4267   */\n              and\n                /* \"#utility.yul\":4286:4304   */\n              dup1\n                /* \"#utility.yul\":4276:4357   */\n              tag_123\n              jumpi\n                /* \"#utility.yul\":4342:4346   */\n              0x7f\n                /* \"#utility.yul\":4334:4340   */\n              dup3\n                /* \"#utility.yul\":4330:4347   */\n              and\n                /* \"#utility.yul\":4320:4347   */\n              swap2\n              pop\n                /* \"#utility.yul\":4276:4357   */\n            tag_123:\n                /* \"#utility.yul\":4404:4406   */\n              0x20\n                /* \"#utility.yul\":4396:4402   */\n              dup3\n                /* \"#utility.yul\":4393:4407   */\n              lt\n                /* \"#utility.yul\":4373:4391   */\n              dup2\n                /* \"#utility.yul\":4370:4408   */\n              sub\n                /* \"#utility.yul\":4367:4451   */\n              tag_124\n              jumpi\n                /* \"#utility.yul\":4423:4441   */\n              tag_125\n              tag_73\n              jump\t// in\n            tag_125:\n                /* \"#utility.yul\":4367:4451   */\n            tag_124:\n                /* \"#utility.yul\":4188:4457   */\n              pop\n                /* \"#utility.yul\":4137:4457   */\n              swap2\n              swap1\n              pop\n              jump\t// out\n                /* \"#utility.yul\":4463:4643   */\n            tag_74:\n                /* \"#utility.yul\":4511:4588   */\n              0x4e487b7100000000000000000000000000000000000000000000000000000000\n                /* \"#utility.yul\":4508:4509   */\n              0x00\n                /* \"#utility.yul\":4501:4589   */\n              mstore\n                /* \"#utility.yul\":4608:4612   */\n              0x11\n                /* \"#utility.yul\":4605:4606   */\n              0x04\n                /* \"#utility.yul\":4598:4613   */\n              mstore\n                /* \"#utility.yul\":4632:4636   */\n              0x24\n                /* \"#utility.yul\":4629:4630   */\n              0x00\n                /* \"#utility.yul\":4622:4637   */\n              revert\n                /* \"#utility.yul\":4649:4843   */\n            tag_46:\n                /* \"#utility.yul\":4689:4693   */\n              0x00\n                /* \"#utility.yul\":4709:4729   */\n              tag_128\n                /* \"#utility.yul\":4727:4728   */\n              dup3\n                /* \"#utility.yul\":4709:4729   */\n              tag_56\n              jump\t// in\n            tag_128:\n                /* \"#utility.yul\":4704:4729   */\n              swap2\n              pop\n                /* \"#utility.yul\":4743:4763   */\n              tag_129\n                /* \"#utility.yul\":4761:4762   */\n              dup4\n                /* \"#utility.yul\":4743:4763   */\n              tag_56\n              jump\t// in\n            tag_129:\n                /* \"#utility.yul\":4738:4763   */\n              swap3\n              pop\n                /* \"#utility.yul\":4787:4788   */\n              dup3\n                /* \"#utility.yul\":4784:4785   */\n              dup3\n                /* \"#utility.yul\":4780:4789   */\n              sub\n                /* \"#utility.yul\":4772:4789   */\n              swap1\n              pop\n                /* \"#utility.yul\":4811:4812   */\n              dup2\n                /* \"#utility.yul\":4805:4809   */\n              dup2\n                /* \"#utility.yul\":4802:4813   */\n              gt\n                /* \"#utility.yul\":4799:4836   */\n              iszero\n              tag_130\n              jumpi\n                /* \"#utility.yul\":4816:4834   */\n              tag_131\n              tag_74\n              jump\t// in\n            tag_131:\n                /* \"#utility.yul\":4799:4836   */\n            tag_130:\n                /* \"#utility.yul\":4649:4843   */\n              swap3\n              swap2\n              pop\n              pop\n              jump\t// out\n                /* \"#utility.yul\":4849:5040   */\n            tag_48:\n                /* \"#utility.yul\":4889:4892   */\n              0x00\n                /* \"#utility.yul\":4908:4928   */\n              tag_133\n                /* \"#utility.yul\":4926:4927   */\n              dup3\n                /* \"#utility.yul\":4908:4928   */\n              tag_56\n              jump\t// in\n            tag_133:\n                /* \"#utility.yul\":4903:4928   */\n              swap2\n              pop\n                /* \"#utility.yul\":4942:4962   */\n              tag_134\n                /* \"#utility.yul\":4960:4961   */\n              dup4\n                /* \"#utility.yul\":4942:4962   */\n              tag_56\n              jump\t// in\n            tag_134:\n                /* \"#utility.yul\":4937:4962   */\n              swap3\n              pop\n                /* \"#utility.yul\":4985:4986   */\n              dup3\n                /* \"#utility.yul\":4982:4983   */\n              dup3\n                /* \"#utility.yul\":4978:4987   */\n              add\n                /* \"#utility.yul\":4971:4987   */\n              swap1\n              pop\n                /* \"#utility.yul\":5006:5009   */\n              dup1\n                /* \"#utility.yul\":5003:5004   */\n              dup3\n                /* \"#utility.yul\":5000:5010   */\n              gt\n                /* \"#utility.yul\":4997:5033   */\n              iszero\n              tag_135\n              jumpi\n                /* \"#utility.yul\":5013:5031   */\n              tag_136\n              tag_74\n              jump\t// in\n            tag_136:\n                /* \"#utility.yul\":4997:5033   */\n            tag_135:\n                /* \"#utility.yul\":4849:5040   */\n              swap3\n              swap2\n              pop\n              pop\n              jump\t// out\n\n            auxdata: 0xa2646970667358221220f160aadb226b9cc11f44c290f85898c5ce509d9c9e51c313ad0b792635a6831264736f6c634300081c0033\n        }\n    }\n\n    auxdata: 0xa26469706673582212201d6acf678adc8bf9ac48a6adcb511bc12304e6b2beeb7768bf147ebdaf34481264736f6c634300081c0033\n}\n",
				"bytecode": {
					"linkReferences": {},
					"object": "6080604052348015600e575f5ffd5b506119008061001c5f395ff3fe608060405260043610610049575f3560e01c80631a45ca741461004d5780638593622814610089578063a8990b8c146100c5578063efdc99c5146100e1578063f2bdc0351461011d575b5f5ffd5b348015610058575f5ffd5b50610073600480360381019061006e9190610834565b610145565b6040516100809190610893565b60405180910390f35b348015610094575f5ffd5b506100af60048036038101906100aa9190610834565b610265565b6040516100bc91906108eb565b60405180910390f35b6100df60048036038101906100da9190610958565b6102ac565b005b3480156100ec575f5ffd5b5061010760048036038101906101029190610834565b610475565b6040516101149190610893565b60405180910390f35b348015610128575f5ffd5b50610143600480360381019061013e91906109c4565b6105a0565b005b5f5f5f836040516101569190610a9e565b90815260200160405180910390205f9054906101000a900473ffffffffffffffffffffffffffffffffffffffff1690505f73ffffffffffffffffffffffffffffffffffffffff168173ffffffffffffffffffffffffffffffffffffffff16036101eb576040517f470cbf4700000000000000000000000000000000000000000000000000000000815260040160405180910390fd5b5f8190508073ffffffffffffffffffffffffffffffffffffffff1663047fc9aa6040518163ffffffff1660e01b8152600401602060405180830381865afa158015610238573d5f5f3e3d5ffd5b505050506040513d601f19601f8201168201806040525081019061025c9190610ac8565b92505050919050565b5f818051602081018201805184825260208301602085012081835280955050505050505f915054906101000a900473ffffffffffffffffffffffffffffffffffffffff1681565b5f73ffffffffffffffffffffffffffffffffffffffff168373ffffffffffffffffffffffffffffffffffffffff1603610311576040517fe6c4247b00000000000000000000000000000000000000000000000000000000815260040160405180910390fd5b5f810361034a576040517f69640e7200000000000000000000000000000000000000000000000000000000815260040160405180910390fd5b5f5f8360405161035a9190610a9e565b90815260200160405180910390205f9054906101000a900473ffffffffffffffffffffffffffffffffffffffff1690505f73ffffffffffffffffffffffffffffffffffffffff168173ffffffffffffffffffffffffffffffffffffffff16036103ef576040517f470cbf4700000000000000000000000000000000000000000000000000000000815260040160405180910390fd5b5f8190508073ffffffffffffffffffffffffffffffffffffffff16632ccb1b3086670de0b6b3a7640000866104249190610b20565b6040518363ffffffff1660e01b8152600401610441929190610b61565b5f604051808303815f87803b158015610458575f5ffd5b505af115801561046a573d5f5f3e3d5ffd5b505050505050505050565b5f5f5f836040516104869190610a9e565b90815260200160405180910390205f9054906101000a900473ffffffffffffffffffffffffffffffffffffffff1690505f73ffffffffffffffffffffffffffffffffffffffff168173ffffffffffffffffffffffffffffffffffffffff160361051b576040517f470cbf4700000000000000000000000000000000000000000000000000000000815260040160405180910390fd5b5f8190508073ffffffffffffffffffffffffffffffffffffffff166370a08231336040518263ffffffff1660e01b815260040161055891906108eb565b602060405180830381865afa158015610573573d5f5f3e3d5ffd5b505050506040513d601f19601f820116820180604052508101906105979190610ac8565b92505050919050565b5f73ffffffffffffffffffffffffffffffffffffffff165f836040516105c69190610a9e565b90815260200160405180910390205f9054906101000a900473ffffffffffffffffffffffffffffffffffffffff1673ffffffffffffffffffffffffffffffffffffffff1614610641576040517f587daa3000000000000000000000000000000000000000000000000000000000815260040160405180910390fd5b5f838383604051610651906106da565b61065d93929190610bd0565b604051809103905ff080158015610676573d5f5f3e3d5ffd5b509050805f846040516106899190610a9e565b90815260200160405180910390205f6101000a81548173ffffffffffffffffffffffffffffffffffffffff021916908373ffffffffffffffffffffffffffffffffffffffff16021790555050505050565b610cb780610c1483390190565b5f604051905090565b5f5ffd5b5f5ffd5b5f5ffd5b5f5ffd5b5f601f19601f8301169050919050565b7f4e487b71000000000000000000000000000000000000000000000000000000005f52604160045260245ffd5b61074682610700565b810181811067ffffffffffffffff8211171561076557610764610710565b5b80604052505050565b5f6107776106e7565b9050610783828261073d565b919050565b5f67ffffffffffffffff8211156107a2576107a1610710565b5b6107ab82610700565b9050602081019050919050565b828183375f83830152505050565b5f6107d86107d384610788565b61076e565b9050828152602081018484840111156107f4576107f36106fc565b5b6107ff8482856107b8565b509392505050565b5f82601f83011261081b5761081a6106f8565b5b813561082b8482602086016107c6565b91505092915050565b5f60208284031215610849576108486106f0565b5b5f82013567ffffffffffffffff811115610866576108656106f4565b5b61087284828501610807565b91505092915050565b5f819050919050565b61088d8161087b565b82525050565b5f6020820190506108a65f830184610884565b92915050565b5f73ffffffffffffffffffffffffffffffffffffffff82169050919050565b5f6108d5826108ac565b9050919050565b6108e5816108cb565b82525050565b5f6020820190506108fe5f8301846108dc565b92915050565b61090d816108cb565b8114610917575f5ffd5b50565b5f8135905061092881610904565b92915050565b6109378161087b565b8114610941575f5ffd5b50565b5f813590506109528161092e565b92915050565b5f5f5f6060848603121561096f5761096e6106f0565b5b5f61097c8682870161091a565b935050602084013567ffffffffffffffff81111561099d5761099c6106f4565b5b6109a986828701610807565b92505060406109ba86828701610944565b9150509250925092565b5f5f5f606084860312156109db576109da6106f0565b5b5f84013567ffffffffffffffff8111156109f8576109f76106f4565b5b610a0486828701610807565b935050602084013567ffffffffffffffff811115610a2557610a246106f4565b5b610a3186828701610807565b9250506040610a4286828701610944565b9150509250925092565b5f81519050919050565b5f81905092915050565b8281835e5f83830152505050565b5f610a7882610a4c565b610a828185610a56565b9350610a92818560208601610a60565b80840191505092915050565b5f610aa98284610a6e565b915081905092915050565b5f81519050610ac28161092e565b92915050565b5f60208284031215610add57610adc6106f0565b5b5f610aea84828501610ab4565b91505092915050565b7f4e487b71000000000000000000000000000000000000000000000000000000005f52601160045260245ffd5b5f610b2a8261087b565b9150610b358361087b565b9250828202610b438161087b565b91508282048414831517610b5a57610b59610af3565b5b5092915050565b5f604082019050610b745f8301856108dc565b610b816020830184610884565b9392505050565b5f82825260208201905092915050565b5f610ba282610a4c565b610bac8185610b88565b9350610bbc818560208601610a60565b610bc581610700565b840191505092915050565b5f6060820190508181035f830152610be88186610b98565b90508181036020830152610bfc8185610b98565b9050610c0b6040830184610884565b94935050505056fe608060405234801561000f575f5ffd5b50604051610cb7380380610cb7833981810160405281019061003191906101f2565b825f908161003f9190610481565b50816001908161004f9190610481565b50670de0b6b3a764000081610064919061057d565b6002819055505050506105be565b5f604051905090565b5f5ffd5b5f5ffd5b5f5ffd5b5f5ffd5b5f601f19601f8301169050919050565b7f4e487b71000000000000000000000000000000000000000000000000000000005f52604160045260245ffd5b6100d18261008b565b810181811067ffffffffffffffff821117156100f0576100ef61009b565b5b80604052505050565b5f610102610072565b905061010e82826100c8565b919050565b5f67ffffffffffffffff82111561012d5761012c61009b565b5b6101368261008b565b9050602081019050919050565b8281835e5f83830152505050565b5f61016361015e84610113565b6100f9565b90508281526020810184848401111561017f5761017e610087565b5b61018a848285610143565b509392505050565b5f82601f8301126101a6576101a5610083565b5b81516101b6848260208601610151565b91505092915050565b5f819050919050565b6101d1816101bf565b81146101db575f5ffd5b50565b5f815190506101ec816101c8565b92915050565b5f5f5f606084860312156102095761020861007b565b5b5f84015167ffffffffffffffff8111156102265761022561007f565b5b61023286828701610192565b935050602084015167ffffffffffffffff8111156102535761025261007f565b5b61025f86828701610192565b9250506040610270868287016101de565b9150509250925092565b5f81519050919050565b7f4e487b71000000000000000000000000000000000000000000000000000000005f52602260045260245ffd5b5f60028204905060018216806102c857607f821691505b6020821081036102db576102da610284565b5b50919050565b5f819050815f5260205f209050919050565b5f6020601f8301049050919050565b5f82821b905092915050565b5f6008830261033d7fffffffffffffffffffffffffffffffffffffffffffffffffffffffffffffffff82610302565b6103478683610302565b95508019841693508086168417925050509392505050565b5f819050919050565b5f61038261037d610378846101bf565b61035f565b6101bf565b9050919050565b5f819050919050565b61039b83610368565b6103af6103a782610389565b84845461030e565b825550505050565b5f5f905090565b6103c66103b7565b6103d1818484610392565b505050565b5b818110156103f4576103e95f826103be565b6001810190506103d7565b5050565b601f8211156104395761040a816102e1565b610413846102f3565b81016020851015610422578190505b61043661042e856102f3565b8301826103d6565b50505b505050565b5f82821c905092915050565b5f6104595f198460080261043e565b1980831691505092915050565b5f610471838361044a565b9150826002028217905092915050565b61048a8261027a565b67ffffffffffffffff8111156104a3576104a261009b565b5b6104ad82546102b1565b6104b88282856103f8565b5f60209050601f8311600181146104e9575f84156104d7578287015190505b6104e18582610466565b865550610548565b601f1984166104f7866102e1565b5f5b8281101561051e578489015182556001820191506020850194506020810190506104f9565b8683101561053b5784890151610537601f89168261044a565b8355505b6001600288020188555050505b505050505050565b7f4e487b71000000000000000000000000000000000000000000000000000000005f52601160045260245ffd5b5f610587826101bf565b9150610592836101bf565b92508282026105a0816101bf565b915082820484148315176105b7576105b6610550565b5b5092915050565b6106ec806105cb5f395ff3fe608060405260043610610054575f3560e01c8063047fc9aa1461005857806306fdde03146100825780632ccb1b30146100ac57806370a08231146100c85780638ba47bdd146101045780638da5cb5b1461012e575b5f5ffd5b348015610063575f5ffd5b5061006c610158565b6040516100799190610404565b60405180910390f35b34801561008d575f5ffd5b5061009661015e565b6040516100a3919061048d565b60405180910390f35b6100c660048036038101906100c19190610535565b6101e9565b005b3480156100d3575f5ffd5b506100ee60048036038101906100e99190610573565b610290565b6040516100fb9190610404565b60405180910390f35b34801561010f575f5ffd5b5061011861033b565b604051610125919061048d565b60405180910390f35b348015610139575f5ffd5b506101426103c7565b60405161014f91906105ad565b60405180910390f35b60025481565b5f805461016a906105f3565b80601f0160208091040260200160405190810160405280929190818152602001828054610196906105f3565b80156101e15780601f106101b8576101008083540402835291602001916101e1565b820191905f5260205f20905b8154815290600101906020018083116101c457829003601f168201915b505050505081565b600254341115610225576040517f69640e7200000000000000000000000000000000000000000000000000000000815260040160405180910390fd5b806002546102339190610650565b6002819055508060045f8473ffffffffffffffffffffffffffffffffffffffff1673ffffffffffffffffffffffffffffffffffffffff1681526020019081526020015f205f8282546102859190610683565b925050819055505050565b5f5f73ffffffffffffffffffffffffffffffffffffffff168273ffffffffffffffffffffffffffffffffffffffff16036102f6576040517fe6c4247b00000000000000000000000000000000000000000000000000000000815260040160405180910390fd5b60045f8373ffffffffffffffffffffffffffffffffffffffff1673ffffffffffffffffffffffffffffffffffffffff1681526020019081526020015f20549050919050565b60018054610348906105f3565b80601f0160208091040260200160405190810160405280929190818152602001828054610374906105f3565b80156103bf5780601f10610396576101008083540402835291602001916103bf565b820191905f5260205f20905b8154815290600101906020018083116103a257829003601f168201915b505050505081565b60035f9054906101000a900473ffffffffffffffffffffffffffffffffffffffff1681565b5f819050919050565b6103fe816103ec565b82525050565b5f6020820190506104175f8301846103f5565b92915050565b5f81519050919050565b5f82825260208201905092915050565b8281835e5f83830152505050565b5f601f19601f8301169050919050565b5f61045f8261041d565b6104698185610427565b9350610479818560208601610437565b61048281610445565b840191505092915050565b5f6020820190508181035f8301526104a58184610455565b905092915050565b5f5ffd5b5f73ffffffffffffffffffffffffffffffffffffffff82169050919050565b5f6104da826104b1565b9050919050565b6104ea816104d0565b81146104f4575f5ffd5b50565b5f81359050610505816104e1565b92915050565b610514816103ec565b811461051e575f5ffd5b50565b5f8135905061052f8161050b565b92915050565b5f5f6040838503121561054b5761054a6104ad565b5b5f610558858286016104f7565b925050602061056985828601610521565b9150509250929050565b5f60208284031215610588576105876104ad565b5b5f610595848285016104f7565b91505092915050565b6105a7816104d0565b82525050565b5f6020820190506105c05f83018461059e565b92915050565b7f4e487b71000000000000000000000000000000000000000000000000000000005f52602260045260245ffd5b5f600282049050600182168061060a57607f821691505b60208210810361061d5761061c6105c6565b5b50919050565b7f4e487b71000000000000000000000000000000000000000000000000000000005f52601160045260245ffd5b5f61065a826103ec565b9150610665836103ec565b925082820390508181111561067d5761067c610623565b5b92915050565b5f61068d826103ec565b9150610698836103ec565b92508282019050808211156106b0576106af610623565b5b9291505056fea2646970667358221220f160aadb226b9cc11f44c290f85898c5ce509d9c9e51c313ad0b792635a6831264736f6c634300081c0033a26469706673582212201d6acf678adc8bf9ac48a6adcb511bc12304e6b2beeb7768bf147ebdaf34481264736f6c634300081c0033",
					"opcodes": "PUSH1 0x80 PUSH1 0x40 MSTORE CALLVALUE DUP1 ISZERO PUSH1 0xE JUMPI PUSH0 PUSH0 REVERT JUMPDEST POP PUSH2 0x1900 DUP1 PUSH2 0x1C PUSH0 CODECOPY PUSH0 RETURN INVALID PUSH1 0x80 PUSH1 0x40 MSTORE PUSH1 0x4 CALLDATASIZE LT PUSH2 0x49 JUMPI PUSH0 CALLDATALOAD PUSH1 0xE0 SHR DUP1 PUSH4 0x1A45CA74 EQ PUSH2 0x4D JUMPI DUP1 PUSH4 0x85936228 EQ PUSH2 0x89 JUMPI DUP1 PUSH4 0xA8990B8C EQ PUSH2 0xC5 JUMPI DUP1 PUSH4 0xEFDC99C5 EQ PUSH2 0xE1 JUMPI DUP1 PUSH4 0xF2BDC035 EQ PUSH2 0x11D JUMPI JUMPDEST PUSH0 PUSH0 REVERT JUMPDEST CALLVALUE DUP1 ISZERO PUSH2 0x58 JUMPI PUSH0 PUSH0 REVERT JUMPDEST POP PUSH2 0x73 PUSH1 0x4 DUP1 CALLDATASIZE SUB DUP2 ADD SWAP1 PUSH2 0x6E SWAP2 SWAP1 PUSH2 0x834 JUMP JUMPDEST PUSH2 0x145 JUMP JUMPDEST PUSH1 0x40 MLOAD PUSH2 0x80 SWAP2 SWAP1 PUSH2 0x893 JUMP JUMPDEST PUSH1 0x40 MLOAD DUP1 SWAP2 SUB SWAP1 RETURN JUMPDEST CALLVALUE DUP1 ISZERO PUSH2 0x94 JUMPI PUSH0 PUSH0 REVERT JUMPDEST POP PUSH2 0xAF PUSH1 0x4 DUP1 CALLDATASIZE SUB DUP2 ADD SWAP1 PUSH2 0xAA SWAP2 SWAP1 PUSH2 0x834 JUMP JUMPDEST PUSH2 0x265 JUMP JUMPDEST PUSH1 0x40 MLOAD PUSH2 0xBC SWAP2 SWAP1 PUSH2 0x8EB JUMP JUMPDEST PUSH1 0x40 MLOAD DUP1 SWAP2 SUB SWAP1 RETURN JUMPDEST PUSH2 0xDF PUSH1 0x4 DUP1 CALLDATASIZE SUB DUP2 ADD SWAP1 PUSH2 0xDA SWAP2 SWAP1 PUSH2 0x958 JUMP JUMPDEST PUSH2 0x2AC JUMP JUMPDEST STOP JUMPDEST CALLVALUE DUP1 ISZERO PUSH2 0xEC JUMPI PUSH0 PUSH0 REVERT JUMPDEST POP PUSH2 0x107 PUSH1 0x4 DUP1 CALLDATASIZE SUB DUP2 ADD SWAP1 PUSH2 0x102 SWAP2 SWAP1 PUSH2 0x834 JUMP JUMPDEST PUSH2 0x475 JUMP JUMPDEST PUSH1 0x40 MLOAD PUSH2 0x114 SWAP2 SWAP1 PUSH2 0x893 JUMP JUMPDEST PUSH1 0x40 MLOAD DUP1 SWAP2 SUB SWAP1 RETURN JUMPDEST CALLVALUE DUP1 ISZERO PUSH2 0x128 JUMPI PUSH0 PUSH0 REVERT JUMPDEST POP PUSH2 0x143 PUSH1 0x4 DUP1 CALLDATASIZE SUB DUP2 ADD SWAP1 PUSH2 0x13E SWAP2 SWAP1 PUSH2 0x9C4 JUMP JUMPDEST PUSH2 0x5A0 JUMP JUMPDEST STOP JUMPDEST PUSH0 PUSH0 PUSH0 DUP4 PUSH1 0x40 MLOAD PUSH2 0x156 SWAP2 SWAP1 PUSH2 0xA9E JUMP JUMPDEST SWAP1 DUP2 MSTORE PUSH1 0x20 ADD PUSH1 0x40 MLOAD DUP1 SWAP2 SUB SWAP1 KECCAK256 PUSH0 SWAP1 SLOAD SWAP1 PUSH2 0x100 EXP SWAP1 DIV PUSH20 0xFFFFFFFFFFFFFFFFFFFFFFFFFFFFFFFFFFFFFFFF AND SWAP1 POP PUSH0 PUSH20 0xFFFFFFFFFFFFFFFFFFFFFFFFFFFFFFFFFFFFFFFF AND DUP2 PUSH20 0xFFFFFFFFFFFFFFFFFFFFFFFFFFFFFFFFFFFFFFFF AND SUB PUSH2 0x1EB JUMPI PUSH1 0x40 MLOAD PUSH32 0x470CBF4700000000000000000000000000000000000000000000000000000000 DUP2 MSTORE PUSH1 0x4 ADD PUSH1 0x40 MLOAD DUP1 SWAP2 SUB SWAP1 REVERT JUMPDEST PUSH0 DUP2 SWAP1 POP DUP1 PUSH20 0xFFFFFFFFFFFFFFFFFFFFFFFFFFFFFFFFFFFFFFFF AND PUSH4 0x47FC9AA PUSH1 0x40 MLOAD DUP2 PUSH4 0xFFFFFFFF AND PUSH1 0xE0 SHL DUP2 MSTORE PUSH1 0x4 ADD PUSH1 0x20 PUSH1 0x40 MLOAD DUP1 DUP4 SUB DUP2 DUP7 GAS STATICCALL ISZERO DUP1 ISZERO PUSH2 0x238 JUMPI RETURNDATASIZE PUSH0 PUSH0 RETURNDATACOPY RETURNDATASIZE PUSH0 REVERT JUMPDEST POP POP POP POP PUSH1 0x40 MLOAD RETURNDATASIZE PUSH1 0x1F NOT PUSH1 0x1F DUP3 ADD AND DUP3 ADD DUP1 PUSH1 0x40 MSTORE POP DUP2 ADD SWAP1 PUSH2 0x25C SWAP2 SWAP1 PUSH2 0xAC8 JUMP JUMPDEST SWAP3 POP POP POP SWAP2 SWAP1 POP JUMP JUMPDEST PUSH0 DUP2 DUP1 MLOAD PUSH1 0x20 DUP2 ADD DUP3 ADD DUP1 MLOAD DUP5 DUP3 MSTORE PUSH1 0x20 DUP4 ADD PUSH1 0x20 DUP6 ADD KECCAK256 DUP2 DUP4 MSTORE DUP1 SWAP6 POP POP POP POP POP POP PUSH0 SWAP2 POP SLOAD SWAP1 PUSH2 0x100 EXP SWAP1 DIV PUSH20 0xFFFFFFFFFFFFFFFFFFFFFFFFFFFFFFFFFFFFFFFF AND DUP2 JUMP JUMPDEST PUSH0 PUSH20 0xFFFFFFFFFFFFFFFFFFFFFFFFFFFFFFFFFFFFFFFF AND DUP4 PUSH20 0xFFFFFFFFFFFFFFFFFFFFFFFFFFFFFFFFFFFFFFFF AND SUB PUSH2 0x311 JUMPI PUSH1 0x40 MLOAD PUSH32 0xE6C4247B00000000000000000000000000000000000000000000000000000000 DUP2 MSTORE PUSH1 0x4 ADD PUSH1 0x40 MLOAD DUP1 SWAP2 SUB SWAP1 REVERT JUMPDEST PUSH0 DUP2 SUB PUSH2 0x34A JUMPI PUSH1 0x40 MLOAD PUSH32 0x69640E7200000000000000000000000000000000000000000000000000000000 DUP2 MSTORE PUSH1 0x4 ADD PUSH1 0x40 MLOAD DUP1 SWAP2 SUB SWAP1 REVERT JUMPDEST PUSH0 PUSH0 DUP4 PUSH1 0x40 MLOAD PUSH2 0x35A SWAP2 SWAP1 PUSH2 0xA9E JUMP JUMPDEST SWAP1 DUP2 MSTORE PUSH1 0x20 ADD PUSH1 0x40 MLOAD DUP1 SWAP2 SUB SWAP1 KECCAK256 PUSH0 SWAP1 SLOAD SWAP1 PUSH2 0x100 EXP SWAP1 DIV PUSH20 0xFFFFFFFFFFFFFFFFFFFFFFFFFFFFFFFFFFFFFFFF AND SWAP1 POP PUSH0 PUSH20 0xFFFFFFFFFFFFFFFFFFFFFFFFFFFFFFFFFFFFFFFF AND DUP2 PUSH20 0xFFFFFFFFFFFFFFFFFFFFFFFFFFFFFFFFFFFFFFFF AND SUB PUSH2 0x3EF JUMPI PUSH1 0x40 MLOAD PUSH32 0x470CBF4700000000000000000000000000000000000000000000000000000000 DUP2 MSTORE PUSH1 0x4 ADD PUSH1 0x40 MLOAD DUP1 SWAP2 SUB SWAP1 REVERT JUMPDEST PUSH0 DUP2 SWAP1 POP DUP1 PUSH20 0xFFFFFFFFFFFFFFFFFFFFFFFFFFFFFFFFFFFFFFFF AND PUSH4 0x2CCB1B30 DUP7 PUSH8 0xDE0B6B3A7640000 DUP7 PUSH2 0x424 SWAP2 SWAP1 PUSH2 0xB20 JUMP JUMPDEST PUSH1 0x40 MLOAD DUP4 PUSH4 0xFFFFFFFF AND PUSH1 0xE0 SHL DUP2 MSTORE PUSH1 0x4 ADD PUSH2 0x441 SWAP3 SWAP2 SWAP1 PUSH2 0xB61 JUMP JUMPDEST PUSH0 PUSH1 0x40 MLOAD DUP1 DUP4 SUB DUP2 PUSH0 DUP8 DUP1 EXTCODESIZE ISZERO DUP1 ISZERO PUSH2 0x458 JUMPI PUSH0 PUSH0 REVERT JUMPDEST POP GAS CALL ISZERO DUP1 ISZERO PUSH2 0x46A JUMPI RETURNDATASIZE PUSH0 PUSH0 RETURNDATACOPY RETURNDATASIZE PUSH0 REVERT JUMPDEST POP POP POP POP POP POP POP POP POP JUMP JUMPDEST PUSH0 PUSH0 PUSH0 DUP4 PUSH1 0x40 MLOAD PUSH2 0x486 SWAP2 SWAP1 PUSH2 0xA9E JUMP JUMPDEST SWAP1 DUP2 MSTORE PUSH1 0x20 ADD PUSH1 0x40 MLOAD DUP1 SWAP2 SUB SWAP1 KECCAK256 PUSH0 SWAP1 SLOAD SWAP1 PUSH2 0x100 EXP SWAP1 DIV PUSH20 0xFFFFFFFFFFFFFFFFFFFFFFFFFFFFFFFFFFFFFFFF AND SWAP1 POP PUSH0 PUSH20 0xFFFFFFFFFFFFFFFFFFFFFFFFFFFFFFFFFFFFFFFF AND DUP2 PUSH20 0xFFFFFFFFFFFFFFFFFFFFFFFFFFFFFFFFFFFFFFFF AND SUB PUSH2 0x51B JUMPI PUSH1 0x40 MLOAD PUSH32 0x470CBF4700000000000000000000000000000000000000000000000000000000 DUP2 MSTORE PUSH1 0x4 ADD PUSH1 0x40 MLOAD DUP1 SWAP2 SUB SWAP1 REVERT JUMPDEST PUSH0 DUP2 SWAP1 POP DUP1 PUSH20 0xFFFFFFFFFFFFFFFFFFFFFFFFFFFFFFFFFFFFFFFF AND PUSH4 0x70A08231 CALLER PUSH1 0x40 MLOAD DUP3 PUSH4 0xFFFFFFFF AND PUSH1 0xE0 SHL DUP2 MSTORE PUSH1 0x4 ADD PUSH2 0x558 SWAP2 SWAP1 PUSH2 0x8EB JUMP JUMPDEST PUSH1 0x20 PUSH1 0x40 MLOAD DUP1 DUP4 SUB DUP2 DUP7 GAS STATICCALL ISZERO DUP1 ISZERO PUSH2 0x573 JUMPI RETURNDATASIZE PUSH0 PUSH0 RETURNDATACOPY RETURNDATASIZE PUSH0 REVERT JUMPDEST POP POP POP POP PUSH1 0x40 MLOAD RETURNDATASIZE PUSH1 0x1F NOT PUSH1 0x1F DUP3 ADD AND DUP3 ADD DUP1 PUSH1 0x40 MSTORE POP DUP2 ADD SWAP1 PUSH2 0x597 SWAP2 SWAP1 PUSH2 0xAC8 JUMP JUMPDEST SWAP3 POP POP POP SWAP2 SWAP1 POP JUMP JUMPDEST PUSH0 PUSH20 0xFFFFFFFFFFFFFFFFFFFFFFFFFFFFFFFFFFFFFFFF AND PUSH0 DUP4 PUSH1 0x40 MLOAD PUSH2 0x5C6 SWAP2 SWAP1 PUSH2 0xA9E JUMP JUMPDEST SWAP1 DUP2 MSTORE PUSH1 0x20 ADD PUSH1 0x40 MLOAD DUP1 SWAP2 SUB SWAP1 KECCAK256 PUSH0 SWAP1 SLOAD SWAP1 PUSH2 0x100 EXP SWAP1 DIV PUSH20 0xFFFFFFFFFFFFFFFFFFFFFFFFFFFFFFFFFFFFFFFF AND PUSH20 0xFFFFFFFFFFFFFFFFFFFFFFFFFFFFFFFFFFFFFFFF AND EQ PUSH2 0x641 JUMPI PUSH1 0x40 MLOAD PUSH32 0x587DAA3000000000000000000000000000000000000000000000000000000000 DUP2 MSTORE PUSH1 0x4 ADD PUSH1 0x40 MLOAD DUP1 SWAP2 SUB SWAP1 REVERT JUMPDEST PUSH0 DUP4 DUP4 DUP4 PUSH1 0x40 MLOAD PUSH2 0x651 SWAP1 PUSH2 0x6DA JUMP JUMPDEST PUSH2 0x65D SWAP4 SWAP3 SWAP2 SWAP1 PUSH2 0xBD0 JUMP JUMPDEST PUSH1 0x40 MLOAD DUP1 SWAP2 SUB SWAP1 PUSH0 CREATE DUP1 ISZERO DUP1 ISZERO PUSH2 0x676 JUMPI RETURNDATASIZE PUSH0 PUSH0 RETURNDATACOPY RETURNDATASIZE PUSH0 REVERT JUMPDEST POP SWAP1 POP DUP1 PUSH0 DUP5 PUSH1 0x40 MLOAD PUSH2 0x689 SWAP2 SWAP1 PUSH2 0xA9E JUMP JUMPDEST SWAP1 DUP2 MSTORE PUSH1 0x20 ADD PUSH1 0x40 MLOAD DUP1 SWAP2 SUB SWAP1 KECCAK256 PUSH0 PUSH2 0x100 EXP DUP2 SLOAD DUP2 PUSH20 0xFFFFFFFFFFFFFFFFFFFFFFFFFFFFFFFFFFFFFFFF MUL NOT AND SWAP1 DUP4 PUSH20 0xFFFFFFFFFFFFFFFFFFFFFFFFFFFFFFFFFFFFFFFF AND MUL OR SWAP1 SSTORE POP POP POP POP POP JUMP JUMPDEST PUSH2 0xCB7 DUP1 PUSH2 0xC14 DUP4 CODECOPY ADD SWAP1 JUMP JUMPDEST PUSH0 PUSH1 0x40 MLOAD SWAP1 POP SWAP1 JUMP JUMPDEST PUSH0 PUSH0 REVERT JUMPDEST PUSH0 PUSH0 REVERT JUMPDEST PUSH0 PUSH0 REVERT JUMPDEST PUSH0 PUSH0 REVERT JUMPDEST PUSH0 PUSH1 0x1F NOT PUSH1 0x1F DUP4 ADD AND SWAP1 POP SWAP2 SWAP1 POP JUMP JUMPDEST PUSH32 0x4E487B7100000000000000000000000000000000000000000000000000000000 PUSH0 MSTORE PUSH1 0x41 PUSH1 0x4 MSTORE PUSH1 0x24 PUSH0 REVERT JUMPDEST PUSH2 0x746 DUP3 PUSH2 0x700 JUMP JUMPDEST DUP2 ADD DUP2 DUP2 LT PUSH8 0xFFFFFFFFFFFFFFFF DUP3 GT OR ISZERO PUSH2 0x765 JUMPI PUSH2 0x764 PUSH2 0x710 JUMP JUMPDEST JUMPDEST DUP1 PUSH1 0x40 MSTORE POP POP POP JUMP JUMPDEST PUSH0 PUSH2 0x777 PUSH2 0x6E7 JUMP JUMPDEST SWAP1 POP PUSH2 0x783 DUP3 DUP3 PUSH2 0x73D JUMP JUMPDEST SWAP2 SWAP1 POP JUMP JUMPDEST PUSH0 PUSH8 0xFFFFFFFFFFFFFFFF DUP3 GT ISZERO PUSH2 0x7A2 JUMPI PUSH2 0x7A1 PUSH2 0x710 JUMP JUMPDEST JUMPDEST PUSH2 0x7AB DUP3 PUSH2 0x700 JUMP JUMPDEST SWAP1 POP PUSH1 0x20 DUP2 ADD SWAP1 POP SWAP2 SWAP1 POP JUMP JUMPDEST DUP3 DUP2 DUP4 CALLDATACOPY PUSH0 DUP4 DUP4 ADD MSTORE POP POP POP JUMP JUMPDEST PUSH0 PUSH2 0x7D8 PUSH2 0x7D3 DUP5 PUSH2 0x788 JUMP JUMPDEST PUSH2 0x76E JUMP JUMPDEST SWAP1 POP DUP3 DUP2 MSTORE PUSH1 0x20 DUP2 ADD DUP5 DUP5 DUP5 ADD GT ISZERO PUSH2 0x7F4 JUMPI PUSH2 0x7F3 PUSH2 0x6FC JUMP JUMPDEST JUMPDEST PUSH2 0x7FF DUP5 DUP3 DUP6 PUSH2 0x7B8 JUMP JUMPDEST POP SWAP4 SWAP3 POP POP POP JUMP JUMPDEST PUSH0 DUP3 PUSH1 0x1F DUP4 ADD SLT PUSH2 0x81B JUMPI PUSH2 0x81A PUSH2 0x6F8 JUMP JUMPDEST JUMPDEST DUP2 CALLDATALOAD PUSH2 0x82B DUP5 DUP3 PUSH1 0x20 DUP7 ADD PUSH2 0x7C6 JUMP JUMPDEST SWAP2 POP POP SWAP3 SWAP2 POP POP JUMP JUMPDEST PUSH0 PUSH1 0x20 DUP3 DUP5 SUB SLT ISZERO PUSH2 0x849 JUMPI PUSH2 0x848 PUSH2 0x6F0 JUMP JUMPDEST JUMPDEST PUSH0 DUP3 ADD CALLDATALOAD PUSH8 0xFFFFFFFFFFFFFFFF DUP2 GT ISZERO PUSH2 0x866 JUMPI PUSH2 0x865 PUSH2 0x6F4 JUMP JUMPDEST JUMPDEST PUSH2 0x872 DUP5 DUP3 DUP6 ADD PUSH2 0x807 JUMP JUMPDEST SWAP2 POP POP SWAP3 SWAP2 POP POP JUMP JUMPDEST PUSH0 DUP2 SWAP1 POP SWAP2 SWAP1 POP JUMP JUMPDEST PUSH2 0x88D DUP2 PUSH2 0x87B JUMP JUMPDEST DUP3 MSTORE POP POP JUMP JUMPDEST PUSH0 PUSH1 0x20 DUP3 ADD SWAP1 POP PUSH2 0x8A6 PUSH0 DUP4 ADD DUP5 PUSH2 0x884 JUMP JUMPDEST SWAP3 SWAP2 POP POP JUMP JUMPDEST PUSH0 PUSH20 0xFFFFFFFFFFFFFFFFFFFFFFFFFFFFFFFFFFFFFFFF DUP3 AND SWAP1 POP SWAP2 SWAP1 POP JUMP JUMPDEST PUSH0 PUSH2 0x8D5 DUP3 PUSH2 0x8AC JUMP JUMPDEST SWAP1 POP SWAP2 SWAP1 POP JUMP JUMPDEST PUSH2 0x8E5 DUP2 PUSH2 0x8CB JUMP JUMPDEST DUP3 MSTORE POP POP JUMP JUMPDEST PUSH0 PUSH1 0x20 DUP3 ADD SWAP1 POP PUSH2 0x8FE PUSH0 DUP4 ADD DUP5 PUSH2 0x8DC JUMP JUMPDEST SWAP3 SWAP2 POP POP JUMP JUMPDEST PUSH2 0x90D DUP2 PUSH2 0x8CB JUMP JUMPDEST DUP2 EQ PUSH2 0x917 JUMPI PUSH0 PUSH0 REVERT JUMPDEST POP JUMP JUMPDEST PUSH0 DUP2 CALLDATALOAD SWAP1 POP PUSH2 0x928 DUP2 PUSH2 0x904 JUMP JUMPDEST SWAP3 SWAP2 POP POP JUMP JUMPDEST PUSH2 0x937 DUP2 PUSH2 0x87B JUMP JUMPDEST DUP2 EQ PUSH2 0x941 JUMPI PUSH0 PUSH0 REVERT JUMPDEST POP JUMP JUMPDEST PUSH0 DUP2 CALLDATALOAD SWAP1 POP PUSH2 0x952 DUP2 PUSH2 0x92E JUMP JUMPDEST SWAP3 SWAP2 POP POP JUMP JUMPDEST PUSH0 PUSH0 PUSH0 PUSH1 0x60 DUP5 DUP7 SUB SLT ISZERO PUSH2 0x96F JUMPI PUSH2 0x96E PUSH2 0x6F0 JUMP JUMPDEST JUMPDEST PUSH0 PUSH2 0x97C DUP7 DUP3 DUP8 ADD PUSH2 0x91A JUMP JUMPDEST SWAP4 POP POP PUSH1 0x20 DUP5 ADD CALLDATALOAD PUSH8 0xFFFFFFFFFFFFFFFF DUP2 GT ISZERO PUSH2 0x99D JUMPI PUSH2 0x99C PUSH2 0x6F4 JUMP JUMPDEST JUMPDEST PUSH2 0x9A9 DUP7 DUP3 DUP8 ADD PUSH2 0x807 JUMP JUMPDEST SWAP3 POP POP PUSH1 0x40 PUSH2 0x9BA DUP7 DUP3 DUP8 ADD PUSH2 0x944 JUMP JUMPDEST SWAP2 POP POP SWAP3 POP SWAP3 POP SWAP3 JUMP JUMPDEST PUSH0 PUSH0 PUSH0 PUSH1 0x60 DUP5 DUP7 SUB SLT ISZERO PUSH2 0x9DB JUMPI PUSH2 0x9DA PUSH2 0x6F0 JUMP JUMPDEST JUMPDEST PUSH0 DUP5 ADD CALLDATALOAD PUSH8 0xFFFFFFFFFFFFFFFF DUP2 GT ISZERO PUSH2 0x9F8 JUMPI PUSH2 0x9F7 PUSH2 0x6F4 JUMP JUMPDEST JUMPDEST PUSH2 0xA04 DUP7 DUP3 DUP8 ADD PUSH2 0x807 JUMP JUMPDEST SWAP4 POP POP PUSH1 0x20 DUP5 ADD CALLDATALOAD PUSH8 0xFFFFFFFFFFFFFFFF DUP2 GT ISZERO PUSH2 0xA25 JUMPI PUSH2 0xA24 PUSH2 0x6F4 JUMP JUMPDEST JUMPDEST PUSH2 0xA31 DUP7 DUP3 DUP8 ADD PUSH2 0x807 JUMP JUMPDEST SWAP3 POP POP PUSH1 0x40 PUSH2 0xA42 DUP7 DUP3 DUP8 ADD PUSH2 0x944 JUMP JUMPDEST SWAP2 POP POP SWAP3 POP SWAP3 POP SWAP3 JUMP JUMPDEST PUSH0 DUP2 MLOAD SWAP1 POP SWAP2 SWAP1 POP JUMP JUMPDEST PUSH0 DUP2 SWAP1 POP SWAP3 SWAP2 POP POP JUMP JUMPDEST DUP3 DUP2 DUP4 MCOPY PUSH0 DUP4 DUP4 ADD MSTORE POP POP POP JUMP JUMPDEST PUSH0 PUSH2 0xA78 DUP3 PUSH2 0xA4C JUMP JUMPDEST PUSH2 0xA82 DUP2 DUP6 PUSH2 0xA56 JUMP JUMPDEST SWAP4 POP PUSH2 0xA92 DUP2 DUP6 PUSH1 0x20 DUP7 ADD PUSH2 0xA60 JUMP JUMPDEST DUP1 DUP5 ADD SWAP2 POP POP SWAP3 SWAP2 POP POP JUMP JUMPDEST PUSH0 PUSH2 0xAA9 DUP3 DUP5 PUSH2 0xA6E JUMP JUMPDEST SWAP2 POP DUP2 SWAP1 POP SWAP3 SWAP2 POP POP JUMP JUMPDEST PUSH0 DUP2 MLOAD SWAP1 POP PUSH2 0xAC2 DUP2 PUSH2 0x92E JUMP JUMPDEST SWAP3 SWAP2 POP POP JUMP JUMPDEST PUSH0 PUSH1 0x20 DUP3 DUP5 SUB SLT ISZERO PUSH2 0xADD JUMPI PUSH2 0xADC PUSH2 0x6F0 JUMP JUMPDEST JUMPDEST PUSH0 PUSH2 0xAEA DUP5 DUP3 DUP6 ADD PUSH2 0xAB4 JUMP JUMPDEST SWAP2 POP POP SWAP3 SWAP2 POP POP JUMP JUMPDEST PUSH32 0x4E487B7100000000000000000000000000000000000000000000000000000000 PUSH0 MSTORE PUSH1 0x11 PUSH1 0x4 MSTORE PUSH1 0x24 PUSH0 REVERT JUMPDEST PUSH0 PUSH2 0xB2A DUP3 PUSH2 0x87B JUMP JUMPDEST SWAP2 POP PUSH2 0xB35 DUP4 PUSH2 0x87B JUMP JUMPDEST SWAP3 POP DUP3 DUP3 MUL PUSH2 0xB43 DUP2 PUSH2 0x87B JUMP JUMPDEST SWAP2 POP DUP3 DUP3 DIV DUP5 EQ DUP4 ISZERO OR PUSH2 0xB5A JUMPI PUSH2 0xB59 PUSH2 0xAF3 JUMP JUMPDEST JUMPDEST POP SWAP3 SWAP2 POP POP JUMP JUMPDEST PUSH0 PUSH1 0x40 DUP3 ADD SWAP1 POP PUSH2 0xB74 PUSH0 DUP4 ADD DUP6 PUSH2 0x8DC JUMP JUMPDEST PUSH2 0xB81 PUSH1 0x20 DUP4 ADD DUP5 PUSH2 0x884 JUMP JUMPDEST SWAP4 SWAP3 POP POP POP JUMP JUMPDEST PUSH0 DUP3 DUP3 MSTORE PUSH1 0x20 DUP3 ADD SWAP1 POP SWAP3 SWAP2 POP POP JUMP JUMPDEST PUSH0 PUSH2 0xBA2 DUP3 PUSH2 0xA4C JUMP JUMPDEST PUSH2 0xBAC DUP2 DUP6 PUSH2 0xB88 JUMP JUMPDEST SWAP4 POP PUSH2 0xBBC DUP2 DUP6 PUSH1 0x20 DUP7 ADD PUSH2 0xA60 JUMP JUMPDEST PUSH2 0xBC5 DUP2 PUSH2 0x700 JUMP JUMPDEST DUP5 ADD SWAP2 POP POP SWAP3 SWAP2 POP POP JUMP JUMPDEST PUSH0 PUSH1 0x60 DUP3 ADD SWAP1 POP DUP2 DUP2 SUB PUSH0 DUP4 ADD MSTORE PUSH2 0xBE8 DUP2 DUP7 PUSH2 0xB98 JUMP JUMPDEST SWAP1 POP DUP2 DUP2 SUB PUSH1 0x20 DUP4 ADD MSTORE PUSH2 0xBFC DUP2 DUP6 PUSH2 0xB98 JUMP JUMPDEST SWAP1 POP PUSH2 0xC0B PUSH1 0x40 DUP4 ADD DUP5 PUSH2 0x884 JUMP JUMPDEST SWAP5 SWAP4 POP POP POP POP JUMP INVALID PUSH1 0x80 PUSH1 0x40 MSTORE CALLVALUE DUP1 ISZERO PUSH2 0xF JUMPI PUSH0 PUSH0 REVERT JUMPDEST POP PUSH1 0x40 MLOAD PUSH2 0xCB7 CODESIZE SUB DUP1 PUSH2 0xCB7 DUP4 CODECOPY DUP2 DUP2 ADD PUSH1 0x40 MSTORE DUP2 ADD SWAP1 PUSH2 0x31 SWAP2 SWAP1 PUSH2 0x1F2 JUMP JUMPDEST DUP3 PUSH0 SWAP1 DUP2 PUSH2 0x3F SWAP2 SWAP1 PUSH2 0x481 JUMP JUMPDEST POP DUP2 PUSH1 0x1 SWAP1 DUP2 PUSH2 0x4F SWAP2 SWAP1 PUSH2 0x481 JUMP JUMPDEST POP PUSH8 0xDE0B6B3A7640000 DUP2 PUSH2 0x64 SWAP2 SWAP1 PUSH2 0x57D JUMP JUMPDEST PUSH1 0x2 DUP2 SWAP1 SSTORE POP POP POP POP PUSH2 0x5BE JUMP JUMPDEST PUSH0 PUSH1 0x40 MLOAD SWAP1 POP SWAP1 JUMP JUMPDEST PUSH0 PUSH0 REVERT JUMPDEST PUSH0 PUSH0 REVERT JUMPDEST PUSH0 PUSH0 REVERT JUMPDEST PUSH0 PUSH0 REVERT JUMPDEST PUSH0 PUSH1 0x1F NOT PUSH1 0x1F DUP4 ADD AND SWAP1 POP SWAP2 SWAP1 POP JUMP JUMPDEST PUSH32 0x4E487B7100000000000000000000000000000000000000000000000000000000 PUSH0 MSTORE PUSH1 0x41 PUSH1 0x4 MSTORE PUSH1 0x24 PUSH0 REVERT JUMPDEST PUSH2 0xD1 DUP3 PUSH2 0x8B JUMP JUMPDEST DUP2 ADD DUP2 DUP2 LT PUSH8 0xFFFFFFFFFFFFFFFF DUP3 GT OR ISZERO PUSH2 0xF0 JUMPI PUSH2 0xEF PUSH2 0x9B JUMP JUMPDEST JUMPDEST DUP1 PUSH1 0x40 MSTORE POP POP POP JUMP JUMPDEST PUSH0 PUSH2 0x102 PUSH2 0x72 JUMP JUMPDEST SWAP1 POP PUSH2 0x10E DUP3 DUP3 PUSH2 0xC8 JUMP JUMPDEST SWAP2 SWAP1 POP JUMP JUMPDEST PUSH0 PUSH8 0xFFFFFFFFFFFFFFFF DUP3 GT ISZERO PUSH2 0x12D JUMPI PUSH2 0x12C PUSH2 0x9B JUMP JUMPDEST JUMPDEST PUSH2 0x136 DUP3 PUSH2 0x8B JUMP JUMPDEST SWAP1 POP PUSH1 0x20 DUP2 ADD SWAP1 POP SWAP2 SWAP1 POP JUMP JUMPDEST DUP3 DUP2 DUP4 MCOPY PUSH0 DUP4 DUP4 ADD MSTORE POP POP POP JUMP JUMPDEST PUSH0 PUSH2 0x163 PUSH2 0x15E DUP5 PUSH2 0x113 JUMP JUMPDEST PUSH2 0xF9 JUMP JUMPDEST SWAP1 POP DUP3 DUP2 MSTORE PUSH1 0x20 DUP2 ADD DUP5 DUP5 DUP5 ADD GT ISZERO PUSH2 0x17F JUMPI PUSH2 0x17E PUSH2 0x87 JUMP JUMPDEST JUMPDEST PUSH2 0x18A DUP5 DUP3 DUP6 PUSH2 0x143 JUMP JUMPDEST POP SWAP4 SWAP3 POP POP POP JUMP JUMPDEST PUSH0 DUP3 PUSH1 0x1F DUP4 ADD SLT PUSH2 0x1A6 JUMPI PUSH2 0x1A5 PUSH2 0x83 JUMP JUMPDEST JUMPDEST DUP2 MLOAD PUSH2 0x1B6 DUP5 DUP3 PUSH1 0x20 DUP7 ADD PUSH2 0x151 JUMP JUMPDEST SWAP2 POP POP SWAP3 SWAP2 POP POP JUMP JUMPDEST PUSH0 DUP2 SWAP1 POP SWAP2 SWAP1 POP JUMP JUMPDEST PUSH2 0x1D1 DUP2 PUSH2 0x1BF JUMP JUMPDEST DUP2 EQ PUSH2 0x1DB JUMPI PUSH0 PUSH0 REVERT JUMPDEST POP JUMP JUMPDEST PUSH0 DUP2 MLOAD SWAP1 POP PUSH2 0x1EC DUP2 PUSH2 0x1C8 JUMP JUMPDEST SWAP3 SWAP2 POP POP JUMP JUMPDEST PUSH0 PUSH0 PUSH0 PUSH1 0x60 DUP5 DUP7 SUB SLT ISZERO PUSH2 0x209 JUMPI PUSH2 0x208 PUSH2 0x7B JUMP JUMPDEST JUMPDEST PUSH0 DUP5 ADD MLOAD PUSH8 0xFFFFFFFFFFFFFFFF DUP2 GT ISZERO PUSH2 0x226 JUMPI PUSH2 0x225 PUSH2 0x7F JUMP JUMPDEST JUMPDEST PUSH2 0x232 DUP7 DUP3 DUP8 ADD PUSH2 0x192 JUMP JUMPDEST SWAP4 POP POP PUSH1 0x20 DUP5 ADD MLOAD PUSH8 0xFFFFFFFFFFFFFFFF DUP2 GT ISZERO PUSH2 0x253 JUMPI PUSH2 0x252 PUSH2 0x7F JUMP JUMPDEST JUMPDEST PUSH2 0x25F DUP7 DUP3 DUP8 ADD PUSH2 0x192 JUMP JUMPDEST SWAP3 POP POP PUSH1 0x40 PUSH2 0x270 DUP7 DUP3 DUP8 ADD PUSH2 0x1DE JUMP JUMPDEST SWAP2 POP POP SWAP3 POP SWAP3 POP SWAP3 JUMP JUMPDEST PUSH0 DUP2 MLOAD SWAP1 POP SWAP2 SWAP1 POP JUMP JUMPDEST PUSH32 0x4E487B7100000000000000000000000000000000000000000000000000000000 PUSH0 MSTORE PUSH1 0x22 PUSH1 0x4 MSTORE PUSH1 0x24 PUSH0 REVERT JUMPDEST PUSH0 PUSH1 0x2 DUP3 DIV SWAP1 POP PUSH1 0x1 DUP3 AND DUP1 PUSH2 0x2C8 JUMPI PUSH1 0x7F DUP3 AND SWAP2 POP JUMPDEST PUSH1 0x20 DUP3 LT DUP2 SUB PUSH2 0x2DB JUMPI PUSH2 0x2DA PUSH2 0x284 JUMP JUMPDEST JUMPDEST POP SWAP2 SWAP1 POP JUMP JUMPDEST PUSH0 DUP2 SWAP1 POP DUP2 PUSH0 MSTORE PUSH1 0x20 PUSH0 KECCAK256 SWAP1 POP SWAP2 SWAP1 POP JUMP JUMPDEST PUSH0 PUSH1 0x20 PUSH1 0x1F DUP4 ADD DIV SWAP1 POP SWAP2 SWAP1 POP JUMP JUMPDEST PUSH0 DUP3 DUP3 SHL SWAP1 POP SWAP3 SWAP2 POP POP JUMP JUMPDEST PUSH0 PUSH1 0x8 DUP4 MUL PUSH2 0x33D PUSH32 0xFFFFFFFFFFFFFFFFFFFFFFFFFFFFFFFFFFFFFFFFFFFFFFFFFFFFFFFFFFFFFFFF DUP3 PUSH2 0x302 JUMP JUMPDEST PUSH2 0x347 DUP7 DUP4 PUSH2 0x302 JUMP JUMPDEST SWAP6 POP DUP1 NOT DUP5 AND SWAP4 POP DUP1 DUP7 AND DUP5 OR SWAP3 POP POP POP SWAP4 SWAP3 POP POP POP JUMP JUMPDEST PUSH0 DUP2 SWAP1 POP SWAP2 SWAP1 POP JUMP JUMPDEST PUSH0 PUSH2 0x382 PUSH2 0x37D PUSH2 0x378 DUP5 PUSH2 0x1BF JUMP JUMPDEST PUSH2 0x35F JUMP JUMPDEST PUSH2 0x1BF JUMP JUMPDEST SWAP1 POP SWAP2 SWAP1 POP JUMP JUMPDEST PUSH0 DUP2 SWAP1 POP SWAP2 SWAP1 POP JUMP JUMPDEST PUSH2 0x39B DUP4 PUSH2 0x368 JUMP JUMPDEST PUSH2 0x3AF PUSH2 0x3A7 DUP3 PUSH2 0x389 JUMP JUMPDEST DUP5 DUP5 SLOAD PUSH2 0x30E JUMP JUMPDEST DUP3 SSTORE POP POP POP POP JUMP JUMPDEST PUSH0 PUSH0 SWAP1 POP SWAP1 JUMP JUMPDEST PUSH2 0x3C6 PUSH2 0x3B7 JUMP JUMPDEST PUSH2 0x3D1 DUP2 DUP5 DUP5 PUSH2 0x392 JUMP JUMPDEST POP POP POP JUMP JUMPDEST JUMPDEST DUP2 DUP2 LT ISZERO PUSH2 0x3F4 JUMPI PUSH2 0x3E9 PUSH0 DUP3 PUSH2 0x3BE JUMP JUMPDEST PUSH1 0x1 DUP2 ADD SWAP1 POP PUSH2 0x3D7 JUMP JUMPDEST POP POP JUMP JUMPDEST PUSH1 0x1F DUP3 GT ISZERO PUSH2 0x439 JUMPI PUSH2 0x40A DUP2 PUSH2 0x2E1 JUMP JUMPDEST PUSH2 0x413 DUP5 PUSH2 0x2F3 JUMP JUMPDEST DUP2 ADD PUSH1 0x20 DUP6 LT ISZERO PUSH2 0x422 JUMPI DUP2 SWAP1 POP JUMPDEST PUSH2 0x436 PUSH2 0x42E DUP6 PUSH2 0x2F3 JUMP JUMPDEST DUP4 ADD DUP3 PUSH2 0x3D6 JUMP JUMPDEST POP POP JUMPDEST POP POP POP JUMP JUMPDEST PUSH0 DUP3 DUP3 SHR SWAP1 POP SWAP3 SWAP2 POP POP JUMP JUMPDEST PUSH0 PUSH2 0x459 PUSH0 NOT DUP5 PUSH1 0x8 MUL PUSH2 0x43E JUMP JUMPDEST NOT DUP1 DUP4 AND SWAP2 POP POP SWAP3 SWAP2 POP POP JUMP JUMPDEST PUSH0 PUSH2 0x471 DUP4 DUP4 PUSH2 0x44A JUMP JUMPDEST SWAP2 POP DUP3 PUSH1 0x2 MUL DUP3 OR SWAP1 POP SWAP3 SWAP2 POP POP JUMP JUMPDEST PUSH2 0x48A DUP3 PUSH2 0x27A JUMP JUMPDEST PUSH8 0xFFFFFFFFFFFFFFFF DUP2 GT ISZERO PUSH2 0x4A3 JUMPI PUSH2 0x4A2 PUSH2 0x9B JUMP JUMPDEST JUMPDEST PUSH2 0x4AD DUP3 SLOAD PUSH2 0x2B1 JUMP JUMPDEST PUSH2 0x4B8 DUP3 DUP3 DUP6 PUSH2 0x3F8 JUMP JUMPDEST PUSH0 PUSH1 0x20 SWAP1 POP PUSH1 0x1F DUP4 GT PUSH1 0x1 DUP2 EQ PUSH2 0x4E9 JUMPI PUSH0 DUP5 ISZERO PUSH2 0x4D7 JUMPI DUP3 DUP8 ADD MLOAD SWAP1 POP JUMPDEST PUSH2 0x4E1 DUP6 DUP3 PUSH2 0x466 JUMP JUMPDEST DUP7 SSTORE POP PUSH2 0x548 JUMP JUMPDEST PUSH1 0x1F NOT DUP5 AND PUSH2 0x4F7 DUP7 PUSH2 0x2E1 JUMP JUMPDEST PUSH0 JUMPDEST DUP3 DUP2 LT ISZERO PUSH2 0x51E JUMPI DUP5 DUP10 ADD MLOAD DUP3 SSTORE PUSH1 0x1 DUP3 ADD SWAP2 POP PUSH1 0x20 DUP6 ADD SWAP5 POP PUSH1 0x20 DUP2 ADD SWAP1 POP PUSH2 0x4F9 JUMP JUMPDEST DUP7 DUP4 LT ISZERO PUSH2 0x53B JUMPI DUP5 DUP10 ADD MLOAD PUSH2 0x537 PUSH1 0x1F DUP10 AND DUP3 PUSH2 0x44A JUMP JUMPDEST DUP4 SSTORE POP JUMPDEST PUSH1 0x1 PUSH1 0x2 DUP9 MUL ADD DUP9 SSTORE POP POP POP JUMPDEST POP POP POP POP POP POP JUMP JUMPDEST PUSH32 0x4E487B7100000000000000000000000000000000000000000000000000000000 PUSH0 MSTORE PUSH1 0x11 PUSH1 0x4 MSTORE PUSH1 0x24 PUSH0 REVERT JUMPDEST PUSH0 PUSH2 0x587 DUP3 PUSH2 0x1BF JUMP JUMPDEST SWAP2 POP PUSH2 0x592 DUP4 PUSH2 0x1BF JUMP JUMPDEST SWAP3 POP DUP3 DUP3 MUL PUSH2 0x5A0 DUP2 PUSH2 0x1BF JUMP JUMPDEST SWAP2 POP DUP3 DUP3 DIV DUP5 EQ DUP4 ISZERO OR PUSH2 0x5B7 JUMPI PUSH2 0x5B6 PUSH2 0x550 JUMP JUMPDEST JUMPDEST POP SWAP3 SWAP2 POP POP JUMP JUMPDEST PUSH2 0x6EC DUP1 PUSH2 0x5CB PUSH0 CODECOPY PUSH0 RETURN INVALID PUSH1 0x80 PUSH1 0x40 MSTORE PUSH1 0x4 CALLDATASIZE LT PUSH2 0x54 JUMPI PUSH0 CALLDATALOAD PUSH1 0xE0 SHR DUP1 PUSH4 0x47FC9AA EQ PUSH2 0x58 JUMPI DUP1 PUSH4 0x6FDDE03 EQ PUSH2 0x82 JUMPI DUP1 PUSH4 0x2CCB1B30 EQ PUSH2 0xAC JUMPI DUP1 PUSH4 0x70A08231 EQ PUSH2 0xC8 JUMPI DUP1 PUSH4 0x8BA47BDD EQ PUSH2 0x104 JUMPI DUP1 PUSH4 0x8DA5CB5B EQ PUSH2 0x12E JUMPI JUMPDEST PUSH0 PUSH0 REVERT JUMPDEST CALLVALUE DUP1 ISZERO PUSH2 0x63 JUMPI PUSH0 PUSH0 REVERT JUMPDEST POP PUSH2 0x6C PUSH2 0x158 JUMP JUMPDEST PUSH1 0x40 MLOAD PUSH2 0x79 SWAP2 SWAP1 PUSH2 0x404 JUMP JUMPDEST PUSH1 0x40 MLOAD DUP1 SWAP2 SUB SWAP1 RETURN JUMPDEST CALLVALUE DUP1 ISZERO PUSH2 0x8D JUMPI PUSH0 PUSH0 REVERT JUMPDEST POP PUSH2 0x96 PUSH2 0x15E JUMP JUMPDEST PUSH1 0x40 MLOAD PUSH2 0xA3 SWAP2 SWAP1 PUSH2 0x48D JUMP JUMPDEST PUSH1 0x40 MLOAD DUP1 SWAP2 SUB SWAP1 RETURN JUMPDEST PUSH2 0xC6 PUSH1 0x4 DUP1 CALLDATASIZE SUB DUP2 ADD SWAP1 PUSH2 0xC1 SWAP2 SWAP1 PUSH2 0x535 JUMP JUMPDEST PUSH2 0x1E9 JUMP JUMPDEST STOP JUMPDEST CALLVALUE DUP1 ISZERO PUSH2 0xD3 JUMPI PUSH0 PUSH0 REVERT JUMPDEST POP PUSH2 0xEE PUSH1 0x4 DUP1 CALLDATASIZE SUB DUP2 ADD SWAP1 PUSH2 0xE9 SWAP2 SWAP1 PUSH2 0x573 JUMP JUMPDEST PUSH2 0x290 JUMP JUMPDEST PUSH1 0x40 MLOAD PUSH2 0xFB SWAP2 SWAP1 PUSH2 0x404 JUMP JUMPDEST PUSH1 0x40 MLOAD DUP1 SWAP2 SUB SWAP1 RETURN JUMPDEST CALLVALUE DUP1 ISZERO PUSH2 0x10F JUMPI PUSH0 PUSH0 REVERT JUMPDEST POP PUSH2 0x118 PUSH2 0x33B JUMP JUMPDEST PUSH1 0x40 MLOAD PUSH2 0x125 SWAP2 SWAP1 PUSH2 0x48D JUMP JUMPDEST PUSH1 0x40 MLOAD DUP1 SWAP2 SUB SWAP1 RETURN JUMPDEST CALLVALUE DUP1 ISZERO PUSH2 0x139 JUMPI PUSH0 PUSH0 REVERT JUMPDEST POP PUSH2 0x142 PUSH2 0x3C7 JUMP JUMPDEST PUSH1 0x40 MLOAD PUSH2 0x14F SWAP2 SWAP1 PUSH2 0x5AD JUMP JUMPDEST PUSH1 0x40 MLOAD DUP1 SWAP2 SUB SWAP1 RETURN JUMPDEST PUSH1 0x2 SLOAD DUP2 JUMP JUMPDEST PUSH0 DUP1 SLOAD PUSH2 0x16A SWAP1 PUSH2 0x5F3 JUMP JUMPDEST DUP1 PUSH1 0x1F ADD PUSH1 0x20 DUP1 SWAP2 DIV MUL PUSH1 0x20 ADD PUSH1 0x40 MLOAD SWAP1 DUP2 ADD PUSH1 0x40 MSTORE DUP1 SWAP3 SWAP2 SWAP1 DUP2 DUP2 MSTORE PUSH1 0x20 ADD DUP3 DUP1 SLOAD PUSH2 0x196 SWAP1 PUSH2 0x5F3 JUMP JUMPDEST DUP1 ISZERO PUSH2 0x1E1 JUMPI DUP1 PUSH1 0x1F LT PUSH2 0x1B8 JUMPI PUSH2 0x100 DUP1 DUP4 SLOAD DIV MUL DUP4 MSTORE SWAP2 PUSH1 0x20 ADD SWAP2 PUSH2 0x1E1 JUMP JUMPDEST DUP3 ADD SWAP2 SWAP1 PUSH0 MSTORE PUSH1 0x20 PUSH0 KECCAK256 SWAP1 JUMPDEST DUP2 SLOAD DUP2 MSTORE SWAP1 PUSH1 0x1 ADD SWAP1 PUSH1 0x20 ADD DUP1 DUP4 GT PUSH2 0x1C4 JUMPI DUP3 SWAP1 SUB PUSH1 0x1F AND DUP3 ADD SWAP2 JUMPDEST POP POP POP POP POP DUP2 JUMP JUMPDEST PUSH1 0x2 SLOAD CALLVALUE GT ISZERO PUSH2 0x225 JUMPI PUSH1 0x40 MLOAD PUSH32 0x69640E7200000000000000000000000000000000000000000000000000000000 DUP2 MSTORE PUSH1 0x4 ADD PUSH1 0x40 MLOAD DUP1 SWAP2 SUB SWAP1 REVERT JUMPDEST DUP1 PUSH1 0x2 SLOAD PUSH2 0x233 SWAP2 SWAP1 PUSH2 0x650 JUMP JUMPDEST PUSH1 0x2 DUP2 SWAP1 SSTORE POP DUP1 PUSH1 0x4 PUSH0 DUP5 PUSH20 0xFFFFFFFFFFFFFFFFFFFFFFFFFFFFFFFFFFFFFFFF AND PUSH20 0xFFFFFFFFFFFFFFFFFFFFFFFFFFFFFFFFFFFFFFFF AND DUP2 MSTORE PUSH1 0x20 ADD SWAP1 DUP2 MSTORE PUSH1 0x20 ADD PUSH0 KECCAK256 PUSH0 DUP3 DUP3 SLOAD PUSH2 0x285 SWAP2 SWAP1 PUSH2 0x683 JUMP JUMPDEST SWAP3 POP POP DUP2 SWAP1 SSTORE POP POP POP JUMP JUMPDEST PUSH0 PUSH0 PUSH20 0xFFFFFFFFFFFFFFFFFFFFFFFFFFFFFFFFFFFFFFFF AND DUP3 PUSH20 0xFFFFFFFFFFFFFFFFFFFFFFFFFFFFFFFFFFFFFFFF AND SUB PUSH2 0x2F6 JUMPI PUSH1 0x40 MLOAD PUSH32 0xE6C4247B00000000000000000000000000000000000000000000000000000000 DUP2 MSTORE PUSH1 0x4 ADD PUSH1 0x40 MLOAD DUP1 SWAP2 SUB SWAP1 REVERT JUMPDEST PUSH1 0x4 PUSH0 DUP4 PUSH20 0xFFFFFFFFFFFFFFFFFFFFFFFFFFFFFFFFFFFFFFFF AND PUSH20 0xFFFFFFFFFFFFFFFFFFFFFFFFFFFFFFFFFFFFFFFF AND DUP2 MSTORE PUSH1 0x20 ADD SWAP1 DUP2 MSTORE PUSH1 0x20 ADD PUSH0 KECCAK256 SLOAD SWAP1 POP SWAP2 SWAP1 POP JUMP JUMPDEST PUSH1 0x1 DUP1 SLOAD PUSH2 0x348 SWAP1 PUSH2 0x5F3 JUMP JUMPDEST DUP1 PUSH1 0x1F ADD PUSH1 0x20 DUP1 SWAP2 DIV MUL PUSH1 0x20 ADD PUSH1 0x40 MLOAD SWAP1 DUP2 ADD PUSH1 0x40 MSTORE DUP1 SWAP3 SWAP2 SWAP1 DUP2 DUP2 MSTORE PUSH1 0x20 ADD DUP3 DUP1 SLOAD PUSH2 0x374 SWAP1 PUSH2 0x5F3 JUMP JUMPDEST DUP1 ISZERO PUSH2 0x3BF JUMPI DUP1 PUSH1 0x1F LT PUSH2 0x396 JUMPI PUSH2 0x100 DUP1 DUP4 SLOAD DIV MUL DUP4 MSTORE SWAP2 PUSH1 0x20 ADD SWAP2 PUSH2 0x3BF JUMP JUMPDEST DUP3 ADD SWAP2 SWAP1 PUSH0 MSTORE PUSH1 0x20 PUSH0 KECCAK256 SWAP1 JUMPDEST DUP2 SLOAD DUP2 MSTORE SWAP1 PUSH1 0x1 ADD SWAP1 PUSH1 0x20 ADD DUP1 DUP4 GT PUSH2 0x3A2 JUMPI DUP3 SWAP1 SUB PUSH1 0x1F AND DUP3 ADD SWAP2 JUMPDEST POP POP POP POP POP DUP2 JUMP JUMPDEST PUSH1 0x3 PUSH0 SWAP1 SLOAD SWAP1 PUSH2 0x100 EXP SWAP1 DIV PUSH20 0xFFFFFFFFFFFFFFFFFFFFFFFFFFFFFFFFFFFFFFFF AND DUP2 JUMP JUMPDEST PUSH0 DUP2 SWAP1 POP SWAP2 SWAP1 POP JUMP JUMPDEST PUSH2 0x3FE DUP2 PUSH2 0x3EC JUMP JUMPDEST DUP3 MSTORE POP POP JUMP JUMPDEST PUSH0 PUSH1 0x20 DUP3 ADD SWAP1 POP PUSH2 0x417 PUSH0 DUP4 ADD DUP5 PUSH2 0x3F5 JUMP JUMPDEST SWAP3 SWAP2 POP POP JUMP JUMPDEST PUSH0 DUP2 MLOAD SWAP1 POP SWAP2 SWAP1 POP JUMP JUMPDEST PUSH0 DUP3 DUP3 MSTORE PUSH1 0x20 DUP3 ADD SWAP1 POP SWAP3 SWAP2 POP POP JUMP JUMPDEST DUP3 DUP2 DUP4 MCOPY PUSH0 DUP4 DUP4 ADD MSTORE POP POP POP JUMP JUMPDEST PUSH0 PUSH1 0x1F NOT PUSH1 0x1F DUP4 ADD AND SWAP1 POP SWAP2 SWAP1 POP JUMP JUMPDEST PUSH0 PUSH2 0x45F DUP3 PUSH2 0x41D JUMP JUMPDEST PUSH2 0x469 DUP2 DUP6 PUSH2 0x427 JUMP JUMPDEST SWAP4 POP PUSH2 0x479 DUP2 DUP6 PUSH1 0x20 DUP7 ADD PUSH2 0x437 JUMP JUMPDEST PUSH2 0x482 DUP2 PUSH2 0x445 JUMP JUMPDEST DUP5 ADD SWAP2 POP POP SWAP3 SWAP2 POP POP JUMP JUMPDEST PUSH0 PUSH1 0x20 DUP3 ADD SWAP1 POP DUP2 DUP2 SUB PUSH0 DUP4 ADD MSTORE PUSH2 0x4A5 DUP2 DUP5 PUSH2 0x455 JUMP JUMPDEST SWAP1 POP SWAP3 SWAP2 POP POP JUMP JUMPDEST PUSH0 PUSH0 REVERT JUMPDEST PUSH0 PUSH20 0xFFFFFFFFFFFFFFFFFFFFFFFFFFFFFFFFFFFFFFFF DUP3 AND SWAP1 POP SWAP2 SWAP1 POP JUMP JUMPDEST PUSH0 PUSH2 0x4DA DUP3 PUSH2 0x4B1 JUMP JUMPDEST SWAP1 POP SWAP2 SWAP1 POP JUMP JUMPDEST PUSH2 0x4EA DUP2 PUSH2 0x4D0 JUMP JUMPDEST DUP2 EQ PUSH2 0x4F4 JUMPI PUSH0 PUSH0 REVERT JUMPDEST POP JUMP JUMPDEST PUSH0 DUP2 CALLDATALOAD SWAP1 POP PUSH2 0x505 DUP2 PUSH2 0x4E1 JUMP JUMPDEST SWAP3 SWAP2 POP POP JUMP JUMPDEST PUSH2 0x514 DUP2 PUSH2 0x3EC JUMP JUMPDEST DUP2 EQ PUSH2 0x51E JUMPI PUSH0 PUSH0 REVERT JUMPDEST POP JUMP JUMPDEST PUSH0 DUP2 CALLDATALOAD SWAP1 POP PUSH2 0x52F DUP2 PUSH2 0x50B JUMP JUMPDEST SWAP3 SWAP2 POP POP JUMP JUMPDEST PUSH0 PUSH0 PUSH1 0x40 DUP4 DUP6 SUB SLT ISZERO PUSH2 0x54B JUMPI PUSH2 0x54A PUSH2 0x4AD JUMP JUMPDEST JUMPDEST PUSH0 PUSH2 0x558 DUP6 DUP3 DUP7 ADD PUSH2 0x4F7 JUMP JUMPDEST SWAP3 POP POP PUSH1 0x20 PUSH2 0x569 DUP6 DUP3 DUP7 ADD PUSH2 0x521 JUMP JUMPDEST SWAP2 POP POP SWAP3 POP SWAP3 SWAP1 POP JUMP JUMPDEST PUSH0 PUSH1 0x20 DUP3 DUP5 SUB SLT ISZERO PUSH2 0x588 JUMPI PUSH2 0x587 PUSH2 0x4AD JUMP JUMPDEST JUMPDEST PUSH0 PUSH2 0x595 DUP5 DUP3 DUP6 ADD PUSH2 0x4F7 JUMP JUMPDEST SWAP2 POP POP SWAP3 SWAP2 POP POP JUMP JUMPDEST PUSH2 0x5A7 DUP2 PUSH2 0x4D0 JUMP JUMPDEST DUP3 MSTORE POP POP JUMP JUMPDEST PUSH0 PUSH1 0x20 DUP3 ADD SWAP1 POP PUSH2 0x5C0 PUSH0 DUP4 ADD DUP5 PUSH2 0x59E JUMP JUMPDEST SWAP3 SWAP2 POP POP JUMP JUMPDEST PUSH32 0x4E487B7100000000000000000000000000000000000000000000000000000000 PUSH0 MSTORE PUSH1 0x22 PUSH1 0x4 MSTORE PUSH1 0x24 PUSH0 REVERT JUMPDEST PUSH0 PUSH1 0x2 DUP3 DIV SWAP1 POP PUSH1 0x1 DUP3 AND DUP1 PUSH2 0x60A JUMPI PUSH1 0x7F DUP3 AND SWAP2 POP JUMPDEST PUSH1 0x20 DUP3 LT DUP2 SUB PUSH2 0x61D JUMPI PUSH2 0x61C PUSH2 0x5C6 JUMP JUMPDEST JUMPDEST POP SWAP2 SWAP1 POP JUMP JUMPDEST PUSH32 0x4E487B7100000000000000000000000000000000000000000000000000000000 PUSH0 MSTORE PUSH1 0x11 PUSH1 0x4 MSTORE PUSH1 0x24 PUSH0 REVERT JUMPDEST PUSH0 PUSH2 0x65A DUP3 PUSH2 0x3EC JUMP JUMPDEST SWAP2 POP PUSH2 0x665 DUP4 PUSH2 0x3EC JUMP JUMPDEST SWAP3 POP DUP3 DUP3 SUB SWAP1 POP DUP2 DUP2 GT ISZERO PUSH2 0x67D JUMPI PUSH2 0x67C PUSH2 0x623 JUMP JUMPDEST JUMPDEST SWAP3 SWAP2 POP POP JUMP JUMPDEST PUSH0 PUSH2 0x68D DUP3 PUSH2 0x3EC JUMP JUMPDEST SWAP2 POP PUSH2 0x698 DUP4 PUSH2 0x3EC JUMP JUMPDEST SWAP3 POP DUP3 DUP3 ADD SWAP1 POP DUP1 DUP3 GT ISZERO PUSH2 0x6B0 JUMPI PUSH2 0x6AF PUSH2 0x623 JUMP JUMPDEST JUMPDEST SWAP3 SWAP2 POP POP JUMP INVALID LOG2 PUSH5 0x6970667358 0x22 SLT KECCAK256 CALL PUSH1 0xAA 0xDB 0x22 PUSH12 0x9CC11F44C290F85898C5CE50 SWAP14 SWAP13 SWAP15 MLOAD 0xC3 SGT 0xAD SIGNEXTEND PUSH26 0x2635A6831264736F6C634300081C0033A2646970667358221220 SAR PUSH11 0xCF678ADC8BF9AC48A6ADCB MLOAD SHL 0xC1 0x23 DIV 0xE6 0xB2 0xBE 0xEB PUSH24 0x68BF147EBDAF34481264736F6C634300081C003300000000 "
				},
				"gasEstimates": {
					"creation": {
						"codeDepositCost": "1280000",
						"executionCost": "1327",
						"totalCost": "1281327"
					},
					"external": {
						"assets(string)": "infinite",
						"balanceFor(string)": "infinite",
						"createAsset(string,string,uint256)": "infinite",
						"send(address,string,uint256)": "infinite",
						"supplyFor(string)": "infinite"
					}
				},
				"methodIdentifiers": {
					"assets(string)": "85936228",
					"balanceFor(string)": "efdc99c5",
					"createAsset(string,string,uint256)": "f2bdc035",
					"send(address,string,uint256)": "a8990b8c",
					"supplyFor(string)": "1a45ca74"
				}
			},
			"storageLayout": {
				"storage": [
					{
						"astId": 102,
						"contract": "Assignments/Lecture 6/AssetFactory.sol:AssetFactory",
						"label": "assets",
						"offset": 0,
						"slot": "0",
						"type": "t_mapping(t_string_memory_ptr,t_address)"
					}
				],
				"types": {
					"t_address": {
						"encoding": "inplace",
						"label": "address",
						"numberOfBytes": "20"
					},
					"t_mapping(t_string_memory_ptr,t_address)": {
						"encoding": "mapping",
						"key": "t_string_memory_ptr",
						"label": "mapping(string => address)",
						"numberOfBytes": "32",
						"value": "t_address"
					},
					"t_string_memory_ptr": {
						"encoding": "bytes",
						"label": "string",
						"numberOfBytes": "32"
					}
				}
			},
			"userdoc": {
				"kind": "user",
				"methods": {},
				"version": 1
			}
		}
	}
}