{
	"Assignments/Lecture 6/AssetFactory.sol": {
		"Asset": {
			"abi": [
				{
					"inputs": [
						{
							"internalType": "string",
							"name": "name_",
							"type": "string"
						},
						{
							"internalType": "string",
							"name": "ticker_",
							"type": "string"
						},
						{
							"internalType": "uint256",
							"name": "initialSupply_",
							"type": "uint256"
						}
					],
					"stateMutability": "nonpayable",
					"type": "constructor"
				},
				{
					"inputs": [],
					"name": "IncorrectAmount",
					"type": "error"
				},
				{
					"inputs": [],
					"name": "name",
					"outputs": [
						{
							"internalType": "string",
							"name": "",
							"type": "string"
						}
					],
					"stateMutability": "view",
					"type": "function"
				},
				{
					"inputs": [],
					"name": "supply",
					"outputs": [
						{
							"internalType": "uint256",
							"name": "",
							"type": "uint256"
						}
					],
					"stateMutability": "view",
					"type": "function"
				},
				{
					"inputs": [],
					"name": "ticker",
					"outputs": [
						{
							"internalType": "string",
							"name": "",
							"type": "string"
						}
					],
					"stateMutability": "view",
					"type": "function"
				},
				{
					"inputs": [
						{
							"internalType": "address",
							"name": "target",
							"type": "address"
						},
						{
							"internalType": "uint256",
							"name": "amount",
							"type": "uint256"
						}
					],
					"name": "transferTo",
					"outputs": [],
					"stateMutability": "payable",
					"type": "function"
				}
			],
			"devdoc": {
				"kind": "dev",
				"methods": {},
				"version": 1
			},
			"evm": {
				"assembly": "    /* \"Assignments/Lecture 6/AssetFactory.sol\":312:960  contract Asset  {... */\n  mstore(0x40, 0x80)\n    /* \"Assignments/Lecture 6/AssetFactory.sol\":454:632  constructor(string memory name_, string memory ticker_, uint256 initialSupply_) {... */\n  callvalue\n  dup1\n  iszero\n  tag_1\n  jumpi\n  0x00\n  dup1\n  revert\ntag_1:\n  pop\n  mload(0x40)\n  sub(codesize, bytecodeSize)\n  dup1\n  bytecodeSize\n  dup4\n  codecopy\n  dup2\n  dup2\n  add\n  0x40\n  mstore\n  dup2\n  add\n  swap1\n  tag_2\n  swap2\n  swap1\n  tag_3\n  jump\t// in\ntag_2:\n    /* \"Assignments/Lecture 6/AssetFactory.sol\":551:556  name_ */\n  dup3\n    /* \"Assignments/Lecture 6/AssetFactory.sol\":544:548  name */\n  0x00\n    /* \"Assignments/Lecture 6/AssetFactory.sol\":544:556  name = name_ */\n  swap1\n  dup2\n  tag_6\n  swap2\n  swap1\n  tag_7\n  jump\t// in\ntag_6:\n  pop\n    /* \"Assignments/Lecture 6/AssetFactory.sol\":575:582  ticker_ */\n  dup2\n    /* \"Assignments/Lecture 6/AssetFactory.sol\":566:572  ticker */\n  0x01\n    /* \"Assignments/Lecture 6/AssetFactory.sol\":566:582  ticker = ticker_ */\n  swap1\n  dup2\n  tag_8\n  swap2\n  swap1\n  tag_7\n  jump\t// in\ntag_8:\n  pop\n    /* \"Assignments/Lecture 6/AssetFactory.sol\":618:625  1 ether */\n  0x0de0b6b3a7640000\n    /* \"Assignments/Lecture 6/AssetFactory.sol\":601:615  initialSupply_ */\n  dup2\n    /* \"Assignments/Lecture 6/AssetFactory.sol\":601:625  initialSupply_ * 1 ether */\n  tag_9\n  swap2\n  swap1\n  tag_10\n  jump\t// in\ntag_9:\n    /* \"Assignments/Lecture 6/AssetFactory.sol\":592:598  supply */\n  0x02\n    /* \"Assignments/Lecture 6/AssetFactory.sol\":592:625  supply = initialSupply_ * 1 ether */\n  dup2\n  swap1\n  sstore\n  pop\n    /* \"Assignments/Lecture 6/AssetFactory.sol\":454:632  constructor(string memory name_, string memory ticker_, uint256 initialSupply_) {... */\n  pop\n  pop\n  pop\n    /* \"Assignments/Lecture 6/AssetFactory.sol\":312:960  contract Asset  {... */\n  jump(tag_11)\n    /* \"#utility.yul\":7:82   */\ntag_12:\n    /* \"#utility.yul\":40:46   */\n  0x00\n    /* \"#utility.yul\":73:75   */\n  0x40\n    /* \"#utility.yul\":67:76   */\n  mload\n    /* \"#utility.yul\":57:76   */\n  swap1\n  pop\n    /* \"#utility.yul\":7:82   */\n  swap1\n  jump\t// out\n    /* \"#utility.yul\":88:205   */\ntag_13:\n    /* \"#utility.yul\":197:198   */\n  0x00\n    /* \"#utility.yul\":194:195   */\n  dup1\n    /* \"#utility.yul\":187:199   */\n  revert\n    /* \"#utility.yul\":211:328   */\ntag_14:\n    /* \"#utility.yul\":320:321   */\n  0x00\n    /* \"#utility.yul\":317:318   */\n  dup1\n    /* \"#utility.yul\":310:322   */\n  revert\n    /* \"#utility.yul\":334:451   */\ntag_15:\n    /* \"#utility.yul\":443:444   */\n  0x00\n    /* \"#utility.yul\":440:441   */\n  dup1\n    /* \"#utility.yul\":433:445   */\n  revert\n    /* \"#utility.yul\":457:574   */\ntag_16:\n    /* \"#utility.yul\":566:567   */\n  0x00\n    /* \"#utility.yul\":563:564   */\n  dup1\n    /* \"#utility.yul\":556:568   */\n  revert\n    /* \"#utility.yul\":580:682   */\ntag_17:\n    /* \"#utility.yul\":621:627   */\n  0x00\n    /* \"#utility.yul\":672:674   */\n  0x1f\n    /* \"#utility.yul\":668:675   */\n  not\n    /* \"#utility.yul\":663:665   */\n  0x1f\n    /* \"#utility.yul\":656:661   */\n  dup4\n    /* \"#utility.yul\":652:666   */\n  add\n    /* \"#utility.yul\":648:676   */\n  and\n    /* \"#utility.yul\":638:676   */\n  swap1\n  pop\n    /* \"#utility.yul\":580:682   */\n  swap2\n  swap1\n  pop\n  jump\t// out\n    /* \"#utility.yul\":688:868   */\ntag_18:\n    /* \"#utility.yul\":736:813   */\n  0x4e487b7100000000000000000000000000000000000000000000000000000000\n    /* \"#utility.yul\":733:734   */\n  0x00\n    /* \"#utility.yul\":726:814   */\n  mstore\n    /* \"#utility.yul\":833:837   */\n  0x41\n    /* \"#utility.yul\":830:831   */\n  0x04\n    /* \"#utility.yul\":823:838   */\n  mstore\n    /* \"#utility.yul\":857:861   */\n  0x24\n    /* \"#utility.yul\":854:855   */\n  0x00\n    /* \"#utility.yul\":847:862   */\n  revert\n    /* \"#utility.yul\":874:1155   */\ntag_19:\n    /* \"#utility.yul\":957:984   */\n  tag_56\n    /* \"#utility.yul\":979:983   */\n  dup3\n    /* \"#utility.yul\":957:984   */\n  tag_17\n  jump\t// in\ntag_56:\n    /* \"#utility.yul\":949:955   */\n  dup2\n    /* \"#utility.yul\":945:985   */\n  add\n    /* \"#utility.yul\":1087:1093   */\n  dup2\n    /* \"#utility.yul\":1075:1085   */\n  dup2\n    /* \"#utility.yul\":1072:1094   */\n  lt\n    /* \"#utility.yul\":1051:1069   */\n  0xffffffffffffffff\n    /* \"#utility.yul\":1039:1049   */\n  dup3\n    /* \"#utility.yul\":1036:1070   */\n  gt\n    /* \"#utility.yul\":1033:1095   */\n  or\n    /* \"#utility.yul\":1030:1118   */\n  iszero\n  tag_57\n  jumpi\n    /* \"#utility.yul\":1098:1116   */\n  tag_58\n  tag_18\n  jump\t// in\ntag_58:\n    /* \"#utility.yul\":1030:1118   */\ntag_57:\n    /* \"#utility.yul\":1138:1148   */\n  dup1\n    /* \"#utility.yul\":1134:1136   */\n  0x40\n    /* \"#utility.yul\":1127:1149   */\n  mstore\n    /* \"#utility.yul\":917:1155   */\n  pop\n    /* \"#utility.yul\":874:1155   */\n  pop\n  pop\n  jump\t// out\n    /* \"#utility.yul\":1161:1290   */\ntag_20:\n    /* \"#utility.yul\":1195:1201   */\n  0x00\n    /* \"#utility.yul\":1222:1242   */\n  tag_60\n  tag_12\n  jump\t// in\ntag_60:\n    /* \"#utility.yul\":1212:1242   */\n  swap1\n  pop\n    /* \"#utility.yul\":1251:1284   */\n  tag_61\n    /* \"#utility.yul\":1279:1283   */\n  dup3\n    /* \"#utility.yul\":1271:1277   */\n  dup3\n    /* \"#utility.yul\":1251:1284   */\n  tag_19\n  jump\t// in\ntag_61:\n    /* \"#utility.yul\":1161:1290   */\n  swap2\n  swap1\n  pop\n  jump\t// out\n    /* \"#utility.yul\":1296:1604   */\ntag_21:\n    /* \"#utility.yul\":1358:1362   */\n  0x00\n    /* \"#utility.yul\":1448:1466   */\n  0xffffffffffffffff\n    /* \"#utility.yul\":1440:1446   */\n  dup3\n    /* \"#utility.yul\":1437:1467   */\n  gt\n    /* \"#utility.yul\":1434:1490   */\n  iszero\n  tag_63\n  jumpi\n    /* \"#utility.yul\":1470:1488   */\n  tag_64\n  tag_18\n  jump\t// in\ntag_64:\n    /* \"#utility.yul\":1434:1490   */\ntag_63:\n    /* \"#utility.yul\":1508:1537   */\n  tag_65\n    /* \"#utility.yul\":1530:1536   */\n  dup3\n    /* \"#utility.yul\":1508:1537   */\n  tag_17\n  jump\t// in\ntag_65:\n    /* \"#utility.yul\":1500:1537   */\n  swap1\n  pop\n    /* \"#utility.yul\":1592:1596   */\n  0x20\n    /* \"#utility.yul\":1586:1590   */\n  dup2\n    /* \"#utility.yul\":1582:1597   */\n  add\n    /* \"#utility.yul\":1574:1597   */\n  swap1\n  pop\n    /* \"#utility.yul\":1296:1604   */\n  swap2\n  swap1\n  pop\n  jump\t// out\n    /* \"#utility.yul\":1610:1749   */\ntag_22:\n    /* \"#utility.yul\":1699:1705   */\n  dup3\n    /* \"#utility.yul\":1694:1697   */\n  dup2\n    /* \"#utility.yul\":1689:1692   */\n  dup4\n    /* \"#utility.yul\":1683:1706   */\n  mcopy\n    /* \"#utility.yul\":1740:1741   */\n  0x00\n    /* \"#utility.yul\":1731:1737   */\n  dup4\n    /* \"#utility.yul\":1726:1729   */\n  dup4\n    /* \"#utility.yul\":1722:1738   */\n  add\n    /* \"#utility.yul\":1715:1742   */\n  mstore\n    /* \"#utility.yul\":1610:1749   */\n  pop\n  pop\n  pop\n  jump\t// out\n    /* \"#utility.yul\":1755:2189   */\ntag_23:\n    /* \"#utility.yul\":1844:1849   */\n  0x00\n    /* \"#utility.yul\":1869:1935   */\n  tag_68\n    /* \"#utility.yul\":1885:1934   */\n  tag_69\n    /* \"#utility.yul\":1927:1933   */\n  dup5\n    /* \"#utility.yul\":1885:1934   */\n  tag_21\n  jump\t// in\ntag_69:\n    /* \"#utility.yul\":1869:1935   */\n  tag_20\n  jump\t// in\ntag_68:\n    /* \"#utility.yul\":1860:1935   */\n  swap1\n  pop\n    /* \"#utility.yul\":1958:1964   */\n  dup3\n    /* \"#utility.yul\":1951:1956   */\n  dup2\n    /* \"#utility.yul\":1944:1965   */\n  mstore\n    /* \"#utility.yul\":1996:2000   */\n  0x20\n    /* \"#utility.yul\":1989:1994   */\n  dup2\n    /* \"#utility.yul\":1985:2001   */\n  add\n    /* \"#utility.yul\":2034:2037   */\n  dup5\n    /* \"#utility.yul\":2025:2031   */\n  dup5\n    /* \"#utility.yul\":2020:2023   */\n  dup5\n    /* \"#utility.yul\":2016:2032   */\n  add\n    /* \"#utility.yul\":2013:2038   */\n  gt\n    /* \"#utility.yul\":2010:2122   */\n  iszero\n  tag_70\n  jumpi\n    /* \"#utility.yul\":2041:2120   */\n  tag_71\n  tag_16\n  jump\t// in\ntag_71:\n    /* \"#utility.yul\":2010:2122   */\ntag_70:\n    /* \"#utility.yul\":2131:2183   */\n  tag_72\n    /* \"#utility.yul\":2176:2182   */\n  dup5\n    /* \"#utility.yul\":2171:2174   */\n  dup3\n    /* \"#utility.yul\":2166:2169   */\n  dup6\n    /* \"#utility.yul\":2131:2183   */\n  tag_22\n  jump\t// in\ntag_72:\n    /* \"#utility.yul\":1850:2189   */\n  pop\n    /* \"#utility.yul\":1755:2189   */\n  swap4\n  swap3\n  pop\n  pop\n  pop\n  jump\t// out\n    /* \"#utility.yul\":2209:2564   */\ntag_24:\n    /* \"#utility.yul\":2276:2281   */\n  0x00\n    /* \"#utility.yul\":2325:2328   */\n  dup3\n    /* \"#utility.yul\":2318:2322   */\n  0x1f\n    /* \"#utility.yul\":2310:2316   */\n  dup4\n    /* \"#utility.yul\":2306:2323   */\n  add\n    /* \"#utility.yul\":2302:2329   */\n  slt\n    /* \"#utility.yul\":2292:2414   */\n  tag_74\n  jumpi\n    /* \"#utility.yul\":2333:2412   */\n  tag_75\n  tag_15\n  jump\t// in\ntag_75:\n    /* \"#utility.yul\":2292:2414   */\ntag_74:\n    /* \"#utility.yul\":2443:2449   */\n  dup2\n    /* \"#utility.yul\":2437:2450   */\n  mload\n    /* \"#utility.yul\":2468:2558   */\n  tag_76\n    /* \"#utility.yul\":2554:2557   */\n  dup5\n    /* \"#utility.yul\":2546:2552   */\n  dup3\n    /* \"#utility.yul\":2539:2543   */\n  0x20\n    /* \"#utility.yul\":2531:2537   */\n  dup7\n    /* \"#utility.yul\":2527:2544   */\n  add\n    /* \"#utility.yul\":2468:2558   */\n  tag_23\n  jump\t// in\ntag_76:\n    /* \"#utility.yul\":2459:2558   */\n  swap2\n  pop\n    /* \"#utility.yul\":2282:2564   */\n  pop\n    /* \"#utility.yul\":2209:2564   */\n  swap3\n  swap2\n  pop\n  pop\n  jump\t// out\n    /* \"#utility.yul\":2570:2647   */\ntag_25:\n    /* \"#utility.yul\":2607:2614   */\n  0x00\n    /* \"#utility.yul\":2636:2641   */\n  dup2\n    /* \"#utility.yul\":2625:2641   */\n  swap1\n  pop\n    /* \"#utility.yul\":2570:2647   */\n  swap2\n  swap1\n  pop\n  jump\t// out\n    /* \"#utility.yul\":2653:2775   */\ntag_26:\n    /* \"#utility.yul\":2726:2750   */\n  tag_79\n    /* \"#utility.yul\":2744:2749   */\n  dup2\n    /* \"#utility.yul\":2726:2750   */\n  tag_25\n  jump\t// in\ntag_79:\n    /* \"#utility.yul\":2719:2724   */\n  dup2\n    /* \"#utility.yul\":2716:2751   */\n  eq\n    /* \"#utility.yul\":2706:2769   */\n  tag_80\n  jumpi\n    /* \"#utility.yul\":2765:2766   */\n  0x00\n    /* \"#utility.yul\":2762:2763   */\n  dup1\n    /* \"#utility.yul\":2755:2767   */\n  revert\n    /* \"#utility.yul\":2706:2769   */\ntag_80:\n    /* \"#utility.yul\":2653:2775   */\n  pop\n  jump\t// out\n    /* \"#utility.yul\":2781:2924   */\ntag_27:\n    /* \"#utility.yul\":2838:2843   */\n  0x00\n    /* \"#utility.yul\":2869:2875   */\n  dup2\n    /* \"#utility.yul\":2863:2876   */\n  mload\n    /* \"#utility.yul\":2854:2876   */\n  swap1\n  pop\n    /* \"#utility.yul\":2885:2918   */\n  tag_82\n    /* \"#utility.yul\":2912:2917   */\n  dup2\n    /* \"#utility.yul\":2885:2918   */\n  tag_26\n  jump\t// in\ntag_82:\n    /* \"#utility.yul\":2781:2924   */\n  swap3\n  swap2\n  pop\n  pop\n  jump\t// out\n    /* \"#utility.yul\":2930:3939   */\ntag_3:\n    /* \"#utility.yul\":3038:3044   */\n  0x00\n    /* \"#utility.yul\":3046:3052   */\n  dup1\n    /* \"#utility.yul\":3054:3060   */\n  0x00\n    /* \"#utility.yul\":3103:3105   */\n  0x60\n    /* \"#utility.yul\":3091:3100   */\n  dup5\n    /* \"#utility.yul\":3082:3089   */\n  dup7\n    /* \"#utility.yul\":3078:3101   */\n  sub\n    /* \"#utility.yul\":3074:3106   */\n  slt\n    /* \"#utility.yul\":3071:3190   */\n  iszero\n  tag_84\n  jumpi\n    /* \"#utility.yul\":3109:3188   */\n  tag_85\n  tag_13\n  jump\t// in\ntag_85:\n    /* \"#utility.yul\":3071:3190   */\ntag_84:\n    /* \"#utility.yul\":3250:3251   */\n  0x00\n    /* \"#utility.yul\":3239:3248   */\n  dup5\n    /* \"#utility.yul\":3235:3252   */\n  add\n    /* \"#utility.yul\":3229:3253   */\n  mload\n    /* \"#utility.yul\":3280:3298   */\n  0xffffffffffffffff\n    /* \"#utility.yul\":3272:3278   */\n  dup2\n    /* \"#utility.yul\":3269:3299   */\n  gt\n    /* \"#utility.yul\":3266:3383   */\n  iszero\n  tag_86\n  jumpi\n    /* \"#utility.yul\":3302:3381   */\n  tag_87\n  tag_14\n  jump\t// in\ntag_87:\n    /* \"#utility.yul\":3266:3383   */\ntag_86:\n    /* \"#utility.yul\":3407:3481   */\n  tag_88\n    /* \"#utility.yul\":3473:3480   */\n  dup7\n    /* \"#utility.yul\":3464:3470   */\n  dup3\n    /* \"#utility.yul\":3453:3462   */\n  dup8\n    /* \"#utility.yul\":3449:3471   */\n  add\n    /* \"#utility.yul\":3407:3481   */\n  tag_24\n  jump\t// in\ntag_88:\n    /* \"#utility.yul\":3397:3481   */\n  swap4\n  pop\n    /* \"#utility.yul\":3200:3491   */\n  pop\n    /* \"#utility.yul\":3551:3553   */\n  0x20\n    /* \"#utility.yul\":3540:3549   */\n  dup5\n    /* \"#utility.yul\":3536:3554   */\n  add\n    /* \"#utility.yul\":3530:3555   */\n  mload\n    /* \"#utility.yul\":3582:3600   */\n  0xffffffffffffffff\n    /* \"#utility.yul\":3574:3580   */\n  dup2\n    /* \"#utility.yul\":3571:3601   */\n  gt\n    /* \"#utility.yul\":3568:3685   */\n  iszero\n  tag_89\n  jumpi\n    /* \"#utility.yul\":3604:3683   */\n  tag_90\n  tag_14\n  jump\t// in\ntag_90:\n    /* \"#utility.yul\":3568:3685   */\ntag_89:\n    /* \"#utility.yul\":3709:3783   */\n  tag_91\n    /* \"#utility.yul\":3775:3782   */\n  dup7\n    /* \"#utility.yul\":3766:3772   */\n  dup3\n    /* \"#utility.yul\":3755:3764   */\n  dup8\n    /* \"#utility.yul\":3751:3773   */\n  add\n    /* \"#utility.yul\":3709:3783   */\n  tag_24\n  jump\t// in\ntag_91:\n    /* \"#utility.yul\":3699:3783   */\n  swap3\n  pop\n    /* \"#utility.yul\":3501:3793   */\n  pop\n    /* \"#utility.yul\":3832:3834   */\n  0x40\n    /* \"#utility.yul\":3858:3922   */\n  tag_92\n    /* \"#utility.yul\":3914:3921   */\n  dup7\n    /* \"#utility.yul\":3905:3911   */\n  dup3\n    /* \"#utility.yul\":3894:3903   */\n  dup8\n    /* \"#utility.yul\":3890:3912   */\n  add\n    /* \"#utility.yul\":3858:3922   */\n  tag_27\n  jump\t// in\ntag_92:\n    /* \"#utility.yul\":3848:3922   */\n  swap2\n  pop\n    /* \"#utility.yul\":3803:3932   */\n  pop\n    /* \"#utility.yul\":2930:3939   */\n  swap3\n  pop\n  swap3\n  pop\n  swap3\n  jump\t// out\n    /* \"#utility.yul\":3945:4044   */\ntag_28:\n    /* \"#utility.yul\":3997:4003   */\n  0x00\n    /* \"#utility.yul\":4031:4036   */\n  dup2\n    /* \"#utility.yul\":4025:4037   */\n  mload\n    /* \"#utility.yul\":4015:4037   */\n  swap1\n  pop\n    /* \"#utility.yul\":3945:4044   */\n  swap2\n  swap1\n  pop\n  jump\t// out\n    /* \"#utility.yul\":4050:4230   */\ntag_29:\n    /* \"#utility.yul\":4098:4175   */\n  0x4e487b7100000000000000000000000000000000000000000000000000000000\n    /* \"#utility.yul\":4095:4096   */\n  0x00\n    /* \"#utility.yul\":4088:4176   */\n  mstore\n    /* \"#utility.yul\":4195:4199   */\n  0x22\n    /* \"#utility.yul\":4192:4193   */\n  0x04\n    /* \"#utility.yul\":4185:4200   */\n  mstore\n    /* \"#utility.yul\":4219:4223   */\n  0x24\n    /* \"#utility.yul\":4216:4217   */\n  0x00\n    /* \"#utility.yul\":4209:4224   */\n  revert\n    /* \"#utility.yul\":4236:4556   */\ntag_30:\n    /* \"#utility.yul\":4280:4286   */\n  0x00\n    /* \"#utility.yul\":4317:4318   */\n  0x02\n    /* \"#utility.yul\":4311:4315   */\n  dup3\n    /* \"#utility.yul\":4307:4319   */\n  div\n    /* \"#utility.yul\":4297:4319   */\n  swap1\n  pop\n    /* \"#utility.yul\":4364:4365   */\n  0x01\n    /* \"#utility.yul\":4358:4362   */\n  dup3\n    /* \"#utility.yul\":4354:4366   */\n  and\n    /* \"#utility.yul\":4385:4403   */\n  dup1\n    /* \"#utility.yul\":4375:4456   */\n  tag_96\n  jumpi\n    /* \"#utility.yul\":4441:4445   */\n  0x7f\n    /* \"#utility.yul\":4433:4439   */\n  dup3\n    /* \"#utility.yul\":4429:4446   */\n  and\n    /* \"#utility.yul\":4419:4446   */\n  swap2\n  pop\n    /* \"#utility.yul\":4375:4456   */\ntag_96:\n    /* \"#utility.yul\":4503:4505   */\n  0x20\n    /* \"#utility.yul\":4495:4501   */\n  dup3\n    /* \"#utility.yul\":4492:4506   */\n  lt\n    /* \"#utility.yul\":4472:4490   */\n  dup2\n    /* \"#utility.yul\":4469:4507   */\n  sub\n    /* \"#utility.yul\":4466:4550   */\n  tag_97\n  jumpi\n    /* \"#utility.yul\":4522:4540   */\n  tag_98\n  tag_29\n  jump\t// in\ntag_98:\n    /* \"#utility.yul\":4466:4550   */\ntag_97:\n    /* \"#utility.yul\":4287:4556   */\n  pop\n    /* \"#utility.yul\":4236:4556   */\n  swap2\n  swap1\n  pop\n  jump\t// out\n    /* \"#utility.yul\":4562:4703   */\ntag_31:\n    /* \"#utility.yul\":4611:4615   */\n  0x00\n    /* \"#utility.yul\":4634:4637   */\n  dup2\n    /* \"#utility.yul\":4626:4637   */\n  swap1\n  pop\n    /* \"#utility.yul\":4657:4660   */\n  dup2\n    /* \"#utility.yul\":4654:4655   */\n  0x00\n    /* \"#utility.yul\":4647:4661   */\n  mstore\n    /* \"#utility.yul\":4691:4695   */\n  0x20\n    /* \"#utility.yul\":4688:4689   */\n  0x00\n    /* \"#utility.yul\":4678:4696   */\n  keccak256\n    /* \"#utility.yul\":4670:4696   */\n  swap1\n  pop\n    /* \"#utility.yul\":4562:4703   */\n  swap2\n  swap1\n  pop\n  jump\t// out\n    /* \"#utility.yul\":4709:4802   */\ntag_32:\n    /* \"#utility.yul\":4746:4752   */\n  0x00\n    /* \"#utility.yul\":4793:4795   */\n  0x20\n    /* \"#utility.yul\":4788:4790   */\n  0x1f\n    /* \"#utility.yul\":4781:4786   */\n  dup4\n    /* \"#utility.yul\":4777:4791   */\n  add\n    /* \"#utility.yul\":4773:4796   */\n  div\n    /* \"#utility.yul\":4763:4796   */\n  swap1\n  pop\n    /* \"#utility.yul\":4709:4802   */\n  swap2\n  swap1\n  pop\n  jump\t// out\n    /* \"#utility.yul\":4808:4915   */\ntag_33:\n    /* \"#utility.yul\":4852:4860   */\n  0x00\n    /* \"#utility.yul\":4902:4907   */\n  dup3\n    /* \"#utility.yul\":4896:4900   */\n  dup3\n    /* \"#utility.yul\":4892:4908   */\n  shl\n    /* \"#utility.yul\":4871:4908   */\n  swap1\n  pop\n    /* \"#utility.yul\":4808:4915   */\n  swap3\n  swap2\n  pop\n  pop\n  jump\t// out\n    /* \"#utility.yul\":4921:5314   */\ntag_34:\n    /* \"#utility.yul\":4990:4996   */\n  0x00\n    /* \"#utility.yul\":5040:5041   */\n  0x08\n    /* \"#utility.yul\":5028:5038   */\n  dup4\n    /* \"#utility.yul\":5024:5042   */\n  mul\n    /* \"#utility.yul\":5063:5160   */\n  tag_103\n    /* \"#utility.yul\":5093:5159   */\n  0xffffffffffffffffffffffffffffffffffffffffffffffffffffffffffffffff\n    /* \"#utility.yul\":5082:5091   */\n  dup3\n    /* \"#utility.yul\":5063:5160   */\n  tag_33\n  jump\t// in\ntag_103:\n    /* \"#utility.yul\":5181:5220   */\n  tag_104\n    /* \"#utility.yul\":5211:5219   */\n  dup7\n    /* \"#utility.yul\":5200:5209   */\n  dup4\n    /* \"#utility.yul\":5181:5220   */\n  tag_33\n  jump\t// in\ntag_104:\n    /* \"#utility.yul\":5169:5220   */\n  swap6\n  pop\n    /* \"#utility.yul\":5253:5257   */\n  dup1\n    /* \"#utility.yul\":5249:5258   */\n  not\n    /* \"#utility.yul\":5242:5247   */\n  dup5\n    /* \"#utility.yul\":5238:5259   */\n  and\n    /* \"#utility.yul\":5229:5259   */\n  swap4\n  pop\n    /* \"#utility.yul\":5302:5306   */\n  dup1\n    /* \"#utility.yul\":5292:5300   */\n  dup7\n    /* \"#utility.yul\":5288:5307   */\n  and\n    /* \"#utility.yul\":5281:5286   */\n  dup5\n    /* \"#utility.yul\":5278:5308   */\n  or\n    /* \"#utility.yul\":5268:5308   */\n  swap3\n  pop\n    /* \"#utility.yul\":4997:5314   */\n  pop\n  pop\n    /* \"#utility.yul\":4921:5314   */\n  swap4\n  swap3\n  pop\n  pop\n  pop\n  jump\t// out\n    /* \"#utility.yul\":5320:5380   */\ntag_35:\n    /* \"#utility.yul\":5348:5351   */\n  0x00\n    /* \"#utility.yul\":5369:5374   */\n  dup2\n    /* \"#utility.yul\":5362:5374   */\n  swap1\n  pop\n    /* \"#utility.yul\":5320:5380   */\n  swap2\n  swap1\n  pop\n  jump\t// out\n    /* \"#utility.yul\":5386:5528   */\ntag_36:\n    /* \"#utility.yul\":5436:5445   */\n  0x00\n    /* \"#utility.yul\":5469:5522   */\n  tag_107\n    /* \"#utility.yul\":5487:5521   */\n  tag_108\n    /* \"#utility.yul\":5496:5520   */\n  tag_109\n    /* \"#utility.yul\":5514:5519   */\n  dup5\n    /* \"#utility.yul\":5496:5520   */\n  tag_25\n  jump\t// in\ntag_109:\n    /* \"#utility.yul\":5487:5521   */\n  tag_35\n  jump\t// in\ntag_108:\n    /* \"#utility.yul\":5469:5522   */\n  tag_25\n  jump\t// in\ntag_107:\n    /* \"#utility.yul\":5456:5522   */\n  swap1\n  pop\n    /* \"#utility.yul\":5386:5528   */\n  swap2\n  swap1\n  pop\n  jump\t// out\n    /* \"#utility.yul\":5534:5609   */\ntag_37:\n    /* \"#utility.yul\":5577:5580   */\n  0x00\n    /* \"#utility.yul\":5598:5603   */\n  dup2\n    /* \"#utility.yul\":5591:5603   */\n  swap1\n  pop\n    /* \"#utility.yul\":5534:5609   */\n  swap2\n  swap1\n  pop\n  jump\t// out\n    /* \"#utility.yul\":5615:5884   */\ntag_38:\n    /* \"#utility.yul\":5725:5764   */\n  tag_112\n    /* \"#utility.yul\":5756:5763   */\n  dup4\n    /* \"#utility.yul\":5725:5764   */\n  tag_36\n  jump\t// in\ntag_112:\n    /* \"#utility.yul\":5786:5877   */\n  tag_113\n    /* \"#utility.yul\":5835:5876   */\n  tag_114\n    /* \"#utility.yul\":5859:5875   */\n  dup3\n    /* \"#utility.yul\":5835:5876   */\n  tag_37\n  jump\t// in\ntag_114:\n    /* \"#utility.yul\":5827:5833   */\n  dup5\n    /* \"#utility.yul\":5820:5824   */\n  dup5\n    /* \"#utility.yul\":5814:5825   */\n  sload\n    /* \"#utility.yul\":5786:5877   */\n  tag_34\n  jump\t// in\ntag_113:\n    /* \"#utility.yul\":5780:5784   */\n  dup3\n    /* \"#utility.yul\":5773:5878   */\n  sstore\n    /* \"#utility.yul\":5691:5884   */\n  pop\n    /* \"#utility.yul\":5615:5884   */\n  pop\n  pop\n  pop\n  jump\t// out\n    /* \"#utility.yul\":5890:5963   */\ntag_39:\n    /* \"#utility.yul\":5935:5938   */\n  0x00\n    /* \"#utility.yul\":5890:5963   */\n  swap1\n  jump\t// out\n    /* \"#utility.yul\":5969:6158   */\ntag_40:\n    /* \"#utility.yul\":6046:6078   */\n  tag_117\n  tag_39\n  jump\t// in\ntag_117:\n    /* \"#utility.yul\":6087:6152   */\n  tag_118\n    /* \"#utility.yul\":6145:6151   */\n  dup2\n    /* \"#utility.yul\":6137:6143   */\n  dup5\n    /* \"#utility.yul\":6131:6135   */\n  dup5\n    /* \"#utility.yul\":6087:6152   */\n  tag_38\n  jump\t// in\ntag_118:\n    /* \"#utility.yul\":6022:6158   */\n  pop\n    /* \"#utility.yul\":5969:6158   */\n  pop\n  pop\n  jump\t// out\n    /* \"#utility.yul\":6164:6350   */\ntag_41:\n    /* \"#utility.yul\":6224:6344   */\ntag_120:\n    /* \"#utility.yul\":6241:6244   */\n  dup2\n    /* \"#utility.yul\":6234:6239   */\n  dup2\n    /* \"#utility.yul\":6231:6245   */\n  lt\n    /* \"#utility.yul\":6224:6344   */\n  iszero\n  tag_122\n  jumpi\n    /* \"#utility.yul\":6295:6334   */\n  tag_123\n    /* \"#utility.yul\":6332:6333   */\n  0x00\n    /* \"#utility.yul\":6325:6330   */\n  dup3\n    /* \"#utility.yul\":6295:6334   */\n  tag_40\n  jump\t// in\ntag_123:\n    /* \"#utility.yul\":6268:6269   */\n  0x01\n    /* \"#utility.yul\":6261:6266   */\n  dup2\n    /* \"#utility.yul\":6257:6270   */\n  add\n    /* \"#utility.yul\":6248:6270   */\n  swap1\n  pop\n    /* \"#utility.yul\":6224:6344   */\n  jump(tag_120)\ntag_122:\n    /* \"#utility.yul\":6164:6350   */\n  pop\n  pop\n  jump\t// out\n    /* \"#utility.yul\":6356:6899   */\ntag_42:\n    /* \"#utility.yul\":6457:6459   */\n  0x1f\n    /* \"#utility.yul\":6452:6455   */\n  dup3\n    /* \"#utility.yul\":6449:6460   */\n  gt\n    /* \"#utility.yul\":6446:6892   */\n  iszero\n  tag_125\n  jumpi\n    /* \"#utility.yul\":6491:6529   */\n  tag_126\n    /* \"#utility.yul\":6523:6528   */\n  dup2\n    /* \"#utility.yul\":6491:6529   */\n  tag_31\n  jump\t// in\ntag_126:\n    /* \"#utility.yul\":6575:6604   */\n  tag_127\n    /* \"#utility.yul\":6593:6603   */\n  dup5\n    /* \"#utility.yul\":6575:6604   */\n  tag_32\n  jump\t// in\ntag_127:\n    /* \"#utility.yul\":6565:6573   */\n  dup2\n    /* \"#utility.yul\":6561:6605   */\n  add\n    /* \"#utility.yul\":6758:6760   */\n  0x20\n    /* \"#utility.yul\":6746:6756   */\n  dup6\n    /* \"#utility.yul\":6743:6761   */\n  lt\n    /* \"#utility.yul\":6740:6789   */\n  iszero\n  tag_128\n  jumpi\n    /* \"#utility.yul\":6779:6787   */\n  dup2\n    /* \"#utility.yul\":6764:6787   */\n  swap1\n  pop\n    /* \"#utility.yul\":6740:6789   */\ntag_128:\n    /* \"#utility.yul\":6802:6882   */\n  tag_129\n    /* \"#utility.yul\":6858:6880   */\n  tag_130\n    /* \"#utility.yul\":6876:6879   */\n  dup6\n    /* \"#utility.yul\":6858:6880   */\n  tag_32\n  jump\t// in\ntag_130:\n    /* \"#utility.yul\":6848:6856   */\n  dup4\n    /* \"#utility.yul\":6844:6881   */\n  add\n    /* \"#utility.yul\":6831:6842   */\n  dup3\n    /* \"#utility.yul\":6802:6882   */\n  tag_41\n  jump\t// in\ntag_129:\n    /* \"#utility.yul\":6461:6892   */\n  pop\n  pop\n    /* \"#utility.yul\":6446:6892   */\ntag_125:\n    /* \"#utility.yul\":6356:6899   */\n  pop\n  pop\n  pop\n  jump\t// out\n    /* \"#utility.yul\":6905:7022   */\ntag_43:\n    /* \"#utility.yul\":6959:6967   */\n  0x00\n    /* \"#utility.yul\":7009:7014   */\n  dup3\n    /* \"#utility.yul\":7003:7007   */\n  dup3\n    /* \"#utility.yul\":6999:7015   */\n  shr\n    /* \"#utility.yul\":6978:7015   */\n  swap1\n  pop\n    /* \"#utility.yul\":6905:7022   */\n  swap3\n  swap2\n  pop\n  pop\n  jump\t// out\n    /* \"#utility.yul\":7028:7197   */\ntag_44:\n    /* \"#utility.yul\":7072:7078   */\n  0x00\n    /* \"#utility.yul\":7105:7156   */\n  tag_133\n    /* \"#utility.yul\":7153:7154   */\n  0x00\n    /* \"#utility.yul\":7149:7155   */\n  not\n    /* \"#utility.yul\":7141:7146   */\n  dup5\n    /* \"#utility.yul\":7138:7139   */\n  0x08\n    /* \"#utility.yul\":7134:7147   */\n  mul\n    /* \"#utility.yul\":7105:7156   */\n  tag_43\n  jump\t// in\ntag_133:\n    /* \"#utility.yul\":7101:7157   */\n  not\n    /* \"#utility.yul\":7186:7190   */\n  dup1\n    /* \"#utility.yul\":7180:7184   */\n  dup4\n    /* \"#utility.yul\":7176:7191   */\n  and\n    /* \"#utility.yul\":7166:7191   */\n  swap2\n  pop\n    /* \"#utility.yul\":7079:7197   */\n  pop\n    /* \"#utility.yul\":7028:7197   */\n  swap3\n  swap2\n  pop\n  pop\n  jump\t// out\n    /* \"#utility.yul\":7202:7497   */\ntag_45:\n    /* \"#utility.yul\":7278:7282   */\n  0x00\n    /* \"#utility.yul\":7424:7453   */\n  tag_135\n    /* \"#utility.yul\":7449:7452   */\n  dup4\n    /* \"#utility.yul\":7443:7447   */\n  dup4\n    /* \"#utility.yul\":7424:7453   */\n  tag_44\n  jump\t// in\ntag_135:\n    /* \"#utility.yul\":7416:7453   */\n  swap2\n  pop\n    /* \"#utility.yul\":7486:7489   */\n  dup3\n    /* \"#utility.yul\":7483:7484   */\n  0x02\n    /* \"#utility.yul\":7479:7490   */\n  mul\n    /* \"#utility.yul\":7473:7477   */\n  dup3\n    /* \"#utility.yul\":7470:7491   */\n  or\n    /* \"#utility.yul\":7462:7491   */\n  swap1\n  pop\n    /* \"#utility.yul\":7202:7497   */\n  swap3\n  swap2\n  pop\n  pop\n  jump\t// out\n    /* \"#utility.yul\":7502:8897   */\ntag_7:\n    /* \"#utility.yul\":7619:7656   */\n  tag_137\n    /* \"#utility.yul\":7652:7655   */\n  dup3\n    /* \"#utility.yul\":7619:7656   */\n  tag_28\n  jump\t// in\ntag_137:\n    /* \"#utility.yul\":7721:7739   */\n  0xffffffffffffffff\n    /* \"#utility.yul\":7713:7719   */\n  dup2\n    /* \"#utility.yul\":7710:7740   */\n  gt\n    /* \"#utility.yul\":7707:7763   */\n  iszero\n  tag_138\n  jumpi\n    /* \"#utility.yul\":7743:7761   */\n  tag_139\n  tag_18\n  jump\t// in\ntag_139:\n    /* \"#utility.yul\":7707:7763   */\ntag_138:\n    /* \"#utility.yul\":7787:7825   */\n  tag_140\n    /* \"#utility.yul\":7819:7823   */\n  dup3\n    /* \"#utility.yul\":7813:7824   */\n  sload\n    /* \"#utility.yul\":7787:7825   */\n  tag_30\n  jump\t// in\ntag_140:\n    /* \"#utility.yul\":7872:7939   */\n  tag_141\n    /* \"#utility.yul\":7932:7938   */\n  dup3\n    /* \"#utility.yul\":7924:7930   */\n  dup3\n    /* \"#utility.yul\":7918:7922   */\n  dup6\n    /* \"#utility.yul\":7872:7939   */\n  tag_42\n  jump\t// in\ntag_141:\n    /* \"#utility.yul\":7966:7967   */\n  0x00\n    /* \"#utility.yul\":7990:7994   */\n  0x20\n    /* \"#utility.yul\":7977:7994   */\n  swap1\n  pop\n    /* \"#utility.yul\":8022:8024   */\n  0x1f\n    /* \"#utility.yul\":8014:8020   */\n  dup4\n    /* \"#utility.yul\":8011:8025   */\n  gt\n    /* \"#utility.yul\":8039:8040   */\n  0x01\n    /* \"#utility.yul\":8034:8652   */\n  dup2\n  eq\n  tag_143\n  jumpi\n    /* \"#utility.yul\":8696:8697   */\n  0x00\n    /* \"#utility.yul\":8713:8719   */\n  dup5\n    /* \"#utility.yul\":8710:8787   */\n  iszero\n  tag_144\n  jumpi\n    /* \"#utility.yul\":8762:8771   */\n  dup3\n    /* \"#utility.yul\":8757:8760   */\n  dup8\n    /* \"#utility.yul\":8753:8772   */\n  add\n    /* \"#utility.yul\":8747:8773   */\n  mload\n    /* \"#utility.yul\":8738:8773   */\n  swap1\n  pop\n    /* \"#utility.yul\":8710:8787   */\ntag_144:\n    /* \"#utility.yul\":8813:8880   */\n  tag_145\n    /* \"#utility.yul\":8873:8879   */\n  dup6\n    /* \"#utility.yul\":8866:8871   */\n  dup3\n    /* \"#utility.yul\":8813:8880   */\n  tag_45\n  jump\t// in\ntag_145:\n    /* \"#utility.yul\":8807:8811   */\n  dup7\n    /* \"#utility.yul\":8800:8881   */\n  sstore\n    /* \"#utility.yul\":8669:8891   */\n  pop\n    /* \"#utility.yul\":8004:8891   */\n  jump(tag_142)\n    /* \"#utility.yul\":8034:8652   */\ntag_143:\n    /* \"#utility.yul\":8086:8090   */\n  0x1f\n    /* \"#utility.yul\":8082:8091   */\n  not\n    /* \"#utility.yul\":8074:8080   */\n  dup5\n    /* \"#utility.yul\":8070:8092   */\n  and\n    /* \"#utility.yul\":8120:8157   */\n  tag_146\n    /* \"#utility.yul\":8152:8156   */\n  dup7\n    /* \"#utility.yul\":8120:8157   */\n  tag_31\n  jump\t// in\ntag_146:\n    /* \"#utility.yul\":8179:8180   */\n  0x00\n    /* \"#utility.yul\":8193:8401   */\ntag_147:\n    /* \"#utility.yul\":8207:8214   */\n  dup3\n    /* \"#utility.yul\":8204:8205   */\n  dup2\n    /* \"#utility.yul\":8201:8215   */\n  lt\n    /* \"#utility.yul\":8193:8401   */\n  iszero\n  tag_149\n  jumpi\n    /* \"#utility.yul\":8286:8295   */\n  dup5\n    /* \"#utility.yul\":8281:8284   */\n  dup10\n    /* \"#utility.yul\":8277:8296   */\n  add\n    /* \"#utility.yul\":8271:8297   */\n  mload\n    /* \"#utility.yul\":8263:8269   */\n  dup3\n    /* \"#utility.yul\":8256:8298   */\n  sstore\n    /* \"#utility.yul\":8337:8338   */\n  0x01\n    /* \"#utility.yul\":8329:8335   */\n  dup3\n    /* \"#utility.yul\":8325:8339   */\n  add\n    /* \"#utility.yul\":8315:8339   */\n  swap2\n  pop\n    /* \"#utility.yul\":8384:8386   */\n  0x20\n    /* \"#utility.yul\":8373:8382   */\n  dup6\n    /* \"#utility.yul\":8369:8387   */\n  add\n    /* \"#utility.yul\":8356:8387   */\n  swap5\n  pop\n    /* \"#utility.yul\":8230:8234   */\n  0x20\n    /* \"#utility.yul\":8227:8228   */\n  dup2\n    /* \"#utility.yul\":8223:8235   */\n  add\n    /* \"#utility.yul\":8218:8235   */\n  swap1\n  pop\n    /* \"#utility.yul\":8193:8401   */\n  jump(tag_147)\ntag_149:\n    /* \"#utility.yul\":8429:8435   */\n  dup7\n    /* \"#utility.yul\":8420:8427   */\n  dup4\n    /* \"#utility.yul\":8417:8436   */\n  lt\n    /* \"#utility.yul\":8414:8593   */\n  iszero\n  tag_150\n  jumpi\n    /* \"#utility.yul\":8487:8496   */\n  dup5\n    /* \"#utility.yul\":8482:8485   */\n  dup10\n    /* \"#utility.yul\":8478:8497   */\n  add\n    /* \"#utility.yul\":8472:8498   */\n  mload\n    /* \"#utility.yul\":8530:8578   */\n  tag_151\n    /* \"#utility.yul\":8572:8576   */\n  0x1f\n    /* \"#utility.yul\":8564:8570   */\n  dup10\n    /* \"#utility.yul\":8560:8577   */\n  and\n    /* \"#utility.yul\":8549:8558   */\n  dup3\n    /* \"#utility.yul\":8530:8578   */\n  tag_44\n  jump\t// in\ntag_151:\n    /* \"#utility.yul\":8522:8528   */\n  dup4\n    /* \"#utility.yul\":8515:8579   */\n  sstore\n    /* \"#utility.yul\":8437:8593   */\n  pop\n    /* \"#utility.yul\":8414:8593   */\ntag_150:\n    /* \"#utility.yul\":8639:8640   */\n  0x01\n    /* \"#utility.yul\":8635:8636   */\n  0x02\n    /* \"#utility.yul\":8627:8633   */\n  dup9\n    /* \"#utility.yul\":8623:8637   */\n  mul\n    /* \"#utility.yul\":8619:8641   */\n  add\n    /* \"#utility.yul\":8613:8617   */\n  dup9\n    /* \"#utility.yul\":8606:8642   */\n  sstore\n    /* \"#utility.yul\":8041:8652   */\n  pop\n  pop\n  pop\n    /* \"#utility.yul\":8004:8891   */\ntag_142:\n  pop\n    /* \"#utility.yul\":7594:8897   */\n  pop\n  pop\n  pop\n    /* \"#utility.yul\":7502:8897   */\n  pop\n  pop\n  jump\t// out\n    /* \"#utility.yul\":8903:9083   */\ntag_46:\n    /* \"#utility.yul\":8951:9028   */\n  0x4e487b7100000000000000000000000000000000000000000000000000000000\n    /* \"#utility.yul\":8948:8949   */\n  0x00\n    /* \"#utility.yul\":8941:9029   */\n  mstore\n    /* \"#utility.yul\":9048:9052   */\n  0x11\n    /* \"#utility.yul\":9045:9046   */\n  0x04\n    /* \"#utility.yul\":9038:9053   */\n  mstore\n    /* \"#utility.yul\":9072:9076   */\n  0x24\n    /* \"#utility.yul\":9069:9070   */\n  0x00\n    /* \"#utility.yul\":9062:9077   */\n  revert\n    /* \"#utility.yul\":9089:9499   */\ntag_10:\n    /* \"#utility.yul\":9129:9136   */\n  0x00\n    /* \"#utility.yul\":9152:9172   */\n  tag_154\n    /* \"#utility.yul\":9170:9171   */\n  dup3\n    /* \"#utility.yul\":9152:9172   */\n  tag_25\n  jump\t// in\ntag_154:\n    /* \"#utility.yul\":9147:9172   */\n  swap2\n  pop\n    /* \"#utility.yul\":9186:9206   */\n  tag_155\n    /* \"#utility.yul\":9204:9205   */\n  dup4\n    /* \"#utility.yul\":9186:9206   */\n  tag_25\n  jump\t// in\ntag_155:\n    /* \"#utility.yul\":9181:9206   */\n  swap3\n  pop\n    /* \"#utility.yul\":9241:9242   */\n  dup3\n    /* \"#utility.yul\":9238:9239   */\n  dup3\n    /* \"#utility.yul\":9234:9243   */\n  mul\n    /* \"#utility.yul\":9263:9293   */\n  tag_156\n    /* \"#utility.yul\":9281:9292   */\n  dup2\n    /* \"#utility.yul\":9263:9293   */\n  tag_25\n  jump\t// in\ntag_156:\n    /* \"#utility.yul\":9252:9293   */\n  swap2\n  pop\n    /* \"#utility.yul\":9442:9443   */\n  dup3\n    /* \"#utility.yul\":9433:9440   */\n  dup3\n    /* \"#utility.yul\":9429:9444   */\n  div\n    /* \"#utility.yul\":9426:9427   */\n  dup5\n    /* \"#utility.yul\":9423:9445   */\n  eq\n    /* \"#utility.yul\":9403:9404   */\n  dup4\n    /* \"#utility.yul\":9396:9405   */\n  iszero\n    /* \"#utility.yul\":9376:9459   */\n  or\n    /* \"#utility.yul\":9353:9492   */\n  tag_157\n  jumpi\n    /* \"#utility.yul\":9472:9490   */\n  tag_158\n  tag_46\n  jump\t// in\ntag_158:\n    /* \"#utility.yul\":9353:9492   */\ntag_157:\n    /* \"#utility.yul\":9137:9499   */\n  pop\n    /* \"#utility.yul\":9089:9499   */\n  swap3\n  swap2\n  pop\n  pop\n  jump\t// out\n    /* \"Assignments/Lecture 6/AssetFactory.sol\":312:960  contract Asset  {... */\ntag_11:\n  dataSize(sub_0)\n  dup1\n  dataOffset(sub_0)\n  0x00\n  codecopy\n  0x00\n  return\nstop\n\nsub_0: assembly {\n        /* \"Assignments/Lecture 6/AssetFactory.sol\":312:960  contract Asset  {... */\n      mstore(0x40, 0x80)\n      jumpi(tag_1, lt(calldatasize, 0x04))\n      shr(0xe0, calldataload(0x00))\n      dup1\n      0x047fc9aa\n      eq\n      tag_2\n      jumpi\n      dup1\n      0x06fdde03\n      eq\n      tag_3\n      jumpi\n      dup1\n      0x2ccb1b30\n      eq\n      tag_4\n      jumpi\n      dup1\n      0x8ba47bdd\n      eq\n      tag_5\n      jumpi\n    tag_1:\n      0x00\n      dup1\n      revert\n        /* \"Assignments/Lecture 6/AssetFactory.sol\":384:405  uint256 public supply */\n    tag_2:\n      callvalue\n      dup1\n      iszero\n      tag_6\n      jumpi\n      0x00\n      dup1\n      revert\n    tag_6:\n      pop\n      tag_7\n      tag_8\n      jump\t// in\n    tag_7:\n      mload(0x40)\n      tag_9\n      swap2\n      swap1\n      tag_10\n      jump\t// in\n    tag_9:\n      mload(0x40)\n      dup1\n      swap2\n      sub\n      swap1\n      return\n        /* \"Assignments/Lecture 6/AssetFactory.sol\":334:352  string public name */\n    tag_3:\n      callvalue\n      dup1\n      iszero\n      tag_11\n      jumpi\n      0x00\n      dup1\n      revert\n    tag_11:\n      pop\n      tag_12\n      tag_13\n      jump\t// in\n    tag_12:\n      mload(0x40)\n      tag_14\n      swap2\n      swap1\n      tag_15\n      jump\t// in\n    tag_14:\n      mload(0x40)\n      dup1\n      swap2\n      sub\n      swap1\n      return\n        /* \"Assignments/Lecture 6/AssetFactory.sol\":638:958  function transferTo(address target, uint256 amount) external payable {... */\n    tag_4:\n      tag_16\n      0x04\n      dup1\n      calldatasize\n      sub\n      dup2\n      add\n      swap1\n      tag_17\n      swap2\n      swap1\n      tag_18\n      jump\t// in\n    tag_17:\n      tag_19\n      jump\t// in\n    tag_16:\n      stop\n        /* \"Assignments/Lecture 6/AssetFactory.sol\":358:378  string public ticker */\n    tag_5:\n      callvalue\n      dup1\n      iszero\n      tag_20\n      jumpi\n      0x00\n      dup1\n      revert\n    tag_20:\n      pop\n      tag_21\n      tag_22\n      jump\t// in\n    tag_21:\n      mload(0x40)\n      tag_23\n      swap2\n      swap1\n      tag_15\n      jump\t// in\n    tag_23:\n      mload(0x40)\n      dup1\n      swap2\n      sub\n      swap1\n      return\n        /* \"Assignments/Lecture 6/AssetFactory.sol\":384:405  uint256 public supply */\n    tag_8:\n      sload(0x02)\n      dup2\n      jump\t// out\n        /* \"Assignments/Lecture 6/AssetFactory.sol\":334:352  string public name */\n    tag_13:\n      0x00\n      dup1\n      sload\n      tag_24\n      swap1\n      tag_25\n      jump\t// in\n    tag_24:\n      dup1\n      0x1f\n      add\n      0x20\n      dup1\n      swap2\n      div\n      mul\n      0x20\n      add\n      mload(0x40)\n      swap1\n      dup2\n      add\n      0x40\n      mstore\n      dup1\n      swap3\n      swap2\n      swap1\n      dup2\n      dup2\n      mstore\n      0x20\n      add\n      dup3\n      dup1\n      sload\n      tag_26\n      swap1\n      tag_25\n      jump\t// in\n    tag_26:\n      dup1\n      iszero\n      tag_27\n      jumpi\n      dup1\n      0x1f\n      lt\n      tag_28\n      jumpi\n      0x0100\n      dup1\n      dup4\n      sload\n      div\n      mul\n      dup4\n      mstore\n      swap2\n      0x20\n      add\n      swap2\n      jump(tag_27)\n    tag_28:\n      dup3\n      add\n      swap2\n      swap1\n      0x00\n      mstore\n      keccak256(0x00, 0x20)\n      swap1\n    tag_29:\n      dup2\n      sload\n      dup2\n      mstore\n      swap1\n      0x01\n      add\n      swap1\n      0x20\n      add\n      dup1\n      dup4\n      gt\n      tag_29\n      jumpi\n      dup3\n      swap1\n      sub\n      0x1f\n      and\n      dup3\n      add\n      swap2\n    tag_27:\n      pop\n      pop\n      pop\n      pop\n      pop\n      dup2\n      jump\t// out\n        /* \"Assignments/Lecture 6/AssetFactory.sol\":638:958  function transferTo(address target, uint256 amount) external payable {... */\n    tag_19:\n        /* \"Assignments/Lecture 6/AssetFactory.sol\":733:739  supply */\n      sload(0x02)\n        /* \"Assignments/Lecture 6/AssetFactory.sol\":721:730  msg.value */\n      callvalue\n        /* \"Assignments/Lecture 6/AssetFactory.sol\":721:739  msg.value > supply */\n      gt\n        /* \"Assignments/Lecture 6/AssetFactory.sol\":717:765  if (msg.value > supply) revert IncorrectAmount() */\n      iszero\n      tag_31\n      jumpi\n        /* \"Assignments/Lecture 6/AssetFactory.sol\":748:765  IncorrectAmount() */\n      mload(0x40)\n      0x69640e7200000000000000000000000000000000000000000000000000000000\n      dup2\n      mstore\n      0x04\n      add\n      mload(0x40)\n      dup1\n      swap2\n      sub\n      swap1\n      revert\n        /* \"Assignments/Lecture 6/AssetFactory.sol\":717:765  if (msg.value > supply) revert IncorrectAmount() */\n    tag_31:\n        /* \"Assignments/Lecture 6/AssetFactory.sol\":793:799  amount */\n      dup1\n        /* \"Assignments/Lecture 6/AssetFactory.sol\":784:790  supply */\n      sload(0x02)\n        /* \"Assignments/Lecture 6/AssetFactory.sol\":784:799  supply - amount */\n      tag_32\n      swap2\n      swap1\n      tag_33\n      jump\t// in\n    tag_32:\n        /* \"Assignments/Lecture 6/AssetFactory.sol\":775:781  supply */\n      0x02\n        /* \"Assignments/Lecture 6/AssetFactory.sol\":775:799  supply = supply - amount */\n      dup2\n      swap1\n      sstore\n      pop\n        /* \"Assignments/Lecture 6/AssetFactory.sol\":811:823  bool success */\n      0x00\n        /* \"Assignments/Lecture 6/AssetFactory.sol\":829:835  target */\n      dup3\n        /* \"Assignments/Lecture 6/AssetFactory.sol\":829:840  target.call */\n      0xffffffffffffffffffffffffffffffffffffffff\n      and\n        /* \"Assignments/Lecture 6/AssetFactory.sol\":848:857  msg.value */\n      callvalue\n        /* \"Assignments/Lecture 6/AssetFactory.sol\":829:862  target.call{value: msg.value}(\"\") */\n      mload(0x40)\n      tag_34\n      swap1\n      tag_35\n      jump\t// in\n    tag_34:\n      0x00\n      mload(0x40)\n      dup1\n      dup4\n      sub\n      dup2\n      dup6\n      dup8\n      gas\n      call\n      swap3\n      pop\n      pop\n      pop\n      returndatasize\n      dup1\n      0x00\n      dup2\n      eq\n      tag_38\n      jumpi\n      mload(0x40)\n      swap2\n      pop\n      and(add(returndatasize, 0x3f), not(0x1f))\n      dup3\n      add\n      0x40\n      mstore\n      returndatasize\n      dup3\n      mstore\n      returndatasize\n      0x00\n      0x20\n      dup5\n      add\n      returndatacopy\n      jump(tag_37)\n    tag_38:\n      0x60\n      swap2\n      pop\n    tag_37:\n      pop\n        /* \"Assignments/Lecture 6/AssetFactory.sol\":810:862  (bool success, ) = target.call{value: msg.value}(\"\") */\n      pop\n      swap1\n      pop\n        /* \"Assignments/Lecture 6/AssetFactory.sol\":880:887  success */\n      dup1\n        /* \"Assignments/Lecture 6/AssetFactory.sol\":872:907  require(success, \"Transfer failed\") */\n      tag_39\n      jumpi\n      mload(0x40)\n      0x08c379a000000000000000000000000000000000000000000000000000000000\n      dup2\n      mstore\n      0x04\n      add\n      tag_40\n      swap1\n      tag_41\n      jump\t// in\n    tag_40:\n      mload(0x40)\n      dup1\n      swap2\n      sub\n      swap1\n      revert\n    tag_39:\n        /* \"Assignments/Lecture 6/AssetFactory.sol\":945:951  amount */\n      dup2\n        /* \"Assignments/Lecture 6/AssetFactory.sol\":926:933  holders */\n      0x03\n        /* \"Assignments/Lecture 6/AssetFactory.sol\":926:941  holders[target] */\n      0x00\n        /* \"Assignments/Lecture 6/AssetFactory.sol\":934:940  target */\n      dup6\n        /* \"Assignments/Lecture 6/AssetFactory.sol\":926:941  holders[target] */\n      0xffffffffffffffffffffffffffffffffffffffff\n      and\n      0xffffffffffffffffffffffffffffffffffffffff\n      and\n      dup2\n      mstore\n      0x20\n      add\n      swap1\n      dup2\n      mstore\n      0x20\n      add\n      0x00\n      keccak256\n      0x00\n        /* \"Assignments/Lecture 6/AssetFactory.sol\":926:951  holders[target] += amount */\n      dup3\n      dup3\n      sload\n      tag_42\n      swap2\n      swap1\n      tag_43\n      jump\t// in\n    tag_42:\n      swap3\n      pop\n      pop\n      dup2\n      swap1\n      sstore\n      pop\n        /* \"Assignments/Lecture 6/AssetFactory.sol\":707:958  {... */\n      pop\n        /* \"Assignments/Lecture 6/AssetFactory.sol\":638:958  function transferTo(address target, uint256 amount) external payable {... */\n      pop\n      pop\n      jump\t// out\n        /* \"Assignments/Lecture 6/AssetFactory.sol\":358:378  string public ticker */\n    tag_22:\n      0x01\n      dup1\n      sload\n      tag_44\n      swap1\n      tag_25\n      jump\t// in\n    tag_44:\n      dup1\n      0x1f\n      add\n      0x20\n      dup1\n      swap2\n      div\n      mul\n      0x20\n      add\n      mload(0x40)\n      swap1\n      dup2\n      add\n      0x40\n      mstore\n      dup1\n      swap3\n      swap2\n      swap1\n      dup2\n      dup2\n      mstore\n      0x20\n      add\n      dup3\n      dup1\n      sload\n      tag_45\n      swap1\n      tag_25\n      jump\t// in\n    tag_45:\n      dup1\n      iszero\n      tag_46\n      jumpi\n      dup1\n      0x1f\n      lt\n      tag_47\n      jumpi\n      0x0100\n      dup1\n      dup4\n      sload\n      div\n      mul\n      dup4\n      mstore\n      swap2\n      0x20\n      add\n      swap2\n      jump(tag_46)\n    tag_47:\n      dup3\n      add\n      swap2\n      swap1\n      0x00\n      mstore\n      keccak256(0x00, 0x20)\n      swap1\n    tag_48:\n      dup2\n      sload\n      dup2\n      mstore\n      swap1\n      0x01\n      add\n      swap1\n      0x20\n      add\n      dup1\n      dup4\n      gt\n      tag_48\n      jumpi\n      dup3\n      swap1\n      sub\n      0x1f\n      and\n      dup3\n      add\n      swap2\n    tag_46:\n      pop\n      pop\n      pop\n      pop\n      pop\n      dup2\n      jump\t// out\n        /* \"#utility.yul\":7:84   */\n    tag_49:\n        /* \"#utility.yul\":44:51   */\n      0x00\n        /* \"#utility.yul\":73:78   */\n      dup2\n        /* \"#utility.yul\":62:78   */\n      swap1\n      pop\n        /* \"#utility.yul\":7:84   */\n      swap2\n      swap1\n      pop\n      jump\t// out\n        /* \"#utility.yul\":90:208   */\n    tag_50:\n        /* \"#utility.yul\":177:201   */\n      tag_75\n        /* \"#utility.yul\":195:200   */\n      dup2\n        /* \"#utility.yul\":177:201   */\n      tag_49\n      jump\t// in\n    tag_75:\n        /* \"#utility.yul\":172:175   */\n      dup3\n        /* \"#utility.yul\":165:202   */\n      mstore\n        /* \"#utility.yul\":90:208   */\n      pop\n      pop\n      jump\t// out\n        /* \"#utility.yul\":214:436   */\n    tag_10:\n        /* \"#utility.yul\":307:311   */\n      0x00\n        /* \"#utility.yul\":345:347   */\n      0x20\n        /* \"#utility.yul\":334:343   */\n      dup3\n        /* \"#utility.yul\":330:348   */\n      add\n        /* \"#utility.yul\":322:348   */\n      swap1\n      pop\n        /* \"#utility.yul\":358:429   */\n      tag_77\n        /* \"#utility.yul\":426:427   */\n      0x00\n        /* \"#utility.yul\":415:424   */\n      dup4\n        /* \"#utility.yul\":411:428   */\n      add\n        /* \"#utility.yul\":402:408   */\n      dup5\n        /* \"#utility.yul\":358:429   */\n      tag_50\n      jump\t// in\n    tag_77:\n        /* \"#utility.yul\":214:436   */\n      swap3\n      swap2\n      pop\n      pop\n      jump\t// out\n        /* \"#utility.yul\":442:541   */\n    tag_51:\n        /* \"#utility.yul\":494:500   */\n      0x00\n        /* \"#utility.yul\":528:533   */\n      dup2\n        /* \"#utility.yul\":522:534   */\n      mload\n        /* \"#utility.yul\":512:534   */\n      swap1\n      pop\n        /* \"#utility.yul\":442:541   */\n      swap2\n      swap1\n      pop\n      jump\t// out\n        /* \"#utility.yul\":547:716   */\n    tag_52:\n        /* \"#utility.yul\":631:642   */\n      0x00\n        /* \"#utility.yul\":665:671   */\n      dup3\n        /* \"#utility.yul\":660:663   */\n      dup3\n        /* \"#utility.yul\":653:672   */\n      mstore\n        /* \"#utility.yul\":705:709   */\n      0x20\n        /* \"#utility.yul\":700:703   */\n      dup3\n        /* \"#utility.yul\":696:710   */\n      add\n        /* \"#utility.yul\":681:710   */\n      swap1\n      pop\n        /* \"#utility.yul\":547:716   */\n      swap3\n      swap2\n      pop\n      pop\n      jump\t// out\n        /* \"#utility.yul\":722:861   */\n    tag_53:\n        /* \"#utility.yul\":811:817   */\n      dup3\n        /* \"#utility.yul\":806:809   */\n      dup2\n        /* \"#utility.yul\":801:804   */\n      dup4\n        /* \"#utility.yul\":795:818   */\n      mcopy\n        /* \"#utility.yul\":852:853   */\n      0x00\n        /* \"#utility.yul\":843:849   */\n      dup4\n        /* \"#utility.yul\":838:841   */\n      dup4\n        /* \"#utility.yul\":834:850   */\n      add\n        /* \"#utility.yul\":827:854   */\n      mstore\n        /* \"#utility.yul\":722:861   */\n      pop\n      pop\n      pop\n      jump\t// out\n        /* \"#utility.yul\":867:969   */\n    tag_54:\n        /* \"#utility.yul\":908:914   */\n      0x00\n        /* \"#utility.yul\":959:961   */\n      0x1f\n        /* \"#utility.yul\":955:962   */\n      not\n        /* \"#utility.yul\":950:952   */\n      0x1f\n        /* \"#utility.yul\":943:948   */\n      dup4\n        /* \"#utility.yul\":939:953   */\n      add\n        /* \"#utility.yul\":935:963   */\n      and\n        /* \"#utility.yul\":925:963   */\n      swap1\n      pop\n        /* \"#utility.yul\":867:969   */\n      swap2\n      swap1\n      pop\n      jump\t// out\n        /* \"#utility.yul\":975:1352   */\n    tag_55:\n        /* \"#utility.yul\":1063:1066   */\n      0x00\n        /* \"#utility.yul\":1091:1130   */\n      tag_83\n        /* \"#utility.yul\":1124:1129   */\n      dup3\n        /* \"#utility.yul\":1091:1130   */\n      tag_51\n      jump\t// in\n    tag_83:\n        /* \"#utility.yul\":1146:1217   */\n      tag_84\n        /* \"#utility.yul\":1210:1216   */\n      dup2\n        /* \"#utility.yul\":1205:1208   */\n      dup6\n        /* \"#utility.yul\":1146:1217   */\n      tag_52\n      jump\t// in\n    tag_84:\n        /* \"#utility.yul\":1139:1217   */\n      swap4\n      pop\n        /* \"#utility.yul\":1226:1291   */\n      tag_85\n        /* \"#utility.yul\":1284:1290   */\n      dup2\n        /* \"#utility.yul\":1279:1282   */\n      dup6\n        /* \"#utility.yul\":1272:1276   */\n      0x20\n        /* \"#utility.yul\":1265:1270   */\n      dup7\n        /* \"#utility.yul\":1261:1277   */\n      add\n        /* \"#utility.yul\":1226:1291   */\n      tag_53\n      jump\t// in\n    tag_85:\n        /* \"#utility.yul\":1316:1345   */\n      tag_86\n        /* \"#utility.yul\":1338:1344   */\n      dup2\n        /* \"#utility.yul\":1316:1345   */\n      tag_54\n      jump\t// in\n    tag_86:\n        /* \"#utility.yul\":1311:1314   */\n      dup5\n        /* \"#utility.yul\":1307:1346   */\n      add\n        /* \"#utility.yul\":1300:1346   */\n      swap2\n      pop\n        /* \"#utility.yul\":1067:1352   */\n      pop\n        /* \"#utility.yul\":975:1352   */\n      swap3\n      swap2\n      pop\n      pop\n      jump\t// out\n        /* \"#utility.yul\":1358:1671   */\n    tag_15:\n        /* \"#utility.yul\":1471:1475   */\n      0x00\n        /* \"#utility.yul\":1509:1511   */\n      0x20\n        /* \"#utility.yul\":1498:1507   */\n      dup3\n        /* \"#utility.yul\":1494:1512   */\n      add\n        /* \"#utility.yul\":1486:1512   */\n      swap1\n      pop\n        /* \"#utility.yul\":1558:1567   */\n      dup2\n        /* \"#utility.yul\":1552:1556   */\n      dup2\n        /* \"#utility.yul\":1548:1568   */\n      sub\n        /* \"#utility.yul\":1544:1545   */\n      0x00\n        /* \"#utility.yul\":1533:1542   */\n      dup4\n        /* \"#utility.yul\":1529:1546   */\n      add\n        /* \"#utility.yul\":1522:1569   */\n      mstore\n        /* \"#utility.yul\":1586:1664   */\n      tag_88\n        /* \"#utility.yul\":1659:1663   */\n      dup2\n        /* \"#utility.yul\":1650:1656   */\n      dup5\n        /* \"#utility.yul\":1586:1664   */\n      tag_55\n      jump\t// in\n    tag_88:\n        /* \"#utility.yul\":1578:1664   */\n      swap1\n      pop\n        /* \"#utility.yul\":1358:1671   */\n      swap3\n      swap2\n      pop\n      pop\n      jump\t// out\n        /* \"#utility.yul\":1758:1875   */\n    tag_57:\n        /* \"#utility.yul\":1867:1868   */\n      0x00\n        /* \"#utility.yul\":1864:1865   */\n      dup1\n        /* \"#utility.yul\":1857:1869   */\n      revert\n        /* \"#utility.yul\":2004:2130   */\n    tag_59:\n        /* \"#utility.yul\":2041:2048   */\n      0x00\n        /* \"#utility.yul\":2081:2123   */\n      0xffffffffffffffffffffffffffffffffffffffff\n        /* \"#utility.yul\":2074:2079   */\n      dup3\n        /* \"#utility.yul\":2070:2124   */\n      and\n        /* \"#utility.yul\":2059:2124   */\n      swap1\n      pop\n        /* \"#utility.yul\":2004:2130   */\n      swap2\n      swap1\n      pop\n      jump\t// out\n        /* \"#utility.yul\":2136:2232   */\n    tag_60:\n        /* \"#utility.yul\":2173:2180   */\n      0x00\n        /* \"#utility.yul\":2202:2226   */\n      tag_94\n        /* \"#utility.yul\":2220:2225   */\n      dup3\n        /* \"#utility.yul\":2202:2226   */\n      tag_59\n      jump\t// in\n    tag_94:\n        /* \"#utility.yul\":2191:2226   */\n      swap1\n      pop\n        /* \"#utility.yul\":2136:2232   */\n      swap2\n      swap1\n      pop\n      jump\t// out\n        /* \"#utility.yul\":2238:2360   */\n    tag_61:\n        /* \"#utility.yul\":2311:2335   */\n      tag_96\n        /* \"#utility.yul\":2329:2334   */\n      dup2\n        /* \"#utility.yul\":2311:2335   */\n      tag_60\n      jump\t// in\n    tag_96:\n        /* \"#utility.yul\":2304:2309   */\n      dup2\n        /* \"#utility.yul\":2301:2336   */\n      eq\n        /* \"#utility.yul\":2291:2354   */\n      tag_97\n      jumpi\n        /* \"#utility.yul\":2350:2351   */\n      0x00\n        /* \"#utility.yul\":2347:2348   */\n      dup1\n        /* \"#utility.yul\":2340:2352   */\n      revert\n        /* \"#utility.yul\":2291:2354   */\n    tag_97:\n        /* \"#utility.yul\":2238:2360   */\n      pop\n      jump\t// out\n        /* \"#utility.yul\":2366:2505   */\n    tag_62:\n        /* \"#utility.yul\":2412:2417   */\n      0x00\n        /* \"#utility.yul\":2450:2456   */\n      dup2\n        /* \"#utility.yul\":2437:2457   */\n      calldataload\n        /* \"#utility.yul\":2428:2457   */\n      swap1\n      pop\n        /* \"#utility.yul\":2466:2499   */\n      tag_99\n        /* \"#utility.yul\":2493:2498   */\n      dup2\n        /* \"#utility.yul\":2466:2499   */\n      tag_61\n      jump\t// in\n    tag_99:\n        /* \"#utility.yul\":2366:2505   */\n      swap3\n      swap2\n      pop\n      pop\n      jump\t// out\n        /* \"#utility.yul\":2511:2633   */\n    tag_63:\n        /* \"#utility.yul\":2584:2608   */\n      tag_101\n        /* \"#utility.yul\":2602:2607   */\n      dup2\n        /* \"#utility.yul\":2584:2608   */\n      tag_49\n      jump\t// in\n    tag_101:\n        /* \"#utility.yul\":2577:2582   */\n      dup2\n        /* \"#utility.yul\":2574:2609   */\n      eq\n        /* \"#utility.yul\":2564:2627   */\n      tag_102\n      jumpi\n        /* \"#utility.yul\":2623:2624   */\n      0x00\n        /* \"#utility.yul\":2620:2621   */\n      dup1\n        /* \"#utility.yul\":2613:2625   */\n      revert\n        /* \"#utility.yul\":2564:2627   */\n    tag_102:\n        /* \"#utility.yul\":2511:2633   */\n      pop\n      jump\t// out\n        /* \"#utility.yul\":2639:2778   */\n    tag_64:\n        /* \"#utility.yul\":2685:2690   */\n      0x00\n        /* \"#utility.yul\":2723:2729   */\n      dup2\n        /* \"#utility.yul\":2710:2730   */\n      calldataload\n        /* \"#utility.yul\":2701:2730   */\n      swap1\n      pop\n        /* \"#utility.yul\":2739:2772   */\n      tag_104\n        /* \"#utility.yul\":2766:2771   */\n      dup2\n        /* \"#utility.yul\":2739:2772   */\n      tag_63\n      jump\t// in\n    tag_104:\n        /* \"#utility.yul\":2639:2778   */\n      swap3\n      swap2\n      pop\n      pop\n      jump\t// out\n        /* \"#utility.yul\":2784:3258   */\n    tag_18:\n        /* \"#utility.yul\":2852:2858   */\n      0x00\n        /* \"#utility.yul\":2860:2866   */\n      dup1\n        /* \"#utility.yul\":2909:2911   */\n      0x40\n        /* \"#utility.yul\":2897:2906   */\n      dup4\n        /* \"#utility.yul\":2888:2895   */\n      dup6\n        /* \"#utility.yul\":2884:2907   */\n      sub\n        /* \"#utility.yul\":2880:2912   */\n      slt\n        /* \"#utility.yul\":2877:2996   */\n      iszero\n      tag_106\n      jumpi\n        /* \"#utility.yul\":2915:2994   */\n      tag_107\n      tag_57\n      jump\t// in\n    tag_107:\n        /* \"#utility.yul\":2877:2996   */\n    tag_106:\n        /* \"#utility.yul\":3035:3036   */\n      0x00\n        /* \"#utility.yul\":3060:3113   */\n      tag_108\n        /* \"#utility.yul\":3105:3112   */\n      dup6\n        /* \"#utility.yul\":3096:3102   */\n      dup3\n        /* \"#utility.yul\":3085:3094   */\n      dup7\n        /* \"#utility.yul\":3081:3103   */\n      add\n        /* \"#utility.yul\":3060:3113   */\n      tag_62\n      jump\t// in\n    tag_108:\n        /* \"#utility.yul\":3050:3113   */\n      swap3\n      pop\n        /* \"#utility.yul\":3006:3123   */\n      pop\n        /* \"#utility.yul\":3162:3164   */\n      0x20\n        /* \"#utility.yul\":3188:3241   */\n      tag_109\n        /* \"#utility.yul\":3233:3240   */\n      dup6\n        /* \"#utility.yul\":3224:3230   */\n      dup3\n        /* \"#utility.yul\":3213:3222   */\n      dup7\n        /* \"#utility.yul\":3209:3231   */\n      add\n        /* \"#utility.yul\":3188:3241   */\n      tag_64\n      jump\t// in\n    tag_109:\n        /* \"#utility.yul\":3178:3241   */\n      swap2\n      pop\n        /* \"#utility.yul\":3133:3251   */\n      pop\n        /* \"#utility.yul\":2784:3258   */\n      swap3\n      pop\n      swap3\n      swap1\n      pop\n      jump\t// out\n        /* \"#utility.yul\":3264:3444   */\n    tag_65:\n        /* \"#utility.yul\":3312:3389   */\n      0x4e487b7100000000000000000000000000000000000000000000000000000000\n        /* \"#utility.yul\":3309:3310   */\n      0x00\n        /* \"#utility.yul\":3302:3390   */\n      mstore\n        /* \"#utility.yul\":3409:3413   */\n      0x22\n        /* \"#utility.yul\":3406:3407   */\n      0x04\n        /* \"#utility.yul\":3399:3414   */\n      mstore\n        /* \"#utility.yul\":3433:3437   */\n      0x24\n        /* \"#utility.yul\":3430:3431   */\n      0x00\n        /* \"#utility.yul\":3423:3438   */\n      revert\n        /* \"#utility.yul\":3450:3770   */\n    tag_25:\n        /* \"#utility.yul\":3494:3500   */\n      0x00\n        /* \"#utility.yul\":3531:3532   */\n      0x02\n        /* \"#utility.yul\":3525:3529   */\n      dup3\n        /* \"#utility.yul\":3521:3533   */\n      div\n        /* \"#utility.yul\":3511:3533   */\n      swap1\n      pop\n        /* \"#utility.yul\":3578:3579   */\n      0x01\n        /* \"#utility.yul\":3572:3576   */\n      dup3\n        /* \"#utility.yul\":3568:3580   */\n      and\n        /* \"#utility.yul\":3599:3617   */\n      dup1\n        /* \"#utility.yul\":3589:3670   */\n      tag_112\n      jumpi\n        /* \"#utility.yul\":3655:3659   */\n      0x7f\n        /* \"#utility.yul\":3647:3653   */\n      dup3\n        /* \"#utility.yul\":3643:3660   */\n      and\n        /* \"#utility.yul\":3633:3660   */\n      swap2\n      pop\n        /* \"#utility.yul\":3589:3670   */\n    tag_112:\n        /* \"#utility.yul\":3717:3719   */\n      0x20\n        /* \"#utility.yul\":3709:3715   */\n      dup3\n        /* \"#utility.yul\":3706:3720   */\n      lt\n        /* \"#utility.yul\":3686:3704   */\n      dup2\n        /* \"#utility.yul\":3683:3721   */\n      sub\n        /* \"#utility.yul\":3680:3764   */\n      tag_113\n      jumpi\n        /* \"#utility.yul\":3736:3754   */\n      tag_114\n      tag_65\n      jump\t// in\n    tag_114:\n        /* \"#utility.yul\":3680:3764   */\n    tag_113:\n        /* \"#utility.yul\":3501:3770   */\n      pop\n        /* \"#utility.yul\":3450:3770   */\n      swap2\n      swap1\n      pop\n      jump\t// out\n        /* \"#utility.yul\":3776:3956   */\n    tag_66:\n        /* \"#utility.yul\":3824:3901   */\n      0x4e487b7100000000000000000000000000000000000000000000000000000000\n        /* \"#utility.yul\":3821:3822   */\n      0x00\n        /* \"#utility.yul\":3814:3902   */\n      mstore\n        /* \"#utility.yul\":3921:3925   */\n      0x11\n        /* \"#utility.yul\":3918:3919   */\n      0x04\n        /* \"#utility.yul\":3911:3926   */\n      mstore\n        /* \"#utility.yul\":3945:3949   */\n      0x24\n        /* \"#utility.yul\":3942:3943   */\n      0x00\n        /* \"#utility.yul\":3935:3950   */\n      revert\n        /* \"#utility.yul\":3962:4156   */\n    tag_33:\n        /* \"#utility.yul\":4002:4006   */\n      0x00\n        /* \"#utility.yul\":4022:4042   */\n      tag_117\n        /* \"#utility.yul\":4040:4041   */\n      dup3\n        /* \"#utility.yul\":4022:4042   */\n      tag_49\n      jump\t// in\n    tag_117:\n        /* \"#utility.yul\":4017:4042   */\n      swap2\n      pop\n        /* \"#utility.yul\":4056:4076   */\n      tag_118\n        /* \"#utility.yul\":4074:4075   */\n      dup4\n        /* \"#utility.yul\":4056:4076   */\n      tag_49\n      jump\t// in\n    tag_118:\n        /* \"#utility.yul\":4051:4076   */\n      swap3\n      pop\n        /* \"#utility.yul\":4100:4101   */\n      dup3\n        /* \"#utility.yul\":4097:4098   */\n      dup3\n        /* \"#utility.yul\":4093:4102   */\n      sub\n        /* \"#utility.yul\":4085:4102   */\n      swap1\n      pop\n        /* \"#utility.yul\":4124:4125   */\n      dup2\n        /* \"#utility.yul\":4118:4122   */\n      dup2\n        /* \"#utility.yul\":4115:4126   */\n      gt\n        /* \"#utility.yul\":4112:4149   */\n      iszero\n      tag_119\n      jumpi\n        /* \"#utility.yul\":4129:4147   */\n      tag_120\n      tag_66\n      jump\t// in\n    tag_120:\n        /* \"#utility.yul\":4112:4149   */\n    tag_119:\n        /* \"#utility.yul\":3962:4156   */\n      swap3\n      swap2\n      pop\n      pop\n      jump\t// out\n        /* \"#utility.yul\":4162:4309   */\n    tag_67:\n        /* \"#utility.yul\":4263:4274   */\n      0x00\n        /* \"#utility.yul\":4300:4303   */\n      dup2\n        /* \"#utility.yul\":4285:4303   */\n      swap1\n      pop\n        /* \"#utility.yul\":4162:4309   */\n      swap3\n      swap2\n      pop\n      pop\n      jump\t// out\n        /* \"#utility.yul\":4315:4429   */\n    tag_68:\n      pop\n      jump\t// out\n        /* \"#utility.yul\":4435:4833   */\n    tag_69:\n        /* \"#utility.yul\":4594:4597   */\n      0x00\n        /* \"#utility.yul\":4615:4698   */\n      tag_124\n        /* \"#utility.yul\":4696:4697   */\n      0x00\n        /* \"#utility.yul\":4691:4694   */\n      dup4\n        /* \"#utility.yul\":4615:4698   */\n      tag_67\n      jump\t// in\n    tag_124:\n        /* \"#utility.yul\":4608:4698   */\n      swap2\n      pop\n        /* \"#utility.yul\":4707:4800   */\n      tag_125\n        /* \"#utility.yul\":4796:4799   */\n      dup3\n        /* \"#utility.yul\":4707:4800   */\n      tag_68\n      jump\t// in\n    tag_125:\n        /* \"#utility.yul\":4825:4826   */\n      0x00\n        /* \"#utility.yul\":4820:4823   */\n      dup3\n        /* \"#utility.yul\":4816:4827   */\n      add\n        /* \"#utility.yul\":4809:4827   */\n      swap1\n      pop\n        /* \"#utility.yul\":4435:4833   */\n      swap2\n      swap1\n      pop\n      jump\t// out\n        /* \"#utility.yul\":4839:5218   */\n    tag_35:\n        /* \"#utility.yul\":5023:5026   */\n      0x00\n        /* \"#utility.yul\":5045:5192   */\n      tag_127\n        /* \"#utility.yul\":5188:5191   */\n      dup3\n        /* \"#utility.yul\":5045:5192   */\n      tag_69\n      jump\t// in\n    tag_127:\n        /* \"#utility.yul\":5038:5192   */\n      swap2\n      pop\n        /* \"#utility.yul\":5209:5212   */\n      dup2\n        /* \"#utility.yul\":5202:5212   */\n      swap1\n      pop\n        /* \"#utility.yul\":4839:5218   */\n      swap2\n      swap1\n      pop\n      jump\t// out\n        /* \"#utility.yul\":5224:5389   */\n    tag_70:\n        /* \"#utility.yul\":5364:5381   */\n      0x5472616e73666572206661696c65640000000000000000000000000000000000\n        /* \"#utility.yul\":5360:5361   */\n      0x00\n        /* \"#utility.yul\":5352:5358   */\n      dup3\n        /* \"#utility.yul\":5348:5362   */\n      add\n        /* \"#utility.yul\":5341:5382   */\n      mstore\n        /* \"#utility.yul\":5224:5389   */\n      pop\n      jump\t// out\n        /* \"#utility.yul\":5395:5761   */\n    tag_71:\n        /* \"#utility.yul\":5537:5540   */\n      0x00\n        /* \"#utility.yul\":5558:5625   */\n      tag_130\n        /* \"#utility.yul\":5622:5624   */\n      0x0f\n        /* \"#utility.yul\":5617:5620   */\n      dup4\n        /* \"#utility.yul\":5558:5625   */\n      tag_52\n      jump\t// in\n    tag_130:\n        /* \"#utility.yul\":5551:5625   */\n      swap2\n      pop\n        /* \"#utility.yul\":5634:5727   */\n      tag_131\n        /* \"#utility.yul\":5723:5726   */\n      dup3\n        /* \"#utility.yul\":5634:5727   */\n      tag_70\n      jump\t// in\n    tag_131:\n        /* \"#utility.yul\":5752:5754   */\n      0x20\n        /* \"#utility.yul\":5747:5750   */\n      dup3\n        /* \"#utility.yul\":5743:5755   */\n      add\n        /* \"#utility.yul\":5736:5755   */\n      swap1\n      pop\n        /* \"#utility.yul\":5395:5761   */\n      swap2\n      swap1\n      pop\n      jump\t// out\n        /* \"#utility.yul\":5767:6186   */\n    tag_41:\n        /* \"#utility.yul\":5933:5937   */\n      0x00\n        /* \"#utility.yul\":5971:5973   */\n      0x20\n        /* \"#utility.yul\":5960:5969   */\n      dup3\n        /* \"#utility.yul\":5956:5974   */\n      add\n        /* \"#utility.yul\":5948:5974   */\n      swap1\n      pop\n        /* \"#utility.yul\":6020:6029   */\n      dup2\n        /* \"#utility.yul\":6014:6018   */\n      dup2\n        /* \"#utility.yul\":6010:6030   */\n      sub\n        /* \"#utility.yul\":6006:6007   */\n      0x00\n        /* \"#utility.yul\":5995:6004   */\n      dup4\n        /* \"#utility.yul\":5991:6008   */\n      add\n        /* \"#utility.yul\":5984:6031   */\n      mstore\n        /* \"#utility.yul\":6048:6179   */\n      tag_133\n        /* \"#utility.yul\":6174:6178   */\n      dup2\n        /* \"#utility.yul\":6048:6179   */\n      tag_71\n      jump\t// in\n    tag_133:\n        /* \"#utility.yul\":6040:6179   */\n      swap1\n      pop\n        /* \"#utility.yul\":5767:6186   */\n      swap2\n      swap1\n      pop\n      jump\t// out\n        /* \"#utility.yul\":6192:6383   */\n    tag_43:\n        /* \"#utility.yul\":6232:6235   */\n      0x00\n        /* \"#utility.yul\":6251:6271   */\n      tag_135\n        /* \"#utility.yul\":6269:6270   */\n      dup3\n        /* \"#utility.yul\":6251:6271   */\n      tag_49\n      jump\t// in\n    tag_135:\n        /* \"#utility.yul\":6246:6271   */\n      swap2\n      pop\n        /* \"#utility.yul\":6285:6305   */\n      tag_136\n        /* \"#utility.yul\":6303:6304   */\n      dup4\n        /* \"#utility.yul\":6285:6305   */\n      tag_49\n      jump\t// in\n    tag_136:\n        /* \"#utility.yul\":6280:6305   */\n      swap3\n      pop\n        /* \"#utility.yul\":6328:6329   */\n      dup3\n        /* \"#utility.yul\":6325:6326   */\n      dup3\n        /* \"#utility.yul\":6321:6330   */\n      add\n        /* \"#utility.yul\":6314:6330   */\n      swap1\n      pop\n        /* \"#utility.yul\":6349:6352   */\n      dup1\n        /* \"#utility.yul\":6346:6347   */\n      dup3\n        /* \"#utility.yul\":6343:6353   */\n      gt\n        /* \"#utility.yul\":6340:6376   */\n      iszero\n      tag_137\n      jumpi\n        /* \"#utility.yul\":6356:6374   */\n      tag_138\n      tag_66\n      jump\t// in\n    tag_138:\n        /* \"#utility.yul\":6340:6376   */\n    tag_137:\n        /* \"#utility.yul\":6192:6383   */\n      swap3\n      swap2\n      pop\n      pop\n      jump\t// out\n\n    auxdata: 0xa2646970667358221220df4986100310aac91edf33f23ef4caae9678f324e663a54f2e024b030e92c4b864736f6c634300081a0033\n}\n",
				"bytecode": {
					"linkReferences": {},
					"object": "608060405234801561000f575f80fd5b50604051610c67380380610c67833981810160405281019061003191906101f2565b825f908161003f919061047e565b50816001908161004f919061047e565b50670de0b6b3a764000081610064919061057a565b6002819055505050506105bb565b5f604051905090565b5f80fd5b5f80fd5b5f80fd5b5f80fd5b5f601f19601f8301169050919050565b7f4e487b71000000000000000000000000000000000000000000000000000000005f52604160045260245ffd5b6100d18261008b565b810181811067ffffffffffffffff821117156100f0576100ef61009b565b5b80604052505050565b5f610102610072565b905061010e82826100c8565b919050565b5f67ffffffffffffffff82111561012d5761012c61009b565b5b6101368261008b565b9050602081019050919050565b8281835e5f83830152505050565b5f61016361015e84610113565b6100f9565b90508281526020810184848401111561017f5761017e610087565b5b61018a848285610143565b509392505050565b5f82601f8301126101a6576101a5610083565b5b81516101b6848260208601610151565b91505092915050565b5f819050919050565b6101d1816101bf565b81146101db575f80fd5b50565b5f815190506101ec816101c8565b92915050565b5f805f606084860312156102095761020861007b565b5b5f84015167ffffffffffffffff8111156102265761022561007f565b5b61023286828701610192565b935050602084015167ffffffffffffffff8111156102535761025261007f565b5b61025f86828701610192565b9250506040610270868287016101de565b9150509250925092565b5f81519050919050565b7f4e487b71000000000000000000000000000000000000000000000000000000005f52602260045260245ffd5b5f60028204905060018216806102c857607f821691505b6020821081036102db576102da610284565b5b50919050565b5f819050815f5260205f209050919050565b5f6020601f8301049050919050565b5f82821b905092915050565b5f6008830261033d7fffffffffffffffffffffffffffffffffffffffffffffffffffffffffffffffff82610302565b6103478683610302565b95508019841693508086168417925050509392505050565b5f819050919050565b5f61038261037d610378846101bf565b61035f565b6101bf565b9050919050565b5f819050919050565b61039b83610368565b6103af6103a782610389565b84845461030e565b825550505050565b5f90565b6103c36103b7565b6103ce818484610392565b505050565b5b818110156103f1576103e65f826103bb565b6001810190506103d4565b5050565b601f82111561043657610407816102e1565b610410846102f3565b8101602085101561041f578190505b61043361042b856102f3565b8301826103d3565b50505b505050565b5f82821c905092915050565b5f6104565f198460080261043b565b1980831691505092915050565b5f61046e8383610447565b9150826002028217905092915050565b6104878261027a565b67ffffffffffffffff8111156104a05761049f61009b565b5b6104aa82546102b1565b6104b58282856103f5565b5f60209050601f8311600181146104e6575f84156104d4578287015190505b6104de8582610463565b865550610545565b601f1984166104f4866102e1565b5f5b8281101561051b578489015182556001820191506020850194506020810190506104f6565b868310156105385784890151610534601f891682610447565b8355505b6001600288020188555050505b505050505050565b7f4e487b71000000000000000000000000000000000000000000000000000000005f52601160045260245ffd5b5f610584826101bf565b915061058f836101bf565b925082820261059d816101bf565b915082820484148315176105b4576105b361054d565b5b5092915050565b61069f806105c85f395ff3fe60806040526004361061003e575f3560e01c8063047fc9aa1461004257806306fdde031461006c5780632ccb1b30146100965780638ba47bdd146100b2575b5f80fd5b34801561004d575f80fd5b506100566100dc565b6040516100639190610361565b60405180910390f35b348015610077575f80fd5b506100806100e2565b60405161008d91906103ea565b60405180910390f35b6100b060048036038101906100ab9190610492565b61016d565b005b3480156100bd575f80fd5b506100c66102bd565b6040516100d391906103ea565b60405180910390f35b60025481565b5f80546100ee906104fd565b80601f016020809104026020016040519081016040528092919081815260200182805461011a906104fd565b80156101655780601f1061013c57610100808354040283529160200191610165565b820191905f5260205f20905b81548152906001019060200180831161014857829003601f168201915b505050505081565b6002543411156101a9576040517f69640e7200000000000000000000000000000000000000000000000000000000815260040160405180910390fd5b806002546101b7919061055a565b6002819055505f8273ffffffffffffffffffffffffffffffffffffffff16346040516101e2906105ba565b5f6040518083038185875af1925050503d805f811461021c576040519150601f19603f3d011682016040523d82523d5f602084013e610221565b606091505b5050905080610265576040517f08c379a000000000000000000000000000000000000000000000000000000000815260040161025c90610618565b60405180910390fd5b8160035f8573ffffffffffffffffffffffffffffffffffffffff1673ffffffffffffffffffffffffffffffffffffffff1681526020019081526020015f205f8282546102b19190610636565b92505081905550505050565b600180546102ca906104fd565b80601f01602080910402602001604051908101604052809291908181526020018280546102f6906104fd565b80156103415780601f1061031857610100808354040283529160200191610341565b820191905f5260205f20905b81548152906001019060200180831161032457829003601f168201915b505050505081565b5f819050919050565b61035b81610349565b82525050565b5f6020820190506103745f830184610352565b92915050565b5f81519050919050565b5f82825260208201905092915050565b8281835e5f83830152505050565b5f601f19601f8301169050919050565b5f6103bc8261037a565b6103c68185610384565b93506103d6818560208601610394565b6103df816103a2565b840191505092915050565b5f6020820190508181035f83015261040281846103b2565b905092915050565b5f80fd5b5f73ffffffffffffffffffffffffffffffffffffffff82169050919050565b5f6104378261040e565b9050919050565b6104478161042d565b8114610451575f80fd5b50565b5f813590506104628161043e565b92915050565b61047181610349565b811461047b575f80fd5b50565b5f8135905061048c81610468565b92915050565b5f80604083850312156104a8576104a761040a565b5b5f6104b585828601610454565b92505060206104c68582860161047e565b9150509250929050565b7f4e487b71000000000000000000000000000000000000000000000000000000005f52602260045260245ffd5b5f600282049050600182168061051457607f821691505b602082108103610527576105266104d0565b5b50919050565b7f4e487b71000000000000000000000000000000000000000000000000000000005f52601160045260245ffd5b5f61056482610349565b915061056f83610349565b92508282039050818111156105875761058661052d565b5b92915050565b5f81905092915050565b50565b5f6105a55f8361058d565b91506105b082610597565b5f82019050919050565b5f6105c48261059a565b9150819050919050565b7f5472616e73666572206661696c656400000000000000000000000000000000005f82015250565b5f610602600f83610384565b915061060d826105ce565b602082019050919050565b5f6020820190508181035f83015261062f816105f6565b9050919050565b5f61064082610349565b915061064b83610349565b92508282019050808211156106635761066261052d565b5b9291505056fea2646970667358221220df4986100310aac91edf33f23ef4caae9678f324e663a54f2e024b030e92c4b864736f6c634300081a0033",
					"opcodes": "PUSH1 0x80 PUSH1 0x40 MSTORE CALLVALUE DUP1 ISZERO PUSH2 0xF JUMPI PUSH0 DUP1 REVERT JUMPDEST POP PUSH1 0x40 MLOAD PUSH2 0xC67 CODESIZE SUB DUP1 PUSH2 0xC67 DUP4 CODECOPY DUP2 DUP2 ADD PUSH1 0x40 MSTORE DUP2 ADD SWAP1 PUSH2 0x31 SWAP2 SWAP1 PUSH2 0x1F2 JUMP JUMPDEST DUP3 PUSH0 SWAP1 DUP2 PUSH2 0x3F SWAP2 SWAP1 PUSH2 0x47E JUMP JUMPDEST POP DUP2 PUSH1 0x1 SWAP1 DUP2 PUSH2 0x4F SWAP2 SWAP1 PUSH2 0x47E JUMP JUMPDEST POP PUSH8 0xDE0B6B3A7640000 DUP2 PUSH2 0x64 SWAP2 SWAP1 PUSH2 0x57A JUMP JUMPDEST PUSH1 0x2 DUP2 SWAP1 SSTORE POP POP POP POP PUSH2 0x5BB JUMP JUMPDEST PUSH0 PUSH1 0x40 MLOAD SWAP1 POP SWAP1 JUMP JUMPDEST PUSH0 DUP1 REVERT JUMPDEST PUSH0 DUP1 REVERT JUMPDEST PUSH0 DUP1 REVERT JUMPDEST PUSH0 DUP1 REVERT JUMPDEST PUSH0 PUSH1 0x1F NOT PUSH1 0x1F DUP4 ADD AND SWAP1 POP SWAP2 SWAP1 POP JUMP JUMPDEST PUSH32 0x4E487B7100000000000000000000000000000000000000000000000000000000 PUSH0 MSTORE PUSH1 0x41 PUSH1 0x4 MSTORE PUSH1 0x24 PUSH0 REVERT JUMPDEST PUSH2 0xD1 DUP3 PUSH2 0x8B JUMP JUMPDEST DUP2 ADD DUP2 DUP2 LT PUSH8 0xFFFFFFFFFFFFFFFF DUP3 GT OR ISZERO PUSH2 0xF0 JUMPI PUSH2 0xEF PUSH2 0x9B JUMP JUMPDEST JUMPDEST DUP1 PUSH1 0x40 MSTORE POP POP POP JUMP JUMPDEST PUSH0 PUSH2 0x102 PUSH2 0x72 JUMP JUMPDEST SWAP1 POP PUSH2 0x10E DUP3 DUP3 PUSH2 0xC8 JUMP JUMPDEST SWAP2 SWAP1 POP JUMP JUMPDEST PUSH0 PUSH8 0xFFFFFFFFFFFFFFFF DUP3 GT ISZERO PUSH2 0x12D JUMPI PUSH2 0x12C PUSH2 0x9B JUMP JUMPDEST JUMPDEST PUSH2 0x136 DUP3 PUSH2 0x8B JUMP JUMPDEST SWAP1 POP PUSH1 0x20 DUP2 ADD SWAP1 POP SWAP2 SWAP1 POP JUMP JUMPDEST DUP3 DUP2 DUP4 MCOPY PUSH0 DUP4 DUP4 ADD MSTORE POP POP POP JUMP JUMPDEST PUSH0 PUSH2 0x163 PUSH2 0x15E DUP5 PUSH2 0x113 JUMP JUMPDEST PUSH2 0xF9 JUMP JUMPDEST SWAP1 POP DUP3 DUP2 MSTORE PUSH1 0x20 DUP2 ADD DUP5 DUP5 DUP5 ADD GT ISZERO PUSH2 0x17F JUMPI PUSH2 0x17E PUSH2 0x87 JUMP JUMPDEST JUMPDEST PUSH2 0x18A DUP5 DUP3 DUP6 PUSH2 0x143 JUMP JUMPDEST POP SWAP4 SWAP3 POP POP POP JUMP JUMPDEST PUSH0 DUP3 PUSH1 0x1F DUP4 ADD SLT PUSH2 0x1A6 JUMPI PUSH2 0x1A5 PUSH2 0x83 JUMP JUMPDEST JUMPDEST DUP2 MLOAD PUSH2 0x1B6 DUP5 DUP3 PUSH1 0x20 DUP7 ADD PUSH2 0x151 JUMP JUMPDEST SWAP2 POP POP SWAP3 SWAP2 POP POP JUMP JUMPDEST PUSH0 DUP2 SWAP1 POP SWAP2 SWAP1 POP JUMP JUMPDEST PUSH2 0x1D1 DUP2 PUSH2 0x1BF JUMP JUMPDEST DUP2 EQ PUSH2 0x1DB JUMPI PUSH0 DUP1 REVERT JUMPDEST POP JUMP JUMPDEST PUSH0 DUP2 MLOAD SWAP1 POP PUSH2 0x1EC DUP2 PUSH2 0x1C8 JUMP JUMPDEST SWAP3 SWAP2 POP POP JUMP JUMPDEST PUSH0 DUP1 PUSH0 PUSH1 0x60 DUP5 DUP7 SUB SLT ISZERO PUSH2 0x209 JUMPI PUSH2 0x208 PUSH2 0x7B JUMP JUMPDEST JUMPDEST PUSH0 DUP5 ADD MLOAD PUSH8 0xFFFFFFFFFFFFFFFF DUP2 GT ISZERO PUSH2 0x226 JUMPI PUSH2 0x225 PUSH2 0x7F JUMP JUMPDEST JUMPDEST PUSH2 0x232 DUP7 DUP3 DUP8 ADD PUSH2 0x192 JUMP JUMPDEST SWAP4 POP POP PUSH1 0x20 DUP5 ADD MLOAD PUSH8 0xFFFFFFFFFFFFFFFF DUP2 GT ISZERO PUSH2 0x253 JUMPI PUSH2 0x252 PUSH2 0x7F JUMP JUMPDEST JUMPDEST PUSH2 0x25F DUP7 DUP3 DUP8 ADD PUSH2 0x192 JUMP JUMPDEST SWAP3 POP POP PUSH1 0x40 PUSH2 0x270 DUP7 DUP3 DUP8 ADD PUSH2 0x1DE JUMP JUMPDEST SWAP2 POP POP SWAP3 POP SWAP3 POP SWAP3 JUMP JUMPDEST PUSH0 DUP2 MLOAD SWAP1 POP SWAP2 SWAP1 POP JUMP JUMPDEST PUSH32 0x4E487B7100000000000000000000000000000000000000000000000000000000 PUSH0 MSTORE PUSH1 0x22 PUSH1 0x4 MSTORE PUSH1 0x24 PUSH0 REVERT JUMPDEST PUSH0 PUSH1 0x2 DUP3 DIV SWAP1 POP PUSH1 0x1 DUP3 AND DUP1 PUSH2 0x2C8 JUMPI PUSH1 0x7F DUP3 AND SWAP2 POP JUMPDEST PUSH1 0x20 DUP3 LT DUP2 SUB PUSH2 0x2DB JUMPI PUSH2 0x2DA PUSH2 0x284 JUMP JUMPDEST JUMPDEST POP SWAP2 SWAP1 POP JUMP JUMPDEST PUSH0 DUP2 SWAP1 POP DUP2 PUSH0 MSTORE PUSH1 0x20 PUSH0 KECCAK256 SWAP1 POP SWAP2 SWAP1 POP JUMP JUMPDEST PUSH0 PUSH1 0x20 PUSH1 0x1F DUP4 ADD DIV SWAP1 POP SWAP2 SWAP1 POP JUMP JUMPDEST PUSH0 DUP3 DUP3 SHL SWAP1 POP SWAP3 SWAP2 POP POP JUMP JUMPDEST PUSH0 PUSH1 0x8 DUP4 MUL PUSH2 0x33D PUSH32 0xFFFFFFFFFFFFFFFFFFFFFFFFFFFFFFFFFFFFFFFFFFFFFFFFFFFFFFFFFFFFFFFF DUP3 PUSH2 0x302 JUMP JUMPDEST PUSH2 0x347 DUP7 DUP4 PUSH2 0x302 JUMP JUMPDEST SWAP6 POP DUP1 NOT DUP5 AND SWAP4 POP DUP1 DUP7 AND DUP5 OR SWAP3 POP POP POP SWAP4 SWAP3 POP POP POP JUMP JUMPDEST PUSH0 DUP2 SWAP1 POP SWAP2 SWAP1 POP JUMP JUMPDEST PUSH0 PUSH2 0x382 PUSH2 0x37D PUSH2 0x378 DUP5 PUSH2 0x1BF JUMP JUMPDEST PUSH2 0x35F JUMP JUMPDEST PUSH2 0x1BF JUMP JUMPDEST SWAP1 POP SWAP2 SWAP1 POP JUMP JUMPDEST PUSH0 DUP2 SWAP1 POP SWAP2 SWAP1 POP JUMP JUMPDEST PUSH2 0x39B DUP4 PUSH2 0x368 JUMP JUMPDEST PUSH2 0x3AF PUSH2 0x3A7 DUP3 PUSH2 0x389 JUMP JUMPDEST DUP5 DUP5 SLOAD PUSH2 0x30E JUMP JUMPDEST DUP3 SSTORE POP POP POP POP JUMP JUMPDEST PUSH0 SWAP1 JUMP JUMPDEST PUSH2 0x3C3 PUSH2 0x3B7 JUMP JUMPDEST PUSH2 0x3CE DUP2 DUP5 DUP5 PUSH2 0x392 JUMP JUMPDEST POP POP POP JUMP JUMPDEST JUMPDEST DUP2 DUP2 LT ISZERO PUSH2 0x3F1 JUMPI PUSH2 0x3E6 PUSH0 DUP3 PUSH2 0x3BB JUMP JUMPDEST PUSH1 0x1 DUP2 ADD SWAP1 POP PUSH2 0x3D4 JUMP JUMPDEST POP POP JUMP JUMPDEST PUSH1 0x1F DUP3 GT ISZERO PUSH2 0x436 JUMPI PUSH2 0x407 DUP2 PUSH2 0x2E1 JUMP JUMPDEST PUSH2 0x410 DUP5 PUSH2 0x2F3 JUMP JUMPDEST DUP2 ADD PUSH1 0x20 DUP6 LT ISZERO PUSH2 0x41F JUMPI DUP2 SWAP1 POP JUMPDEST PUSH2 0x433 PUSH2 0x42B DUP6 PUSH2 0x2F3 JUMP JUMPDEST DUP4 ADD DUP3 PUSH2 0x3D3 JUMP JUMPDEST POP POP JUMPDEST POP POP POP JUMP JUMPDEST PUSH0 DUP3 DUP3 SHR SWAP1 POP SWAP3 SWAP2 POP POP JUMP JUMPDEST PUSH0 PUSH2 0x456 PUSH0 NOT DUP5 PUSH1 0x8 MUL PUSH2 0x43B JUMP JUMPDEST NOT DUP1 DUP4 AND SWAP2 POP POP SWAP3 SWAP2 POP POP JUMP JUMPDEST PUSH0 PUSH2 0x46E DUP4 DUP4 PUSH2 0x447 JUMP JUMPDEST SWAP2 POP DUP3 PUSH1 0x2 MUL DUP3 OR SWAP1 POP SWAP3 SWAP2 POP POP JUMP JUMPDEST PUSH2 0x487 DUP3 PUSH2 0x27A JUMP JUMPDEST PUSH8 0xFFFFFFFFFFFFFFFF DUP2 GT ISZERO PUSH2 0x4A0 JUMPI PUSH2 0x49F PUSH2 0x9B JUMP JUMPDEST JUMPDEST PUSH2 0x4AA DUP3 SLOAD PUSH2 0x2B1 JUMP JUMPDEST PUSH2 0x4B5 DUP3 DUP3 DUP6 PUSH2 0x3F5 JUMP JUMPDEST PUSH0 PUSH1 0x20 SWAP1 POP PUSH1 0x1F DUP4 GT PUSH1 0x1 DUP2 EQ PUSH2 0x4E6 JUMPI PUSH0 DUP5 ISZERO PUSH2 0x4D4 JUMPI DUP3 DUP8 ADD MLOAD SWAP1 POP JUMPDEST PUSH2 0x4DE DUP6 DUP3 PUSH2 0x463 JUMP JUMPDEST DUP7 SSTORE POP PUSH2 0x545 JUMP JUMPDEST PUSH1 0x1F NOT DUP5 AND PUSH2 0x4F4 DUP7 PUSH2 0x2E1 JUMP JUMPDEST PUSH0 JUMPDEST DUP3 DUP2 LT ISZERO PUSH2 0x51B JUMPI DUP5 DUP10 ADD MLOAD DUP3 SSTORE PUSH1 0x1 DUP3 ADD SWAP2 POP PUSH1 0x20 DUP6 ADD SWAP5 POP PUSH1 0x20 DUP2 ADD SWAP1 POP PUSH2 0x4F6 JUMP JUMPDEST DUP7 DUP4 LT ISZERO PUSH2 0x538 JUMPI DUP5 DUP10 ADD MLOAD PUSH2 0x534 PUSH1 0x1F DUP10 AND DUP3 PUSH2 0x447 JUMP JUMPDEST DUP4 SSTORE POP JUMPDEST PUSH1 0x1 PUSH1 0x2 DUP9 MUL ADD DUP9 SSTORE POP POP POP JUMPDEST POP POP POP POP POP POP JUMP JUMPDEST PUSH32 0x4E487B7100000000000000000000000000000000000000000000000000000000 PUSH0 MSTORE PUSH1 0x11 PUSH1 0x4 MSTORE PUSH1 0x24 PUSH0 REVERT JUMPDEST PUSH0 PUSH2 0x584 DUP3 PUSH2 0x1BF JUMP JUMPDEST SWAP2 POP PUSH2 0x58F DUP4 PUSH2 0x1BF JUMP JUMPDEST SWAP3 POP DUP3 DUP3 MUL PUSH2 0x59D DUP2 PUSH2 0x1BF JUMP JUMPDEST SWAP2 POP DUP3 DUP3 DIV DUP5 EQ DUP4 ISZERO OR PUSH2 0x5B4 JUMPI PUSH2 0x5B3 PUSH2 0x54D JUMP JUMPDEST JUMPDEST POP SWAP3 SWAP2 POP POP JUMP JUMPDEST PUSH2 0x69F DUP1 PUSH2 0x5C8 PUSH0 CODECOPY PUSH0 RETURN INVALID PUSH1 0x80 PUSH1 0x40 MSTORE PUSH1 0x4 CALLDATASIZE LT PUSH2 0x3E JUMPI PUSH0 CALLDATALOAD PUSH1 0xE0 SHR DUP1 PUSH4 0x47FC9AA EQ PUSH2 0x42 JUMPI DUP1 PUSH4 0x6FDDE03 EQ PUSH2 0x6C JUMPI DUP1 PUSH4 0x2CCB1B30 EQ PUSH2 0x96 JUMPI DUP1 PUSH4 0x8BA47BDD EQ PUSH2 0xB2 JUMPI JUMPDEST PUSH0 DUP1 REVERT JUMPDEST CALLVALUE DUP1 ISZERO PUSH2 0x4D JUMPI PUSH0 DUP1 REVERT JUMPDEST POP PUSH2 0x56 PUSH2 0xDC JUMP JUMPDEST PUSH1 0x40 MLOAD PUSH2 0x63 SWAP2 SWAP1 PUSH2 0x361 JUMP JUMPDEST PUSH1 0x40 MLOAD DUP1 SWAP2 SUB SWAP1 RETURN JUMPDEST CALLVALUE DUP1 ISZERO PUSH2 0x77 JUMPI PUSH0 DUP1 REVERT JUMPDEST POP PUSH2 0x80 PUSH2 0xE2 JUMP JUMPDEST PUSH1 0x40 MLOAD PUSH2 0x8D SWAP2 SWAP1 PUSH2 0x3EA JUMP JUMPDEST PUSH1 0x40 MLOAD DUP1 SWAP2 SUB SWAP1 RETURN JUMPDEST PUSH2 0xB0 PUSH1 0x4 DUP1 CALLDATASIZE SUB DUP2 ADD SWAP1 PUSH2 0xAB SWAP2 SWAP1 PUSH2 0x492 JUMP JUMPDEST PUSH2 0x16D JUMP JUMPDEST STOP JUMPDEST CALLVALUE DUP1 ISZERO PUSH2 0xBD JUMPI PUSH0 DUP1 REVERT JUMPDEST POP PUSH2 0xC6 PUSH2 0x2BD JUMP JUMPDEST PUSH1 0x40 MLOAD PUSH2 0xD3 SWAP2 SWAP1 PUSH2 0x3EA JUMP JUMPDEST PUSH1 0x40 MLOAD DUP1 SWAP2 SUB SWAP1 RETURN JUMPDEST PUSH1 0x2 SLOAD DUP2 JUMP JUMPDEST PUSH0 DUP1 SLOAD PUSH2 0xEE SWAP1 PUSH2 0x4FD JUMP JUMPDEST DUP1 PUSH1 0x1F ADD PUSH1 0x20 DUP1 SWAP2 DIV MUL PUSH1 0x20 ADD PUSH1 0x40 MLOAD SWAP1 DUP2 ADD PUSH1 0x40 MSTORE DUP1 SWAP3 SWAP2 SWAP1 DUP2 DUP2 MSTORE PUSH1 0x20 ADD DUP3 DUP1 SLOAD PUSH2 0x11A SWAP1 PUSH2 0x4FD JUMP JUMPDEST DUP1 ISZERO PUSH2 0x165 JUMPI DUP1 PUSH1 0x1F LT PUSH2 0x13C JUMPI PUSH2 0x100 DUP1 DUP4 SLOAD DIV MUL DUP4 MSTORE SWAP2 PUSH1 0x20 ADD SWAP2 PUSH2 0x165 JUMP JUMPDEST DUP3 ADD SWAP2 SWAP1 PUSH0 MSTORE PUSH1 0x20 PUSH0 KECCAK256 SWAP1 JUMPDEST DUP2 SLOAD DUP2 MSTORE SWAP1 PUSH1 0x1 ADD SWAP1 PUSH1 0x20 ADD DUP1 DUP4 GT PUSH2 0x148 JUMPI DUP3 SWAP1 SUB PUSH1 0x1F AND DUP3 ADD SWAP2 JUMPDEST POP POP POP POP POP DUP2 JUMP JUMPDEST PUSH1 0x2 SLOAD CALLVALUE GT ISZERO PUSH2 0x1A9 JUMPI PUSH1 0x40 MLOAD PUSH32 0x69640E7200000000000000000000000000000000000000000000000000000000 DUP2 MSTORE PUSH1 0x4 ADD PUSH1 0x40 MLOAD DUP1 SWAP2 SUB SWAP1 REVERT JUMPDEST DUP1 PUSH1 0x2 SLOAD PUSH2 0x1B7 SWAP2 SWAP1 PUSH2 0x55A JUMP JUMPDEST PUSH1 0x2 DUP2 SWAP1 SSTORE POP PUSH0 DUP3 PUSH20 0xFFFFFFFFFFFFFFFFFFFFFFFFFFFFFFFFFFFFFFFF AND CALLVALUE PUSH1 0x40 MLOAD PUSH2 0x1E2 SWAP1 PUSH2 0x5BA JUMP JUMPDEST PUSH0 PUSH1 0x40 MLOAD DUP1 DUP4 SUB DUP2 DUP6 DUP8 GAS CALL SWAP3 POP POP POP RETURNDATASIZE DUP1 PUSH0 DUP2 EQ PUSH2 0x21C JUMPI PUSH1 0x40 MLOAD SWAP2 POP PUSH1 0x1F NOT PUSH1 0x3F RETURNDATASIZE ADD AND DUP3 ADD PUSH1 0x40 MSTORE RETURNDATASIZE DUP3 MSTORE RETURNDATASIZE PUSH0 PUSH1 0x20 DUP5 ADD RETURNDATACOPY PUSH2 0x221 JUMP JUMPDEST PUSH1 0x60 SWAP2 POP JUMPDEST POP POP SWAP1 POP DUP1 PUSH2 0x265 JUMPI PUSH1 0x40 MLOAD PUSH32 0x8C379A000000000000000000000000000000000000000000000000000000000 DUP2 MSTORE PUSH1 0x4 ADD PUSH2 0x25C SWAP1 PUSH2 0x618 JUMP JUMPDEST PUSH1 0x40 MLOAD DUP1 SWAP2 SUB SWAP1 REVERT JUMPDEST DUP2 PUSH1 0x3 PUSH0 DUP6 PUSH20 0xFFFFFFFFFFFFFFFFFFFFFFFFFFFFFFFFFFFFFFFF AND PUSH20 0xFFFFFFFFFFFFFFFFFFFFFFFFFFFFFFFFFFFFFFFF AND DUP2 MSTORE PUSH1 0x20 ADD SWAP1 DUP2 MSTORE PUSH1 0x20 ADD PUSH0 KECCAK256 PUSH0 DUP3 DUP3 SLOAD PUSH2 0x2B1 SWAP2 SWAP1 PUSH2 0x636 JUMP JUMPDEST SWAP3 POP POP DUP2 SWAP1 SSTORE POP POP POP POP JUMP JUMPDEST PUSH1 0x1 DUP1 SLOAD PUSH2 0x2CA SWAP1 PUSH2 0x4FD JUMP JUMPDEST DUP1 PUSH1 0x1F ADD PUSH1 0x20 DUP1 SWAP2 DIV MUL PUSH1 0x20 ADD PUSH1 0x40 MLOAD SWAP1 DUP2 ADD PUSH1 0x40 MSTORE DUP1 SWAP3 SWAP2 SWAP1 DUP2 DUP2 MSTORE PUSH1 0x20 ADD DUP3 DUP1 SLOAD PUSH2 0x2F6 SWAP1 PUSH2 0x4FD JUMP JUMPDEST DUP1 ISZERO PUSH2 0x341 JUMPI DUP1 PUSH1 0x1F LT PUSH2 0x318 JUMPI PUSH2 0x100 DUP1 DUP4 SLOAD DIV MUL DUP4 MSTORE SWAP2 PUSH1 0x20 ADD SWAP2 PUSH2 0x341 JUMP JUMPDEST DUP3 ADD SWAP2 SWAP1 PUSH0 MSTORE PUSH1 0x20 PUSH0 KECCAK256 SWAP1 JUMPDEST DUP2 SLOAD DUP2 MSTORE SWAP1 PUSH1 0x1 ADD SWAP1 PUSH1 0x20 ADD DUP1 DUP4 GT PUSH2 0x324 JUMPI DUP3 SWAP1 SUB PUSH1 0x1F AND DUP3 ADD SWAP2 JUMPDEST POP POP POP POP POP DUP2 JUMP JUMPDEST PUSH0 DUP2 SWAP1 POP SWAP2 SWAP1 POP JUMP JUMPDEST PUSH2 0x35B DUP2 PUSH2 0x349 JUMP JUMPDEST DUP3 MSTORE POP POP JUMP JUMPDEST PUSH0 PUSH1 0x20 DUP3 ADD SWAP1 POP PUSH2 0x374 PUSH0 DUP4 ADD DUP5 PUSH2 0x352 JUMP JUMPDEST SWAP3 SWAP2 POP POP JUMP JUMPDEST PUSH0 DUP2 MLOAD SWAP1 POP SWAP2 SWAP1 POP JUMP JUMPDEST PUSH0 DUP3 DUP3 MSTORE PUSH1 0x20 DUP3 ADD SWAP1 POP SWAP3 SWAP2 POP POP JUMP JUMPDEST DUP3 DUP2 DUP4 MCOPY PUSH0 DUP4 DUP4 ADD MSTORE POP POP POP JUMP JUMPDEST PUSH0 PUSH1 0x1F NOT PUSH1 0x1F DUP4 ADD AND SWAP1 POP SWAP2 SWAP1 POP JUMP JUMPDEST PUSH0 PUSH2 0x3BC DUP3 PUSH2 0x37A JUMP JUMPDEST PUSH2 0x3C6 DUP2 DUP6 PUSH2 0x384 JUMP JUMPDEST SWAP4 POP PUSH2 0x3D6 DUP2 DUP6 PUSH1 0x20 DUP7 ADD PUSH2 0x394 JUMP JUMPDEST PUSH2 0x3DF DUP2 PUSH2 0x3A2 JUMP JUMPDEST DUP5 ADD SWAP2 POP POP SWAP3 SWAP2 POP POP JUMP JUMPDEST PUSH0 PUSH1 0x20 DUP3 ADD SWAP1 POP DUP2 DUP2 SUB PUSH0 DUP4 ADD MSTORE PUSH2 0x402 DUP2 DUP5 PUSH2 0x3B2 JUMP JUMPDEST SWAP1 POP SWAP3 SWAP2 POP POP JUMP JUMPDEST PUSH0 DUP1 REVERT JUMPDEST PUSH0 PUSH20 0xFFFFFFFFFFFFFFFFFFFFFFFFFFFFFFFFFFFFFFFF DUP3 AND SWAP1 POP SWAP2 SWAP1 POP JUMP JUMPDEST PUSH0 PUSH2 0x437 DUP3 PUSH2 0x40E JUMP JUMPDEST SWAP1 POP SWAP2 SWAP1 POP JUMP JUMPDEST PUSH2 0x447 DUP2 PUSH2 0x42D JUMP JUMPDEST DUP2 EQ PUSH2 0x451 JUMPI PUSH0 DUP1 REVERT JUMPDEST POP JUMP JUMPDEST PUSH0 DUP2 CALLDATALOAD SWAP1 POP PUSH2 0x462 DUP2 PUSH2 0x43E JUMP JUMPDEST SWAP3 SWAP2 POP POP JUMP JUMPDEST PUSH2 0x471 DUP2 PUSH2 0x349 JUMP JUMPDEST DUP2 EQ PUSH2 0x47B JUMPI PUSH0 DUP1 REVERT JUMPDEST POP JUMP JUMPDEST PUSH0 DUP2 CALLDATALOAD SWAP1 POP PUSH2 0x48C DUP2 PUSH2 0x468 JUMP JUMPDEST SWAP3 SWAP2 POP POP JUMP JUMPDEST PUSH0 DUP1 PUSH1 0x40 DUP4 DUP6 SUB SLT ISZERO PUSH2 0x4A8 JUMPI PUSH2 0x4A7 PUSH2 0x40A JUMP JUMPDEST JUMPDEST PUSH0 PUSH2 0x4B5 DUP6 DUP3 DUP7 ADD PUSH2 0x454 JUMP JUMPDEST SWAP3 POP POP PUSH1 0x20 PUSH2 0x4C6 DUP6 DUP3 DUP7 ADD PUSH2 0x47E JUMP JUMPDEST SWAP2 POP POP SWAP3 POP SWAP3 SWAP1 POP JUMP JUMPDEST PUSH32 0x4E487B7100000000000000000000000000000000000000000000000000000000 PUSH0 MSTORE PUSH1 0x22 PUSH1 0x4 MSTORE PUSH1 0x24 PUSH0 REVERT JUMPDEST PUSH0 PUSH1 0x2 DUP3 DIV SWAP1 POP PUSH1 0x1 DUP3 AND DUP1 PUSH2 0x514 JUMPI PUSH1 0x7F DUP3 AND SWAP2 POP JUMPDEST PUSH1 0x20 DUP3 LT DUP2 SUB PUSH2 0x527 JUMPI PUSH2 0x526 PUSH2 0x4D0 JUMP JUMPDEST JUMPDEST POP SWAP2 SWAP1 POP JUMP JUMPDEST PUSH32 0x4E487B7100000000000000000000000000000000000000000000000000000000 PUSH0 MSTORE PUSH1 0x11 PUSH1 0x4 MSTORE PUSH1 0x24 PUSH0 REVERT JUMPDEST PUSH0 PUSH2 0x564 DUP3 PUSH2 0x349 JUMP JUMPDEST SWAP2 POP PUSH2 0x56F DUP4 PUSH2 0x349 JUMP JUMPDEST SWAP3 POP DUP3 DUP3 SUB SWAP1 POP DUP2 DUP2 GT ISZERO PUSH2 0x587 JUMPI PUSH2 0x586 PUSH2 0x52D JUMP JUMPDEST JUMPDEST SWAP3 SWAP2 POP POP JUMP JUMPDEST PUSH0 DUP2 SWAP1 POP SWAP3 SWAP2 POP POP JUMP JUMPDEST POP JUMP JUMPDEST PUSH0 PUSH2 0x5A5 PUSH0 DUP4 PUSH2 0x58D JUMP JUMPDEST SWAP2 POP PUSH2 0x5B0 DUP3 PUSH2 0x597 JUMP JUMPDEST PUSH0 DUP3 ADD SWAP1 POP SWAP2 SWAP1 POP JUMP JUMPDEST PUSH0 PUSH2 0x5C4 DUP3 PUSH2 0x59A JUMP JUMPDEST SWAP2 POP DUP2 SWAP1 POP SWAP2 SWAP1 POP JUMP JUMPDEST PUSH32 0x5472616E73666572206661696C65640000000000000000000000000000000000 PUSH0 DUP3 ADD MSTORE POP JUMP JUMPDEST PUSH0 PUSH2 0x602 PUSH1 0xF DUP4 PUSH2 0x384 JUMP JUMPDEST SWAP2 POP PUSH2 0x60D DUP3 PUSH2 0x5CE JUMP JUMPDEST PUSH1 0x20 DUP3 ADD SWAP1 POP SWAP2 SWAP1 POP JUMP JUMPDEST PUSH0 PUSH1 0x20 DUP3 ADD SWAP1 POP DUP2 DUP2 SUB PUSH0 DUP4 ADD MSTORE PUSH2 0x62F DUP2 PUSH2 0x5F6 JUMP JUMPDEST SWAP1 POP SWAP2 SWAP1 POP JUMP JUMPDEST PUSH0 PUSH2 0x640 DUP3 PUSH2 0x349 JUMP JUMPDEST SWAP2 POP PUSH2 0x64B DUP4 PUSH2 0x349 JUMP JUMPDEST SWAP3 POP DUP3 DUP3 ADD SWAP1 POP DUP1 DUP3 GT ISZERO PUSH2 0x663 JUMPI PUSH2 0x662 PUSH2 0x52D JUMP JUMPDEST JUMPDEST SWAP3 SWAP2 POP POP JUMP INVALID LOG2 PUSH5 0x6970667358 0x22 SLT KECCAK256 0xDF BLOBHASH DUP7 LT SUB LT 0xAA 0xC9 0x1E 0xDF CALLER CALLCODE RETURNDATACOPY DELEGATECALL 0xCA 0xAE SWAP7 PUSH25 0xF324E663A54F2E024B030E92C4B864736F6C634300081A0033 "
				},
				"gasEstimates": {
					"creation": {
						"codeDepositCost": "339000",
						"executionCost": "infinite",
						"totalCost": "infinite"
					},
					"external": {
						"name()": "infinite",
						"supply()": "2403",
						"ticker()": "infinite",
						"transferTo(address,uint256)": "infinite"
					}
				},
				"methodIdentifiers": {
					"name()": "06fdde03",
					"supply()": "047fc9aa",
					"ticker()": "8ba47bdd",
					"transferTo(address,uint256)": "2ccb1b30"
				}
			},
			"storageLayout": {
				"storage": [
					{
						"astId": 29,
						"contract": "Assignments/Lecture 6/AssetFactory.sol:Asset",
						"label": "name",
						"offset": 0,
						"slot": "0",
						"type": "t_string_storage"
					},
					{
						"astId": 31,
						"contract": "Assignments/Lecture 6/AssetFactory.sol:Asset",
						"label": "ticker",
						"offset": 0,
						"slot": "1",
						"type": "t_string_storage"
					},
					{
						"astId": 33,
						"contract": "Assignments/Lecture 6/AssetFactory.sol:Asset",
						"label": "supply",
						"offset": 0,
						"slot": "2",
						"type": "t_uint256"
					},
					{
						"astId": 37,
						"contract": "Assignments/Lecture 6/AssetFactory.sol:Asset",
						"label": "holders",
						"offset": 0,
						"slot": "3",
						"type": "t_mapping(t_address,t_uint256)"
					}
				],
				"types": {
					"t_address": {
						"encoding": "inplace",
						"label": "address",
						"numberOfBytes": "20"
					},
					"t_mapping(t_address,t_uint256)": {
						"encoding": "mapping",
						"key": "t_address",
						"label": "mapping(address => uint256)",
						"numberOfBytes": "32",
						"value": "t_uint256"
					},
					"t_string_storage": {
						"encoding": "bytes",
						"label": "string",
						"numberOfBytes": "32"
					},
					"t_uint256": {
						"encoding": "inplace",
						"label": "uint256",
						"numberOfBytes": "32"
					}
				}
			},
			"userdoc": {
				"kind": "user",
				"methods": {},
				"version": 1
			}
		}
	}
}