{
	"data": {
		"bytecode": {
			"linkReferences": {},
			"object": "6080604052348015600e575f80fd5b506116aa8061001c5f395ff3fe60806040526004361061003e575f3560e01c80631a45ca7414610042578063859362281461007e57806399142b5f146100ba578063f2bdc035146100d6575b5f80fd5b34801561004d575f80fd5b50610068600480360381019061006391906106ae565b6100fe565b604051610075919061070d565b60405180910390f35b348015610089575f80fd5b506100a4600480360381019061009f91906106ae565b61021e565b6040516100b19190610765565b60405180910390f35b6100d460048036038101906100cf91906107a8565b610265565b005b3480156100e1575f80fd5b506100fc60048036038101906100f7919061082c565b61041a565b005b5f805f8360405161010f9190610906565b90815260200160405180910390205f9054906101000a900473ffffffffffffffffffffffffffffffffffffffff1690505f73ffffffffffffffffffffffffffffffffffffffff168173ffffffffffffffffffffffffffffffffffffffff16036101a4576040517f470cbf4700000000000000000000000000000000000000000000000000000000815260040160405180910390fd5b5f8190508073ffffffffffffffffffffffffffffffffffffffff1663047fc9aa6040518163ffffffff1660e01b8152600401602060405180830381865afa1580156101f1573d5f803e3d5ffd5b505050506040513d601f19601f820116820180604052508101906102159190610930565b92505050919050565b5f818051602081018201805184825260208301602085012081835280955050505050505f915054906101000a900473ffffffffffffffffffffffffffffffffffffffff1681565b5f73ffffffffffffffffffffffffffffffffffffffff168273ffffffffffffffffffffffffffffffffffffffff16036102ca576040517fe6c4247b00000000000000000000000000000000000000000000000000000000815260040160405180910390fd5b5f3403610303576040517f69640e7200000000000000000000000000000000000000000000000000000000815260040160405180910390fd5b5f80826040516103139190610906565b90815260200160405180910390205f9054906101000a900473ffffffffffffffffffffffffffffffffffffffff1690505f73ffffffffffffffffffffffffffffffffffffffff168173ffffffffffffffffffffffffffffffffffffffff16036103a8576040517f470cbf4700000000000000000000000000000000000000000000000000000000815260040160405180910390fd5b5f8190508073ffffffffffffffffffffffffffffffffffffffff16632ccb1b3085346040518363ffffffff1660e01b81526004016103e792919061095b565b5f604051808303815f87803b1580156103fe575f80fd5b505af1158015610410573d5f803e3d5ffd5b5050505050505050565b5f73ffffffffffffffffffffffffffffffffffffffff165f836040516104409190610906565b90815260200160405180910390205f9054906101000a900473ffffffffffffffffffffffffffffffffffffffff1673ffffffffffffffffffffffffffffffffffffffff16146104bb576040517f587daa3000000000000000000000000000000000000000000000000000000000815260040160405180910390fd5b5f8383836040516104cb90610554565b6104d7939291906109ca565b604051809103905ff0801580156104f0573d5f803e3d5ffd5b509050805f846040516105039190610906565b90815260200160405180910390205f6101000a81548173ffffffffffffffffffffffffffffffffffffffff021916908373ffffffffffffffffffffffffffffffffffffffff16021790555050505050565b610c6780610a0e83390190565b5f604051905090565b5f80fd5b5f80fd5b5f80fd5b5f80fd5b5f601f19601f8301169050919050565b7f4e487b71000000000000000000000000000000000000000000000000000000005f52604160045260245ffd5b6105c08261057a565b810181811067ffffffffffffffff821117156105df576105de61058a565b5b80604052505050565b5f6105f1610561565b90506105fd82826105b7565b919050565b5f67ffffffffffffffff82111561061c5761061b61058a565b5b6106258261057a565b9050602081019050919050565b828183375f83830152505050565b5f61065261064d84610602565b6105e8565b90508281526020810184848401111561066e5761066d610576565b5b610679848285610632565b509392505050565b5f82601f83011261069557610694610572565b5b81356106a5848260208601610640565b91505092915050565b5f602082840312156106c3576106c261056a565b5b5f82013567ffffffffffffffff8111156106e0576106df61056e565b5b6106ec84828501610681565b91505092915050565b5f819050919050565b610707816106f5565b82525050565b5f6020820190506107205f8301846106fe565b92915050565b5f73ffffffffffffffffffffffffffffffffffffffff82169050919050565b5f61074f82610726565b9050919050565b61075f81610745565b82525050565b5f6020820190506107785f830184610756565b92915050565b61078781610745565b8114610791575f80fd5b50565b5f813590506107a28161077e565b92915050565b5f80604083850312156107be576107bd61056a565b5b5f6107cb85828601610794565b925050602083013567ffffffffffffffff8111156107ec576107eb61056e565b5b6107f885828601610681565b9150509250929050565b61080b816106f5565b8114610815575f80fd5b50565b5f8135905061082681610802565b92915050565b5f805f606084860312156108435761084261056a565b5b5f84013567ffffffffffffffff8111156108605761085f61056e565b5b61086c86828701610681565b935050602084013567ffffffffffffffff81111561088d5761088c61056e565b5b61089986828701610681565b92505060406108aa86828701610818565b9150509250925092565b5f81519050919050565b5f81905092915050565b8281835e5f83830152505050565b5f6108e0826108b4565b6108ea81856108be565b93506108fa8185602086016108c8565b80840191505092915050565b5f61091182846108d6565b915081905092915050565b5f8151905061092a81610802565b92915050565b5f602082840312156109455761094461056a565b5b5f6109528482850161091c565b91505092915050565b5f60408201905061096e5f830185610756565b61097b60208301846106fe565b9392505050565b5f82825260208201905092915050565b5f61099c826108b4565b6109a68185610982565b93506109b68185602086016108c8565b6109bf8161057a565b840191505092915050565b5f6060820190508181035f8301526109e28186610992565b905081810360208301526109f68185610992565b9050610a0560408301846106fe565b94935050505056fe608060405234801561000f575f80fd5b50604051610c67380380610c67833981810160405281019061003191906101f2565b825f908161003f919061047e565b50816001908161004f919061047e565b50670de0b6b3a764000081610064919061057a565b6002819055505050506105bb565b5f604051905090565b5f80fd5b5f80fd5b5f80fd5b5f80fd5b5f601f19601f8301169050919050565b7f4e487b71000000000000000000000000000000000000000000000000000000005f52604160045260245ffd5b6100d18261008b565b810181811067ffffffffffffffff821117156100f0576100ef61009b565b5b80604052505050565b5f610102610072565b905061010e82826100c8565b919050565b5f67ffffffffffffffff82111561012d5761012c61009b565b5b6101368261008b565b9050602081019050919050565b8281835e5f83830152505050565b5f61016361015e84610113565b6100f9565b90508281526020810184848401111561017f5761017e610087565b5b61018a848285610143565b509392505050565b5f82601f8301126101a6576101a5610083565b5b81516101b6848260208601610151565b91505092915050565b5f819050919050565b6101d1816101bf565b81146101db575f80fd5b50565b5f815190506101ec816101c8565b92915050565b5f805f606084860312156102095761020861007b565b5b5f84015167ffffffffffffffff8111156102265761022561007f565b5b61023286828701610192565b935050602084015167ffffffffffffffff8111156102535761025261007f565b5b61025f86828701610192565b9250506040610270868287016101de565b9150509250925092565b5f81519050919050565b7f4e487b71000000000000000000000000000000000000000000000000000000005f52602260045260245ffd5b5f60028204905060018216806102c857607f821691505b6020821081036102db576102da610284565b5b50919050565b5f819050815f5260205f209050919050565b5f6020601f8301049050919050565b5f82821b905092915050565b5f6008830261033d7fffffffffffffffffffffffffffffffffffffffffffffffffffffffffffffffff82610302565b6103478683610302565b95508019841693508086168417925050509392505050565b5f819050919050565b5f61038261037d610378846101bf565b61035f565b6101bf565b9050919050565b5f819050919050565b61039b83610368565b6103af6103a782610389565b84845461030e565b825550505050565b5f90565b6103c36103b7565b6103ce818484610392565b505050565b5b818110156103f1576103e65f826103bb565b6001810190506103d4565b5050565b601f82111561043657610407816102e1565b610410846102f3565b8101602085101561041f578190505b61043361042b856102f3565b8301826103d3565b50505b505050565b5f82821c905092915050565b5f6104565f198460080261043b565b1980831691505092915050565b5f61046e8383610447565b9150826002028217905092915050565b6104878261027a565b67ffffffffffffffff8111156104a05761049f61009b565b5b6104aa82546102b1565b6104b58282856103f5565b5f60209050601f8311600181146104e6575f84156104d4578287015190505b6104de8582610463565b865550610545565b601f1984166104f4866102e1565b5f5b8281101561051b578489015182556001820191506020850194506020810190506104f6565b868310156105385784890151610534601f891682610447565b8355505b6001600288020188555050505b505050505050565b7f4e487b71000000000000000000000000000000000000000000000000000000005f52601160045260245ffd5b5f610584826101bf565b915061058f836101bf565b925082820261059d816101bf565b915082820484148315176105b4576105b361054d565b5b5092915050565b61069f806105c85f395ff3fe60806040526004361061003e575f3560e01c8063047fc9aa1461004257806306fdde031461006c5780632ccb1b30146100965780638ba47bdd146100b2575b5f80fd5b34801561004d575f80fd5b506100566100dc565b6040516100639190610361565b60405180910390f35b348015610077575f80fd5b506100806100e2565b60405161008d91906103ea565b60405180910390f35b6100b060048036038101906100ab9190610492565b61016d565b005b3480156100bd575f80fd5b506100c66102bd565b6040516100d391906103ea565b60405180910390f35b60025481565b5f80546100ee906104fd565b80601f016020809104026020016040519081016040528092919081815260200182805461011a906104fd565b80156101655780601f1061013c57610100808354040283529160200191610165565b820191905f5260205f20905b81548152906001019060200180831161014857829003601f168201915b505050505081565b6002543411156101a9576040517f69640e7200000000000000000000000000000000000000000000000000000000815260040160405180910390fd5b806002546101b7919061055a565b6002819055505f8273ffffffffffffffffffffffffffffffffffffffff16346040516101e2906105ba565b5f6040518083038185875af1925050503d805f811461021c576040519150601f19603f3d011682016040523d82523d5f602084013e610221565b606091505b5050905080610265576040517f08c379a000000000000000000000000000000000000000000000000000000000815260040161025c90610618565b60405180910390fd5b8160035f8573ffffffffffffffffffffffffffffffffffffffff1673ffffffffffffffffffffffffffffffffffffffff1681526020019081526020015f205f8282546102b19190610636565b92505081905550505050565b600180546102ca906104fd565b80601f01602080910402602001604051908101604052809291908181526020018280546102f6906104fd565b80156103415780601f1061031857610100808354040283529160200191610341565b820191905f5260205f20905b81548152906001019060200180831161032457829003601f168201915b505050505081565b5f819050919050565b61035b81610349565b82525050565b5f6020820190506103745f830184610352565b92915050565b5f81519050919050565b5f82825260208201905092915050565b8281835e5f83830152505050565b5f601f19601f8301169050919050565b5f6103bc8261037a565b6103c68185610384565b93506103d6818560208601610394565b6103df816103a2565b840191505092915050565b5f6020820190508181035f83015261040281846103b2565b905092915050565b5f80fd5b5f73ffffffffffffffffffffffffffffffffffffffff82169050919050565b5f6104378261040e565b9050919050565b6104478161042d565b8114610451575f80fd5b50565b5f813590506104628161043e565b92915050565b61047181610349565b811461047b575f80fd5b50565b5f8135905061048c81610468565b92915050565b5f80604083850312156104a8576104a761040a565b5b5f6104b585828601610454565b92505060206104c68582860161047e565b9150509250929050565b7f4e487b71000000000000000000000000000000000000000000000000000000005f52602260045260245ffd5b5f600282049050600182168061051457607f821691505b602082108103610527576105266104d0565b5b50919050565b7f4e487b71000000000000000000000000000000000000000000000000000000005f52601160045260245ffd5b5f61056482610349565b915061056f83610349565b92508282039050818111156105875761058661052d565b5b92915050565b5f81905092915050565b50565b5f6105a55f8361058d565b91506105b082610597565b5f82019050919050565b5f6105c48261059a565b9150819050919050565b7f5472616e73666572206661696c656400000000000000000000000000000000005f82015250565b5f610602600f83610384565b915061060d826105ce565b602082019050919050565b5f6020820190508181035f83015261062f816105f6565b9050919050565b5f61064082610349565b915061064b83610349565b92508282019050808211156106635761066261052d565b5b9291505056fea2646970667358221220df4986100310aac91edf33f23ef4caae9678f324e663a54f2e024b030e92c4b864736f6c634300081a0033a264697066735822122040b693fb557a839f74c98c1f8bd783b5e56aab78de6986ef6c9a385007efb20264736f6c634300081a0033",
			"opcodes": "PUSH1 0x80 PUSH1 0x40 MSTORE CALLVALUE DUP1 ISZERO PUSH1 0xE JUMPI PUSH0 DUP1 REVERT JUMPDEST POP PUSH2 0x16AA DUP1 PUSH2 0x1C PUSH0 CODECOPY PUSH0 RETURN INVALID PUSH1 0x80 PUSH1 0x40 MSTORE PUSH1 0x4 CALLDATASIZE LT PUSH2 0x3E JUMPI PUSH0 CALLDATALOAD PUSH1 0xE0 SHR DUP1 PUSH4 0x1A45CA74 EQ PUSH2 0x42 JUMPI DUP1 PUSH4 0x85936228 EQ PUSH2 0x7E JUMPI DUP1 PUSH4 0x99142B5F EQ PUSH2 0xBA JUMPI DUP1 PUSH4 0xF2BDC035 EQ PUSH2 0xD6 JUMPI JUMPDEST PUSH0 DUP1 REVERT JUMPDEST CALLVALUE DUP1 ISZERO PUSH2 0x4D JUMPI PUSH0 DUP1 REVERT JUMPDEST POP PUSH2 0x68 PUSH1 0x4 DUP1 CALLDATASIZE SUB DUP2 ADD SWAP1 PUSH2 0x63 SWAP2 SWAP1 PUSH2 0x6AE JUMP JUMPDEST PUSH2 0xFE JUMP JUMPDEST PUSH1 0x40 MLOAD PUSH2 0x75 SWAP2 SWAP1 PUSH2 0x70D JUMP JUMPDEST PUSH1 0x40 MLOAD DUP1 SWAP2 SUB SWAP1 RETURN JUMPDEST CALLVALUE DUP1 ISZERO PUSH2 0x89 JUMPI PUSH0 DUP1 REVERT JUMPDEST POP PUSH2 0xA4 PUSH1 0x4 DUP1 CALLDATASIZE SUB DUP2 ADD SWAP1 PUSH2 0x9F SWAP2 SWAP1 PUSH2 0x6AE JUMP JUMPDEST PUSH2 0x21E JUMP JUMPDEST PUSH1 0x40 MLOAD PUSH2 0xB1 SWAP2 SWAP1 PUSH2 0x765 JUMP JUMPDEST PUSH1 0x40 MLOAD DUP1 SWAP2 SUB SWAP1 RETURN JUMPDEST PUSH2 0xD4 PUSH1 0x4 DUP1 CALLDATASIZE SUB DUP2 ADD SWAP1 PUSH2 0xCF SWAP2 SWAP1 PUSH2 0x7A8 JUMP JUMPDEST PUSH2 0x265 JUMP JUMPDEST STOP JUMPDEST CALLVALUE DUP1 ISZERO PUSH2 0xE1 JUMPI PUSH0 DUP1 REVERT JUMPDEST POP PUSH2 0xFC PUSH1 0x4 DUP1 CALLDATASIZE SUB DUP2 ADD SWAP1 PUSH2 0xF7 SWAP2 SWAP1 PUSH2 0x82C JUMP JUMPDEST PUSH2 0x41A JUMP JUMPDEST STOP JUMPDEST PUSH0 DUP1 PUSH0 DUP4 PUSH1 0x40 MLOAD PUSH2 0x10F SWAP2 SWAP1 PUSH2 0x906 JUMP JUMPDEST SWAP1 DUP2 MSTORE PUSH1 0x20 ADD PUSH1 0x40 MLOAD DUP1 SWAP2 SUB SWAP1 KECCAK256 PUSH0 SWAP1 SLOAD SWAP1 PUSH2 0x100 EXP SWAP1 DIV PUSH20 0xFFFFFFFFFFFFFFFFFFFFFFFFFFFFFFFFFFFFFFFF AND SWAP1 POP PUSH0 PUSH20 0xFFFFFFFFFFFFFFFFFFFFFFFFFFFFFFFFFFFFFFFF AND DUP2 PUSH20 0xFFFFFFFFFFFFFFFFFFFFFFFFFFFFFFFFFFFFFFFF AND SUB PUSH2 0x1A4 JUMPI PUSH1 0x40 MLOAD PUSH32 0x470CBF4700000000000000000000000000000000000000000000000000000000 DUP2 MSTORE PUSH1 0x4 ADD PUSH1 0x40 MLOAD DUP1 SWAP2 SUB SWAP1 REVERT JUMPDEST PUSH0 DUP2 SWAP1 POP DUP1 PUSH20 0xFFFFFFFFFFFFFFFFFFFFFFFFFFFFFFFFFFFFFFFF AND PUSH4 0x47FC9AA PUSH1 0x40 MLOAD DUP2 PUSH4 0xFFFFFFFF AND PUSH1 0xE0 SHL DUP2 MSTORE PUSH1 0x4 ADD PUSH1 0x20 PUSH1 0x40 MLOAD DUP1 DUP4 SUB DUP2 DUP7 GAS STATICCALL ISZERO DUP1 ISZERO PUSH2 0x1F1 JUMPI RETURNDATASIZE PUSH0 DUP1 RETURNDATACOPY RETURNDATASIZE PUSH0 REVERT JUMPDEST POP POP POP POP PUSH1 0x40 MLOAD RETURNDATASIZE PUSH1 0x1F NOT PUSH1 0x1F DUP3 ADD AND DUP3 ADD DUP1 PUSH1 0x40 MSTORE POP DUP2 ADD SWAP1 PUSH2 0x215 SWAP2 SWAP1 PUSH2 0x930 JUMP JUMPDEST SWAP3 POP POP POP SWAP2 SWAP1 POP JUMP JUMPDEST PUSH0 DUP2 DUP1 MLOAD PUSH1 0x20 DUP2 ADD DUP3 ADD DUP1 MLOAD DUP5 DUP3 MSTORE PUSH1 0x20 DUP4 ADD PUSH1 0x20 DUP6 ADD KECCAK256 DUP2 DUP4 MSTORE DUP1 SWAP6 POP POP POP POP POP POP PUSH0 SWAP2 POP SLOAD SWAP1 PUSH2 0x100 EXP SWAP1 DIV PUSH20 0xFFFFFFFFFFFFFFFFFFFFFFFFFFFFFFFFFFFFFFFF AND DUP2 JUMP JUMPDEST PUSH0 PUSH20 0xFFFFFFFFFFFFFFFFFFFFFFFFFFFFFFFFFFFFFFFF AND DUP3 PUSH20 0xFFFFFFFFFFFFFFFFFFFFFFFFFFFFFFFFFFFFFFFF AND SUB PUSH2 0x2CA JUMPI PUSH1 0x40 MLOAD PUSH32 0xE6C4247B00000000000000000000000000000000000000000000000000000000 DUP2 MSTORE PUSH1 0x4 ADD PUSH1 0x40 MLOAD DUP1 SWAP2 SUB SWAP1 REVERT JUMPDEST PUSH0 CALLVALUE SUB PUSH2 0x303 JUMPI PUSH1 0x40 MLOAD PUSH32 0x69640E7200000000000000000000000000000000000000000000000000000000 DUP2 MSTORE PUSH1 0x4 ADD PUSH1 0x40 MLOAD DUP1 SWAP2 SUB SWAP1 REVERT JUMPDEST PUSH0 DUP1 DUP3 PUSH1 0x40 MLOAD PUSH2 0x313 SWAP2 SWAP1 PUSH2 0x906 JUMP JUMPDEST SWAP1 DUP2 MSTORE PUSH1 0x20 ADD PUSH1 0x40 MLOAD DUP1 SWAP2 SUB SWAP1 KECCAK256 PUSH0 SWAP1 SLOAD SWAP1 PUSH2 0x100 EXP SWAP1 DIV PUSH20 0xFFFFFFFFFFFFFFFFFFFFFFFFFFFFFFFFFFFFFFFF AND SWAP1 POP PUSH0 PUSH20 0xFFFFFFFFFFFFFFFFFFFFFFFFFFFFFFFFFFFFFFFF AND DUP2 PUSH20 0xFFFFFFFFFFFFFFFFFFFFFFFFFFFFFFFFFFFFFFFF AND SUB PUSH2 0x3A8 JUMPI PUSH1 0x40 MLOAD PUSH32 0x470CBF4700000000000000000000000000000000000000000000000000000000 DUP2 MSTORE PUSH1 0x4 ADD PUSH1 0x40 MLOAD DUP1 SWAP2 SUB SWAP1 REVERT JUMPDEST PUSH0 DUP2 SWAP1 POP DUP1 PUSH20 0xFFFFFFFFFFFFFFFFFFFFFFFFFFFFFFFFFFFFFFFF AND PUSH4 0x2CCB1B30 DUP6 CALLVALUE PUSH1 0x40 MLOAD DUP4 PUSH4 0xFFFFFFFF AND PUSH1 0xE0 SHL DUP2 MSTORE PUSH1 0x4 ADD PUSH2 0x3E7 SWAP3 SWAP2 SWAP1 PUSH2 0x95B JUMP JUMPDEST PUSH0 PUSH1 0x40 MLOAD DUP1 DUP4 SUB DUP2 PUSH0 DUP8 DUP1 EXTCODESIZE ISZERO DUP1 ISZERO PUSH2 0x3FE JUMPI PUSH0 DUP1 REVERT JUMPDEST POP GAS CALL ISZERO DUP1 ISZERO PUSH2 0x410 JUMPI RETURNDATASIZE PUSH0 DUP1 RETURNDATACOPY RETURNDATASIZE PUSH0 REVERT JUMPDEST POP POP POP POP POP POP POP POP JUMP JUMPDEST PUSH0 PUSH20 0xFFFFFFFFFFFFFFFFFFFFFFFFFFFFFFFFFFFFFFFF AND PUSH0 DUP4 PUSH1 0x40 MLOAD PUSH2 0x440 SWAP2 SWAP1 PUSH2 0x906 JUMP JUMPDEST SWAP1 DUP2 MSTORE PUSH1 0x20 ADD PUSH1 0x40 MLOAD DUP1 SWAP2 SUB SWAP1 KECCAK256 PUSH0 SWAP1 SLOAD SWAP1 PUSH2 0x100 EXP SWAP1 DIV PUSH20 0xFFFFFFFFFFFFFFFFFFFFFFFFFFFFFFFFFFFFFFFF AND PUSH20 0xFFFFFFFFFFFFFFFFFFFFFFFFFFFFFFFFFFFFFFFF AND EQ PUSH2 0x4BB JUMPI PUSH1 0x40 MLOAD PUSH32 0x587DAA3000000000000000000000000000000000000000000000000000000000 DUP2 MSTORE PUSH1 0x4 ADD PUSH1 0x40 MLOAD DUP1 SWAP2 SUB SWAP1 REVERT JUMPDEST PUSH0 DUP4 DUP4 DUP4 PUSH1 0x40 MLOAD PUSH2 0x4CB SWAP1 PUSH2 0x554 JUMP JUMPDEST PUSH2 0x4D7 SWAP4 SWAP3 SWAP2 SWAP1 PUSH2 0x9CA JUMP JUMPDEST PUSH1 0x40 MLOAD DUP1 SWAP2 SUB SWAP1 PUSH0 CREATE DUP1 ISZERO DUP1 ISZERO PUSH2 0x4F0 JUMPI RETURNDATASIZE PUSH0 DUP1 RETURNDATACOPY RETURNDATASIZE PUSH0 REVERT JUMPDEST POP SWAP1 POP DUP1 PUSH0 DUP5 PUSH1 0x40 MLOAD PUSH2 0x503 SWAP2 SWAP1 PUSH2 0x906 JUMP JUMPDEST SWAP1 DUP2 MSTORE PUSH1 0x20 ADD PUSH1 0x40 MLOAD DUP1 SWAP2 SUB SWAP1 KECCAK256 PUSH0 PUSH2 0x100 EXP DUP2 SLOAD DUP2 PUSH20 0xFFFFFFFFFFFFFFFFFFFFFFFFFFFFFFFFFFFFFFFF MUL NOT AND SWAP1 DUP4 PUSH20 0xFFFFFFFFFFFFFFFFFFFFFFFFFFFFFFFFFFFFFFFF AND MUL OR SWAP1 SSTORE POP POP POP POP POP JUMP JUMPDEST PUSH2 0xC67 DUP1 PUSH2 0xA0E DUP4 CODECOPY ADD SWAP1 JUMP JUMPDEST PUSH0 PUSH1 0x40 MLOAD SWAP1 POP SWAP1 JUMP JUMPDEST PUSH0 DUP1 REVERT JUMPDEST PUSH0 DUP1 REVERT JUMPDEST PUSH0 DUP1 REVERT JUMPDEST PUSH0 DUP1 REVERT JUMPDEST PUSH0 PUSH1 0x1F NOT PUSH1 0x1F DUP4 ADD AND SWAP1 POP SWAP2 SWAP1 POP JUMP JUMPDEST PUSH32 0x4E487B7100000000000000000000000000000000000000000000000000000000 PUSH0 MSTORE PUSH1 0x41 PUSH1 0x4 MSTORE PUSH1 0x24 PUSH0 REVERT JUMPDEST PUSH2 0x5C0 DUP3 PUSH2 0x57A JUMP JUMPDEST DUP2 ADD DUP2 DUP2 LT PUSH8 0xFFFFFFFFFFFFFFFF DUP3 GT OR ISZERO PUSH2 0x5DF JUMPI PUSH2 0x5DE PUSH2 0x58A JUMP JUMPDEST JUMPDEST DUP1 PUSH1 0x40 MSTORE POP POP POP JUMP JUMPDEST PUSH0 PUSH2 0x5F1 PUSH2 0x561 JUMP JUMPDEST SWAP1 POP PUSH2 0x5FD DUP3 DUP3 PUSH2 0x5B7 JUMP JUMPDEST SWAP2 SWAP1 POP JUMP JUMPDEST PUSH0 PUSH8 0xFFFFFFFFFFFFFFFF DUP3 GT ISZERO PUSH2 0x61C JUMPI PUSH2 0x61B PUSH2 0x58A JUMP JUMPDEST JUMPDEST PUSH2 0x625 DUP3 PUSH2 0x57A JUMP JUMPDEST SWAP1 POP PUSH1 0x20 DUP2 ADD SWAP1 POP SWAP2 SWAP1 POP JUMP JUMPDEST DUP3 DUP2 DUP4 CALLDATACOPY PUSH0 DUP4 DUP4 ADD MSTORE POP POP POP JUMP JUMPDEST PUSH0 PUSH2 0x652 PUSH2 0x64D DUP5 PUSH2 0x602 JUMP JUMPDEST PUSH2 0x5E8 JUMP JUMPDEST SWAP1 POP DUP3 DUP2 MSTORE PUSH1 0x20 DUP2 ADD DUP5 DUP5 DUP5 ADD GT ISZERO PUSH2 0x66E JUMPI PUSH2 0x66D PUSH2 0x576 JUMP JUMPDEST JUMPDEST PUSH2 0x679 DUP5 DUP3 DUP6 PUSH2 0x632 JUMP JUMPDEST POP SWAP4 SWAP3 POP POP POP JUMP JUMPDEST PUSH0 DUP3 PUSH1 0x1F DUP4 ADD SLT PUSH2 0x695 JUMPI PUSH2 0x694 PUSH2 0x572 JUMP JUMPDEST JUMPDEST DUP2 CALLDATALOAD PUSH2 0x6A5 DUP5 DUP3 PUSH1 0x20 DUP7 ADD PUSH2 0x640 JUMP JUMPDEST SWAP2 POP POP SWAP3 SWAP2 POP POP JUMP JUMPDEST PUSH0 PUSH1 0x20 DUP3 DUP5 SUB SLT ISZERO PUSH2 0x6C3 JUMPI PUSH2 0x6C2 PUSH2 0x56A JUMP JUMPDEST JUMPDEST PUSH0 DUP3 ADD CALLDATALOAD PUSH8 0xFFFFFFFFFFFFFFFF DUP2 GT ISZERO PUSH2 0x6E0 JUMPI PUSH2 0x6DF PUSH2 0x56E JUMP JUMPDEST JUMPDEST PUSH2 0x6EC DUP5 DUP3 DUP6 ADD PUSH2 0x681 JUMP JUMPDEST SWAP2 POP POP SWAP3 SWAP2 POP POP JUMP JUMPDEST PUSH0 DUP2 SWAP1 POP SWAP2 SWAP1 POP JUMP JUMPDEST PUSH2 0x707 DUP2 PUSH2 0x6F5 JUMP JUMPDEST DUP3 MSTORE POP POP JUMP JUMPDEST PUSH0 PUSH1 0x20 DUP3 ADD SWAP1 POP PUSH2 0x720 PUSH0 DUP4 ADD DUP5 PUSH2 0x6FE JUMP JUMPDEST SWAP3 SWAP2 POP POP JUMP JUMPDEST PUSH0 PUSH20 0xFFFFFFFFFFFFFFFFFFFFFFFFFFFFFFFFFFFFFFFF DUP3 AND SWAP1 POP SWAP2 SWAP1 POP JUMP JUMPDEST PUSH0 PUSH2 0x74F DUP3 PUSH2 0x726 JUMP JUMPDEST SWAP1 POP SWAP2 SWAP1 POP JUMP JUMPDEST PUSH2 0x75F DUP2 PUSH2 0x745 JUMP JUMPDEST DUP3 MSTORE POP POP JUMP JUMPDEST PUSH0 PUSH1 0x20 DUP3 ADD SWAP1 POP PUSH2 0x778 PUSH0 DUP4 ADD DUP5 PUSH2 0x756 JUMP JUMPDEST SWAP3 SWAP2 POP POP JUMP JUMPDEST PUSH2 0x787 DUP2 PUSH2 0x745 JUMP JUMPDEST DUP2 EQ PUSH2 0x791 JUMPI PUSH0 DUP1 REVERT JUMPDEST POP JUMP JUMPDEST PUSH0 DUP2 CALLDATALOAD SWAP1 POP PUSH2 0x7A2 DUP2 PUSH2 0x77E JUMP JUMPDEST SWAP3 SWAP2 POP POP JUMP JUMPDEST PUSH0 DUP1 PUSH1 0x40 DUP4 DUP6 SUB SLT ISZERO PUSH2 0x7BE JUMPI PUSH2 0x7BD PUSH2 0x56A JUMP JUMPDEST JUMPDEST PUSH0 PUSH2 0x7CB DUP6 DUP3 DUP7 ADD PUSH2 0x794 JUMP JUMPDEST SWAP3 POP POP PUSH1 0x20 DUP4 ADD CALLDATALOAD PUSH8 0xFFFFFFFFFFFFFFFF DUP2 GT ISZERO PUSH2 0x7EC JUMPI PUSH2 0x7EB PUSH2 0x56E JUMP JUMPDEST JUMPDEST PUSH2 0x7F8 DUP6 DUP3 DUP7 ADD PUSH2 0x681 JUMP JUMPDEST SWAP2 POP POP SWAP3 POP SWAP3 SWAP1 POP JUMP JUMPDEST PUSH2 0x80B DUP2 PUSH2 0x6F5 JUMP JUMPDEST DUP2 EQ PUSH2 0x815 JUMPI PUSH0 DUP1 REVERT JUMPDEST POP JUMP JUMPDEST PUSH0 DUP2 CALLDATALOAD SWAP1 POP PUSH2 0x826 DUP2 PUSH2 0x802 JUMP JUMPDEST SWAP3 SWAP2 POP POP JUMP JUMPDEST PUSH0 DUP1 PUSH0 PUSH1 0x60 DUP5 DUP7 SUB SLT ISZERO PUSH2 0x843 JUMPI PUSH2 0x842 PUSH2 0x56A JUMP JUMPDEST JUMPDEST PUSH0 DUP5 ADD CALLDATALOAD PUSH8 0xFFFFFFFFFFFFFFFF DUP2 GT ISZERO PUSH2 0x860 JUMPI PUSH2 0x85F PUSH2 0x56E JUMP JUMPDEST JUMPDEST PUSH2 0x86C DUP7 DUP3 DUP8 ADD PUSH2 0x681 JUMP JUMPDEST SWAP4 POP POP PUSH1 0x20 DUP5 ADD CALLDATALOAD PUSH8 0xFFFFFFFFFFFFFFFF DUP2 GT ISZERO PUSH2 0x88D JUMPI PUSH2 0x88C PUSH2 0x56E JUMP JUMPDEST JUMPDEST PUSH2 0x899 DUP7 DUP3 DUP8 ADD PUSH2 0x681 JUMP JUMPDEST SWAP3 POP POP PUSH1 0x40 PUSH2 0x8AA DUP7 DUP3 DUP8 ADD PUSH2 0x818 JUMP JUMPDEST SWAP2 POP POP SWAP3 POP SWAP3 POP SWAP3 JUMP JUMPDEST PUSH0 DUP2 MLOAD SWAP1 POP SWAP2 SWAP1 POP JUMP JUMPDEST PUSH0 DUP2 SWAP1 POP SWAP3 SWAP2 POP POP JUMP JUMPDEST DUP3 DUP2 DUP4 MCOPY PUSH0 DUP4 DUP4 ADD MSTORE POP POP POP JUMP JUMPDEST PUSH0 PUSH2 0x8E0 DUP3 PUSH2 0x8B4 JUMP JUMPDEST PUSH2 0x8EA DUP2 DUP6 PUSH2 0x8BE JUMP JUMPDEST SWAP4 POP PUSH2 0x8FA DUP2 DUP6 PUSH1 0x20 DUP7 ADD PUSH2 0x8C8 JUMP JUMPDEST DUP1 DUP5 ADD SWAP2 POP POP SWAP3 SWAP2 POP POP JUMP JUMPDEST PUSH0 PUSH2 0x911 DUP3 DUP5 PUSH2 0x8D6 JUMP JUMPDEST SWAP2 POP DUP2 SWAP1 POP SWAP3 SWAP2 POP POP JUMP JUMPDEST PUSH0 DUP2 MLOAD SWAP1 POP PUSH2 0x92A DUP2 PUSH2 0x802 JUMP JUMPDEST SWAP3 SWAP2 POP POP JUMP JUMPDEST PUSH0 PUSH1 0x20 DUP3 DUP5 SUB SLT ISZERO PUSH2 0x945 JUMPI PUSH2 0x944 PUSH2 0x56A JUMP JUMPDEST JUMPDEST PUSH0 PUSH2 0x952 DUP5 DUP3 DUP6 ADD PUSH2 0x91C JUMP JUMPDEST SWAP2 POP POP SWAP3 SWAP2 POP POP JUMP JUMPDEST PUSH0 PUSH1 0x40 DUP3 ADD SWAP1 POP PUSH2 0x96E PUSH0 DUP4 ADD DUP6 PUSH2 0x756 JUMP JUMPDEST PUSH2 0x97B PUSH1 0x20 DUP4 ADD DUP5 PUSH2 0x6FE JUMP JUMPDEST SWAP4 SWAP3 POP POP POP JUMP JUMPDEST PUSH0 DUP3 DUP3 MSTORE PUSH1 0x20 DUP3 ADD SWAP1 POP SWAP3 SWAP2 POP POP JUMP JUMPDEST PUSH0 PUSH2 0x99C DUP3 PUSH2 0x8B4 JUMP JUMPDEST PUSH2 0x9A6 DUP2 DUP6 PUSH2 0x982 JUMP JUMPDEST SWAP4 POP PUSH2 0x9B6 DUP2 DUP6 PUSH1 0x20 DUP7 ADD PUSH2 0x8C8 JUMP JUMPDEST PUSH2 0x9BF DUP2 PUSH2 0x57A JUMP JUMPDEST DUP5 ADD SWAP2 POP POP SWAP3 SWAP2 POP POP JUMP JUMPDEST PUSH0 PUSH1 0x60 DUP3 ADD SWAP1 POP DUP2 DUP2 SUB PUSH0 DUP4 ADD MSTORE PUSH2 0x9E2 DUP2 DUP7 PUSH2 0x992 JUMP JUMPDEST SWAP1 POP DUP2 DUP2 SUB PUSH1 0x20 DUP4 ADD MSTORE PUSH2 0x9F6 DUP2 DUP6 PUSH2 0x992 JUMP JUMPDEST SWAP1 POP PUSH2 0xA05 PUSH1 0x40 DUP4 ADD DUP5 PUSH2 0x6FE JUMP JUMPDEST SWAP5 SWAP4 POP POP POP POP JUMP INVALID PUSH1 0x80 PUSH1 0x40 MSTORE CALLVALUE DUP1 ISZERO PUSH2 0xF JUMPI PUSH0 DUP1 REVERT JUMPDEST POP PUSH1 0x40 MLOAD PUSH2 0xC67 CODESIZE SUB DUP1 PUSH2 0xC67 DUP4 CODECOPY DUP2 DUP2 ADD PUSH1 0x40 MSTORE DUP2 ADD SWAP1 PUSH2 0x31 SWAP2 SWAP1 PUSH2 0x1F2 JUMP JUMPDEST DUP3 PUSH0 SWAP1 DUP2 PUSH2 0x3F SWAP2 SWAP1 PUSH2 0x47E JUMP JUMPDEST POP DUP2 PUSH1 0x1 SWAP1 DUP2 PUSH2 0x4F SWAP2 SWAP1 PUSH2 0x47E JUMP JUMPDEST POP PUSH8 0xDE0B6B3A7640000 DUP2 PUSH2 0x64 SWAP2 SWAP1 PUSH2 0x57A JUMP JUMPDEST PUSH1 0x2 DUP2 SWAP1 SSTORE POP POP POP POP PUSH2 0x5BB JUMP JUMPDEST PUSH0 PUSH1 0x40 MLOAD SWAP1 POP SWAP1 JUMP JUMPDEST PUSH0 DUP1 REVERT JUMPDEST PUSH0 DUP1 REVERT JUMPDEST PUSH0 DUP1 REVERT JUMPDEST PUSH0 DUP1 REVERT JUMPDEST PUSH0 PUSH1 0x1F NOT PUSH1 0x1F DUP4 ADD AND SWAP1 POP SWAP2 SWAP1 POP JUMP JUMPDEST PUSH32 0x4E487B7100000000000000000000000000000000000000000000000000000000 PUSH0 MSTORE PUSH1 0x41 PUSH1 0x4 MSTORE PUSH1 0x24 PUSH0 REVERT JUMPDEST PUSH2 0xD1 DUP3 PUSH2 0x8B JUMP JUMPDEST DUP2 ADD DUP2 DUP2 LT PUSH8 0xFFFFFFFFFFFFFFFF DUP3 GT OR ISZERO PUSH2 0xF0 JUMPI PUSH2 0xEF PUSH2 0x9B JUMP JUMPDEST JUMPDEST DUP1 PUSH1 0x40 MSTORE POP POP POP JUMP JUMPDEST PUSH0 PUSH2 0x102 PUSH2 0x72 JUMP JUMPDEST SWAP1 POP PUSH2 0x10E DUP3 DUP3 PUSH2 0xC8 JUMP JUMPDEST SWAP2 SWAP1 POP JUMP JUMPDEST PUSH0 PUSH8 0xFFFFFFFFFFFFFFFF DUP3 GT ISZERO PUSH2 0x12D JUMPI PUSH2 0x12C PUSH2 0x9B JUMP JUMPDEST JUMPDEST PUSH2 0x136 DUP3 PUSH2 0x8B JUMP JUMPDEST SWAP1 POP PUSH1 0x20 DUP2 ADD SWAP1 POP SWAP2 SWAP1 POP JUMP JUMPDEST DUP3 DUP2 DUP4 MCOPY PUSH0 DUP4 DUP4 ADD MSTORE POP POP POP JUMP JUMPDEST PUSH0 PUSH2 0x163 PUSH2 0x15E DUP5 PUSH2 0x113 JUMP JUMPDEST PUSH2 0xF9 JUMP JUMPDEST SWAP1 POP DUP3 DUP2 MSTORE PUSH1 0x20 DUP2 ADD DUP5 DUP5 DUP5 ADD GT ISZERO PUSH2 0x17F JUMPI PUSH2 0x17E PUSH2 0x87 JUMP JUMPDEST JUMPDEST PUSH2 0x18A DUP5 DUP3 DUP6 PUSH2 0x143 JUMP JUMPDEST POP SWAP4 SWAP3 POP POP POP JUMP JUMPDEST PUSH0 DUP3 PUSH1 0x1F DUP4 ADD SLT PUSH2 0x1A6 JUMPI PUSH2 0x1A5 PUSH2 0x83 JUMP JUMPDEST JUMPDEST DUP2 MLOAD PUSH2 0x1B6 DUP5 DUP3 PUSH1 0x20 DUP7 ADD PUSH2 0x151 JUMP JUMPDEST SWAP2 POP POP SWAP3 SWAP2 POP POP JUMP JUMPDEST PUSH0 DUP2 SWAP1 POP SWAP2 SWAP1 POP JUMP JUMPDEST PUSH2 0x1D1 DUP2 PUSH2 0x1BF JUMP JUMPDEST DUP2 EQ PUSH2 0x1DB JUMPI PUSH0 DUP1 REVERT JUMPDEST POP JUMP JUMPDEST PUSH0 DUP2 MLOAD SWAP1 POP PUSH2 0x1EC DUP2 PUSH2 0x1C8 JUMP JUMPDEST SWAP3 SWAP2 POP POP JUMP JUMPDEST PUSH0 DUP1 PUSH0 PUSH1 0x60 DUP5 DUP7 SUB SLT ISZERO PUSH2 0x209 JUMPI PUSH2 0x208 PUSH2 0x7B JUMP JUMPDEST JUMPDEST PUSH0 DUP5 ADD MLOAD PUSH8 0xFFFFFFFFFFFFFFFF DUP2 GT ISZERO PUSH2 0x226 JUMPI PUSH2 0x225 PUSH2 0x7F JUMP JUMPDEST JUMPDEST PUSH2 0x232 DUP7 DUP3 DUP8 ADD PUSH2 0x192 JUMP JUMPDEST SWAP4 POP POP PUSH1 0x20 DUP5 ADD MLOAD PUSH8 0xFFFFFFFFFFFFFFFF DUP2 GT ISZERO PUSH2 0x253 JUMPI PUSH2 0x252 PUSH2 0x7F JUMP JUMPDEST JUMPDEST PUSH2 0x25F DUP7 DUP3 DUP8 ADD PUSH2 0x192 JUMP JUMPDEST SWAP3 POP POP PUSH1 0x40 PUSH2 0x270 DUP7 DUP3 DUP8 ADD PUSH2 0x1DE JUMP JUMPDEST SWAP2 POP POP SWAP3 POP SWAP3 POP SWAP3 JUMP JUMPDEST PUSH0 DUP2 MLOAD SWAP1 POP SWAP2 SWAP1 POP JUMP JUMPDEST PUSH32 0x4E487B7100000000000000000000000000000000000000000000000000000000 PUSH0 MSTORE PUSH1 0x22 PUSH1 0x4 MSTORE PUSH1 0x24 PUSH0 REVERT JUMPDEST PUSH0 PUSH1 0x2 DUP3 DIV SWAP1 POP PUSH1 0x1 DUP3 AND DUP1 PUSH2 0x2C8 JUMPI PUSH1 0x7F DUP3 AND SWAP2 POP JUMPDEST PUSH1 0x20 DUP3 LT DUP2 SUB PUSH2 0x2DB JUMPI PUSH2 0x2DA PUSH2 0x284 JUMP JUMPDEST JUMPDEST POP SWAP2 SWAP1 POP JUMP JUMPDEST PUSH0 DUP2 SWAP1 POP DUP2 PUSH0 MSTORE PUSH1 0x20 PUSH0 KECCAK256 SWAP1 POP SWAP2 SWAP1 POP JUMP JUMPDEST PUSH0 PUSH1 0x20 PUSH1 0x1F DUP4 ADD DIV SWAP1 POP SWAP2 SWAP1 POP JUMP JUMPDEST PUSH0 DUP3 DUP3 SHL SWAP1 POP SWAP3 SWAP2 POP POP JUMP JUMPDEST PUSH0 PUSH1 0x8 DUP4 MUL PUSH2 0x33D PUSH32 0xFFFFFFFFFFFFFFFFFFFFFFFFFFFFFFFFFFFFFFFFFFFFFFFFFFFFFFFFFFFFFFFF DUP3 PUSH2 0x302 JUMP JUMPDEST PUSH2 0x347 DUP7 DUP4 PUSH2 0x302 JUMP JUMPDEST SWAP6 POP DUP1 NOT DUP5 AND SWAP4 POP DUP1 DUP7 AND DUP5 OR SWAP3 POP POP POP SWAP4 SWAP3 POP POP POP JUMP JUMPDEST PUSH0 DUP2 SWAP1 POP SWAP2 SWAP1 POP JUMP JUMPDEST PUSH0 PUSH2 0x382 PUSH2 0x37D PUSH2 0x378 DUP5 PUSH2 0x1BF JUMP JUMPDEST PUSH2 0x35F JUMP JUMPDEST PUSH2 0x1BF JUMP JUMPDEST SWAP1 POP SWAP2 SWAP1 POP JUMP JUMPDEST PUSH0 DUP2 SWAP1 POP SWAP2 SWAP1 POP JUMP JUMPDEST PUSH2 0x39B DUP4 PUSH2 0x368 JUMP JUMPDEST PUSH2 0x3AF PUSH2 0x3A7 DUP3 PUSH2 0x389 JUMP JUMPDEST DUP5 DUP5 SLOAD PUSH2 0x30E JUMP JUMPDEST DUP3 SSTORE POP POP POP POP JUMP JUMPDEST PUSH0 SWAP1 JUMP JUMPDEST PUSH2 0x3C3 PUSH2 0x3B7 JUMP JUMPDEST PUSH2 0x3CE DUP2 DUP5 DUP5 PUSH2 0x392 JUMP JUMPDEST POP POP POP JUMP JUMPDEST JUMPDEST DUP2 DUP2 LT ISZERO PUSH2 0x3F1 JUMPI PUSH2 0x3E6 PUSH0 DUP3 PUSH2 0x3BB JUMP JUMPDEST PUSH1 0x1 DUP2 ADD SWAP1 POP PUSH2 0x3D4 JUMP JUMPDEST POP POP JUMP JUMPDEST PUSH1 0x1F DUP3 GT ISZERO PUSH2 0x436 JUMPI PUSH2 0x407 DUP2 PUSH2 0x2E1 JUMP JUMPDEST PUSH2 0x410 DUP5 PUSH2 0x2F3 JUMP JUMPDEST DUP2 ADD PUSH1 0x20 DUP6 LT ISZERO PUSH2 0x41F JUMPI DUP2 SWAP1 POP JUMPDEST PUSH2 0x433 PUSH2 0x42B DUP6 PUSH2 0x2F3 JUMP JUMPDEST DUP4 ADD DUP3 PUSH2 0x3D3 JUMP JUMPDEST POP POP JUMPDEST POP POP POP JUMP JUMPDEST PUSH0 DUP3 DUP3 SHR SWAP1 POP SWAP3 SWAP2 POP POP JUMP JUMPDEST PUSH0 PUSH2 0x456 PUSH0 NOT DUP5 PUSH1 0x8 MUL PUSH2 0x43B JUMP JUMPDEST NOT DUP1 DUP4 AND SWAP2 POP POP SWAP3 SWAP2 POP POP JUMP JUMPDEST PUSH0 PUSH2 0x46E DUP4 DUP4 PUSH2 0x447 JUMP JUMPDEST SWAP2 POP DUP3 PUSH1 0x2 MUL DUP3 OR SWAP1 POP SWAP3 SWAP2 POP POP JUMP JUMPDEST PUSH2 0x487 DUP3 PUSH2 0x27A JUMP JUMPDEST PUSH8 0xFFFFFFFFFFFFFFFF DUP2 GT ISZERO PUSH2 0x4A0 JUMPI PUSH2 0x49F PUSH2 0x9B JUMP JUMPDEST JUMPDEST PUSH2 0x4AA DUP3 SLOAD PUSH2 0x2B1 JUMP JUMPDEST PUSH2 0x4B5 DUP3 DUP3 DUP6 PUSH2 0x3F5 JUMP JUMPDEST PUSH0 PUSH1 0x20 SWAP1 POP PUSH1 0x1F DUP4 GT PUSH1 0x1 DUP2 EQ PUSH2 0x4E6 JUMPI PUSH0 DUP5 ISZERO PUSH2 0x4D4 JUMPI DUP3 DUP8 ADD MLOAD SWAP1 POP JUMPDEST PUSH2 0x4DE DUP6 DUP3 PUSH2 0x463 JUMP JUMPDEST DUP7 SSTORE POP PUSH2 0x545 JUMP JUMPDEST PUSH1 0x1F NOT DUP5 AND PUSH2 0x4F4 DUP7 PUSH2 0x2E1 JUMP JUMPDEST PUSH0 JUMPDEST DUP3 DUP2 LT ISZERO PUSH2 0x51B JUMPI DUP5 DUP10 ADD MLOAD DUP3 SSTORE PUSH1 0x1 DUP3 ADD SWAP2 POP PUSH1 0x20 DUP6 ADD SWAP5 POP PUSH1 0x20 DUP2 ADD SWAP1 POP PUSH2 0x4F6 JUMP JUMPDEST DUP7 DUP4 LT ISZERO PUSH2 0x538 JUMPI DUP5 DUP10 ADD MLOAD PUSH2 0x534 PUSH1 0x1F DUP10 AND DUP3 PUSH2 0x447 JUMP JUMPDEST DUP4 SSTORE POP JUMPDEST PUSH1 0x1 PUSH1 0x2 DUP9 MUL ADD DUP9 SSTORE POP POP POP JUMPDEST POP POP POP POP POP POP JUMP JUMPDEST PUSH32 0x4E487B7100000000000000000000000000000000000000000000000000000000 PUSH0 MSTORE PUSH1 0x11 PUSH1 0x4 MSTORE PUSH1 0x24 PUSH0 REVERT JUMPDEST PUSH0 PUSH2 0x584 DUP3 PUSH2 0x1BF JUMP JUMPDEST SWAP2 POP PUSH2 0x58F DUP4 PUSH2 0x1BF JUMP JUMPDEST SWAP3 POP DUP3 DUP3 MUL PUSH2 0x59D DUP2 PUSH2 0x1BF JUMP JUMPDEST SWAP2 POP DUP3 DUP3 DIV DUP5 EQ DUP4 ISZERO OR PUSH2 0x5B4 JUMPI PUSH2 0x5B3 PUSH2 0x54D JUMP JUMPDEST JUMPDEST POP SWAP3 SWAP2 POP POP JUMP JUMPDEST PUSH2 0x69F DUP1 PUSH2 0x5C8 PUSH0 CODECOPY PUSH0 RETURN INVALID PUSH1 0x80 PUSH1 0x40 MSTORE PUSH1 0x4 CALLDATASIZE LT PUSH2 0x3E JUMPI PUSH0 CALLDATALOAD PUSH1 0xE0 SHR DUP1 PUSH4 0x47FC9AA EQ PUSH2 0x42 JUMPI DUP1 PUSH4 0x6FDDE03 EQ PUSH2 0x6C JUMPI DUP1 PUSH4 0x2CCB1B30 EQ PUSH2 0x96 JUMPI DUP1 PUSH4 0x8BA47BDD EQ PUSH2 0xB2 JUMPI JUMPDEST PUSH0 DUP1 REVERT JUMPDEST CALLVALUE DUP1 ISZERO PUSH2 0x4D JUMPI PUSH0 DUP1 REVERT JUMPDEST POP PUSH2 0x56 PUSH2 0xDC JUMP JUMPDEST PUSH1 0x40 MLOAD PUSH2 0x63 SWAP2 SWAP1 PUSH2 0x361 JUMP JUMPDEST PUSH1 0x40 MLOAD DUP1 SWAP2 SUB SWAP1 RETURN JUMPDEST CALLVALUE DUP1 ISZERO PUSH2 0x77 JUMPI PUSH0 DUP1 REVERT JUMPDEST POP PUSH2 0x80 PUSH2 0xE2 JUMP JUMPDEST PUSH1 0x40 MLOAD PUSH2 0x8D SWAP2 SWAP1 PUSH2 0x3EA JUMP JUMPDEST PUSH1 0x40 MLOAD DUP1 SWAP2 SUB SWAP1 RETURN JUMPDEST PUSH2 0xB0 PUSH1 0x4 DUP1 CALLDATASIZE SUB DUP2 ADD SWAP1 PUSH2 0xAB SWAP2 SWAP1 PUSH2 0x492 JUMP JUMPDEST PUSH2 0x16D JUMP JUMPDEST STOP JUMPDEST CALLVALUE DUP1 ISZERO PUSH2 0xBD JUMPI PUSH0 DUP1 REVERT JUMPDEST POP PUSH2 0xC6 PUSH2 0x2BD JUMP JUMPDEST PUSH1 0x40 MLOAD PUSH2 0xD3 SWAP2 SWAP1 PUSH2 0x3EA JUMP JUMPDEST PUSH1 0x40 MLOAD DUP1 SWAP2 SUB SWAP1 RETURN JUMPDEST PUSH1 0x2 SLOAD DUP2 JUMP JUMPDEST PUSH0 DUP1 SLOAD PUSH2 0xEE SWAP1 PUSH2 0x4FD JUMP JUMPDEST DUP1 PUSH1 0x1F ADD PUSH1 0x20 DUP1 SWAP2 DIV MUL PUSH1 0x20 ADD PUSH1 0x40 MLOAD SWAP1 DUP2 ADD PUSH1 0x40 MSTORE DUP1 SWAP3 SWAP2 SWAP1 DUP2 DUP2 MSTORE PUSH1 0x20 ADD DUP3 DUP1 SLOAD PUSH2 0x11A SWAP1 PUSH2 0x4FD JUMP JUMPDEST DUP1 ISZERO PUSH2 0x165 JUMPI DUP1 PUSH1 0x1F LT PUSH2 0x13C JUMPI PUSH2 0x100 DUP1 DUP4 SLOAD DIV MUL DUP4 MSTORE SWAP2 PUSH1 0x20 ADD SWAP2 PUSH2 0x165 JUMP JUMPDEST DUP3 ADD SWAP2 SWAP1 PUSH0 MSTORE PUSH1 0x20 PUSH0 KECCAK256 SWAP1 JUMPDEST DUP2 SLOAD DUP2 MSTORE SWAP1 PUSH1 0x1 ADD SWAP1 PUSH1 0x20 ADD DUP1 DUP4 GT PUSH2 0x148 JUMPI DUP3 SWAP1 SUB PUSH1 0x1F AND DUP3 ADD SWAP2 JUMPDEST POP POP POP POP POP DUP2 JUMP JUMPDEST PUSH1 0x2 SLOAD CALLVALUE GT ISZERO PUSH2 0x1A9 JUMPI PUSH1 0x40 MLOAD PUSH32 0x69640E7200000000000000000000000000000000000000000000000000000000 DUP2 MSTORE PUSH1 0x4 ADD PUSH1 0x40 MLOAD DUP1 SWAP2 SUB SWAP1 REVERT JUMPDEST DUP1 PUSH1 0x2 SLOAD PUSH2 0x1B7 SWAP2 SWAP1 PUSH2 0x55A JUMP JUMPDEST PUSH1 0x2 DUP2 SWAP1 SSTORE POP PUSH0 DUP3 PUSH20 0xFFFFFFFFFFFFFFFFFFFFFFFFFFFFFFFFFFFFFFFF AND CALLVALUE PUSH1 0x40 MLOAD PUSH2 0x1E2 SWAP1 PUSH2 0x5BA JUMP JUMPDEST PUSH0 PUSH1 0x40 MLOAD DUP1 DUP4 SUB DUP2 DUP6 DUP8 GAS CALL SWAP3 POP POP POP RETURNDATASIZE DUP1 PUSH0 DUP2 EQ PUSH2 0x21C JUMPI PUSH1 0x40 MLOAD SWAP2 POP PUSH1 0x1F NOT PUSH1 0x3F RETURNDATASIZE ADD AND DUP3 ADD PUSH1 0x40 MSTORE RETURNDATASIZE DUP3 MSTORE RETURNDATASIZE PUSH0 PUSH1 0x20 DUP5 ADD RETURNDATACOPY PUSH2 0x221 JUMP JUMPDEST PUSH1 0x60 SWAP2 POP JUMPDEST POP POP SWAP1 POP DUP1 PUSH2 0x265 JUMPI PUSH1 0x40 MLOAD PUSH32 0x8C379A000000000000000000000000000000000000000000000000000000000 DUP2 MSTORE PUSH1 0x4 ADD PUSH2 0x25C SWAP1 PUSH2 0x618 JUMP JUMPDEST PUSH1 0x40 MLOAD DUP1 SWAP2 SUB SWAP1 REVERT JUMPDEST DUP2 PUSH1 0x3 PUSH0 DUP6 PUSH20 0xFFFFFFFFFFFFFFFFFFFFFFFFFFFFFFFFFFFFFFFF AND PUSH20 0xFFFFFFFFFFFFFFFFFFFFFFFFFFFFFFFFFFFFFFFF AND DUP2 MSTORE PUSH1 0x20 ADD SWAP1 DUP2 MSTORE PUSH1 0x20 ADD PUSH0 KECCAK256 PUSH0 DUP3 DUP3 SLOAD PUSH2 0x2B1 SWAP2 SWAP1 PUSH2 0x636 JUMP JUMPDEST SWAP3 POP POP DUP2 SWAP1 SSTORE POP POP POP POP JUMP JUMPDEST PUSH1 0x1 DUP1 SLOAD PUSH2 0x2CA SWAP1 PUSH2 0x4FD JUMP JUMPDEST DUP1 PUSH1 0x1F ADD PUSH1 0x20 DUP1 SWAP2 DIV MUL PUSH1 0x20 ADD PUSH1 0x40 MLOAD SWAP1 DUP2 ADD PUSH1 0x40 MSTORE DUP1 SWAP3 SWAP2 SWAP1 DUP2 DUP2 MSTORE PUSH1 0x20 ADD DUP3 DUP1 SLOAD PUSH2 0x2F6 SWAP1 PUSH2 0x4FD JUMP JUMPDEST DUP1 ISZERO PUSH2 0x341 JUMPI DUP1 PUSH1 0x1F LT PUSH2 0x318 JUMPI PUSH2 0x100 DUP1 DUP4 SLOAD DIV MUL DUP4 MSTORE SWAP2 PUSH1 0x20 ADD SWAP2 PUSH2 0x341 JUMP JUMPDEST DUP3 ADD SWAP2 SWAP1 PUSH0 MSTORE PUSH1 0x20 PUSH0 KECCAK256 SWAP1 JUMPDEST DUP2 SLOAD DUP2 MSTORE SWAP1 PUSH1 0x1 ADD SWAP1 PUSH1 0x20 ADD DUP1 DUP4 GT PUSH2 0x324 JUMPI DUP3 SWAP1 SUB PUSH1 0x1F AND DUP3 ADD SWAP2 JUMPDEST POP POP POP POP POP DUP2 JUMP JUMPDEST PUSH0 DUP2 SWAP1 POP SWAP2 SWAP1 POP JUMP JUMPDEST PUSH2 0x35B DUP2 PUSH2 0x349 JUMP JUMPDEST DUP3 MSTORE POP POP JUMP JUMPDEST PUSH0 PUSH1 0x20 DUP3 ADD SWAP1 POP PUSH2 0x374 PUSH0 DUP4 ADD DUP5 PUSH2 0x352 JUMP JUMPDEST SWAP3 SWAP2 POP POP JUMP JUMPDEST PUSH0 DUP2 MLOAD SWAP1 POP SWAP2 SWAP1 POP JUMP JUMPDEST PUSH0 DUP3 DUP3 MSTORE PUSH1 0x20 DUP3 ADD SWAP1 POP SWAP3 SWAP2 POP POP JUMP JUMPDEST DUP3 DUP2 DUP4 MCOPY PUSH0 DUP4 DUP4 ADD MSTORE POP POP POP JUMP JUMPDEST PUSH0 PUSH1 0x1F NOT PUSH1 0x1F DUP4 ADD AND SWAP1 POP SWAP2 SWAP1 POP JUMP JUMPDEST PUSH0 PUSH2 0x3BC DUP3 PUSH2 0x37A JUMP JUMPDEST PUSH2 0x3C6 DUP2 DUP6 PUSH2 0x384 JUMP JUMPDEST SWAP4 POP PUSH2 0x3D6 DUP2 DUP6 PUSH1 0x20 DUP7 ADD PUSH2 0x394 JUMP JUMPDEST PUSH2 0x3DF DUP2 PUSH2 0x3A2 JUMP JUMPDEST DUP5 ADD SWAP2 POP POP SWAP3 SWAP2 POP POP JUMP JUMPDEST PUSH0 PUSH1 0x20 DUP3 ADD SWAP1 POP DUP2 DUP2 SUB PUSH0 DUP4 ADD MSTORE PUSH2 0x402 DUP2 DUP5 PUSH2 0x3B2 JUMP JUMPDEST SWAP1 POP SWAP3 SWAP2 POP POP JUMP JUMPDEST PUSH0 DUP1 REVERT JUMPDEST PUSH0 PUSH20 0xFFFFFFFFFFFFFFFFFFFFFFFFFFFFFFFFFFFFFFFF DUP3 AND SWAP1 POP SWAP2 SWAP1 POP JUMP JUMPDEST PUSH0 PUSH2 0x437 DUP3 PUSH2 0x40E JUMP JUMPDEST SWAP1 POP SWAP2 SWAP1 POP JUMP JUMPDEST PUSH2 0x447 DUP2 PUSH2 0x42D JUMP JUMPDEST DUP2 EQ PUSH2 0x451 JUMPI PUSH0 DUP1 REVERT JUMPDEST POP JUMP JUMPDEST PUSH0 DUP2 CALLDATALOAD SWAP1 POP PUSH2 0x462 DUP2 PUSH2 0x43E JUMP JUMPDEST SWAP3 SWAP2 POP POP JUMP JUMPDEST PUSH2 0x471 DUP2 PUSH2 0x349 JUMP JUMPDEST DUP2 EQ PUSH2 0x47B JUMPI PUSH0 DUP1 REVERT JUMPDEST POP JUMP JUMPDEST PUSH0 DUP2 CALLDATALOAD SWAP1 POP PUSH2 0x48C DUP2 PUSH2 0x468 JUMP JUMPDEST SWAP3 SWAP2 POP POP JUMP JUMPDEST PUSH0 DUP1 PUSH1 0x40 DUP4 DUP6 SUB SLT ISZERO PUSH2 0x4A8 JUMPI PUSH2 0x4A7 PUSH2 0x40A JUMP JUMPDEST JUMPDEST PUSH0 PUSH2 0x4B5 DUP6 DUP3 DUP7 ADD PUSH2 0x454 JUMP JUMPDEST SWAP3 POP POP PUSH1 0x20 PUSH2 0x4C6 DUP6 DUP3 DUP7 ADD PUSH2 0x47E JUMP JUMPDEST SWAP2 POP POP SWAP3 POP SWAP3 SWAP1 POP JUMP JUMPDEST PUSH32 0x4E487B7100000000000000000000000000000000000000000000000000000000 PUSH0 MSTORE PUSH1 0x22 PUSH1 0x4 MSTORE PUSH1 0x24 PUSH0 REVERT JUMPDEST PUSH0 PUSH1 0x2 DUP3 DIV SWAP1 POP PUSH1 0x1 DUP3 AND DUP1 PUSH2 0x514 JUMPI PUSH1 0x7F DUP3 AND SWAP2 POP JUMPDEST PUSH1 0x20 DUP3 LT DUP2 SUB PUSH2 0x527 JUMPI PUSH2 0x526 PUSH2 0x4D0 JUMP JUMPDEST JUMPDEST POP SWAP2 SWAP1 POP JUMP JUMPDEST PUSH32 0x4E487B7100000000000000000000000000000000000000000000000000000000 PUSH0 MSTORE PUSH1 0x11 PUSH1 0x4 MSTORE PUSH1 0x24 PUSH0 REVERT JUMPDEST PUSH0 PUSH2 0x564 DUP3 PUSH2 0x349 JUMP JUMPDEST SWAP2 POP PUSH2 0x56F DUP4 PUSH2 0x349 JUMP JUMPDEST SWAP3 POP DUP3 DUP3 SUB SWAP1 POP DUP2 DUP2 GT ISZERO PUSH2 0x587 JUMPI PUSH2 0x586 PUSH2 0x52D JUMP JUMPDEST JUMPDEST SWAP3 SWAP2 POP POP JUMP JUMPDEST PUSH0 DUP2 SWAP1 POP SWAP3 SWAP2 POP POP JUMP JUMPDEST POP JUMP JUMPDEST PUSH0 PUSH2 0x5A5 PUSH0 DUP4 PUSH2 0x58D JUMP JUMPDEST SWAP2 POP PUSH2 0x5B0 DUP3 PUSH2 0x597 JUMP JUMPDEST PUSH0 DUP3 ADD SWAP1 POP SWAP2 SWAP1 POP JUMP JUMPDEST PUSH0 PUSH2 0x5C4 DUP3 PUSH2 0x59A JUMP JUMPDEST SWAP2 POP DUP2 SWAP1 POP SWAP2 SWAP1 POP JUMP JUMPDEST PUSH32 0x5472616E73666572206661696C65640000000000000000000000000000000000 PUSH0 DUP3 ADD MSTORE POP JUMP JUMPDEST PUSH0 PUSH2 0x602 PUSH1 0xF DUP4 PUSH2 0x384 JUMP JUMPDEST SWAP2 POP PUSH2 0x60D DUP3 PUSH2 0x5CE JUMP JUMPDEST PUSH1 0x20 DUP3 ADD SWAP1 POP SWAP2 SWAP1 POP JUMP JUMPDEST PUSH0 PUSH1 0x20 DUP3 ADD SWAP1 POP DUP2 DUP2 SUB PUSH0 DUP4 ADD MSTORE PUSH2 0x62F DUP2 PUSH2 0x5F6 JUMP JUMPDEST SWAP1 POP SWAP2 SWAP1 POP JUMP JUMPDEST PUSH0 PUSH2 0x640 DUP3 PUSH2 0x349 JUMP JUMPDEST SWAP2 POP PUSH2 0x64B DUP4 PUSH2 0x349 JUMP JUMPDEST SWAP3 POP DUP3 DUP3 ADD SWAP1 POP DUP1 DUP3 GT ISZERO PUSH2 0x663 JUMPI PUSH2 0x662 PUSH2 0x52D JUMP JUMPDEST JUMPDEST SWAP3 SWAP2 POP POP JUMP INVALID LOG2 PUSH5 0x6970667358 0x22 SLT KECCAK256 0xDF BLOBHASH DUP7 LT SUB LT 0xAA 0xC9 0x1E 0xDF CALLER CALLCODE RETURNDATACOPY DELEGATECALL 0xCA 0xAE SWAP7 PUSH25 0xF324E663A54F2E024B030E92C4B864736F6C634300081A0033 LOG2 PUSH5 0x6970667358 0x22 SLT KECCAK256 BLOCKHASH 0xB6 SWAP4 0xFB SSTORE PUSH27 0x839F74C98C1F8BD783B5E56AAB78DE6986EF6C9A385007EFB20264 PUSH20 0x6F6C634300081A00330000000000000000000000 "
		},
		"gasEstimates": {
			"creation": {
				"codeDepositCost": "1160400",
				"executionCost": "1205",
				"totalCost": "1161605"
			},
			"external": {
				"assets(string)": "infinite",
				"createAsset(string,string,uint256)": "infinite",
				"send(address,string)": "infinite",
				"supplyFor(string)": "infinite"
			}
		},
		"methodIdentifiers": {
			"assets(string)": "85936228",
			"createAsset(string,string,uint256)": "f2bdc035",
			"send(address,string)": "99142b5f",
			"supplyFor(string)": "1a45ca74"
		}
	},
	"abi": [
		{
			"inputs": [],
			"name": "AssetNotFound",
			"type": "error"
		},
		{
			"inputs": [],
			"name": "DuplicateAsset",
			"type": "error"
		},
		{
			"inputs": [],
			"name": "IncorrectAmount",
			"type": "error"
		},
		{
			"inputs": [],
			"name": "InvalidAddress",
			"type": "error"
		},
		{
			"inputs": [
				{
					"internalType": "string",
					"name": "",
					"type": "string"
				}
			],
			"name": "assets",
			"outputs": [
				{
					"internalType": "address",
					"name": "",
					"type": "address"
				}
			],
			"stateMutability": "view",
			"type": "function"
		},
		{
			"inputs": [
				{
					"internalType": "string",
					"name": "name",
					"type": "string"
				},
				{
					"internalType": "string",
					"name": "ticker",
					"type": "string"
				},
				{
					"internalType": "uint256",
					"name": "initialSupply",
					"type": "uint256"
				}
			],
			"name": "createAsset",
			"outputs": [],
			"stateMutability": "nonpayable",
			"type": "function"
		},
		{
			"inputs": [
				{
					"internalType": "address",
					"name": "target",
					"type": "address"
				},
				{
					"internalType": "string",
					"name": "assetTicker",
					"type": "string"
				}
			],
			"name": "send",
			"outputs": [],
			"stateMutability": "payable",
			"type": "function"
		},
		{
			"inputs": [
				{
					"internalType": "string",
					"name": "ticker",
					"type": "string"
				}
			],
			"name": "supplyFor",
			"outputs": [
				{
					"internalType": "uint256",
					"name": "",
					"type": "uint256"
				}
			],
			"stateMutability": "view",
			"type": "function"
		}
	]
}