{
	"data": {
		"bytecode": {
			"linkReferences": {},
			"object": "6080604052348015600e575f80fd5b506103118061001c5f395ff3fe608060405234801561000f575f80fd5b5060043610610029575f3560e01c8063eca8128b1461002d575b5f80fd5b6100476004803603810190610042919061017a565b61005d565b60405161005491906101c7565b60405180910390f35b5f80670de0b6b3a764000084610073919061020d565b90505f81036100ae576040517f2c5211c600000000000000000000000000000000000000000000000000000000815260040160405180910390fd5b5f8360ff16826100be919061027b565b146100f5576040517f7484645d00000000000000000000000000000000000000000000000000000000815260040160405180910390fd5b8260ff168161010491906102ab565b91505092915050565b5f80fd5b5f819050919050565b61012381610111565b811461012d575f80fd5b50565b5f8135905061013e8161011a565b92915050565b5f60ff82169050919050565b61015981610144565b8114610163575f80fd5b50565b5f8135905061017481610150565b92915050565b5f80604083850312156101905761018f61010d565b5b5f61019d85828601610130565b92505060206101ae85828601610166565b9150509250929050565b6101c181610111565b82525050565b5f6020820190506101da5f8301846101b8565b92915050565b7f4e487b71000000000000000000000000000000000000000000000000000000005f52601160045260245ffd5b5f61021782610111565b915061022283610111565b925082820261023081610111565b91508282048414831517610247576102466101e0565b5b5092915050565b7f4e487b71000000000000000000000000000000000000000000000000000000005f52601260045260245ffd5b5f61028582610111565b915061029083610111565b9250826102a05761029f61024e565b5b828206905092915050565b5f6102b582610111565b91506102c083610111565b9250826102d0576102cf61024e565b5b82820490509291505056fea26469706673582212205d9426f951b0569174f0e61d09cbb25a1c4838983f5ba3e328e2900244dbb86d64736f6c634300081a0033",
			"opcodes": "PUSH1 0x80 PUSH1 0x40 MSTORE CALLVALUE DUP1 ISZERO PUSH1 0xE JUMPI PUSH0 DUP1 REVERT JUMPDEST POP PUSH2 0x311 DUP1 PUSH2 0x1C PUSH0 CODECOPY PUSH0 RETURN INVALID PUSH1 0x80 PUSH1 0x40 MSTORE CALLVALUE DUP1 ISZERO PUSH2 0xF JUMPI PUSH0 DUP1 REVERT JUMPDEST POP PUSH1 0x4 CALLDATASIZE LT PUSH2 0x29 JUMPI PUSH0 CALLDATALOAD PUSH1 0xE0 SHR DUP1 PUSH4 0xECA8128B EQ PUSH2 0x2D JUMPI JUMPDEST PUSH0 DUP1 REVERT JUMPDEST PUSH2 0x47 PUSH1 0x4 DUP1 CALLDATASIZE SUB DUP2 ADD SWAP1 PUSH2 0x42 SWAP2 SWAP1 PUSH2 0x17A JUMP JUMPDEST PUSH2 0x5D JUMP JUMPDEST PUSH1 0x40 MLOAD PUSH2 0x54 SWAP2 SWAP1 PUSH2 0x1C7 JUMP JUMPDEST PUSH1 0x40 MLOAD DUP1 SWAP2 SUB SWAP1 RETURN JUMPDEST PUSH0 DUP1 PUSH8 0xDE0B6B3A7640000 DUP5 PUSH2 0x73 SWAP2 SWAP1 PUSH2 0x20D JUMP JUMPDEST SWAP1 POP PUSH0 DUP2 SUB PUSH2 0xAE JUMPI PUSH1 0x40 MLOAD PUSH32 0x2C5211C600000000000000000000000000000000000000000000000000000000 DUP2 MSTORE PUSH1 0x4 ADD PUSH1 0x40 MLOAD DUP1 SWAP2 SUB SWAP1 REVERT JUMPDEST PUSH0 DUP4 PUSH1 0xFF AND DUP3 PUSH2 0xBE SWAP2 SWAP1 PUSH2 0x27B JUMP JUMPDEST EQ PUSH2 0xF5 JUMPI PUSH1 0x40 MLOAD PUSH32 0x7484645D00000000000000000000000000000000000000000000000000000000 DUP2 MSTORE PUSH1 0x4 ADD PUSH1 0x40 MLOAD DUP1 SWAP2 SUB SWAP1 REVERT JUMPDEST DUP3 PUSH1 0xFF AND DUP2 PUSH2 0x104 SWAP2 SWAP1 PUSH2 0x2AB JUMP JUMPDEST SWAP2 POP POP SWAP3 SWAP2 POP POP JUMP JUMPDEST PUSH0 DUP1 REVERT JUMPDEST PUSH0 DUP2 SWAP1 POP SWAP2 SWAP1 POP JUMP JUMPDEST PUSH2 0x123 DUP2 PUSH2 0x111 JUMP JUMPDEST DUP2 EQ PUSH2 0x12D JUMPI PUSH0 DUP1 REVERT JUMPDEST POP JUMP JUMPDEST PUSH0 DUP2 CALLDATALOAD SWAP1 POP PUSH2 0x13E DUP2 PUSH2 0x11A JUMP JUMPDEST SWAP3 SWAP2 POP POP JUMP JUMPDEST PUSH0 PUSH1 0xFF DUP3 AND SWAP1 POP SWAP2 SWAP1 POP JUMP JUMPDEST PUSH2 0x159 DUP2 PUSH2 0x144 JUMP JUMPDEST DUP2 EQ PUSH2 0x163 JUMPI PUSH0 DUP1 REVERT JUMPDEST POP JUMP JUMPDEST PUSH0 DUP2 CALLDATALOAD SWAP1 POP PUSH2 0x174 DUP2 PUSH2 0x150 JUMP JUMPDEST SWAP3 SWAP2 POP POP JUMP JUMPDEST PUSH0 DUP1 PUSH1 0x40 DUP4 DUP6 SUB SLT ISZERO PUSH2 0x190 JUMPI PUSH2 0x18F PUSH2 0x10D JUMP JUMPDEST JUMPDEST PUSH0 PUSH2 0x19D DUP6 DUP3 DUP7 ADD PUSH2 0x130 JUMP JUMPDEST SWAP3 POP POP PUSH1 0x20 PUSH2 0x1AE DUP6 DUP3 DUP7 ADD PUSH2 0x166 JUMP JUMPDEST SWAP2 POP POP SWAP3 POP SWAP3 SWAP1 POP JUMP JUMPDEST PUSH2 0x1C1 DUP2 PUSH2 0x111 JUMP JUMPDEST DUP3 MSTORE POP POP JUMP JUMPDEST PUSH0 PUSH1 0x20 DUP3 ADD SWAP1 POP PUSH2 0x1DA PUSH0 DUP4 ADD DUP5 PUSH2 0x1B8 JUMP JUMPDEST SWAP3 SWAP2 POP POP JUMP JUMPDEST PUSH32 0x4E487B7100000000000000000000000000000000000000000000000000000000 PUSH0 MSTORE PUSH1 0x11 PUSH1 0x4 MSTORE PUSH1 0x24 PUSH0 REVERT JUMPDEST PUSH0 PUSH2 0x217 DUP3 PUSH2 0x111 JUMP JUMPDEST SWAP2 POP PUSH2 0x222 DUP4 PUSH2 0x111 JUMP JUMPDEST SWAP3 POP DUP3 DUP3 MUL PUSH2 0x230 DUP2 PUSH2 0x111 JUMP JUMPDEST SWAP2 POP DUP3 DUP3 DIV DUP5 EQ DUP4 ISZERO OR PUSH2 0x247 JUMPI PUSH2 0x246 PUSH2 0x1E0 JUMP JUMPDEST JUMPDEST POP SWAP3 SWAP2 POP POP JUMP JUMPDEST PUSH32 0x4E487B7100000000000000000000000000000000000000000000000000000000 PUSH0 MSTORE PUSH1 0x12 PUSH1 0x4 MSTORE PUSH1 0x24 PUSH0 REVERT JUMPDEST PUSH0 PUSH2 0x285 DUP3 PUSH2 0x111 JUMP JUMPDEST SWAP2 POP PUSH2 0x290 DUP4 PUSH2 0x111 JUMP JUMPDEST SWAP3 POP DUP3 PUSH2 0x2A0 JUMPI PUSH2 0x29F PUSH2 0x24E JUMP JUMPDEST JUMPDEST DUP3 DUP3 MOD SWAP1 POP SWAP3 SWAP2 POP POP JUMP JUMPDEST PUSH0 PUSH2 0x2B5 DUP3 PUSH2 0x111 JUMP JUMPDEST SWAP2 POP PUSH2 0x2C0 DUP4 PUSH2 0x111 JUMP JUMPDEST SWAP3 POP DUP3 PUSH2 0x2D0 JUMPI PUSH2 0x2CF PUSH2 0x24E JUMP JUMPDEST JUMPDEST DUP3 DUP3 DIV SWAP1 POP SWAP3 SWAP2 POP POP JUMP INVALID LOG2 PUSH5 0x6970667358 0x22 SLT KECCAK256 TSTORE SWAP5 0x26 0xF9 MLOAD 0xB0 JUMP SWAP2 PUSH21 0xF0E61D09CBB25A1C4838983F5BA3E328E2900244DB 0xB8 PUSH14 0x64736F6C634300081A0033000000 "
		},
		"gasEstimates": {
			"creation": {
				"codeDepositCost": "157000",
				"executionCost": "200",
				"totalCost": "157200"
			},
			"external": {
				"validateSplit(uint256,uint8)": "infinite"
			}
		},
		"methodIdentifiers": {
			"validateSplit(uint256,uint8)": "eca8128b"
		}
	},
	"abi": [
		{
			"inputs": [],
			"name": "AmountCantBeSplitEvenly",
			"type": "error"
		},
		{
			"inputs": [],
			"name": "InvalidAmount",
			"type": "error"
		},
		{
			"inputs": [
				{
					"internalType": "uint256",
					"name": "amount",
					"type": "uint256"
				},
				{
					"internalType": "uint8",
					"name": "numberOfPeople",
					"type": "uint8"
				}
			],
			"name": "validateSplit",
			"outputs": [
				{
					"internalType": "uint256",
					"name": "amountPerPerson",
					"type": "uint256"
				}
			],
			"stateMutability": "pure",
			"type": "function"
		}
	]
}