{
	"data": {
		"bytecode": {
			"linkReferences": {},
			"object": "6080604052348015600e575f5ffd5b506104178061001c5f395ff3fe608060405234801561000f575f5ffd5b5060043610610034575f3560e01c80631b415fed1461003857806365d6d8a214610068575b5f5ffd5b610052600480360381019061004d9190610240565b610098565b60405161005f919061029f565b60405180910390f35b610082600480360381019061007d91906102b8565b6101be565b60405161008f919061029f565b60405180910390f35b5f5f84036100d2576040517f3d62b58b00000000000000000000000000000000000000000000000000000000815260040160405180910390fd5b60018260ff161015610110576040517fcfabd48300000000000000000000000000000000000000000000000000000000815260040160405180910390fd5b60018360ff16101561014e576040517fd2693ab000000000000000000000000000000000000000000000000000000000815260040160405180910390fd5b5f670de0b6b3a7640000856101639190610310565b90505f5f90505b8360ff168160ff1610156101b2575f60648660ff168461018a9190610310565b610194919061037e565b905080836101a291906103ae565b925050808060010191505061016a565b50809150509392505050565b5f6101cc82600a6001610098565b9050919050565b5f5ffd5b5f819050919050565b6101e9816101d7565b81146101f3575f5ffd5b50565b5f81359050610204816101e0565b92915050565b5f60ff82169050919050565b61021f8161020a565b8114610229575f5ffd5b50565b5f8135905061023a81610216565b92915050565b5f5f5f60608486031215610257576102566101d3565b5b5f610264868287016101f6565b93505060206102758682870161022c565b92505060406102868682870161022c565b9150509250925092565b610299816101d7565b82525050565b5f6020820190506102b25f830184610290565b92915050565b5f602082840312156102cd576102cc6101d3565b5b5f6102da848285016101f6565b91505092915050565b7f4e487b71000000000000000000000000000000000000000000000000000000005f52601160045260245ffd5b5f61031a826101d7565b9150610325836101d7565b9250828202610333816101d7565b9150828204841483151761034a576103496102e3565b5b5092915050565b7f4e487b71000000000000000000000000000000000000000000000000000000005f52601260045260245ffd5b5f610388826101d7565b9150610393836101d7565b9250826103a3576103a2610351565b5b828204905092915050565b5f6103b8826101d7565b91506103c3836101d7565b92508282019050808211156103db576103da6102e3565b5b9291505056fea2646970667358221220f2a4bde95f800558df89acba9a2a035a61591c917d185bcc9c7bce80ed5b79e164736f6c634300081c0033",
			"opcodes": "PUSH1 0x80 PUSH1 0x40 MSTORE CALLVALUE DUP1 ISZERO PUSH1 0xE JUMPI PUSH0 PUSH0 REVERT JUMPDEST POP PUSH2 0x417 DUP1 PUSH2 0x1C PUSH0 CODECOPY PUSH0 RETURN INVALID PUSH1 0x80 PUSH1 0x40 MSTORE CALLVALUE DUP1 ISZERO PUSH2 0xF JUMPI PUSH0 PUSH0 REVERT JUMPDEST POP PUSH1 0x4 CALLDATASIZE LT PUSH2 0x34 JUMPI PUSH0 CALLDATALOAD PUSH1 0xE0 SHR DUP1 PUSH4 0x1B415FED EQ PUSH2 0x38 JUMPI DUP1 PUSH4 0x65D6D8A2 EQ PUSH2 0x68 JUMPI JUMPDEST PUSH0 PUSH0 REVERT JUMPDEST PUSH2 0x52 PUSH1 0x4 DUP1 CALLDATASIZE SUB DUP2 ADD SWAP1 PUSH2 0x4D SWAP2 SWAP1 PUSH2 0x240 JUMP JUMPDEST PUSH2 0x98 JUMP JUMPDEST PUSH1 0x40 MLOAD PUSH2 0x5F SWAP2 SWAP1 PUSH2 0x29F JUMP JUMPDEST PUSH1 0x40 MLOAD DUP1 SWAP2 SUB SWAP1 RETURN JUMPDEST PUSH2 0x82 PUSH1 0x4 DUP1 CALLDATASIZE SUB DUP2 ADD SWAP1 PUSH2 0x7D SWAP2 SWAP1 PUSH2 0x2B8 JUMP JUMPDEST PUSH2 0x1BE JUMP JUMPDEST PUSH1 0x40 MLOAD PUSH2 0x8F SWAP2 SWAP1 PUSH2 0x29F JUMP JUMPDEST PUSH1 0x40 MLOAD DUP1 SWAP2 SUB SWAP1 RETURN JUMPDEST PUSH0 PUSH0 DUP5 SUB PUSH2 0xD2 JUMPI PUSH1 0x40 MLOAD PUSH32 0x3D62B58B00000000000000000000000000000000000000000000000000000000 DUP2 MSTORE PUSH1 0x4 ADD PUSH1 0x40 MLOAD DUP1 SWAP2 SUB SWAP1 REVERT JUMPDEST PUSH1 0x1 DUP3 PUSH1 0xFF AND LT ISZERO PUSH2 0x110 JUMPI PUSH1 0x40 MLOAD PUSH32 0xCFABD48300000000000000000000000000000000000000000000000000000000 DUP2 MSTORE PUSH1 0x4 ADD PUSH1 0x40 MLOAD DUP1 SWAP2 SUB SWAP1 REVERT JUMPDEST PUSH1 0x1 DUP4 PUSH1 0xFF AND LT ISZERO PUSH2 0x14E JUMPI PUSH1 0x40 MLOAD PUSH32 0xD2693AB000000000000000000000000000000000000000000000000000000000 DUP2 MSTORE PUSH1 0x4 ADD PUSH1 0x40 MLOAD DUP1 SWAP2 SUB SWAP1 REVERT JUMPDEST PUSH0 PUSH8 0xDE0B6B3A7640000 DUP6 PUSH2 0x163 SWAP2 SWAP1 PUSH2 0x310 JUMP JUMPDEST SWAP1 POP PUSH0 PUSH0 SWAP1 POP JUMPDEST DUP4 PUSH1 0xFF AND DUP2 PUSH1 0xFF AND LT ISZERO PUSH2 0x1B2 JUMPI PUSH0 PUSH1 0x64 DUP7 PUSH1 0xFF AND DUP5 PUSH2 0x18A SWAP2 SWAP1 PUSH2 0x310 JUMP JUMPDEST PUSH2 0x194 SWAP2 SWAP1 PUSH2 0x37E JUMP JUMPDEST SWAP1 POP DUP1 DUP4 PUSH2 0x1A2 SWAP2 SWAP1 PUSH2 0x3AE JUMP JUMPDEST SWAP3 POP POP DUP1 DUP1 PUSH1 0x1 ADD SWAP2 POP POP PUSH2 0x16A JUMP JUMPDEST POP DUP1 SWAP2 POP POP SWAP4 SWAP3 POP POP POP JUMP JUMPDEST PUSH0 PUSH2 0x1CC DUP3 PUSH1 0xA PUSH1 0x1 PUSH2 0x98 JUMP JUMPDEST SWAP1 POP SWAP2 SWAP1 POP JUMP JUMPDEST PUSH0 PUSH0 REVERT JUMPDEST PUSH0 DUP2 SWAP1 POP SWAP2 SWAP1 POP JUMP JUMPDEST PUSH2 0x1E9 DUP2 PUSH2 0x1D7 JUMP JUMPDEST DUP2 EQ PUSH2 0x1F3 JUMPI PUSH0 PUSH0 REVERT JUMPDEST POP JUMP JUMPDEST PUSH0 DUP2 CALLDATALOAD SWAP1 POP PUSH2 0x204 DUP2 PUSH2 0x1E0 JUMP JUMPDEST SWAP3 SWAP2 POP POP JUMP JUMPDEST PUSH0 PUSH1 0xFF DUP3 AND SWAP1 POP SWAP2 SWAP1 POP JUMP JUMPDEST PUSH2 0x21F DUP2 PUSH2 0x20A JUMP JUMPDEST DUP2 EQ PUSH2 0x229 JUMPI PUSH0 PUSH0 REVERT JUMPDEST POP JUMP JUMPDEST PUSH0 DUP2 CALLDATALOAD SWAP1 POP PUSH2 0x23A DUP2 PUSH2 0x216 JUMP JUMPDEST SWAP3 SWAP2 POP POP JUMP JUMPDEST PUSH0 PUSH0 PUSH0 PUSH1 0x60 DUP5 DUP7 SUB SLT ISZERO PUSH2 0x257 JUMPI PUSH2 0x256 PUSH2 0x1D3 JUMP JUMPDEST JUMPDEST PUSH0 PUSH2 0x264 DUP7 DUP3 DUP8 ADD PUSH2 0x1F6 JUMP JUMPDEST SWAP4 POP POP PUSH1 0x20 PUSH2 0x275 DUP7 DUP3 DUP8 ADD PUSH2 0x22C JUMP JUMPDEST SWAP3 POP POP PUSH1 0x40 PUSH2 0x286 DUP7 DUP3 DUP8 ADD PUSH2 0x22C JUMP JUMPDEST SWAP2 POP POP SWAP3 POP SWAP3 POP SWAP3 JUMP JUMPDEST PUSH2 0x299 DUP2 PUSH2 0x1D7 JUMP JUMPDEST DUP3 MSTORE POP POP JUMP JUMPDEST PUSH0 PUSH1 0x20 DUP3 ADD SWAP1 POP PUSH2 0x2B2 PUSH0 DUP4 ADD DUP5 PUSH2 0x290 JUMP JUMPDEST SWAP3 SWAP2 POP POP JUMP JUMPDEST PUSH0 PUSH1 0x20 DUP3 DUP5 SUB SLT ISZERO PUSH2 0x2CD JUMPI PUSH2 0x2CC PUSH2 0x1D3 JUMP JUMPDEST JUMPDEST PUSH0 PUSH2 0x2DA DUP5 DUP3 DUP6 ADD PUSH2 0x1F6 JUMP JUMPDEST SWAP2 POP POP SWAP3 SWAP2 POP POP JUMP JUMPDEST PUSH32 0x4E487B7100000000000000000000000000000000000000000000000000000000 PUSH0 MSTORE PUSH1 0x11 PUSH1 0x4 MSTORE PUSH1 0x24 PUSH0 REVERT JUMPDEST PUSH0 PUSH2 0x31A DUP3 PUSH2 0x1D7 JUMP JUMPDEST SWAP2 POP PUSH2 0x325 DUP4 PUSH2 0x1D7 JUMP JUMPDEST SWAP3 POP DUP3 DUP3 MUL PUSH2 0x333 DUP2 PUSH2 0x1D7 JUMP JUMPDEST SWAP2 POP DUP3 DUP3 DIV DUP5 EQ DUP4 ISZERO OR PUSH2 0x34A JUMPI PUSH2 0x349 PUSH2 0x2E3 JUMP JUMPDEST JUMPDEST POP SWAP3 SWAP2 POP POP JUMP JUMPDEST PUSH32 0x4E487B7100000000000000000000000000000000000000000000000000000000 PUSH0 MSTORE PUSH1 0x12 PUSH1 0x4 MSTORE PUSH1 0x24 PUSH0 REVERT JUMPDEST PUSH0 PUSH2 0x388 DUP3 PUSH2 0x1D7 JUMP JUMPDEST SWAP2 POP PUSH2 0x393 DUP4 PUSH2 0x1D7 JUMP JUMPDEST SWAP3 POP DUP3 PUSH2 0x3A3 JUMPI PUSH2 0x3A2 PUSH2 0x351 JUMP JUMPDEST JUMPDEST DUP3 DUP3 DIV SWAP1 POP SWAP3 SWAP2 POP POP JUMP JUMPDEST PUSH0 PUSH2 0x3B8 DUP3 PUSH2 0x1D7 JUMP JUMPDEST SWAP2 POP PUSH2 0x3C3 DUP4 PUSH2 0x1D7 JUMP JUMPDEST SWAP3 POP DUP3 DUP3 ADD SWAP1 POP DUP1 DUP3 GT ISZERO PUSH2 0x3DB JUMPI PUSH2 0x3DA PUSH2 0x2E3 JUMP JUMPDEST JUMPDEST SWAP3 SWAP2 POP POP JUMP INVALID LOG2 PUSH5 0x6970667358 0x22 SLT KECCAK256 CALLCODE LOG4 0xBD 0xE9 PUSH0 DUP1 SDIV PC 0xDF DUP10 0xAC 0xBA SWAP11 0x2A SUB GAS PUSH2 0x591C SWAP2 PUSH30 0x185BCC9C7BCE80ED5B79E164736F6C634300081C00330000000000000000 "
		},
		"gasEstimates": {
			"creation": {
				"codeDepositCost": "209400",
				"executionCost": "249",
				"totalCost": "209649"
			},
			"external": {
				"calculateCompoundInterest(uint256,uint8,uint8)": "infinite",
				"calculateSalaryBonus(uint256)": "infinite"
			}
		},
		"methodIdentifiers": {
			"calculateCompoundInterest(uint256,uint8,uint8)": "1b415fed",
			"calculateSalaryBonus(uint256)": "65d6d8a2"
		}
	},
	"abi": [
		{
			"inputs": [],
			"name": "InsuficientPrincipal",
			"type": "error"
		},
		{
			"inputs": [],
			"name": "InterestDurationTooShort",
			"type": "error"
		},
		{
			"inputs": [],
			"name": "InterestRateTooLow",
			"type": "error"
		},
		{
			"inputs": [
				{
					"internalType": "uint256",
					"name": "principal",
					"type": "uint256"
				},
				{
					"internalType": "uint8",
					"name": "rate",
					"type": "uint8"
				},
				{
					"internalType": "uint8",
					"name": "numberOfYears",
					"type": "uint8"
				}
			],
			"name": "calculateCompoundInterest",
			"outputs": [
				{
					"internalType": "uint256",
					"name": "amount",
					"type": "uint256"
				}
			],
			"stateMutability": "pure",
			"type": "function"
		},
		{
			"inputs": [
				{
					"internalType": "uint256",
					"name": "principal",
					"type": "uint256"
				}
			],
			"name": "calculateSalaryBonus",
			"outputs": [
				{
					"internalType": "uint256",
					"name": "amount",
					"type": "uint256"
				}
			],
			"stateMutability": "pure",
			"type": "function"
		}
	]
}