{
	"Assignments/Assignment 1/Contracts/CompoundInterestCalculator.sol": {
		"CompoundInterestCalculator": {
			"abi": [
				{
					"inputs": [],
					"name": "InsuficientPrincipal",
					"type": "error"
				},
				{
					"inputs": [],
					"name": "InterestDurationTooShort",
					"type": "error"
				},
				{
					"inputs": [],
					"name": "InterestRateTooLow",
					"type": "error"
				},
				{
					"inputs": [
						{
							"internalType": "uint256",
							"name": "principal",
							"type": "uint256"
						},
						{
							"internalType": "uint8",
							"name": "rate",
							"type": "uint8"
						},
						{
							"internalType": "uint8",
							"name": "numberOfYears",
							"type": "uint8"
						}
					],
					"name": "calculateCompoundInterest",
					"outputs": [
						{
							"internalType": "uint256",
							"name": "amount",
							"type": "uint256"
						}
					],
					"stateMutability": "pure",
					"type": "function"
				},
				{
					"inputs": [
						{
							"internalType": "uint256",
							"name": "principal",
							"type": "uint256"
						},
						{
							"internalType": "uint8",
							"name": "rate",
							"type": "uint8"
						},
						{
							"internalType": "uint8",
							"name": "numberOfYears",
							"type": "uint8"
						}
					],
					"name": "calculateSalaryBonus",
					"outputs": [
						{
							"internalType": "uint256",
							"name": "amount",
							"type": "uint256"
						}
					],
					"stateMutability": "pure",
					"type": "function"
				}
			],
			"devdoc": {
				"kind": "dev",
				"methods": {},
				"version": 1
			},
			"evm": {
				"assembly": "    /* \"Assignments/Assignment 1/Contracts/CompoundInterestCalculator.sol\":154:1041  contract CompoundInterestCalculator {... */\n  mstore(0x40, 0x80)\n  callvalue\n  dup1\n  iszero\n  tag_1\n  jumpi\n  0x00\n  dup1\n  revert\ntag_1:\n  pop\n  dataSize(sub_0)\n  dup1\n  dataOffset(sub_0)\n  0x00\n  codecopy\n  0x00\n  return\nstop\n\nsub_0: assembly {\n        /* \"Assignments/Assignment 1/Contracts/CompoundInterestCalculator.sol\":154:1041  contract CompoundInterestCalculator {... */\n      mstore(0x40, 0x80)\n      callvalue\n      dup1\n      iszero\n      tag_1\n      jumpi\n      0x00\n      dup1\n      revert\n    tag_1:\n      pop\n      jumpi(tag_2, lt(calldatasize, 0x04))\n      shr(0xe0, calldataload(0x00))\n      dup1\n      0x1b415fed\n      eq\n      tag_3\n      jumpi\n      dup1\n      0x84867cff\n      eq\n      tag_4\n      jumpi\n    tag_2:\n      0x00\n      dup1\n      revert\n        /* \"Assignments/Assignment 1/Contracts/CompoundInterestCalculator.sol\":196:831  function calculateCompoundInterest(uint256 principal, uint8 rate, uint8 numberOfYears) public pure returns (uint256 amount) {... */\n    tag_3:\n      tag_5\n      0x04\n      dup1\n      calldatasize\n      sub\n      dup2\n      add\n      swap1\n      tag_6\n      swap2\n      swap1\n      tag_7\n      jump\t// in\n    tag_6:\n      tag_8\n      jump\t// in\n    tag_5:\n      mload(0x40)\n      tag_9\n      swap2\n      swap1\n      tag_10\n      jump\t// in\n    tag_9:\n      mload(0x40)\n      dup1\n      swap2\n      sub\n      swap1\n      return\n        /* \"Assignments/Assignment 1/Contracts/CompoundInterestCalculator.sol\":837:1039  function calculateSalaryBonus(uint256 principal, uint8 rate, uint8 numberOfYears) external pure returns (uint256 amount) {... */\n    tag_4:\n      tag_11\n      0x04\n      dup1\n      calldatasize\n      sub\n      dup2\n      add\n      swap1\n      tag_12\n      swap2\n      swap1\n      tag_7\n      jump\t// in\n    tag_12:\n      tag_13\n      jump\t// in\n    tag_11:\n      mload(0x40)\n      tag_14\n      swap2\n      swap1\n      tag_10\n      jump\t// in\n    tag_14:\n      mload(0x40)\n      dup1\n      swap2\n      sub\n      swap1\n      return\n        /* \"Assignments/Assignment 1/Contracts/CompoundInterestCalculator.sol\":196:831  function calculateCompoundInterest(uint256 principal, uint8 rate, uint8 numberOfYears) public pure returns (uint256 amount) {... */\n    tag_8:\n        /* \"Assignments/Assignment 1/Contracts/CompoundInterestCalculator.sol\":304:318  uint256 amount */\n      0x00\n        /* \"Assignments/Assignment 1/Contracts/CompoundInterestCalculator.sol\":347:348  0 */\n      dup1\n        /* \"Assignments/Assignment 1/Contracts/CompoundInterestCalculator.sol\":334:343  principal */\n      dup5\n        /* \"Assignments/Assignment 1/Contracts/CompoundInterestCalculator.sol\":334:348  principal == 0 */\n      sub\n        /* \"Assignments/Assignment 1/Contracts/CompoundInterestCalculator.sol\":330:384  if (principal == 0) { revert InsuficientPrincipal(); } */\n      tag_16\n      jumpi\n        /* \"Assignments/Assignment 1/Contracts/CompoundInterestCalculator.sol\":359:381  InsuficientPrincipal() */\n      mload(0x40)\n      0x3d62b58b00000000000000000000000000000000000000000000000000000000\n      dup2\n      mstore\n      0x04\n      add\n      mload(0x40)\n      dup1\n      swap2\n      sub\n      swap1\n      revert\n        /* \"Assignments/Assignment 1/Contracts/CompoundInterestCalculator.sol\":330:384  if (principal == 0) { revert InsuficientPrincipal(); } */\n    tag_16:\n        /* \"Assignments/Assignment 1/Contracts/CompoundInterestCalculator.sol\":413:414  1 */\n      0x01\n        /* \"Assignments/Assignment 1/Contracts/CompoundInterestCalculator.sol\":397:410  numberOfYears */\n      dup3\n        /* \"Assignments/Assignment 1/Contracts/CompoundInterestCalculator.sol\":397:414  numberOfYears < 1 */\n      0xff\n      and\n      lt\n        /* \"Assignments/Assignment 1/Contracts/CompoundInterestCalculator.sol\":393:454  if (numberOfYears < 1) { revert InterestDurationTooShort(); } */\n      iszero\n      tag_17\n      jumpi\n        /* \"Assignments/Assignment 1/Contracts/CompoundInterestCalculator.sol\":425:451  InterestDurationTooShort() */\n      mload(0x40)\n      0xcfabd48300000000000000000000000000000000000000000000000000000000\n      dup2\n      mstore\n      0x04\n      add\n      mload(0x40)\n      dup1\n      swap2\n      sub\n      swap1\n      revert\n        /* \"Assignments/Assignment 1/Contracts/CompoundInterestCalculator.sol\":393:454  if (numberOfYears < 1) { revert InterestDurationTooShort(); } */\n    tag_17:\n        /* \"Assignments/Assignment 1/Contracts/CompoundInterestCalculator.sol\":474:475  1 */\n      0x01\n        /* \"Assignments/Assignment 1/Contracts/CompoundInterestCalculator.sol\":467:471  rate */\n      dup4\n        /* \"Assignments/Assignment 1/Contracts/CompoundInterestCalculator.sol\":467:475  rate < 1 */\n      0xff\n      and\n      lt\n        /* \"Assignments/Assignment 1/Contracts/CompoundInterestCalculator.sol\":463:509  if (rate < 1) { revert InterestRateTooLow(); } */\n      iszero\n      tag_18\n      jumpi\n        /* \"Assignments/Assignment 1/Contracts/CompoundInterestCalculator.sol\":486:506  InterestRateTooLow() */\n      mload(0x40)\n      0xd2693ab000000000000000000000000000000000000000000000000000000000\n      dup2\n      mstore\n      0x04\n      add\n      mload(0x40)\n      dup1\n      swap2\n      sub\n      swap1\n      revert\n        /* \"Assignments/Assignment 1/Contracts/CompoundInterestCalculator.sol\":463:509  if (rate < 1) { revert InterestRateTooLow(); } */\n    tag_18:\n        /* \"Assignments/Assignment 1/Contracts/CompoundInterestCalculator.sol\":519:543  uint256 compoundedAmount */\n      0x00\n        /* \"Assignments/Assignment 1/Contracts/CompoundInterestCalculator.sol\":558:565  1 ether */\n      0x0de0b6b3a7640000\n        /* \"Assignments/Assignment 1/Contracts/CompoundInterestCalculator.sol\":546:555  principal */\n      dup6\n        /* \"Assignments/Assignment 1/Contracts/CompoundInterestCalculator.sol\":546:565  principal * 1 ether */\n      tag_19\n      swap2\n      swap1\n      tag_20\n      jump\t// in\n    tag_19:\n        /* \"Assignments/Assignment 1/Contracts/CompoundInterestCalculator.sol\":519:565  uint256 compoundedAmount = principal * 1 ether */\n      swap1\n      pop\n        /* \"Assignments/Assignment 1/Contracts/CompoundInterestCalculator.sol\":621:628  uint8 i */\n      0x00\n        /* \"Assignments/Assignment 1/Contracts/CompoundInterestCalculator.sol\":616:791  for (uint8 i = 0; i < numberOfYears; i++) {... */\n    tag_21:\n        /* \"Assignments/Assignment 1/Contracts/CompoundInterestCalculator.sol\":638:651  numberOfYears */\n      dup4\n        /* \"Assignments/Assignment 1/Contracts/CompoundInterestCalculator.sol\":634:651  i < numberOfYears */\n      0xff\n      and\n        /* \"Assignments/Assignment 1/Contracts/CompoundInterestCalculator.sol\":634:635  i */\n      dup2\n        /* \"Assignments/Assignment 1/Contracts/CompoundInterestCalculator.sol\":634:651  i < numberOfYears */\n      0xff\n      and\n      lt\n        /* \"Assignments/Assignment 1/Contracts/CompoundInterestCalculator.sol\":616:791  for (uint8 i = 0; i < numberOfYears; i++) {... */\n      iszero\n      tag_22\n      jumpi\n        /* \"Assignments/Assignment 1/Contracts/CompoundInterestCalculator.sol\":672:688  uint256 interest */\n      0x00\n        /* \"Assignments/Assignment 1/Contracts/CompoundInterestCalculator.sol\":717:720  100 */\n      0x64\n        /* \"Assignments/Assignment 1/Contracts/CompoundInterestCalculator.sol\":710:714  rate */\n      dup7\n        /* \"Assignments/Assignment 1/Contracts/CompoundInterestCalculator.sol\":691:714  compoundedAmount * rate */\n      0xff\n      and\n        /* \"Assignments/Assignment 1/Contracts/CompoundInterestCalculator.sol\":691:707  compoundedAmount */\n      dup5\n        /* \"Assignments/Assignment 1/Contracts/CompoundInterestCalculator.sol\":691:714  compoundedAmount * rate */\n      tag_24\n      swap2\n      swap1\n      tag_20\n      jump\t// in\n    tag_24:\n        /* \"Assignments/Assignment 1/Contracts/CompoundInterestCalculator.sol\":691:720  compoundedAmount * rate / 100 */\n      tag_25\n      swap2\n      swap1\n      tag_26\n      jump\t// in\n    tag_25:\n        /* \"Assignments/Assignment 1/Contracts/CompoundInterestCalculator.sol\":672:720  uint256 interest = compoundedAmount * rate / 100 */\n      swap1\n      pop\n        /* \"Assignments/Assignment 1/Contracts/CompoundInterestCalculator.sol\":772:780  interest */\n      dup1\n        /* \"Assignments/Assignment 1/Contracts/CompoundInterestCalculator.sol\":753:769  compoundedAmount */\n      dup4\n        /* \"Assignments/Assignment 1/Contracts/CompoundInterestCalculator.sol\":753:780  compoundedAmount + interest */\n      tag_27\n      swap2\n      swap1\n      tag_28\n      jump\t// in\n    tag_27:\n        /* \"Assignments/Assignment 1/Contracts/CompoundInterestCalculator.sol\":734:780  compoundedAmount = compoundedAmount + interest */\n      swap3\n      pop\n        /* \"Assignments/Assignment 1/Contracts/CompoundInterestCalculator.sol\":658:791  {... */\n      pop\n        /* \"Assignments/Assignment 1/Contracts/CompoundInterestCalculator.sol\":653:656  i++ */\n      dup1\n      dup1\n      0x01\n      add\n      swap2\n      pop\n      pop\n        /* \"Assignments/Assignment 1/Contracts/CompoundInterestCalculator.sol\":616:791  for (uint8 i = 0; i < numberOfYears; i++) {... */\n      jump(tag_21)\n    tag_22:\n      pop\n        /* \"Assignments/Assignment 1/Contracts/CompoundInterestCalculator.sol\":808:824  compoundedAmount */\n      dup1\n        /* \"Assignments/Assignment 1/Contracts/CompoundInterestCalculator.sol\":801:824  return compoundedAmount */\n      swap2\n      pop\n      pop\n        /* \"Assignments/Assignment 1/Contracts/CompoundInterestCalculator.sol\":196:831  function calculateCompoundInterest(uint256 principal, uint8 rate, uint8 numberOfYears) public pure returns (uint256 amount) {... */\n      swap4\n      swap3\n      pop\n      pop\n      pop\n      jump\t// out\n        /* \"Assignments/Assignment 1/Contracts/CompoundInterestCalculator.sol\":837:1039  function calculateSalaryBonus(uint256 principal, uint8 rate, uint8 numberOfYears) external pure returns (uint256 amount) {... */\n    tag_13:\n        /* \"Assignments/Assignment 1/Contracts/CompoundInterestCalculator.sol\":942:956  uint256 amount */\n      0x00\n        /* \"Assignments/Assignment 1/Contracts/CompoundInterestCalculator.sol\":975:1032  calculateCompoundInterest(principal, rate, numberOfYears) */\n      tag_30\n        /* \"Assignments/Assignment 1/Contracts/CompoundInterestCalculator.sol\":1001:1010  principal */\n      dup5\n        /* \"Assignments/Assignment 1/Contracts/CompoundInterestCalculator.sol\":1012:1016  rate */\n      dup5\n        /* \"Assignments/Assignment 1/Contracts/CompoundInterestCalculator.sol\":1018:1031  numberOfYears */\n      dup5\n        /* \"Assignments/Assignment 1/Contracts/CompoundInterestCalculator.sol\":975:1000  calculateCompoundInterest */\n      tag_8\n        /* \"Assignments/Assignment 1/Contracts/CompoundInterestCalculator.sol\":975:1032  calculateCompoundInterest(principal, rate, numberOfYears) */\n      jump\t// in\n    tag_30:\n        /* \"Assignments/Assignment 1/Contracts/CompoundInterestCalculator.sol\":968:1032  return calculateCompoundInterest(principal, rate, numberOfYears) */\n      swap1\n      pop\n        /* \"Assignments/Assignment 1/Contracts/CompoundInterestCalculator.sol\":837:1039  function calculateSalaryBonus(uint256 principal, uint8 rate, uint8 numberOfYears) external pure returns (uint256 amount) {... */\n      swap4\n      swap3\n      pop\n      pop\n      pop\n      jump\t// out\n        /* \"#utility.yul\":88:205   */\n    tag_32:\n        /* \"#utility.yul\":197:198   */\n      0x00\n        /* \"#utility.yul\":194:195   */\n      dup1\n        /* \"#utility.yul\":187:199   */\n      revert\n        /* \"#utility.yul\":334:411   */\n    tag_34:\n        /* \"#utility.yul\":371:378   */\n      0x00\n        /* \"#utility.yul\":400:405   */\n      dup2\n        /* \"#utility.yul\":389:405   */\n      swap1\n      pop\n        /* \"#utility.yul\":334:411   */\n      swap2\n      swap1\n      pop\n      jump\t// out\n        /* \"#utility.yul\":417:539   */\n    tag_35:\n        /* \"#utility.yul\":490:514   */\n      tag_49\n        /* \"#utility.yul\":508:513   */\n      dup2\n        /* \"#utility.yul\":490:514   */\n      tag_34\n      jump\t// in\n    tag_49:\n        /* \"#utility.yul\":483:488   */\n      dup2\n        /* \"#utility.yul\":480:515   */\n      eq\n        /* \"#utility.yul\":470:533   */\n      tag_50\n      jumpi\n        /* \"#utility.yul\":529:530   */\n      0x00\n        /* \"#utility.yul\":526:527   */\n      dup1\n        /* \"#utility.yul\":519:531   */\n      revert\n        /* \"#utility.yul\":470:533   */\n    tag_50:\n        /* \"#utility.yul\":417:539   */\n      pop\n      jump\t// out\n        /* \"#utility.yul\":545:684   */\n    tag_36:\n        /* \"#utility.yul\":591:596   */\n      0x00\n        /* \"#utility.yul\":629:635   */\n      dup2\n        /* \"#utility.yul\":616:636   */\n      calldataload\n        /* \"#utility.yul\":607:636   */\n      swap1\n      pop\n        /* \"#utility.yul\":645:678   */\n      tag_52\n        /* \"#utility.yul\":672:677   */\n      dup2\n        /* \"#utility.yul\":645:678   */\n      tag_35\n      jump\t// in\n    tag_52:\n        /* \"#utility.yul\":545:684   */\n      swap3\n      swap2\n      pop\n      pop\n      jump\t// out\n        /* \"#utility.yul\":690:776   */\n    tag_37:\n        /* \"#utility.yul\":725:732   */\n      0x00\n        /* \"#utility.yul\":765:769   */\n      0xff\n        /* \"#utility.yul\":758:763   */\n      dup3\n        /* \"#utility.yul\":754:770   */\n      and\n        /* \"#utility.yul\":743:770   */\n      swap1\n      pop\n        /* \"#utility.yul\":690:776   */\n      swap2\n      swap1\n      pop\n      jump\t// out\n        /* \"#utility.yul\":782:900   */\n    tag_38:\n        /* \"#utility.yul\":853:875   */\n      tag_55\n        /* \"#utility.yul\":869:874   */\n      dup2\n        /* \"#utility.yul\":853:875   */\n      tag_37\n      jump\t// in\n    tag_55:\n        /* \"#utility.yul\":846:851   */\n      dup2\n        /* \"#utility.yul\":843:876   */\n      eq\n        /* \"#utility.yul\":833:894   */\n      tag_56\n      jumpi\n        /* \"#utility.yul\":890:891   */\n      0x00\n        /* \"#utility.yul\":887:888   */\n      dup1\n        /* \"#utility.yul\":880:892   */\n      revert\n        /* \"#utility.yul\":833:894   */\n    tag_56:\n        /* \"#utility.yul\":782:900   */\n      pop\n      jump\t// out\n        /* \"#utility.yul\":906:1041   */\n    tag_39:\n        /* \"#utility.yul\":950:955   */\n      0x00\n        /* \"#utility.yul\":988:994   */\n      dup2\n        /* \"#utility.yul\":975:995   */\n      calldataload\n        /* \"#utility.yul\":966:995   */\n      swap1\n      pop\n        /* \"#utility.yul\":1004:1035   */\n      tag_58\n        /* \"#utility.yul\":1029:1034   */\n      dup2\n        /* \"#utility.yul\":1004:1035   */\n      tag_38\n      jump\t// in\n    tag_58:\n        /* \"#utility.yul\":906:1041   */\n      swap3\n      swap2\n      pop\n      pop\n      jump\t// out\n        /* \"#utility.yul\":1047:1658   */\n    tag_7:\n        /* \"#utility.yul\":1120:1126   */\n      0x00\n        /* \"#utility.yul\":1128:1134   */\n      dup1\n        /* \"#utility.yul\":1136:1142   */\n      0x00\n        /* \"#utility.yul\":1185:1187   */\n      0x60\n        /* \"#utility.yul\":1173:1182   */\n      dup5\n        /* \"#utility.yul\":1164:1171   */\n      dup7\n        /* \"#utility.yul\":1160:1183   */\n      sub\n        /* \"#utility.yul\":1156:1188   */\n      slt\n        /* \"#utility.yul\":1153:1272   */\n      iszero\n      tag_60\n      jumpi\n        /* \"#utility.yul\":1191:1270   */\n      tag_61\n      tag_32\n      jump\t// in\n    tag_61:\n        /* \"#utility.yul\":1153:1272   */\n    tag_60:\n        /* \"#utility.yul\":1311:1312   */\n      0x00\n        /* \"#utility.yul\":1336:1389   */\n      tag_62\n        /* \"#utility.yul\":1381:1388   */\n      dup7\n        /* \"#utility.yul\":1372:1378   */\n      dup3\n        /* \"#utility.yul\":1361:1370   */\n      dup8\n        /* \"#utility.yul\":1357:1379   */\n      add\n        /* \"#utility.yul\":1336:1389   */\n      tag_36\n      jump\t// in\n    tag_62:\n        /* \"#utility.yul\":1326:1389   */\n      swap4\n      pop\n        /* \"#utility.yul\":1282:1399   */\n      pop\n        /* \"#utility.yul\":1438:1440   */\n      0x20\n        /* \"#utility.yul\":1464:1515   */\n      tag_63\n        /* \"#utility.yul\":1507:1514   */\n      dup7\n        /* \"#utility.yul\":1498:1504   */\n      dup3\n        /* \"#utility.yul\":1487:1496   */\n      dup8\n        /* \"#utility.yul\":1483:1505   */\n      add\n        /* \"#utility.yul\":1464:1515   */\n      tag_39\n      jump\t// in\n    tag_63:\n        /* \"#utility.yul\":1454:1515   */\n      swap3\n      pop\n        /* \"#utility.yul\":1409:1525   */\n      pop\n        /* \"#utility.yul\":1564:1566   */\n      0x40\n        /* \"#utility.yul\":1590:1641   */\n      tag_64\n        /* \"#utility.yul\":1633:1640   */\n      dup7\n        /* \"#utility.yul\":1624:1630   */\n      dup3\n        /* \"#utility.yul\":1613:1622   */\n      dup8\n        /* \"#utility.yul\":1609:1631   */\n      add\n        /* \"#utility.yul\":1590:1641   */\n      tag_39\n      jump\t// in\n    tag_64:\n        /* \"#utility.yul\":1580:1641   */\n      swap2\n      pop\n        /* \"#utility.yul\":1535:1651   */\n      pop\n        /* \"#utility.yul\":1047:1658   */\n      swap3\n      pop\n      swap3\n      pop\n      swap3\n      jump\t// out\n        /* \"#utility.yul\":1664:1782   */\n    tag_40:\n        /* \"#utility.yul\":1751:1775   */\n      tag_66\n        /* \"#utility.yul\":1769:1774   */\n      dup2\n        /* \"#utility.yul\":1751:1775   */\n      tag_34\n      jump\t// in\n    tag_66:\n        /* \"#utility.yul\":1746:1749   */\n      dup3\n        /* \"#utility.yul\":1739:1776   */\n      mstore\n        /* \"#utility.yul\":1664:1782   */\n      pop\n      pop\n      jump\t// out\n        /* \"#utility.yul\":1788:2010   */\n    tag_10:\n        /* \"#utility.yul\":1881:1885   */\n      0x00\n        /* \"#utility.yul\":1919:1921   */\n      0x20\n        /* \"#utility.yul\":1908:1917   */\n      dup3\n        /* \"#utility.yul\":1904:1922   */\n      add\n        /* \"#utility.yul\":1896:1922   */\n      swap1\n      pop\n        /* \"#utility.yul\":1932:2003   */\n      tag_68\n        /* \"#utility.yul\":2000:2001   */\n      0x00\n        /* \"#utility.yul\":1989:1998   */\n      dup4\n        /* \"#utility.yul\":1985:2002   */\n      add\n        /* \"#utility.yul\":1976:1982   */\n      dup5\n        /* \"#utility.yul\":1932:2003   */\n      tag_40\n      jump\t// in\n    tag_68:\n        /* \"#utility.yul\":1788:2010   */\n      swap3\n      swap2\n      pop\n      pop\n      jump\t// out\n        /* \"#utility.yul\":2016:2196   */\n    tag_41:\n        /* \"#utility.yul\":2064:2141   */\n      0x4e487b7100000000000000000000000000000000000000000000000000000000\n        /* \"#utility.yul\":2061:2062   */\n      0x00\n        /* \"#utility.yul\":2054:2142   */\n      mstore\n        /* \"#utility.yul\":2161:2165   */\n      0x11\n        /* \"#utility.yul\":2158:2159   */\n      0x04\n        /* \"#utility.yul\":2151:2166   */\n      mstore\n        /* \"#utility.yul\":2185:2189   */\n      0x24\n        /* \"#utility.yul\":2182:2183   */\n      0x00\n        /* \"#utility.yul\":2175:2190   */\n      revert\n        /* \"#utility.yul\":2202:2612   */\n    tag_20:\n        /* \"#utility.yul\":2242:2249   */\n      0x00\n        /* \"#utility.yul\":2265:2285   */\n      tag_71\n        /* \"#utility.yul\":2283:2284   */\n      dup3\n        /* \"#utility.yul\":2265:2285   */\n      tag_34\n      jump\t// in\n    tag_71:\n        /* \"#utility.yul\":2260:2285   */\n      swap2\n      pop\n        /* \"#utility.yul\":2299:2319   */\n      tag_72\n        /* \"#utility.yul\":2317:2318   */\n      dup4\n        /* \"#utility.yul\":2299:2319   */\n      tag_34\n      jump\t// in\n    tag_72:\n        /* \"#utility.yul\":2294:2319   */\n      swap3\n      pop\n        /* \"#utility.yul\":2354:2355   */\n      dup3\n        /* \"#utility.yul\":2351:2352   */\n      dup3\n        /* \"#utility.yul\":2347:2356   */\n      mul\n        /* \"#utility.yul\":2376:2406   */\n      tag_73\n        /* \"#utility.yul\":2394:2405   */\n      dup2\n        /* \"#utility.yul\":2376:2406   */\n      tag_34\n      jump\t// in\n    tag_73:\n        /* \"#utility.yul\":2365:2406   */\n      swap2\n      pop\n        /* \"#utility.yul\":2555:2556   */\n      dup3\n        /* \"#utility.yul\":2546:2553   */\n      dup3\n        /* \"#utility.yul\":2542:2557   */\n      div\n        /* \"#utility.yul\":2539:2540   */\n      dup5\n        /* \"#utility.yul\":2536:2558   */\n      eq\n        /* \"#utility.yul\":2516:2517   */\n      dup4\n        /* \"#utility.yul\":2509:2518   */\n      iszero\n        /* \"#utility.yul\":2489:2572   */\n      or\n        /* \"#utility.yul\":2466:2605   */\n      tag_74\n      jumpi\n        /* \"#utility.yul\":2585:2603   */\n      tag_75\n      tag_41\n      jump\t// in\n    tag_75:\n        /* \"#utility.yul\":2466:2605   */\n    tag_74:\n        /* \"#utility.yul\":2250:2612   */\n      pop\n        /* \"#utility.yul\":2202:2612   */\n      swap3\n      swap2\n      pop\n      pop\n      jump\t// out\n        /* \"#utility.yul\":2618:2798   */\n    tag_42:\n        /* \"#utility.yul\":2666:2743   */\n      0x4e487b7100000000000000000000000000000000000000000000000000000000\n        /* \"#utility.yul\":2663:2664   */\n      0x00\n        /* \"#utility.yul\":2656:2744   */\n      mstore\n        /* \"#utility.yul\":2763:2767   */\n      0x12\n        /* \"#utility.yul\":2760:2761   */\n      0x04\n        /* \"#utility.yul\":2753:2768   */\n      mstore\n        /* \"#utility.yul\":2787:2791   */\n      0x24\n        /* \"#utility.yul\":2784:2785   */\n      0x00\n        /* \"#utility.yul\":2777:2792   */\n      revert\n        /* \"#utility.yul\":2804:2989   */\n    tag_26:\n        /* \"#utility.yul\":2844:2845   */\n      0x00\n        /* \"#utility.yul\":2861:2881   */\n      tag_78\n        /* \"#utility.yul\":2879:2880   */\n      dup3\n        /* \"#utility.yul\":2861:2881   */\n      tag_34\n      jump\t// in\n    tag_78:\n        /* \"#utility.yul\":2856:2881   */\n      swap2\n      pop\n        /* \"#utility.yul\":2895:2915   */\n      tag_79\n        /* \"#utility.yul\":2913:2914   */\n      dup4\n        /* \"#utility.yul\":2895:2915   */\n      tag_34\n      jump\t// in\n    tag_79:\n        /* \"#utility.yul\":2890:2915   */\n      swap3\n      pop\n        /* \"#utility.yul\":2934:2935   */\n      dup3\n        /* \"#utility.yul\":2924:2959   */\n      tag_80\n      jumpi\n        /* \"#utility.yul\":2939:2957   */\n      tag_81\n      tag_42\n      jump\t// in\n    tag_81:\n        /* \"#utility.yul\":2924:2959   */\n    tag_80:\n        /* \"#utility.yul\":2981:2982   */\n      dup3\n        /* \"#utility.yul\":2978:2979   */\n      dup3\n        /* \"#utility.yul\":2974:2983   */\n      div\n        /* \"#utility.yul\":2969:2983   */\n      swap1\n      pop\n        /* \"#utility.yul\":2804:2989   */\n      swap3\n      swap2\n      pop\n      pop\n      jump\t// out\n        /* \"#utility.yul\":2995:3186   */\n    tag_28:\n        /* \"#utility.yul\":3035:3038   */\n      0x00\n        /* \"#utility.yul\":3054:3074   */\n      tag_83\n        /* \"#utility.yul\":3072:3073   */\n      dup3\n        /* \"#utility.yul\":3054:3074   */\n      tag_34\n      jump\t// in\n    tag_83:\n        /* \"#utility.yul\":3049:3074   */\n      swap2\n      pop\n        /* \"#utility.yul\":3088:3108   */\n      tag_84\n        /* \"#utility.yul\":3106:3107   */\n      dup4\n        /* \"#utility.yul\":3088:3108   */\n      tag_34\n      jump\t// in\n    tag_84:\n        /* \"#utility.yul\":3083:3108   */\n      swap3\n      pop\n        /* \"#utility.yul\":3131:3132   */\n      dup3\n        /* \"#utility.yul\":3128:3129   */\n      dup3\n        /* \"#utility.yul\":3124:3133   */\n      add\n        /* \"#utility.yul\":3117:3133   */\n      swap1\n      pop\n        /* \"#utility.yul\":3152:3155   */\n      dup1\n        /* \"#utility.yul\":3149:3150   */\n      dup3\n        /* \"#utility.yul\":3146:3156   */\n      gt\n        /* \"#utility.yul\":3143:3179   */\n      iszero\n      tag_85\n      jumpi\n        /* \"#utility.yul\":3159:3177   */\n      tag_86\n      tag_41\n      jump\t// in\n    tag_86:\n        /* \"#utility.yul\":3143:3179   */\n    tag_85:\n        /* \"#utility.yul\":2995:3186   */\n      swap3\n      swap2\n      pop\n      pop\n      jump\t// out\n\n    auxdata: 0xa2646970667358221220506da066024d37381413b781295d7ffebb033c39017d2457f086d965552e902d64736f6c634300081a0033\n}\n",
				"bytecode": {
					"linkReferences": {},
					"object": "6080604052348015600e575f80fd5b506103e98061001c5f395ff3fe608060405234801561000f575f80fd5b5060043610610034575f3560e01c80631b415fed1461003857806384867cff14610068575b5f80fd5b610052600480360381019061004d919061023d565b610098565b60405161005f919061029c565b60405180910390f35b610082600480360381019061007d919061023d565b6101bb565b60405161008f919061029c565b60405180910390f35b5f8084036100d2576040517f3d62b58b00000000000000000000000000000000000000000000000000000000815260040160405180910390fd5b60018260ff161015610110576040517fcfabd48300000000000000000000000000000000000000000000000000000000815260040160405180910390fd5b60018360ff16101561014e576040517fd2693ab000000000000000000000000000000000000000000000000000000000815260040160405180910390fd5b5f670de0b6b3a76400008561016391906102e2565b90505f5b8360ff168160ff1610156101af575f60648660ff168461018791906102e2565b6101919190610350565b9050808361019f9190610380565b9250508080600101915050610167565b50809150509392505050565b5f6101c7848484610098565b90509392505050565b5f80fd5b5f819050919050565b6101e6816101d4565b81146101f0575f80fd5b50565b5f81359050610201816101dd565b92915050565b5f60ff82169050919050565b61021c81610207565b8114610226575f80fd5b50565b5f8135905061023781610213565b92915050565b5f805f60608486031215610254576102536101d0565b5b5f610261868287016101f3565b935050602061027286828701610229565b925050604061028386828701610229565b9150509250925092565b610296816101d4565b82525050565b5f6020820190506102af5f83018461028d565b92915050565b7f4e487b71000000000000000000000000000000000000000000000000000000005f52601160045260245ffd5b5f6102ec826101d4565b91506102f7836101d4565b9250828202610305816101d4565b9150828204841483151761031c5761031b6102b5565b5b5092915050565b7f4e487b71000000000000000000000000000000000000000000000000000000005f52601260045260245ffd5b5f61035a826101d4565b9150610365836101d4565b92508261037557610374610323565b5b828204905092915050565b5f61038a826101d4565b9150610395836101d4565b92508282019050808211156103ad576103ac6102b5565b5b9291505056fea2646970667358221220506da066024d37381413b781295d7ffebb033c39017d2457f086d965552e902d64736f6c634300081a0033",
					"opcodes": "PUSH1 0x80 PUSH1 0x40 MSTORE CALLVALUE DUP1 ISZERO PUSH1 0xE JUMPI PUSH0 DUP1 REVERT JUMPDEST POP PUSH2 0x3E9 DUP1 PUSH2 0x1C PUSH0 CODECOPY PUSH0 RETURN INVALID PUSH1 0x80 PUSH1 0x40 MSTORE CALLVALUE DUP1 ISZERO PUSH2 0xF JUMPI PUSH0 DUP1 REVERT JUMPDEST POP PUSH1 0x4 CALLDATASIZE LT PUSH2 0x34 JUMPI PUSH0 CALLDATALOAD PUSH1 0xE0 SHR DUP1 PUSH4 0x1B415FED EQ PUSH2 0x38 JUMPI DUP1 PUSH4 0x84867CFF EQ PUSH2 0x68 JUMPI JUMPDEST PUSH0 DUP1 REVERT JUMPDEST PUSH2 0x52 PUSH1 0x4 DUP1 CALLDATASIZE SUB DUP2 ADD SWAP1 PUSH2 0x4D SWAP2 SWAP1 PUSH2 0x23D JUMP JUMPDEST PUSH2 0x98 JUMP JUMPDEST PUSH1 0x40 MLOAD PUSH2 0x5F SWAP2 SWAP1 PUSH2 0x29C JUMP JUMPDEST PUSH1 0x40 MLOAD DUP1 SWAP2 SUB SWAP1 RETURN JUMPDEST PUSH2 0x82 PUSH1 0x4 DUP1 CALLDATASIZE SUB DUP2 ADD SWAP1 PUSH2 0x7D SWAP2 SWAP1 PUSH2 0x23D JUMP JUMPDEST PUSH2 0x1BB JUMP JUMPDEST PUSH1 0x40 MLOAD PUSH2 0x8F SWAP2 SWAP1 PUSH2 0x29C JUMP JUMPDEST PUSH1 0x40 MLOAD DUP1 SWAP2 SUB SWAP1 RETURN JUMPDEST PUSH0 DUP1 DUP5 SUB PUSH2 0xD2 JUMPI PUSH1 0x40 MLOAD PUSH32 0x3D62B58B00000000000000000000000000000000000000000000000000000000 DUP2 MSTORE PUSH1 0x4 ADD PUSH1 0x40 MLOAD DUP1 SWAP2 SUB SWAP1 REVERT JUMPDEST PUSH1 0x1 DUP3 PUSH1 0xFF AND LT ISZERO PUSH2 0x110 JUMPI PUSH1 0x40 MLOAD PUSH32 0xCFABD48300000000000000000000000000000000000000000000000000000000 DUP2 MSTORE PUSH1 0x4 ADD PUSH1 0x40 MLOAD DUP1 SWAP2 SUB SWAP1 REVERT JUMPDEST PUSH1 0x1 DUP4 PUSH1 0xFF AND LT ISZERO PUSH2 0x14E JUMPI PUSH1 0x40 MLOAD PUSH32 0xD2693AB000000000000000000000000000000000000000000000000000000000 DUP2 MSTORE PUSH1 0x4 ADD PUSH1 0x40 MLOAD DUP1 SWAP2 SUB SWAP1 REVERT JUMPDEST PUSH0 PUSH8 0xDE0B6B3A7640000 DUP6 PUSH2 0x163 SWAP2 SWAP1 PUSH2 0x2E2 JUMP JUMPDEST SWAP1 POP PUSH0 JUMPDEST DUP4 PUSH1 0xFF AND DUP2 PUSH1 0xFF AND LT ISZERO PUSH2 0x1AF JUMPI PUSH0 PUSH1 0x64 DUP7 PUSH1 0xFF AND DUP5 PUSH2 0x187 SWAP2 SWAP1 PUSH2 0x2E2 JUMP JUMPDEST PUSH2 0x191 SWAP2 SWAP1 PUSH2 0x350 JUMP JUMPDEST SWAP1 POP DUP1 DUP4 PUSH2 0x19F SWAP2 SWAP1 PUSH2 0x380 JUMP JUMPDEST SWAP3 POP POP DUP1 DUP1 PUSH1 0x1 ADD SWAP2 POP POP PUSH2 0x167 JUMP JUMPDEST POP DUP1 SWAP2 POP POP SWAP4 SWAP3 POP POP POP JUMP JUMPDEST PUSH0 PUSH2 0x1C7 DUP5 DUP5 DUP5 PUSH2 0x98 JUMP JUMPDEST SWAP1 POP SWAP4 SWAP3 POP POP POP JUMP JUMPDEST PUSH0 DUP1 REVERT JUMPDEST PUSH0 DUP2 SWAP1 POP SWAP2 SWAP1 POP JUMP JUMPDEST PUSH2 0x1E6 DUP2 PUSH2 0x1D4 JUMP JUMPDEST DUP2 EQ PUSH2 0x1F0 JUMPI PUSH0 DUP1 REVERT JUMPDEST POP JUMP JUMPDEST PUSH0 DUP2 CALLDATALOAD SWAP1 POP PUSH2 0x201 DUP2 PUSH2 0x1DD JUMP JUMPDEST SWAP3 SWAP2 POP POP JUMP JUMPDEST PUSH0 PUSH1 0xFF DUP3 AND SWAP1 POP SWAP2 SWAP1 POP JUMP JUMPDEST PUSH2 0x21C DUP2 PUSH2 0x207 JUMP JUMPDEST DUP2 EQ PUSH2 0x226 JUMPI PUSH0 DUP1 REVERT JUMPDEST POP JUMP JUMPDEST PUSH0 DUP2 CALLDATALOAD SWAP1 POP PUSH2 0x237 DUP2 PUSH2 0x213 JUMP JUMPDEST SWAP3 SWAP2 POP POP JUMP JUMPDEST PUSH0 DUP1 PUSH0 PUSH1 0x60 DUP5 DUP7 SUB SLT ISZERO PUSH2 0x254 JUMPI PUSH2 0x253 PUSH2 0x1D0 JUMP JUMPDEST JUMPDEST PUSH0 PUSH2 0x261 DUP7 DUP3 DUP8 ADD PUSH2 0x1F3 JUMP JUMPDEST SWAP4 POP POP PUSH1 0x20 PUSH2 0x272 DUP7 DUP3 DUP8 ADD PUSH2 0x229 JUMP JUMPDEST SWAP3 POP POP PUSH1 0x40 PUSH2 0x283 DUP7 DUP3 DUP8 ADD PUSH2 0x229 JUMP JUMPDEST SWAP2 POP POP SWAP3 POP SWAP3 POP SWAP3 JUMP JUMPDEST PUSH2 0x296 DUP2 PUSH2 0x1D4 JUMP JUMPDEST DUP3 MSTORE POP POP JUMP JUMPDEST PUSH0 PUSH1 0x20 DUP3 ADD SWAP1 POP PUSH2 0x2AF PUSH0 DUP4 ADD DUP5 PUSH2 0x28D JUMP JUMPDEST SWAP3 SWAP2 POP POP JUMP JUMPDEST PUSH32 0x4E487B7100000000000000000000000000000000000000000000000000000000 PUSH0 MSTORE PUSH1 0x11 PUSH1 0x4 MSTORE PUSH1 0x24 PUSH0 REVERT JUMPDEST PUSH0 PUSH2 0x2EC DUP3 PUSH2 0x1D4 JUMP JUMPDEST SWAP2 POP PUSH2 0x2F7 DUP4 PUSH2 0x1D4 JUMP JUMPDEST SWAP3 POP DUP3 DUP3 MUL PUSH2 0x305 DUP2 PUSH2 0x1D4 JUMP JUMPDEST SWAP2 POP DUP3 DUP3 DIV DUP5 EQ DUP4 ISZERO OR PUSH2 0x31C JUMPI PUSH2 0x31B PUSH2 0x2B5 JUMP JUMPDEST JUMPDEST POP SWAP3 SWAP2 POP POP JUMP JUMPDEST PUSH32 0x4E487B7100000000000000000000000000000000000000000000000000000000 PUSH0 MSTORE PUSH1 0x12 PUSH1 0x4 MSTORE PUSH1 0x24 PUSH0 REVERT JUMPDEST PUSH0 PUSH2 0x35A DUP3 PUSH2 0x1D4 JUMP JUMPDEST SWAP2 POP PUSH2 0x365 DUP4 PUSH2 0x1D4 JUMP JUMPDEST SWAP3 POP DUP3 PUSH2 0x375 JUMPI PUSH2 0x374 PUSH2 0x323 JUMP JUMPDEST JUMPDEST DUP3 DUP3 DIV SWAP1 POP SWAP3 SWAP2 POP POP JUMP JUMPDEST PUSH0 PUSH2 0x38A DUP3 PUSH2 0x1D4 JUMP JUMPDEST SWAP2 POP PUSH2 0x395 DUP4 PUSH2 0x1D4 JUMP JUMPDEST SWAP3 POP DUP3 DUP3 ADD SWAP1 POP DUP1 DUP3 GT ISZERO PUSH2 0x3AD JUMPI PUSH2 0x3AC PUSH2 0x2B5 JUMP JUMPDEST JUMPDEST SWAP3 SWAP2 POP POP JUMP INVALID LOG2 PUSH5 0x6970667358 0x22 SLT KECCAK256 POP PUSH14 0xA066024D37381413B781295D7FFE 0xBB SUB EXTCODECOPY CODECOPY ADD PUSH30 0x2457F086D965552E902D64736F6C634300081A0033000000000000000000 "
				},
				"gasEstimates": {
					"creation": {
						"codeDepositCost": "200200",
						"executionCost": "243",
						"totalCost": "200443"
					},
					"external": {
						"calculateCompoundInterest(uint256,uint8,uint8)": "infinite",
						"calculateSalaryBonus(uint256,uint8,uint8)": "infinite"
					}
				},
				"methodIdentifiers": {
					"calculateCompoundInterest(uint256,uint8,uint8)": "1b415fed",
					"calculateSalaryBonus(uint256,uint8,uint8)": "84867cff"
				}
			},
			"storageLayout": {
				"storage": [],
				"types": null
			},
			"userdoc": {
				"kind": "user",
				"methods": {},
				"version": 1
			}
		}
	}
}