{
	"Assignments/Assignment2/Library.sol": {
		"Library": {
			"abi": [
				{
					"inputs": [],
					"name": "BookNotFound",
					"type": "error"
				},
				{
					"inputs": [],
					"name": "UnauthorizedAccess",
					"type": "error"
				},
				{
					"inputs": [
						{
							"internalType": "string",
							"name": "title",
							"type": "string"
						},
						{
							"internalType": "string",
							"name": "author",
							"type": "string"
						},
						{
							"internalType": "address",
							"name": "librarianAddress",
							"type": "address"
						}
					],
					"name": "addAuthorizedLibrarianFor",
					"outputs": [],
					"stateMutability": "nonpayable",
					"type": "function"
				},
				{
					"inputs": [
						{
							"internalType": "string",
							"name": "title",
							"type": "string"
						},
						{
							"internalType": "string",
							"name": "author",
							"type": "string"
						},
						{
							"internalType": "enum BookStatus",
							"name": "status",
							"type": "uint8"
						}
					],
					"name": "updateBookStatus",
					"outputs": [],
					"stateMutability": "nonpayable",
					"type": "function"
				}
			],
			"devdoc": {
				"kind": "dev",
				"methods": {},
				"version": 1
			},
			"evm": {
				"assembly": "    /* \"Assignments/Assignment2/Library.sol\":444:2129  contract Library {... */\n  mstore(0x40, 0x80)\n  callvalue\n  dup1\n  iszero\n  tag_1\n  jumpi\n  0x00\n  dup1\n  revert\ntag_1:\n  pop\n  dataSize(sub_0)\n  dup1\n  dataOffset(sub_0)\n  0x00\n  codecopy\n  0x00\n  return\nstop\n\nsub_0: assembly {\n        /* \"Assignments/Assignment2/Library.sol\":444:2129  contract Library {... */\n      mstore(0x40, 0x80)\n      callvalue\n      dup1\n      iszero\n      tag_1\n      jumpi\n      0x00\n      dup1\n      revert\n    tag_1:\n      pop\n      jumpi(tag_2, lt(calldatasize, 0x04))\n      shr(0xe0, calldataload(0x00))\n      dup1\n      0xe9d51bae\n      eq\n      tag_3\n      jumpi\n      dup1\n      0xfebf21f5\n      eq\n      tag_4\n      jumpi\n    tag_2:\n      0x00\n      dup1\n      revert\n        /* \"Assignments/Assignment2/Library.sol\":1399:2127  function updateBookStatus(string calldata title, string calldata author, BookStatus status) public {... */\n    tag_3:\n      tag_5\n      0x04\n      dup1\n      calldatasize\n      sub\n      dup2\n      add\n      swap1\n      tag_6\n      swap2\n      swap1\n      tag_7\n      jump\t// in\n    tag_6:\n      tag_8\n      jump\t// in\n    tag_5:\n      stop\n        /* \"Assignments/Assignment2/Library.sol\":947:1393  function addAuthorizedLibrarianFor(string calldata title, string calldata author, address librarianAddress) public {... */\n    tag_4:\n      tag_9\n      0x04\n      dup1\n      calldatasize\n      sub\n      dup2\n      add\n      swap1\n      tag_10\n      swap2\n      swap1\n      tag_11\n      jump\t// in\n    tag_10:\n      tag_12\n      jump\t// in\n    tag_9:\n      stop\n        /* \"Assignments/Assignment2/Library.sol\":1399:2127  function updateBookStatus(string calldata title, string calldata author, BookStatus status) public {... */\n    tag_8:\n        /* \"Assignments/Assignment2/Library.sol\":1508:1524  string memory id */\n      0x00\n        /* \"Assignments/Assignment2/Library.sol\":1527:1548  _idFor(title, author) */\n      tag_14\n        /* \"Assignments/Assignment2/Library.sol\":1534:1539  title */\n      dup7\n      dup7\n        /* \"Assignments/Assignment2/Library.sol\":1541:1547  author */\n      dup7\n      dup7\n        /* \"Assignments/Assignment2/Library.sol\":1527:1533  _idFor */\n      tag_15\n        /* \"Assignments/Assignment2/Library.sol\":1527:1548  _idFor(title, author) */\n      jump\t// in\n    tag_14:\n        /* \"Assignments/Assignment2/Library.sol\":1508:1548  string memory id = _idFor(title, author) */\n      swap1\n      pop\n        /* \"Assignments/Assignment2/Library.sol\":1559:1585  BookIndex memory bookIndex */\n      0x00\n        /* \"Assignments/Assignment2/Library.sol\":1588:1599  bookIndexes */\n      0x01\n        /* \"Assignments/Assignment2/Library.sol\":1600:1602  id */\n      dup3\n        /* \"Assignments/Assignment2/Library.sol\":1588:1603  bookIndexes[id] */\n      mload(0x40)\n      tag_16\n      swap2\n      swap1\n      tag_17\n      jump\t// in\n    tag_16:\n      swap1\n      dup2\n      mstore\n      0x20\n      add\n      mload(0x40)\n      dup1\n      swap2\n      sub\n      swap1\n      keccak256\n        /* \"Assignments/Assignment2/Library.sol\":1559:1603  BookIndex memory bookIndex = bookIndexes[id] */\n      mload(0x40)\n      dup1\n      0x40\n      add\n      0x40\n      mstore\n      swap1\n      dup2\n      0x00\n      dup3\n      add\n      sload\n      dup2\n      mstore\n      0x20\n      add\n      0x01\n      dup3\n      add\n      0x00\n      swap1\n      sload\n      swap1\n      0x0100\n      exp\n      swap1\n      div\n      0xff\n      and\n      iszero\n      iszero\n      iszero\n      iszero\n      dup2\n      mstore\n      pop\n      pop\n      swap1\n      pop\n        /* \"Assignments/Assignment2/Library.sol\":1637:1642  false */\n      0x00\n        /* \"Assignments/Assignment2/Library.sol\":1617:1642  bookIndex.exists == false */\n      iszero\n      iszero\n        /* \"Assignments/Assignment2/Library.sol\":1617:1626  bookIndex */\n      dup2\n        /* \"Assignments/Assignment2/Library.sol\":1617:1633  bookIndex.exists */\n      0x20\n      add\n      mload\n        /* \"Assignments/Assignment2/Library.sol\":1617:1642  bookIndex.exists == false */\n      iszero\n      iszero\n      sub\n        /* \"Assignments/Assignment2/Library.sol\":1613:1670  if (bookIndex.exists == false) { revert BookNotFound(); } */\n      tag_18\n      jumpi\n        /* \"Assignments/Assignment2/Library.sol\":1653:1667  BookNotFound() */\n      mload(0x40)\n      0x76fc34c900000000000000000000000000000000000000000000000000000000\n      dup2\n      mstore\n      0x04\n      add\n      mload(0x40)\n      dup1\n      swap2\n      sub\n      swap1\n      revert\n        /* \"Assignments/Assignment2/Library.sol\":1613:1670  if (bookIndex.exists == false) { revert BookNotFound(); } */\n    tag_18:\n        /* \"Assignments/Assignment2/Library.sol\":1680:1697  Book storage book */\n      0x00\n        /* \"Assignments/Assignment2/Library.sol\":1700:1705  books */\n      dup1\n        /* \"Assignments/Assignment2/Library.sol\":1706:1715  bookIndex */\n      dup3\n        /* \"Assignments/Assignment2/Library.sol\":1706:1721  bookIndex.index */\n      0x00\n      add\n      mload\n        /* \"Assignments/Assignment2/Library.sol\":1700:1722  books[bookIndex.index] */\n      dup2\n      sload\n      dup2\n      lt\n      tag_19\n      jumpi\n      tag_20\n      tag_21\n      jump\t// in\n    tag_20:\n    tag_19:\n      swap1\n      0x00\n      mstore\n      keccak256(0x00, 0x20)\n      swap1\n      0x06\n      mul\n      add\n        /* \"Assignments/Assignment2/Library.sol\":1680:1722  Book storage book = books[bookIndex.index] */\n      swap1\n      pop\n        /* \"Assignments/Assignment2/Library.sol\":1751:1755  book */\n      dup1\n        /* \"Assignments/Assignment2/Library.sol\":1751:1772  book.primaryLibrarian */\n      0x04\n      add\n      0x01\n      swap1\n      sload\n      swap1\n      0x0100\n      exp\n      swap1\n      div\n      0xffffffffffffffffffffffffffffffffffffffff\n      and\n        /* \"Assignments/Assignment2/Library.sol\":1737:1772  msg.sender == book.primaryLibrarian */\n      0xffffffffffffffffffffffffffffffffffffffff\n      and\n        /* \"Assignments/Assignment2/Library.sol\":1737:1747  msg.sender */\n      caller\n        /* \"Assignments/Assignment2/Library.sol\":1737:1772  msg.sender == book.primaryLibrarian */\n      0xffffffffffffffffffffffffffffffffffffffff\n      and\n      sub\n        /* \"Assignments/Assignment2/Library.sol\":1733:1839  if (msg.sender == book.primaryLibrarian) {... */\n      tag_23\n      jumpi\n        /* \"Assignments/Assignment2/Library.sol\":1802:1808  status */\n      dup4\n        /* \"Assignments/Assignment2/Library.sol\":1788:1792  book */\n      dup2\n        /* \"Assignments/Assignment2/Library.sol\":1788:1799  book.status */\n      0x04\n      add\n      0x00\n        /* \"Assignments/Assignment2/Library.sol\":1788:1808  book.status = status */\n      0x0100\n      exp\n      dup2\n      sload\n      dup2\n      0xff\n      mul\n      not\n      and\n      swap1\n      dup4\n      0x02\n      dup2\n      gt\n      iszero\n      tag_24\n      jumpi\n      tag_25\n      tag_26\n      jump\t// in\n    tag_25:\n    tag_24:\n      mul\n      or\n      swap1\n      sstore\n      pop\n        /* \"Assignments/Assignment2/Library.sol\":1822:1829  return; */\n      pop\n      pop\n      pop\n      jump(tag_13)\n        /* \"Assignments/Assignment2/Library.sol\":1733:1839  if (msg.sender == book.primaryLibrarian) {... */\n    tag_23:\n        /* \"Assignments/Assignment2/Library.sol\":1849:1886  address[] memory authorizedLibrarians */\n      0x00\n        /* \"Assignments/Assignment2/Library.sol\":1889:1903  bookLibrarians */\n      0x02\n        /* \"Assignments/Assignment2/Library.sol\":1904:1906  id */\n      dup5\n        /* \"Assignments/Assignment2/Library.sol\":1889:1907  bookLibrarians[id] */\n      mload(0x40)\n      tag_27\n      swap2\n      swap1\n      tag_17\n      jump\t// in\n    tag_27:\n      swap1\n      dup2\n      mstore\n      0x20\n      add\n      mload(0x40)\n      dup1\n      swap2\n      sub\n      swap1\n      keccak256\n        /* \"Assignments/Assignment2/Library.sol\":1849:1907  address[] memory authorizedLibrarians = bookLibrarians[id] */\n      dup1\n      sload\n      dup1\n      0x20\n      mul\n      0x20\n      add\n      mload(0x40)\n      swap1\n      dup2\n      add\n      0x40\n      mstore\n      dup1\n      swap3\n      swap2\n      swap1\n      dup2\n      dup2\n      mstore\n      0x20\n      add\n      dup3\n      dup1\n      sload\n      dup1\n      iszero\n      tag_28\n      jumpi\n      0x20\n      mul\n      dup3\n      add\n      swap2\n      swap1\n      0x00\n      mstore\n      keccak256(0x00, 0x20)\n      swap1\n    tag_29:\n      dup2\n      0x00\n      swap1\n      sload\n      swap1\n      0x0100\n      exp\n      swap1\n      div\n      0xffffffffffffffffffffffffffffffffffffffff\n      and\n      0xffffffffffffffffffffffffffffffffffffffff\n      and\n      dup2\n      mstore\n      0x20\n      add\n      swap1\n      0x01\n      add\n      swap1\n      dup1\n      dup4\n      gt\n      tag_29\n      jumpi\n    tag_28:\n      pop\n      pop\n      pop\n      pop\n      pop\n      swap1\n      pop\n        /* \"Assignments/Assignment2/Library.sol\":1923:1932  uint256 i */\n      0x00\n        /* \"Assignments/Assignment2/Library.sol\":1918:2121  for (uint256 i = 0; i < authorizedLibrarians.length; i++)  {... */\n    tag_30:\n        /* \"Assignments/Assignment2/Library.sol\":1942:1962  authorizedLibrarians */\n      dup2\n        /* \"Assignments/Assignment2/Library.sol\":1942:1969  authorizedLibrarians.length */\n      mload\n        /* \"Assignments/Assignment2/Library.sol\":1938:1939  i */\n      dup2\n        /* \"Assignments/Assignment2/Library.sol\":1938:1969  i < authorizedLibrarians.length */\n      lt\n        /* \"Assignments/Assignment2/Library.sol\":1918:2121  for (uint256 i = 0; i < authorizedLibrarians.length; i++)  {... */\n      iszero\n      tag_31\n      jumpi\n        /* \"Assignments/Assignment2/Library.sol\":2009:2029  authorizedLibrarians */\n      dup2\n        /* \"Assignments/Assignment2/Library.sol\":2030:2031  i */\n      dup2\n        /* \"Assignments/Assignment2/Library.sol\":2009:2032  authorizedLibrarians[i] */\n      dup2\n      mload\n      dup2\n      lt\n      tag_33\n      jumpi\n      tag_34\n      tag_21\n      jump\t// in\n    tag_34:\n    tag_33:\n      0x20\n      mul\n      0x20\n      add\n      add\n      mload\n        /* \"Assignments/Assignment2/Library.sol\":1995:2032  msg.sender == authorizedLibrarians[i] */\n      0xffffffffffffffffffffffffffffffffffffffff\n      and\n        /* \"Assignments/Assignment2/Library.sol\":1995:2005  msg.sender */\n      caller\n        /* \"Assignments/Assignment2/Library.sol\":1995:2032  msg.sender == authorizedLibrarians[i] */\n      0xffffffffffffffffffffffffffffffffffffffff\n      and\n      sub\n        /* \"Assignments/Assignment2/Library.sol\":1991:2111  if (msg.sender == authorizedLibrarians[i]) { ... */\n      tag_35\n      jumpi\n        /* \"Assignments/Assignment2/Library.sol\":2067:2073  status */\n      dup6\n        /* \"Assignments/Assignment2/Library.sol\":2053:2057  book */\n      dup4\n        /* \"Assignments/Assignment2/Library.sol\":2053:2064  book.status */\n      0x04\n      add\n      0x00\n        /* \"Assignments/Assignment2/Library.sol\":2053:2073  book.status = status */\n      0x0100\n      exp\n      dup2\n      sload\n      dup2\n      0xff\n      mul\n      not\n      and\n      swap1\n      dup4\n      0x02\n      dup2\n      gt\n      iszero\n      tag_36\n      jumpi\n      tag_37\n      tag_26\n      jump\t// in\n    tag_37:\n    tag_36:\n      mul\n      or\n      swap1\n      sstore\n      pop\n        /* \"Assignments/Assignment2/Library.sol\":2091:2096  break */\n      jump(tag_31)\n        /* \"Assignments/Assignment2/Library.sol\":1991:2111  if (msg.sender == authorizedLibrarians[i]) { ... */\n    tag_35:\n        /* \"Assignments/Assignment2/Library.sol\":1971:1974  i++ */\n      dup1\n      dup1\n      0x01\n      add\n      swap2\n      pop\n      pop\n        /* \"Assignments/Assignment2/Library.sol\":1918:2121  for (uint256 i = 0; i < authorizedLibrarians.length; i++)  {... */\n      jump(tag_30)\n    tag_31:\n      pop\n        /* \"Assignments/Assignment2/Library.sol\":1498:2127  {... */\n      pop\n      pop\n      pop\n      pop\n        /* \"Assignments/Assignment2/Library.sol\":1399:2127  function updateBookStatus(string calldata title, string calldata author, BookStatus status) public {... */\n    tag_13:\n      pop\n      pop\n      pop\n      pop\n      pop\n      jump\t// out\n        /* \"Assignments/Assignment2/Library.sol\":947:1393  function addAuthorizedLibrarianFor(string calldata title, string calldata author, address librarianAddress) public {... */\n    tag_12:\n        /* \"Assignments/Assignment2/Library.sol\":1072:1088  string memory id */\n      0x00\n        /* \"Assignments/Assignment2/Library.sol\":1091:1112  _idFor(title, author) */\n      tag_39\n        /* \"Assignments/Assignment2/Library.sol\":1098:1103  title */\n      dup7\n      dup7\n        /* \"Assignments/Assignment2/Library.sol\":1105:1111  author */\n      dup7\n      dup7\n        /* \"Assignments/Assignment2/Library.sol\":1091:1097  _idFor */\n      tag_15\n        /* \"Assignments/Assignment2/Library.sol\":1091:1112  _idFor(title, author) */\n      jump\t// in\n    tag_39:\n        /* \"Assignments/Assignment2/Library.sol\":1072:1112  string memory id = _idFor(title, author) */\n      swap1\n      pop\n        /* \"Assignments/Assignment2/Library.sol\":1123:1149  BookIndex memory bookIndex */\n      0x00\n        /* \"Assignments/Assignment2/Library.sol\":1152:1163  bookIndexes */\n      0x01\n        /* \"Assignments/Assignment2/Library.sol\":1164:1166  id */\n      dup3\n        /* \"Assignments/Assignment2/Library.sol\":1152:1167  bookIndexes[id] */\n      mload(0x40)\n      tag_40\n      swap2\n      swap1\n      tag_17\n      jump\t// in\n    tag_40:\n      swap1\n      dup2\n      mstore\n      0x20\n      add\n      mload(0x40)\n      dup1\n      swap2\n      sub\n      swap1\n      keccak256\n        /* \"Assignments/Assignment2/Library.sol\":1123:1167  BookIndex memory bookIndex = bookIndexes[id] */\n      mload(0x40)\n      dup1\n      0x40\n      add\n      0x40\n      mstore\n      swap1\n      dup2\n      0x00\n      dup3\n      add\n      sload\n      dup2\n      mstore\n      0x20\n      add\n      0x01\n      dup3\n      add\n      0x00\n      swap1\n      sload\n      swap1\n      0x0100\n      exp\n      swap1\n      div\n      0xff\n      and\n      iszero\n      iszero\n      iszero\n      iszero\n      dup2\n      mstore\n      pop\n      pop\n      swap1\n      pop\n        /* \"Assignments/Assignment2/Library.sol\":1201:1206  false */\n      0x00\n        /* \"Assignments/Assignment2/Library.sol\":1181:1206  bookIndex.exists == false */\n      iszero\n      iszero\n        /* \"Assignments/Assignment2/Library.sol\":1181:1190  bookIndex */\n      dup2\n        /* \"Assignments/Assignment2/Library.sol\":1181:1197  bookIndex.exists */\n      0x20\n      add\n      mload\n        /* \"Assignments/Assignment2/Library.sol\":1181:1206  bookIndex.exists == false */\n      iszero\n      iszero\n      sub\n        /* \"Assignments/Assignment2/Library.sol\":1177:1234  if (bookIndex.exists == false) { revert BookNotFound(); } */\n      tag_41\n      jumpi\n        /* \"Assignments/Assignment2/Library.sol\":1217:1231  BookNotFound() */\n      mload(0x40)\n      0x76fc34c900000000000000000000000000000000000000000000000000000000\n      dup2\n      mstore\n      0x04\n      add\n      mload(0x40)\n      dup1\n      swap2\n      sub\n      swap1\n      revert\n        /* \"Assignments/Assignment2/Library.sol\":1177:1234  if (bookIndex.exists == false) { revert BookNotFound(); } */\n    tag_41:\n        /* \"Assignments/Assignment2/Library.sol\":1262:1267  books */\n      0x00\n        /* \"Assignments/Assignment2/Library.sol\":1268:1277  bookIndex */\n      dup2\n        /* \"Assignments/Assignment2/Library.sol\":1268:1283  bookIndex.index */\n      0x00\n      add\n      mload\n        /* \"Assignments/Assignment2/Library.sol\":1262:1284  books[bookIndex.index] */\n      dup2\n      sload\n      dup2\n      lt\n      tag_42\n      jumpi\n      tag_43\n      tag_21\n      jump\t// in\n    tag_43:\n    tag_42:\n      swap1\n      0x00\n      mstore\n      keccak256(0x00, 0x20)\n      swap1\n      0x06\n      mul\n      add\n        /* \"Assignments/Assignment2/Library.sol\":1262:1301  books[bookIndex.index].primaryLibrarian */\n      0x04\n      add\n      0x01\n      swap1\n      sload\n      swap1\n      0x0100\n      exp\n      swap1\n      div\n      0xffffffffffffffffffffffffffffffffffffffff\n      and\n        /* \"Assignments/Assignment2/Library.sol\":1248:1301  msg.sender != books[bookIndex.index].primaryLibrarian */\n      0xffffffffffffffffffffffffffffffffffffffff\n      and\n        /* \"Assignments/Assignment2/Library.sol\":1248:1258  msg.sender */\n      caller\n        /* \"Assignments/Assignment2/Library.sol\":1248:1301  msg.sender != books[bookIndex.index].primaryLibrarian */\n      0xffffffffffffffffffffffffffffffffffffffff\n      and\n      eq\n        /* \"Assignments/Assignment2/Library.sol\":1244:1335  if (msg.sender != books[bookIndex.index].primaryLibrarian) { revert UnauthorizedAccess(); } */\n      tag_45\n      jumpi\n        /* \"Assignments/Assignment2/Library.sol\":1312:1332  UnauthorizedAccess() */\n      mload(0x40)\n      0x344fd58600000000000000000000000000000000000000000000000000000000\n      dup2\n      mstore\n      0x04\n      add\n      mload(0x40)\n      dup1\n      swap2\n      sub\n      swap1\n      revert\n        /* \"Assignments/Assignment2/Library.sol\":1244:1335  if (msg.sender != books[bookIndex.index].primaryLibrarian) { revert UnauthorizedAccess(); } */\n    tag_45:\n        /* \"Assignments/Assignment2/Library.sol\":1345:1359  bookLibrarians */\n      0x02\n        /* \"Assignments/Assignment2/Library.sol\":1360:1362  id */\n      dup3\n        /* \"Assignments/Assignment2/Library.sol\":1345:1363  bookLibrarians[id] */\n      mload(0x40)\n      tag_46\n      swap2\n      swap1\n      tag_17\n      jump\t// in\n    tag_46:\n      swap1\n      dup2\n      mstore\n      0x20\n      add\n      mload(0x40)\n      dup1\n      swap2\n      sub\n      swap1\n      keccak256\n        /* \"Assignments/Assignment2/Library.sol\":1369:1385  librarianAddress */\n      dup4\n        /* \"Assignments/Assignment2/Library.sol\":1345:1386  bookLibrarians[id].push(librarianAddress) */\n      swap1\n      dup1\n      0x01\n      dup2\n      sload\n      add\n      dup1\n      dup3\n      sstore\n      dup1\n      swap2\n      pop\n      pop\n      0x01\n      swap1\n      sub\n      swap1\n      0x00\n      mstore\n      keccak256(0x00, 0x20)\n      add\n      0x00\n      swap1\n      swap2\n      swap1\n      swap2\n      swap1\n      swap2\n      0x0100\n      exp\n      dup2\n      sload\n      dup2\n      0xffffffffffffffffffffffffffffffffffffffff\n      mul\n      not\n      and\n      swap1\n      dup4\n      0xffffffffffffffffffffffffffffffffffffffff\n      and\n      mul\n      or\n      swap1\n      sstore\n      pop\n        /* \"Assignments/Assignment2/Library.sol\":1062:1393  {... */\n      pop\n      pop\n        /* \"Assignments/Assignment2/Library.sol\":947:1393  function addAuthorizedLibrarianFor(string calldata title, string calldata author, address librarianAddress) public {... */\n      pop\n      pop\n      pop\n      pop\n      pop\n      jump\t// out\n        /* \"Assignments/Assignment2/Library.sol\":779:941  function _idFor(string calldata title, string calldata author) private pure returns(string memory) {... */\n    tag_15:\n        /* \"Assignments/Assignment2/Library.sol\":863:876  string memory */\n      0x60\n        /* \"Assignments/Assignment2/Library.sol\":919:924  title */\n      dup5\n      dup5\n        /* \"Assignments/Assignment2/Library.sol\":926:932  author */\n      dup5\n      dup5\n        /* \"Assignments/Assignment2/Library.sol\":902:933  abi.encodePacked(title, author) */\n      add(0x20, mload(0x40))\n      tag_49\n      swap5\n      swap4\n      swap3\n      swap2\n      swap1\n      tag_50\n      jump\t// in\n    tag_49:\n      mload(0x40)\n      0x20\n      dup2\n      dup4\n      sub\n      sub\n      dup2\n      mstore\n      swap1\n      0x40\n      mstore\n        /* \"Assignments/Assignment2/Library.sol\":888:934  return string(abi.encodePacked(title, author)) */\n      swap1\n      pop\n        /* \"Assignments/Assignment2/Library.sol\":779:941  function _idFor(string calldata title, string calldata author) private pure returns(string memory) {... */\n      swap5\n      swap4\n      pop\n      pop\n      pop\n      pop\n      jump\t// out\n        /* \"#utility.yul\":88:205   */\n    tag_52:\n        /* \"#utility.yul\":197:198   */\n      0x00\n        /* \"#utility.yul\":194:195   */\n      dup1\n        /* \"#utility.yul\":187:199   */\n      revert\n        /* \"#utility.yul\":211:328   */\n    tag_53:\n        /* \"#utility.yul\":320:321   */\n      0x00\n        /* \"#utility.yul\":317:318   */\n      dup1\n        /* \"#utility.yul\":310:322   */\n      revert\n        /* \"#utility.yul\":334:451   */\n    tag_54:\n        /* \"#utility.yul\":443:444   */\n      0x00\n        /* \"#utility.yul\":440:441   */\n      dup1\n        /* \"#utility.yul\":433:445   */\n      revert\n        /* \"#utility.yul\":457:574   */\n    tag_55:\n        /* \"#utility.yul\":566:567   */\n      0x00\n        /* \"#utility.yul\":563:564   */\n      dup1\n        /* \"#utility.yul\":556:568   */\n      revert\n        /* \"#utility.yul\":580:697   */\n    tag_56:\n        /* \"#utility.yul\":689:690   */\n      0x00\n        /* \"#utility.yul\":686:687   */\n      dup1\n        /* \"#utility.yul\":679:691   */\n      revert\n        /* \"#utility.yul\":717:1270   */\n    tag_57:\n        /* \"#utility.yul\":775:783   */\n      0x00\n        /* \"#utility.yul\":785:791   */\n      dup1\n        /* \"#utility.yul\":835:838   */\n      dup4\n        /* \"#utility.yul\":828:832   */\n      0x1f\n        /* \"#utility.yul\":820:826   */\n      dup5\n        /* \"#utility.yul\":816:833   */\n      add\n        /* \"#utility.yul\":812:839   */\n      slt\n        /* \"#utility.yul\":802:924   */\n      tag_78\n      jumpi\n        /* \"#utility.yul\":843:922   */\n      tag_79\n      tag_54\n      jump\t// in\n    tag_79:\n        /* \"#utility.yul\":802:924   */\n    tag_78:\n        /* \"#utility.yul\":956:962   */\n      dup3\n        /* \"#utility.yul\":943:963   */\n      calldataload\n        /* \"#utility.yul\":933:963   */\n      swap1\n      pop\n        /* \"#utility.yul\":986:1004   */\n      0xffffffffffffffff\n        /* \"#utility.yul\":978:984   */\n      dup2\n        /* \"#utility.yul\":975:1005   */\n      gt\n        /* \"#utility.yul\":972:1089   */\n      iszero\n      tag_80\n      jumpi\n        /* \"#utility.yul\":1008:1087   */\n      tag_81\n      tag_55\n      jump\t// in\n    tag_81:\n        /* \"#utility.yul\":972:1089   */\n    tag_80:\n        /* \"#utility.yul\":1122:1126   */\n      0x20\n        /* \"#utility.yul\":1114:1120   */\n      dup4\n        /* \"#utility.yul\":1110:1127   */\n      add\n        /* \"#utility.yul\":1098:1127   */\n      swap2\n      pop\n        /* \"#utility.yul\":1176:1179   */\n      dup4\n        /* \"#utility.yul\":1168:1172   */\n      0x01\n        /* \"#utility.yul\":1160:1166   */\n      dup3\n        /* \"#utility.yul\":1156:1173   */\n      mul\n        /* \"#utility.yul\":1146:1154   */\n      dup4\n        /* \"#utility.yul\":1142:1174   */\n      add\n        /* \"#utility.yul\":1139:1180   */\n      gt\n        /* \"#utility.yul\":1136:1264   */\n      iszero\n      tag_82\n      jumpi\n        /* \"#utility.yul\":1183:1262   */\n      tag_83\n      tag_56\n      jump\t// in\n    tag_83:\n        /* \"#utility.yul\":1136:1264   */\n    tag_82:\n        /* \"#utility.yul\":717:1270   */\n      swap3\n      pop\n      swap3\n      swap1\n      pop\n      jump\t// out\n        /* \"#utility.yul\":1276:1387   */\n    tag_58:\n        /* \"#utility.yul\":1361:1362   */\n      0x03\n        /* \"#utility.yul\":1354:1359   */\n      dup2\n        /* \"#utility.yul\":1351:1363   */\n      lt\n        /* \"#utility.yul\":1341:1381   */\n      tag_85\n      jumpi\n        /* \"#utility.yul\":1377:1378   */\n      0x00\n        /* \"#utility.yul\":1374:1375   */\n      dup1\n        /* \"#utility.yul\":1367:1379   */\n      revert\n        /* \"#utility.yul\":1341:1381   */\n    tag_85:\n        /* \"#utility.yul\":1276:1387   */\n      pop\n      jump\t// out\n        /* \"#utility.yul\":1393:1556   */\n    tag_59:\n        /* \"#utility.yul\":1451:1456   */\n      0x00\n        /* \"#utility.yul\":1489:1495   */\n      dup2\n        /* \"#utility.yul\":1476:1496   */\n      calldataload\n        /* \"#utility.yul\":1467:1496   */\n      swap1\n      pop\n        /* \"#utility.yul\":1505:1550   */\n      tag_87\n        /* \"#utility.yul\":1544:1549   */\n      dup2\n        /* \"#utility.yul\":1505:1550   */\n      tag_58\n      jump\t// in\n    tag_87:\n        /* \"#utility.yul\":1393:1556   */\n      swap3\n      swap2\n      pop\n      pop\n      jump\t// out\n        /* \"#utility.yul\":1562:2605   */\n    tag_7:\n        /* \"#utility.yul\":1675:1681   */\n      0x00\n        /* \"#utility.yul\":1683:1689   */\n      dup1\n        /* \"#utility.yul\":1691:1697   */\n      0x00\n        /* \"#utility.yul\":1699:1705   */\n      dup1\n        /* \"#utility.yul\":1707:1713   */\n      0x00\n        /* \"#utility.yul\":1756:1758   */\n      0x60\n        /* \"#utility.yul\":1744:1753   */\n      dup7\n        /* \"#utility.yul\":1735:1742   */\n      dup9\n        /* \"#utility.yul\":1731:1754   */\n      sub\n        /* \"#utility.yul\":1727:1759   */\n      slt\n        /* \"#utility.yul\":1724:1843   */\n      iszero\n      tag_89\n      jumpi\n        /* \"#utility.yul\":1762:1841   */\n      tag_90\n      tag_52\n      jump\t// in\n    tag_90:\n        /* \"#utility.yul\":1724:1843   */\n    tag_89:\n        /* \"#utility.yul\":1910:1911   */\n      0x00\n        /* \"#utility.yul\":1899:1908   */\n      dup7\n        /* \"#utility.yul\":1895:1912   */\n      add\n        /* \"#utility.yul\":1882:1913   */\n      calldataload\n        /* \"#utility.yul\":1940:1958   */\n      0xffffffffffffffff\n        /* \"#utility.yul\":1932:1938   */\n      dup2\n        /* \"#utility.yul\":1929:1959   */\n      gt\n        /* \"#utility.yul\":1926:2043   */\n      iszero\n      tag_91\n      jumpi\n        /* \"#utility.yul\":1962:2041   */\n      tag_92\n      tag_53\n      jump\t// in\n    tag_92:\n        /* \"#utility.yul\":1926:2043   */\n    tag_91:\n        /* \"#utility.yul\":2075:2140   */\n      tag_93\n        /* \"#utility.yul\":2132:2139   */\n      dup9\n        /* \"#utility.yul\":2123:2129   */\n      dup3\n        /* \"#utility.yul\":2112:2121   */\n      dup10\n        /* \"#utility.yul\":2108:2130   */\n      add\n        /* \"#utility.yul\":2075:2140   */\n      tag_57\n      jump\t// in\n    tag_93:\n        /* \"#utility.yul\":2057:2140   */\n      swap6\n      pop\n      swap6\n      pop\n        /* \"#utility.yul\":1853:2150   */\n      pop\n        /* \"#utility.yul\":2217:2219   */\n      0x20\n        /* \"#utility.yul\":2206:2215   */\n      dup7\n        /* \"#utility.yul\":2202:2220   */\n      add\n        /* \"#utility.yul\":2189:2221   */\n      calldataload\n        /* \"#utility.yul\":2248:2266   */\n      0xffffffffffffffff\n        /* \"#utility.yul\":2240:2246   */\n      dup2\n        /* \"#utility.yul\":2237:2267   */\n      gt\n        /* \"#utility.yul\":2234:2351   */\n      iszero\n      tag_94\n      jumpi\n        /* \"#utility.yul\":2270:2349   */\n      tag_95\n      tag_53\n      jump\t// in\n    tag_95:\n        /* \"#utility.yul\":2234:2351   */\n    tag_94:\n        /* \"#utility.yul\":2383:2448   */\n      tag_96\n        /* \"#utility.yul\":2440:2447   */\n      dup9\n        /* \"#utility.yul\":2431:2437   */\n      dup3\n        /* \"#utility.yul\":2420:2429   */\n      dup10\n        /* \"#utility.yul\":2416:2438   */\n      add\n        /* \"#utility.yul\":2383:2448   */\n      tag_57\n      jump\t// in\n    tag_96:\n        /* \"#utility.yul\":2365:2448   */\n      swap4\n      pop\n      swap4\n      pop\n        /* \"#utility.yul\":2160:2458   */\n      pop\n        /* \"#utility.yul\":2497:2499   */\n      0x40\n        /* \"#utility.yul\":2523:2588   */\n      tag_97\n        /* \"#utility.yul\":2580:2587   */\n      dup9\n        /* \"#utility.yul\":2571:2577   */\n      dup3\n        /* \"#utility.yul\":2560:2569   */\n      dup10\n        /* \"#utility.yul\":2556:2578   */\n      add\n        /* \"#utility.yul\":2523:2588   */\n      tag_59\n      jump\t// in\n    tag_97:\n        /* \"#utility.yul\":2513:2588   */\n      swap2\n      pop\n        /* \"#utility.yul\":2468:2598   */\n      pop\n        /* \"#utility.yul\":1562:2605   */\n      swap3\n      swap6\n      pop\n      swap3\n      swap6\n      swap1\n      swap4\n      pop\n      jump\t// out\n        /* \"#utility.yul\":2611:2737   */\n    tag_60:\n        /* \"#utility.yul\":2648:2655   */\n      0x00\n        /* \"#utility.yul\":2688:2730   */\n      0xffffffffffffffffffffffffffffffffffffffff\n        /* \"#utility.yul\":2681:2686   */\n      dup3\n        /* \"#utility.yul\":2677:2731   */\n      and\n        /* \"#utility.yul\":2666:2731   */\n      swap1\n      pop\n        /* \"#utility.yul\":2611:2737   */\n      swap2\n      swap1\n      pop\n      jump\t// out\n        /* \"#utility.yul\":2743:2839   */\n    tag_61:\n        /* \"#utility.yul\":2780:2787   */\n      0x00\n        /* \"#utility.yul\":2809:2833   */\n      tag_100\n        /* \"#utility.yul\":2827:2832   */\n      dup3\n        /* \"#utility.yul\":2809:2833   */\n      tag_60\n      jump\t// in\n    tag_100:\n        /* \"#utility.yul\":2798:2833   */\n      swap1\n      pop\n        /* \"#utility.yul\":2743:2839   */\n      swap2\n      swap1\n      pop\n      jump\t// out\n        /* \"#utility.yul\":2845:2967   */\n    tag_62:\n        /* \"#utility.yul\":2918:2942   */\n      tag_102\n        /* \"#utility.yul\":2936:2941   */\n      dup2\n        /* \"#utility.yul\":2918:2942   */\n      tag_61\n      jump\t// in\n    tag_102:\n        /* \"#utility.yul\":2911:2916   */\n      dup2\n        /* \"#utility.yul\":2908:2943   */\n      eq\n        /* \"#utility.yul\":2898:2961   */\n      tag_103\n      jumpi\n        /* \"#utility.yul\":2957:2958   */\n      0x00\n        /* \"#utility.yul\":2954:2955   */\n      dup1\n        /* \"#utility.yul\":2947:2959   */\n      revert\n        /* \"#utility.yul\":2898:2961   */\n    tag_103:\n        /* \"#utility.yul\":2845:2967   */\n      pop\n      jump\t// out\n        /* \"#utility.yul\":2973:3112   */\n    tag_63:\n        /* \"#utility.yul\":3019:3024   */\n      0x00\n        /* \"#utility.yul\":3057:3063   */\n      dup2\n        /* \"#utility.yul\":3044:3064   */\n      calldataload\n        /* \"#utility.yul\":3035:3064   */\n      swap1\n      pop\n        /* \"#utility.yul\":3073:3106   */\n      tag_105\n        /* \"#utility.yul\":3100:3105   */\n      dup2\n        /* \"#utility.yul\":3073:3106   */\n      tag_62\n      jump\t// in\n    tag_105:\n        /* \"#utility.yul\":2973:3112   */\n      swap3\n      swap2\n      pop\n      pop\n      jump\t// out\n        /* \"#utility.yul\":3118:4137   */\n    tag_11:\n        /* \"#utility.yul\":3219:3225   */\n      0x00\n        /* \"#utility.yul\":3227:3233   */\n      dup1\n        /* \"#utility.yul\":3235:3241   */\n      0x00\n        /* \"#utility.yul\":3243:3249   */\n      dup1\n        /* \"#utility.yul\":3251:3257   */\n      0x00\n        /* \"#utility.yul\":3300:3302   */\n      0x60\n        /* \"#utility.yul\":3288:3297   */\n      dup7\n        /* \"#utility.yul\":3279:3286   */\n      dup9\n        /* \"#utility.yul\":3275:3298   */\n      sub\n        /* \"#utility.yul\":3271:3303   */\n      slt\n        /* \"#utility.yul\":3268:3387   */\n      iszero\n      tag_107\n      jumpi\n        /* \"#utility.yul\":3306:3385   */\n      tag_108\n      tag_52\n      jump\t// in\n    tag_108:\n        /* \"#utility.yul\":3268:3387   */\n    tag_107:\n        /* \"#utility.yul\":3454:3455   */\n      0x00\n        /* \"#utility.yul\":3443:3452   */\n      dup7\n        /* \"#utility.yul\":3439:3456   */\n      add\n        /* \"#utility.yul\":3426:3457   */\n      calldataload\n        /* \"#utility.yul\":3484:3502   */\n      0xffffffffffffffff\n        /* \"#utility.yul\":3476:3482   */\n      dup2\n        /* \"#utility.yul\":3473:3503   */\n      gt\n        /* \"#utility.yul\":3470:3587   */\n      iszero\n      tag_109\n      jumpi\n        /* \"#utility.yul\":3506:3585   */\n      tag_110\n      tag_53\n      jump\t// in\n    tag_110:\n        /* \"#utility.yul\":3470:3587   */\n    tag_109:\n        /* \"#utility.yul\":3619:3684   */\n      tag_111\n        /* \"#utility.yul\":3676:3683   */\n      dup9\n        /* \"#utility.yul\":3667:3673   */\n      dup3\n        /* \"#utility.yul\":3656:3665   */\n      dup10\n        /* \"#utility.yul\":3652:3674   */\n      add\n        /* \"#utility.yul\":3619:3684   */\n      tag_57\n      jump\t// in\n    tag_111:\n        /* \"#utility.yul\":3601:3684   */\n      swap6\n      pop\n      swap6\n      pop\n        /* \"#utility.yul\":3397:3694   */\n      pop\n        /* \"#utility.yul\":3761:3763   */\n      0x20\n        /* \"#utility.yul\":3750:3759   */\n      dup7\n        /* \"#utility.yul\":3746:3764   */\n      add\n        /* \"#utility.yul\":3733:3765   */\n      calldataload\n        /* \"#utility.yul\":3792:3810   */\n      0xffffffffffffffff\n        /* \"#utility.yul\":3784:3790   */\n      dup2\n        /* \"#utility.yul\":3781:3811   */\n      gt\n        /* \"#utility.yul\":3778:3895   */\n      iszero\n      tag_112\n      jumpi\n        /* \"#utility.yul\":3814:3893   */\n      tag_113\n      tag_53\n      jump\t// in\n    tag_113:\n        /* \"#utility.yul\":3778:3895   */\n    tag_112:\n        /* \"#utility.yul\":3927:3992   */\n      tag_114\n        /* \"#utility.yul\":3984:3991   */\n      dup9\n        /* \"#utility.yul\":3975:3981   */\n      dup3\n        /* \"#utility.yul\":3964:3973   */\n      dup10\n        /* \"#utility.yul\":3960:3982   */\n      add\n        /* \"#utility.yul\":3927:3992   */\n      tag_57\n      jump\t// in\n    tag_114:\n        /* \"#utility.yul\":3909:3992   */\n      swap4\n      pop\n      swap4\n      pop\n        /* \"#utility.yul\":3704:4002   */\n      pop\n        /* \"#utility.yul\":4041:4043   */\n      0x40\n        /* \"#utility.yul\":4067:4120   */\n      tag_115\n        /* \"#utility.yul\":4112:4119   */\n      dup9\n        /* \"#utility.yul\":4103:4109   */\n      dup3\n        /* \"#utility.yul\":4092:4101   */\n      dup10\n        /* \"#utility.yul\":4088:4110   */\n      add\n        /* \"#utility.yul\":4067:4120   */\n      tag_63\n      jump\t// in\n    tag_115:\n        /* \"#utility.yul\":4057:4120   */\n      swap2\n      pop\n        /* \"#utility.yul\":4012:4130   */\n      pop\n        /* \"#utility.yul\":3118:4137   */\n      swap3\n      swap6\n      pop\n      swap3\n      swap6\n      swap1\n      swap4\n      pop\n      jump\t// out\n        /* \"#utility.yul\":4143:4242   */\n    tag_64:\n        /* \"#utility.yul\":4195:4201   */\n      0x00\n        /* \"#utility.yul\":4229:4234   */\n      dup2\n        /* \"#utility.yul\":4223:4235   */\n      mload\n        /* \"#utility.yul\":4213:4235   */\n      swap1\n      pop\n        /* \"#utility.yul\":4143:4242   */\n      swap2\n      swap1\n      pop\n      jump\t// out\n        /* \"#utility.yul\":4248:4396   */\n    tag_65:\n        /* \"#utility.yul\":4350:4361   */\n      0x00\n        /* \"#utility.yul\":4387:4390   */\n      dup2\n        /* \"#utility.yul\":4372:4390   */\n      swap1\n      pop\n        /* \"#utility.yul\":4248:4396   */\n      swap3\n      swap2\n      pop\n      pop\n      jump\t// out\n        /* \"#utility.yul\":4402:4541   */\n    tag_66:\n        /* \"#utility.yul\":4491:4497   */\n      dup3\n        /* \"#utility.yul\":4486:4489   */\n      dup2\n        /* \"#utility.yul\":4481:4484   */\n      dup4\n        /* \"#utility.yul\":4475:4498   */\n      mcopy\n        /* \"#utility.yul\":4532:4533   */\n      0x00\n        /* \"#utility.yul\":4523:4529   */\n      dup4\n        /* \"#utility.yul\":4518:4521   */\n      dup4\n        /* \"#utility.yul\":4514:4530   */\n      add\n        /* \"#utility.yul\":4507:4534   */\n      mstore\n        /* \"#utility.yul\":4402:4541   */\n      pop\n      pop\n      pop\n      jump\t// out\n        /* \"#utility.yul\":4547:4937   */\n    tag_67:\n        /* \"#utility.yul\":4653:4656   */\n      0x00\n        /* \"#utility.yul\":4681:4720   */\n      tag_120\n        /* \"#utility.yul\":4714:4719   */\n      dup3\n        /* \"#utility.yul\":4681:4720   */\n      tag_64\n      jump\t// in\n    tag_120:\n        /* \"#utility.yul\":4736:4825   */\n      tag_121\n        /* \"#utility.yul\":4818:4824   */\n      dup2\n        /* \"#utility.yul\":4813:4816   */\n      dup6\n        /* \"#utility.yul\":4736:4825   */\n      tag_65\n      jump\t// in\n    tag_121:\n        /* \"#utility.yul\":4729:4825   */\n      swap4\n      pop\n        /* \"#utility.yul\":4834:4899   */\n      tag_122\n        /* \"#utility.yul\":4892:4898   */\n      dup2\n        /* \"#utility.yul\":4887:4890   */\n      dup6\n        /* \"#utility.yul\":4880:4884   */\n      0x20\n        /* \"#utility.yul\":4873:4878   */\n      dup7\n        /* \"#utility.yul\":4869:4885   */\n      add\n        /* \"#utility.yul\":4834:4899   */\n      tag_66\n      jump\t// in\n    tag_122:\n        /* \"#utility.yul\":4924:4930   */\n      dup1\n        /* \"#utility.yul\":4919:4922   */\n      dup5\n        /* \"#utility.yul\":4915:4931   */\n      add\n        /* \"#utility.yul\":4908:4931   */\n      swap2\n      pop\n        /* \"#utility.yul\":4657:4937   */\n      pop\n        /* \"#utility.yul\":4547:4937   */\n      swap3\n      swap2\n      pop\n      pop\n      jump\t// out\n        /* \"#utility.yul\":4943:5218   */\n    tag_17:\n        /* \"#utility.yul\":5075:5078   */\n      0x00\n        /* \"#utility.yul\":5097:5192   */\n      tag_124\n        /* \"#utility.yul\":5188:5191   */\n      dup3\n        /* \"#utility.yul\":5179:5185   */\n      dup5\n        /* \"#utility.yul\":5097:5192   */\n      tag_67\n      jump\t// in\n    tag_124:\n        /* \"#utility.yul\":5090:5192   */\n      swap2\n      pop\n        /* \"#utility.yul\":5209:5212   */\n      dup2\n        /* \"#utility.yul\":5202:5212   */\n      swap1\n      pop\n        /* \"#utility.yul\":4943:5218   */\n      swap3\n      swap2\n      pop\n      pop\n      jump\t// out\n        /* \"#utility.yul\":5224:5404   */\n    tag_21:\n        /* \"#utility.yul\":5272:5349   */\n      0x4e487b7100000000000000000000000000000000000000000000000000000000\n        /* \"#utility.yul\":5269:5270   */\n      0x00\n        /* \"#utility.yul\":5262:5350   */\n      mstore\n        /* \"#utility.yul\":5369:5373   */\n      0x32\n        /* \"#utility.yul\":5366:5367   */\n      0x04\n        /* \"#utility.yul\":5359:5374   */\n      mstore\n        /* \"#utility.yul\":5393:5397   */\n      0x24\n        /* \"#utility.yul\":5390:5391   */\n      0x00\n        /* \"#utility.yul\":5383:5398   */\n      revert\n        /* \"#utility.yul\":5410:5590   */\n    tag_26:\n        /* \"#utility.yul\":5458:5535   */\n      0x4e487b7100000000000000000000000000000000000000000000000000000000\n        /* \"#utility.yul\":5455:5456   */\n      0x00\n        /* \"#utility.yul\":5448:5536   */\n      mstore\n        /* \"#utility.yul\":5555:5559   */\n      0x21\n        /* \"#utility.yul\":5552:5553   */\n      0x04\n        /* \"#utility.yul\":5545:5560   */\n      mstore\n        /* \"#utility.yul\":5579:5583   */\n      0x24\n        /* \"#utility.yul\":5576:5577   */\n      0x00\n        /* \"#utility.yul\":5569:5584   */\n      revert\n        /* \"#utility.yul\":5596:5744   */\n    tag_68:\n        /* \"#utility.yul\":5694:5700   */\n      dup3\n        /* \"#utility.yul\":5689:5692   */\n      dup2\n        /* \"#utility.yul\":5684:5687   */\n      dup4\n        /* \"#utility.yul\":5671:5701   */\n      calldatacopy\n        /* \"#utility.yul\":5735:5736   */\n      0x00\n        /* \"#utility.yul\":5726:5732   */\n      dup4\n        /* \"#utility.yul\":5721:5724   */\n      dup4\n        /* \"#utility.yul\":5717:5733   */\n      add\n        /* \"#utility.yul\":5710:5737   */\n      mstore\n        /* \"#utility.yul\":5596:5744   */\n      pop\n      pop\n      pop\n      jump\t// out\n        /* \"#utility.yul\":5774:6104   */\n    tag_69:\n        /* \"#utility.yul\":5890:5893   */\n      0x00\n        /* \"#utility.yul\":5911:6000   */\n      tag_129\n        /* \"#utility.yul\":5993:5999   */\n      dup4\n        /* \"#utility.yul\":5988:5991   */\n      dup6\n        /* \"#utility.yul\":5911:6000   */\n      tag_65\n      jump\t// in\n    tag_129:\n        /* \"#utility.yul\":5904:6000   */\n      swap4\n      pop\n        /* \"#utility.yul\":6010:6066   */\n      tag_130\n        /* \"#utility.yul\":6059:6065   */\n      dup4\n        /* \"#utility.yul\":6054:6057   */\n      dup6\n        /* \"#utility.yul\":6047:6052   */\n      dup5\n        /* \"#utility.yul\":6010:6066   */\n      tag_68\n      jump\t// in\n    tag_130:\n        /* \"#utility.yul\":6091:6097   */\n      dup3\n        /* \"#utility.yul\":6086:6089   */\n      dup5\n        /* \"#utility.yul\":6082:6098   */\n      add\n        /* \"#utility.yul\":6075:6098   */\n      swap1\n      pop\n        /* \"#utility.yul\":5774:6104   */\n      swap4\n      swap3\n      pop\n      pop\n      pop\n      jump\t// out\n        /* \"#utility.yul\":6110:6585   */\n    tag_50:\n        /* \"#utility.yul\":6310:6313   */\n      0x00\n        /* \"#utility.yul\":6332:6437   */\n      tag_132\n        /* \"#utility.yul\":6433:6436   */\n      dup3\n        /* \"#utility.yul\":6424:6430   */\n      dup7\n        /* \"#utility.yul\":6416:6422   */\n      dup9\n        /* \"#utility.yul\":6332:6437   */\n      tag_69\n      jump\t// in\n    tag_132:\n        /* \"#utility.yul\":6325:6437   */\n      swap2\n      pop\n        /* \"#utility.yul\":6454:6559   */\n      tag_133\n        /* \"#utility.yul\":6555:6558   */\n      dup3\n        /* \"#utility.yul\":6546:6552   */\n      dup5\n        /* \"#utility.yul\":6538:6544   */\n      dup7\n        /* \"#utility.yul\":6454:6559   */\n      tag_69\n      jump\t// in\n    tag_133:\n        /* \"#utility.yul\":6447:6559   */\n      swap2\n      pop\n        /* \"#utility.yul\":6576:6579   */\n      dup2\n        /* \"#utility.yul\":6569:6579   */\n      swap1\n      pop\n        /* \"#utility.yul\":6110:6585   */\n      swap6\n      swap5\n      pop\n      pop\n      pop\n      pop\n      pop\n      jump\t// out\n\n    auxdata: 0xa26469706673582212206e288dc0e57dc60906a4c9f8c10e3942abc5dedd5ad523abdc4dec86eb362ea564736f6c634300081a0033\n}\n",
				"bytecode": {
					"linkReferences": {},
					"object": "6080604052348015600e575f80fd5b5061085c8061001c5f395ff3fe608060405234801561000f575f80fd5b5060043610610034575f3560e01c8063e9d51bae14610038578063febf21f514610054575b5f80fd5b610052600480360381019061004d919061058f565b610070565b005b61006e6004803603810190610069919061067a565b610303565b005b5f61007d868686866104d1565b90505f600182604051610090919061075d565b90815260200160405180910390206040518060400160405290815f8201548152602001600182015f9054906101000a900460ff16151515158152505090505f1515816020015115150361010f576040517f76fc34c900000000000000000000000000000000000000000000000000000000815260040160405180910390fd5b5f80825f01518154811061012657610125610773565b5b905f5260205f20906006020190508060040160019054906101000a900473ffffffffffffffffffffffffffffffffffffffff1673ffffffffffffffffffffffffffffffffffffffff163373ffffffffffffffffffffffffffffffffffffffff16036101be5783816004015f6101000a81548160ff021916908360028111156101b1576101b06107a0565b5b02179055505050506102fc565b5f6002846040516101cf919061075d565b908152602001604051809103902080548060200260200160405190810160405280929190818152602001828054801561025a57602002820191905f5260205f20905b815f9054906101000a900473ffffffffffffffffffffffffffffffffffffffff1673ffffffffffffffffffffffffffffffffffffffff1681526020019060010190808311610211575b505050505090505f5b81518110156102f65781818151811061027f5761027e610773565b5b602002602001015173ffffffffffffffffffffffffffffffffffffffff163373ffffffffffffffffffffffffffffffffffffffff16036102e95785836004015f6101000a81548160ff021916908360028111156102df576102de6107a0565b5b02179055506102f6565b8080600101915050610263565b50505050505b5050505050565b5f610310868686866104d1565b90505f600182604051610323919061075d565b90815260200160405180910390206040518060400160405290815f8201548152602001600182015f9054906101000a900460ff16151515158152505090505f151581602001511515036103a2576040517f76fc34c900000000000000000000000000000000000000000000000000000000815260040160405180910390fd5b5f815f0151815481106103b8576103b7610773565b5b905f5260205f20906006020160040160019054906101000a900473ffffffffffffffffffffffffffffffffffffffff1673ffffffffffffffffffffffffffffffffffffffff163373ffffffffffffffffffffffffffffffffffffffff161461044c576040517f344fd58600000000000000000000000000000000000000000000000000000000815260040160405180910390fd5b60028260405161045c919061075d565b908152602001604051809103902083908060018154018082558091505060019003905f5260205f20015f9091909190916101000a81548173ffffffffffffffffffffffffffffffffffffffff021916908373ffffffffffffffffffffffffffffffffffffffff16021790555050505050505050565b6060848484846040516020016104ea94939291906107ff565b6040516020818303038152906040529050949350505050565b5f80fd5b5f80fd5b5f80fd5b5f80fd5b5f80fd5b5f8083601f84011261052c5761052b61050b565b5b8235905067ffffffffffffffff8111156105495761054861050f565b5b60208301915083600182028301111561056557610564610513565b5b9250929050565b60038110610578575f80fd5b50565b5f813590506105898161056c565b92915050565b5f805f805f606086880312156105a8576105a7610503565b5b5f86013567ffffffffffffffff8111156105c5576105c4610507565b5b6105d188828901610517565b9550955050602086013567ffffffffffffffff8111156105f4576105f3610507565b5b61060088828901610517565b935093505060406106138882890161057b565b9150509295509295909350565b5f73ffffffffffffffffffffffffffffffffffffffff82169050919050565b5f61064982610620565b9050919050565b6106598161063f565b8114610663575f80fd5b50565b5f8135905061067481610650565b92915050565b5f805f805f6060868803121561069357610692610503565b5b5f86013567ffffffffffffffff8111156106b0576106af610507565b5b6106bc88828901610517565b9550955050602086013567ffffffffffffffff8111156106df576106de610507565b5b6106eb88828901610517565b935093505060406106fe88828901610666565b9150509295509295909350565b5f81519050919050565b5f81905092915050565b8281835e5f83830152505050565b5f6107378261070b565b6107418185610715565b935061075181856020860161071f565b80840191505092915050565b5f610768828461072d565b915081905092915050565b7f4e487b71000000000000000000000000000000000000000000000000000000005f52603260045260245ffd5b7f4e487b71000000000000000000000000000000000000000000000000000000005f52602160045260245ffd5b828183375f83830152505050565b5f6107e68385610715565b93506107f38385846107cd565b82840190509392505050565b5f61080b8286886107db565b91506108188284866107db565b91508190509594505050505056fea26469706673582212206e288dc0e57dc60906a4c9f8c10e3942abc5dedd5ad523abdc4dec86eb362ea564736f6c634300081a0033",
					"opcodes": "PUSH1 0x80 PUSH1 0x40 MSTORE CALLVALUE DUP1 ISZERO PUSH1 0xE JUMPI PUSH0 DUP1 REVERT JUMPDEST POP PUSH2 0x85C DUP1 PUSH2 0x1C PUSH0 CODECOPY PUSH0 RETURN INVALID PUSH1 0x80 PUSH1 0x40 MSTORE CALLVALUE DUP1 ISZERO PUSH2 0xF JUMPI PUSH0 DUP1 REVERT JUMPDEST POP PUSH1 0x4 CALLDATASIZE LT PUSH2 0x34 JUMPI PUSH0 CALLDATALOAD PUSH1 0xE0 SHR DUP1 PUSH4 0xE9D51BAE EQ PUSH2 0x38 JUMPI DUP1 PUSH4 0xFEBF21F5 EQ PUSH2 0x54 JUMPI JUMPDEST PUSH0 DUP1 REVERT JUMPDEST PUSH2 0x52 PUSH1 0x4 DUP1 CALLDATASIZE SUB DUP2 ADD SWAP1 PUSH2 0x4D SWAP2 SWAP1 PUSH2 0x58F JUMP JUMPDEST PUSH2 0x70 JUMP JUMPDEST STOP JUMPDEST PUSH2 0x6E PUSH1 0x4 DUP1 CALLDATASIZE SUB DUP2 ADD SWAP1 PUSH2 0x69 SWAP2 SWAP1 PUSH2 0x67A JUMP JUMPDEST PUSH2 0x303 JUMP JUMPDEST STOP JUMPDEST PUSH0 PUSH2 0x7D DUP7 DUP7 DUP7 DUP7 PUSH2 0x4D1 JUMP JUMPDEST SWAP1 POP PUSH0 PUSH1 0x1 DUP3 PUSH1 0x40 MLOAD PUSH2 0x90 SWAP2 SWAP1 PUSH2 0x75D JUMP JUMPDEST SWAP1 DUP2 MSTORE PUSH1 0x20 ADD PUSH1 0x40 MLOAD DUP1 SWAP2 SUB SWAP1 KECCAK256 PUSH1 0x40 MLOAD DUP1 PUSH1 0x40 ADD PUSH1 0x40 MSTORE SWAP1 DUP2 PUSH0 DUP3 ADD SLOAD DUP2 MSTORE PUSH1 0x20 ADD PUSH1 0x1 DUP3 ADD PUSH0 SWAP1 SLOAD SWAP1 PUSH2 0x100 EXP SWAP1 DIV PUSH1 0xFF AND ISZERO ISZERO ISZERO ISZERO DUP2 MSTORE POP POP SWAP1 POP PUSH0 ISZERO ISZERO DUP2 PUSH1 0x20 ADD MLOAD ISZERO ISZERO SUB PUSH2 0x10F JUMPI PUSH1 0x40 MLOAD PUSH32 0x76FC34C900000000000000000000000000000000000000000000000000000000 DUP2 MSTORE PUSH1 0x4 ADD PUSH1 0x40 MLOAD DUP1 SWAP2 SUB SWAP1 REVERT JUMPDEST PUSH0 DUP1 DUP3 PUSH0 ADD MLOAD DUP2 SLOAD DUP2 LT PUSH2 0x126 JUMPI PUSH2 0x125 PUSH2 0x773 JUMP JUMPDEST JUMPDEST SWAP1 PUSH0 MSTORE PUSH1 0x20 PUSH0 KECCAK256 SWAP1 PUSH1 0x6 MUL ADD SWAP1 POP DUP1 PUSH1 0x4 ADD PUSH1 0x1 SWAP1 SLOAD SWAP1 PUSH2 0x100 EXP SWAP1 DIV PUSH20 0xFFFFFFFFFFFFFFFFFFFFFFFFFFFFFFFFFFFFFFFF AND PUSH20 0xFFFFFFFFFFFFFFFFFFFFFFFFFFFFFFFFFFFFFFFF AND CALLER PUSH20 0xFFFFFFFFFFFFFFFFFFFFFFFFFFFFFFFFFFFFFFFF AND SUB PUSH2 0x1BE JUMPI DUP4 DUP2 PUSH1 0x4 ADD PUSH0 PUSH2 0x100 EXP DUP2 SLOAD DUP2 PUSH1 0xFF MUL NOT AND SWAP1 DUP4 PUSH1 0x2 DUP2 GT ISZERO PUSH2 0x1B1 JUMPI PUSH2 0x1B0 PUSH2 0x7A0 JUMP JUMPDEST JUMPDEST MUL OR SWAP1 SSTORE POP POP POP POP PUSH2 0x2FC JUMP JUMPDEST PUSH0 PUSH1 0x2 DUP5 PUSH1 0x40 MLOAD PUSH2 0x1CF SWAP2 SWAP1 PUSH2 0x75D JUMP JUMPDEST SWAP1 DUP2 MSTORE PUSH1 0x20 ADD PUSH1 0x40 MLOAD DUP1 SWAP2 SUB SWAP1 KECCAK256 DUP1 SLOAD DUP1 PUSH1 0x20 MUL PUSH1 0x20 ADD PUSH1 0x40 MLOAD SWAP1 DUP2 ADD PUSH1 0x40 MSTORE DUP1 SWAP3 SWAP2 SWAP1 DUP2 DUP2 MSTORE PUSH1 0x20 ADD DUP3 DUP1 SLOAD DUP1 ISZERO PUSH2 0x25A JUMPI PUSH1 0x20 MUL DUP3 ADD SWAP2 SWAP1 PUSH0 MSTORE PUSH1 0x20 PUSH0 KECCAK256 SWAP1 JUMPDEST DUP2 PUSH0 SWAP1 SLOAD SWAP1 PUSH2 0x100 EXP SWAP1 DIV PUSH20 0xFFFFFFFFFFFFFFFFFFFFFFFFFFFFFFFFFFFFFFFF AND PUSH20 0xFFFFFFFFFFFFFFFFFFFFFFFFFFFFFFFFFFFFFFFF AND DUP2 MSTORE PUSH1 0x20 ADD SWAP1 PUSH1 0x1 ADD SWAP1 DUP1 DUP4 GT PUSH2 0x211 JUMPI JUMPDEST POP POP POP POP POP SWAP1 POP PUSH0 JUMPDEST DUP2 MLOAD DUP2 LT ISZERO PUSH2 0x2F6 JUMPI DUP2 DUP2 DUP2 MLOAD DUP2 LT PUSH2 0x27F JUMPI PUSH2 0x27E PUSH2 0x773 JUMP JUMPDEST JUMPDEST PUSH1 0x20 MUL PUSH1 0x20 ADD ADD MLOAD PUSH20 0xFFFFFFFFFFFFFFFFFFFFFFFFFFFFFFFFFFFFFFFF AND CALLER PUSH20 0xFFFFFFFFFFFFFFFFFFFFFFFFFFFFFFFFFFFFFFFF AND SUB PUSH2 0x2E9 JUMPI DUP6 DUP4 PUSH1 0x4 ADD PUSH0 PUSH2 0x100 EXP DUP2 SLOAD DUP2 PUSH1 0xFF MUL NOT AND SWAP1 DUP4 PUSH1 0x2 DUP2 GT ISZERO PUSH2 0x2DF JUMPI PUSH2 0x2DE PUSH2 0x7A0 JUMP JUMPDEST JUMPDEST MUL OR SWAP1 SSTORE POP PUSH2 0x2F6 JUMP JUMPDEST DUP1 DUP1 PUSH1 0x1 ADD SWAP2 POP POP PUSH2 0x263 JUMP JUMPDEST POP POP POP POP POP JUMPDEST POP POP POP POP POP JUMP JUMPDEST PUSH0 PUSH2 0x310 DUP7 DUP7 DUP7 DUP7 PUSH2 0x4D1 JUMP JUMPDEST SWAP1 POP PUSH0 PUSH1 0x1 DUP3 PUSH1 0x40 MLOAD PUSH2 0x323 SWAP2 SWAP1 PUSH2 0x75D JUMP JUMPDEST SWAP1 DUP2 MSTORE PUSH1 0x20 ADD PUSH1 0x40 MLOAD DUP1 SWAP2 SUB SWAP1 KECCAK256 PUSH1 0x40 MLOAD DUP1 PUSH1 0x40 ADD PUSH1 0x40 MSTORE SWAP1 DUP2 PUSH0 DUP3 ADD SLOAD DUP2 MSTORE PUSH1 0x20 ADD PUSH1 0x1 DUP3 ADD PUSH0 SWAP1 SLOAD SWAP1 PUSH2 0x100 EXP SWAP1 DIV PUSH1 0xFF AND ISZERO ISZERO ISZERO ISZERO DUP2 MSTORE POP POP SWAP1 POP PUSH0 ISZERO ISZERO DUP2 PUSH1 0x20 ADD MLOAD ISZERO ISZERO SUB PUSH2 0x3A2 JUMPI PUSH1 0x40 MLOAD PUSH32 0x76FC34C900000000000000000000000000000000000000000000000000000000 DUP2 MSTORE PUSH1 0x4 ADD PUSH1 0x40 MLOAD DUP1 SWAP2 SUB SWAP1 REVERT JUMPDEST PUSH0 DUP2 PUSH0 ADD MLOAD DUP2 SLOAD DUP2 LT PUSH2 0x3B8 JUMPI PUSH2 0x3B7 PUSH2 0x773 JUMP JUMPDEST JUMPDEST SWAP1 PUSH0 MSTORE PUSH1 0x20 PUSH0 KECCAK256 SWAP1 PUSH1 0x6 MUL ADD PUSH1 0x4 ADD PUSH1 0x1 SWAP1 SLOAD SWAP1 PUSH2 0x100 EXP SWAP1 DIV PUSH20 0xFFFFFFFFFFFFFFFFFFFFFFFFFFFFFFFFFFFFFFFF AND PUSH20 0xFFFFFFFFFFFFFFFFFFFFFFFFFFFFFFFFFFFFFFFF AND CALLER PUSH20 0xFFFFFFFFFFFFFFFFFFFFFFFFFFFFFFFFFFFFFFFF AND EQ PUSH2 0x44C JUMPI PUSH1 0x40 MLOAD PUSH32 0x344FD58600000000000000000000000000000000000000000000000000000000 DUP2 MSTORE PUSH1 0x4 ADD PUSH1 0x40 MLOAD DUP1 SWAP2 SUB SWAP1 REVERT JUMPDEST PUSH1 0x2 DUP3 PUSH1 0x40 MLOAD PUSH2 0x45C SWAP2 SWAP1 PUSH2 0x75D JUMP JUMPDEST SWAP1 DUP2 MSTORE PUSH1 0x20 ADD PUSH1 0x40 MLOAD DUP1 SWAP2 SUB SWAP1 KECCAK256 DUP4 SWAP1 DUP1 PUSH1 0x1 DUP2 SLOAD ADD DUP1 DUP3 SSTORE DUP1 SWAP2 POP POP PUSH1 0x1 SWAP1 SUB SWAP1 PUSH0 MSTORE PUSH1 0x20 PUSH0 KECCAK256 ADD PUSH0 SWAP1 SWAP2 SWAP1 SWAP2 SWAP1 SWAP2 PUSH2 0x100 EXP DUP2 SLOAD DUP2 PUSH20 0xFFFFFFFFFFFFFFFFFFFFFFFFFFFFFFFFFFFFFFFF MUL NOT AND SWAP1 DUP4 PUSH20 0xFFFFFFFFFFFFFFFFFFFFFFFFFFFFFFFFFFFFFFFF AND MUL OR SWAP1 SSTORE POP POP POP POP POP POP POP POP JUMP JUMPDEST PUSH1 0x60 DUP5 DUP5 DUP5 DUP5 PUSH1 0x40 MLOAD PUSH1 0x20 ADD PUSH2 0x4EA SWAP5 SWAP4 SWAP3 SWAP2 SWAP1 PUSH2 0x7FF JUMP JUMPDEST PUSH1 0x40 MLOAD PUSH1 0x20 DUP2 DUP4 SUB SUB DUP2 MSTORE SWAP1 PUSH1 0x40 MSTORE SWAP1 POP SWAP5 SWAP4 POP POP POP POP JUMP JUMPDEST PUSH0 DUP1 REVERT JUMPDEST PUSH0 DUP1 REVERT JUMPDEST PUSH0 DUP1 REVERT JUMPDEST PUSH0 DUP1 REVERT JUMPDEST PUSH0 DUP1 REVERT JUMPDEST PUSH0 DUP1 DUP4 PUSH1 0x1F DUP5 ADD SLT PUSH2 0x52C JUMPI PUSH2 0x52B PUSH2 0x50B JUMP JUMPDEST JUMPDEST DUP3 CALLDATALOAD SWAP1 POP PUSH8 0xFFFFFFFFFFFFFFFF DUP2 GT ISZERO PUSH2 0x549 JUMPI PUSH2 0x548 PUSH2 0x50F JUMP JUMPDEST JUMPDEST PUSH1 0x20 DUP4 ADD SWAP2 POP DUP4 PUSH1 0x1 DUP3 MUL DUP4 ADD GT ISZERO PUSH2 0x565 JUMPI PUSH2 0x564 PUSH2 0x513 JUMP JUMPDEST JUMPDEST SWAP3 POP SWAP3 SWAP1 POP JUMP JUMPDEST PUSH1 0x3 DUP2 LT PUSH2 0x578 JUMPI PUSH0 DUP1 REVERT JUMPDEST POP JUMP JUMPDEST PUSH0 DUP2 CALLDATALOAD SWAP1 POP PUSH2 0x589 DUP2 PUSH2 0x56C JUMP JUMPDEST SWAP3 SWAP2 POP POP JUMP JUMPDEST PUSH0 DUP1 PUSH0 DUP1 PUSH0 PUSH1 0x60 DUP7 DUP9 SUB SLT ISZERO PUSH2 0x5A8 JUMPI PUSH2 0x5A7 PUSH2 0x503 JUMP JUMPDEST JUMPDEST PUSH0 DUP7 ADD CALLDATALOAD PUSH8 0xFFFFFFFFFFFFFFFF DUP2 GT ISZERO PUSH2 0x5C5 JUMPI PUSH2 0x5C4 PUSH2 0x507 JUMP JUMPDEST JUMPDEST PUSH2 0x5D1 DUP9 DUP3 DUP10 ADD PUSH2 0x517 JUMP JUMPDEST SWAP6 POP SWAP6 POP POP PUSH1 0x20 DUP7 ADD CALLDATALOAD PUSH8 0xFFFFFFFFFFFFFFFF DUP2 GT ISZERO PUSH2 0x5F4 JUMPI PUSH2 0x5F3 PUSH2 0x507 JUMP JUMPDEST JUMPDEST PUSH2 0x600 DUP9 DUP3 DUP10 ADD PUSH2 0x517 JUMP JUMPDEST SWAP4 POP SWAP4 POP POP PUSH1 0x40 PUSH2 0x613 DUP9 DUP3 DUP10 ADD PUSH2 0x57B JUMP JUMPDEST SWAP2 POP POP SWAP3 SWAP6 POP SWAP3 SWAP6 SWAP1 SWAP4 POP JUMP JUMPDEST PUSH0 PUSH20 0xFFFFFFFFFFFFFFFFFFFFFFFFFFFFFFFFFFFFFFFF DUP3 AND SWAP1 POP SWAP2 SWAP1 POP JUMP JUMPDEST PUSH0 PUSH2 0x649 DUP3 PUSH2 0x620 JUMP JUMPDEST SWAP1 POP SWAP2 SWAP1 POP JUMP JUMPDEST PUSH2 0x659 DUP2 PUSH2 0x63F JUMP JUMPDEST DUP2 EQ PUSH2 0x663 JUMPI PUSH0 DUP1 REVERT JUMPDEST POP JUMP JUMPDEST PUSH0 DUP2 CALLDATALOAD SWAP1 POP PUSH2 0x674 DUP2 PUSH2 0x650 JUMP JUMPDEST SWAP3 SWAP2 POP POP JUMP JUMPDEST PUSH0 DUP1 PUSH0 DUP1 PUSH0 PUSH1 0x60 DUP7 DUP9 SUB SLT ISZERO PUSH2 0x693 JUMPI PUSH2 0x692 PUSH2 0x503 JUMP JUMPDEST JUMPDEST PUSH0 DUP7 ADD CALLDATALOAD PUSH8 0xFFFFFFFFFFFFFFFF DUP2 GT ISZERO PUSH2 0x6B0 JUMPI PUSH2 0x6AF PUSH2 0x507 JUMP JUMPDEST JUMPDEST PUSH2 0x6BC DUP9 DUP3 DUP10 ADD PUSH2 0x517 JUMP JUMPDEST SWAP6 POP SWAP6 POP POP PUSH1 0x20 DUP7 ADD CALLDATALOAD PUSH8 0xFFFFFFFFFFFFFFFF DUP2 GT ISZERO PUSH2 0x6DF JUMPI PUSH2 0x6DE PUSH2 0x507 JUMP JUMPDEST JUMPDEST PUSH2 0x6EB DUP9 DUP3 DUP10 ADD PUSH2 0x517 JUMP JUMPDEST SWAP4 POP SWAP4 POP POP PUSH1 0x40 PUSH2 0x6FE DUP9 DUP3 DUP10 ADD PUSH2 0x666 JUMP JUMPDEST SWAP2 POP POP SWAP3 SWAP6 POP SWAP3 SWAP6 SWAP1 SWAP4 POP JUMP JUMPDEST PUSH0 DUP2 MLOAD SWAP1 POP SWAP2 SWAP1 POP JUMP JUMPDEST PUSH0 DUP2 SWAP1 POP SWAP3 SWAP2 POP POP JUMP JUMPDEST DUP3 DUP2 DUP4 MCOPY PUSH0 DUP4 DUP4 ADD MSTORE POP POP POP JUMP JUMPDEST PUSH0 PUSH2 0x737 DUP3 PUSH2 0x70B JUMP JUMPDEST PUSH2 0x741 DUP2 DUP6 PUSH2 0x715 JUMP JUMPDEST SWAP4 POP PUSH2 0x751 DUP2 DUP6 PUSH1 0x20 DUP7 ADD PUSH2 0x71F JUMP JUMPDEST DUP1 DUP5 ADD SWAP2 POP POP SWAP3 SWAP2 POP POP JUMP JUMPDEST PUSH0 PUSH2 0x768 DUP3 DUP5 PUSH2 0x72D JUMP JUMPDEST SWAP2 POP DUP2 SWAP1 POP SWAP3 SWAP2 POP POP JUMP JUMPDEST PUSH32 0x4E487B7100000000000000000000000000000000000000000000000000000000 PUSH0 MSTORE PUSH1 0x32 PUSH1 0x4 MSTORE PUSH1 0x24 PUSH0 REVERT JUMPDEST PUSH32 0x4E487B7100000000000000000000000000000000000000000000000000000000 PUSH0 MSTORE PUSH1 0x21 PUSH1 0x4 MSTORE PUSH1 0x24 PUSH0 REVERT JUMPDEST DUP3 DUP2 DUP4 CALLDATACOPY PUSH0 DUP4 DUP4 ADD MSTORE POP POP POP JUMP JUMPDEST PUSH0 PUSH2 0x7E6 DUP4 DUP6 PUSH2 0x715 JUMP JUMPDEST SWAP4 POP PUSH2 0x7F3 DUP4 DUP6 DUP5 PUSH2 0x7CD JUMP JUMPDEST DUP3 DUP5 ADD SWAP1 POP SWAP4 SWAP3 POP POP POP JUMP JUMPDEST PUSH0 PUSH2 0x80B DUP3 DUP7 DUP9 PUSH2 0x7DB JUMP JUMPDEST SWAP2 POP PUSH2 0x818 DUP3 DUP5 DUP7 PUSH2 0x7DB JUMP JUMPDEST SWAP2 POP DUP2 SWAP1 POP SWAP6 SWAP5 POP POP POP POP POP JUMP INVALID LOG2 PUSH5 0x6970667358 0x22 SLT KECCAK256 PUSH15 0x288DC0E57DC60906A4C9F8C10E3942 0xAB 0xC5 0xDE 0xDD GAS 0xD5 0x23 0xAB 0xDC 0x4D 0xEC DUP7 0xEB CALLDATASIZE 0x2E 0xA5 PUSH5 0x736F6C6343 STOP ADDMOD BYTE STOP CALLER "
				},
				"gasEstimates": {
					"creation": {
						"codeDepositCost": "428000",
						"executionCost": "459",
						"totalCost": "428459"
					},
					"external": {
						"addAuthorizedLibrarianFor(string,string,address)": "infinite",
						"updateBookStatus(string,string,uint8)": "infinite"
					},
					"internal": {
						"_idFor(string calldata,string calldata)": "infinite",
						"_idFor(struct Book calldata)": "infinite"
					}
				},
				"methodIdentifiers": {
					"addAuthorizedLibrarianFor(string,string,address)": "febf21f5",
					"updateBookStatus(string,string,uint8)": "e9d51bae"
				}
			},
			"storageLayout": {
				"storage": [
					{
						"astId": 34,
						"contract": "Assignments/Assignment2/Library.sol:Library",
						"label": "books",
						"offset": 0,
						"slot": "0",
						"type": "t_array(t_struct(Book)21_storage)dyn_storage"
					},
					{
						"astId": 39,
						"contract": "Assignments/Assignment2/Library.sol:Library",
						"label": "bookIndexes",
						"offset": 0,
						"slot": "1",
						"type": "t_mapping(t_string_memory_ptr,t_struct(BookIndex)26_storage)"
					},
					{
						"astId": 44,
						"contract": "Assignments/Assignment2/Library.sol:Library",
						"label": "bookLibrarians",
						"offset": 0,
						"slot": "2",
						"type": "t_mapping(t_string_memory_ptr,t_array(t_address)dyn_storage)"
					}
				],
				"types": {
					"t_address": {
						"encoding": "inplace",
						"label": "address",
						"numberOfBytes": "20"
					},
					"t_array(t_address)dyn_storage": {
						"base": "t_address",
						"encoding": "dynamic_array",
						"label": "address[]",
						"numberOfBytes": "32"
					},
					"t_array(t_struct(Book)21_storage)dyn_storage": {
						"base": "t_struct(Book)21_storage",
						"encoding": "dynamic_array",
						"label": "struct Book[]",
						"numberOfBytes": "32"
					},
					"t_bool": {
						"encoding": "inplace",
						"label": "bool",
						"numberOfBytes": "1"
					},
					"t_enum(BookStatus)5": {
						"encoding": "inplace",
						"label": "enum BookStatus",
						"numberOfBytes": "1"
					},
					"t_mapping(t_string_memory_ptr,t_array(t_address)dyn_storage)": {
						"encoding": "mapping",
						"key": "t_string_memory_ptr",
						"label": "mapping(string => address[])",
						"numberOfBytes": "32",
						"value": "t_array(t_address)dyn_storage"
					},
					"t_mapping(t_string_memory_ptr,t_struct(BookIndex)26_storage)": {
						"encoding": "mapping",
						"key": "t_string_memory_ptr",
						"label": "mapping(string => struct BookIndex)",
						"numberOfBytes": "32",
						"value": "t_struct(BookIndex)26_storage"
					},
					"t_string_memory_ptr": {
						"encoding": "bytes",
						"label": "string",
						"numberOfBytes": "32"
					},
					"t_string_storage": {
						"encoding": "bytes",
						"label": "string",
						"numberOfBytes": "32"
					},
					"t_struct(Book)21_storage": {
						"encoding": "inplace",
						"label": "struct Book",
						"members": [
							{
								"astId": 7,
								"contract": "Assignments/Assignment2/Library.sol:Library",
								"label": "title",
								"offset": 0,
								"slot": "0",
								"type": "t_string_storage"
							},
							{
								"astId": 9,
								"contract": "Assignments/Assignment2/Library.sol:Library",
								"label": "author",
								"offset": 0,
								"slot": "1",
								"type": "t_string_storage"
							},
							{
								"astId": 11,
								"contract": "Assignments/Assignment2/Library.sol:Library",
								"label": "publicationDate",
								"offset": 0,
								"slot": "2",
								"type": "t_uint256"
							},
							{
								"astId": 13,
								"contract": "Assignments/Assignment2/Library.sol:Library",
								"label": "expirationDate",
								"offset": 0,
								"slot": "3",
								"type": "t_uint256"
							},
							{
								"astId": 16,
								"contract": "Assignments/Assignment2/Library.sol:Library",
								"label": "status",
								"offset": 0,
								"slot": "4",
								"type": "t_enum(BookStatus)5"
							},
							{
								"astId": 18,
								"contract": "Assignments/Assignment2/Library.sol:Library",
								"label": "primaryLibrarian",
								"offset": 1,
								"slot": "4",
								"type": "t_address"
							},
							{
								"astId": 20,
								"contract": "Assignments/Assignment2/Library.sol:Library",
								"label": "readCount",
								"offset": 0,
								"slot": "5",
								"type": "t_uint256"
							}
						],
						"numberOfBytes": "192"
					},
					"t_struct(BookIndex)26_storage": {
						"encoding": "inplace",
						"label": "struct BookIndex",
						"members": [
							{
								"astId": 23,
								"contract": "Assignments/Assignment2/Library.sol:Library",
								"label": "index",
								"offset": 0,
								"slot": "0",
								"type": "t_uint256"
							},
							{
								"astId": 25,
								"contract": "Assignments/Assignment2/Library.sol:Library",
								"label": "exists",
								"offset": 0,
								"slot": "1",
								"type": "t_bool"
							}
						],
						"numberOfBytes": "64"
					},
					"t_uint256": {
						"encoding": "inplace",
						"label": "uint256",
						"numberOfBytes": "32"
					}
				}
			},
			"userdoc": {
				"kind": "user",
				"methods": {},
				"version": 1
			}
		}
	}
}