{
	"Assignments/Assignment2/Library.sol": {
		"Library": {
			"abi": [
				{
					"inputs": [],
					"name": "BookNotFound",
					"type": "error"
				},
				{
					"inputs": [],
					"name": "UnauthorizedAccess",
					"type": "error"
				},
				{
					"inputs": [
						{
							"internalType": "string",
							"name": "title",
							"type": "string"
						},
						{
							"internalType": "string",
							"name": "author",
							"type": "string"
						},
						{
							"internalType": "address",
							"name": "librarianAddress",
							"type": "address"
						}
					],
					"name": "addAuthorizedLibrarianFor",
					"outputs": [],
					"stateMutability": "nonpayable",
					"type": "function"
				},
				{
					"inputs": [
						{
							"internalType": "string",
							"name": "lhs",
							"type": "string"
						},
						{
							"internalType": "string",
							"name": "rhs",
							"type": "string"
						}
					],
					"name": "append",
					"outputs": [
						{
							"internalType": "string",
							"name": "str",
							"type": "string"
						}
					],
					"stateMutability": "pure",
					"type": "function"
				},
				{
					"inputs": [
						{
							"internalType": "uint256",
							"name": "",
							"type": "uint256"
						}
					],
					"name": "books",
					"outputs": [
						{
							"internalType": "string",
							"name": "title",
							"type": "string"
						},
						{
							"internalType": "string",
							"name": "author",
							"type": "string"
						},
						{
							"internalType": "uint256",
							"name": "publicationDate",
							"type": "uint256"
						},
						{
							"internalType": "uint256",
							"name": "expirationDate",
							"type": "uint256"
						},
						{
							"internalType": "enum BookStatus",
							"name": "status",
							"type": "uint8"
						},
						{
							"internalType": "address",
							"name": "primaryLibrarian",
							"type": "address"
						},
						{
							"internalType": "uint256",
							"name": "readCount",
							"type": "uint256"
						}
					],
					"stateMutability": "view",
					"type": "function"
				},
				{
					"inputs": [
						{
							"internalType": "string",
							"name": "title",
							"type": "string"
						},
						{
							"internalType": "string",
							"name": "author",
							"type": "string"
						}
					],
					"name": "checkStatus",
					"outputs": [
						{
							"internalType": "bool",
							"name": "outdated",
							"type": "bool"
						}
					],
					"stateMutability": "nonpayable",
					"type": "function"
				},
				{
					"inputs": [
						{
							"internalType": "string",
							"name": "title",
							"type": "string"
						},
						{
							"internalType": "string",
							"name": "author",
							"type": "string"
						},
						{
							"internalType": "uint256",
							"name": "expiryDate",
							"type": "uint256"
						}
					],
					"name": "createBook",
					"outputs": [],
					"stateMutability": "nonpayable",
					"type": "function"
				},
				{
					"inputs": [
						{
							"internalType": "string",
							"name": "title",
							"type": "string"
						},
						{
							"internalType": "string",
							"name": "author",
							"type": "string"
						},
						{
							"internalType": "enum BookStatus",
							"name": "status",
							"type": "uint8"
						}
					],
					"name": "updateBookStatus",
					"outputs": [],
					"stateMutability": "nonpayable",
					"type": "function"
				},
				{
					"inputs": [
						{
							"internalType": "string",
							"name": "title",
							"type": "string"
						},
						{
							"internalType": "string",
							"name": "author",
							"type": "string"
						},
						{
							"internalType": "uint256",
							"name": "addedPeriod",
							"type": "uint256"
						}
					],
					"name": "updateExpirationDateFor",
					"outputs": [],
					"stateMutability": "nonpayable",
					"type": "function"
				}
			],
			"devdoc": {
				"kind": "dev",
				"methods": {},
				"version": 1
			},
			"evm": {
				"assembly": "    /* \"Assignments/Assignment2/Library.sol\":444:3480  contract Library is StringHelper {... */\n  mstore(0x40, 0x80)\n  callvalue\n  dup1\n  iszero\n  tag_1\n  jumpi\n  0x00\n  dup1\n  revert\ntag_1:\n  pop\n  dataSize(sub_0)\n  dup1\n  dataOffset(sub_0)\n  0x00\n  codecopy\n  0x00\n  return\nstop\n\nsub_0: assembly {\n        /* \"Assignments/Assignment2/Library.sol\":444:3480  contract Library is StringHelper {... */\n      mstore(0x40, 0x80)\n      callvalue\n      dup1\n      iszero\n      tag_1\n      jumpi\n      0x00\n      dup1\n      revert\n    tag_1:\n      pop\n      jumpi(tag_2, lt(calldatasize, 0x04))\n      shr(0xe0, calldataload(0x00))\n      dup1\n      0xc9e2c5e3\n      gt\n      tag_10\n      jumpi\n      dup1\n      0xc9e2c5e3\n      eq\n      tag_6\n      jumpi\n      dup1\n      0xce9d915a\n      eq\n      tag_7\n      jumpi\n      dup1\n      0xe9d51bae\n      eq\n      tag_8\n      jumpi\n      dup1\n      0xfebf21f5\n      eq\n      tag_9\n      jumpi\n      jump(tag_2)\n    tag_10:\n      dup1\n      0x591c515f\n      eq\n      tag_3\n      jumpi\n      dup1\n      0x63a88bcf\n      eq\n      tag_4\n      jumpi\n      dup1\n      0x68744046\n      eq\n      tag_5\n      jumpi\n    tag_2:\n      0x00\n      dup1\n      revert\n        /* \"Assignments/Assignment2/Stringify.sol\":231:388  function append(string calldata lhs, string calldata rhs) external pure returns(string memory str) {... */\n    tag_3:\n      tag_11\n      0x04\n      dup1\n      calldatasize\n      sub\n      dup2\n      add\n      swap1\n      tag_12\n      swap2\n      swap1\n      tag_13\n      jump\t// in\n    tag_12:\n      tag_14\n      jump\t// in\n    tag_11:\n      mload(0x40)\n      tag_15\n      swap2\n      swap1\n      tag_16\n      jump\t// in\n    tag_15:\n      mload(0x40)\n      dup1\n      swap2\n      sub\n      swap1\n      return\n        /* \"Assignments/Assignment2/Library.sol\":1375:1788  function checkStatus(string calldata title, string calldata author) public returns(bool outdated) {... */\n    tag_4:\n      tag_17\n      0x04\n      dup1\n      calldatasize\n      sub\n      dup2\n      add\n      swap1\n      tag_18\n      swap2\n      swap1\n      tag_13\n      jump\t// in\n    tag_18:\n      tag_19\n      jump\t// in\n    tag_17:\n      mload(0x40)\n      tag_20\n      swap2\n      swap1\n      tag_21\n      jump\t// in\n    tag_20:\n      mload(0x40)\n      dup1\n      swap2\n      sub\n      swap1\n      return\n        /* \"Assignments/Assignment2/Library.sol\":483:502  Book[] public books */\n    tag_5:\n      tag_22\n      0x04\n      dup1\n      calldatasize\n      sub\n      dup2\n      add\n      swap1\n      tag_23\n      swap2\n      swap1\n      tag_24\n      jump\t// in\n    tag_23:\n      tag_25\n      jump\t// in\n    tag_22:\n      mload(0x40)\n      tag_26\n      swap8\n      swap7\n      swap6\n      swap5\n      swap4\n      swap3\n      swap2\n      swap1\n      tag_27\n      jump\t// in\n    tag_26:\n      mload(0x40)\n      dup1\n      swap2\n      sub\n      swap1\n      return\n        /* \"Assignments/Assignment2/Library.sol\":2246:3029  function updateExpirationDateFor(string calldata title, string calldata author, uint256 addedPeriod) public {... */\n    tag_6:\n      tag_28\n      0x04\n      dup1\n      calldatasize\n      sub\n      dup2\n      add\n      swap1\n      tag_29\n      swap2\n      swap1\n      tag_30\n      jump\t// in\n    tag_29:\n      tag_31\n      jump\t// in\n    tag_28:\n      stop\n        /* \"Assignments/Assignment2/Library.sol\":820:1369  function createBook(string calldata title, string calldata author, uint256 expiryDate) public {... */\n    tag_7:\n      tag_32\n      0x04\n      dup1\n      calldatasize\n      sub\n      dup2\n      add\n      swap1\n      tag_33\n      swap2\n      swap1\n      tag_30\n      jump\t// in\n    tag_33:\n      tag_34\n      jump\t// in\n    tag_32:\n      stop\n        /* \"Assignments/Assignment2/Library.sol\":3035:3478  function updateBookStatus(string calldata title, string calldata author, BookStatus status) public {... */\n    tag_8:\n      tag_35\n      0x04\n      dup1\n      calldatasize\n      sub\n      dup2\n      add\n      swap1\n      tag_36\n      swap2\n      swap1\n      tag_37\n      jump\t// in\n    tag_36:\n      tag_38\n      jump\t// in\n    tag_35:\n      stop\n        /* \"Assignments/Assignment2/Library.sol\":1794:2240  function addAuthorizedLibrarianFor(string calldata title, string calldata author, address librarianAddress) public {... */\n    tag_9:\n      tag_39\n      0x04\n      dup1\n      calldatasize\n      sub\n      dup2\n      add\n      swap1\n      tag_40\n      swap2\n      swap1\n      tag_41\n      jump\t// in\n    tag_40:\n      tag_42\n      jump\t// in\n    tag_39:\n      stop\n        /* \"Assignments/Assignment2/Stringify.sol\":231:388  function append(string calldata lhs, string calldata rhs) external pure returns(string memory str) {... */\n    tag_14:\n        /* \"Assignments/Assignment2/Stringify.sol\":311:328  string memory str */\n      0x60\n        /* \"Assignments/Assignment2/Stringify.sol\":371:374  lhs */\n      dup5\n      dup5\n        /* \"Assignments/Assignment2/Stringify.sol\":376:379  rhs */\n      dup5\n      dup5\n        /* \"Assignments/Assignment2/Stringify.sol\":354:380  abi.encodePacked(lhs, rhs) */\n      add(0x20, mload(0x40))\n      tag_44\n      swap5\n      swap4\n      swap3\n      swap2\n      swap1\n      tag_45\n      jump\t// in\n    tag_44:\n      mload(0x40)\n      0x20\n      dup2\n      dup4\n      sub\n      sub\n      dup2\n      mstore\n      swap1\n      0x40\n      mstore\n        /* \"Assignments/Assignment2/Stringify.sol\":340:381  return string(abi.encodePacked(lhs, rhs)) */\n      swap1\n      pop\n        /* \"Assignments/Assignment2/Stringify.sol\":231:388  function append(string calldata lhs, string calldata rhs) external pure returns(string memory str) {... */\n      swap5\n      swap4\n      pop\n      pop\n      pop\n      pop\n      jump\t// out\n        /* \"Assignments/Assignment2/Library.sol\":1375:1788  function checkStatus(string calldata title, string calldata author) public returns(bool outdated) {... */\n    tag_19:\n        /* \"Assignments/Assignment2/Library.sol\":1458:1471  bool outdated */\n      0x00\n        /* \"Assignments/Assignment2/Library.sol\":1483:1499  string memory id */\n      dup1\n        /* \"Assignments/Assignment2/Library.sol\":1502:1523  _idFor(title, author) */\n      tag_47\n        /* \"Assignments/Assignment2/Library.sol\":1509:1514  title */\n      dup7\n      dup7\n        /* \"Assignments/Assignment2/Library.sol\":1516:1522  author */\n      dup7\n      dup7\n        /* \"Assignments/Assignment2/Library.sol\":1502:1508  _idFor */\n      tag_48\n        /* \"Assignments/Assignment2/Library.sol\":1502:1523  _idFor(title, author) */\n      jump\t// in\n    tag_47:\n        /* \"Assignments/Assignment2/Library.sol\":1483:1523  string memory id = _idFor(title, author) */\n      swap1\n      pop\n        /* \"Assignments/Assignment2/Library.sol\":1534:1560  BookIndex memory bookIndex */\n      0x00\n        /* \"Assignments/Assignment2/Library.sol\":1563:1574  bookIndexes */\n      0x01\n        /* \"Assignments/Assignment2/Library.sol\":1575:1577  id */\n      dup3\n        /* \"Assignments/Assignment2/Library.sol\":1563:1578  bookIndexes[id] */\n      mload(0x40)\n      tag_49\n      swap2\n      swap1\n      tag_50\n      jump\t// in\n    tag_49:\n      swap1\n      dup2\n      mstore\n      0x20\n      add\n      mload(0x40)\n      dup1\n      swap2\n      sub\n      swap1\n      keccak256\n        /* \"Assignments/Assignment2/Library.sol\":1534:1578  BookIndex memory bookIndex = bookIndexes[id] */\n      mload(0x40)\n      dup1\n      0x40\n      add\n      0x40\n      mstore\n      swap1\n      dup2\n      0x00\n      dup3\n      add\n      sload\n      dup2\n      mstore\n      0x20\n      add\n      0x01\n      dup3\n      add\n      0x00\n      swap1\n      sload\n      swap1\n      0x0100\n      exp\n      swap1\n      div\n      0xff\n      and\n      iszero\n      iszero\n      iszero\n      iszero\n      dup2\n      mstore\n      pop\n      pop\n      swap1\n      pop\n        /* \"Assignments/Assignment2/Library.sol\":1612:1617  false */\n      0x00\n        /* \"Assignments/Assignment2/Library.sol\":1592:1617  bookIndex.exists == false */\n      iszero\n      iszero\n        /* \"Assignments/Assignment2/Library.sol\":1592:1601  bookIndex */\n      dup2\n        /* \"Assignments/Assignment2/Library.sol\":1592:1608  bookIndex.exists */\n      0x20\n      add\n      mload\n        /* \"Assignments/Assignment2/Library.sol\":1592:1617  bookIndex.exists == false */\n      iszero\n      iszero\n      sub\n        /* \"Assignments/Assignment2/Library.sol\":1588:1645  if (bookIndex.exists == false) { revert BookNotFound(); } */\n      tag_51\n      jumpi\n        /* \"Assignments/Assignment2/Library.sol\":1628:1642  BookNotFound() */\n      mload(0x40)\n      0x76fc34c900000000000000000000000000000000000000000000000000000000\n      dup2\n      mstore\n      0x04\n      add\n      mload(0x40)\n      dup1\n      swap2\n      sub\n      swap1\n      revert\n        /* \"Assignments/Assignment2/Library.sol\":1588:1645  if (bookIndex.exists == false) { revert BookNotFound(); } */\n    tag_51:\n        /* \"Assignments/Assignment2/Library.sol\":1655:1672  Book storage book */\n      0x00\n        /* \"Assignments/Assignment2/Library.sol\":1675:1680  books */\n      dup1\n        /* \"Assignments/Assignment2/Library.sol\":1681:1690  bookIndex */\n      dup3\n        /* \"Assignments/Assignment2/Library.sol\":1681:1696  bookIndex.index */\n      0x00\n      add\n      mload\n        /* \"Assignments/Assignment2/Library.sol\":1675:1697  books[bookIndex.index] */\n      dup2\n      sload\n      dup2\n      lt\n      tag_52\n      jumpi\n      tag_53\n      tag_54\n      jump\t// in\n    tag_53:\n    tag_52:\n      swap1\n      0x00\n      mstore\n      keccak256(0x00, 0x20)\n      swap1\n      0x06\n      mul\n      add\n        /* \"Assignments/Assignment2/Library.sol\":1655:1697  Book storage book = books[bookIndex.index] */\n      swap1\n      pop\n        /* \"Assignments/Assignment2/Library.sol\":1726:1727  1 */\n      0x01\n        /* \"Assignments/Assignment2/Library.sol\":1708:1712  book */\n      dup2\n        /* \"Assignments/Assignment2/Library.sol\":1708:1722  book.readCount */\n      0x05\n      add\n      0x00\n        /* \"Assignments/Assignment2/Library.sol\":1708:1727  book.readCount += 1 */\n      dup3\n      dup3\n      sload\n      tag_56\n      swap2\n      swap1\n      tag_57\n      jump\t// in\n    tag_56:\n      swap3\n      pop\n      pop\n      dup2\n      swap1\n      sstore\n      pop\n        /* \"Assignments/Assignment2/Library.sol\":1762:1766  book */\n      dup1\n        /* \"Assignments/Assignment2/Library.sol\":1762:1781  book.expirationDate */\n      0x03\n      add\n      sload\n        /* \"Assignments/Assignment2/Library.sol\":1744:1759  block.timestamp */\n      timestamp\n        /* \"Assignments/Assignment2/Library.sol\":1744:1781  block.timestamp > book.expirationDate */\n      gt\n        /* \"Assignments/Assignment2/Library.sol\":1737:1781  return block.timestamp > book.expirationDate */\n      swap4\n      pop\n      pop\n      pop\n      pop\n        /* \"Assignments/Assignment2/Library.sol\":1375:1788  function checkStatus(string calldata title, string calldata author) public returns(bool outdated) {... */\n      swap5\n      swap4\n      pop\n      pop\n      pop\n      pop\n      jump\t// out\n        /* \"Assignments/Assignment2/Library.sol\":483:502  Book[] public books */\n    tag_25:\n      0x00\n      dup2\n      dup2\n      sload\n      dup2\n      lt\n      tag_58\n      jumpi\n      0x00\n      dup1\n      revert\n    tag_58:\n      swap1\n      0x00\n      mstore\n      keccak256(0x00, 0x20)\n      swap1\n      0x06\n      mul\n      add\n      0x00\n      swap2\n      pop\n      swap1\n      pop\n      dup1\n      0x00\n      add\n      dup1\n      sload\n      tag_60\n      swap1\n      tag_61\n      jump\t// in\n    tag_60:\n      dup1\n      0x1f\n      add\n      0x20\n      dup1\n      swap2\n      div\n      mul\n      0x20\n      add\n      mload(0x40)\n      swap1\n      dup2\n      add\n      0x40\n      mstore\n      dup1\n      swap3\n      swap2\n      swap1\n      dup2\n      dup2\n      mstore\n      0x20\n      add\n      dup3\n      dup1\n      sload\n      tag_62\n      swap1\n      tag_61\n      jump\t// in\n    tag_62:\n      dup1\n      iszero\n      tag_63\n      jumpi\n      dup1\n      0x1f\n      lt\n      tag_64\n      jumpi\n      0x0100\n      dup1\n      dup4\n      sload\n      div\n      mul\n      dup4\n      mstore\n      swap2\n      0x20\n      add\n      swap2\n      jump(tag_63)\n    tag_64:\n      dup3\n      add\n      swap2\n      swap1\n      0x00\n      mstore\n      keccak256(0x00, 0x20)\n      swap1\n    tag_65:\n      dup2\n      sload\n      dup2\n      mstore\n      swap1\n      0x01\n      add\n      swap1\n      0x20\n      add\n      dup1\n      dup4\n      gt\n      tag_65\n      jumpi\n      dup3\n      swap1\n      sub\n      0x1f\n      and\n      dup3\n      add\n      swap2\n    tag_63:\n      pop\n      pop\n      pop\n      pop\n      pop\n      swap1\n      dup1\n      0x01\n      add\n      dup1\n      sload\n      tag_66\n      swap1\n      tag_61\n      jump\t// in\n    tag_66:\n      dup1\n      0x1f\n      add\n      0x20\n      dup1\n      swap2\n      div\n      mul\n      0x20\n      add\n      mload(0x40)\n      swap1\n      dup2\n      add\n      0x40\n      mstore\n      dup1\n      swap3\n      swap2\n      swap1\n      dup2\n      dup2\n      mstore\n      0x20\n      add\n      dup3\n      dup1\n      sload\n      tag_67\n      swap1\n      tag_61\n      jump\t// in\n    tag_67:\n      dup1\n      iszero\n      tag_68\n      jumpi\n      dup1\n      0x1f\n      lt\n      tag_69\n      jumpi\n      0x0100\n      dup1\n      dup4\n      sload\n      div\n      mul\n      dup4\n      mstore\n      swap2\n      0x20\n      add\n      swap2\n      jump(tag_68)\n    tag_69:\n      dup3\n      add\n      swap2\n      swap1\n      0x00\n      mstore\n      keccak256(0x00, 0x20)\n      swap1\n    tag_70:\n      dup2\n      sload\n      dup2\n      mstore\n      swap1\n      0x01\n      add\n      swap1\n      0x20\n      add\n      dup1\n      dup4\n      gt\n      tag_70\n      jumpi\n      dup3\n      swap1\n      sub\n      0x1f\n      and\n      dup3\n      add\n      swap2\n    tag_68:\n      pop\n      pop\n      pop\n      pop\n      pop\n      swap1\n      dup1\n      0x02\n      add\n      sload\n      swap1\n      dup1\n      0x03\n      add\n      sload\n      swap1\n      dup1\n      0x04\n      add\n      0x00\n      swap1\n      sload\n      swap1\n      0x0100\n      exp\n      swap1\n      div\n      0xff\n      and\n      swap1\n      dup1\n      0x04\n      add\n      0x01\n      swap1\n      sload\n      swap1\n      0x0100\n      exp\n      swap1\n      div\n      0xffffffffffffffffffffffffffffffffffffffff\n      and\n      swap1\n      dup1\n      0x05\n      add\n      sload\n      swap1\n      pop\n      dup8\n      jump\t// out\n        /* \"Assignments/Assignment2/Library.sol\":2246:3029  function updateExpirationDateFor(string calldata title, string calldata author, uint256 addedPeriod) public {... */\n    tag_31:\n        /* \"Assignments/Assignment2/Library.sol\":2364:2380  string memory id */\n      0x00\n        /* \"Assignments/Assignment2/Library.sol\":2383:2404  _idFor(title, author) */\n      tag_72\n        /* \"Assignments/Assignment2/Library.sol\":2390:2395  title */\n      dup7\n      dup7\n        /* \"Assignments/Assignment2/Library.sol\":2397:2403  author */\n      dup7\n      dup7\n        /* \"Assignments/Assignment2/Library.sol\":2383:2389  _idFor */\n      tag_48\n        /* \"Assignments/Assignment2/Library.sol\":2383:2404  _idFor(title, author) */\n      jump\t// in\n    tag_72:\n        /* \"Assignments/Assignment2/Library.sol\":2364:2404  string memory id = _idFor(title, author) */\n      swap1\n      pop\n        /* \"Assignments/Assignment2/Library.sol\":2415:2441  BookIndex memory bookIndex */\n      0x00\n        /* \"Assignments/Assignment2/Library.sol\":2444:2455  bookIndexes */\n      0x01\n        /* \"Assignments/Assignment2/Library.sol\":2456:2458  id */\n      dup3\n        /* \"Assignments/Assignment2/Library.sol\":2444:2459  bookIndexes[id] */\n      mload(0x40)\n      tag_73\n      swap2\n      swap1\n      tag_50\n      jump\t// in\n    tag_73:\n      swap1\n      dup2\n      mstore\n      0x20\n      add\n      mload(0x40)\n      dup1\n      swap2\n      sub\n      swap1\n      keccak256\n        /* \"Assignments/Assignment2/Library.sol\":2415:2459  BookIndex memory bookIndex = bookIndexes[id] */\n      mload(0x40)\n      dup1\n      0x40\n      add\n      0x40\n      mstore\n      swap1\n      dup2\n      0x00\n      dup3\n      add\n      sload\n      dup2\n      mstore\n      0x20\n      add\n      0x01\n      dup3\n      add\n      0x00\n      swap1\n      sload\n      swap1\n      0x0100\n      exp\n      swap1\n      div\n      0xff\n      and\n      iszero\n      iszero\n      iszero\n      iszero\n      dup2\n      mstore\n      pop\n      pop\n      swap1\n      pop\n        /* \"Assignments/Assignment2/Library.sol\":2493:2498  false */\n      0x00\n        /* \"Assignments/Assignment2/Library.sol\":2473:2498  bookIndex.exists == false */\n      iszero\n      iszero\n        /* \"Assignments/Assignment2/Library.sol\":2473:2482  bookIndex */\n      dup2\n        /* \"Assignments/Assignment2/Library.sol\":2473:2489  bookIndex.exists */\n      0x20\n      add\n      mload\n        /* \"Assignments/Assignment2/Library.sol\":2473:2498  bookIndex.exists == false */\n      iszero\n      iszero\n      sub\n        /* \"Assignments/Assignment2/Library.sol\":2469:2526  if (bookIndex.exists == false) { revert BookNotFound(); } */\n      tag_74\n      jumpi\n        /* \"Assignments/Assignment2/Library.sol\":2509:2523  BookNotFound() */\n      mload(0x40)\n      0x76fc34c900000000000000000000000000000000000000000000000000000000\n      dup2\n      mstore\n      0x04\n      add\n      mload(0x40)\n      dup1\n      swap2\n      sub\n      swap1\n      revert\n        /* \"Assignments/Assignment2/Library.sol\":2469:2526  if (bookIndex.exists == false) { revert BookNotFound(); } */\n    tag_74:\n        /* \"Assignments/Assignment2/Library.sol\":2536:2553  Book storage book */\n      0x00\n        /* \"Assignments/Assignment2/Library.sol\":2556:2561  books */\n      dup1\n        /* \"Assignments/Assignment2/Library.sol\":2562:2571  bookIndex */\n      dup3\n        /* \"Assignments/Assignment2/Library.sol\":2562:2577  bookIndex.index */\n      0x00\n      add\n      mload\n        /* \"Assignments/Assignment2/Library.sol\":2556:2578  books[bookIndex.index] */\n      dup2\n      sload\n      dup2\n      lt\n      tag_75\n      jumpi\n      tag_76\n      tag_54\n      jump\t// in\n    tag_76:\n    tag_75:\n      swap1\n      0x00\n      mstore\n      keccak256(0x00, 0x20)\n      swap1\n      0x06\n      mul\n      add\n        /* \"Assignments/Assignment2/Library.sol\":2536:2578  Book storage book = books[bookIndex.index] */\n      swap1\n      pop\n        /* \"Assignments/Assignment2/Library.sol\":2607:2611  book */\n      dup1\n        /* \"Assignments/Assignment2/Library.sol\":2607:2628  book.primaryLibrarian */\n      0x04\n      add\n      0x01\n      swap1\n      sload\n      swap1\n      0x0100\n      exp\n      swap1\n      div\n      0xffffffffffffffffffffffffffffffffffffffff\n      and\n        /* \"Assignments/Assignment2/Library.sol\":2593:2628  msg.sender == book.primaryLibrarian */\n      0xffffffffffffffffffffffffffffffffffffffff\n      and\n        /* \"Assignments/Assignment2/Library.sol\":2593:2603  msg.sender */\n      caller\n        /* \"Assignments/Assignment2/Library.sol\":2593:2628  msg.sender == book.primaryLibrarian */\n      0xffffffffffffffffffffffffffffffffffffffff\n      and\n      sub\n        /* \"Assignments/Assignment2/Library.sol\":2589:2718  if (msg.sender == book.primaryLibrarian) {... */\n      tag_78\n      jumpi\n        /* \"Assignments/Assignment2/Library.sol\":2681:2687  1 days */\n      0x015180\n        /* \"Assignments/Assignment2/Library.sol\":2667:2678  addedPeriod */\n      dup5\n        /* \"Assignments/Assignment2/Library.sol\":2667:2687  addedPeriod * 1 days */\n      tag_79\n      swap2\n      swap1\n      tag_80\n      jump\t// in\n    tag_79:\n        /* \"Assignments/Assignment2/Library.sol\":2644:2648  book */\n      dup2\n        /* \"Assignments/Assignment2/Library.sol\":2644:2663  book.expirationDate */\n      0x03\n      add\n      0x00\n        /* \"Assignments/Assignment2/Library.sol\":2644:2687  book.expirationDate += addedPeriod * 1 days */\n      dup3\n      dup3\n      sload\n      tag_81\n      swap2\n      swap1\n      tag_57\n      jump\t// in\n    tag_81:\n      swap3\n      pop\n      pop\n      dup2\n      swap1\n      sstore\n      pop\n        /* \"Assignments/Assignment2/Library.sol\":2701:2708  return; */\n      pop\n      pop\n      pop\n      jump(tag_71)\n        /* \"Assignments/Assignment2/Library.sol\":2589:2718  if (msg.sender == book.primaryLibrarian) {... */\n    tag_78:\n        /* \"Assignments/Assignment2/Library.sol\":2728:2765  address[] memory authorizedLibrarians */\n      0x00\n        /* \"Assignments/Assignment2/Library.sol\":2768:2782  bookLibrarians */\n      0x02\n        /* \"Assignments/Assignment2/Library.sol\":2783:2785  id */\n      dup5\n        /* \"Assignments/Assignment2/Library.sol\":2768:2786  bookLibrarians[id] */\n      mload(0x40)\n      tag_82\n      swap2\n      swap1\n      tag_50\n      jump\t// in\n    tag_82:\n      swap1\n      dup2\n      mstore\n      0x20\n      add\n      mload(0x40)\n      dup1\n      swap2\n      sub\n      swap1\n      keccak256\n        /* \"Assignments/Assignment2/Library.sol\":2728:2786  address[] memory authorizedLibrarians = bookLibrarians[id] */\n      dup1\n      sload\n      dup1\n      0x20\n      mul\n      0x20\n      add\n      mload(0x40)\n      swap1\n      dup2\n      add\n      0x40\n      mstore\n      dup1\n      swap3\n      swap2\n      swap1\n      dup2\n      dup2\n      mstore\n      0x20\n      add\n      dup3\n      dup1\n      sload\n      dup1\n      iszero\n      tag_83\n      jumpi\n      0x20\n      mul\n      dup3\n      add\n      swap2\n      swap1\n      0x00\n      mstore\n      keccak256(0x00, 0x20)\n      swap1\n    tag_84:\n      dup2\n      0x00\n      swap1\n      sload\n      swap1\n      0x0100\n      exp\n      swap1\n      div\n      0xffffffffffffffffffffffffffffffffffffffff\n      and\n      0xffffffffffffffffffffffffffffffffffffffff\n      and\n      dup2\n      mstore\n      0x20\n      add\n      swap1\n      0x01\n      add\n      swap1\n      dup1\n      dup4\n      gt\n      tag_84\n      jumpi\n    tag_83:\n      pop\n      pop\n      pop\n      pop\n      pop\n      swap1\n      pop\n        /* \"Assignments/Assignment2/Library.sol\":2802:2811  uint256 i */\n      0x00\n        /* \"Assignments/Assignment2/Library.sol\":2797:3023  for (uint256 i = 0; i < authorizedLibrarians.length; i++)  {... */\n    tag_85:\n        /* \"Assignments/Assignment2/Library.sol\":2821:2841  authorizedLibrarians */\n      dup2\n        /* \"Assignments/Assignment2/Library.sol\":2821:2848  authorizedLibrarians.length */\n      mload\n        /* \"Assignments/Assignment2/Library.sol\":2817:2818  i */\n      dup2\n        /* \"Assignments/Assignment2/Library.sol\":2817:2848  i < authorizedLibrarians.length */\n      lt\n        /* \"Assignments/Assignment2/Library.sol\":2797:3023  for (uint256 i = 0; i < authorizedLibrarians.length; i++)  {... */\n      iszero\n      tag_86\n      jumpi\n        /* \"Assignments/Assignment2/Library.sol\":2888:2908  authorizedLibrarians */\n      dup2\n        /* \"Assignments/Assignment2/Library.sol\":2909:2910  i */\n      dup2\n        /* \"Assignments/Assignment2/Library.sol\":2888:2911  authorizedLibrarians[i] */\n      dup2\n      mload\n      dup2\n      lt\n      tag_88\n      jumpi\n      tag_89\n      tag_54\n      jump\t// in\n    tag_89:\n    tag_88:\n      0x20\n      mul\n      0x20\n      add\n      add\n      mload\n        /* \"Assignments/Assignment2/Library.sol\":2874:2911  msg.sender == authorizedLibrarians[i] */\n      0xffffffffffffffffffffffffffffffffffffffff\n      and\n        /* \"Assignments/Assignment2/Library.sol\":2874:2884  msg.sender */\n      caller\n        /* \"Assignments/Assignment2/Library.sol\":2874:2911  msg.sender == authorizedLibrarians[i] */\n      0xffffffffffffffffffffffffffffffffffffffff\n      and\n      sub\n        /* \"Assignments/Assignment2/Library.sol\":2870:3013  if (msg.sender == authorizedLibrarians[i]) { ... */\n      tag_90\n      jumpi\n        /* \"Assignments/Assignment2/Library.sol\":2969:2975  1 days */\n      0x015180\n        /* \"Assignments/Assignment2/Library.sol\":2955:2966  addedPeriod */\n      dup7\n        /* \"Assignments/Assignment2/Library.sol\":2955:2975  addedPeriod * 1 days */\n      tag_91\n      swap2\n      swap1\n      tag_80\n      jump\t// in\n    tag_91:\n        /* \"Assignments/Assignment2/Library.sol\":2932:2936  book */\n      dup4\n        /* \"Assignments/Assignment2/Library.sol\":2932:2951  book.expirationDate */\n      0x03\n      add\n      0x00\n        /* \"Assignments/Assignment2/Library.sol\":2932:2975  book.expirationDate += addedPeriod * 1 days */\n      dup3\n      dup3\n      sload\n      tag_92\n      swap2\n      swap1\n      tag_57\n      jump\t// in\n    tag_92:\n      swap3\n      pop\n      pop\n      dup2\n      swap1\n      sstore\n      pop\n        /* \"Assignments/Assignment2/Library.sol\":2993:2998  break */\n      jump(tag_86)\n        /* \"Assignments/Assignment2/Library.sol\":2870:3013  if (msg.sender == authorizedLibrarians[i]) { ... */\n    tag_90:\n        /* \"Assignments/Assignment2/Library.sol\":2850:2853  i++ */\n      dup1\n      dup1\n      0x01\n      add\n      swap2\n      pop\n      pop\n        /* \"Assignments/Assignment2/Library.sol\":2797:3023  for (uint256 i = 0; i < authorizedLibrarians.length; i++)  {... */\n      jump(tag_85)\n    tag_86:\n      pop\n        /* \"Assignments/Assignment2/Library.sol\":2354:3029  {... */\n      pop\n      pop\n      pop\n      pop\n        /* \"Assignments/Assignment2/Library.sol\":2246:3029  function updateExpirationDateFor(string calldata title, string calldata author, uint256 addedPeriod) public {... */\n    tag_71:\n      pop\n      pop\n      pop\n      pop\n      pop\n      jump\t// out\n        /* \"Assignments/Assignment2/Library.sol\":820:1369  function createBook(string calldata title, string calldata author, uint256 expiryDate) public {... */\n    tag_34:\n        /* \"Assignments/Assignment2/Library.sol\":924:943  Book memory newBook */\n      tag_94\n      tag_95\n      jump\t// in\n    tag_94:\n        /* \"Assignments/Assignment2/Library.sol\":970:975  title */\n      dup6\n      dup6\n        /* \"Assignments/Assignment2/Library.sol\":954:975  newBook.title = title */\n      dup1\n      dup1\n      0x1f\n      add\n      0x20\n      dup1\n      swap2\n      div\n      mul\n      0x20\n      add\n      mload(0x40)\n      swap1\n      dup2\n      add\n      0x40\n      mstore\n      dup1\n      swap4\n      swap3\n      swap2\n      swap1\n      dup2\n      dup2\n      mstore\n      0x20\n      add\n      dup4\n      dup4\n      dup1\n      dup3\n      dup5\n      calldatacopy\n      0x00\n      dup2\n      dup5\n      add\n      mstore\n      not(0x1f)\n      0x1f\n      dup3\n      add\n      and\n      swap1\n      pop\n      dup1\n      dup4\n      add\n      swap3\n      pop\n      pop\n      pop\n      pop\n      pop\n      pop\n      pop\n        /* \"Assignments/Assignment2/Library.sol\":954:961  newBook */\n      dup2\n        /* \"Assignments/Assignment2/Library.sol\":954:967  newBook.title */\n      0x00\n      add\n        /* \"Assignments/Assignment2/Library.sol\":954:975  newBook.title = title */\n      dup2\n      swap1\n      mstore\n      pop\n        /* \"Assignments/Assignment2/Library.sol\":1002:1008  author */\n      dup4\n      dup4\n        /* \"Assignments/Assignment2/Library.sol\":985:1008  newBook.author = author */\n      dup1\n      dup1\n      0x1f\n      add\n      0x20\n      dup1\n      swap2\n      div\n      mul\n      0x20\n      add\n      mload(0x40)\n      swap1\n      dup2\n      add\n      0x40\n      mstore\n      dup1\n      swap4\n      swap3\n      swap2\n      swap1\n      dup2\n      dup2\n      mstore\n      0x20\n      add\n      dup4\n      dup4\n      dup1\n      dup3\n      dup5\n      calldatacopy\n      0x00\n      dup2\n      dup5\n      add\n      mstore\n      not(0x1f)\n      0x1f\n      dup3\n      add\n      and\n      swap1\n      pop\n      dup1\n      dup4\n      add\n      swap3\n      pop\n      pop\n      pop\n      pop\n      pop\n      pop\n      pop\n        /* \"Assignments/Assignment2/Library.sol\":985:992  newBook */\n      dup2\n        /* \"Assignments/Assignment2/Library.sol\":985:999  newBook.author */\n      0x20\n      add\n        /* \"Assignments/Assignment2/Library.sol\":985:1008  newBook.author = author */\n      dup2\n      swap1\n      mstore\n      pop\n        /* \"Assignments/Assignment2/Library.sol\":1074:1083  1 seconds */\n      0x01\n        /* \"Assignments/Assignment2/Library.sol\":1061:1071  expiryDate */\n      dup3\n        /* \"Assignments/Assignment2/Library.sol\":1061:1083  expiryDate * 1 seconds */\n      tag_96\n      swap2\n      swap1\n      tag_80\n      jump\t// in\n    tag_96:\n        /* \"Assignments/Assignment2/Library.sol\":1043:1058  block.timestamp */\n      timestamp\n        /* \"Assignments/Assignment2/Library.sol\":1043:1083  block.timestamp + expiryDate * 1 seconds */\n      tag_97\n      swap2\n      swap1\n      tag_57\n      jump\t// in\n    tag_97:\n        /* \"Assignments/Assignment2/Library.sol\":1018:1025  newBook */\n      dup2\n        /* \"Assignments/Assignment2/Library.sol\":1018:1040  newBook.expirationDate */\n      0x60\n      add\n        /* \"Assignments/Assignment2/Library.sol\":1018:1083  newBook.expirationDate = block.timestamp + expiryDate * 1 seconds */\n      dup2\n      dup2\n      mstore\n      pop\n      pop\n        /* \"Assignments/Assignment2/Library.sol\":1120:1130  msg.sender */\n      caller\n        /* \"Assignments/Assignment2/Library.sol\":1093:1100  newBook */\n      dup2\n        /* \"Assignments/Assignment2/Library.sol\":1093:1117  newBook.primaryLibrarian */\n      0xa0\n      add\n        /* \"Assignments/Assignment2/Library.sol\":1093:1130  newBook.primaryLibrarian = msg.sender */\n      swap1\n      0xffffffffffffffffffffffffffffffffffffffff\n      and\n      swap1\n      dup2\n      0xffffffffffffffffffffffffffffffffffffffff\n      and\n      dup2\n      mstore\n      pop\n      pop\n        /* \"Assignments/Assignment2/Library.sol\":1141:1146  books */\n      0x00\n        /* \"Assignments/Assignment2/Library.sol\":1152:1159  newBook */\n      dup2\n        /* \"Assignments/Assignment2/Library.sol\":1141:1160  books.push(newBook) */\n      swap1\n      dup1\n      0x01\n      dup2\n      sload\n      add\n      dup1\n      dup3\n      sstore\n      dup1\n      swap2\n      pop\n      pop\n      0x01\n      swap1\n      sub\n      swap1\n      0x00\n      mstore\n      keccak256(0x00, 0x20)\n      swap1\n      0x06\n      mul\n      add\n      0x00\n      swap1\n      swap2\n      swap1\n      swap2\n      swap1\n      swap2\n      pop\n      0x00\n      dup3\n      add\n      mload\n      dup2\n      0x00\n      add\n      swap1\n      dup2\n      tag_99\n      swap2\n      swap1\n      tag_100\n      jump\t// in\n    tag_99:\n      pop\n      0x20\n      dup3\n      add\n      mload\n      dup2\n      0x01\n      add\n      swap1\n      dup2\n      tag_101\n      swap2\n      swap1\n      tag_100\n      jump\t// in\n    tag_101:\n      pop\n      0x40\n      dup3\n      add\n      mload\n      dup2\n      0x02\n      add\n      sstore\n      0x60\n      dup3\n      add\n      mload\n      dup2\n      0x03\n      add\n      sstore\n      0x80\n      dup3\n      add\n      mload\n      dup2\n      0x04\n      add\n      exp(0x0100, 0x00)\n      dup2\n      sload\n      dup2\n      0xff\n      mul\n      not\n      and\n      swap1\n      dup4\n      0x02\n      dup2\n      gt\n      iszero\n      tag_102\n      jumpi\n      tag_103\n      tag_104\n      jump\t// in\n    tag_103:\n    tag_102:\n      mul\n      or\n      swap1\n      sstore\n      pop\n      0xa0\n      dup3\n      add\n      mload\n      dup2\n      0x04\n      add\n      exp(0x0100, 0x01)\n      dup2\n      sload\n      dup2\n      0xffffffffffffffffffffffffffffffffffffffff\n      mul\n      not\n      and\n      swap1\n      dup4\n      0xffffffffffffffffffffffffffffffffffffffff\n      and\n      mul\n      or\n      swap1\n      sstore\n      pop\n      0xc0\n      dup3\n      add\n      mload\n      dup2\n      0x05\n      add\n      sstore\n      pop\n      pop\n        /* \"Assignments/Assignment2/Library.sol\":1171:1187  string memory id */\n      0x00\n        /* \"Assignments/Assignment2/Library.sol\":1190:1211  _idFor(title, author) */\n      tag_105\n        /* \"Assignments/Assignment2/Library.sol\":1197:1202  title */\n      dup8\n      dup8\n        /* \"Assignments/Assignment2/Library.sol\":1204:1210  author */\n      dup8\n      dup8\n        /* \"Assignments/Assignment2/Library.sol\":1190:1196  _idFor */\n      tag_48\n        /* \"Assignments/Assignment2/Library.sol\":1190:1211  _idFor(title, author) */\n      jump\t// in\n    tag_105:\n        /* \"Assignments/Assignment2/Library.sol\":1171:1211  string memory id = _idFor(title, author) */\n      swap1\n      pop\n        /* \"Assignments/Assignment2/Library.sol\":1221:1247  BookIndex memory bookIndex */\n      tag_106\n      tag_107\n      jump\t// in\n    tag_106:\n        /* \"Assignments/Assignment2/Library.sol\":1290:1291  1 */\n      0x01\n        /* \"Assignments/Assignment2/Library.sol\":1275:1280  books */\n      0x00\n        /* \"Assignments/Assignment2/Library.sol\":1275:1287  books.length */\n      dup1\n      sload\n      swap1\n      pop\n        /* \"Assignments/Assignment2/Library.sol\":1275:1291  books.length - 1 */\n      tag_108\n      swap2\n      swap1\n      tag_109\n      jump\t// in\n    tag_108:\n        /* \"Assignments/Assignment2/Library.sol\":1257:1266  bookIndex */\n      dup2\n        /* \"Assignments/Assignment2/Library.sol\":1257:1272  bookIndex.index */\n      0x00\n      add\n        /* \"Assignments/Assignment2/Library.sol\":1257:1291  bookIndex.index = books.length - 1 */\n      dup2\n      dup2\n      mstore\n      pop\n      pop\n        /* \"Assignments/Assignment2/Library.sol\":1320:1324  true */\n      0x01\n        /* \"Assignments/Assignment2/Library.sol\":1301:1310  bookIndex */\n      dup2\n        /* \"Assignments/Assignment2/Library.sol\":1301:1317  bookIndex.exists */\n      0x20\n      add\n        /* \"Assignments/Assignment2/Library.sol\":1301:1324  bookIndex.exists = true */\n      swap1\n      iszero\n      iszero\n      swap1\n      dup2\n      iszero\n      iszero\n      dup2\n      mstore\n      pop\n      pop\n        /* \"Assignments/Assignment2/Library.sol\":1353:1362  bookIndex */\n      dup1\n        /* \"Assignments/Assignment2/Library.sol\":1335:1346  bookIndexes */\n      0x01\n        /* \"Assignments/Assignment2/Library.sol\":1347:1349  id */\n      dup4\n        /* \"Assignments/Assignment2/Library.sol\":1335:1350  bookIndexes[id] */\n      mload(0x40)\n      tag_110\n      swap2\n      swap1\n      tag_50\n      jump\t// in\n    tag_110:\n      swap1\n      dup2\n      mstore\n      0x20\n      add\n      mload(0x40)\n      dup1\n      swap2\n      sub\n      swap1\n      keccak256\n        /* \"Assignments/Assignment2/Library.sol\":1335:1362  bookIndexes[id] = bookIndex */\n      0x00\n      dup3\n      add\n      mload\n      dup2\n      0x00\n      add\n      sstore\n      0x20\n      dup3\n      add\n      mload\n      dup2\n      0x01\n      add\n      exp(0x0100, 0x00)\n      dup2\n      sload\n      dup2\n      0xff\n      mul\n      not\n      and\n      swap1\n      dup4\n      iszero\n      iszero\n      mul\n      or\n      swap1\n      sstore\n      pop\n      swap1\n      pop\n      pop\n        /* \"Assignments/Assignment2/Library.sol\":914:1369  {... */\n      pop\n      pop\n      pop\n        /* \"Assignments/Assignment2/Library.sol\":820:1369  function createBook(string calldata title, string calldata author, uint256 expiryDate) public {... */\n      pop\n      pop\n      pop\n      pop\n      pop\n      jump\t// out\n        /* \"Assignments/Assignment2/Library.sol\":3035:3478  function updateBookStatus(string calldata title, string calldata author, BookStatus status) public {... */\n    tag_38:\n        /* \"Assignments/Assignment2/Library.sol\":3144:3160  string memory id */\n      0x00\n        /* \"Assignments/Assignment2/Library.sol\":3163:3184  _idFor(title, author) */\n      tag_112\n        /* \"Assignments/Assignment2/Library.sol\":3170:3175  title */\n      dup7\n      dup7\n        /* \"Assignments/Assignment2/Library.sol\":3177:3183  author */\n      dup7\n      dup7\n        /* \"Assignments/Assignment2/Library.sol\":3163:3169  _idFor */\n      tag_48\n        /* \"Assignments/Assignment2/Library.sol\":3163:3184  _idFor(title, author) */\n      jump\t// in\n    tag_112:\n        /* \"Assignments/Assignment2/Library.sol\":3144:3184  string memory id = _idFor(title, author) */\n      swap1\n      pop\n        /* \"Assignments/Assignment2/Library.sol\":3195:3221  BookIndex memory bookIndex */\n      0x00\n        /* \"Assignments/Assignment2/Library.sol\":3224:3235  bookIndexes */\n      0x01\n        /* \"Assignments/Assignment2/Library.sol\":3236:3238  id */\n      dup3\n        /* \"Assignments/Assignment2/Library.sol\":3224:3239  bookIndexes[id] */\n      mload(0x40)\n      tag_113\n      swap2\n      swap1\n      tag_50\n      jump\t// in\n    tag_113:\n      swap1\n      dup2\n      mstore\n      0x20\n      add\n      mload(0x40)\n      dup1\n      swap2\n      sub\n      swap1\n      keccak256\n        /* \"Assignments/Assignment2/Library.sol\":3195:3239  BookIndex memory bookIndex = bookIndexes[id] */\n      mload(0x40)\n      dup1\n      0x40\n      add\n      0x40\n      mstore\n      swap1\n      dup2\n      0x00\n      dup3\n      add\n      sload\n      dup2\n      mstore\n      0x20\n      add\n      0x01\n      dup3\n      add\n      0x00\n      swap1\n      sload\n      swap1\n      0x0100\n      exp\n      swap1\n      div\n      0xff\n      and\n      iszero\n      iszero\n      iszero\n      iszero\n      dup2\n      mstore\n      pop\n      pop\n      swap1\n      pop\n        /* \"Assignments/Assignment2/Library.sol\":3273:3278  false */\n      0x00\n        /* \"Assignments/Assignment2/Library.sol\":3253:3278  bookIndex.exists == false */\n      iszero\n      iszero\n        /* \"Assignments/Assignment2/Library.sol\":3253:3262  bookIndex */\n      dup2\n        /* \"Assignments/Assignment2/Library.sol\":3253:3269  bookIndex.exists */\n      0x20\n      add\n      mload\n        /* \"Assignments/Assignment2/Library.sol\":3253:3278  bookIndex.exists == false */\n      iszero\n      iszero\n      sub\n        /* \"Assignments/Assignment2/Library.sol\":3249:3306  if (bookIndex.exists == false) { revert BookNotFound(); } */\n      tag_114\n      jumpi\n        /* \"Assignments/Assignment2/Library.sol\":3289:3303  BookNotFound() */\n      mload(0x40)\n      0x76fc34c900000000000000000000000000000000000000000000000000000000\n      dup2\n      mstore\n      0x04\n      add\n      mload(0x40)\n      dup1\n      swap2\n      sub\n      swap1\n      revert\n        /* \"Assignments/Assignment2/Library.sol\":3249:3306  if (bookIndex.exists == false) { revert BookNotFound(); } */\n    tag_114:\n        /* \"Assignments/Assignment2/Library.sol\":3316:3333  Book storage book */\n      0x00\n        /* \"Assignments/Assignment2/Library.sol\":3336:3341  books */\n      dup1\n        /* \"Assignments/Assignment2/Library.sol\":3342:3351  bookIndex */\n      dup3\n        /* \"Assignments/Assignment2/Library.sol\":3342:3357  bookIndex.index */\n      0x00\n      add\n      mload\n        /* \"Assignments/Assignment2/Library.sol\":3336:3358  books[bookIndex.index] */\n      dup2\n      sload\n      dup2\n      lt\n      tag_115\n      jumpi\n      tag_116\n      tag_54\n      jump\t// in\n    tag_116:\n    tag_115:\n      swap1\n      0x00\n      mstore\n      keccak256(0x00, 0x20)\n      swap1\n      0x06\n      mul\n      add\n        /* \"Assignments/Assignment2/Library.sol\":3316:3358  Book storage book = books[bookIndex.index] */\n      swap1\n      pop\n        /* \"Assignments/Assignment2/Library.sol\":3387:3391  book */\n      dup1\n        /* \"Assignments/Assignment2/Library.sol\":3387:3408  book.primaryLibrarian */\n      0x04\n      add\n      0x01\n      swap1\n      sload\n      swap1\n      0x0100\n      exp\n      swap1\n      div\n      0xffffffffffffffffffffffffffffffffffffffff\n      and\n        /* \"Assignments/Assignment2/Library.sol\":3373:3408  msg.sender != book.primaryLibrarian */\n      0xffffffffffffffffffffffffffffffffffffffff\n      and\n        /* \"Assignments/Assignment2/Library.sol\":3373:3383  msg.sender */\n      caller\n        /* \"Assignments/Assignment2/Library.sol\":3373:3408  msg.sender != book.primaryLibrarian */\n      0xffffffffffffffffffffffffffffffffffffffff\n      and\n      eq\n        /* \"Assignments/Assignment2/Library.sol\":3369:3442  if (msg.sender != book.primaryLibrarian) { revert UnauthorizedAccess(); } */\n      tag_118\n      jumpi\n        /* \"Assignments/Assignment2/Library.sol\":3419:3439  UnauthorizedAccess() */\n      mload(0x40)\n      0x344fd58600000000000000000000000000000000000000000000000000000000\n      dup2\n      mstore\n      0x04\n      add\n      mload(0x40)\n      dup1\n      swap2\n      sub\n      swap1\n      revert\n        /* \"Assignments/Assignment2/Library.sol\":3369:3442  if (msg.sender != book.primaryLibrarian) { revert UnauthorizedAccess(); } */\n    tag_118:\n        /* \"Assignments/Assignment2/Library.sol\":3465:3471  status */\n      dup4\n        /* \"Assignments/Assignment2/Library.sol\":3451:3455  book */\n      dup2\n        /* \"Assignments/Assignment2/Library.sol\":3451:3462  book.status */\n      0x04\n      add\n      0x00\n        /* \"Assignments/Assignment2/Library.sol\":3451:3471  book.status = status */\n      0x0100\n      exp\n      dup2\n      sload\n      dup2\n      0xff\n      mul\n      not\n      and\n      swap1\n      dup4\n      0x02\n      dup2\n      gt\n      iszero\n      tag_119\n      jumpi\n      tag_120\n      tag_104\n      jump\t// in\n    tag_120:\n    tag_119:\n      mul\n      or\n      swap1\n      sstore\n      pop\n        /* \"Assignments/Assignment2/Library.sol\":3134:3478  {... */\n      pop\n      pop\n      pop\n        /* \"Assignments/Assignment2/Library.sol\":3035:3478  function updateBookStatus(string calldata title, string calldata author, BookStatus status) public {... */\n      pop\n      pop\n      pop\n      pop\n      pop\n      jump\t// out\n        /* \"Assignments/Assignment2/Library.sol\":1794:2240  function addAuthorizedLibrarianFor(string calldata title, string calldata author, address librarianAddress) public {... */\n    tag_42:\n        /* \"Assignments/Assignment2/Library.sol\":1919:1935  string memory id */\n      0x00\n        /* \"Assignments/Assignment2/Library.sol\":1938:1959  _idFor(title, author) */\n      tag_122\n        /* \"Assignments/Assignment2/Library.sol\":1945:1950  title */\n      dup7\n      dup7\n        /* \"Assignments/Assignment2/Library.sol\":1952:1958  author */\n      dup7\n      dup7\n        /* \"Assignments/Assignment2/Library.sol\":1938:1944  _idFor */\n      tag_48\n        /* \"Assignments/Assignment2/Library.sol\":1938:1959  _idFor(title, author) */\n      jump\t// in\n    tag_122:\n        /* \"Assignments/Assignment2/Library.sol\":1919:1959  string memory id = _idFor(title, author) */\n      swap1\n      pop\n        /* \"Assignments/Assignment2/Library.sol\":1970:1996  BookIndex memory bookIndex */\n      0x00\n        /* \"Assignments/Assignment2/Library.sol\":1999:2010  bookIndexes */\n      0x01\n        /* \"Assignments/Assignment2/Library.sol\":2011:2013  id */\n      dup3\n        /* \"Assignments/Assignment2/Library.sol\":1999:2014  bookIndexes[id] */\n      mload(0x40)\n      tag_123\n      swap2\n      swap1\n      tag_50\n      jump\t// in\n    tag_123:\n      swap1\n      dup2\n      mstore\n      0x20\n      add\n      mload(0x40)\n      dup1\n      swap2\n      sub\n      swap1\n      keccak256\n        /* \"Assignments/Assignment2/Library.sol\":1970:2014  BookIndex memory bookIndex = bookIndexes[id] */\n      mload(0x40)\n      dup1\n      0x40\n      add\n      0x40\n      mstore\n      swap1\n      dup2\n      0x00\n      dup3\n      add\n      sload\n      dup2\n      mstore\n      0x20\n      add\n      0x01\n      dup3\n      add\n      0x00\n      swap1\n      sload\n      swap1\n      0x0100\n      exp\n      swap1\n      div\n      0xff\n      and\n      iszero\n      iszero\n      iszero\n      iszero\n      dup2\n      mstore\n      pop\n      pop\n      swap1\n      pop\n        /* \"Assignments/Assignment2/Library.sol\":2048:2053  false */\n      0x00\n        /* \"Assignments/Assignment2/Library.sol\":2028:2053  bookIndex.exists == false */\n      iszero\n      iszero\n        /* \"Assignments/Assignment2/Library.sol\":2028:2037  bookIndex */\n      dup2\n        /* \"Assignments/Assignment2/Library.sol\":2028:2044  bookIndex.exists */\n      0x20\n      add\n      mload\n        /* \"Assignments/Assignment2/Library.sol\":2028:2053  bookIndex.exists == false */\n      iszero\n      iszero\n      sub\n        /* \"Assignments/Assignment2/Library.sol\":2024:2081  if (bookIndex.exists == false) { revert BookNotFound(); } */\n      tag_124\n      jumpi\n        /* \"Assignments/Assignment2/Library.sol\":2064:2078  BookNotFound() */\n      mload(0x40)\n      0x76fc34c900000000000000000000000000000000000000000000000000000000\n      dup2\n      mstore\n      0x04\n      add\n      mload(0x40)\n      dup1\n      swap2\n      sub\n      swap1\n      revert\n        /* \"Assignments/Assignment2/Library.sol\":2024:2081  if (bookIndex.exists == false) { revert BookNotFound(); } */\n    tag_124:\n        /* \"Assignments/Assignment2/Library.sol\":2109:2114  books */\n      0x00\n        /* \"Assignments/Assignment2/Library.sol\":2115:2124  bookIndex */\n      dup2\n        /* \"Assignments/Assignment2/Library.sol\":2115:2130  bookIndex.index */\n      0x00\n      add\n      mload\n        /* \"Assignments/Assignment2/Library.sol\":2109:2131  books[bookIndex.index] */\n      dup2\n      sload\n      dup2\n      lt\n      tag_125\n      jumpi\n      tag_126\n      tag_54\n      jump\t// in\n    tag_126:\n    tag_125:\n      swap1\n      0x00\n      mstore\n      keccak256(0x00, 0x20)\n      swap1\n      0x06\n      mul\n      add\n        /* \"Assignments/Assignment2/Library.sol\":2109:2148  books[bookIndex.index].primaryLibrarian */\n      0x04\n      add\n      0x01\n      swap1\n      sload\n      swap1\n      0x0100\n      exp\n      swap1\n      div\n      0xffffffffffffffffffffffffffffffffffffffff\n      and\n        /* \"Assignments/Assignment2/Library.sol\":2095:2148  msg.sender != books[bookIndex.index].primaryLibrarian */\n      0xffffffffffffffffffffffffffffffffffffffff\n      and\n        /* \"Assignments/Assignment2/Library.sol\":2095:2105  msg.sender */\n      caller\n        /* \"Assignments/Assignment2/Library.sol\":2095:2148  msg.sender != books[bookIndex.index].primaryLibrarian */\n      0xffffffffffffffffffffffffffffffffffffffff\n      and\n      eq\n        /* \"Assignments/Assignment2/Library.sol\":2091:2182  if (msg.sender != books[bookIndex.index].primaryLibrarian) { revert UnauthorizedAccess(); } */\n      tag_128\n      jumpi\n        /* \"Assignments/Assignment2/Library.sol\":2159:2179  UnauthorizedAccess() */\n      mload(0x40)\n      0x344fd58600000000000000000000000000000000000000000000000000000000\n      dup2\n      mstore\n      0x04\n      add\n      mload(0x40)\n      dup1\n      swap2\n      sub\n      swap1\n      revert\n        /* \"Assignments/Assignment2/Library.sol\":2091:2182  if (msg.sender != books[bookIndex.index].primaryLibrarian) { revert UnauthorizedAccess(); } */\n    tag_128:\n        /* \"Assignments/Assignment2/Library.sol\":2192:2206  bookLibrarians */\n      0x02\n        /* \"Assignments/Assignment2/Library.sol\":2207:2209  id */\n      dup3\n        /* \"Assignments/Assignment2/Library.sol\":2192:2210  bookLibrarians[id] */\n      mload(0x40)\n      tag_129\n      swap2\n      swap1\n      tag_50\n      jump\t// in\n    tag_129:\n      swap1\n      dup2\n      mstore\n      0x20\n      add\n      mload(0x40)\n      dup1\n      swap2\n      sub\n      swap1\n      keccak256\n        /* \"Assignments/Assignment2/Library.sol\":2216:2232  librarianAddress */\n      dup4\n        /* \"Assignments/Assignment2/Library.sol\":2192:2233  bookLibrarians[id].push(librarianAddress) */\n      swap1\n      dup1\n      0x01\n      dup2\n      sload\n      add\n      dup1\n      dup3\n      sstore\n      dup1\n      swap2\n      pop\n      pop\n      0x01\n      swap1\n      sub\n      swap1\n      0x00\n      mstore\n      keccak256(0x00, 0x20)\n      add\n      0x00\n      swap1\n      swap2\n      swap1\n      swap2\n      swap1\n      swap2\n      0x0100\n      exp\n      dup2\n      sload\n      dup2\n      0xffffffffffffffffffffffffffffffffffffffff\n      mul\n      not\n      and\n      swap1\n      dup4\n      0xffffffffffffffffffffffffffffffffffffffff\n      and\n      mul\n      or\n      swap1\n      sstore\n      pop\n        /* \"Assignments/Assignment2/Library.sol\":1909:2240  {... */\n      pop\n      pop\n        /* \"Assignments/Assignment2/Library.sol\":1794:2240  function addAuthorizedLibrarianFor(string calldata title, string calldata author, address librarianAddress) public {... */\n      pop\n      pop\n      pop\n      pop\n      pop\n      jump\t// out\n        /* \"Assignments/Assignment2/Library.sol\":643:792  function _idFor(string calldata title, string calldata author) private view returns(string memory) {... */\n    tag_48:\n        /* \"Assignments/Assignment2/Library.sol\":727:740  string memory */\n      0x60\n        /* \"Assignments/Assignment2/Library.sol\":759:763  this */\n      address\n        /* \"Assignments/Assignment2/Library.sol\":759:770  this.append */\n      0xffffffffffffffffffffffffffffffffffffffff\n      and\n      0x591c515f\n        /* \"Assignments/Assignment2/Library.sol\":771:776  title */\n      dup7\n      dup7\n        /* \"Assignments/Assignment2/Library.sol\":778:784  author */\n      dup7\n      dup7\n        /* \"Assignments/Assignment2/Library.sol\":759:785  this.append(title, author) */\n      mload(0x40)\n      dup6\n      0xffffffff\n      and\n      0xe0\n      shl\n      dup2\n      mstore\n      0x04\n      add\n      tag_132\n      swap5\n      swap4\n      swap3\n      swap2\n      swap1\n      tag_133\n      jump\t// in\n    tag_132:\n      0x00\n      mload(0x40)\n      dup1\n      dup4\n      sub\n      dup2\n      dup7\n      gas\n      staticcall\n      iszero\n      dup1\n      iszero\n      tag_135\n      jumpi\n      returndatasize\n      0x00\n      dup1\n      returndatacopy\n      revert(0x00, returndatasize)\n    tag_135:\n      pop\n      pop\n      pop\n      pop\n      mload(0x40)\n      returndatasize\n      0x00\n      dup3\n      returndatacopy\n      returndatasize\n      not(0x1f)\n      0x1f\n      dup3\n      add\n      and\n      dup3\n      add\n      dup1\n      0x40\n      mstore\n      pop\n      dup2\n      add\n      swap1\n      tag_136\n      swap2\n      swap1\n      tag_137\n      jump\t// in\n    tag_136:\n        /* \"Assignments/Assignment2/Library.sol\":752:785  return this.append(title, author) */\n      swap1\n      pop\n        /* \"Assignments/Assignment2/Library.sol\":643:792  function _idFor(string calldata title, string calldata author) private view returns(string memory) {... */\n      swap5\n      swap4\n      pop\n      pop\n      pop\n      pop\n      jump\t// out\n    tag_95:\n      mload(0x40)\n      dup1\n      0xe0\n      add\n      0x40\n      mstore\n      dup1\n      0x60\n      dup2\n      mstore\n      0x20\n      add\n      0x60\n      dup2\n      mstore\n      0x20\n      add\n      0x00\n      dup2\n      mstore\n      0x20\n      add\n      0x00\n      dup2\n      mstore\n      0x20\n      add\n      0x00\n      0x02\n      dup2\n      gt\n      iszero\n      tag_138\n      jumpi\n      tag_139\n      tag_104\n      jump\t// in\n    tag_139:\n    tag_138:\n      dup2\n      mstore\n      0x20\n      add\n      and(0xffffffffffffffffffffffffffffffffffffffff, 0x00)\n      dup2\n      mstore\n      0x20\n      add\n      0x00\n      dup2\n      mstore\n      pop\n      swap1\n      jump\t// out\n    tag_107:\n      mload(0x40)\n      dup1\n      0x40\n      add\n      0x40\n      mstore\n      dup1\n      0x00\n      dup2\n      mstore\n      0x20\n      add\n      iszero(iszero(0x00))\n      dup2\n      mstore\n      pop\n      swap1\n      jump\t// out\n        /* \"#utility.yul\":7:82   */\n    tag_140:\n        /* \"#utility.yul\":40:46   */\n      0x00\n        /* \"#utility.yul\":73:75   */\n      0x40\n        /* \"#utility.yul\":67:76   */\n      mload\n        /* \"#utility.yul\":57:76   */\n      swap1\n      pop\n        /* \"#utility.yul\":7:82   */\n      swap1\n      jump\t// out\n        /* \"#utility.yul\":88:205   */\n    tag_141:\n        /* \"#utility.yul\":197:198   */\n      0x00\n        /* \"#utility.yul\":194:195   */\n      dup1\n        /* \"#utility.yul\":187:199   */\n      revert\n        /* \"#utility.yul\":211:328   */\n    tag_142:\n        /* \"#utility.yul\":320:321   */\n      0x00\n        /* \"#utility.yul\":317:318   */\n      dup1\n        /* \"#utility.yul\":310:322   */\n      revert\n        /* \"#utility.yul\":334:451   */\n    tag_143:\n        /* \"#utility.yul\":443:444   */\n      0x00\n        /* \"#utility.yul\":440:441   */\n      dup1\n        /* \"#utility.yul\":433:445   */\n      revert\n        /* \"#utility.yul\":457:574   */\n    tag_144:\n        /* \"#utility.yul\":566:567   */\n      0x00\n        /* \"#utility.yul\":563:564   */\n      dup1\n        /* \"#utility.yul\":556:568   */\n      revert\n        /* \"#utility.yul\":580:697   */\n    tag_145:\n        /* \"#utility.yul\":689:690   */\n      0x00\n        /* \"#utility.yul\":686:687   */\n      dup1\n        /* \"#utility.yul\":679:691   */\n      revert\n        /* \"#utility.yul\":717:1270   */\n    tag_146:\n        /* \"#utility.yul\":775:783   */\n      0x00\n        /* \"#utility.yul\":785:791   */\n      dup1\n        /* \"#utility.yul\":835:838   */\n      dup4\n        /* \"#utility.yul\":828:832   */\n      0x1f\n        /* \"#utility.yul\":820:826   */\n      dup5\n        /* \"#utility.yul\":816:833   */\n      add\n        /* \"#utility.yul\":812:839   */\n      slt\n        /* \"#utility.yul\":802:924   */\n      tag_206\n      jumpi\n        /* \"#utility.yul\":843:922   */\n      tag_207\n      tag_143\n      jump\t// in\n    tag_207:\n        /* \"#utility.yul\":802:924   */\n    tag_206:\n        /* \"#utility.yul\":956:962   */\n      dup3\n        /* \"#utility.yul\":943:963   */\n      calldataload\n        /* \"#utility.yul\":933:963   */\n      swap1\n      pop\n        /* \"#utility.yul\":986:1004   */\n      0xffffffffffffffff\n        /* \"#utility.yul\":978:984   */\n      dup2\n        /* \"#utility.yul\":975:1005   */\n      gt\n        /* \"#utility.yul\":972:1089   */\n      iszero\n      tag_208\n      jumpi\n        /* \"#utility.yul\":1008:1087   */\n      tag_209\n      tag_144\n      jump\t// in\n    tag_209:\n        /* \"#utility.yul\":972:1089   */\n    tag_208:\n        /* \"#utility.yul\":1122:1126   */\n      0x20\n        /* \"#utility.yul\":1114:1120   */\n      dup4\n        /* \"#utility.yul\":1110:1127   */\n      add\n        /* \"#utility.yul\":1098:1127   */\n      swap2\n      pop\n        /* \"#utility.yul\":1176:1179   */\n      dup4\n        /* \"#utility.yul\":1168:1172   */\n      0x01\n        /* \"#utility.yul\":1160:1166   */\n      dup3\n        /* \"#utility.yul\":1156:1173   */\n      mul\n        /* \"#utility.yul\":1146:1154   */\n      dup4\n        /* \"#utility.yul\":1142:1174   */\n      add\n        /* \"#utility.yul\":1139:1180   */\n      gt\n        /* \"#utility.yul\":1136:1264   */\n      iszero\n      tag_210\n      jumpi\n        /* \"#utility.yul\":1183:1262   */\n      tag_211\n      tag_145\n      jump\t// in\n    tag_211:\n        /* \"#utility.yul\":1136:1264   */\n    tag_210:\n        /* \"#utility.yul\":717:1270   */\n      swap3\n      pop\n      swap3\n      swap1\n      pop\n      jump\t// out\n        /* \"#utility.yul\":1276:2150   */\n    tag_13:\n        /* \"#utility.yul\":1368:1374   */\n      0x00\n        /* \"#utility.yul\":1376:1382   */\n      dup1\n        /* \"#utility.yul\":1384:1390   */\n      0x00\n        /* \"#utility.yul\":1392:1398   */\n      dup1\n        /* \"#utility.yul\":1441:1443   */\n      0x40\n        /* \"#utility.yul\":1429:1438   */\n      dup6\n        /* \"#utility.yul\":1420:1427   */\n      dup8\n        /* \"#utility.yul\":1416:1439   */\n      sub\n        /* \"#utility.yul\":1412:1444   */\n      slt\n        /* \"#utility.yul\":1409:1528   */\n      iszero\n      tag_213\n      jumpi\n        /* \"#utility.yul\":1447:1526   */\n      tag_214\n      tag_141\n      jump\t// in\n    tag_214:\n        /* \"#utility.yul\":1409:1528   */\n    tag_213:\n        /* \"#utility.yul\":1595:1596   */\n      0x00\n        /* \"#utility.yul\":1584:1593   */\n      dup6\n        /* \"#utility.yul\":1580:1597   */\n      add\n        /* \"#utility.yul\":1567:1598   */\n      calldataload\n        /* \"#utility.yul\":1625:1643   */\n      0xffffffffffffffff\n        /* \"#utility.yul\":1617:1623   */\n      dup2\n        /* \"#utility.yul\":1614:1644   */\n      gt\n        /* \"#utility.yul\":1611:1728   */\n      iszero\n      tag_215\n      jumpi\n        /* \"#utility.yul\":1647:1726   */\n      tag_216\n      tag_142\n      jump\t// in\n    tag_216:\n        /* \"#utility.yul\":1611:1728   */\n    tag_215:\n        /* \"#utility.yul\":1760:1825   */\n      tag_217\n        /* \"#utility.yul\":1817:1824   */\n      dup8\n        /* \"#utility.yul\":1808:1814   */\n      dup3\n        /* \"#utility.yul\":1797:1806   */\n      dup9\n        /* \"#utility.yul\":1793:1815   */\n      add\n        /* \"#utility.yul\":1760:1825   */\n      tag_146\n      jump\t// in\n    tag_217:\n        /* \"#utility.yul\":1742:1825   */\n      swap5\n      pop\n      swap5\n      pop\n        /* \"#utility.yul\":1538:1835   */\n      pop\n        /* \"#utility.yul\":1902:1904   */\n      0x20\n        /* \"#utility.yul\":1891:1900   */\n      dup6\n        /* \"#utility.yul\":1887:1905   */\n      add\n        /* \"#utility.yul\":1874:1906   */\n      calldataload\n        /* \"#utility.yul\":1933:1951   */\n      0xffffffffffffffff\n        /* \"#utility.yul\":1925:1931   */\n      dup2\n        /* \"#utility.yul\":1922:1952   */\n      gt\n        /* \"#utility.yul\":1919:2036   */\n      iszero\n      tag_218\n      jumpi\n        /* \"#utility.yul\":1955:2034   */\n      tag_219\n      tag_142\n      jump\t// in\n    tag_219:\n        /* \"#utility.yul\":1919:2036   */\n    tag_218:\n        /* \"#utility.yul\":2068:2133   */\n      tag_220\n        /* \"#utility.yul\":2125:2132   */\n      dup8\n        /* \"#utility.yul\":2116:2122   */\n      dup3\n        /* \"#utility.yul\":2105:2114   */\n      dup9\n        /* \"#utility.yul\":2101:2123   */\n      add\n        /* \"#utility.yul\":2068:2133   */\n      tag_146\n      jump\t// in\n    tag_220:\n        /* \"#utility.yul\":2050:2133   */\n      swap3\n      pop\n      swap3\n      pop\n        /* \"#utility.yul\":1845:2143   */\n      pop\n        /* \"#utility.yul\":1276:2150   */\n      swap3\n      swap6\n      swap2\n      swap5\n      pop\n      swap3\n      pop\n      jump\t// out\n        /* \"#utility.yul\":2156:2255   */\n    tag_147:\n        /* \"#utility.yul\":2208:2214   */\n      0x00\n        /* \"#utility.yul\":2242:2247   */\n      dup2\n        /* \"#utility.yul\":2236:2248   */\n      mload\n        /* \"#utility.yul\":2226:2248   */\n      swap1\n      pop\n        /* \"#utility.yul\":2156:2255   */\n      swap2\n      swap1\n      pop\n      jump\t// out\n        /* \"#utility.yul\":2261:2430   */\n    tag_148:\n        /* \"#utility.yul\":2345:2356   */\n      0x00\n        /* \"#utility.yul\":2379:2385   */\n      dup3\n        /* \"#utility.yul\":2374:2377   */\n      dup3\n        /* \"#utility.yul\":2367:2386   */\n      mstore\n        /* \"#utility.yul\":2419:2423   */\n      0x20\n        /* \"#utility.yul\":2414:2417   */\n      dup3\n        /* \"#utility.yul\":2410:2424   */\n      add\n        /* \"#utility.yul\":2395:2424   */\n      swap1\n      pop\n        /* \"#utility.yul\":2261:2430   */\n      swap3\n      swap2\n      pop\n      pop\n      jump\t// out\n        /* \"#utility.yul\":2436:2575   */\n    tag_149:\n        /* \"#utility.yul\":2525:2531   */\n      dup3\n        /* \"#utility.yul\":2520:2523   */\n      dup2\n        /* \"#utility.yul\":2515:2518   */\n      dup4\n        /* \"#utility.yul\":2509:2532   */\n      mcopy\n        /* \"#utility.yul\":2566:2567   */\n      0x00\n        /* \"#utility.yul\":2557:2563   */\n      dup4\n        /* \"#utility.yul\":2552:2555   */\n      dup4\n        /* \"#utility.yul\":2548:2564   */\n      add\n        /* \"#utility.yul\":2541:2568   */\n      mstore\n        /* \"#utility.yul\":2436:2575   */\n      pop\n      pop\n      pop\n      jump\t// out\n        /* \"#utility.yul\":2581:2683   */\n    tag_150:\n        /* \"#utility.yul\":2622:2628   */\n      0x00\n        /* \"#utility.yul\":2673:2675   */\n      0x1f\n        /* \"#utility.yul\":2669:2676   */\n      not\n        /* \"#utility.yul\":2664:2666   */\n      0x1f\n        /* \"#utility.yul\":2657:2662   */\n      dup4\n        /* \"#utility.yul\":2653:2667   */\n      add\n        /* \"#utility.yul\":2649:2677   */\n      and\n        /* \"#utility.yul\":2639:2677   */\n      swap1\n      pop\n        /* \"#utility.yul\":2581:2683   */\n      swap2\n      swap1\n      pop\n      jump\t// out\n        /* \"#utility.yul\":2689:3066   */\n    tag_151:\n        /* \"#utility.yul\":2777:2780   */\n      0x00\n        /* \"#utility.yul\":2805:2844   */\n      tag_226\n        /* \"#utility.yul\":2838:2843   */\n      dup3\n        /* \"#utility.yul\":2805:2844   */\n      tag_147\n      jump\t// in\n    tag_226:\n        /* \"#utility.yul\":2860:2931   */\n      tag_227\n        /* \"#utility.yul\":2924:2930   */\n      dup2\n        /* \"#utility.yul\":2919:2922   */\n      dup6\n        /* \"#utility.yul\":2860:2931   */\n      tag_148\n      jump\t// in\n    tag_227:\n        /* \"#utility.yul\":2853:2931   */\n      swap4\n      pop\n        /* \"#utility.yul\":2940:3005   */\n      tag_228\n        /* \"#utility.yul\":2998:3004   */\n      dup2\n        /* \"#utility.yul\":2993:2996   */\n      dup6\n        /* \"#utility.yul\":2986:2990   */\n      0x20\n        /* \"#utility.yul\":2979:2984   */\n      dup7\n        /* \"#utility.yul\":2975:2991   */\n      add\n        /* \"#utility.yul\":2940:3005   */\n      tag_149\n      jump\t// in\n    tag_228:\n        /* \"#utility.yul\":3030:3059   */\n      tag_229\n        /* \"#utility.yul\":3052:3058   */\n      dup2\n        /* \"#utility.yul\":3030:3059   */\n      tag_150\n      jump\t// in\n    tag_229:\n        /* \"#utility.yul\":3025:3028   */\n      dup5\n        /* \"#utility.yul\":3021:3060   */\n      add\n        /* \"#utility.yul\":3014:3060   */\n      swap2\n      pop\n        /* \"#utility.yul\":2781:3066   */\n      pop\n        /* \"#utility.yul\":2689:3066   */\n      swap3\n      swap2\n      pop\n      pop\n      jump\t// out\n        /* \"#utility.yul\":3072:3385   */\n    tag_16:\n        /* \"#utility.yul\":3185:3189   */\n      0x00\n        /* \"#utility.yul\":3223:3225   */\n      0x20\n        /* \"#utility.yul\":3212:3221   */\n      dup3\n        /* \"#utility.yul\":3208:3226   */\n      add\n        /* \"#utility.yul\":3200:3226   */\n      swap1\n      pop\n        /* \"#utility.yul\":3272:3281   */\n      dup2\n        /* \"#utility.yul\":3266:3270   */\n      dup2\n        /* \"#utility.yul\":3262:3282   */\n      sub\n        /* \"#utility.yul\":3258:3259   */\n      0x00\n        /* \"#utility.yul\":3247:3256   */\n      dup4\n        /* \"#utility.yul\":3243:3260   */\n      add\n        /* \"#utility.yul\":3236:3283   */\n      mstore\n        /* \"#utility.yul\":3300:3378   */\n      tag_231\n        /* \"#utility.yul\":3373:3377   */\n      dup2\n        /* \"#utility.yul\":3364:3370   */\n      dup5\n        /* \"#utility.yul\":3300:3378   */\n      tag_151\n      jump\t// in\n    tag_231:\n        /* \"#utility.yul\":3292:3378   */\n      swap1\n      pop\n        /* \"#utility.yul\":3072:3385   */\n      swap3\n      swap2\n      pop\n      pop\n      jump\t// out\n        /* \"#utility.yul\":3391:3481   */\n    tag_152:\n        /* \"#utility.yul\":3425:3432   */\n      0x00\n        /* \"#utility.yul\":3468:3473   */\n      dup2\n        /* \"#utility.yul\":3461:3474   */\n      iszero\n        /* \"#utility.yul\":3454:3475   */\n      iszero\n        /* \"#utility.yul\":3443:3475   */\n      swap1\n      pop\n        /* \"#utility.yul\":3391:3481   */\n      swap2\n      swap1\n      pop\n      jump\t// out\n        /* \"#utility.yul\":3487:3596   */\n    tag_153:\n        /* \"#utility.yul\":3568:3589   */\n      tag_234\n        /* \"#utility.yul\":3583:3588   */\n      dup2\n        /* \"#utility.yul\":3568:3589   */\n      tag_152\n      jump\t// in\n    tag_234:\n        /* \"#utility.yul\":3563:3566   */\n      dup3\n        /* \"#utility.yul\":3556:3590   */\n      mstore\n        /* \"#utility.yul\":3487:3596   */\n      pop\n      pop\n      jump\t// out\n        /* \"#utility.yul\":3602:3812   */\n    tag_21:\n        /* \"#utility.yul\":3689:3693   */\n      0x00\n        /* \"#utility.yul\":3727:3729   */\n      0x20\n        /* \"#utility.yul\":3716:3725   */\n      dup3\n        /* \"#utility.yul\":3712:3730   */\n      add\n        /* \"#utility.yul\":3704:3730   */\n      swap1\n      pop\n        /* \"#utility.yul\":3740:3805   */\n      tag_236\n        /* \"#utility.yul\":3802:3803   */\n      0x00\n        /* \"#utility.yul\":3791:3800   */\n      dup4\n        /* \"#utility.yul\":3787:3804   */\n      add\n        /* \"#utility.yul\":3778:3784   */\n      dup5\n        /* \"#utility.yul\":3740:3805   */\n      tag_153\n      jump\t// in\n    tag_236:\n        /* \"#utility.yul\":3602:3812   */\n      swap3\n      swap2\n      pop\n      pop\n      jump\t// out\n        /* \"#utility.yul\":3818:3895   */\n    tag_154:\n        /* \"#utility.yul\":3855:3862   */\n      0x00\n        /* \"#utility.yul\":3884:3889   */\n      dup2\n        /* \"#utility.yul\":3873:3889   */\n      swap1\n      pop\n        /* \"#utility.yul\":3818:3895   */\n      swap2\n      swap1\n      pop\n      jump\t// out\n        /* \"#utility.yul\":3901:4023   */\n    tag_155:\n        /* \"#utility.yul\":3974:3998   */\n      tag_239\n        /* \"#utility.yul\":3992:3997   */\n      dup2\n        /* \"#utility.yul\":3974:3998   */\n      tag_154\n      jump\t// in\n    tag_239:\n        /* \"#utility.yul\":3967:3972   */\n      dup2\n        /* \"#utility.yul\":3964:3999   */\n      eq\n        /* \"#utility.yul\":3954:4017   */\n      tag_240\n      jumpi\n        /* \"#utility.yul\":4013:4014   */\n      0x00\n        /* \"#utility.yul\":4010:4011   */\n      dup1\n        /* \"#utility.yul\":4003:4015   */\n      revert\n        /* \"#utility.yul\":3954:4017   */\n    tag_240:\n        /* \"#utility.yul\":3901:4023   */\n      pop\n      jump\t// out\n        /* \"#utility.yul\":4029:4168   */\n    tag_156:\n        /* \"#utility.yul\":4075:4080   */\n      0x00\n        /* \"#utility.yul\":4113:4119   */\n      dup2\n        /* \"#utility.yul\":4100:4120   */\n      calldataload\n        /* \"#utility.yul\":4091:4120   */\n      swap1\n      pop\n        /* \"#utility.yul\":4129:4162   */\n      tag_242\n        /* \"#utility.yul\":4156:4161   */\n      dup2\n        /* \"#utility.yul\":4129:4162   */\n      tag_155\n      jump\t// in\n    tag_242:\n        /* \"#utility.yul\":4029:4168   */\n      swap3\n      swap2\n      pop\n      pop\n      jump\t// out\n        /* \"#utility.yul\":4174:4503   */\n    tag_24:\n        /* \"#utility.yul\":4233:4239   */\n      0x00\n        /* \"#utility.yul\":4282:4284   */\n      0x20\n        /* \"#utility.yul\":4270:4279   */\n      dup3\n        /* \"#utility.yul\":4261:4268   */\n      dup5\n        /* \"#utility.yul\":4257:4280   */\n      sub\n        /* \"#utility.yul\":4253:4285   */\n      slt\n        /* \"#utility.yul\":4250:4369   */\n      iszero\n      tag_244\n      jumpi\n        /* \"#utility.yul\":4288:4367   */\n      tag_245\n      tag_141\n      jump\t// in\n    tag_245:\n        /* \"#utility.yul\":4250:4369   */\n    tag_244:\n        /* \"#utility.yul\":4408:4409   */\n      0x00\n        /* \"#utility.yul\":4433:4486   */\n      tag_246\n        /* \"#utility.yul\":4478:4485   */\n      dup5\n        /* \"#utility.yul\":4469:4475   */\n      dup3\n        /* \"#utility.yul\":4458:4467   */\n      dup6\n        /* \"#utility.yul\":4454:4476   */\n      add\n        /* \"#utility.yul\":4433:4486   */\n      tag_156\n      jump\t// in\n    tag_246:\n        /* \"#utility.yul\":4423:4486   */\n      swap2\n      pop\n        /* \"#utility.yul\":4379:4496   */\n      pop\n        /* \"#utility.yul\":4174:4503   */\n      swap3\n      swap2\n      pop\n      pop\n      jump\t// out\n        /* \"#utility.yul\":4509:4627   */\n    tag_157:\n        /* \"#utility.yul\":4596:4620   */\n      tag_248\n        /* \"#utility.yul\":4614:4619   */\n      dup2\n        /* \"#utility.yul\":4596:4620   */\n      tag_154\n      jump\t// in\n    tag_248:\n        /* \"#utility.yul\":4591:4594   */\n      dup3\n        /* \"#utility.yul\":4584:4621   */\n      mstore\n        /* \"#utility.yul\":4509:4627   */\n      pop\n      pop\n      jump\t// out\n        /* \"#utility.yul\":4633:4813   */\n    tag_104:\n        /* \"#utility.yul\":4681:4758   */\n      0x4e487b7100000000000000000000000000000000000000000000000000000000\n        /* \"#utility.yul\":4678:4679   */\n      0x00\n        /* \"#utility.yul\":4671:4759   */\n      mstore\n        /* \"#utility.yul\":4778:4782   */\n      0x21\n        /* \"#utility.yul\":4775:4776   */\n      0x04\n        /* \"#utility.yul\":4768:4783   */\n      mstore\n        /* \"#utility.yul\":4802:4806   */\n      0x24\n        /* \"#utility.yul\":4799:4800   */\n      0x00\n        /* \"#utility.yul\":4792:4807   */\n      revert\n        /* \"#utility.yul\":4819:4936   */\n    tag_158:\n        /* \"#utility.yul\":4904:4905   */\n      0x03\n        /* \"#utility.yul\":4897:4902   */\n      dup2\n        /* \"#utility.yul\":4894:4906   */\n      lt\n        /* \"#utility.yul\":4884:4930   */\n      tag_251\n      jumpi\n        /* \"#utility.yul\":4910:4928   */\n      tag_252\n      tag_104\n      jump\t// in\n    tag_252:\n        /* \"#utility.yul\":4884:4930   */\n    tag_251:\n        /* \"#utility.yul\":4819:4936   */\n      pop\n      jump\t// out\n        /* \"#utility.yul\":4942:5077   */\n    tag_159:\n        /* \"#utility.yul\":4991:4998   */\n      0x00\n        /* \"#utility.yul\":5020:5025   */\n      dup2\n        /* \"#utility.yul\":5009:5025   */\n      swap1\n      pop\n        /* \"#utility.yul\":5026:5071   */\n      tag_254\n        /* \"#utility.yul\":5065:5070   */\n      dup3\n        /* \"#utility.yul\":5026:5071   */\n      tag_158\n      jump\t// in\n    tag_254:\n        /* \"#utility.yul\":4942:5077   */\n      swap2\n      swap1\n      pop\n      jump\t// out\n        /* \"#utility.yul\":5083:5218   */\n    tag_160:\n        /* \"#utility.yul\":5143:5152   */\n      0x00\n        /* \"#utility.yul\":5176:5212   */\n      tag_256\n        /* \"#utility.yul\":5206:5211   */\n      dup3\n        /* \"#utility.yul\":5176:5212   */\n      tag_159\n      jump\t// in\n    tag_256:\n        /* \"#utility.yul\":5163:5212   */\n      swap1\n      pop\n        /* \"#utility.yul\":5083:5218   */\n      swap2\n      swap1\n      pop\n      jump\t// out\n        /* \"#utility.yul\":5224:5375   */\n    tag_161:\n        /* \"#utility.yul\":5321:5368   */\n      tag_258\n        /* \"#utility.yul\":5362:5367   */\n      dup2\n        /* \"#utility.yul\":5321:5368   */\n      tag_160\n      jump\t// in\n    tag_258:\n        /* \"#utility.yul\":5316:5319   */\n      dup3\n        /* \"#utility.yul\":5309:5369   */\n      mstore\n        /* \"#utility.yul\":5224:5375   */\n      pop\n      pop\n      jump\t// out\n        /* \"#utility.yul\":5381:5507   */\n    tag_162:\n        /* \"#utility.yul\":5418:5425   */\n      0x00\n        /* \"#utility.yul\":5458:5500   */\n      0xffffffffffffffffffffffffffffffffffffffff\n        /* \"#utility.yul\":5451:5456   */\n      dup3\n        /* \"#utility.yul\":5447:5501   */\n      and\n        /* \"#utility.yul\":5436:5501   */\n      swap1\n      pop\n        /* \"#utility.yul\":5381:5507   */\n      swap2\n      swap1\n      pop\n      jump\t// out\n        /* \"#utility.yul\":5513:5609   */\n    tag_163:\n        /* \"#utility.yul\":5550:5557   */\n      0x00\n        /* \"#utility.yul\":5579:5603   */\n      tag_261\n        /* \"#utility.yul\":5597:5602   */\n      dup3\n        /* \"#utility.yul\":5579:5603   */\n      tag_162\n      jump\t// in\n    tag_261:\n        /* \"#utility.yul\":5568:5603   */\n      swap1\n      pop\n        /* \"#utility.yul\":5513:5609   */\n      swap2\n      swap1\n      pop\n      jump\t// out\n        /* \"#utility.yul\":5615:5733   */\n    tag_164:\n        /* \"#utility.yul\":5702:5726   */\n      tag_263\n        /* \"#utility.yul\":5720:5725   */\n      dup2\n        /* \"#utility.yul\":5702:5726   */\n      tag_163\n      jump\t// in\n    tag_263:\n        /* \"#utility.yul\":5697:5700   */\n      dup3\n        /* \"#utility.yul\":5690:5727   */\n      mstore\n        /* \"#utility.yul\":5615:5733   */\n      pop\n      pop\n      jump\t// out\n        /* \"#utility.yul\":5739:6827   */\n    tag_27:\n        /* \"#utility.yul\":6050:6054   */\n      0x00\n        /* \"#utility.yul\":6088:6091   */\n      0xe0\n        /* \"#utility.yul\":6077:6086   */\n      dup3\n        /* \"#utility.yul\":6073:6092   */\n      add\n        /* \"#utility.yul\":6065:6092   */\n      swap1\n      pop\n        /* \"#utility.yul\":6138:6147   */\n      dup2\n        /* \"#utility.yul\":6132:6136   */\n      dup2\n        /* \"#utility.yul\":6128:6148   */\n      sub\n        /* \"#utility.yul\":6124:6125   */\n      0x00\n        /* \"#utility.yul\":6113:6122   */\n      dup4\n        /* \"#utility.yul\":6109:6126   */\n      add\n        /* \"#utility.yul\":6102:6149   */\n      mstore\n        /* \"#utility.yul\":6166:6244   */\n      tag_265\n        /* \"#utility.yul\":6239:6243   */\n      dup2\n        /* \"#utility.yul\":6230:6236   */\n      dup11\n        /* \"#utility.yul\":6166:6244   */\n      tag_151\n      jump\t// in\n    tag_265:\n        /* \"#utility.yul\":6158:6244   */\n      swap1\n      pop\n        /* \"#utility.yul\":6291:6300   */\n      dup2\n        /* \"#utility.yul\":6285:6289   */\n      dup2\n        /* \"#utility.yul\":6281:6301   */\n      sub\n        /* \"#utility.yul\":6276:6278   */\n      0x20\n        /* \"#utility.yul\":6265:6274   */\n      dup4\n        /* \"#utility.yul\":6261:6279   */\n      add\n        /* \"#utility.yul\":6254:6302   */\n      mstore\n        /* \"#utility.yul\":6319:6397   */\n      tag_266\n        /* \"#utility.yul\":6392:6396   */\n      dup2\n        /* \"#utility.yul\":6383:6389   */\n      dup10\n        /* \"#utility.yul\":6319:6397   */\n      tag_151\n      jump\t// in\n    tag_266:\n        /* \"#utility.yul\":6311:6397   */\n      swap1\n      pop\n        /* \"#utility.yul\":6407:6479   */\n      tag_267\n        /* \"#utility.yul\":6475:6477   */\n      0x40\n        /* \"#utility.yul\":6464:6473   */\n      dup4\n        /* \"#utility.yul\":6460:6478   */\n      add\n        /* \"#utility.yul\":6451:6457   */\n      dup9\n        /* \"#utility.yul\":6407:6479   */\n      tag_157\n      jump\t// in\n    tag_267:\n        /* \"#utility.yul\":6489:6561   */\n      tag_268\n        /* \"#utility.yul\":6557:6559   */\n      0x60\n        /* \"#utility.yul\":6546:6555   */\n      dup4\n        /* \"#utility.yul\":6542:6560   */\n      add\n        /* \"#utility.yul\":6533:6539   */\n      dup8\n        /* \"#utility.yul\":6489:6561   */\n      tag_157\n      jump\t// in\n    tag_268:\n        /* \"#utility.yul\":6571:6654   */\n      tag_269\n        /* \"#utility.yul\":6649:6652   */\n      0x80\n        /* \"#utility.yul\":6638:6647   */\n      dup4\n        /* \"#utility.yul\":6634:6653   */\n      add\n        /* \"#utility.yul\":6625:6631   */\n      dup7\n        /* \"#utility.yul\":6571:6654   */\n      tag_161\n      jump\t// in\n    tag_269:\n        /* \"#utility.yul\":6664:6737   */\n      tag_270\n        /* \"#utility.yul\":6732:6735   */\n      0xa0\n        /* \"#utility.yul\":6721:6730   */\n      dup4\n        /* \"#utility.yul\":6717:6736   */\n      add\n        /* \"#utility.yul\":6708:6714   */\n      dup6\n        /* \"#utility.yul\":6664:6737   */\n      tag_164\n      jump\t// in\n    tag_270:\n        /* \"#utility.yul\":6747:6820   */\n      tag_271\n        /* \"#utility.yul\":6815:6818   */\n      0xc0\n        /* \"#utility.yul\":6804:6813   */\n      dup4\n        /* \"#utility.yul\":6800:6819   */\n      add\n        /* \"#utility.yul\":6791:6797   */\n      dup5\n        /* \"#utility.yul\":6747:6820   */\n      tag_157\n      jump\t// in\n    tag_271:\n        /* \"#utility.yul\":5739:6827   */\n      swap9\n      swap8\n      pop\n      pop\n      pop\n      pop\n      pop\n      pop\n      pop\n      pop\n      jump\t// out\n        /* \"#utility.yul\":6833:7852   */\n    tag_30:\n        /* \"#utility.yul\":6934:6940   */\n      0x00\n        /* \"#utility.yul\":6942:6948   */\n      dup1\n        /* \"#utility.yul\":6950:6956   */\n      0x00\n        /* \"#utility.yul\":6958:6964   */\n      dup1\n        /* \"#utility.yul\":6966:6972   */\n      0x00\n        /* \"#utility.yul\":7015:7017   */\n      0x60\n        /* \"#utility.yul\":7003:7012   */\n      dup7\n        /* \"#utility.yul\":6994:7001   */\n      dup9\n        /* \"#utility.yul\":6990:7013   */\n      sub\n        /* \"#utility.yul\":6986:7018   */\n      slt\n        /* \"#utility.yul\":6983:7102   */\n      iszero\n      tag_273\n      jumpi\n        /* \"#utility.yul\":7021:7100   */\n      tag_274\n      tag_141\n      jump\t// in\n    tag_274:\n        /* \"#utility.yul\":6983:7102   */\n    tag_273:\n        /* \"#utility.yul\":7169:7170   */\n      0x00\n        /* \"#utility.yul\":7158:7167   */\n      dup7\n        /* \"#utility.yul\":7154:7171   */\n      add\n        /* \"#utility.yul\":7141:7172   */\n      calldataload\n        /* \"#utility.yul\":7199:7217   */\n      0xffffffffffffffff\n        /* \"#utility.yul\":7191:7197   */\n      dup2\n        /* \"#utility.yul\":7188:7218   */\n      gt\n        /* \"#utility.yul\":7185:7302   */\n      iszero\n      tag_275\n      jumpi\n        /* \"#utility.yul\":7221:7300   */\n      tag_276\n      tag_142\n      jump\t// in\n    tag_276:\n        /* \"#utility.yul\":7185:7302   */\n    tag_275:\n        /* \"#utility.yul\":7334:7399   */\n      tag_277\n        /* \"#utility.yul\":7391:7398   */\n      dup9\n        /* \"#utility.yul\":7382:7388   */\n      dup3\n        /* \"#utility.yul\":7371:7380   */\n      dup10\n        /* \"#utility.yul\":7367:7389   */\n      add\n        /* \"#utility.yul\":7334:7399   */\n      tag_146\n      jump\t// in\n    tag_277:\n        /* \"#utility.yul\":7316:7399   */\n      swap6\n      pop\n      swap6\n      pop\n        /* \"#utility.yul\":7112:7409   */\n      pop\n        /* \"#utility.yul\":7476:7478   */\n      0x20\n        /* \"#utility.yul\":7465:7474   */\n      dup7\n        /* \"#utility.yul\":7461:7479   */\n      add\n        /* \"#utility.yul\":7448:7480   */\n      calldataload\n        /* \"#utility.yul\":7507:7525   */\n      0xffffffffffffffff\n        /* \"#utility.yul\":7499:7505   */\n      dup2\n        /* \"#utility.yul\":7496:7526   */\n      gt\n        /* \"#utility.yul\":7493:7610   */\n      iszero\n      tag_278\n      jumpi\n        /* \"#utility.yul\":7529:7608   */\n      tag_279\n      tag_142\n      jump\t// in\n    tag_279:\n        /* \"#utility.yul\":7493:7610   */\n    tag_278:\n        /* \"#utility.yul\":7642:7707   */\n      tag_280\n        /* \"#utility.yul\":7699:7706   */\n      dup9\n        /* \"#utility.yul\":7690:7696   */\n      dup3\n        /* \"#utility.yul\":7679:7688   */\n      dup10\n        /* \"#utility.yul\":7675:7697   */\n      add\n        /* \"#utility.yul\":7642:7707   */\n      tag_146\n      jump\t// in\n    tag_280:\n        /* \"#utility.yul\":7624:7707   */\n      swap4\n      pop\n      swap4\n      pop\n        /* \"#utility.yul\":7419:7717   */\n      pop\n        /* \"#utility.yul\":7756:7758   */\n      0x40\n        /* \"#utility.yul\":7782:7835   */\n      tag_281\n        /* \"#utility.yul\":7827:7834   */\n      dup9\n        /* \"#utility.yul\":7818:7824   */\n      dup3\n        /* \"#utility.yul\":7807:7816   */\n      dup10\n        /* \"#utility.yul\":7803:7825   */\n      add\n        /* \"#utility.yul\":7782:7835   */\n      tag_156\n      jump\t// in\n    tag_281:\n        /* \"#utility.yul\":7772:7835   */\n      swap2\n      pop\n        /* \"#utility.yul\":7727:7845   */\n      pop\n        /* \"#utility.yul\":6833:7852   */\n      swap3\n      swap6\n      pop\n      swap3\n      swap6\n      swap1\n      swap4\n      pop\n      jump\t// out\n        /* \"#utility.yul\":7858:7969   */\n    tag_165:\n        /* \"#utility.yul\":7943:7944   */\n      0x03\n        /* \"#utility.yul\":7936:7941   */\n      dup2\n        /* \"#utility.yul\":7933:7945   */\n      lt\n        /* \"#utility.yul\":7923:7963   */\n      tag_283\n      jumpi\n        /* \"#utility.yul\":7959:7960   */\n      0x00\n        /* \"#utility.yul\":7956:7957   */\n      dup1\n        /* \"#utility.yul\":7949:7961   */\n      revert\n        /* \"#utility.yul\":7923:7963   */\n    tag_283:\n        /* \"#utility.yul\":7858:7969   */\n      pop\n      jump\t// out\n        /* \"#utility.yul\":7975:8138   */\n    tag_166:\n        /* \"#utility.yul\":8033:8038   */\n      0x00\n        /* \"#utility.yul\":8071:8077   */\n      dup2\n        /* \"#utility.yul\":8058:8078   */\n      calldataload\n        /* \"#utility.yul\":8049:8078   */\n      swap1\n      pop\n        /* \"#utility.yul\":8087:8132   */\n      tag_285\n        /* \"#utility.yul\":8126:8131   */\n      dup2\n        /* \"#utility.yul\":8087:8132   */\n      tag_165\n      jump\t// in\n    tag_285:\n        /* \"#utility.yul\":7975:8138   */\n      swap3\n      swap2\n      pop\n      pop\n      jump\t// out\n        /* \"#utility.yul\":8144:9187   */\n    tag_37:\n        /* \"#utility.yul\":8257:8263   */\n      0x00\n        /* \"#utility.yul\":8265:8271   */\n      dup1\n        /* \"#utility.yul\":8273:8279   */\n      0x00\n        /* \"#utility.yul\":8281:8287   */\n      dup1\n        /* \"#utility.yul\":8289:8295   */\n      0x00\n        /* \"#utility.yul\":8338:8340   */\n      0x60\n        /* \"#utility.yul\":8326:8335   */\n      dup7\n        /* \"#utility.yul\":8317:8324   */\n      dup9\n        /* \"#utility.yul\":8313:8336   */\n      sub\n        /* \"#utility.yul\":8309:8341   */\n      slt\n        /* \"#utility.yul\":8306:8425   */\n      iszero\n      tag_287\n      jumpi\n        /* \"#utility.yul\":8344:8423   */\n      tag_288\n      tag_141\n      jump\t// in\n    tag_288:\n        /* \"#utility.yul\":8306:8425   */\n    tag_287:\n        /* \"#utility.yul\":8492:8493   */\n      0x00\n        /* \"#utility.yul\":8481:8490   */\n      dup7\n        /* \"#utility.yul\":8477:8494   */\n      add\n        /* \"#utility.yul\":8464:8495   */\n      calldataload\n        /* \"#utility.yul\":8522:8540   */\n      0xffffffffffffffff\n        /* \"#utility.yul\":8514:8520   */\n      dup2\n        /* \"#utility.yul\":8511:8541   */\n      gt\n        /* \"#utility.yul\":8508:8625   */\n      iszero\n      tag_289\n      jumpi\n        /* \"#utility.yul\":8544:8623   */\n      tag_290\n      tag_142\n      jump\t// in\n    tag_290:\n        /* \"#utility.yul\":8508:8625   */\n    tag_289:\n        /* \"#utility.yul\":8657:8722   */\n      tag_291\n        /* \"#utility.yul\":8714:8721   */\n      dup9\n        /* \"#utility.yul\":8705:8711   */\n      dup3\n        /* \"#utility.yul\":8694:8703   */\n      dup10\n        /* \"#utility.yul\":8690:8712   */\n      add\n        /* \"#utility.yul\":8657:8722   */\n      tag_146\n      jump\t// in\n    tag_291:\n        /* \"#utility.yul\":8639:8722   */\n      swap6\n      pop\n      swap6\n      pop\n        /* \"#utility.yul\":8435:8732   */\n      pop\n        /* \"#utility.yul\":8799:8801   */\n      0x20\n        /* \"#utility.yul\":8788:8797   */\n      dup7\n        /* \"#utility.yul\":8784:8802   */\n      add\n        /* \"#utility.yul\":8771:8803   */\n      calldataload\n        /* \"#utility.yul\":8830:8848   */\n      0xffffffffffffffff\n        /* \"#utility.yul\":8822:8828   */\n      dup2\n        /* \"#utility.yul\":8819:8849   */\n      gt\n        /* \"#utility.yul\":8816:8933   */\n      iszero\n      tag_292\n      jumpi\n        /* \"#utility.yul\":8852:8931   */\n      tag_293\n      tag_142\n      jump\t// in\n    tag_293:\n        /* \"#utility.yul\":8816:8933   */\n    tag_292:\n        /* \"#utility.yul\":8965:9030   */\n      tag_294\n        /* \"#utility.yul\":9022:9029   */\n      dup9\n        /* \"#utility.yul\":9013:9019   */\n      dup3\n        /* \"#utility.yul\":9002:9011   */\n      dup10\n        /* \"#utility.yul\":8998:9020   */\n      add\n        /* \"#utility.yul\":8965:9030   */\n      tag_146\n      jump\t// in\n    tag_294:\n        /* \"#utility.yul\":8947:9030   */\n      swap4\n      pop\n      swap4\n      pop\n        /* \"#utility.yul\":8742:9040   */\n      pop\n        /* \"#utility.yul\":9079:9081   */\n      0x40\n        /* \"#utility.yul\":9105:9170   */\n      tag_295\n        /* \"#utility.yul\":9162:9169   */\n      dup9\n        /* \"#utility.yul\":9153:9159   */\n      dup3\n        /* \"#utility.yul\":9142:9151   */\n      dup10\n        /* \"#utility.yul\":9138:9160   */\n      add\n        /* \"#utility.yul\":9105:9170   */\n      tag_166\n      jump\t// in\n    tag_295:\n        /* \"#utility.yul\":9095:9170   */\n      swap2\n      pop\n        /* \"#utility.yul\":9050:9180   */\n      pop\n        /* \"#utility.yul\":8144:9187   */\n      swap3\n      swap6\n      pop\n      swap3\n      swap6\n      swap1\n      swap4\n      pop\n      jump\t// out\n        /* \"#utility.yul\":9193:9315   */\n    tag_167:\n        /* \"#utility.yul\":9266:9290   */\n      tag_297\n        /* \"#utility.yul\":9284:9289   */\n      dup2\n        /* \"#utility.yul\":9266:9290   */\n      tag_163\n      jump\t// in\n    tag_297:\n        /* \"#utility.yul\":9259:9264   */\n      dup2\n        /* \"#utility.yul\":9256:9291   */\n      eq\n        /* \"#utility.yul\":9246:9309   */\n      tag_298\n      jumpi\n        /* \"#utility.yul\":9305:9306   */\n      0x00\n        /* \"#utility.yul\":9302:9303   */\n      dup1\n        /* \"#utility.yul\":9295:9307   */\n      revert\n        /* \"#utility.yul\":9246:9309   */\n    tag_298:\n        /* \"#utility.yul\":9193:9315   */\n      pop\n      jump\t// out\n        /* \"#utility.yul\":9321:9460   */\n    tag_168:\n        /* \"#utility.yul\":9367:9372   */\n      0x00\n        /* \"#utility.yul\":9405:9411   */\n      dup2\n        /* \"#utility.yul\":9392:9412   */\n      calldataload\n        /* \"#utility.yul\":9383:9412   */\n      swap1\n      pop\n        /* \"#utility.yul\":9421:9454   */\n      tag_300\n        /* \"#utility.yul\":9448:9453   */\n      dup2\n        /* \"#utility.yul\":9421:9454   */\n      tag_167\n      jump\t// in\n    tag_300:\n        /* \"#utility.yul\":9321:9460   */\n      swap3\n      swap2\n      pop\n      pop\n      jump\t// out\n        /* \"#utility.yul\":9466:10485   */\n    tag_41:\n        /* \"#utility.yul\":9567:9573   */\n      0x00\n        /* \"#utility.yul\":9575:9581   */\n      dup1\n        /* \"#utility.yul\":9583:9589   */\n      0x00\n        /* \"#utility.yul\":9591:9597   */\n      dup1\n        /* \"#utility.yul\":9599:9605   */\n      0x00\n        /* \"#utility.yul\":9648:9650   */\n      0x60\n        /* \"#utility.yul\":9636:9645   */\n      dup7\n        /* \"#utility.yul\":9627:9634   */\n      dup9\n        /* \"#utility.yul\":9623:9646   */\n      sub\n        /* \"#utility.yul\":9619:9651   */\n      slt\n        /* \"#utility.yul\":9616:9735   */\n      iszero\n      tag_302\n      jumpi\n        /* \"#utility.yul\":9654:9733   */\n      tag_303\n      tag_141\n      jump\t// in\n    tag_303:\n        /* \"#utility.yul\":9616:9735   */\n    tag_302:\n        /* \"#utility.yul\":9802:9803   */\n      0x00\n        /* \"#utility.yul\":9791:9800   */\n      dup7\n        /* \"#utility.yul\":9787:9804   */\n      add\n        /* \"#utility.yul\":9774:9805   */\n      calldataload\n        /* \"#utility.yul\":9832:9850   */\n      0xffffffffffffffff\n        /* \"#utility.yul\":9824:9830   */\n      dup2\n        /* \"#utility.yul\":9821:9851   */\n      gt\n        /* \"#utility.yul\":9818:9935   */\n      iszero\n      tag_304\n      jumpi\n        /* \"#utility.yul\":9854:9933   */\n      tag_305\n      tag_142\n      jump\t// in\n    tag_305:\n        /* \"#utility.yul\":9818:9935   */\n    tag_304:\n        /* \"#utility.yul\":9967:10032   */\n      tag_306\n        /* \"#utility.yul\":10024:10031   */\n      dup9\n        /* \"#utility.yul\":10015:10021   */\n      dup3\n        /* \"#utility.yul\":10004:10013   */\n      dup10\n        /* \"#utility.yul\":10000:10022   */\n      add\n        /* \"#utility.yul\":9967:10032   */\n      tag_146\n      jump\t// in\n    tag_306:\n        /* \"#utility.yul\":9949:10032   */\n      swap6\n      pop\n      swap6\n      pop\n        /* \"#utility.yul\":9745:10042   */\n      pop\n        /* \"#utility.yul\":10109:10111   */\n      0x20\n        /* \"#utility.yul\":10098:10107   */\n      dup7\n        /* \"#utility.yul\":10094:10112   */\n      add\n        /* \"#utility.yul\":10081:10113   */\n      calldataload\n        /* \"#utility.yul\":10140:10158   */\n      0xffffffffffffffff\n        /* \"#utility.yul\":10132:10138   */\n      dup2\n        /* \"#utility.yul\":10129:10159   */\n      gt\n        /* \"#utility.yul\":10126:10243   */\n      iszero\n      tag_307\n      jumpi\n        /* \"#utility.yul\":10162:10241   */\n      tag_308\n      tag_142\n      jump\t// in\n    tag_308:\n        /* \"#utility.yul\":10126:10243   */\n    tag_307:\n        /* \"#utility.yul\":10275:10340   */\n      tag_309\n        /* \"#utility.yul\":10332:10339   */\n      dup9\n        /* \"#utility.yul\":10323:10329   */\n      dup3\n        /* \"#utility.yul\":10312:10321   */\n      dup10\n        /* \"#utility.yul\":10308:10330   */\n      add\n        /* \"#utility.yul\":10275:10340   */\n      tag_146\n      jump\t// in\n    tag_309:\n        /* \"#utility.yul\":10257:10340   */\n      swap4\n      pop\n      swap4\n      pop\n        /* \"#utility.yul\":10052:10350   */\n      pop\n        /* \"#utility.yul\":10389:10391   */\n      0x40\n        /* \"#utility.yul\":10415:10468   */\n      tag_310\n        /* \"#utility.yul\":10460:10467   */\n      dup9\n        /* \"#utility.yul\":10451:10457   */\n      dup3\n        /* \"#utility.yul\":10440:10449   */\n      dup10\n        /* \"#utility.yul\":10436:10458   */\n      add\n        /* \"#utility.yul\":10415:10468   */\n      tag_168\n      jump\t// in\n    tag_310:\n        /* \"#utility.yul\":10405:10468   */\n      swap2\n      pop\n        /* \"#utility.yul\":10360:10478   */\n      pop\n        /* \"#utility.yul\":9466:10485   */\n      swap3\n      swap6\n      pop\n      swap3\n      swap6\n      swap1\n      swap4\n      pop\n      jump\t// out\n        /* \"#utility.yul\":10491:10639   */\n    tag_169:\n        /* \"#utility.yul\":10593:10604   */\n      0x00\n        /* \"#utility.yul\":10630:10633   */\n      dup2\n        /* \"#utility.yul\":10615:10633   */\n      swap1\n      pop\n        /* \"#utility.yul\":10491:10639   */\n      swap3\n      swap2\n      pop\n      pop\n      jump\t// out\n        /* \"#utility.yul\":10645:10793   */\n    tag_170:\n        /* \"#utility.yul\":10743:10749   */\n      dup3\n        /* \"#utility.yul\":10738:10741   */\n      dup2\n        /* \"#utility.yul\":10733:10736   */\n      dup4\n        /* \"#utility.yul\":10720:10750   */\n      calldatacopy\n        /* \"#utility.yul\":10784:10785   */\n      0x00\n        /* \"#utility.yul\":10775:10781   */\n      dup4\n        /* \"#utility.yul\":10770:10773   */\n      dup4\n        /* \"#utility.yul\":10766:10782   */\n      add\n        /* \"#utility.yul\":10759:10786   */\n      mstore\n        /* \"#utility.yul\":10645:10793   */\n      pop\n      pop\n      pop\n      jump\t// out\n        /* \"#utility.yul\":10823:11153   */\n    tag_171:\n        /* \"#utility.yul\":10939:10942   */\n      0x00\n        /* \"#utility.yul\":10960:11049   */\n      tag_314\n        /* \"#utility.yul\":11042:11048   */\n      dup4\n        /* \"#utility.yul\":11037:11040   */\n      dup6\n        /* \"#utility.yul\":10960:11049   */\n      tag_169\n      jump\t// in\n    tag_314:\n        /* \"#utility.yul\":10953:11049   */\n      swap4\n      pop\n        /* \"#utility.yul\":11059:11115   */\n      tag_315\n        /* \"#utility.yul\":11108:11114   */\n      dup4\n        /* \"#utility.yul\":11103:11106   */\n      dup6\n        /* \"#utility.yul\":11096:11101   */\n      dup5\n        /* \"#utility.yul\":11059:11115   */\n      tag_170\n      jump\t// in\n    tag_315:\n        /* \"#utility.yul\":11140:11146   */\n      dup3\n        /* \"#utility.yul\":11135:11138   */\n      dup5\n        /* \"#utility.yul\":11131:11147   */\n      add\n        /* \"#utility.yul\":11124:11147   */\n      swap1\n      pop\n        /* \"#utility.yul\":10823:11153   */\n      swap4\n      swap3\n      pop\n      pop\n      pop\n      jump\t// out\n        /* \"#utility.yul\":11159:11634   */\n    tag_45:\n        /* \"#utility.yul\":11359:11362   */\n      0x00\n        /* \"#utility.yul\":11381:11486   */\n      tag_317\n        /* \"#utility.yul\":11482:11485   */\n      dup3\n        /* \"#utility.yul\":11473:11479   */\n      dup7\n        /* \"#utility.yul\":11465:11471   */\n      dup9\n        /* \"#utility.yul\":11381:11486   */\n      tag_171\n      jump\t// in\n    tag_317:\n        /* \"#utility.yul\":11374:11486   */\n      swap2\n      pop\n        /* \"#utility.yul\":11503:11608   */\n      tag_318\n        /* \"#utility.yul\":11604:11607   */\n      dup3\n        /* \"#utility.yul\":11595:11601   */\n      dup5\n        /* \"#utility.yul\":11587:11593   */\n      dup7\n        /* \"#utility.yul\":11503:11608   */\n      tag_171\n      jump\t// in\n    tag_318:\n        /* \"#utility.yul\":11496:11608   */\n      swap2\n      pop\n        /* \"#utility.yul\":11625:11628   */\n      dup2\n        /* \"#utility.yul\":11618:11628   */\n      swap1\n      pop\n        /* \"#utility.yul\":11159:11634   */\n      swap6\n      swap5\n      pop\n      pop\n      pop\n      pop\n      pop\n      jump\t// out\n        /* \"#utility.yul\":11640:12030   */\n    tag_172:\n        /* \"#utility.yul\":11746:11749   */\n      0x00\n        /* \"#utility.yul\":11774:11813   */\n      tag_320\n        /* \"#utility.yul\":11807:11812   */\n      dup3\n        /* \"#utility.yul\":11774:11813   */\n      tag_147\n      jump\t// in\n    tag_320:\n        /* \"#utility.yul\":11829:11918   */\n      tag_321\n        /* \"#utility.yul\":11911:11917   */\n      dup2\n        /* \"#utility.yul\":11906:11909   */\n      dup6\n        /* \"#utility.yul\":11829:11918   */\n      tag_169\n      jump\t// in\n    tag_321:\n        /* \"#utility.yul\":11822:11918   */\n      swap4\n      pop\n        /* \"#utility.yul\":11927:11992   */\n      tag_322\n        /* \"#utility.yul\":11985:11991   */\n      dup2\n        /* \"#utility.yul\":11980:11983   */\n      dup6\n        /* \"#utility.yul\":11973:11977   */\n      0x20\n        /* \"#utility.yul\":11966:11971   */\n      dup7\n        /* \"#utility.yul\":11962:11978   */\n      add\n        /* \"#utility.yul\":11927:11992   */\n      tag_149\n      jump\t// in\n    tag_322:\n        /* \"#utility.yul\":12017:12023   */\n      dup1\n        /* \"#utility.yul\":12012:12015   */\n      dup5\n        /* \"#utility.yul\":12008:12024   */\n      add\n        /* \"#utility.yul\":12001:12024   */\n      swap2\n      pop\n        /* \"#utility.yul\":11750:12030   */\n      pop\n        /* \"#utility.yul\":11640:12030   */\n      swap3\n      swap2\n      pop\n      pop\n      jump\t// out\n        /* \"#utility.yul\":12036:12311   */\n    tag_50:\n        /* \"#utility.yul\":12168:12171   */\n      0x00\n        /* \"#utility.yul\":12190:12285   */\n      tag_324\n        /* \"#utility.yul\":12281:12284   */\n      dup3\n        /* \"#utility.yul\":12272:12278   */\n      dup5\n        /* \"#utility.yul\":12190:12285   */\n      tag_172\n      jump\t// in\n    tag_324:\n        /* \"#utility.yul\":12183:12285   */\n      swap2\n      pop\n        /* \"#utility.yul\":12302:12305   */\n      dup2\n        /* \"#utility.yul\":12295:12305   */\n      swap1\n      pop\n        /* \"#utility.yul\":12036:12311   */\n      swap3\n      swap2\n      pop\n      pop\n      jump\t// out\n        /* \"#utility.yul\":12317:12497   */\n    tag_54:\n        /* \"#utility.yul\":12365:12442   */\n      0x4e487b7100000000000000000000000000000000000000000000000000000000\n        /* \"#utility.yul\":12362:12363   */\n      0x00\n        /* \"#utility.yul\":12355:12443   */\n      mstore\n        /* \"#utility.yul\":12462:12466   */\n      0x32\n        /* \"#utility.yul\":12459:12460   */\n      0x04\n        /* \"#utility.yul\":12452:12467   */\n      mstore\n        /* \"#utility.yul\":12486:12490   */\n      0x24\n        /* \"#utility.yul\":12483:12484   */\n      0x00\n        /* \"#utility.yul\":12476:12491   */\n      revert\n        /* \"#utility.yul\":12503:12683   */\n    tag_173:\n        /* \"#utility.yul\":12551:12628   */\n      0x4e487b7100000000000000000000000000000000000000000000000000000000\n        /* \"#utility.yul\":12548:12549   */\n      0x00\n        /* \"#utility.yul\":12541:12629   */\n      mstore\n        /* \"#utility.yul\":12648:12652   */\n      0x11\n        /* \"#utility.yul\":12645:12646   */\n      0x04\n        /* \"#utility.yul\":12638:12653   */\n      mstore\n        /* \"#utility.yul\":12672:12676   */\n      0x24\n        /* \"#utility.yul\":12669:12670   */\n      0x00\n        /* \"#utility.yul\":12662:12677   */\n      revert\n        /* \"#utility.yul\":12689:12880   */\n    tag_57:\n        /* \"#utility.yul\":12729:12732   */\n      0x00\n        /* \"#utility.yul\":12748:12768   */\n      tag_328\n        /* \"#utility.yul\":12766:12767   */\n      dup3\n        /* \"#utility.yul\":12748:12768   */\n      tag_154\n      jump\t// in\n    tag_328:\n        /* \"#utility.yul\":12743:12768   */\n      swap2\n      pop\n        /* \"#utility.yul\":12782:12802   */\n      tag_329\n        /* \"#utility.yul\":12800:12801   */\n      dup4\n        /* \"#utility.yul\":12782:12802   */\n      tag_154\n      jump\t// in\n    tag_329:\n        /* \"#utility.yul\":12777:12802   */\n      swap3\n      pop\n        /* \"#utility.yul\":12825:12826   */\n      dup3\n        /* \"#utility.yul\":12822:12823   */\n      dup3\n        /* \"#utility.yul\":12818:12827   */\n      add\n        /* \"#utility.yul\":12811:12827   */\n      swap1\n      pop\n        /* \"#utility.yul\":12846:12849   */\n      dup1\n        /* \"#utility.yul\":12843:12844   */\n      dup3\n        /* \"#utility.yul\":12840:12850   */\n      gt\n        /* \"#utility.yul\":12837:12873   */\n      iszero\n      tag_330\n      jumpi\n        /* \"#utility.yul\":12853:12871   */\n      tag_331\n      tag_173\n      jump\t// in\n    tag_331:\n        /* \"#utility.yul\":12837:12873   */\n    tag_330:\n        /* \"#utility.yul\":12689:12880   */\n      swap3\n      swap2\n      pop\n      pop\n      jump\t// out\n        /* \"#utility.yul\":12886:13066   */\n    tag_174:\n        /* \"#utility.yul\":12934:13011   */\n      0x4e487b7100000000000000000000000000000000000000000000000000000000\n        /* \"#utility.yul\":12931:12932   */\n      0x00\n        /* \"#utility.yul\":12924:13012   */\n      mstore\n        /* \"#utility.yul\":13031:13035   */\n      0x22\n        /* \"#utility.yul\":13028:13029   */\n      0x04\n        /* \"#utility.yul\":13021:13036   */\n      mstore\n        /* \"#utility.yul\":13055:13059   */\n      0x24\n        /* \"#utility.yul\":13052:13053   */\n      0x00\n        /* \"#utility.yul\":13045:13060   */\n      revert\n        /* \"#utility.yul\":13072:13392   */\n    tag_61:\n        /* \"#utility.yul\":13116:13122   */\n      0x00\n        /* \"#utility.yul\":13153:13154   */\n      0x02\n        /* \"#utility.yul\":13147:13151   */\n      dup3\n        /* \"#utility.yul\":13143:13155   */\n      div\n        /* \"#utility.yul\":13133:13155   */\n      swap1\n      pop\n        /* \"#utility.yul\":13200:13201   */\n      0x01\n        /* \"#utility.yul\":13194:13198   */\n      dup3\n        /* \"#utility.yul\":13190:13202   */\n      and\n        /* \"#utility.yul\":13221:13239   */\n      dup1\n        /* \"#utility.yul\":13211:13292   */\n      tag_334\n      jumpi\n        /* \"#utility.yul\":13277:13281   */\n      0x7f\n        /* \"#utility.yul\":13269:13275   */\n      dup3\n        /* \"#utility.yul\":13265:13282   */\n      and\n        /* \"#utility.yul\":13255:13282   */\n      swap2\n      pop\n        /* \"#utility.yul\":13211:13292   */\n    tag_334:\n        /* \"#utility.yul\":13339:13341   */\n      0x20\n        /* \"#utility.yul\":13331:13337   */\n      dup3\n        /* \"#utility.yul\":13328:13342   */\n      lt\n        /* \"#utility.yul\":13308:13326   */\n      dup2\n        /* \"#utility.yul\":13305:13343   */\n      sub\n        /* \"#utility.yul\":13302:13386   */\n      tag_335\n      jumpi\n        /* \"#utility.yul\":13358:13376   */\n      tag_336\n      tag_174\n      jump\t// in\n    tag_336:\n        /* \"#utility.yul\":13302:13386   */\n    tag_335:\n        /* \"#utility.yul\":13123:13392   */\n      pop\n        /* \"#utility.yul\":13072:13392   */\n      swap2\n      swap1\n      pop\n      jump\t// out\n        /* \"#utility.yul\":13398:13808   */\n    tag_80:\n        /* \"#utility.yul\":13438:13445   */\n      0x00\n        /* \"#utility.yul\":13461:13481   */\n      tag_338\n        /* \"#utility.yul\":13479:13480   */\n      dup3\n        /* \"#utility.yul\":13461:13481   */\n      tag_154\n      jump\t// in\n    tag_338:\n        /* \"#utility.yul\":13456:13481   */\n      swap2\n      pop\n        /* \"#utility.yul\":13495:13515   */\n      tag_339\n        /* \"#utility.yul\":13513:13514   */\n      dup4\n        /* \"#utility.yul\":13495:13515   */\n      tag_154\n      jump\t// in\n    tag_339:\n        /* \"#utility.yul\":13490:13515   */\n      swap3\n      pop\n        /* \"#utility.yul\":13550:13551   */\n      dup3\n        /* \"#utility.yul\":13547:13548   */\n      dup3\n        /* \"#utility.yul\":13543:13552   */\n      mul\n        /* \"#utility.yul\":13572:13602   */\n      tag_340\n        /* \"#utility.yul\":13590:13601   */\n      dup2\n        /* \"#utility.yul\":13572:13602   */\n      tag_154\n      jump\t// in\n    tag_340:\n        /* \"#utility.yul\":13561:13602   */\n      swap2\n      pop\n        /* \"#utility.yul\":13751:13752   */\n      dup3\n        /* \"#utility.yul\":13742:13749   */\n      dup3\n        /* \"#utility.yul\":13738:13753   */\n      div\n        /* \"#utility.yul\":13735:13736   */\n      dup5\n        /* \"#utility.yul\":13732:13754   */\n      eq\n        /* \"#utility.yul\":13712:13713   */\n      dup4\n        /* \"#utility.yul\":13705:13714   */\n      iszero\n        /* \"#utility.yul\":13685:13768   */\n      or\n        /* \"#utility.yul\":13662:13801   */\n      tag_341\n      jumpi\n        /* \"#utility.yul\":13781:13799   */\n      tag_342\n      tag_173\n      jump\t// in\n    tag_342:\n        /* \"#utility.yul\":13662:13801   */\n    tag_341:\n        /* \"#utility.yul\":13446:13808   */\n      pop\n        /* \"#utility.yul\":13398:13808   */\n      swap3\n      swap2\n      pop\n      pop\n      jump\t// out\n        /* \"#utility.yul\":13814:13994   */\n    tag_175:\n        /* \"#utility.yul\":13862:13939   */\n      0x4e487b7100000000000000000000000000000000000000000000000000000000\n        /* \"#utility.yul\":13859:13860   */\n      0x00\n        /* \"#utility.yul\":13852:13940   */\n      mstore\n        /* \"#utility.yul\":13959:13963   */\n      0x41\n        /* \"#utility.yul\":13956:13957   */\n      0x04\n        /* \"#utility.yul\":13949:13964   */\n      mstore\n        /* \"#utility.yul\":13983:13987   */\n      0x24\n        /* \"#utility.yul\":13980:13981   */\n      0x00\n        /* \"#utility.yul\":13973:13988   */\n      revert\n        /* \"#utility.yul\":14000:14141   */\n    tag_176:\n        /* \"#utility.yul\":14049:14053   */\n      0x00\n        /* \"#utility.yul\":14072:14075   */\n      dup2\n        /* \"#utility.yul\":14064:14075   */\n      swap1\n      pop\n        /* \"#utility.yul\":14095:14098   */\n      dup2\n        /* \"#utility.yul\":14092:14093   */\n      0x00\n        /* \"#utility.yul\":14085:14099   */\n      mstore\n        /* \"#utility.yul\":14129:14133   */\n      0x20\n        /* \"#utility.yul\":14126:14127   */\n      0x00\n        /* \"#utility.yul\":14116:14134   */\n      keccak256\n        /* \"#utility.yul\":14108:14134   */\n      swap1\n      pop\n        /* \"#utility.yul\":14000:14141   */\n      swap2\n      swap1\n      pop\n      jump\t// out\n        /* \"#utility.yul\":14147:14240   */\n    tag_177:\n        /* \"#utility.yul\":14184:14190   */\n      0x00\n        /* \"#utility.yul\":14231:14233   */\n      0x20\n        /* \"#utility.yul\":14226:14228   */\n      0x1f\n        /* \"#utility.yul\":14219:14224   */\n      dup4\n        /* \"#utility.yul\":14215:14229   */\n      add\n        /* \"#utility.yul\":14211:14234   */\n      div\n        /* \"#utility.yul\":14201:14234   */\n      swap1\n      pop\n        /* \"#utility.yul\":14147:14240   */\n      swap2\n      swap1\n      pop\n      jump\t// out\n        /* \"#utility.yul\":14246:14353   */\n    tag_178:\n        /* \"#utility.yul\":14290:14298   */\n      0x00\n        /* \"#utility.yul\":14340:14345   */\n      dup3\n        /* \"#utility.yul\":14334:14338   */\n      dup3\n        /* \"#utility.yul\":14330:14346   */\n      shl\n        /* \"#utility.yul\":14309:14346   */\n      swap1\n      pop\n        /* \"#utility.yul\":14246:14353   */\n      swap3\n      swap2\n      pop\n      pop\n      jump\t// out\n        /* \"#utility.yul\":14359:14752   */\n    tag_179:\n        /* \"#utility.yul\":14428:14434   */\n      0x00\n        /* \"#utility.yul\":14478:14479   */\n      0x08\n        /* \"#utility.yul\":14466:14476   */\n      dup4\n        /* \"#utility.yul\":14462:14480   */\n      mul\n        /* \"#utility.yul\":14501:14598   */\n      tag_348\n        /* \"#utility.yul\":14531:14597   */\n      0xffffffffffffffffffffffffffffffffffffffffffffffffffffffffffffffff\n        /* \"#utility.yul\":14520:14529   */\n      dup3\n        /* \"#utility.yul\":14501:14598   */\n      tag_178\n      jump\t// in\n    tag_348:\n        /* \"#utility.yul\":14619:14658   */\n      tag_349\n        /* \"#utility.yul\":14649:14657   */\n      dup7\n        /* \"#utility.yul\":14638:14647   */\n      dup4\n        /* \"#utility.yul\":14619:14658   */\n      tag_178\n      jump\t// in\n    tag_349:\n        /* \"#utility.yul\":14607:14658   */\n      swap6\n      pop\n        /* \"#utility.yul\":14691:14695   */\n      dup1\n        /* \"#utility.yul\":14687:14696   */\n      not\n        /* \"#utility.yul\":14680:14685   */\n      dup5\n        /* \"#utility.yul\":14676:14697   */\n      and\n        /* \"#utility.yul\":14667:14697   */\n      swap4\n      pop\n        /* \"#utility.yul\":14740:14744   */\n      dup1\n        /* \"#utility.yul\":14730:14738   */\n      dup7\n        /* \"#utility.yul\":14726:14745   */\n      and\n        /* \"#utility.yul\":14719:14724   */\n      dup5\n        /* \"#utility.yul\":14716:14746   */\n      or\n        /* \"#utility.yul\":14706:14746   */\n      swap3\n      pop\n        /* \"#utility.yul\":14435:14752   */\n      pop\n      pop\n        /* \"#utility.yul\":14359:14752   */\n      swap4\n      swap3\n      pop\n      pop\n      pop\n      jump\t// out\n        /* \"#utility.yul\":14758:14818   */\n    tag_180:\n        /* \"#utility.yul\":14786:14789   */\n      0x00\n        /* \"#utility.yul\":14807:14812   */\n      dup2\n        /* \"#utility.yul\":14800:14812   */\n      swap1\n      pop\n        /* \"#utility.yul\":14758:14818   */\n      swap2\n      swap1\n      pop\n      jump\t// out\n        /* \"#utility.yul\":14824:14966   */\n    tag_181:\n        /* \"#utility.yul\":14874:14883   */\n      0x00\n        /* \"#utility.yul\":14907:14960   */\n      tag_352\n        /* \"#utility.yul\":14925:14959   */\n      tag_353\n        /* \"#utility.yul\":14934:14958   */\n      tag_354\n        /* \"#utility.yul\":14952:14957   */\n      dup5\n        /* \"#utility.yul\":14934:14958   */\n      tag_154\n      jump\t// in\n    tag_354:\n        /* \"#utility.yul\":14925:14959   */\n      tag_180\n      jump\t// in\n    tag_353:\n        /* \"#utility.yul\":14907:14960   */\n      tag_154\n      jump\t// in\n    tag_352:\n        /* \"#utility.yul\":14894:14960   */\n      swap1\n      pop\n        /* \"#utility.yul\":14824:14966   */\n      swap2\n      swap1\n      pop\n      jump\t// out\n        /* \"#utility.yul\":14972:15047   */\n    tag_182:\n        /* \"#utility.yul\":15015:15018   */\n      0x00\n        /* \"#utility.yul\":15036:15041   */\n      dup2\n        /* \"#utility.yul\":15029:15041   */\n      swap1\n      pop\n        /* \"#utility.yul\":14972:15047   */\n      swap2\n      swap1\n      pop\n      jump\t// out\n        /* \"#utility.yul\":15053:15322   */\n    tag_183:\n        /* \"#utility.yul\":15163:15202   */\n      tag_357\n        /* \"#utility.yul\":15194:15201   */\n      dup4\n        /* \"#utility.yul\":15163:15202   */\n      tag_181\n      jump\t// in\n    tag_357:\n        /* \"#utility.yul\":15224:15315   */\n      tag_358\n        /* \"#utility.yul\":15273:15314   */\n      tag_359\n        /* \"#utility.yul\":15297:15313   */\n      dup3\n        /* \"#utility.yul\":15273:15314   */\n      tag_182\n      jump\t// in\n    tag_359:\n        /* \"#utility.yul\":15265:15271   */\n      dup5\n        /* \"#utility.yul\":15258:15262   */\n      dup5\n        /* \"#utility.yul\":15252:15263   */\n      sload\n        /* \"#utility.yul\":15224:15315   */\n      tag_179\n      jump\t// in\n    tag_358:\n        /* \"#utility.yul\":15218:15222   */\n      dup3\n        /* \"#utility.yul\":15211:15316   */\n      sstore\n        /* \"#utility.yul\":15129:15322   */\n      pop\n        /* \"#utility.yul\":15053:15322   */\n      pop\n      pop\n      pop\n      jump\t// out\n        /* \"#utility.yul\":15328:15401   */\n    tag_184:\n        /* \"#utility.yul\":15373:15376   */\n      0x00\n        /* \"#utility.yul\":15328:15401   */\n      swap1\n      jump\t// out\n        /* \"#utility.yul\":15407:15596   */\n    tag_185:\n        /* \"#utility.yul\":15484:15516   */\n      tag_362\n      tag_184\n      jump\t// in\n    tag_362:\n        /* \"#utility.yul\":15525:15590   */\n      tag_363\n        /* \"#utility.yul\":15583:15589   */\n      dup2\n        /* \"#utility.yul\":15575:15581   */\n      dup5\n        /* \"#utility.yul\":15569:15573   */\n      dup5\n        /* \"#utility.yul\":15525:15590   */\n      tag_183\n      jump\t// in\n    tag_363:\n        /* \"#utility.yul\":15460:15596   */\n      pop\n        /* \"#utility.yul\":15407:15596   */\n      pop\n      pop\n      jump\t// out\n        /* \"#utility.yul\":15602:15788   */\n    tag_186:\n        /* \"#utility.yul\":15662:15782   */\n    tag_365:\n        /* \"#utility.yul\":15679:15682   */\n      dup2\n        /* \"#utility.yul\":15672:15677   */\n      dup2\n        /* \"#utility.yul\":15669:15683   */\n      lt\n        /* \"#utility.yul\":15662:15782   */\n      iszero\n      tag_367\n      jumpi\n        /* \"#utility.yul\":15733:15772   */\n      tag_368\n        /* \"#utility.yul\":15770:15771   */\n      0x00\n        /* \"#utility.yul\":15763:15768   */\n      dup3\n        /* \"#utility.yul\":15733:15772   */\n      tag_185\n      jump\t// in\n    tag_368:\n        /* \"#utility.yul\":15706:15707   */\n      0x01\n        /* \"#utility.yul\":15699:15704   */\n      dup2\n        /* \"#utility.yul\":15695:15708   */\n      add\n        /* \"#utility.yul\":15686:15708   */\n      swap1\n      pop\n        /* \"#utility.yul\":15662:15782   */\n      jump(tag_365)\n    tag_367:\n        /* \"#utility.yul\":15602:15788   */\n      pop\n      pop\n      jump\t// out\n        /* \"#utility.yul\":15794:16337   */\n    tag_187:\n        /* \"#utility.yul\":15895:15897   */\n      0x1f\n        /* \"#utility.yul\":15890:15893   */\n      dup3\n        /* \"#utility.yul\":15887:15898   */\n      gt\n        /* \"#utility.yul\":15884:16330   */\n      iszero\n      tag_370\n      jumpi\n        /* \"#utility.yul\":15929:15967   */\n      tag_371\n        /* \"#utility.yul\":15961:15966   */\n      dup2\n        /* \"#utility.yul\":15929:15967   */\n      tag_176\n      jump\t// in\n    tag_371:\n        /* \"#utility.yul\":16013:16042   */\n      tag_372\n        /* \"#utility.yul\":16031:16041   */\n      dup5\n        /* \"#utility.yul\":16013:16042   */\n      tag_177\n      jump\t// in\n    tag_372:\n        /* \"#utility.yul\":16003:16011   */\n      dup2\n        /* \"#utility.yul\":15999:16043   */\n      add\n        /* \"#utility.yul\":16196:16198   */\n      0x20\n        /* \"#utility.yul\":16184:16194   */\n      dup6\n        /* \"#utility.yul\":16181:16199   */\n      lt\n        /* \"#utility.yul\":16178:16227   */\n      iszero\n      tag_373\n      jumpi\n        /* \"#utility.yul\":16217:16225   */\n      dup2\n        /* \"#utility.yul\":16202:16225   */\n      swap1\n      pop\n        /* \"#utility.yul\":16178:16227   */\n    tag_373:\n        /* \"#utility.yul\":16240:16320   */\n      tag_374\n        /* \"#utility.yul\":16296:16318   */\n      tag_375\n        /* \"#utility.yul\":16314:16317   */\n      dup6\n        /* \"#utility.yul\":16296:16318   */\n      tag_177\n      jump\t// in\n    tag_375:\n        /* \"#utility.yul\":16286:16294   */\n      dup4\n        /* \"#utility.yul\":16282:16319   */\n      add\n        /* \"#utility.yul\":16269:16280   */\n      dup3\n        /* \"#utility.yul\":16240:16320   */\n      tag_186\n      jump\t// in\n    tag_374:\n        /* \"#utility.yul\":15899:16330   */\n      pop\n      pop\n        /* \"#utility.yul\":15884:16330   */\n    tag_370:\n        /* \"#utility.yul\":15794:16337   */\n      pop\n      pop\n      pop\n      jump\t// out\n        /* \"#utility.yul\":16343:16460   */\n    tag_188:\n        /* \"#utility.yul\":16397:16405   */\n      0x00\n        /* \"#utility.yul\":16447:16452   */\n      dup3\n        /* \"#utility.yul\":16441:16445   */\n      dup3\n        /* \"#utility.yul\":16437:16453   */\n      shr\n        /* \"#utility.yul\":16416:16453   */\n      swap1\n      pop\n        /* \"#utility.yul\":16343:16460   */\n      swap3\n      swap2\n      pop\n      pop\n      jump\t// out\n        /* \"#utility.yul\":16466:16635   */\n    tag_189:\n        /* \"#utility.yul\":16510:16516   */\n      0x00\n        /* \"#utility.yul\":16543:16594   */\n      tag_378\n        /* \"#utility.yul\":16591:16592   */\n      0x00\n        /* \"#utility.yul\":16587:16593   */\n      not\n        /* \"#utility.yul\":16579:16584   */\n      dup5\n        /* \"#utility.yul\":16576:16577   */\n      0x08\n        /* \"#utility.yul\":16572:16585   */\n      mul\n        /* \"#utility.yul\":16543:16594   */\n      tag_188\n      jump\t// in\n    tag_378:\n        /* \"#utility.yul\":16539:16595   */\n      not\n        /* \"#utility.yul\":16624:16628   */\n      dup1\n        /* \"#utility.yul\":16618:16622   */\n      dup4\n        /* \"#utility.yul\":16614:16629   */\n      and\n        /* \"#utility.yul\":16604:16629   */\n      swap2\n      pop\n        /* \"#utility.yul\":16517:16635   */\n      pop\n        /* \"#utility.yul\":16466:16635   */\n      swap3\n      swap2\n      pop\n      pop\n      jump\t// out\n        /* \"#utility.yul\":16640:16935   */\n    tag_190:\n        /* \"#utility.yul\":16716:16720   */\n      0x00\n        /* \"#utility.yul\":16862:16891   */\n      tag_380\n        /* \"#utility.yul\":16887:16890   */\n      dup4\n        /* \"#utility.yul\":16881:16885   */\n      dup4\n        /* \"#utility.yul\":16862:16891   */\n      tag_189\n      jump\t// in\n    tag_380:\n        /* \"#utility.yul\":16854:16891   */\n      swap2\n      pop\n        /* \"#utility.yul\":16924:16927   */\n      dup3\n        /* \"#utility.yul\":16921:16922   */\n      0x02\n        /* \"#utility.yul\":16917:16928   */\n      mul\n        /* \"#utility.yul\":16911:16915   */\n      dup3\n        /* \"#utility.yul\":16908:16929   */\n      or\n        /* \"#utility.yul\":16900:16929   */\n      swap1\n      pop\n        /* \"#utility.yul\":16640:16935   */\n      swap3\n      swap2\n      pop\n      pop\n      jump\t// out\n        /* \"#utility.yul\":16940:18335   */\n    tag_100:\n        /* \"#utility.yul\":17057:17094   */\n      tag_382\n        /* \"#utility.yul\":17090:17093   */\n      dup3\n        /* \"#utility.yul\":17057:17094   */\n      tag_147\n      jump\t// in\n    tag_382:\n        /* \"#utility.yul\":17159:17177   */\n      0xffffffffffffffff\n        /* \"#utility.yul\":17151:17157   */\n      dup2\n        /* \"#utility.yul\":17148:17178   */\n      gt\n        /* \"#utility.yul\":17145:17201   */\n      iszero\n      tag_383\n      jumpi\n        /* \"#utility.yul\":17181:17199   */\n      tag_384\n      tag_175\n      jump\t// in\n    tag_384:\n        /* \"#utility.yul\":17145:17201   */\n    tag_383:\n        /* \"#utility.yul\":17225:17263   */\n      tag_385\n        /* \"#utility.yul\":17257:17261   */\n      dup3\n        /* \"#utility.yul\":17251:17262   */\n      sload\n        /* \"#utility.yul\":17225:17263   */\n      tag_61\n      jump\t// in\n    tag_385:\n        /* \"#utility.yul\":17310:17377   */\n      tag_386\n        /* \"#utility.yul\":17370:17376   */\n      dup3\n        /* \"#utility.yul\":17362:17368   */\n      dup3\n        /* \"#utility.yul\":17356:17360   */\n      dup6\n        /* \"#utility.yul\":17310:17377   */\n      tag_187\n      jump\t// in\n    tag_386:\n        /* \"#utility.yul\":17404:17405   */\n      0x00\n        /* \"#utility.yul\":17428:17432   */\n      0x20\n        /* \"#utility.yul\":17415:17432   */\n      swap1\n      pop\n        /* \"#utility.yul\":17460:17462   */\n      0x1f\n        /* \"#utility.yul\":17452:17458   */\n      dup4\n        /* \"#utility.yul\":17449:17463   */\n      gt\n        /* \"#utility.yul\":17477:17478   */\n      0x01\n        /* \"#utility.yul\":17472:18090   */\n      dup2\n      eq\n      tag_388\n      jumpi\n        /* \"#utility.yul\":18134:18135   */\n      0x00\n        /* \"#utility.yul\":18151:18157   */\n      dup5\n        /* \"#utility.yul\":18148:18225   */\n      iszero\n      tag_389\n      jumpi\n        /* \"#utility.yul\":18200:18209   */\n      dup3\n        /* \"#utility.yul\":18195:18198   */\n      dup8\n        /* \"#utility.yul\":18191:18210   */\n      add\n        /* \"#utility.yul\":18185:18211   */\n      mload\n        /* \"#utility.yul\":18176:18211   */\n      swap1\n      pop\n        /* \"#utility.yul\":18148:18225   */\n    tag_389:\n        /* \"#utility.yul\":18251:18318   */\n      tag_390\n        /* \"#utility.yul\":18311:18317   */\n      dup6\n        /* \"#utility.yul\":18304:18309   */\n      dup3\n        /* \"#utility.yul\":18251:18318   */\n      tag_190\n      jump\t// in\n    tag_390:\n        /* \"#utility.yul\":18245:18249   */\n      dup7\n        /* \"#utility.yul\":18238:18319   */\n      sstore\n        /* \"#utility.yul\":18107:18329   */\n      pop\n        /* \"#utility.yul\":17442:18329   */\n      jump(tag_387)\n        /* \"#utility.yul\":17472:18090   */\n    tag_388:\n        /* \"#utility.yul\":17524:17528   */\n      0x1f\n        /* \"#utility.yul\":17520:17529   */\n      not\n        /* \"#utility.yul\":17512:17518   */\n      dup5\n        /* \"#utility.yul\":17508:17530   */\n      and\n        /* \"#utility.yul\":17558:17595   */\n      tag_391\n        /* \"#utility.yul\":17590:17594   */\n      dup7\n        /* \"#utility.yul\":17558:17595   */\n      tag_176\n      jump\t// in\n    tag_391:\n        /* \"#utility.yul\":17617:17618   */\n      0x00\n        /* \"#utility.yul\":17631:17839   */\n    tag_392:\n        /* \"#utility.yul\":17645:17652   */\n      dup3\n        /* \"#utility.yul\":17642:17643   */\n      dup2\n        /* \"#utility.yul\":17639:17653   */\n      lt\n        /* \"#utility.yul\":17631:17839   */\n      iszero\n      tag_394\n      jumpi\n        /* \"#utility.yul\":17724:17733   */\n      dup5\n        /* \"#utility.yul\":17719:17722   */\n      dup10\n        /* \"#utility.yul\":17715:17734   */\n      add\n        /* \"#utility.yul\":17709:17735   */\n      mload\n        /* \"#utility.yul\":17701:17707   */\n      dup3\n        /* \"#utility.yul\":17694:17736   */\n      sstore\n        /* \"#utility.yul\":17775:17776   */\n      0x01\n        /* \"#utility.yul\":17767:17773   */\n      dup3\n        /* \"#utility.yul\":17763:17777   */\n      add\n        /* \"#utility.yul\":17753:17777   */\n      swap2\n      pop\n        /* \"#utility.yul\":17822:17824   */\n      0x20\n        /* \"#utility.yul\":17811:17820   */\n      dup6\n        /* \"#utility.yul\":17807:17825   */\n      add\n        /* \"#utility.yul\":17794:17825   */\n      swap5\n      pop\n        /* \"#utility.yul\":17668:17672   */\n      0x20\n        /* \"#utility.yul\":17665:17666   */\n      dup2\n        /* \"#utility.yul\":17661:17673   */\n      add\n        /* \"#utility.yul\":17656:17673   */\n      swap1\n      pop\n        /* \"#utility.yul\":17631:17839   */\n      jump(tag_392)\n    tag_394:\n        /* \"#utility.yul\":17867:17873   */\n      dup7\n        /* \"#utility.yul\":17858:17865   */\n      dup4\n        /* \"#utility.yul\":17855:17874   */\n      lt\n        /* \"#utility.yul\":17852:18031   */\n      iszero\n      tag_395\n      jumpi\n        /* \"#utility.yul\":17925:17934   */\n      dup5\n        /* \"#utility.yul\":17920:17923   */\n      dup10\n        /* \"#utility.yul\":17916:17935   */\n      add\n        /* \"#utility.yul\":17910:17936   */\n      mload\n        /* \"#utility.yul\":17968:18016   */\n      tag_396\n        /* \"#utility.yul\":18010:18014   */\n      0x1f\n        /* \"#utility.yul\":18002:18008   */\n      dup10\n        /* \"#utility.yul\":17998:18015   */\n      and\n        /* \"#utility.yul\":17987:17996   */\n      dup3\n        /* \"#utility.yul\":17968:18016   */\n      tag_189\n      jump\t// in\n    tag_396:\n        /* \"#utility.yul\":17960:17966   */\n      dup4\n        /* \"#utility.yul\":17953:18017   */\n      sstore\n        /* \"#utility.yul\":17875:18031   */\n      pop\n        /* \"#utility.yul\":17852:18031   */\n    tag_395:\n        /* \"#utility.yul\":18077:18078   */\n      0x01\n        /* \"#utility.yul\":18073:18074   */\n      0x02\n        /* \"#utility.yul\":18065:18071   */\n      dup9\n        /* \"#utility.yul\":18061:18075   */\n      mul\n        /* \"#utility.yul\":18057:18079   */\n      add\n        /* \"#utility.yul\":18051:18055   */\n      dup9\n        /* \"#utility.yul\":18044:18080   */\n      sstore\n        /* \"#utility.yul\":17479:18090   */\n      pop\n      pop\n      pop\n        /* \"#utility.yul\":17442:18329   */\n    tag_387:\n      pop\n        /* \"#utility.yul\":17032:18335   */\n      pop\n      pop\n      pop\n        /* \"#utility.yul\":16940:18335   */\n      pop\n      pop\n      jump\t// out\n        /* \"#utility.yul\":18341:18535   */\n    tag_109:\n        /* \"#utility.yul\":18381:18385   */\n      0x00\n        /* \"#utility.yul\":18401:18421   */\n      tag_398\n        /* \"#utility.yul\":18419:18420   */\n      dup3\n        /* \"#utility.yul\":18401:18421   */\n      tag_154\n      jump\t// in\n    tag_398:\n        /* \"#utility.yul\":18396:18421   */\n      swap2\n      pop\n        /* \"#utility.yul\":18435:18455   */\n      tag_399\n        /* \"#utility.yul\":18453:18454   */\n      dup4\n        /* \"#utility.yul\":18435:18455   */\n      tag_154\n      jump\t// in\n    tag_399:\n        /* \"#utility.yul\":18430:18455   */\n      swap3\n      pop\n        /* \"#utility.yul\":18479:18480   */\n      dup3\n        /* \"#utility.yul\":18476:18477   */\n      dup3\n        /* \"#utility.yul\":18472:18481   */\n      sub\n        /* \"#utility.yul\":18464:18481   */\n      swap1\n      pop\n        /* \"#utility.yul\":18503:18504   */\n      dup2\n        /* \"#utility.yul\":18497:18501   */\n      dup2\n        /* \"#utility.yul\":18494:18505   */\n      gt\n        /* \"#utility.yul\":18491:18528   */\n      iszero\n      tag_400\n      jumpi\n        /* \"#utility.yul\":18508:18526   */\n      tag_401\n      tag_173\n      jump\t// in\n    tag_401:\n        /* \"#utility.yul\":18491:18528   */\n    tag_400:\n        /* \"#utility.yul\":18341:18535   */\n      swap3\n      swap2\n      pop\n      pop\n      jump\t// out\n        /* \"#utility.yul\":18565:18882   */\n    tag_191:\n        /* \"#utility.yul\":18663:18666   */\n      0x00\n        /* \"#utility.yul\":18684:18755   */\n      tag_403\n        /* \"#utility.yul\":18748:18754   */\n      dup4\n        /* \"#utility.yul\":18743:18746   */\n      dup6\n        /* \"#utility.yul\":18684:18755   */\n      tag_148\n      jump\t// in\n    tag_403:\n        /* \"#utility.yul\":18677:18755   */\n      swap4\n      pop\n        /* \"#utility.yul\":18765:18821   */\n      tag_404\n        /* \"#utility.yul\":18814:18820   */\n      dup4\n        /* \"#utility.yul\":18809:18812   */\n      dup6\n        /* \"#utility.yul\":18802:18807   */\n      dup5\n        /* \"#utility.yul\":18765:18821   */\n      tag_170\n      jump\t// in\n    tag_404:\n        /* \"#utility.yul\":18846:18875   */\n      tag_405\n        /* \"#utility.yul\":18868:18874   */\n      dup4\n        /* \"#utility.yul\":18846:18875   */\n      tag_150\n      jump\t// in\n    tag_405:\n        /* \"#utility.yul\":18841:18844   */\n      dup5\n        /* \"#utility.yul\":18837:18876   */\n      add\n        /* \"#utility.yul\":18830:18876   */\n      swap1\n      pop\n        /* \"#utility.yul\":18565:18882   */\n      swap4\n      swap3\n      pop\n      pop\n      pop\n      jump\t// out\n        /* \"#utility.yul\":18888:19442   */\n    tag_133:\n        /* \"#utility.yul\":19069:19073   */\n      0x00\n        /* \"#utility.yul\":19107:19109   */\n      0x40\n        /* \"#utility.yul\":19096:19105   */\n      dup3\n        /* \"#utility.yul\":19092:19110   */\n      add\n        /* \"#utility.yul\":19084:19110   */\n      swap1\n      pop\n        /* \"#utility.yul\":19156:19165   */\n      dup2\n        /* \"#utility.yul\":19150:19154   */\n      dup2\n        /* \"#utility.yul\":19146:19166   */\n      sub\n        /* \"#utility.yul\":19142:19143   */\n      0x00\n        /* \"#utility.yul\":19131:19140   */\n      dup4\n        /* \"#utility.yul\":19127:19144   */\n      add\n        /* \"#utility.yul\":19120:19167   */\n      mstore\n        /* \"#utility.yul\":19184:19272   */\n      tag_407\n        /* \"#utility.yul\":19267:19271   */\n      dup2\n        /* \"#utility.yul\":19258:19264   */\n      dup7\n        /* \"#utility.yul\":19250:19256   */\n      dup9\n        /* \"#utility.yul\":19184:19272   */\n      tag_191\n      jump\t// in\n    tag_407:\n        /* \"#utility.yul\":19176:19272   */\n      swap1\n      pop\n        /* \"#utility.yul\":19319:19328   */\n      dup2\n        /* \"#utility.yul\":19313:19317   */\n      dup2\n        /* \"#utility.yul\":19309:19329   */\n      sub\n        /* \"#utility.yul\":19304:19306   */\n      0x20\n        /* \"#utility.yul\":19293:19302   */\n      dup4\n        /* \"#utility.yul\":19289:19307   */\n      add\n        /* \"#utility.yul\":19282:19330   */\n      mstore\n        /* \"#utility.yul\":19347:19435   */\n      tag_408\n        /* \"#utility.yul\":19430:19434   */\n      dup2\n        /* \"#utility.yul\":19421:19427   */\n      dup5\n        /* \"#utility.yul\":19413:19419   */\n      dup7\n        /* \"#utility.yul\":19347:19435   */\n      tag_191\n      jump\t// in\n    tag_408:\n        /* \"#utility.yul\":19339:19435   */\n      swap1\n      pop\n        /* \"#utility.yul\":18888:19442   */\n      swap6\n      swap5\n      pop\n      pop\n      pop\n      pop\n      pop\n      jump\t// out\n        /* \"#utility.yul\":19448:19565   */\n    tag_192:\n        /* \"#utility.yul\":19557:19558   */\n      0x00\n        /* \"#utility.yul\":19554:19555   */\n      dup1\n        /* \"#utility.yul\":19547:19559   */\n      revert\n        /* \"#utility.yul\":19571:19852   */\n    tag_193:\n        /* \"#utility.yul\":19654:19681   */\n      tag_411\n        /* \"#utility.yul\":19676:19680   */\n      dup3\n        /* \"#utility.yul\":19654:19681   */\n      tag_150\n      jump\t// in\n    tag_411:\n        /* \"#utility.yul\":19646:19652   */\n      dup2\n        /* \"#utility.yul\":19642:19682   */\n      add\n        /* \"#utility.yul\":19784:19790   */\n      dup2\n        /* \"#utility.yul\":19772:19782   */\n      dup2\n        /* \"#utility.yul\":19769:19791   */\n      lt\n        /* \"#utility.yul\":19748:19766   */\n      0xffffffffffffffff\n        /* \"#utility.yul\":19736:19746   */\n      dup3\n        /* \"#utility.yul\":19733:19767   */\n      gt\n        /* \"#utility.yul\":19730:19792   */\n      or\n        /* \"#utility.yul\":19727:19815   */\n      iszero\n      tag_412\n      jumpi\n        /* \"#utility.yul\":19795:19813   */\n      tag_413\n      tag_175\n      jump\t// in\n    tag_413:\n        /* \"#utility.yul\":19727:19815   */\n    tag_412:\n        /* \"#utility.yul\":19835:19845   */\n      dup1\n        /* \"#utility.yul\":19831:19833   */\n      0x40\n        /* \"#utility.yul\":19824:19846   */\n      mstore\n        /* \"#utility.yul\":19614:19852   */\n      pop\n        /* \"#utility.yul\":19571:19852   */\n      pop\n      pop\n      jump\t// out\n        /* \"#utility.yul\":19858:19987   */\n    tag_194:\n        /* \"#utility.yul\":19892:19898   */\n      0x00\n        /* \"#utility.yul\":19919:19939   */\n      tag_415\n      tag_140\n      jump\t// in\n    tag_415:\n        /* \"#utility.yul\":19909:19939   */\n      swap1\n      pop\n        /* \"#utility.yul\":19948:19981   */\n      tag_416\n        /* \"#utility.yul\":19976:19980   */\n      dup3\n        /* \"#utility.yul\":19968:19974   */\n      dup3\n        /* \"#utility.yul\":19948:19981   */\n      tag_193\n      jump\t// in\n    tag_416:\n        /* \"#utility.yul\":19858:19987   */\n      swap2\n      swap1\n      pop\n      jump\t// out\n        /* \"#utility.yul\":19993:20301   */\n    tag_195:\n        /* \"#utility.yul\":20055:20059   */\n      0x00\n        /* \"#utility.yul\":20145:20163   */\n      0xffffffffffffffff\n        /* \"#utility.yul\":20137:20143   */\n      dup3\n        /* \"#utility.yul\":20134:20164   */\n      gt\n        /* \"#utility.yul\":20131:20187   */\n      iszero\n      tag_418\n      jumpi\n        /* \"#utility.yul\":20167:20185   */\n      tag_419\n      tag_175\n      jump\t// in\n    tag_419:\n        /* \"#utility.yul\":20131:20187   */\n    tag_418:\n        /* \"#utility.yul\":20205:20234   */\n      tag_420\n        /* \"#utility.yul\":20227:20233   */\n      dup3\n        /* \"#utility.yul\":20205:20234   */\n      tag_150\n      jump\t// in\n    tag_420:\n        /* \"#utility.yul\":20197:20234   */\n      swap1\n      pop\n        /* \"#utility.yul\":20289:20293   */\n      0x20\n        /* \"#utility.yul\":20283:20287   */\n      dup2\n        /* \"#utility.yul\":20279:20294   */\n      add\n        /* \"#utility.yul\":20271:20294   */\n      swap1\n      pop\n        /* \"#utility.yul\":19993:20301   */\n      swap2\n      swap1\n      pop\n      jump\t// out\n        /* \"#utility.yul\":20307:20741   */\n    tag_196:\n        /* \"#utility.yul\":20396:20401   */\n      0x00\n        /* \"#utility.yul\":20421:20487   */\n      tag_422\n        /* \"#utility.yul\":20437:20486   */\n      tag_423\n        /* \"#utility.yul\":20479:20485   */\n      dup5\n        /* \"#utility.yul\":20437:20486   */\n      tag_195\n      jump\t// in\n    tag_423:\n        /* \"#utility.yul\":20421:20487   */\n      tag_194\n      jump\t// in\n    tag_422:\n        /* \"#utility.yul\":20412:20487   */\n      swap1\n      pop\n        /* \"#utility.yul\":20510:20516   */\n      dup3\n        /* \"#utility.yul\":20503:20508   */\n      dup2\n        /* \"#utility.yul\":20496:20517   */\n      mstore\n        /* \"#utility.yul\":20548:20552   */\n      0x20\n        /* \"#utility.yul\":20541:20546   */\n      dup2\n        /* \"#utility.yul\":20537:20553   */\n      add\n        /* \"#utility.yul\":20586:20589   */\n      dup5\n        /* \"#utility.yul\":20577:20583   */\n      dup5\n        /* \"#utility.yul\":20572:20575   */\n      dup5\n        /* \"#utility.yul\":20568:20584   */\n      add\n        /* \"#utility.yul\":20565:20590   */\n      gt\n        /* \"#utility.yul\":20562:20674   */\n      iszero\n      tag_424\n      jumpi\n        /* \"#utility.yul\":20593:20672   */\n      tag_425\n      tag_192\n      jump\t// in\n    tag_425:\n        /* \"#utility.yul\":20562:20674   */\n    tag_424:\n        /* \"#utility.yul\":20683:20735   */\n      tag_426\n        /* \"#utility.yul\":20728:20734   */\n      dup5\n        /* \"#utility.yul\":20723:20726   */\n      dup3\n        /* \"#utility.yul\":20718:20721   */\n      dup6\n        /* \"#utility.yul\":20683:20735   */\n      tag_149\n      jump\t// in\n    tag_426:\n        /* \"#utility.yul\":20402:20741   */\n      pop\n        /* \"#utility.yul\":20307:20741   */\n      swap4\n      swap3\n      pop\n      pop\n      pop\n      jump\t// out\n        /* \"#utility.yul\":20761:21116   */\n    tag_197:\n        /* \"#utility.yul\":20828:20833   */\n      0x00\n        /* \"#utility.yul\":20877:20880   */\n      dup3\n        /* \"#utility.yul\":20870:20874   */\n      0x1f\n        /* \"#utility.yul\":20862:20868   */\n      dup4\n        /* \"#utility.yul\":20858:20875   */\n      add\n        /* \"#utility.yul\":20854:20881   */\n      slt\n        /* \"#utility.yul\":20844:20966   */\n      tag_428\n      jumpi\n        /* \"#utility.yul\":20885:20964   */\n      tag_429\n      tag_143\n      jump\t// in\n    tag_429:\n        /* \"#utility.yul\":20844:20966   */\n    tag_428:\n        /* \"#utility.yul\":20995:21001   */\n      dup2\n        /* \"#utility.yul\":20989:21002   */\n      mload\n        /* \"#utility.yul\":21020:21110   */\n      tag_430\n        /* \"#utility.yul\":21106:21109   */\n      dup5\n        /* \"#utility.yul\":21098:21104   */\n      dup3\n        /* \"#utility.yul\":21091:21095   */\n      0x20\n        /* \"#utility.yul\":21083:21089   */\n      dup7\n        /* \"#utility.yul\":21079:21096   */\n      add\n        /* \"#utility.yul\":21020:21110   */\n      tag_196\n      jump\t// in\n    tag_430:\n        /* \"#utility.yul\":21011:21110   */\n      swap2\n      pop\n        /* \"#utility.yul\":20834:21116   */\n      pop\n        /* \"#utility.yul\":20761:21116   */\n      swap3\n      swap2\n      pop\n      pop\n      jump\t// out\n        /* \"#utility.yul\":21122:21646   */\n    tag_137:\n        /* \"#utility.yul\":21202:21208   */\n      0x00\n        /* \"#utility.yul\":21251:21253   */\n      0x20\n        /* \"#utility.yul\":21239:21248   */\n      dup3\n        /* \"#utility.yul\":21230:21237   */\n      dup5\n        /* \"#utility.yul\":21226:21249   */\n      sub\n        /* \"#utility.yul\":21222:21254   */\n      slt\n        /* \"#utility.yul\":21219:21338   */\n      iszero\n      tag_432\n      jumpi\n        /* \"#utility.yul\":21257:21336   */\n      tag_433\n      tag_141\n      jump\t// in\n    tag_433:\n        /* \"#utility.yul\":21219:21338   */\n    tag_432:\n        /* \"#utility.yul\":21398:21399   */\n      0x00\n        /* \"#utility.yul\":21387:21396   */\n      dup3\n        /* \"#utility.yul\":21383:21400   */\n      add\n        /* \"#utility.yul\":21377:21401   */\n      mload\n        /* \"#utility.yul\":21428:21446   */\n      0xffffffffffffffff\n        /* \"#utility.yul\":21420:21426   */\n      dup2\n        /* \"#utility.yul\":21417:21447   */\n      gt\n        /* \"#utility.yul\":21414:21531   */\n      iszero\n      tag_434\n      jumpi\n        /* \"#utility.yul\":21450:21529   */\n      tag_435\n      tag_142\n      jump\t// in\n    tag_435:\n        /* \"#utility.yul\":21414:21531   */\n    tag_434:\n        /* \"#utility.yul\":21555:21629   */\n      tag_436\n        /* \"#utility.yul\":21621:21628   */\n      dup5\n        /* \"#utility.yul\":21612:21618   */\n      dup3\n        /* \"#utility.yul\":21601:21610   */\n      dup6\n        /* \"#utility.yul\":21597:21619   */\n      add\n        /* \"#utility.yul\":21555:21629   */\n      tag_197\n      jump\t// in\n    tag_436:\n        /* \"#utility.yul\":21545:21629   */\n      swap2\n      pop\n        /* \"#utility.yul\":21348:21639   */\n      pop\n        /* \"#utility.yul\":21122:21646   */\n      swap3\n      swap2\n      pop\n      pop\n      jump\t// out\n\n    auxdata: 0xa264697066735822122046777442d38e81f1641eaf48a485d23c7508fc81635251552f5c74539f5e64a364736f6c634300081a0033\n}\n",
				"bytecode": {
					"linkReferences": {},
					"object": "6080604052348015600e575f80fd5b506119438061001c5f395ff3fe608060405234801561000f575f80fd5b506004361061007b575f3560e01c8063c9e2c5e311610059578063c9e2c5e314610115578063ce9d915a14610131578063e9d51bae1461014d578063febf21f5146101695761007b565b8063591c515f1461007f57806363a88bcf146100af57806368744046146100df575b5f80fd5b61009960048036038101906100949190610df9565b610185565b6040516100a69190610ee7565b60405180910390f35b6100c960048036038101906100c49190610df9565b6101b7565b6040516100d69190610f21565b60405180910390f35b6100f960048036038101906100f49190610f6d565b6102ab565b60405161010c9796959493929190611059565b60405180910390f35b61012f600480360381019061012a91906110d4565b61042f565b005b61014b600480360381019061014691906110d4565b6106bc565b005b61016760048036038101906101629190611188565b610930565b005b610183600480360381019061017e9190611243565b610ab2565b005b60608484848460405160200161019e9493929190611310565b6040516020818303038152906040529050949350505050565b5f806101c586868686610c80565b90505f6001826040516101d89190611367565b90815260200160405180910390206040518060400160405290815f8201548152602001600182015f9054906101000a900460ff16151515158152505090505f15158160200151151503610257576040517f76fc34c900000000000000000000000000000000000000000000000000000000815260040160405180910390fd5b5f80825f01518154811061026e5761026d61137d565b5b905f5260205f20906006020190506001816005015f82825461029091906113d7565b92505081905550806003015442119350505050949350505050565b5f81815481106102b9575f80fd5b905f5260205f2090600602015f91509050805f0180546102d890611437565b80601f016020809104026020016040519081016040528092919081815260200182805461030490611437565b801561034f5780601f106103265761010080835404028352916020019161034f565b820191905f5260205f20905b81548152906001019060200180831161033257829003601f168201915b50505050509080600101805461036490611437565b80601f016020809104026020016040519081016040528092919081815260200182805461039090611437565b80156103db5780601f106103b2576101008083540402835291602001916103db565b820191905f5260205f20905b8154815290600101906020018083116103be57829003601f168201915b505050505090806002015490806003015490806004015f9054906101000a900460ff16908060040160019054906101000a900473ffffffffffffffffffffffffffffffffffffffff16908060050154905087565b5f61043c86868686610c80565b90505f60018260405161044f9190611367565b90815260200160405180910390206040518060400160405290815f8201548152602001600182015f9054906101000a900460ff16151515158152505090505f151581602001511515036104ce576040517f76fc34c900000000000000000000000000000000000000000000000000000000815260040160405180910390fd5b5f80825f0151815481106104e5576104e461137d565b5b905f5260205f20906006020190508060040160019054906101000a900473ffffffffffffffffffffffffffffffffffffffff1673ffffffffffffffffffffffffffffffffffffffff163373ffffffffffffffffffffffffffffffffffffffff160361057a5762015180846105599190611467565b816003015f82825461056b91906113d7565b925050819055505050506106b5565b5f60028460405161058b9190611367565b908152602001604051809103902080548060200260200160405190810160405280929190818152602001828054801561061657602002820191905f5260205f20905b815f9054906101000a900473ffffffffffffffffffffffffffffffffffffffff1673ffffffffffffffffffffffffffffffffffffffff16815260200190600101908083116105cd575b505050505090505f5b81518110156106af5781818151811061063b5761063a61137d565b5b602002602001015173ffffffffffffffffffffffffffffffffffffffff163373ffffffffffffffffffffffffffffffffffffffff16036106a25762015180866106849190611467565b836003015f82825461069691906113d7565b925050819055506106af565b808060010191505061061f565b50505050505b5050505050565b6106c4610d0d565b85858080601f0160208091040260200160405190810160405280939291908181526020018383808284375f81840152601f19601f82011690508083019250505050505050815f018190525083838080601f0160208091040260200160405190810160405280939291908181526020018383808284375f81840152601f19601f8201169050808301925050505050505081602001819052506001826107689190611467565b4261077391906113d7565b816060018181525050338160a0019073ffffffffffffffffffffffffffffffffffffffff16908173ffffffffffffffffffffffffffffffffffffffff16815250505f81908060018154018082558091505060019003905f5260205f2090600602015f909190919091505f820151815f0190816107ef9190611672565b5060208201518160010190816108059190611672565b5060408201518160020155606082015181600301556080820151816004015f6101000a81548160ff0219169083600281111561084457610843610fa7565b5b021790555060a08201518160040160016101000a81548173ffffffffffffffffffffffffffffffffffffffff021916908373ffffffffffffffffffffffffffffffffffffffff16021790555060c0820151816005015550505f6108a987878787610c80565b90506108b3610d6d565b60015f805490506108c49190611741565b815f0181815250506001816020019015159081151581525050806001836040516108ee9190611367565b90815260200160405180910390205f820151815f01556020820151816001015f6101000a81548160ff0219169083151502179055509050505050505050505050565b5f61093d86868686610c80565b90505f6001826040516109509190611367565b90815260200160405180910390206040518060400160405290815f8201548152602001600182015f9054906101000a900460ff16151515158152505090505f151581602001511515036109cf576040517f76fc34c900000000000000000000000000000000000000000000000000000000815260040160405180910390fd5b5f80825f0151815481106109e6576109e561137d565b5b905f5260205f20906006020190508060040160019054906101000a900473ffffffffffffffffffffffffffffffffffffffff1673ffffffffffffffffffffffffffffffffffffffff163373ffffffffffffffffffffffffffffffffffffffff1614610a7d576040517f344fd58600000000000000000000000000000000000000000000000000000000815260040160405180910390fd5b83816004015f6101000a81548160ff02191690836002811115610aa357610aa2610fa7565b5b02179055505050505050505050565b5f610abf86868686610c80565b90505f600182604051610ad29190611367565b90815260200160405180910390206040518060400160405290815f8201548152602001600182015f9054906101000a900460ff16151515158152505090505f15158160200151151503610b51576040517f76fc34c900000000000000000000000000000000000000000000000000000000815260040160405180910390fd5b5f815f015181548110610b6757610b6661137d565b5b905f5260205f20906006020160040160019054906101000a900473ffffffffffffffffffffffffffffffffffffffff1673ffffffffffffffffffffffffffffffffffffffff163373ffffffffffffffffffffffffffffffffffffffff1614610bfb576040517f344fd58600000000000000000000000000000000000000000000000000000000815260040160405180910390fd5b600282604051610c0b9190611367565b908152602001604051809103902083908060018154018082558091505060019003905f5260205f20015f9091909190916101000a81548173ffffffffffffffffffffffffffffffffffffffff021916908373ffffffffffffffffffffffffffffffffffffffff16021790555050505050505050565b60603073ffffffffffffffffffffffffffffffffffffffff1663591c515f868686866040518563ffffffff1660e01b8152600401610cc194939291906117a0565b5f60405180830381865afa158015610cdb573d5f803e3d5ffd5b505050506040513d5f823e3d601f19601f82011682018060405250810190610d0391906118c6565b9050949350505050565b6040518060e0016040528060608152602001606081526020015f81526020015f81526020015f6002811115610d4557610d44610fa7565b5b81526020015f73ffffffffffffffffffffffffffffffffffffffff1681526020015f81525090565b60405180604001604052805f81526020015f151581525090565b5f604051905090565b5f80fd5b5f80fd5b5f80fd5b5f80fd5b5f80fd5b5f8083601f840112610db957610db8610d98565b5b8235905067ffffffffffffffff811115610dd657610dd5610d9c565b5b602083019150836001820283011115610df257610df1610da0565b5b9250929050565b5f805f8060408587031215610e1157610e10610d90565b5b5f85013567ffffffffffffffff811115610e2e57610e2d610d94565b5b610e3a87828801610da4565b9450945050602085013567ffffffffffffffff811115610e5d57610e5c610d94565b5b610e6987828801610da4565b925092505092959194509250565b5f81519050919050565b5f82825260208201905092915050565b8281835e5f83830152505050565b5f601f19601f8301169050919050565b5f610eb982610e77565b610ec38185610e81565b9350610ed3818560208601610e91565b610edc81610e9f565b840191505092915050565b5f6020820190508181035f830152610eff8184610eaf565b905092915050565b5f8115159050919050565b610f1b81610f07565b82525050565b5f602082019050610f345f830184610f12565b92915050565b5f819050919050565b610f4c81610f3a565b8114610f56575f80fd5b50565b5f81359050610f6781610f43565b92915050565b5f60208284031215610f8257610f81610d90565b5b5f610f8f84828501610f59565b91505092915050565b610fa181610f3a565b82525050565b7f4e487b71000000000000000000000000000000000000000000000000000000005f52602160045260245ffd5b60038110610fe557610fe4610fa7565b5b50565b5f819050610ff582610fd4565b919050565b5f61100482610fe8565b9050919050565b61101481610ffa565b82525050565b5f73ffffffffffffffffffffffffffffffffffffffff82169050919050565b5f6110438261101a565b9050919050565b61105381611039565b82525050565b5f60e0820190508181035f830152611071818a610eaf565b905081810360208301526110858189610eaf565b90506110946040830188610f98565b6110a16060830187610f98565b6110ae608083018661100b565b6110bb60a083018561104a565b6110c860c0830184610f98565b98975050505050505050565b5f805f805f606086880312156110ed576110ec610d90565b5b5f86013567ffffffffffffffff81111561110a57611109610d94565b5b61111688828901610da4565b9550955050602086013567ffffffffffffffff81111561113957611138610d94565b5b61114588828901610da4565b9350935050604061115888828901610f59565b9150509295509295909350565b60038110611171575f80fd5b50565b5f8135905061118281611165565b92915050565b5f805f805f606086880312156111a1576111a0610d90565b5b5f86013567ffffffffffffffff8111156111be576111bd610d94565b5b6111ca88828901610da4565b9550955050602086013567ffffffffffffffff8111156111ed576111ec610d94565b5b6111f988828901610da4565b9350935050604061120c88828901611174565b9150509295509295909350565b61122281611039565b811461122c575f80fd5b50565b5f8135905061123d81611219565b92915050565b5f805f805f6060868803121561125c5761125b610d90565b5b5f86013567ffffffffffffffff81111561127957611278610d94565b5b61128588828901610da4565b9550955050602086013567ffffffffffffffff8111156112a8576112a7610d94565b5b6112b488828901610da4565b935093505060406112c78882890161122f565b9150509295509295909350565b5f81905092915050565b828183375f83830152505050565b5f6112f783856112d4565b93506113048385846112de565b82840190509392505050565b5f61131c8286886112ec565b91506113298284866112ec565b915081905095945050505050565b5f61134182610e77565b61134b81856112d4565b935061135b818560208601610e91565b80840191505092915050565b5f6113728284611337565b915081905092915050565b7f4e487b71000000000000000000000000000000000000000000000000000000005f52603260045260245ffd5b7f4e487b71000000000000000000000000000000000000000000000000000000005f52601160045260245ffd5b5f6113e182610f3a565b91506113ec83610f3a565b9250828201905080821115611404576114036113aa565b5b92915050565b7f4e487b71000000000000000000000000000000000000000000000000000000005f52602260045260245ffd5b5f600282049050600182168061144e57607f821691505b6020821081036114615761146061140a565b5b50919050565b5f61147182610f3a565b915061147c83610f3a565b925082820261148a81610f3a565b915082820484148315176114a1576114a06113aa565b5b5092915050565b7f4e487b71000000000000000000000000000000000000000000000000000000005f52604160045260245ffd5b5f819050815f5260205f209050919050565b5f6020601f8301049050919050565b5f82821b905092915050565b5f600883026115317fffffffffffffffffffffffffffffffffffffffffffffffffffffffffffffffff826114f6565b61153b86836114f6565b95508019841693508086168417925050509392505050565b5f819050919050565b5f61157661157161156c84610f3a565b611553565b610f3a565b9050919050565b5f819050919050565b61158f8361155c565b6115a361159b8261157d565b848454611502565b825550505050565b5f90565b6115b76115ab565b6115c2818484611586565b505050565b5b818110156115e5576115da5f826115af565b6001810190506115c8565b5050565b601f82111561162a576115fb816114d5565b611604846114e7565b81016020851015611613578190505b61162761161f856114e7565b8301826115c7565b50505b505050565b5f82821c905092915050565b5f61164a5f198460080261162f565b1980831691505092915050565b5f611662838361163b565b9150826002028217905092915050565b61167b82610e77565b67ffffffffffffffff811115611694576116936114a8565b5b61169e8254611437565b6116a98282856115e9565b5f60209050601f8311600181146116da575f84156116c8578287015190505b6116d28582611657565b865550611739565b601f1984166116e8866114d5565b5f5b8281101561170f578489015182556001820191506020850194506020810190506116ea565b8683101561172c5784890151611728601f89168261163b565b8355505b6001600288020188555050505b505050505050565b5f61174b82610f3a565b915061175683610f3a565b925082820390508181111561176e5761176d6113aa565b5b92915050565b5f61177f8385610e81565b935061178c8385846112de565b61179583610e9f565b840190509392505050565b5f6040820190508181035f8301526117b9818688611774565b905081810360208301526117ce818486611774565b905095945050505050565b5f80fd5b6117e682610e9f565b810181811067ffffffffffffffff82111715611805576118046114a8565b5b80604052505050565b5f611817610d87565b905061182382826117dd565b919050565b5f67ffffffffffffffff821115611842576118416114a8565b5b61184b82610e9f565b9050602081019050919050565b5f61186a61186584611828565b61180e565b905082815260208101848484011115611886576118856117d9565b5b611891848285610e91565b509392505050565b5f82601f8301126118ad576118ac610d98565b5b81516118bd848260208601611858565b91505092915050565b5f602082840312156118db576118da610d90565b5b5f82015167ffffffffffffffff8111156118f8576118f7610d94565b5b61190484828501611899565b9150509291505056fea264697066735822122046777442d38e81f1641eaf48a485d23c7508fc81635251552f5c74539f5e64a364736f6c634300081a0033",
					"opcodes": "PUSH1 0x80 PUSH1 0x40 MSTORE CALLVALUE DUP1 ISZERO PUSH1 0xE JUMPI PUSH0 DUP1 REVERT JUMPDEST POP PUSH2 0x1943 DUP1 PUSH2 0x1C PUSH0 CODECOPY PUSH0 RETURN INVALID PUSH1 0x80 PUSH1 0x40 MSTORE CALLVALUE DUP1 ISZERO PUSH2 0xF JUMPI PUSH0 DUP1 REVERT JUMPDEST POP PUSH1 0x4 CALLDATASIZE LT PUSH2 0x7B JUMPI PUSH0 CALLDATALOAD PUSH1 0xE0 SHR DUP1 PUSH4 0xC9E2C5E3 GT PUSH2 0x59 JUMPI DUP1 PUSH4 0xC9E2C5E3 EQ PUSH2 0x115 JUMPI DUP1 PUSH4 0xCE9D915A EQ PUSH2 0x131 JUMPI DUP1 PUSH4 0xE9D51BAE EQ PUSH2 0x14D JUMPI DUP1 PUSH4 0xFEBF21F5 EQ PUSH2 0x169 JUMPI PUSH2 0x7B JUMP JUMPDEST DUP1 PUSH4 0x591C515F EQ PUSH2 0x7F JUMPI DUP1 PUSH4 0x63A88BCF EQ PUSH2 0xAF JUMPI DUP1 PUSH4 0x68744046 EQ PUSH2 0xDF JUMPI JUMPDEST PUSH0 DUP1 REVERT JUMPDEST PUSH2 0x99 PUSH1 0x4 DUP1 CALLDATASIZE SUB DUP2 ADD SWAP1 PUSH2 0x94 SWAP2 SWAP1 PUSH2 0xDF9 JUMP JUMPDEST PUSH2 0x185 JUMP JUMPDEST PUSH1 0x40 MLOAD PUSH2 0xA6 SWAP2 SWAP1 PUSH2 0xEE7 JUMP JUMPDEST PUSH1 0x40 MLOAD DUP1 SWAP2 SUB SWAP1 RETURN JUMPDEST PUSH2 0xC9 PUSH1 0x4 DUP1 CALLDATASIZE SUB DUP2 ADD SWAP1 PUSH2 0xC4 SWAP2 SWAP1 PUSH2 0xDF9 JUMP JUMPDEST PUSH2 0x1B7 JUMP JUMPDEST PUSH1 0x40 MLOAD PUSH2 0xD6 SWAP2 SWAP1 PUSH2 0xF21 JUMP JUMPDEST PUSH1 0x40 MLOAD DUP1 SWAP2 SUB SWAP1 RETURN JUMPDEST PUSH2 0xF9 PUSH1 0x4 DUP1 CALLDATASIZE SUB DUP2 ADD SWAP1 PUSH2 0xF4 SWAP2 SWAP1 PUSH2 0xF6D JUMP JUMPDEST PUSH2 0x2AB JUMP JUMPDEST PUSH1 0x40 MLOAD PUSH2 0x10C SWAP8 SWAP7 SWAP6 SWAP5 SWAP4 SWAP3 SWAP2 SWAP1 PUSH2 0x1059 JUMP JUMPDEST PUSH1 0x40 MLOAD DUP1 SWAP2 SUB SWAP1 RETURN JUMPDEST PUSH2 0x12F PUSH1 0x4 DUP1 CALLDATASIZE SUB DUP2 ADD SWAP1 PUSH2 0x12A SWAP2 SWAP1 PUSH2 0x10D4 JUMP JUMPDEST PUSH2 0x42F JUMP JUMPDEST STOP JUMPDEST PUSH2 0x14B PUSH1 0x4 DUP1 CALLDATASIZE SUB DUP2 ADD SWAP1 PUSH2 0x146 SWAP2 SWAP1 PUSH2 0x10D4 JUMP JUMPDEST PUSH2 0x6BC JUMP JUMPDEST STOP JUMPDEST PUSH2 0x167 PUSH1 0x4 DUP1 CALLDATASIZE SUB DUP2 ADD SWAP1 PUSH2 0x162 SWAP2 SWAP1 PUSH2 0x1188 JUMP JUMPDEST PUSH2 0x930 JUMP JUMPDEST STOP JUMPDEST PUSH2 0x183 PUSH1 0x4 DUP1 CALLDATASIZE SUB DUP2 ADD SWAP1 PUSH2 0x17E SWAP2 SWAP1 PUSH2 0x1243 JUMP JUMPDEST PUSH2 0xAB2 JUMP JUMPDEST STOP JUMPDEST PUSH1 0x60 DUP5 DUP5 DUP5 DUP5 PUSH1 0x40 MLOAD PUSH1 0x20 ADD PUSH2 0x19E SWAP5 SWAP4 SWAP3 SWAP2 SWAP1 PUSH2 0x1310 JUMP JUMPDEST PUSH1 0x40 MLOAD PUSH1 0x20 DUP2 DUP4 SUB SUB DUP2 MSTORE SWAP1 PUSH1 0x40 MSTORE SWAP1 POP SWAP5 SWAP4 POP POP POP POP JUMP JUMPDEST PUSH0 DUP1 PUSH2 0x1C5 DUP7 DUP7 DUP7 DUP7 PUSH2 0xC80 JUMP JUMPDEST SWAP1 POP PUSH0 PUSH1 0x1 DUP3 PUSH1 0x40 MLOAD PUSH2 0x1D8 SWAP2 SWAP1 PUSH2 0x1367 JUMP JUMPDEST SWAP1 DUP2 MSTORE PUSH1 0x20 ADD PUSH1 0x40 MLOAD DUP1 SWAP2 SUB SWAP1 KECCAK256 PUSH1 0x40 MLOAD DUP1 PUSH1 0x40 ADD PUSH1 0x40 MSTORE SWAP1 DUP2 PUSH0 DUP3 ADD SLOAD DUP2 MSTORE PUSH1 0x20 ADD PUSH1 0x1 DUP3 ADD PUSH0 SWAP1 SLOAD SWAP1 PUSH2 0x100 EXP SWAP1 DIV PUSH1 0xFF AND ISZERO ISZERO ISZERO ISZERO DUP2 MSTORE POP POP SWAP1 POP PUSH0 ISZERO ISZERO DUP2 PUSH1 0x20 ADD MLOAD ISZERO ISZERO SUB PUSH2 0x257 JUMPI PUSH1 0x40 MLOAD PUSH32 0x76FC34C900000000000000000000000000000000000000000000000000000000 DUP2 MSTORE PUSH1 0x4 ADD PUSH1 0x40 MLOAD DUP1 SWAP2 SUB SWAP1 REVERT JUMPDEST PUSH0 DUP1 DUP3 PUSH0 ADD MLOAD DUP2 SLOAD DUP2 LT PUSH2 0x26E JUMPI PUSH2 0x26D PUSH2 0x137D JUMP JUMPDEST JUMPDEST SWAP1 PUSH0 MSTORE PUSH1 0x20 PUSH0 KECCAK256 SWAP1 PUSH1 0x6 MUL ADD SWAP1 POP PUSH1 0x1 DUP2 PUSH1 0x5 ADD PUSH0 DUP3 DUP3 SLOAD PUSH2 0x290 SWAP2 SWAP1 PUSH2 0x13D7 JUMP JUMPDEST SWAP3 POP POP DUP2 SWAP1 SSTORE POP DUP1 PUSH1 0x3 ADD SLOAD TIMESTAMP GT SWAP4 POP POP POP POP SWAP5 SWAP4 POP POP POP POP JUMP JUMPDEST PUSH0 DUP2 DUP2 SLOAD DUP2 LT PUSH2 0x2B9 JUMPI PUSH0 DUP1 REVERT JUMPDEST SWAP1 PUSH0 MSTORE PUSH1 0x20 PUSH0 KECCAK256 SWAP1 PUSH1 0x6 MUL ADD PUSH0 SWAP2 POP SWAP1 POP DUP1 PUSH0 ADD DUP1 SLOAD PUSH2 0x2D8 SWAP1 PUSH2 0x1437 JUMP JUMPDEST DUP1 PUSH1 0x1F ADD PUSH1 0x20 DUP1 SWAP2 DIV MUL PUSH1 0x20 ADD PUSH1 0x40 MLOAD SWAP1 DUP2 ADD PUSH1 0x40 MSTORE DUP1 SWAP3 SWAP2 SWAP1 DUP2 DUP2 MSTORE PUSH1 0x20 ADD DUP3 DUP1 SLOAD PUSH2 0x304 SWAP1 PUSH2 0x1437 JUMP JUMPDEST DUP1 ISZERO PUSH2 0x34F JUMPI DUP1 PUSH1 0x1F LT PUSH2 0x326 JUMPI PUSH2 0x100 DUP1 DUP4 SLOAD DIV MUL DUP4 MSTORE SWAP2 PUSH1 0x20 ADD SWAP2 PUSH2 0x34F JUMP JUMPDEST DUP3 ADD SWAP2 SWAP1 PUSH0 MSTORE PUSH1 0x20 PUSH0 KECCAK256 SWAP1 JUMPDEST DUP2 SLOAD DUP2 MSTORE SWAP1 PUSH1 0x1 ADD SWAP1 PUSH1 0x20 ADD DUP1 DUP4 GT PUSH2 0x332 JUMPI DUP3 SWAP1 SUB PUSH1 0x1F AND DUP3 ADD SWAP2 JUMPDEST POP POP POP POP POP SWAP1 DUP1 PUSH1 0x1 ADD DUP1 SLOAD PUSH2 0x364 SWAP1 PUSH2 0x1437 JUMP JUMPDEST DUP1 PUSH1 0x1F ADD PUSH1 0x20 DUP1 SWAP2 DIV MUL PUSH1 0x20 ADD PUSH1 0x40 MLOAD SWAP1 DUP2 ADD PUSH1 0x40 MSTORE DUP1 SWAP3 SWAP2 SWAP1 DUP2 DUP2 MSTORE PUSH1 0x20 ADD DUP3 DUP1 SLOAD PUSH2 0x390 SWAP1 PUSH2 0x1437 JUMP JUMPDEST DUP1 ISZERO PUSH2 0x3DB JUMPI DUP1 PUSH1 0x1F LT PUSH2 0x3B2 JUMPI PUSH2 0x100 DUP1 DUP4 SLOAD DIV MUL DUP4 MSTORE SWAP2 PUSH1 0x20 ADD SWAP2 PUSH2 0x3DB JUMP JUMPDEST DUP3 ADD SWAP2 SWAP1 PUSH0 MSTORE PUSH1 0x20 PUSH0 KECCAK256 SWAP1 JUMPDEST DUP2 SLOAD DUP2 MSTORE SWAP1 PUSH1 0x1 ADD SWAP1 PUSH1 0x20 ADD DUP1 DUP4 GT PUSH2 0x3BE JUMPI DUP3 SWAP1 SUB PUSH1 0x1F AND DUP3 ADD SWAP2 JUMPDEST POP POP POP POP POP SWAP1 DUP1 PUSH1 0x2 ADD SLOAD SWAP1 DUP1 PUSH1 0x3 ADD SLOAD SWAP1 DUP1 PUSH1 0x4 ADD PUSH0 SWAP1 SLOAD SWAP1 PUSH2 0x100 EXP SWAP1 DIV PUSH1 0xFF AND SWAP1 DUP1 PUSH1 0x4 ADD PUSH1 0x1 SWAP1 SLOAD SWAP1 PUSH2 0x100 EXP SWAP1 DIV PUSH20 0xFFFFFFFFFFFFFFFFFFFFFFFFFFFFFFFFFFFFFFFF AND SWAP1 DUP1 PUSH1 0x5 ADD SLOAD SWAP1 POP DUP8 JUMP JUMPDEST PUSH0 PUSH2 0x43C DUP7 DUP7 DUP7 DUP7 PUSH2 0xC80 JUMP JUMPDEST SWAP1 POP PUSH0 PUSH1 0x1 DUP3 PUSH1 0x40 MLOAD PUSH2 0x44F SWAP2 SWAP1 PUSH2 0x1367 JUMP JUMPDEST SWAP1 DUP2 MSTORE PUSH1 0x20 ADD PUSH1 0x40 MLOAD DUP1 SWAP2 SUB SWAP1 KECCAK256 PUSH1 0x40 MLOAD DUP1 PUSH1 0x40 ADD PUSH1 0x40 MSTORE SWAP1 DUP2 PUSH0 DUP3 ADD SLOAD DUP2 MSTORE PUSH1 0x20 ADD PUSH1 0x1 DUP3 ADD PUSH0 SWAP1 SLOAD SWAP1 PUSH2 0x100 EXP SWAP1 DIV PUSH1 0xFF AND ISZERO ISZERO ISZERO ISZERO DUP2 MSTORE POP POP SWAP1 POP PUSH0 ISZERO ISZERO DUP2 PUSH1 0x20 ADD MLOAD ISZERO ISZERO SUB PUSH2 0x4CE JUMPI PUSH1 0x40 MLOAD PUSH32 0x76FC34C900000000000000000000000000000000000000000000000000000000 DUP2 MSTORE PUSH1 0x4 ADD PUSH1 0x40 MLOAD DUP1 SWAP2 SUB SWAP1 REVERT JUMPDEST PUSH0 DUP1 DUP3 PUSH0 ADD MLOAD DUP2 SLOAD DUP2 LT PUSH2 0x4E5 JUMPI PUSH2 0x4E4 PUSH2 0x137D JUMP JUMPDEST JUMPDEST SWAP1 PUSH0 MSTORE PUSH1 0x20 PUSH0 KECCAK256 SWAP1 PUSH1 0x6 MUL ADD SWAP1 POP DUP1 PUSH1 0x4 ADD PUSH1 0x1 SWAP1 SLOAD SWAP1 PUSH2 0x100 EXP SWAP1 DIV PUSH20 0xFFFFFFFFFFFFFFFFFFFFFFFFFFFFFFFFFFFFFFFF AND PUSH20 0xFFFFFFFFFFFFFFFFFFFFFFFFFFFFFFFFFFFFFFFF AND CALLER PUSH20 0xFFFFFFFFFFFFFFFFFFFFFFFFFFFFFFFFFFFFFFFF AND SUB PUSH2 0x57A JUMPI PUSH3 0x15180 DUP5 PUSH2 0x559 SWAP2 SWAP1 PUSH2 0x1467 JUMP JUMPDEST DUP2 PUSH1 0x3 ADD PUSH0 DUP3 DUP3 SLOAD PUSH2 0x56B SWAP2 SWAP1 PUSH2 0x13D7 JUMP JUMPDEST SWAP3 POP POP DUP2 SWAP1 SSTORE POP POP POP POP PUSH2 0x6B5 JUMP JUMPDEST PUSH0 PUSH1 0x2 DUP5 PUSH1 0x40 MLOAD PUSH2 0x58B SWAP2 SWAP1 PUSH2 0x1367 JUMP JUMPDEST SWAP1 DUP2 MSTORE PUSH1 0x20 ADD PUSH1 0x40 MLOAD DUP1 SWAP2 SUB SWAP1 KECCAK256 DUP1 SLOAD DUP1 PUSH1 0x20 MUL PUSH1 0x20 ADD PUSH1 0x40 MLOAD SWAP1 DUP2 ADD PUSH1 0x40 MSTORE DUP1 SWAP3 SWAP2 SWAP1 DUP2 DUP2 MSTORE PUSH1 0x20 ADD DUP3 DUP1 SLOAD DUP1 ISZERO PUSH2 0x616 JUMPI PUSH1 0x20 MUL DUP3 ADD SWAP2 SWAP1 PUSH0 MSTORE PUSH1 0x20 PUSH0 KECCAK256 SWAP1 JUMPDEST DUP2 PUSH0 SWAP1 SLOAD SWAP1 PUSH2 0x100 EXP SWAP1 DIV PUSH20 0xFFFFFFFFFFFFFFFFFFFFFFFFFFFFFFFFFFFFFFFF AND PUSH20 0xFFFFFFFFFFFFFFFFFFFFFFFFFFFFFFFFFFFFFFFF AND DUP2 MSTORE PUSH1 0x20 ADD SWAP1 PUSH1 0x1 ADD SWAP1 DUP1 DUP4 GT PUSH2 0x5CD JUMPI JUMPDEST POP POP POP POP POP SWAP1 POP PUSH0 JUMPDEST DUP2 MLOAD DUP2 LT ISZERO PUSH2 0x6AF JUMPI DUP2 DUP2 DUP2 MLOAD DUP2 LT PUSH2 0x63B JUMPI PUSH2 0x63A PUSH2 0x137D JUMP JUMPDEST JUMPDEST PUSH1 0x20 MUL PUSH1 0x20 ADD ADD MLOAD PUSH20 0xFFFFFFFFFFFFFFFFFFFFFFFFFFFFFFFFFFFFFFFF AND CALLER PUSH20 0xFFFFFFFFFFFFFFFFFFFFFFFFFFFFFFFFFFFFFFFF AND SUB PUSH2 0x6A2 JUMPI PUSH3 0x15180 DUP7 PUSH2 0x684 SWAP2 SWAP1 PUSH2 0x1467 JUMP JUMPDEST DUP4 PUSH1 0x3 ADD PUSH0 DUP3 DUP3 SLOAD PUSH2 0x696 SWAP2 SWAP1 PUSH2 0x13D7 JUMP JUMPDEST SWAP3 POP POP DUP2 SWAP1 SSTORE POP PUSH2 0x6AF JUMP JUMPDEST DUP1 DUP1 PUSH1 0x1 ADD SWAP2 POP POP PUSH2 0x61F JUMP JUMPDEST POP POP POP POP POP JUMPDEST POP POP POP POP POP JUMP JUMPDEST PUSH2 0x6C4 PUSH2 0xD0D JUMP JUMPDEST DUP6 DUP6 DUP1 DUP1 PUSH1 0x1F ADD PUSH1 0x20 DUP1 SWAP2 DIV MUL PUSH1 0x20 ADD PUSH1 0x40 MLOAD SWAP1 DUP2 ADD PUSH1 0x40 MSTORE DUP1 SWAP4 SWAP3 SWAP2 SWAP1 DUP2 DUP2 MSTORE PUSH1 0x20 ADD DUP4 DUP4 DUP1 DUP3 DUP5 CALLDATACOPY PUSH0 DUP2 DUP5 ADD MSTORE PUSH1 0x1F NOT PUSH1 0x1F DUP3 ADD AND SWAP1 POP DUP1 DUP4 ADD SWAP3 POP POP POP POP POP POP POP DUP2 PUSH0 ADD DUP2 SWAP1 MSTORE POP DUP4 DUP4 DUP1 DUP1 PUSH1 0x1F ADD PUSH1 0x20 DUP1 SWAP2 DIV MUL PUSH1 0x20 ADD PUSH1 0x40 MLOAD SWAP1 DUP2 ADD PUSH1 0x40 MSTORE DUP1 SWAP4 SWAP3 SWAP2 SWAP1 DUP2 DUP2 MSTORE PUSH1 0x20 ADD DUP4 DUP4 DUP1 DUP3 DUP5 CALLDATACOPY PUSH0 DUP2 DUP5 ADD MSTORE PUSH1 0x1F NOT PUSH1 0x1F DUP3 ADD AND SWAP1 POP DUP1 DUP4 ADD SWAP3 POP POP POP POP POP POP POP DUP2 PUSH1 0x20 ADD DUP2 SWAP1 MSTORE POP PUSH1 0x1 DUP3 PUSH2 0x768 SWAP2 SWAP1 PUSH2 0x1467 JUMP JUMPDEST TIMESTAMP PUSH2 0x773 SWAP2 SWAP1 PUSH2 0x13D7 JUMP JUMPDEST DUP2 PUSH1 0x60 ADD DUP2 DUP2 MSTORE POP POP CALLER DUP2 PUSH1 0xA0 ADD SWAP1 PUSH20 0xFFFFFFFFFFFFFFFFFFFFFFFFFFFFFFFFFFFFFFFF AND SWAP1 DUP2 PUSH20 0xFFFFFFFFFFFFFFFFFFFFFFFFFFFFFFFFFFFFFFFF AND DUP2 MSTORE POP POP PUSH0 DUP2 SWAP1 DUP1 PUSH1 0x1 DUP2 SLOAD ADD DUP1 DUP3 SSTORE DUP1 SWAP2 POP POP PUSH1 0x1 SWAP1 SUB SWAP1 PUSH0 MSTORE PUSH1 0x20 PUSH0 KECCAK256 SWAP1 PUSH1 0x6 MUL ADD PUSH0 SWAP1 SWAP2 SWAP1 SWAP2 SWAP1 SWAP2 POP PUSH0 DUP3 ADD MLOAD DUP2 PUSH0 ADD SWAP1 DUP2 PUSH2 0x7EF SWAP2 SWAP1 PUSH2 0x1672 JUMP JUMPDEST POP PUSH1 0x20 DUP3 ADD MLOAD DUP2 PUSH1 0x1 ADD SWAP1 DUP2 PUSH2 0x805 SWAP2 SWAP1 PUSH2 0x1672 JUMP JUMPDEST POP PUSH1 0x40 DUP3 ADD MLOAD DUP2 PUSH1 0x2 ADD SSTORE PUSH1 0x60 DUP3 ADD MLOAD DUP2 PUSH1 0x3 ADD SSTORE PUSH1 0x80 DUP3 ADD MLOAD DUP2 PUSH1 0x4 ADD PUSH0 PUSH2 0x100 EXP DUP2 SLOAD DUP2 PUSH1 0xFF MUL NOT AND SWAP1 DUP4 PUSH1 0x2 DUP2 GT ISZERO PUSH2 0x844 JUMPI PUSH2 0x843 PUSH2 0xFA7 JUMP JUMPDEST JUMPDEST MUL OR SWAP1 SSTORE POP PUSH1 0xA0 DUP3 ADD MLOAD DUP2 PUSH1 0x4 ADD PUSH1 0x1 PUSH2 0x100 EXP DUP2 SLOAD DUP2 PUSH20 0xFFFFFFFFFFFFFFFFFFFFFFFFFFFFFFFFFFFFFFFF MUL NOT AND SWAP1 DUP4 PUSH20 0xFFFFFFFFFFFFFFFFFFFFFFFFFFFFFFFFFFFFFFFF AND MUL OR SWAP1 SSTORE POP PUSH1 0xC0 DUP3 ADD MLOAD DUP2 PUSH1 0x5 ADD SSTORE POP POP PUSH0 PUSH2 0x8A9 DUP8 DUP8 DUP8 DUP8 PUSH2 0xC80 JUMP JUMPDEST SWAP1 POP PUSH2 0x8B3 PUSH2 0xD6D JUMP JUMPDEST PUSH1 0x1 PUSH0 DUP1 SLOAD SWAP1 POP PUSH2 0x8C4 SWAP2 SWAP1 PUSH2 0x1741 JUMP JUMPDEST DUP2 PUSH0 ADD DUP2 DUP2 MSTORE POP POP PUSH1 0x1 DUP2 PUSH1 0x20 ADD SWAP1 ISZERO ISZERO SWAP1 DUP2 ISZERO ISZERO DUP2 MSTORE POP POP DUP1 PUSH1 0x1 DUP4 PUSH1 0x40 MLOAD PUSH2 0x8EE SWAP2 SWAP1 PUSH2 0x1367 JUMP JUMPDEST SWAP1 DUP2 MSTORE PUSH1 0x20 ADD PUSH1 0x40 MLOAD DUP1 SWAP2 SUB SWAP1 KECCAK256 PUSH0 DUP3 ADD MLOAD DUP2 PUSH0 ADD SSTORE PUSH1 0x20 DUP3 ADD MLOAD DUP2 PUSH1 0x1 ADD PUSH0 PUSH2 0x100 EXP DUP2 SLOAD DUP2 PUSH1 0xFF MUL NOT AND SWAP1 DUP4 ISZERO ISZERO MUL OR SWAP1 SSTORE POP SWAP1 POP POP POP POP POP POP POP POP POP POP JUMP JUMPDEST PUSH0 PUSH2 0x93D DUP7 DUP7 DUP7 DUP7 PUSH2 0xC80 JUMP JUMPDEST SWAP1 POP PUSH0 PUSH1 0x1 DUP3 PUSH1 0x40 MLOAD PUSH2 0x950 SWAP2 SWAP1 PUSH2 0x1367 JUMP JUMPDEST SWAP1 DUP2 MSTORE PUSH1 0x20 ADD PUSH1 0x40 MLOAD DUP1 SWAP2 SUB SWAP1 KECCAK256 PUSH1 0x40 MLOAD DUP1 PUSH1 0x40 ADD PUSH1 0x40 MSTORE SWAP1 DUP2 PUSH0 DUP3 ADD SLOAD DUP2 MSTORE PUSH1 0x20 ADD PUSH1 0x1 DUP3 ADD PUSH0 SWAP1 SLOAD SWAP1 PUSH2 0x100 EXP SWAP1 DIV PUSH1 0xFF AND ISZERO ISZERO ISZERO ISZERO DUP2 MSTORE POP POP SWAP1 POP PUSH0 ISZERO ISZERO DUP2 PUSH1 0x20 ADD MLOAD ISZERO ISZERO SUB PUSH2 0x9CF JUMPI PUSH1 0x40 MLOAD PUSH32 0x76FC34C900000000000000000000000000000000000000000000000000000000 DUP2 MSTORE PUSH1 0x4 ADD PUSH1 0x40 MLOAD DUP1 SWAP2 SUB SWAP1 REVERT JUMPDEST PUSH0 DUP1 DUP3 PUSH0 ADD MLOAD DUP2 SLOAD DUP2 LT PUSH2 0x9E6 JUMPI PUSH2 0x9E5 PUSH2 0x137D JUMP JUMPDEST JUMPDEST SWAP1 PUSH0 MSTORE PUSH1 0x20 PUSH0 KECCAK256 SWAP1 PUSH1 0x6 MUL ADD SWAP1 POP DUP1 PUSH1 0x4 ADD PUSH1 0x1 SWAP1 SLOAD SWAP1 PUSH2 0x100 EXP SWAP1 DIV PUSH20 0xFFFFFFFFFFFFFFFFFFFFFFFFFFFFFFFFFFFFFFFF AND PUSH20 0xFFFFFFFFFFFFFFFFFFFFFFFFFFFFFFFFFFFFFFFF AND CALLER PUSH20 0xFFFFFFFFFFFFFFFFFFFFFFFFFFFFFFFFFFFFFFFF AND EQ PUSH2 0xA7D JUMPI PUSH1 0x40 MLOAD PUSH32 0x344FD58600000000000000000000000000000000000000000000000000000000 DUP2 MSTORE PUSH1 0x4 ADD PUSH1 0x40 MLOAD DUP1 SWAP2 SUB SWAP1 REVERT JUMPDEST DUP4 DUP2 PUSH1 0x4 ADD PUSH0 PUSH2 0x100 EXP DUP2 SLOAD DUP2 PUSH1 0xFF MUL NOT AND SWAP1 DUP4 PUSH1 0x2 DUP2 GT ISZERO PUSH2 0xAA3 JUMPI PUSH2 0xAA2 PUSH2 0xFA7 JUMP JUMPDEST JUMPDEST MUL OR SWAP1 SSTORE POP POP POP POP POP POP POP POP POP JUMP JUMPDEST PUSH0 PUSH2 0xABF DUP7 DUP7 DUP7 DUP7 PUSH2 0xC80 JUMP JUMPDEST SWAP1 POP PUSH0 PUSH1 0x1 DUP3 PUSH1 0x40 MLOAD PUSH2 0xAD2 SWAP2 SWAP1 PUSH2 0x1367 JUMP JUMPDEST SWAP1 DUP2 MSTORE PUSH1 0x20 ADD PUSH1 0x40 MLOAD DUP1 SWAP2 SUB SWAP1 KECCAK256 PUSH1 0x40 MLOAD DUP1 PUSH1 0x40 ADD PUSH1 0x40 MSTORE SWAP1 DUP2 PUSH0 DUP3 ADD SLOAD DUP2 MSTORE PUSH1 0x20 ADD PUSH1 0x1 DUP3 ADD PUSH0 SWAP1 SLOAD SWAP1 PUSH2 0x100 EXP SWAP1 DIV PUSH1 0xFF AND ISZERO ISZERO ISZERO ISZERO DUP2 MSTORE POP POP SWAP1 POP PUSH0 ISZERO ISZERO DUP2 PUSH1 0x20 ADD MLOAD ISZERO ISZERO SUB PUSH2 0xB51 JUMPI PUSH1 0x40 MLOAD PUSH32 0x76FC34C900000000000000000000000000000000000000000000000000000000 DUP2 MSTORE PUSH1 0x4 ADD PUSH1 0x40 MLOAD DUP1 SWAP2 SUB SWAP1 REVERT JUMPDEST PUSH0 DUP2 PUSH0 ADD MLOAD DUP2 SLOAD DUP2 LT PUSH2 0xB67 JUMPI PUSH2 0xB66 PUSH2 0x137D JUMP JUMPDEST JUMPDEST SWAP1 PUSH0 MSTORE PUSH1 0x20 PUSH0 KECCAK256 SWAP1 PUSH1 0x6 MUL ADD PUSH1 0x4 ADD PUSH1 0x1 SWAP1 SLOAD SWAP1 PUSH2 0x100 EXP SWAP1 DIV PUSH20 0xFFFFFFFFFFFFFFFFFFFFFFFFFFFFFFFFFFFFFFFF AND PUSH20 0xFFFFFFFFFFFFFFFFFFFFFFFFFFFFFFFFFFFFFFFF AND CALLER PUSH20 0xFFFFFFFFFFFFFFFFFFFFFFFFFFFFFFFFFFFFFFFF AND EQ PUSH2 0xBFB JUMPI PUSH1 0x40 MLOAD PUSH32 0x344FD58600000000000000000000000000000000000000000000000000000000 DUP2 MSTORE PUSH1 0x4 ADD PUSH1 0x40 MLOAD DUP1 SWAP2 SUB SWAP1 REVERT JUMPDEST PUSH1 0x2 DUP3 PUSH1 0x40 MLOAD PUSH2 0xC0B SWAP2 SWAP1 PUSH2 0x1367 JUMP JUMPDEST SWAP1 DUP2 MSTORE PUSH1 0x20 ADD PUSH1 0x40 MLOAD DUP1 SWAP2 SUB SWAP1 KECCAK256 DUP4 SWAP1 DUP1 PUSH1 0x1 DUP2 SLOAD ADD DUP1 DUP3 SSTORE DUP1 SWAP2 POP POP PUSH1 0x1 SWAP1 SUB SWAP1 PUSH0 MSTORE PUSH1 0x20 PUSH0 KECCAK256 ADD PUSH0 SWAP1 SWAP2 SWAP1 SWAP2 SWAP1 SWAP2 PUSH2 0x100 EXP DUP2 SLOAD DUP2 PUSH20 0xFFFFFFFFFFFFFFFFFFFFFFFFFFFFFFFFFFFFFFFF MUL NOT AND SWAP1 DUP4 PUSH20 0xFFFFFFFFFFFFFFFFFFFFFFFFFFFFFFFFFFFFFFFF AND MUL OR SWAP1 SSTORE POP POP POP POP POP POP POP POP JUMP JUMPDEST PUSH1 0x60 ADDRESS PUSH20 0xFFFFFFFFFFFFFFFFFFFFFFFFFFFFFFFFFFFFFFFF AND PUSH4 0x591C515F DUP7 DUP7 DUP7 DUP7 PUSH1 0x40 MLOAD DUP6 PUSH4 0xFFFFFFFF AND PUSH1 0xE0 SHL DUP2 MSTORE PUSH1 0x4 ADD PUSH2 0xCC1 SWAP5 SWAP4 SWAP3 SWAP2 SWAP1 PUSH2 0x17A0 JUMP JUMPDEST PUSH0 PUSH1 0x40 MLOAD DUP1 DUP4 SUB DUP2 DUP7 GAS STATICCALL ISZERO DUP1 ISZERO PUSH2 0xCDB JUMPI RETURNDATASIZE PUSH0 DUP1 RETURNDATACOPY RETURNDATASIZE PUSH0 REVERT JUMPDEST POP POP POP POP PUSH1 0x40 MLOAD RETURNDATASIZE PUSH0 DUP3 RETURNDATACOPY RETURNDATASIZE PUSH1 0x1F NOT PUSH1 0x1F DUP3 ADD AND DUP3 ADD DUP1 PUSH1 0x40 MSTORE POP DUP2 ADD SWAP1 PUSH2 0xD03 SWAP2 SWAP1 PUSH2 0x18C6 JUMP JUMPDEST SWAP1 POP SWAP5 SWAP4 POP POP POP POP JUMP JUMPDEST PUSH1 0x40 MLOAD DUP1 PUSH1 0xE0 ADD PUSH1 0x40 MSTORE DUP1 PUSH1 0x60 DUP2 MSTORE PUSH1 0x20 ADD PUSH1 0x60 DUP2 MSTORE PUSH1 0x20 ADD PUSH0 DUP2 MSTORE PUSH1 0x20 ADD PUSH0 DUP2 MSTORE PUSH1 0x20 ADD PUSH0 PUSH1 0x2 DUP2 GT ISZERO PUSH2 0xD45 JUMPI PUSH2 0xD44 PUSH2 0xFA7 JUMP JUMPDEST JUMPDEST DUP2 MSTORE PUSH1 0x20 ADD PUSH0 PUSH20 0xFFFFFFFFFFFFFFFFFFFFFFFFFFFFFFFFFFFFFFFF AND DUP2 MSTORE PUSH1 0x20 ADD PUSH0 DUP2 MSTORE POP SWAP1 JUMP JUMPDEST PUSH1 0x40 MLOAD DUP1 PUSH1 0x40 ADD PUSH1 0x40 MSTORE DUP1 PUSH0 DUP2 MSTORE PUSH1 0x20 ADD PUSH0 ISZERO ISZERO DUP2 MSTORE POP SWAP1 JUMP JUMPDEST PUSH0 PUSH1 0x40 MLOAD SWAP1 POP SWAP1 JUMP JUMPDEST PUSH0 DUP1 REVERT JUMPDEST PUSH0 DUP1 REVERT JUMPDEST PUSH0 DUP1 REVERT JUMPDEST PUSH0 DUP1 REVERT JUMPDEST PUSH0 DUP1 REVERT JUMPDEST PUSH0 DUP1 DUP4 PUSH1 0x1F DUP5 ADD SLT PUSH2 0xDB9 JUMPI PUSH2 0xDB8 PUSH2 0xD98 JUMP JUMPDEST JUMPDEST DUP3 CALLDATALOAD SWAP1 POP PUSH8 0xFFFFFFFFFFFFFFFF DUP2 GT ISZERO PUSH2 0xDD6 JUMPI PUSH2 0xDD5 PUSH2 0xD9C JUMP JUMPDEST JUMPDEST PUSH1 0x20 DUP4 ADD SWAP2 POP DUP4 PUSH1 0x1 DUP3 MUL DUP4 ADD GT ISZERO PUSH2 0xDF2 JUMPI PUSH2 0xDF1 PUSH2 0xDA0 JUMP JUMPDEST JUMPDEST SWAP3 POP SWAP3 SWAP1 POP JUMP JUMPDEST PUSH0 DUP1 PUSH0 DUP1 PUSH1 0x40 DUP6 DUP8 SUB SLT ISZERO PUSH2 0xE11 JUMPI PUSH2 0xE10 PUSH2 0xD90 JUMP JUMPDEST JUMPDEST PUSH0 DUP6 ADD CALLDATALOAD PUSH8 0xFFFFFFFFFFFFFFFF DUP2 GT ISZERO PUSH2 0xE2E JUMPI PUSH2 0xE2D PUSH2 0xD94 JUMP JUMPDEST JUMPDEST PUSH2 0xE3A DUP8 DUP3 DUP9 ADD PUSH2 0xDA4 JUMP JUMPDEST SWAP5 POP SWAP5 POP POP PUSH1 0x20 DUP6 ADD CALLDATALOAD PUSH8 0xFFFFFFFFFFFFFFFF DUP2 GT ISZERO PUSH2 0xE5D JUMPI PUSH2 0xE5C PUSH2 0xD94 JUMP JUMPDEST JUMPDEST PUSH2 0xE69 DUP8 DUP3 DUP9 ADD PUSH2 0xDA4 JUMP JUMPDEST SWAP3 POP SWAP3 POP POP SWAP3 SWAP6 SWAP2 SWAP5 POP SWAP3 POP JUMP JUMPDEST PUSH0 DUP2 MLOAD SWAP1 POP SWAP2 SWAP1 POP JUMP JUMPDEST PUSH0 DUP3 DUP3 MSTORE PUSH1 0x20 DUP3 ADD SWAP1 POP SWAP3 SWAP2 POP POP JUMP JUMPDEST DUP3 DUP2 DUP4 MCOPY PUSH0 DUP4 DUP4 ADD MSTORE POP POP POP JUMP JUMPDEST PUSH0 PUSH1 0x1F NOT PUSH1 0x1F DUP4 ADD AND SWAP1 POP SWAP2 SWAP1 POP JUMP JUMPDEST PUSH0 PUSH2 0xEB9 DUP3 PUSH2 0xE77 JUMP JUMPDEST PUSH2 0xEC3 DUP2 DUP6 PUSH2 0xE81 JUMP JUMPDEST SWAP4 POP PUSH2 0xED3 DUP2 DUP6 PUSH1 0x20 DUP7 ADD PUSH2 0xE91 JUMP JUMPDEST PUSH2 0xEDC DUP2 PUSH2 0xE9F JUMP JUMPDEST DUP5 ADD SWAP2 POP POP SWAP3 SWAP2 POP POP JUMP JUMPDEST PUSH0 PUSH1 0x20 DUP3 ADD SWAP1 POP DUP2 DUP2 SUB PUSH0 DUP4 ADD MSTORE PUSH2 0xEFF DUP2 DUP5 PUSH2 0xEAF JUMP JUMPDEST SWAP1 POP SWAP3 SWAP2 POP POP JUMP JUMPDEST PUSH0 DUP2 ISZERO ISZERO SWAP1 POP SWAP2 SWAP1 POP JUMP JUMPDEST PUSH2 0xF1B DUP2 PUSH2 0xF07 JUMP JUMPDEST DUP3 MSTORE POP POP JUMP JUMPDEST PUSH0 PUSH1 0x20 DUP3 ADD SWAP1 POP PUSH2 0xF34 PUSH0 DUP4 ADD DUP5 PUSH2 0xF12 JUMP JUMPDEST SWAP3 SWAP2 POP POP JUMP JUMPDEST PUSH0 DUP2 SWAP1 POP SWAP2 SWAP1 POP JUMP JUMPDEST PUSH2 0xF4C DUP2 PUSH2 0xF3A JUMP JUMPDEST DUP2 EQ PUSH2 0xF56 JUMPI PUSH0 DUP1 REVERT JUMPDEST POP JUMP JUMPDEST PUSH0 DUP2 CALLDATALOAD SWAP1 POP PUSH2 0xF67 DUP2 PUSH2 0xF43 JUMP JUMPDEST SWAP3 SWAP2 POP POP JUMP JUMPDEST PUSH0 PUSH1 0x20 DUP3 DUP5 SUB SLT ISZERO PUSH2 0xF82 JUMPI PUSH2 0xF81 PUSH2 0xD90 JUMP JUMPDEST JUMPDEST PUSH0 PUSH2 0xF8F DUP5 DUP3 DUP6 ADD PUSH2 0xF59 JUMP JUMPDEST SWAP2 POP POP SWAP3 SWAP2 POP POP JUMP JUMPDEST PUSH2 0xFA1 DUP2 PUSH2 0xF3A JUMP JUMPDEST DUP3 MSTORE POP POP JUMP JUMPDEST PUSH32 0x4E487B7100000000000000000000000000000000000000000000000000000000 PUSH0 MSTORE PUSH1 0x21 PUSH1 0x4 MSTORE PUSH1 0x24 PUSH0 REVERT JUMPDEST PUSH1 0x3 DUP2 LT PUSH2 0xFE5 JUMPI PUSH2 0xFE4 PUSH2 0xFA7 JUMP JUMPDEST JUMPDEST POP JUMP JUMPDEST PUSH0 DUP2 SWAP1 POP PUSH2 0xFF5 DUP3 PUSH2 0xFD4 JUMP JUMPDEST SWAP2 SWAP1 POP JUMP JUMPDEST PUSH0 PUSH2 0x1004 DUP3 PUSH2 0xFE8 JUMP JUMPDEST SWAP1 POP SWAP2 SWAP1 POP JUMP JUMPDEST PUSH2 0x1014 DUP2 PUSH2 0xFFA JUMP JUMPDEST DUP3 MSTORE POP POP JUMP JUMPDEST PUSH0 PUSH20 0xFFFFFFFFFFFFFFFFFFFFFFFFFFFFFFFFFFFFFFFF DUP3 AND SWAP1 POP SWAP2 SWAP1 POP JUMP JUMPDEST PUSH0 PUSH2 0x1043 DUP3 PUSH2 0x101A JUMP JUMPDEST SWAP1 POP SWAP2 SWAP1 POP JUMP JUMPDEST PUSH2 0x1053 DUP2 PUSH2 0x1039 JUMP JUMPDEST DUP3 MSTORE POP POP JUMP JUMPDEST PUSH0 PUSH1 0xE0 DUP3 ADD SWAP1 POP DUP2 DUP2 SUB PUSH0 DUP4 ADD MSTORE PUSH2 0x1071 DUP2 DUP11 PUSH2 0xEAF JUMP JUMPDEST SWAP1 POP DUP2 DUP2 SUB PUSH1 0x20 DUP4 ADD MSTORE PUSH2 0x1085 DUP2 DUP10 PUSH2 0xEAF JUMP JUMPDEST SWAP1 POP PUSH2 0x1094 PUSH1 0x40 DUP4 ADD DUP9 PUSH2 0xF98 JUMP JUMPDEST PUSH2 0x10A1 PUSH1 0x60 DUP4 ADD DUP8 PUSH2 0xF98 JUMP JUMPDEST PUSH2 0x10AE PUSH1 0x80 DUP4 ADD DUP7 PUSH2 0x100B JUMP JUMPDEST PUSH2 0x10BB PUSH1 0xA0 DUP4 ADD DUP6 PUSH2 0x104A JUMP JUMPDEST PUSH2 0x10C8 PUSH1 0xC0 DUP4 ADD DUP5 PUSH2 0xF98 JUMP JUMPDEST SWAP9 SWAP8 POP POP POP POP POP POP POP POP JUMP JUMPDEST PUSH0 DUP1 PUSH0 DUP1 PUSH0 PUSH1 0x60 DUP7 DUP9 SUB SLT ISZERO PUSH2 0x10ED JUMPI PUSH2 0x10EC PUSH2 0xD90 JUMP JUMPDEST JUMPDEST PUSH0 DUP7 ADD CALLDATALOAD PUSH8 0xFFFFFFFFFFFFFFFF DUP2 GT ISZERO PUSH2 0x110A JUMPI PUSH2 0x1109 PUSH2 0xD94 JUMP JUMPDEST JUMPDEST PUSH2 0x1116 DUP9 DUP3 DUP10 ADD PUSH2 0xDA4 JUMP JUMPDEST SWAP6 POP SWAP6 POP POP PUSH1 0x20 DUP7 ADD CALLDATALOAD PUSH8 0xFFFFFFFFFFFFFFFF DUP2 GT ISZERO PUSH2 0x1139 JUMPI PUSH2 0x1138 PUSH2 0xD94 JUMP JUMPDEST JUMPDEST PUSH2 0x1145 DUP9 DUP3 DUP10 ADD PUSH2 0xDA4 JUMP JUMPDEST SWAP4 POP SWAP4 POP POP PUSH1 0x40 PUSH2 0x1158 DUP9 DUP3 DUP10 ADD PUSH2 0xF59 JUMP JUMPDEST SWAP2 POP POP SWAP3 SWAP6 POP SWAP3 SWAP6 SWAP1 SWAP4 POP JUMP JUMPDEST PUSH1 0x3 DUP2 LT PUSH2 0x1171 JUMPI PUSH0 DUP1 REVERT JUMPDEST POP JUMP JUMPDEST PUSH0 DUP2 CALLDATALOAD SWAP1 POP PUSH2 0x1182 DUP2 PUSH2 0x1165 JUMP JUMPDEST SWAP3 SWAP2 POP POP JUMP JUMPDEST PUSH0 DUP1 PUSH0 DUP1 PUSH0 PUSH1 0x60 DUP7 DUP9 SUB SLT ISZERO PUSH2 0x11A1 JUMPI PUSH2 0x11A0 PUSH2 0xD90 JUMP JUMPDEST JUMPDEST PUSH0 DUP7 ADD CALLDATALOAD PUSH8 0xFFFFFFFFFFFFFFFF DUP2 GT ISZERO PUSH2 0x11BE JUMPI PUSH2 0x11BD PUSH2 0xD94 JUMP JUMPDEST JUMPDEST PUSH2 0x11CA DUP9 DUP3 DUP10 ADD PUSH2 0xDA4 JUMP JUMPDEST SWAP6 POP SWAP6 POP POP PUSH1 0x20 DUP7 ADD CALLDATALOAD PUSH8 0xFFFFFFFFFFFFFFFF DUP2 GT ISZERO PUSH2 0x11ED JUMPI PUSH2 0x11EC PUSH2 0xD94 JUMP JUMPDEST JUMPDEST PUSH2 0x11F9 DUP9 DUP3 DUP10 ADD PUSH2 0xDA4 JUMP JUMPDEST SWAP4 POP SWAP4 POP POP PUSH1 0x40 PUSH2 0x120C DUP9 DUP3 DUP10 ADD PUSH2 0x1174 JUMP JUMPDEST SWAP2 POP POP SWAP3 SWAP6 POP SWAP3 SWAP6 SWAP1 SWAP4 POP JUMP JUMPDEST PUSH2 0x1222 DUP2 PUSH2 0x1039 JUMP JUMPDEST DUP2 EQ PUSH2 0x122C JUMPI PUSH0 DUP1 REVERT JUMPDEST POP JUMP JUMPDEST PUSH0 DUP2 CALLDATALOAD SWAP1 POP PUSH2 0x123D DUP2 PUSH2 0x1219 JUMP JUMPDEST SWAP3 SWAP2 POP POP JUMP JUMPDEST PUSH0 DUP1 PUSH0 DUP1 PUSH0 PUSH1 0x60 DUP7 DUP9 SUB SLT ISZERO PUSH2 0x125C JUMPI PUSH2 0x125B PUSH2 0xD90 JUMP JUMPDEST JUMPDEST PUSH0 DUP7 ADD CALLDATALOAD PUSH8 0xFFFFFFFFFFFFFFFF DUP2 GT ISZERO PUSH2 0x1279 JUMPI PUSH2 0x1278 PUSH2 0xD94 JUMP JUMPDEST JUMPDEST PUSH2 0x1285 DUP9 DUP3 DUP10 ADD PUSH2 0xDA4 JUMP JUMPDEST SWAP6 POP SWAP6 POP POP PUSH1 0x20 DUP7 ADD CALLDATALOAD PUSH8 0xFFFFFFFFFFFFFFFF DUP2 GT ISZERO PUSH2 0x12A8 JUMPI PUSH2 0x12A7 PUSH2 0xD94 JUMP JUMPDEST JUMPDEST PUSH2 0x12B4 DUP9 DUP3 DUP10 ADD PUSH2 0xDA4 JUMP JUMPDEST SWAP4 POP SWAP4 POP POP PUSH1 0x40 PUSH2 0x12C7 DUP9 DUP3 DUP10 ADD PUSH2 0x122F JUMP JUMPDEST SWAP2 POP POP SWAP3 SWAP6 POP SWAP3 SWAP6 SWAP1 SWAP4 POP JUMP JUMPDEST PUSH0 DUP2 SWAP1 POP SWAP3 SWAP2 POP POP JUMP JUMPDEST DUP3 DUP2 DUP4 CALLDATACOPY PUSH0 DUP4 DUP4 ADD MSTORE POP POP POP JUMP JUMPDEST PUSH0 PUSH2 0x12F7 DUP4 DUP6 PUSH2 0x12D4 JUMP JUMPDEST SWAP4 POP PUSH2 0x1304 DUP4 DUP6 DUP5 PUSH2 0x12DE JUMP JUMPDEST DUP3 DUP5 ADD SWAP1 POP SWAP4 SWAP3 POP POP POP JUMP JUMPDEST PUSH0 PUSH2 0x131C DUP3 DUP7 DUP9 PUSH2 0x12EC JUMP JUMPDEST SWAP2 POP PUSH2 0x1329 DUP3 DUP5 DUP7 PUSH2 0x12EC JUMP JUMPDEST SWAP2 POP DUP2 SWAP1 POP SWAP6 SWAP5 POP POP POP POP POP JUMP JUMPDEST PUSH0 PUSH2 0x1341 DUP3 PUSH2 0xE77 JUMP JUMPDEST PUSH2 0x134B DUP2 DUP6 PUSH2 0x12D4 JUMP JUMPDEST SWAP4 POP PUSH2 0x135B DUP2 DUP6 PUSH1 0x20 DUP7 ADD PUSH2 0xE91 JUMP JUMPDEST DUP1 DUP5 ADD SWAP2 POP POP SWAP3 SWAP2 POP POP JUMP JUMPDEST PUSH0 PUSH2 0x1372 DUP3 DUP5 PUSH2 0x1337 JUMP JUMPDEST SWAP2 POP DUP2 SWAP1 POP SWAP3 SWAP2 POP POP JUMP JUMPDEST PUSH32 0x4E487B7100000000000000000000000000000000000000000000000000000000 PUSH0 MSTORE PUSH1 0x32 PUSH1 0x4 MSTORE PUSH1 0x24 PUSH0 REVERT JUMPDEST PUSH32 0x4E487B7100000000000000000000000000000000000000000000000000000000 PUSH0 MSTORE PUSH1 0x11 PUSH1 0x4 MSTORE PUSH1 0x24 PUSH0 REVERT JUMPDEST PUSH0 PUSH2 0x13E1 DUP3 PUSH2 0xF3A JUMP JUMPDEST SWAP2 POP PUSH2 0x13EC DUP4 PUSH2 0xF3A JUMP JUMPDEST SWAP3 POP DUP3 DUP3 ADD SWAP1 POP DUP1 DUP3 GT ISZERO PUSH2 0x1404 JUMPI PUSH2 0x1403 PUSH2 0x13AA JUMP JUMPDEST JUMPDEST SWAP3 SWAP2 POP POP JUMP JUMPDEST PUSH32 0x4E487B7100000000000000000000000000000000000000000000000000000000 PUSH0 MSTORE PUSH1 0x22 PUSH1 0x4 MSTORE PUSH1 0x24 PUSH0 REVERT JUMPDEST PUSH0 PUSH1 0x2 DUP3 DIV SWAP1 POP PUSH1 0x1 DUP3 AND DUP1 PUSH2 0x144E JUMPI PUSH1 0x7F DUP3 AND SWAP2 POP JUMPDEST PUSH1 0x20 DUP3 LT DUP2 SUB PUSH2 0x1461 JUMPI PUSH2 0x1460 PUSH2 0x140A JUMP JUMPDEST JUMPDEST POP SWAP2 SWAP1 POP JUMP JUMPDEST PUSH0 PUSH2 0x1471 DUP3 PUSH2 0xF3A JUMP JUMPDEST SWAP2 POP PUSH2 0x147C DUP4 PUSH2 0xF3A JUMP JUMPDEST SWAP3 POP DUP3 DUP3 MUL PUSH2 0x148A DUP2 PUSH2 0xF3A JUMP JUMPDEST SWAP2 POP DUP3 DUP3 DIV DUP5 EQ DUP4 ISZERO OR PUSH2 0x14A1 JUMPI PUSH2 0x14A0 PUSH2 0x13AA JUMP JUMPDEST JUMPDEST POP SWAP3 SWAP2 POP POP JUMP JUMPDEST PUSH32 0x4E487B7100000000000000000000000000000000000000000000000000000000 PUSH0 MSTORE PUSH1 0x41 PUSH1 0x4 MSTORE PUSH1 0x24 PUSH0 REVERT JUMPDEST PUSH0 DUP2 SWAP1 POP DUP2 PUSH0 MSTORE PUSH1 0x20 PUSH0 KECCAK256 SWAP1 POP SWAP2 SWAP1 POP JUMP JUMPDEST PUSH0 PUSH1 0x20 PUSH1 0x1F DUP4 ADD DIV SWAP1 POP SWAP2 SWAP1 POP JUMP JUMPDEST PUSH0 DUP3 DUP3 SHL SWAP1 POP SWAP3 SWAP2 POP POP JUMP JUMPDEST PUSH0 PUSH1 0x8 DUP4 MUL PUSH2 0x1531 PUSH32 0xFFFFFFFFFFFFFFFFFFFFFFFFFFFFFFFFFFFFFFFFFFFFFFFFFFFFFFFFFFFFFFFF DUP3 PUSH2 0x14F6 JUMP JUMPDEST PUSH2 0x153B DUP7 DUP4 PUSH2 0x14F6 JUMP JUMPDEST SWAP6 POP DUP1 NOT DUP5 AND SWAP4 POP DUP1 DUP7 AND DUP5 OR SWAP3 POP POP POP SWAP4 SWAP3 POP POP POP JUMP JUMPDEST PUSH0 DUP2 SWAP1 POP SWAP2 SWAP1 POP JUMP JUMPDEST PUSH0 PUSH2 0x1576 PUSH2 0x1571 PUSH2 0x156C DUP5 PUSH2 0xF3A JUMP JUMPDEST PUSH2 0x1553 JUMP JUMPDEST PUSH2 0xF3A JUMP JUMPDEST SWAP1 POP SWAP2 SWAP1 POP JUMP JUMPDEST PUSH0 DUP2 SWAP1 POP SWAP2 SWAP1 POP JUMP JUMPDEST PUSH2 0x158F DUP4 PUSH2 0x155C JUMP JUMPDEST PUSH2 0x15A3 PUSH2 0x159B DUP3 PUSH2 0x157D JUMP JUMPDEST DUP5 DUP5 SLOAD PUSH2 0x1502 JUMP JUMPDEST DUP3 SSTORE POP POP POP POP JUMP JUMPDEST PUSH0 SWAP1 JUMP JUMPDEST PUSH2 0x15B7 PUSH2 0x15AB JUMP JUMPDEST PUSH2 0x15C2 DUP2 DUP5 DUP5 PUSH2 0x1586 JUMP JUMPDEST POP POP POP JUMP JUMPDEST JUMPDEST DUP2 DUP2 LT ISZERO PUSH2 0x15E5 JUMPI PUSH2 0x15DA PUSH0 DUP3 PUSH2 0x15AF JUMP JUMPDEST PUSH1 0x1 DUP2 ADD SWAP1 POP PUSH2 0x15C8 JUMP JUMPDEST POP POP JUMP JUMPDEST PUSH1 0x1F DUP3 GT ISZERO PUSH2 0x162A JUMPI PUSH2 0x15FB DUP2 PUSH2 0x14D5 JUMP JUMPDEST PUSH2 0x1604 DUP5 PUSH2 0x14E7 JUMP JUMPDEST DUP2 ADD PUSH1 0x20 DUP6 LT ISZERO PUSH2 0x1613 JUMPI DUP2 SWAP1 POP JUMPDEST PUSH2 0x1627 PUSH2 0x161F DUP6 PUSH2 0x14E7 JUMP JUMPDEST DUP4 ADD DUP3 PUSH2 0x15C7 JUMP JUMPDEST POP POP JUMPDEST POP POP POP JUMP JUMPDEST PUSH0 DUP3 DUP3 SHR SWAP1 POP SWAP3 SWAP2 POP POP JUMP JUMPDEST PUSH0 PUSH2 0x164A PUSH0 NOT DUP5 PUSH1 0x8 MUL PUSH2 0x162F JUMP JUMPDEST NOT DUP1 DUP4 AND SWAP2 POP POP SWAP3 SWAP2 POP POP JUMP JUMPDEST PUSH0 PUSH2 0x1662 DUP4 DUP4 PUSH2 0x163B JUMP JUMPDEST SWAP2 POP DUP3 PUSH1 0x2 MUL DUP3 OR SWAP1 POP SWAP3 SWAP2 POP POP JUMP JUMPDEST PUSH2 0x167B DUP3 PUSH2 0xE77 JUMP JUMPDEST PUSH8 0xFFFFFFFFFFFFFFFF DUP2 GT ISZERO PUSH2 0x1694 JUMPI PUSH2 0x1693 PUSH2 0x14A8 JUMP JUMPDEST JUMPDEST PUSH2 0x169E DUP3 SLOAD PUSH2 0x1437 JUMP JUMPDEST PUSH2 0x16A9 DUP3 DUP3 DUP6 PUSH2 0x15E9 JUMP JUMPDEST PUSH0 PUSH1 0x20 SWAP1 POP PUSH1 0x1F DUP4 GT PUSH1 0x1 DUP2 EQ PUSH2 0x16DA JUMPI PUSH0 DUP5 ISZERO PUSH2 0x16C8 JUMPI DUP3 DUP8 ADD MLOAD SWAP1 POP JUMPDEST PUSH2 0x16D2 DUP6 DUP3 PUSH2 0x1657 JUMP JUMPDEST DUP7 SSTORE POP PUSH2 0x1739 JUMP JUMPDEST PUSH1 0x1F NOT DUP5 AND PUSH2 0x16E8 DUP7 PUSH2 0x14D5 JUMP JUMPDEST PUSH0 JUMPDEST DUP3 DUP2 LT ISZERO PUSH2 0x170F JUMPI DUP5 DUP10 ADD MLOAD DUP3 SSTORE PUSH1 0x1 DUP3 ADD SWAP2 POP PUSH1 0x20 DUP6 ADD SWAP5 POP PUSH1 0x20 DUP2 ADD SWAP1 POP PUSH2 0x16EA JUMP JUMPDEST DUP7 DUP4 LT ISZERO PUSH2 0x172C JUMPI DUP5 DUP10 ADD MLOAD PUSH2 0x1728 PUSH1 0x1F DUP10 AND DUP3 PUSH2 0x163B JUMP JUMPDEST DUP4 SSTORE POP JUMPDEST PUSH1 0x1 PUSH1 0x2 DUP9 MUL ADD DUP9 SSTORE POP POP POP JUMPDEST POP POP POP POP POP POP JUMP JUMPDEST PUSH0 PUSH2 0x174B DUP3 PUSH2 0xF3A JUMP JUMPDEST SWAP2 POP PUSH2 0x1756 DUP4 PUSH2 0xF3A JUMP JUMPDEST SWAP3 POP DUP3 DUP3 SUB SWAP1 POP DUP2 DUP2 GT ISZERO PUSH2 0x176E JUMPI PUSH2 0x176D PUSH2 0x13AA JUMP JUMPDEST JUMPDEST SWAP3 SWAP2 POP POP JUMP JUMPDEST PUSH0 PUSH2 0x177F DUP4 DUP6 PUSH2 0xE81 JUMP JUMPDEST SWAP4 POP PUSH2 0x178C DUP4 DUP6 DUP5 PUSH2 0x12DE JUMP JUMPDEST PUSH2 0x1795 DUP4 PUSH2 0xE9F JUMP JUMPDEST DUP5 ADD SWAP1 POP SWAP4 SWAP3 POP POP POP JUMP JUMPDEST PUSH0 PUSH1 0x40 DUP3 ADD SWAP1 POP DUP2 DUP2 SUB PUSH0 DUP4 ADD MSTORE PUSH2 0x17B9 DUP2 DUP7 DUP9 PUSH2 0x1774 JUMP JUMPDEST SWAP1 POP DUP2 DUP2 SUB PUSH1 0x20 DUP4 ADD MSTORE PUSH2 0x17CE DUP2 DUP5 DUP7 PUSH2 0x1774 JUMP JUMPDEST SWAP1 POP SWAP6 SWAP5 POP POP POP POP POP JUMP JUMPDEST PUSH0 DUP1 REVERT JUMPDEST PUSH2 0x17E6 DUP3 PUSH2 0xE9F JUMP JUMPDEST DUP2 ADD DUP2 DUP2 LT PUSH8 0xFFFFFFFFFFFFFFFF DUP3 GT OR ISZERO PUSH2 0x1805 JUMPI PUSH2 0x1804 PUSH2 0x14A8 JUMP JUMPDEST JUMPDEST DUP1 PUSH1 0x40 MSTORE POP POP POP JUMP JUMPDEST PUSH0 PUSH2 0x1817 PUSH2 0xD87 JUMP JUMPDEST SWAP1 POP PUSH2 0x1823 DUP3 DUP3 PUSH2 0x17DD JUMP JUMPDEST SWAP2 SWAP1 POP JUMP JUMPDEST PUSH0 PUSH8 0xFFFFFFFFFFFFFFFF DUP3 GT ISZERO PUSH2 0x1842 JUMPI PUSH2 0x1841 PUSH2 0x14A8 JUMP JUMPDEST JUMPDEST PUSH2 0x184B DUP3 PUSH2 0xE9F JUMP JUMPDEST SWAP1 POP PUSH1 0x20 DUP2 ADD SWAP1 POP SWAP2 SWAP1 POP JUMP JUMPDEST PUSH0 PUSH2 0x186A PUSH2 0x1865 DUP5 PUSH2 0x1828 JUMP JUMPDEST PUSH2 0x180E JUMP JUMPDEST SWAP1 POP DUP3 DUP2 MSTORE PUSH1 0x20 DUP2 ADD DUP5 DUP5 DUP5 ADD GT ISZERO PUSH2 0x1886 JUMPI PUSH2 0x1885 PUSH2 0x17D9 JUMP JUMPDEST JUMPDEST PUSH2 0x1891 DUP5 DUP3 DUP6 PUSH2 0xE91 JUMP JUMPDEST POP SWAP4 SWAP3 POP POP POP JUMP JUMPDEST PUSH0 DUP3 PUSH1 0x1F DUP4 ADD SLT PUSH2 0x18AD JUMPI PUSH2 0x18AC PUSH2 0xD98 JUMP JUMPDEST JUMPDEST DUP2 MLOAD PUSH2 0x18BD DUP5 DUP3 PUSH1 0x20 DUP7 ADD PUSH2 0x1858 JUMP JUMPDEST SWAP2 POP POP SWAP3 SWAP2 POP POP JUMP JUMPDEST PUSH0 PUSH1 0x20 DUP3 DUP5 SUB SLT ISZERO PUSH2 0x18DB JUMPI PUSH2 0x18DA PUSH2 0xD90 JUMP JUMPDEST JUMPDEST PUSH0 DUP3 ADD MLOAD PUSH8 0xFFFFFFFFFFFFFFFF DUP2 GT ISZERO PUSH2 0x18F8 JUMPI PUSH2 0x18F7 PUSH2 0xD94 JUMP JUMPDEST JUMPDEST PUSH2 0x1904 DUP5 DUP3 DUP6 ADD PUSH2 0x1899 JUMP JUMPDEST SWAP2 POP POP SWAP3 SWAP2 POP POP JUMP INVALID LOG2 PUSH5 0x6970667358 0x22 SLT KECCAK256 CHAINID PUSH24 0x7442D38E81F1641EAF48A485D23C7508FC81635251552F5C PUSH21 0x539F5E64A364736F6C634300081A00330000000000 "
				},
				"gasEstimates": {
					"creation": {
						"codeDepositCost": "1293400",
						"executionCost": "1347",
						"totalCost": "1294747"
					},
					"external": {
						"addAuthorizedLibrarianFor(string,string,address)": "infinite",
						"append(string,string)": "infinite",
						"books(uint256)": "infinite",
						"checkStatus(string,string)": "infinite",
						"createBook(string,string,uint256)": "infinite",
						"updateBookStatus(string,string,uint8)": "infinite",
						"updateExpirationDateFor(string,string,uint256)": "infinite"
					},
					"internal": {
						"_idFor(string calldata,string calldata)": "infinite"
					}
				},
				"methodIdentifiers": {
					"addAuthorizedLibrarianFor(string,string,address)": "febf21f5",
					"append(string,string)": "591c515f",
					"books(uint256)": "68744046",
					"checkStatus(string,string)": "63a88bcf",
					"createBook(string,string,uint256)": "ce9d915a",
					"updateBookStatus(string,string,uint8)": "e9d51bae",
					"updateExpirationDateFor(string,string,uint256)": "c9e2c5e3"
				}
			},
			"storageLayout": {
				"storage": [
					{
						"astId": 37,
						"contract": "Assignments/Assignment2/Library.sol:Library",
						"label": "books",
						"offset": 0,
						"slot": "0",
						"type": "t_array(t_struct(Book)22_storage)dyn_storage"
					},
					{
						"astId": 42,
						"contract": "Assignments/Assignment2/Library.sol:Library",
						"label": "bookIndexes",
						"offset": 0,
						"slot": "1",
						"type": "t_mapping(t_string_memory_ptr,t_struct(BookIndex)27_storage)"
					},
					{
						"astId": 47,
						"contract": "Assignments/Assignment2/Library.sol:Library",
						"label": "bookLibrarians",
						"offset": 0,
						"slot": "2",
						"type": "t_mapping(t_string_memory_ptr,t_array(t_address)dyn_storage)"
					}
				],
				"types": {
					"t_address": {
						"encoding": "inplace",
						"label": "address",
						"numberOfBytes": "20"
					},
					"t_array(t_address)dyn_storage": {
						"base": "t_address",
						"encoding": "dynamic_array",
						"label": "address[]",
						"numberOfBytes": "32"
					},
					"t_array(t_struct(Book)22_storage)dyn_storage": {
						"base": "t_struct(Book)22_storage",
						"encoding": "dynamic_array",
						"label": "struct Book[]",
						"numberOfBytes": "32"
					},
					"t_bool": {
						"encoding": "inplace",
						"label": "bool",
						"numberOfBytes": "1"
					},
					"t_enum(BookStatus)6": {
						"encoding": "inplace",
						"label": "enum BookStatus",
						"numberOfBytes": "1"
					},
					"t_mapping(t_string_memory_ptr,t_array(t_address)dyn_storage)": {
						"encoding": "mapping",
						"key": "t_string_memory_ptr",
						"label": "mapping(string => address[])",
						"numberOfBytes": "32",
						"value": "t_array(t_address)dyn_storage"
					},
					"t_mapping(t_string_memory_ptr,t_struct(BookIndex)27_storage)": {
						"encoding": "mapping",
						"key": "t_string_memory_ptr",
						"label": "mapping(string => struct BookIndex)",
						"numberOfBytes": "32",
						"value": "t_struct(BookIndex)27_storage"
					},
					"t_string_memory_ptr": {
						"encoding": "bytes",
						"label": "string",
						"numberOfBytes": "32"
					},
					"t_string_storage": {
						"encoding": "bytes",
						"label": "string",
						"numberOfBytes": "32"
					},
					"t_struct(Book)22_storage": {
						"encoding": "inplace",
						"label": "struct Book",
						"members": [
							{
								"astId": 8,
								"contract": "Assignments/Assignment2/Library.sol:Library",
								"label": "title",
								"offset": 0,
								"slot": "0",
								"type": "t_string_storage"
							},
							{
								"astId": 10,
								"contract": "Assignments/Assignment2/Library.sol:Library",
								"label": "author",
								"offset": 0,
								"slot": "1",
								"type": "t_string_storage"
							},
							{
								"astId": 12,
								"contract": "Assignments/Assignment2/Library.sol:Library",
								"label": "publicationDate",
								"offset": 0,
								"slot": "2",
								"type": "t_uint256"
							},
							{
								"astId": 14,
								"contract": "Assignments/Assignment2/Library.sol:Library",
								"label": "expirationDate",
								"offset": 0,
								"slot": "3",
								"type": "t_uint256"
							},
							{
								"astId": 17,
								"contract": "Assignments/Assignment2/Library.sol:Library",
								"label": "status",
								"offset": 0,
								"slot": "4",
								"type": "t_enum(BookStatus)6"
							},
							{
								"astId": 19,
								"contract": "Assignments/Assignment2/Library.sol:Library",
								"label": "primaryLibrarian",
								"offset": 1,
								"slot": "4",
								"type": "t_address"
							},
							{
								"astId": 21,
								"contract": "Assignments/Assignment2/Library.sol:Library",
								"label": "readCount",
								"offset": 0,
								"slot": "5",
								"type": "t_uint256"
							}
						],
						"numberOfBytes": "192"
					},
					"t_struct(BookIndex)27_storage": {
						"encoding": "inplace",
						"label": "struct BookIndex",
						"members": [
							{
								"astId": 24,
								"contract": "Assignments/Assignment2/Library.sol:Library",
								"label": "index",
								"offset": 0,
								"slot": "0",
								"type": "t_uint256"
							},
							{
								"astId": 26,
								"contract": "Assignments/Assignment2/Library.sol:Library",
								"label": "exists",
								"offset": 0,
								"slot": "1",
								"type": "t_bool"
							}
						],
						"numberOfBytes": "64"
					},
					"t_uint256": {
						"encoding": "inplace",
						"label": "uint256",
						"numberOfBytes": "32"
					}
				}
			},
			"userdoc": {
				"kind": "user",
				"methods": {},
				"version": 1
			}
		}
	}
}