{
	"Assignments/Assignment2/Stringify.sol": {
		"StringHelper": {
			"abi": [
				{
					"inputs": [
						{
							"internalType": "string",
							"name": "lhs",
							"type": "string"
						},
						{
							"internalType": "string",
							"name": "rhs",
							"type": "string"
						}
					],
					"name": "append",
					"outputs": [
						{
							"internalType": "string",
							"name": "str",
							"type": "string"
						}
					],
					"stateMutability": "pure",
					"type": "function"
				}
			],
			"devdoc": {
				"kind": "dev",
				"methods": {},
				"version": 1
			},
			"evm": {
				"assembly": "    /* \"Assignments/Assignment2/Stringify.sol\":190:390  contract StringHelper is Stringify {... */\n  mstore(0x40, 0x80)\n  callvalue\n  dup1\n  iszero\n  tag_1\n  jumpi\n  0x00\n  dup1\n  revert\ntag_1:\n  pop\n  dataSize(sub_0)\n  dup1\n  dataOffset(sub_0)\n  0x00\n  codecopy\n  0x00\n  return\nstop\n\nsub_0: assembly {\n        /* \"Assignments/Assignment2/Stringify.sol\":190:390  contract StringHelper is Stringify {... */\n      mstore(0x40, 0x80)\n      callvalue\n      dup1\n      iszero\n      tag_1\n      jumpi\n      0x00\n      dup1\n      revert\n    tag_1:\n      pop\n      jumpi(tag_2, lt(calldatasize, 0x04))\n      shr(0xe0, calldataload(0x00))\n      dup1\n      0x591c515f\n      eq\n      tag_3\n      jumpi\n    tag_2:\n      0x00\n      dup1\n      revert\n        /* \"Assignments/Assignment2/Stringify.sol\":231:388  function append(string calldata lhs, string calldata rhs) external pure returns(string memory str) {... */\n    tag_3:\n      tag_4\n      0x04\n      dup1\n      calldatasize\n      sub\n      dup2\n      add\n      swap1\n      tag_5\n      swap2\n      swap1\n      tag_6\n      jump\t// in\n    tag_5:\n      tag_7\n      jump\t// in\n    tag_4:\n      mload(0x40)\n      tag_8\n      swap2\n      swap1\n      tag_9\n      jump\t// in\n    tag_8:\n      mload(0x40)\n      dup1\n      swap2\n      sub\n      swap1\n      return\n    tag_7:\n        /* \"Assignments/Assignment2/Stringify.sol\":311:328  string memory str */\n      0x60\n        /* \"Assignments/Assignment2/Stringify.sol\":371:374  lhs */\n      dup5\n      dup5\n        /* \"Assignments/Assignment2/Stringify.sol\":376:379  rhs */\n      dup5\n      dup5\n        /* \"Assignments/Assignment2/Stringify.sol\":354:380  abi.encodePacked(lhs, rhs) */\n      add(0x20, mload(0x40))\n      tag_11\n      swap5\n      swap4\n      swap3\n      swap2\n      swap1\n      tag_12\n      jump\t// in\n    tag_11:\n      mload(0x40)\n      0x20\n      dup2\n      dup4\n      sub\n      sub\n      dup2\n      mstore\n      swap1\n      0x40\n      mstore\n        /* \"Assignments/Assignment2/Stringify.sol\":340:381  return string(abi.encodePacked(lhs, rhs)) */\n      swap1\n      pop\n        /* \"Assignments/Assignment2/Stringify.sol\":231:388  function append(string calldata lhs, string calldata rhs) external pure returns(string memory str) {... */\n      swap5\n      swap4\n      pop\n      pop\n      pop\n      pop\n      jump\t// out\n        /* \"#utility.yul\":88:205   */\n    tag_14:\n        /* \"#utility.yul\":197:198   */\n      0x00\n        /* \"#utility.yul\":194:195   */\n      dup1\n        /* \"#utility.yul\":187:199   */\n      revert\n        /* \"#utility.yul\":211:328   */\n    tag_15:\n        /* \"#utility.yul\":320:321   */\n      0x00\n        /* \"#utility.yul\":317:318   */\n      dup1\n        /* \"#utility.yul\":310:322   */\n      revert\n        /* \"#utility.yul\":334:451   */\n    tag_16:\n        /* \"#utility.yul\":443:444   */\n      0x00\n        /* \"#utility.yul\":440:441   */\n      dup1\n        /* \"#utility.yul\":433:445   */\n      revert\n        /* \"#utility.yul\":457:574   */\n    tag_17:\n        /* \"#utility.yul\":566:567   */\n      0x00\n        /* \"#utility.yul\":563:564   */\n      dup1\n        /* \"#utility.yul\":556:568   */\n      revert\n        /* \"#utility.yul\":580:697   */\n    tag_18:\n        /* \"#utility.yul\":689:690   */\n      0x00\n        /* \"#utility.yul\":686:687   */\n      dup1\n        /* \"#utility.yul\":679:691   */\n      revert\n        /* \"#utility.yul\":717:1270   */\n    tag_19:\n        /* \"#utility.yul\":775:783   */\n      0x00\n        /* \"#utility.yul\":785:791   */\n      dup1\n        /* \"#utility.yul\":835:838   */\n      dup4\n        /* \"#utility.yul\":828:832   */\n      0x1f\n        /* \"#utility.yul\":820:826   */\n      dup5\n        /* \"#utility.yul\":816:833   */\n      add\n        /* \"#utility.yul\":812:839   */\n      slt\n        /* \"#utility.yul\":802:924   */\n      tag_36\n      jumpi\n        /* \"#utility.yul\":843:922   */\n      tag_37\n      tag_16\n      jump\t// in\n    tag_37:\n        /* \"#utility.yul\":802:924   */\n    tag_36:\n        /* \"#utility.yul\":956:962   */\n      dup3\n        /* \"#utility.yul\":943:963   */\n      calldataload\n        /* \"#utility.yul\":933:963   */\n      swap1\n      pop\n        /* \"#utility.yul\":986:1004   */\n      0xffffffffffffffff\n        /* \"#utility.yul\":978:984   */\n      dup2\n        /* \"#utility.yul\":975:1005   */\n      gt\n        /* \"#utility.yul\":972:1089   */\n      iszero\n      tag_38\n      jumpi\n        /* \"#utility.yul\":1008:1087   */\n      tag_39\n      tag_17\n      jump\t// in\n    tag_39:\n        /* \"#utility.yul\":972:1089   */\n    tag_38:\n        /* \"#utility.yul\":1122:1126   */\n      0x20\n        /* \"#utility.yul\":1114:1120   */\n      dup4\n        /* \"#utility.yul\":1110:1127   */\n      add\n        /* \"#utility.yul\":1098:1127   */\n      swap2\n      pop\n        /* \"#utility.yul\":1176:1179   */\n      dup4\n        /* \"#utility.yul\":1168:1172   */\n      0x01\n        /* \"#utility.yul\":1160:1166   */\n      dup3\n        /* \"#utility.yul\":1156:1173   */\n      mul\n        /* \"#utility.yul\":1146:1154   */\n      dup4\n        /* \"#utility.yul\":1142:1174   */\n      add\n        /* \"#utility.yul\":1139:1180   */\n      gt\n        /* \"#utility.yul\":1136:1264   */\n      iszero\n      tag_40\n      jumpi\n        /* \"#utility.yul\":1183:1262   */\n      tag_41\n      tag_18\n      jump\t// in\n    tag_41:\n        /* \"#utility.yul\":1136:1264   */\n    tag_40:\n        /* \"#utility.yul\":717:1270   */\n      swap3\n      pop\n      swap3\n      swap1\n      pop\n      jump\t// out\n        /* \"#utility.yul\":1276:2150   */\n    tag_6:\n        /* \"#utility.yul\":1368:1374   */\n      0x00\n        /* \"#utility.yul\":1376:1382   */\n      dup1\n        /* \"#utility.yul\":1384:1390   */\n      0x00\n        /* \"#utility.yul\":1392:1398   */\n      dup1\n        /* \"#utility.yul\":1441:1443   */\n      0x40\n        /* \"#utility.yul\":1429:1438   */\n      dup6\n        /* \"#utility.yul\":1420:1427   */\n      dup8\n        /* \"#utility.yul\":1416:1439   */\n      sub\n        /* \"#utility.yul\":1412:1444   */\n      slt\n        /* \"#utility.yul\":1409:1528   */\n      iszero\n      tag_43\n      jumpi\n        /* \"#utility.yul\":1447:1526   */\n      tag_44\n      tag_14\n      jump\t// in\n    tag_44:\n        /* \"#utility.yul\":1409:1528   */\n    tag_43:\n        /* \"#utility.yul\":1595:1596   */\n      0x00\n        /* \"#utility.yul\":1584:1593   */\n      dup6\n        /* \"#utility.yul\":1580:1597   */\n      add\n        /* \"#utility.yul\":1567:1598   */\n      calldataload\n        /* \"#utility.yul\":1625:1643   */\n      0xffffffffffffffff\n        /* \"#utility.yul\":1617:1623   */\n      dup2\n        /* \"#utility.yul\":1614:1644   */\n      gt\n        /* \"#utility.yul\":1611:1728   */\n      iszero\n      tag_45\n      jumpi\n        /* \"#utility.yul\":1647:1726   */\n      tag_46\n      tag_15\n      jump\t// in\n    tag_46:\n        /* \"#utility.yul\":1611:1728   */\n    tag_45:\n        /* \"#utility.yul\":1760:1825   */\n      tag_47\n        /* \"#utility.yul\":1817:1824   */\n      dup8\n        /* \"#utility.yul\":1808:1814   */\n      dup3\n        /* \"#utility.yul\":1797:1806   */\n      dup9\n        /* \"#utility.yul\":1793:1815   */\n      add\n        /* \"#utility.yul\":1760:1825   */\n      tag_19\n      jump\t// in\n    tag_47:\n        /* \"#utility.yul\":1742:1825   */\n      swap5\n      pop\n      swap5\n      pop\n        /* \"#utility.yul\":1538:1835   */\n      pop\n        /* \"#utility.yul\":1902:1904   */\n      0x20\n        /* \"#utility.yul\":1891:1900   */\n      dup6\n        /* \"#utility.yul\":1887:1905   */\n      add\n        /* \"#utility.yul\":1874:1906   */\n      calldataload\n        /* \"#utility.yul\":1933:1951   */\n      0xffffffffffffffff\n        /* \"#utility.yul\":1925:1931   */\n      dup2\n        /* \"#utility.yul\":1922:1952   */\n      gt\n        /* \"#utility.yul\":1919:2036   */\n      iszero\n      tag_48\n      jumpi\n        /* \"#utility.yul\":1955:2034   */\n      tag_49\n      tag_15\n      jump\t// in\n    tag_49:\n        /* \"#utility.yul\":1919:2036   */\n    tag_48:\n        /* \"#utility.yul\":2068:2133   */\n      tag_50\n        /* \"#utility.yul\":2125:2132   */\n      dup8\n        /* \"#utility.yul\":2116:2122   */\n      dup3\n        /* \"#utility.yul\":2105:2114   */\n      dup9\n        /* \"#utility.yul\":2101:2123   */\n      add\n        /* \"#utility.yul\":2068:2133   */\n      tag_19\n      jump\t// in\n    tag_50:\n        /* \"#utility.yul\":2050:2133   */\n      swap3\n      pop\n      swap3\n      pop\n        /* \"#utility.yul\":1845:2143   */\n      pop\n        /* \"#utility.yul\":1276:2150   */\n      swap3\n      swap6\n      swap2\n      swap5\n      pop\n      swap3\n      pop\n      jump\t// out\n        /* \"#utility.yul\":2156:2255   */\n    tag_20:\n        /* \"#utility.yul\":2208:2214   */\n      0x00\n        /* \"#utility.yul\":2242:2247   */\n      dup2\n        /* \"#utility.yul\":2236:2248   */\n      mload\n        /* \"#utility.yul\":2226:2248   */\n      swap1\n      pop\n        /* \"#utility.yul\":2156:2255   */\n      swap2\n      swap1\n      pop\n      jump\t// out\n        /* \"#utility.yul\":2261:2430   */\n    tag_21:\n        /* \"#utility.yul\":2345:2356   */\n      0x00\n        /* \"#utility.yul\":2379:2385   */\n      dup3\n        /* \"#utility.yul\":2374:2377   */\n      dup3\n        /* \"#utility.yul\":2367:2386   */\n      mstore\n        /* \"#utility.yul\":2419:2423   */\n      0x20\n        /* \"#utility.yul\":2414:2417   */\n      dup3\n        /* \"#utility.yul\":2410:2424   */\n      add\n        /* \"#utility.yul\":2395:2424   */\n      swap1\n      pop\n        /* \"#utility.yul\":2261:2430   */\n      swap3\n      swap2\n      pop\n      pop\n      jump\t// out\n        /* \"#utility.yul\":2436:2575   */\n    tag_22:\n        /* \"#utility.yul\":2525:2531   */\n      dup3\n        /* \"#utility.yul\":2520:2523   */\n      dup2\n        /* \"#utility.yul\":2515:2518   */\n      dup4\n        /* \"#utility.yul\":2509:2532   */\n      mcopy\n        /* \"#utility.yul\":2566:2567   */\n      0x00\n        /* \"#utility.yul\":2557:2563   */\n      dup4\n        /* \"#utility.yul\":2552:2555   */\n      dup4\n        /* \"#utility.yul\":2548:2564   */\n      add\n        /* \"#utility.yul\":2541:2568   */\n      mstore\n        /* \"#utility.yul\":2436:2575   */\n      pop\n      pop\n      pop\n      jump\t// out\n        /* \"#utility.yul\":2581:2683   */\n    tag_23:\n        /* \"#utility.yul\":2622:2628   */\n      0x00\n        /* \"#utility.yul\":2673:2675   */\n      0x1f\n        /* \"#utility.yul\":2669:2676   */\n      not\n        /* \"#utility.yul\":2664:2666   */\n      0x1f\n        /* \"#utility.yul\":2657:2662   */\n      dup4\n        /* \"#utility.yul\":2653:2667   */\n      add\n        /* \"#utility.yul\":2649:2677   */\n      and\n        /* \"#utility.yul\":2639:2677   */\n      swap1\n      pop\n        /* \"#utility.yul\":2581:2683   */\n      swap2\n      swap1\n      pop\n      jump\t// out\n        /* \"#utility.yul\":2689:3066   */\n    tag_24:\n        /* \"#utility.yul\":2777:2780   */\n      0x00\n        /* \"#utility.yul\":2805:2844   */\n      tag_56\n        /* \"#utility.yul\":2838:2843   */\n      dup3\n        /* \"#utility.yul\":2805:2844   */\n      tag_20\n      jump\t// in\n    tag_56:\n        /* \"#utility.yul\":2860:2931   */\n      tag_57\n        /* \"#utility.yul\":2924:2930   */\n      dup2\n        /* \"#utility.yul\":2919:2922   */\n      dup6\n        /* \"#utility.yul\":2860:2931   */\n      tag_21\n      jump\t// in\n    tag_57:\n        /* \"#utility.yul\":2853:2931   */\n      swap4\n      pop\n        /* \"#utility.yul\":2940:3005   */\n      tag_58\n        /* \"#utility.yul\":2998:3004   */\n      dup2\n        /* \"#utility.yul\":2993:2996   */\n      dup6\n        /* \"#utility.yul\":2986:2990   */\n      0x20\n        /* \"#utility.yul\":2979:2984   */\n      dup7\n        /* \"#utility.yul\":2975:2991   */\n      add\n        /* \"#utility.yul\":2940:3005   */\n      tag_22\n      jump\t// in\n    tag_58:\n        /* \"#utility.yul\":3030:3059   */\n      tag_59\n        /* \"#utility.yul\":3052:3058   */\n      dup2\n        /* \"#utility.yul\":3030:3059   */\n      tag_23\n      jump\t// in\n    tag_59:\n        /* \"#utility.yul\":3025:3028   */\n      dup5\n        /* \"#utility.yul\":3021:3060   */\n      add\n        /* \"#utility.yul\":3014:3060   */\n      swap2\n      pop\n        /* \"#utility.yul\":2781:3066   */\n      pop\n        /* \"#utility.yul\":2689:3066   */\n      swap3\n      swap2\n      pop\n      pop\n      jump\t// out\n        /* \"#utility.yul\":3072:3385   */\n    tag_9:\n        /* \"#utility.yul\":3185:3189   */\n      0x00\n        /* \"#utility.yul\":3223:3225   */\n      0x20\n        /* \"#utility.yul\":3212:3221   */\n      dup3\n        /* \"#utility.yul\":3208:3226   */\n      add\n        /* \"#utility.yul\":3200:3226   */\n      swap1\n      pop\n        /* \"#utility.yul\":3272:3281   */\n      dup2\n        /* \"#utility.yul\":3266:3270   */\n      dup2\n        /* \"#utility.yul\":3262:3282   */\n      sub\n        /* \"#utility.yul\":3258:3259   */\n      0x00\n        /* \"#utility.yul\":3247:3256   */\n      dup4\n        /* \"#utility.yul\":3243:3260   */\n      add\n        /* \"#utility.yul\":3236:3283   */\n      mstore\n        /* \"#utility.yul\":3300:3378   */\n      tag_61\n        /* \"#utility.yul\":3373:3377   */\n      dup2\n        /* \"#utility.yul\":3364:3370   */\n      dup5\n        /* \"#utility.yul\":3300:3378   */\n      tag_24\n      jump\t// in\n    tag_61:\n        /* \"#utility.yul\":3292:3378   */\n      swap1\n      pop\n        /* \"#utility.yul\":3072:3385   */\n      swap3\n      swap2\n      pop\n      pop\n      jump\t// out\n        /* \"#utility.yul\":3391:3539   */\n    tag_25:\n        /* \"#utility.yul\":3493:3504   */\n      0x00\n        /* \"#utility.yul\":3530:3533   */\n      dup2\n        /* \"#utility.yul\":3515:3533   */\n      swap1\n      pop\n        /* \"#utility.yul\":3391:3539   */\n      swap3\n      swap2\n      pop\n      pop\n      jump\t// out\n        /* \"#utility.yul\":3545:3693   */\n    tag_26:\n        /* \"#utility.yul\":3643:3649   */\n      dup3\n        /* \"#utility.yul\":3638:3641   */\n      dup2\n        /* \"#utility.yul\":3633:3636   */\n      dup4\n        /* \"#utility.yul\":3620:3650   */\n      calldatacopy\n        /* \"#utility.yul\":3684:3685   */\n      0x00\n        /* \"#utility.yul\":3675:3681   */\n      dup4\n        /* \"#utility.yul\":3670:3673   */\n      dup4\n        /* \"#utility.yul\":3666:3682   */\n      add\n        /* \"#utility.yul\":3659:3686   */\n      mstore\n        /* \"#utility.yul\":3545:3693   */\n      pop\n      pop\n      pop\n      jump\t// out\n        /* \"#utility.yul\":3723:4053   */\n    tag_27:\n        /* \"#utility.yul\":3839:3842   */\n      0x00\n        /* \"#utility.yul\":3860:3949   */\n      tag_65\n        /* \"#utility.yul\":3942:3948   */\n      dup4\n        /* \"#utility.yul\":3937:3940   */\n      dup6\n        /* \"#utility.yul\":3860:3949   */\n      tag_25\n      jump\t// in\n    tag_65:\n        /* \"#utility.yul\":3853:3949   */\n      swap4\n      pop\n        /* \"#utility.yul\":3959:4015   */\n      tag_66\n        /* \"#utility.yul\":4008:4014   */\n      dup4\n        /* \"#utility.yul\":4003:4006   */\n      dup6\n        /* \"#utility.yul\":3996:4001   */\n      dup5\n        /* \"#utility.yul\":3959:4015   */\n      tag_26\n      jump\t// in\n    tag_66:\n        /* \"#utility.yul\":4040:4046   */\n      dup3\n        /* \"#utility.yul\":4035:4038   */\n      dup5\n        /* \"#utility.yul\":4031:4047   */\n      add\n        /* \"#utility.yul\":4024:4047   */\n      swap1\n      pop\n        /* \"#utility.yul\":3723:4053   */\n      swap4\n      swap3\n      pop\n      pop\n      pop\n      jump\t// out\n        /* \"#utility.yul\":4059:4534   */\n    tag_12:\n        /* \"#utility.yul\":4259:4262   */\n      0x00\n        /* \"#utility.yul\":4281:4386   */\n      tag_68\n        /* \"#utility.yul\":4382:4385   */\n      dup3\n        /* \"#utility.yul\":4373:4379   */\n      dup7\n        /* \"#utility.yul\":4365:4371   */\n      dup9\n        /* \"#utility.yul\":4281:4386   */\n      tag_27\n      jump\t// in\n    tag_68:\n        /* \"#utility.yul\":4274:4386   */\n      swap2\n      pop\n        /* \"#utility.yul\":4403:4508   */\n      tag_69\n        /* \"#utility.yul\":4504:4507   */\n      dup3\n        /* \"#utility.yul\":4495:4501   */\n      dup5\n        /* \"#utility.yul\":4487:4493   */\n      dup7\n        /* \"#utility.yul\":4403:4508   */\n      tag_27\n      jump\t// in\n    tag_69:\n        /* \"#utility.yul\":4396:4508   */\n      swap2\n      pop\n        /* \"#utility.yul\":4525:4528   */\n      dup2\n        /* \"#utility.yul\":4518:4528   */\n      swap1\n      pop\n        /* \"#utility.yul\":4059:4534   */\n      swap6\n      swap5\n      pop\n      pop\n      pop\n      pop\n      pop\n      jump\t// out\n\n    auxdata: 0xa2646970667358221220b9e42cd91785ef47d29cd448233c1f2cca0e8dde21a7d8dbd50e05e26d78461564736f6c634300081a0033\n}\n",
				"bytecode": {
					"linkReferences": {},
					"object": "6080604052348015600e575f80fd5b5061029f8061001c5f395ff3fe608060405234801561000f575f80fd5b5060043610610029575f3560e01c8063591c515f1461002d575b5f80fd5b610047600480360381019061004291906100f8565b61005d565b60405161005491906101e6565b60405180910390f35b6060848484846040516020016100769493929190610242565b6040516020818303038152906040529050949350505050565b5f80fd5b5f80fd5b5f80fd5b5f80fd5b5f80fd5b5f8083601f8401126100b8576100b7610097565b5b8235905067ffffffffffffffff8111156100d5576100d461009b565b5b6020830191508360018202830111156100f1576100f061009f565b5b9250929050565b5f805f80604085870312156101105761010f61008f565b5b5f85013567ffffffffffffffff81111561012d5761012c610093565b5b610139878288016100a3565b9450945050602085013567ffffffffffffffff81111561015c5761015b610093565b5b610168878288016100a3565b925092505092959194509250565b5f81519050919050565b5f82825260208201905092915050565b8281835e5f83830152505050565b5f601f19601f8301169050919050565b5f6101b882610176565b6101c28185610180565b93506101d2818560208601610190565b6101db8161019e565b840191505092915050565b5f6020820190508181035f8301526101fe81846101ae565b905092915050565b5f81905092915050565b828183375f83830152505050565b5f6102298385610206565b9350610236838584610210565b82840190509392505050565b5f61024e82868861021e565b915061025b82848661021e565b91508190509594505050505056fea2646970667358221220b9e42cd91785ef47d29cd448233c1f2cca0e8dde21a7d8dbd50e05e26d78461564736f6c634300081a0033",
					"opcodes": "PUSH1 0x80 PUSH1 0x40 MSTORE CALLVALUE DUP1 ISZERO PUSH1 0xE JUMPI PUSH0 DUP1 REVERT JUMPDEST POP PUSH2 0x29F DUP1 PUSH2 0x1C PUSH0 CODECOPY PUSH0 RETURN INVALID PUSH1 0x80 PUSH1 0x40 MSTORE CALLVALUE DUP1 ISZERO PUSH2 0xF JUMPI PUSH0 DUP1 REVERT JUMPDEST POP PUSH1 0x4 CALLDATASIZE LT PUSH2 0x29 JUMPI PUSH0 CALLDATALOAD PUSH1 0xE0 SHR DUP1 PUSH4 0x591C515F EQ PUSH2 0x2D JUMPI JUMPDEST PUSH0 DUP1 REVERT JUMPDEST PUSH2 0x47 PUSH1 0x4 DUP1 CALLDATASIZE SUB DUP2 ADD SWAP1 PUSH2 0x42 SWAP2 SWAP1 PUSH2 0xF8 JUMP JUMPDEST PUSH2 0x5D JUMP JUMPDEST PUSH1 0x40 MLOAD PUSH2 0x54 SWAP2 SWAP1 PUSH2 0x1E6 JUMP JUMPDEST PUSH1 0x40 MLOAD DUP1 SWAP2 SUB SWAP1 RETURN JUMPDEST PUSH1 0x60 DUP5 DUP5 DUP5 DUP5 PUSH1 0x40 MLOAD PUSH1 0x20 ADD PUSH2 0x76 SWAP5 SWAP4 SWAP3 SWAP2 SWAP1 PUSH2 0x242 JUMP JUMPDEST PUSH1 0x40 MLOAD PUSH1 0x20 DUP2 DUP4 SUB SUB DUP2 MSTORE SWAP1 PUSH1 0x40 MSTORE SWAP1 POP SWAP5 SWAP4 POP POP POP POP JUMP JUMPDEST PUSH0 DUP1 REVERT JUMPDEST PUSH0 DUP1 REVERT JUMPDEST PUSH0 DUP1 REVERT JUMPDEST PUSH0 DUP1 REVERT JUMPDEST PUSH0 DUP1 REVERT JUMPDEST PUSH0 DUP1 DUP4 PUSH1 0x1F DUP5 ADD SLT PUSH2 0xB8 JUMPI PUSH2 0xB7 PUSH2 0x97 JUMP JUMPDEST JUMPDEST DUP3 CALLDATALOAD SWAP1 POP PUSH8 0xFFFFFFFFFFFFFFFF DUP2 GT ISZERO PUSH2 0xD5 JUMPI PUSH2 0xD4 PUSH2 0x9B JUMP JUMPDEST JUMPDEST PUSH1 0x20 DUP4 ADD SWAP2 POP DUP4 PUSH1 0x1 DUP3 MUL DUP4 ADD GT ISZERO PUSH2 0xF1 JUMPI PUSH2 0xF0 PUSH2 0x9F JUMP JUMPDEST JUMPDEST SWAP3 POP SWAP3 SWAP1 POP JUMP JUMPDEST PUSH0 DUP1 PUSH0 DUP1 PUSH1 0x40 DUP6 DUP8 SUB SLT ISZERO PUSH2 0x110 JUMPI PUSH2 0x10F PUSH2 0x8F JUMP JUMPDEST JUMPDEST PUSH0 DUP6 ADD CALLDATALOAD PUSH8 0xFFFFFFFFFFFFFFFF DUP2 GT ISZERO PUSH2 0x12D JUMPI PUSH2 0x12C PUSH2 0x93 JUMP JUMPDEST JUMPDEST PUSH2 0x139 DUP8 DUP3 DUP9 ADD PUSH2 0xA3 JUMP JUMPDEST SWAP5 POP SWAP5 POP POP PUSH1 0x20 DUP6 ADD CALLDATALOAD PUSH8 0xFFFFFFFFFFFFFFFF DUP2 GT ISZERO PUSH2 0x15C JUMPI PUSH2 0x15B PUSH2 0x93 JUMP JUMPDEST JUMPDEST PUSH2 0x168 DUP8 DUP3 DUP9 ADD PUSH2 0xA3 JUMP JUMPDEST SWAP3 POP SWAP3 POP POP SWAP3 SWAP6 SWAP2 SWAP5 POP SWAP3 POP JUMP JUMPDEST PUSH0 DUP2 MLOAD SWAP1 POP SWAP2 SWAP1 POP JUMP JUMPDEST PUSH0 DUP3 DUP3 MSTORE PUSH1 0x20 DUP3 ADD SWAP1 POP SWAP3 SWAP2 POP POP JUMP JUMPDEST DUP3 DUP2 DUP4 MCOPY PUSH0 DUP4 DUP4 ADD MSTORE POP POP POP JUMP JUMPDEST PUSH0 PUSH1 0x1F NOT PUSH1 0x1F DUP4 ADD AND SWAP1 POP SWAP2 SWAP1 POP JUMP JUMPDEST PUSH0 PUSH2 0x1B8 DUP3 PUSH2 0x176 JUMP JUMPDEST PUSH2 0x1C2 DUP2 DUP6 PUSH2 0x180 JUMP JUMPDEST SWAP4 POP PUSH2 0x1D2 DUP2 DUP6 PUSH1 0x20 DUP7 ADD PUSH2 0x190 JUMP JUMPDEST PUSH2 0x1DB DUP2 PUSH2 0x19E JUMP JUMPDEST DUP5 ADD SWAP2 POP POP SWAP3 SWAP2 POP POP JUMP JUMPDEST PUSH0 PUSH1 0x20 DUP3 ADD SWAP1 POP DUP2 DUP2 SUB PUSH0 DUP4 ADD MSTORE PUSH2 0x1FE DUP2 DUP5 PUSH2 0x1AE JUMP JUMPDEST SWAP1 POP SWAP3 SWAP2 POP POP JUMP JUMPDEST PUSH0 DUP2 SWAP1 POP SWAP3 SWAP2 POP POP JUMP JUMPDEST DUP3 DUP2 DUP4 CALLDATACOPY PUSH0 DUP4 DUP4 ADD MSTORE POP POP POP JUMP JUMPDEST PUSH0 PUSH2 0x229 DUP4 DUP6 PUSH2 0x206 JUMP JUMPDEST SWAP4 POP PUSH2 0x236 DUP4 DUP6 DUP5 PUSH2 0x210 JUMP JUMPDEST DUP3 DUP5 ADD SWAP1 POP SWAP4 SWAP3 POP POP POP JUMP JUMPDEST PUSH0 PUSH2 0x24E DUP3 DUP7 DUP9 PUSH2 0x21E JUMP JUMPDEST SWAP2 POP PUSH2 0x25B DUP3 DUP5 DUP7 PUSH2 0x21E JUMP JUMPDEST SWAP2 POP DUP2 SWAP1 POP SWAP6 SWAP5 POP POP POP POP POP JUMP INVALID LOG2 PUSH5 0x6970667358 0x22 SLT KECCAK256 0xB9 0xE4 0x2C 0xD9 OR DUP6 0xEF SELFBALANCE 0xD2 SWAP13 0xD4 BASEFEE 0x23 EXTCODECOPY 0x1F 0x2C 0xCA 0xE DUP14 0xDE 0x21 0xA7 0xD8 0xDB 0xD5 0xE SDIV 0xE2 PUSH14 0x78461564736F6C634300081A0033 "
				},
				"gasEstimates": {
					"creation": {
						"codeDepositCost": "134200",
						"executionCost": "175",
						"totalCost": "134375"
					},
					"external": {
						"append(string,string)": "infinite"
					}
				},
				"methodIdentifiers": {
					"append(string,string)": "591c515f"
				}
			},
			"storageLayout": {
				"storage": [],
				"types": null
			},
			"userdoc": {
				"kind": "user",
				"methods": {},
				"version": 1
			}
		}
	}
}